{"contracts/SmartSwap.sol":{"SmartSwap":{"abi":[{"anonymous":false,"inputs":[{"indexed":true,"internalType":"uint256","name":"id","type":"uint256"}],"name":"Cancel","type":"event"},{"anonymous":false,"inputs":[{"indexed":true,"internalType":"uint256","name":"id","type":"uint256"}],"name":"Close","type":"event"},{"anonymous":false,"inputs":[{"indexed":true,"internalType":"address","name":"wallet","type":"address"}],"name":"DevWalletChanged","type":"event"},{"anonymous":false,"inputs":[{"indexed":true,"internalType":"address","name":"wallet","type":"address"}],"name":"FeeWalletChanged","type":"event"},{"anonymous":false,"inputs":[{"indexed":true,"internalType":"uint256","name":"id","type":"uint256"},{"indexed":true,"internalType":"address","name":"openTrader","type":"address"},{"indexed":true,"internalType":"address","name":"closeTrader","type":"address"}],"name":"Open","type":"event"},{"anonymous":false,"inputs":[{"indexed":true,"internalType":"address","name":"previousOwner","type":"address"},{"indexed":true,"internalType":"address","name":"newOwner","type":"address"}],"name":"OwnershipTransferred","type":"event"},{"anonymous":false,"inputs":[{"indexed":false,"internalType":"address","name":"account","type":"address"}],"name":"Paused","type":"event"},{"anonymous":false,"inputs":[{"indexed":true,"internalType":"address","name":"swapTokenAddress","type":"address"}],"name":"SwapTokenUpdated","type":"event"},{"anonymous":false,"inputs":[{"indexed":false,"internalType":"address","name":"account","type":"address"}],"name":"Unpaused","type":"event"},{"inputs":[{"internalType":"address","name":"token","type":"address"}],"name":"addTokenToFreeList","outputs":[],"stateMutability":"nonpayable","type":"function"},{"inputs":[{"internalType":"uint256","name":"id","type":"uint256"}],"name":"cancel","outputs":[],"stateMutability":"nonpayable","type":"function"},{"inputs":[{"internalType":"uint256","name":"id","type":"uint256"}],"name":"check","outputs":[{"internalType":"uint256","name":"openValue","type":"uint256"},{"internalType":"address","name":"openTrader","type":"address"},{"internalType":"address","name":"openContractAddress","type":"address"},{"internalType":"uint256","name":"closeValue","type":"uint256"},{"internalType":"address","name":"closeTrader","type":"address"},{"internalType":"address","name":"closeContractAddress","type":"address"},{"internalType":"enum SmartSwap.SwapType","name":"swapType","type":"uint8"},{"internalType":"enum SmartSwap.Status","name":"status","type":"uint8"}],"stateMutability":"view","type":"function"},{"inputs":[{"internalType":"uint256","name":"id","type":"uint256"},{"internalType":"uint256","name":"fee","type":"uint256"},{"internalType":"bool","name":"isFeeInSwap","type":"bool"},{"internalType":"bool","name":"calcFeeUsingTotalSupply","type":"bool"}],"name":"close","outputs":[],"stateMutability":"payable","type":"function"},{"inputs":[{"internalType":"uint256","name":"amount","type":"uint256"},{"internalType":"address","name":"token","type":"address"}],"name":"getFeeInEthForERC20","outputs":[{"internalType":"uint256","name":"","type":"uint256"}],"stateMutability":"view","type":"function"},{"inputs":[{"internalType":"uint256","name":"amount","type":"uint256"},{"internalType":"address","name":"token","type":"address"}],"name":"getFeeInEthForERC20UsingTotalSupply","outputs":[{"internalType":"uint256","name":"","type":"uint256"}],"stateMutability":"view","type":"function"},{"inputs":[{"internalType":"uint256","name":"amount","type":"uint256"}],"name":"getFeeInEthForEth","outputs":[{"internalType":"uint256","name":"","type":"uint256"}],"stateMutability":"view","type":"function"},{"inputs":[{"internalType":"uint256","name":"amount","type":"uint256"},{"internalType":"address","name":"token","type":"address"},{"internalType":"bool","name":"calcFeeUsingTotalSupply","type":"bool"}],"name":"getFeeInSwapForERC20","outputs":[{"internalType":"uint256","name":"","type":"uint256"}],"stateMutability":"view","type":"function"},{"inputs":[{"internalType":"uint256","name":"amount","type":"uint256"}],"name":"getFeeInSwapForETH","outputs":[{"internalType":"uint256","name":"","type":"uint256"}],"stateMutability":"view","type":"function"},{"inputs":[{"internalType":"address","name":"swapTokenAddress","type":"address"},{"internalType":"address payable","name":"feesWallet","type":"address"},{"internalType":"address","name":"devWallet","type":"address"},{"internalType":"address","name":"priceEstimator","type":"address"}],"name":"initialize","outputs":[],"stateMutability":"nonpayable","type":"function"},{"inputs":[{"internalType":"address","name":"token","type":"address"}],"name":"isFreeToken","outputs":[{"internalType":"bool","name":"","type":"bool"}],"stateMutability":"view","type":"function"},{"inputs":[{"internalType":"uint256","name":"openValue","type":"uint256"},{"internalType":"address","name":"openContractAddress","type":"address"},{"internalType":"uint256","name":"closeValue","type":"uint256"},{"internalType":"address payable","name":"closeTrader","type":"address"},{"internalType":"address","name":"closeContractAddress","type":"address"},{"internalType":"uint256","name":"fee","type":"uint256"},{"internalType":"bool","name":"isFeeInSwap","type":"bool"},{"internalType":"bool","name":"calcFeeUsingTotalSupply","type":"bool"}],"name":"open","outputs":[],"stateMutability":"payable","type":"function"},{"inputs":[],"name":"owner","outputs":[{"internalType":"address","name":"","type":"address"}],"stateMutability":"view","type":"function"},{"inputs":[],"name":"pause","outputs":[],"stateMutability":"nonpayable","type":"function"},{"inputs":[],"name":"paused","outputs":[{"internalType":"bool","name":"","type":"bool"}],"stateMutability":"view","type":"function"},{"inputs":[{"internalType":"address","name":"token","type":"address"}],"name":"removeTokenFromFreeList","outputs":[],"stateMutability":"nonpayable","type":"function"},{"inputs":[],"name":"renounceOwnership","outputs":[],"stateMutability":"nonpayable","type":"function"},{"inputs":[{"internalType":"uint8","name":"allowedFeeSlippagePercentage","type":"uint8"}],"name":"setAllowedFeeSlippagePercentage","outputs":[],"stateMutability":"nonpayable","type":"function"},{"inputs":[{"internalType":"address payable","name":"wallet","type":"address"}],"name":"setDevWallet","outputs":[],"stateMutability":"nonpayable","type":"function"},{"inputs":[{"internalType":"uint8","name":"ethFeePercentage","type":"uint8"}],"name":"setEthFeePercentage","outputs":[],"stateMutability":"nonpayable","type":"function"},{"inputs":[{"internalType":"address payable","name":"wallet","type":"address"}],"name":"setFeeWallet","outputs":[],"stateMutability":"nonpayable","type":"function"},{"inputs":[{"internalType":"address","name":"priceEstimator","type":"address"}],"name":"setPriceEstimator","outputs":[],"stateMutability":"nonpayable","type":"function"},{"inputs":[{"internalType":"address","name":"swapTokenAddress","type":"address"}],"name":"setSwapToken","outputs":[],"stateMutability":"nonpayable","type":"function"},{"inputs":[{"internalType":"uint8","name":"uniswapFeePercentage","type":"uint8"}],"name":"setUniswapFeePercentage","outputs":[],"stateMutability":"nonpayable","type":"function"},{"inputs":[{"internalType":"address","name":"newOwner","type":"address"}],"name":"transferOwnership","outputs":[],"stateMutability":"nonpayable","type":"function"},{"inputs":[],"name":"unpause","outputs":[],"stateMutability":"nonpayable","type":"function"}],"evm":{"bytecode":{"linkReferences":{},"object":"608060405234801561001057600080fd5b506151f9806100206000396000f3fe6080604052600436106101805760003560e01c80638da5cb5b116100d1578063c0f8bc601161008a578063d8ad1b2b11610064578063d8ad1b2b14610618578063da1792051461064b578063f2fde38b1461067e578063f8c8765e146106b157610180565b8063c0f8bc601461057f578063cd7d9e99146105b8578063d2bb3aed146105eb57610180565b80638da5cb5b1461045857806390d49b9d146104895780639976dfbe146104bc578063a9ff2bae146104f5578063b851b7ca14610522578063bf3452f81461055557610180565b806340e58ee51161013e5780635f72f450116101185780635f72f45014610360578063715018a6146104015780638456cb59146104165780638cc6058b1461042b57610180565b806340e58ee5146102f75780635c04aa6a146103215780635c975abb1461034b57610180565b806245a3d714610185578063107af1e4146101ba5780631f53ac02146102155780632699fd1f1461024857806331bff5211461029b5780633f4ba83a146102e2575b600080fd5b34801561019157600080fd5b506101b8600480360360208110156101a857600080fd5b50356001600160a01b03166106fc565b005b6101b860048036036101008110156101d157600080fd5b508035906001600160a01b036020820135811691604081013591606082013581169160808101359091169060a08101359060c081013515159060e00135151561080a565b34801561022157600080fd5b506101b86004803603602081101561023857600080fd5b50356001600160a01b03166109ea565b34801561025457600080fd5b506102896004803603606081101561026b57600080fd5b508035906001600160a01b0360208201351690604001351515610ad1565b60408051918252519081900360200190f35b3480156102a757600080fd5b506102ce600480360360208110156102be57600080fd5b50356001600160a01b0316610b06565b604080519115158252519081900360200190f35b3480156102ee57600080fd5b506101b8610b24565b34801561030357600080fd5b506101b86004803603602081101561031a57600080fd5b5035610b86565b34801561032d57600080fd5b506102896004803603602081101561034457600080fd5b5035610dc3565b34801561035757600080fd5b506102ce610de1565b34801561036c57600080fd5b5061038a6004803603602081101561038357600080fd5b5035610dea565b604080518981526001600160a01b03808a1660208301528881169282019290925260608101879052858216608082015290841660a082015260c081018360028111156103d257fe5b60ff1681526020018260028111156103e657fe5b60ff1681526020019850505050505050505060405180910390f35b34801561040d57600080fd5b506101b8610f04565b34801561042257600080fd5b506101b8610fa6565b34801561043757600080fd5b506101b86004803603602081101561044e57600080fd5b503560ff16611006565b34801561046457600080fd5b5061046d6110a9565b604080516001600160a01b039092168252519081900360200190f35b34801561049557600080fd5b506101b8600480360360208110156104ac57600080fd5b50356001600160a01b03166110b8565b3480156104c857600080fd5b50610289600480360360408110156104df57600080fd5b50803590602001356001600160a01b031661119f565b34801561050157600080fd5b506101b86004803603602081101561051857600080fd5b503560ff1661127e565b34801561052e57600080fd5b506101b86004803603602081101561054557600080fd5b50356001600160a01b0316611321565b34801561056157600080fd5b506102896004803603602081101561057857600080fd5b5035611457565b34801561058b57600080fd5b50610289600480360360408110156105a257600080fd5b50803590602001356001600160a01b0316611474565b3480156105c457600080fd5b506101b8600480360360208110156105db57600080fd5b50356001600160a01b0316611682565b3480156105f757600080fd5b506101b86004803603602081101561060e57600080fd5b503560ff1661174d565b34801561062457600080fd5b506101b86004803603602081101561063b57600080fd5b50356001600160a01b03166117f0565b6101b86004803603608081101561066157600080fd5b5080359060208101359060408101351515906060013515156118b8565b34801561068a57600080fd5b506101b8600480360360208110156106a157600080fd5b50356001600160a01b0316611b21565b3480156106bd57600080fd5b506101b8600480360360808110156106d457600080fd5b506001600160a01b038135811691602081013582169160408201358116916060013516611c1a565b610704611cca565b6065546001600160a01b03908116911614610754576040805162461bcd60e51b81526020600482018190526024820152600080516020614f1a833981519152604482015290519081900360640190fd5b80610767816001600160a01b0316611cce565b6107a25760405162461bcd60e51b8152600401808060200182810382526034815260200180614e9a6034913960400191505060405180910390fd5b6001600160a01b0382166107e75760405162461bcd60e51b815260040180806020018281038252602d815260200180614e6d602d913960400191505060405180910390fd5b5060d180546001600160a01b0319166001600160a01b0392909216919091179055565b60975460ff1615610855576040805162461bcd60e51b815260206004820152601060248201526f14185d5cd8589b194e881c185d5cd95960821b604482015290519081900360640190fd5b600088116108945760405162461bcd60e51b8152600401808060200182810382526033815260200180614c226033913960400191505060405180910390fd5b600086116108d35760405162461bcd60e51b8152600401808060200182810382526034815260200180614e046034913960400191505060405180910390fd5b6108dc87610b06565b61091f576000831161091f5760405162461bcd60e51b815260040180806020018281038252602c815260200180615041602c913960400191505060405180910390fd5b6001600160a01b0385166109645760405162461bcd60e51b8152600401808060200182810382526029815260200180614bf96029913960400191505060405180910390fd5b73eeeeeeeeeeeeeeeeeeeeeeeeeeeeeeeeeeeeeeee6001600160a01b038816141561099c57610997888787878787611d0a565b6109e0565b73eeeeeeeeeeeeeeeeeeeeeeeeeeeeeeeeeeeeeeee6001600160a01b03851614156109d057610997888887898787876121f0565b6109e0888888888888888861278b565b5050505050505050565b6109f2611cca565b6065546001600160a01b03908116911614610a42576040805162461bcd60e51b81526020600482018190526024820152600080516020614f1a833981519152604482015290519081900360640190fd5b6001600160a01b038116610a875760405162461bcd60e51b815260040180806020018281038252602a815260200180614d63602a913960400191505060405180910390fd5b60cd80546001600160a01b0319166001600160a01b0383169081179091556040517f268c00f4ec08b34fdde24b52e47a09d62f3f3837eb3b8ac7206cefb3bb5e534590600090a250565b60008082610ae857610ae38585611474565b610af2565b610af2858561119f565b9050610afd81612cb0565b95945050505050565b6001600160a01b0316600090815260d2602052604090205460ff1690565b610b2c611cca565b6065546001600160a01b03908116911614610b7c576040805162461bcd60e51b81526020600482018190526024820152600080516020614f1a833981519152604482015290519081900360640190fd5b610b84612e3e565b565b80610b8f614bb4565b600082815260ca6020908152604091829020825161010081018452815481526001820154928101929092526002808201546001600160a01b0390811694840194909452600382015484166060840152600482015484166080840152600582015493841660a08401529192909160c0840191600160a01b900460ff1690811115610c1457fe5b6002811115610c1f57fe5b81526020016005820160159054906101000a900460ff166002811115610c4157fe5b6002811115610c4c57fe5b905250905060008160e001516002811115610c6357fe5b14610c6d57600080fd5b610c75614bb4565b600084815260ca6020908152604091829020825161010081018452815481526001820154928101929092526002808201546001600160a01b0390811694840194909452600382015484166060840152600482015484166080840152600582015493841660a08401529192909160c0840191600160a01b900460ff1690811115610cfa57fe5b6002811115610d0557fe5b81526020016005820160159054906101000a900460ff166002811115610d2757fe5b6002811115610d3257fe5b9052509050610d3f611cca565b6001600160a01b031681604001516001600160a01b031614610d925760405162461bcd60e51b815260040180806020018281038252603e81526020018061511f603e913960400191505060405180910390fd5b8060c001516002811115610da257fe5b610db457610daf84612edc565b610dbd565b610dbd84613056565b50505050565b600080610dcf83611457565b9050610dda81612cb0565b9392505050565b60975460ff1690565b600080600080600080600080610dfe614bb4565b60008a815260ca6020908152604091829020825161010081018452815481526001820154928101929092526002808201546001600160a01b0390811694840194909452600382015484166060840152600482015484166080840152600582015493841660a08401529192909160c0840191600160a01b900460ff1690811115610e8357fe5b6002811115610e8e57fe5b81526020016005820160159054906101000a900460ff166002811115610eb057fe5b6002811115610ebb57fe5b9052508051604082015160808301516020840151606085015160a086015160c087015160e090970151959f50939d50919b50995097509550909350915050919395975091939597565b610f0c611cca565b6065546001600160a01b03908116911614610f5c576040805162461bcd60e51b81526020600482018190526024820152600080516020614f1a833981519152604482015290519081900360640190fd5b6065546040516000916001600160a01b0316907f8be0079c531659141344cd1fd0a4f28419497f9722a3daafe3b4186f6b6457e0908390a3606580546001600160a01b0319169055565b610fae611cca565b6065546001600160a01b03908116911614610ffe576040805162461bcd60e51b81526020600482018190526024820152600080516020614f1a833981519152604482015290519081900360640190fd5b610b84613228565b61100e611cca565b6065546001600160a01b0390811691161461105e576040805162461bcd60e51b81526020600482018190526024820152600080516020614f1a833981519152604482015290519081900360640190fd5b60648160ff1611156110a15760405162461bcd60e51b81526004018080602001828103825260398152602001806150b36039913960400191505060405180910390fd5b60ff1660ce55565b6065546001600160a01b031690565b6110c0611cca565b6065546001600160a01b03908116911614611110576040805162461bcd60e51b81526020600482018190526024820152600080516020614f1a833981519152604482015290519081900360640190fd5b6001600160a01b0381166111555760405162461bcd60e51b815260040180806020018281038252602b815260200180614ece602b913960400191505060405180910390fd5b60cc80546001600160a01b0319166001600160a01b0383169081179091556040517fe805ffc02a12d27b142431551e2cd3f766203c54a9a4ab0d1cf01ce7366a796f90600090a250565b60006111aa82610b06565b156111b757506000611278565b6000826001600160a01b03166318160ddd6040518163ffffffff1660e01b815260040160206040518083038186803b1580156111f257600080fd5b505afa158015611206573d6000803e3d6000fd5b505050506040513d602081101561121c57600080fd5b50519050600061125382611247606461123b898463ffffffff6132a916565b9063ffffffff6132a916565b9063ffffffff61330216565b905067016345785d8a000061127283611247848463ffffffff6132a916565b93505050505b92915050565b611286611cca565b6065546001600160a01b039081169116146112d6576040805162461bcd60e51b81526020600482018190526024820152600080516020614f1a833981519152604482015290519081900360640190fd5b60648160ff1611156113195760405162461bcd60e51b815260040180806020018281038252603d815260200180615187603d913960400191505060405180910390fd5b60ff1660d055565b611329611cca565b6065546001600160a01b03908116911614611379576040805162461bcd60e51b81526020600482018190526024820152600080516020614f1a833981519152604482015290519081900360640190fd5b8061138c816001600160a01b0316611cce565b6113c75760405162461bcd60e51b8152600401808060200182810382526034815260200180614e9a6034913960400191505060405180910390fd5b6001600160a01b03821661140c5760405162461bcd60e51b8152600401808060200182810382526028815260200180614db06028913960400191505060405180910390fd5b60cb80546001600160a01b0319166001600160a01b0384169081179091556040517f44fe57485076f35a8eb17e92799dcc65f24a9eab90ffae0af662812f19803be590600090a25050565b60006112786103e861124760ce54856132a990919063ffffffff16565b600061147f82610b06565b1561148c57506000611278565b6000826001600160a01b031663313ce5676040518163ffffffff1660e01b815260040160206040518083038186803b1580156114c757600080fd5b505afa1580156114db573d6000803e3d6000fd5b505050506040513d60208110156114f157600080fd5b505160d154604080516350a2394560e01b815260ff909316600a0a600484018190526001600160a01b038781166024860152915190945060009391909216916350a23945916044808201928692909190829003018186803b15801561155557600080fd5b505afa158015611569573d6000803e3d6000fd5b505050506040513d6000823e601f3d908101601f19168201604052602081101561159257600080fd5b81019080805160405193929190846401000000008211156115b257600080fd5b9083019060208201858111156115c757600080fd5b82518660208202830111640100000000821117156115e457600080fd5b82525081516020918201928201910280838360005b838110156116115781810151838201526020016115f9565b5050505090500160405250505060008151811061162a57fe5b6020026020010151905061165f6116526103e861124760d054856132a990919063ffffffff16565b829063ffffffff61334416565b9050600061167783611247888563ffffffff6132a916565b905061127281611457565b61168a611cca565b6065546001600160a01b039081169116146116da576040805162461bcd60e51b81526020600482018190526024820152600080516020614f1a833981519152604482015290519081900360640190fd5b806116ed816001600160a01b0316611cce565b6117285760405162461bcd60e51b8152600401808060200182810382526034815260200180614e9a6034913960400191505060405180910390fd5b506001600160a01b0316600090815260d260205260409020805460ff19166001179055565b611755611cca565b6065546001600160a01b039081169116146117a5576040805162461bcd60e51b81526020600482018190526024820152600080516020614f1a833981519152604482015290519081900360640190fd5b60648160ff1611156117e85760405162461bcd60e51b815260040180806020018281038252604681526020018061506d6046913960600191505060405180910390fd5b60ff1660cf55565b6117f8611cca565b6065546001600160a01b03908116911614611848576040805162461bcd60e51b81526020600482018190526024820152600080516020614f1a833981519152604482015290519081900360640190fd5b8061185b816001600160a01b0316611cce565b6118965760405162461bcd60e51b8152600401808060200182810382526034815260200180614e9a6034913960400191505060405180910390fd5b506001600160a01b0316600090815260d260205260409020805460ff19169055565b836118c1614bb4565b600082815260ca6020908152604091829020825161010081018452815481526001820154928101929092526002808201546001600160a01b0390811694840194909452600382015484166060840152600482015484166080840152600582015493841660a08401529192909160c0840191600160a01b900460ff169081111561194657fe5b600281111561195157fe5b81526020016005820160159054906101000a900460ff16600281111561197357fe5b600281111561197e57fe5b905250905060008160e00151600281111561199557fe5b1461199f57600080fd5b6119a7614bb4565b600087815260ca6020908152604091829020825161010081018452815481526001820154928101929092526002808201546001600160a01b0390811694840194909452600382015484166060840152600482015484166080840152600582015493841660a08401529192909160c0840191600160a01b900460ff1690811115611a2c57fe5b6002811115611a3757fe5b81526020016005820160159054906101000a900460ff166002811115611a5957fe5b6002811115611a6457fe5b9052509050611a71611cca565b6001600160a01b031681606001516001600160a01b031614611ac45760405162461bcd60e51b815260040180806020018281038252603d815260200180614fdd603d913960400191505060405180910390fd5b8060c001516002811115611ad457fe5b611ae957611ae487878787613386565b611b18565b8060c001516002811115611af957fe5b60011415611b0c57611ae487878761385d565b611b1887878787613ced565b50505050505050565b611b29611cca565b6065546001600160a01b03908116911614611b79576040805162461bcd60e51b81526020600482018190526024820152600080516020614f1a833981519152604482015290519081900360640190fd5b6001600160a01b038116611bbe5760405162461bcd60e51b8152600401808060200182810382526026815260200180614c986026913960400191505060405180910390fd5b6065546040516001600160a01b038084169216907f8be0079c531659141344cd1fd0a4f28419497f9722a3daafe3b4186f6b6457e090600090a3606580546001600160a01b0319166001600160a01b0392909216919091179055565b83611c2d816001600160a01b0316611cce565b611c685760405162461bcd60e51b8152600401808060200182810382526034815260200180614e9a6034913960400191505060405180910390fd5b81611c7b816001600160a01b0316611cce565b611cb65760405162461bcd60e51b8152600401808060200182810382526034815260200180614e9a6034913960400191505060405180910390fd5b611cc28686868661421f565b505050505050565b3390565b6000813f7fc5d2460186f7233c927e7db2dcc703c0e500b653ca82273b7bfad8045d85a470818114801590611d0257508115155b949350505050565b60975460ff1615611d55576040805162461bcd60e51b815260206004820152601060248201526f14185d5cd8589b194e881c185d5cd95960821b604482015290519081900360640190fd5b82611d68816001600160a01b0316611cce565b611da35760405162461bcd60e51b8152600401808060200182810382526034815260200180614e9a6034913960400191505060405180910390fd5b60008711611de25760405162461bcd60e51b81526004018080602001828103825260338152602001806150ec6033913960400191505060405180910390fd5b60008611611e215760405162461bcd60e51b8152600401808060200182810382526036815260200180614cf26036913960400191505060405180910390fd5b60008311611e605760405162461bcd60e51b815260040180806020018281038252602c815260200180615041602c913960400191505060405180910390fd5b8115611f3d5786341015611ea9576040805162461bcd60e51b81526020600482018190526024820152600080516020614c78833981519152604482015290519081900360640190fd5b6000611eb488610dc3565b9050600081851015611f2d57611ed0828663ffffffff61334416565b90506000611ee98361124784606463ffffffff6132a916565b905060cf548110611f2b5760405162461bcd60e51b8152600401808060200182810382526035815260200180614e386035913960400191505060405180910390fd5b505b611f36826142e9565b5050612070565b6000611f4888611457565b905080841015611f895760405162461bcd60e51b8152600401808060200182810382526034815260200180614cbe6034913960400191505060405180910390fd5b611f99888263ffffffff6143f316565b341015611fdb576040805162461bcd60e51b81526020600482018190526024820152600080516020614c78833981519152604482015290519081900360640190fd5b60cc546040516000916001600160a01b03169083908381818185875af1925050503d8060008114612028576040519150601f19603f3d011682016040523d82523d6000602084013e61202d565b606091505b505090508061206d5760405162461bcd60e51b8152600401808060200182810382526023815260200180614d8d6023913960400191505060405180910390fd5b50505b60c95461208490600163ffffffff6143f316565b60c9819055604080516101008101825289815260208082018a8152338385019081526001600160a01b038b81166060860190815273eeeeeeeeeeeeeeeeeeeeeeeeeeeeeeeeeeeeeeee608087019081528c831660a08801908152600060c0890181815260e08a018290529a815260ca9097529790952086518155935160018501559151600280850180546001600160a01b03199081169385169390931790559251600385018054831691841691909117905593516004840180548616918316919091179055945160058301805490941695169490941780835594519294909360ff60a01b1990911690600160a01b90849081111561217e57fe5b021790555060e082015160058201805460ff60a81b1916600160a81b8360028111156121a657fe5b02179055505060c9546040516001600160a01b03881692503391907ffa75d1b5404b6acb93bd5d4b44839ba9063bb0b7af3aa9193c87098e54dfc97990600090a450505050505050565b60975460ff161561223b576040805162461bcd60e51b815260206004820152601060248201526f14185d5cd8589b194e881c185d5cd95960821b604482015290519081900360640190fd5b8561224e816001600160a01b0316611cce565b6122895760405162461bcd60e51b8152600401808060200182810382526034815260200180614e9a6034913960400191505060405180910390fd5b600085116122c85760405162461bcd60e51b81526004018080602001828103825260338152602001806150ec6033913960400191505060405180910390fd5b600088116123075760405162461bcd60e51b8152600401808060200182810382526036815260200180614cf26036913960400191505060405180910390fd5b61231087610b06565b6124e55782156123b0576000612327898985610ad1565b90506000818610156123a057612343828763ffffffff61334416565b9050600061235c8361124784606463ffffffff6132a916565b905060cf54811061239e5760405162461bcd60e51b8152600401808060200182810382526035815260200180614e386035913960400191505060405180910390fd5b505b6123a9826142e9565b50506124e5565b6000826123c6576123c18989611474565b6123d0565b6123d0898961119f565b9050808510156124115760405162461bcd60e51b8152600401808060200182810382526034815260200180614cbe6034913960400191505060405180910390fd5b803410156124505760405162461bcd60e51b8152600401808060200182810382526039815260200180614fa46039913960400191505060405180910390fd5b60cc546040516000916001600160a01b03169083908381818185875af1925050503d806000811461249d576040519150601f19603f3d011682016040523d82523d6000602084013e6124a2565b606091505b50509050806124e25760405162461bcd60e51b8152600401808060200182810382526023815260200180614d8d6023913960400191505060405180910390fd5b50505b60408051636eb1769f60e11b8152336004820152306024820152905188916001600160a01b0383169163dd62ed3e91604480820192602092909190829003018186803b15801561253457600080fd5b505afa158015612548573d6000803e3d6000fd5b505050506040513d602081101561255e57600080fd5b505189111561256c57600080fd5b604080516323b872dd60e01b8152336004820152306024820152604481018b905290516001600160a01b038316916323b872dd9160648083019260209291908290030181600087803b1580156125c157600080fd5b505af11580156125d5573d6000803e3d6000fd5b505050506040513d60208110156125eb57600080fd5b50516125f657600080fd5b60c95461260a90600163ffffffff6143f316565b60c95560408051610100810182528a81526020810188905233918101919091526001600160a01b0388811660608301528916608082015273eeeeeeeeeeeeeeeeeeeeeeeeeeeeeeeeeeeeeeee60a082015260c08101600181526020016000905260c954600090815260ca60209081526040918290208351815590830151600182015590820151600280830180546001600160a01b039384166001600160a01b0319918216179091556060850151600385018054918516918316919091179055608085015160048501805491851691831691909117905560a08501516005850180549190941691161780835560c0850151929160ff60a01b1990911690600160a01b90849081111561271757fe5b021790555060e082015160058201805460ff60a81b1916600160a81b83600281111561273f57fe5b02179055505060c9546040516001600160a01b038a1692503391907ffa75d1b5404b6acb93bd5d4b44839ba9063bb0b7af3aa9193c87098e54dfc97990600090a4505050505050505050565b60975460ff16156127d6576040805162461bcd60e51b815260206004820152601060248201526f14185d5cd8589b194e881c185d5cd95960821b604482015290519081900360640190fd5b600088116128155760405162461bcd60e51b815260040180806020018281038252603b815260200180614d28603b913960400191505060405180910390fd5b600086116128545760405162461bcd60e51b815260040180806020018281038252603c815260200180614f68603c913960400191505060405180910390fd5b61285d87610b06565b612a325781156128fd576000612874898984610ad1565b90506000818510156128ed57612890828663ffffffff61334416565b905060006128a98361124784606463ffffffff6132a916565b905060cf5481106128eb5760405162461bcd60e51b8152600401808060200182810382526035815260200180614e386035913960400191505060405180910390fd5b505b6128f6826142e9565b5050612a32565b6000816129135761290e8989611474565b61291d565b61291d898961119f565b90508084101561295e5760405162461bcd60e51b8152600401808060200182810382526034815260200180614cbe6034913960400191505060405180910390fd5b8034101561299d5760405162461bcd60e51b8152600401808060200182810382526039815260200180614fa46039913960400191505060405180910390fd5b60cc546040516000916001600160a01b03169083908381818185875af1925050503d80600081146129ea576040519150601f19603f3d011682016040523d82523d6000602084013e6129ef565b606091505b5050905080612a2f5760405162461bcd60e51b8152600401808060200182810382526023815260200180614d8d6023913960400191505060405180910390fd5b50505b60408051636eb1769f60e11b8152336004820152306024820152905188916001600160a01b0383169163dd62ed3e91604480820192602092909190829003018186803b158015612a8157600080fd5b505afa158015612a95573d6000803e3d6000fd5b505050506040513d6020811015612aab57600080fd5b5051891115612ab957600080fd5b604080516323b872dd60e01b8152336004820152306024820152604481018b905290516001600160a01b038316916323b872dd9160648083019260209291908290030181600087803b158015612b0e57600080fd5b505af1158015612b22573d6000803e3d6000fd5b505050506040513d6020811015612b3857600080fd5b5051612b4357600080fd5b60c954612b5790600163ffffffff6143f316565b60c981905560408051610100810182528b815260208082018b8152338385019081526001600160a01b038c8116606086019081528f8216608087019081528d831660a08801908152600260c08901818152600060e08b018190529b8c5260ca909852989099208751815594516001860155925184880180549184166001600160a01b031992831617905590516003850180549184169183169190911790559151600484018054918316918416919091179055955160058301805491909716911617808655915192949093909160ff60a01b191690600160a01b908490811115612c3c57fe5b021790555060e082015160058201805460ff60a81b1916600160a81b836002811115612c6457fe5b02179055505060c9546040516001600160a01b03891692503391907ffa75d1b5404b6acb93bd5d4b44839ba9063bb0b7af3aa9193c87098e54dfc97990600090a4505050505050505050565b600080612cc483600263ffffffff61330216565b60d15460cb5460408051637524c56f60e11b8152600160048201526001600160a01b0392831660248201529051939450600093919092169163ea498ade9160448083019286929190829003018186803b158015612d2057600080fd5b505afa158015612d34573d6000803e3d6000fd5b505050506040513d6000823e601f3d908101601f191682016040526020811015612d5d57600080fd5b8101908080516040519392919084640100000000821115612d7d57600080fd5b908301906020820185811115612d9257600080fd5b8251866020820283011164010000000082111715612daf57600080fd5b82525081516020918201928201910280838360005b83811015612ddc578181015183820152602001612dc4565b50505050905001604052505050600081518110612df557fe5b602002602001015190506000612e2c612e1f6103e861124760d054866132a990919063ffffffff16565b839063ffffffff61334416565b9050610afd838263ffffffff6132a916565b60975460ff16612e8c576040805162461bcd60e51b815260206004820152601460248201527314185d5cd8589b194e881b9bdd081c185d5cd95960621b604482015290519081900360640190fd5b6097805460ff191690557f5db9ee0a495bf2e6ff9c91a7834c1ba4fdd244a5e8aa4e537bd38aeae4b073aa612ebf611cca565b604080516001600160a01b039092168252519081900360200190a1565b80612ee5614bb4565b600082815260ca6020908152604091829020825161010081018452815481526001820154928101929092526002808201546001600160a01b0390811694840194909452600382015484166060840152600482015484166080840152600582015493841660a08401529192909160c0840191600160a01b900460ff1690811115612f6a57fe5b6002811115612f7557fe5b81526020016005820160159054906101000a900460ff166002811115612f9757fe5b6002811115612fa257fe5b905250905060008160e001516002811115612fb957fe5b14612fc357600080fd5b600083815260ca602052604080822060058101805460ff60a81b1916600160a91b17905560028101548154925191936001600160a01b039091169280156108fc02929091818181858888f19350505050158015613024573d6000803e3d6000fd5b5060405184907f8bf30e7ff26833413be5f69e1d373744864d600b664204b4a2f9844a8eedb9ed90600090a250505050565b8061305f614bb4565b600082815260ca6020908152604091829020825161010081018452815481526001820154928101929092526002808201546001600160a01b0390811694840194909452600382015484166060840152600482015484166080840152600582015493841660a08401529192909160c0840191600160a01b900460ff16908111156130e457fe5b60028111156130ef57fe5b81526020016005820160159054906101000a900460ff16600281111561311157fe5b600281111561311c57fe5b905250905060008160e00151600281111561313357fe5b1461313d57600080fd5b600083815260ca6020908152604080832060058101805460ff60a81b1916600160a91b17905560048082015460028301548354855163a9059cbb60e01b81526001600160a01b0392831694810194909452602484015293519295931693849363a9059cbb936044808501949192918390030190829087803b1580156131c157600080fd5b505af11580156131d5573d6000803e3d6000fd5b505050506040513d60208110156131eb57600080fd5b50516131f657600080fd5b60405185907f8bf30e7ff26833413be5f69e1d373744864d600b664204b4a2f9844a8eedb9ed90600090a25050505050565b60975460ff1615613273576040805162461bcd60e51b815260206004820152601060248201526f14185d5cd8589b194e881c185d5cd95960821b604482015290519081900360640190fd5b6097805460ff191660011790557f62e78cea01bee320cd4e420270b5ea74000d11b0c9f74754ebdbfc544b05a258612ebf611cca565b6000826132b857506000611278565b828202828482816132c557fe5b0414610dda5760405162461bcd60e51b8152600401808060200182810382526021815260200180614ef96021913960400191505060405180910390fd5b6000610dda83836040518060400160405280601a81526020017f536166654d6174683a206469766973696f6e206279207a65726f00000000000081525061444d565b6000610dda83836040518060400160405280601e81526020017f536166654d6174683a207375627472616374696f6e206f766572666c6f7700008152506144ef565b8361338f614bb4565b600082815260ca6020908152604091829020825161010081018452815481526001820154928101929092526002808201546001600160a01b0390811694840194909452600382015484166060840152600482015484166080840152600582015493841660a08401529192909160c0840191600160a01b900460ff169081111561341457fe5b600281111561341f57fe5b81526020016005820160159054906101000a900460ff16600281111561344157fe5b600281111561344c57fe5b905250905060008160e00151600281111561346357fe5b1461346d57600080fd5b600086815260ca602052604090206005810154613492906001600160a01b0316610b06565b6136a057841561354557600181015460058201546000916134bc916001600160a01b031687610ad1565b9050600081881015613535576134d8828963ffffffff61334416565b905060006134f18361124784606463ffffffff6132a916565b905060cf5481106135335760405162461bcd60e51b8152600401808060200182810382526035815260200180614e386035913960400191505060405180910390fd5b505b61353e826142e9565b50506136a0565b60008461356e576001820154600583015461356991906001600160a01b0316611474565b61358b565b6001820154600583015461358b91906001600160a01b031661119f565b9050808710156135cc5760405162461bcd60e51b8152600401808060200182810382526034815260200180614cbe6034913960400191505060405180910390fd5b8034101561360b5760405162461bcd60e51b8152600401808060200182810382526039815260200180614fa46039913960400191505060405180910390fd5b60cc546040516000916001600160a01b03169083908381818185875af1925050503d8060008114613658576040519150601f19603f3d011682016040523d82523d6000602084013e61365d565b606091505b505090508061369d5760405162461bcd60e51b8152600401808060200182810382526023815260200180614d8d6023913960400191505060405180910390fd5b50505b60058101805460ff60a81b1916600160a81b1790819055600382015460408051636eb1769f60e11b81526001600160a01b03928316600482015230602482015290519190921691829163dd62ed3e91604480820192602092909190829003018186803b15801561370f57600080fd5b505afa158015613723573d6000803e3d6000fd5b505050506040513d602081101561373957600080fd5b50516001830154111561374b57600080fd5b600382015460028301546001840154604080516323b872dd60e01b81526001600160a01b0394851660048201529284166024840152604483019190915251918316916323b872dd916064808201926020929091908290030181600087803b1580156137b557600080fd5b505af11580156137c9573d6000803e3d6000fd5b505050506040513d60208110156137df57600080fd5b50516137ea57600080fd5b600382015482546040516001600160a01b039092169181156108fc0291906000818181858888f19350505050158015613827573d6000803e3d6000fd5b5060405188907fbf67515a38ee520223d32c1266d52101c30d936ed1f3e436c8caeb0a43cb06bf90600090a25050505050505050565b82613866614bb4565b600082815260ca6020908152604091829020825161010081018452815481526001820154928101929092526002808201546001600160a01b0390811694840194909452600382015484166060840152600482015484166080840152600582015493841660a08401529192909160c0840191600160a01b900460ff16908111156138eb57fe5b60028111156138f657fe5b81526020016005820160159054906101000a900460ff16600281111561391857fe5b600281111561392357fe5b905250905060008160e00151600281111561393a57fe5b1461394457600080fd5b600085815260ca602052604090208315613a3757806001015434101561399f576040805162461bcd60e51b81526020600482018190526024820152600080516020614c78833981519152604482015290519081900360640190fd5b60006139ae8260010154610dc3565b9050600081871015613a27576139ca828863ffffffff61334416565b905060006139e38361124784606463ffffffff6132a916565b905060cf548110613a255760405162461bcd60e51b8152600401808060200182810382526035815260200180614e386035913960400191505060405180910390fd5b505b613a30826142e9565b5050613b73565b6000613a468260010154611457565b905080861015613a875760405162461bcd60e51b8152600401808060200182810382526034815260200180614cbe6034913960400191505060405180910390fd5b6001820154613a9c908263ffffffff6143f316565b341015613ade576040805162461bcd60e51b81526020600482018190526024820152600080516020614c78833981519152604482015290519081900360640190fd5b60cc546040516000916001600160a01b03169083908381818185875af1925050503d8060008114613b2b576040519150601f19603f3d011682016040523d82523d6000602084013e613b30565b606091505b5050905080613b705760405162461bcd60e51b8152600401808060200182810382526023815260200180614d8d6023913960400191505060405180910390fd5b50505b60058101805460ff60a81b1916600160a81b179055600480820154600383015483546040805163a9059cbb60e01b81526001600160a01b0393841695810195909552602485019190915251911691829163a9059cbb916044808201926020929091908290030181600087803b158015613beb57600080fd5b505af1158015613bff573d6000803e3d6000fd5b505050506040513d6020811015613c1557600080fd5b5051613c2057600080fd5b600282015460018301546040516000926001600160a01b031691908381818185875af1925050503d8060008114613c73576040519150601f19603f3d011682016040523d82523d6000602084013e613c78565b606091505b5050905080613cb85760405162461bcd60e51b8152600401808060200182810382526023815260200180614c556023913960400191505060405180910390fd5b60405188907fbf67515a38ee520223d32c1266d52101c30d936ed1f3e436c8caeb0a43cb06bf90600090a25050505050505050565b83613cf6614bb4565b600082815260ca6020908152604091829020825161010081018452815481526001820154928101929092526002808201546001600160a01b0390811694840194909452600382015484166060840152600482015484166080840152600582015493841660a08401529192909160c0840191600160a01b900460ff1690811115613d7b57fe5b6002811115613d8657fe5b81526020016005820160159054906101000a900460ff166002811115613da857fe5b6002811115613db357fe5b905250905060008160e001516002811115613dca57fe5b14613dd457600080fd5b600086815260ca602052604090206005810154613df9906001600160a01b0316610b06565b614007578415613eac5760018101546005820154600091613e23916001600160a01b031687610ad1565b9050600081881015613e9c57613e3f828963ffffffff61334416565b90506000613e588361124784606463ffffffff6132a916565b905060cf548110613e9a5760405162461bcd60e51b8152600401808060200182810382526035815260200180614e386035913960400191505060405180910390fd5b505b613ea5826142e9565b5050614007565b600084613ed55760018201546005830154613ed091906001600160a01b0316611474565b613ef2565b60018201546005830154613ef291906001600160a01b031661119f565b905080871015613f335760405162461bcd60e51b8152600401808060200182810382526034815260200180614cbe6034913960400191505060405180910390fd5b80341015613f725760405162461bcd60e51b8152600401808060200182810382526039815260200180614fa46039913960400191505060405180910390fd5b60cc546040516000916001600160a01b03169083908381818185875af1925050503d8060008114613fbf576040519150601f19603f3d011682016040523d82523d6000602084013e613fc4565b606091505b50509050806140045760405162461bcd60e51b8152600401808060200182810382526023815260200180614d8d6023913960400191505060405180910390fd5b50505b60058101805460ff60a81b1916600160a81b1790819055600382015460408051636eb1769f60e11b81526001600160a01b03928316600482015230602482015290519190921691829163dd62ed3e91604480820192602092909190829003018186803b15801561407657600080fd5b505afa15801561408a573d6000803e3d6000fd5b505050506040513d60208110156140a057600080fd5b5051600183015411156140b257600080fd5b600382015460028301546001840154604080516323b872dd60e01b81526001600160a01b0394851660048201529284166024840152604483019190915251918316916323b872dd916064808201926020929091908290030181600087803b15801561411c57600080fd5b505af1158015614130573d6000803e3d6000fd5b505050506040513d602081101561414657600080fd5b505161415157600080fd5b600480830154600384015484546040805163a9059cbb60e01b81526001600160a01b0393841695810195909552602485019190915251911691829163a9059cbb916044808201926020929091908290030181600087803b1580156141b457600080fd5b505af11580156141c8573d6000803e3d6000fd5b505050506040513d60208110156141de57600080fd5b50516141e957600080fd5b60405189907fbf67515a38ee520223d32c1266d52101c30d936ed1f3e436c8caeb0a43cb06bf90600090a2505050505050505050565b600054610100900460ff16806142385750614238614549565b80614246575060005460ff16155b6142815760405162461bcd60e51b815260040180806020018281038252602e815260200180614f3a602e913960400191505060405180910390fd5b600054610100900460ff161580156142ac576000805460ff1961ff0019909116610100171660011790555b6142b461454f565b6142bc6145f1565b6142c46146ea565b6142d085858585614795565b80156142e2576000805461ff00191690555b5050505050565b6000614301606461124784600a63ffffffff6132a916565b9050600061431b606461124785600a63ffffffff6132a916565b9050600061433f82614333868663ffffffff61334416565b9063ffffffff61334416565b60cc5460cb54919250614367916001600160a01b03908116913391168463ffffffff6149a716565b60cd5460cb5461438c916001600160a01b03918216913391168663ffffffff6149a716565b60cb546040805163079cc67960e41b81523360048201526024810185905290516001600160a01b03909216916379cc67909160448082019260009290919082900301818387803b1580156143df57600080fd5b505af11580156109e0573d6000803e3d6000fd5b600082820183811015610dda576040805162461bcd60e51b815260206004820152601b60248201527f536166654d6174683a206164646974696f6e206f766572666c6f770000000000604482015290519081900360640190fd5b600081836144d95760405162461bcd60e51b81526004018080602001828103825283818151815260200191508051906020019080838360005b8381101561449e578181015183820152602001614486565b50505050905090810190601f1680156144cb5780820380516001836020036101000a031916815260200191505b509250505060405180910390fd5b5060008385816144e557fe5b0495945050505050565b600081848411156145415760405162461bcd60e51b815260206004820181815283516024840152835190928392604490910191908501908083836000831561449e578181015183820152602001614486565b505050900390565b303b1590565b600054610100900460ff16806145685750614568614549565b80614576575060005460ff16155b6145b15760405162461bcd60e51b815260040180806020018281038252602e815260200180614f3a602e913960400191505060405180910390fd5b600054610100900460ff161580156145dc576000805460ff1961ff0019909116610100171660011790555b80156145ee576000805461ff00191690555b50565b600054610100900460ff168061460a575061460a614549565b80614618575060005460ff16155b6146535760405162461bcd60e51b815260040180806020018281038252602e815260200180614f3a602e913960400191505060405180910390fd5b600054610100900460ff1615801561467e576000805460ff1961ff0019909116610100171660011790555b6000614688611cca565b606580546001600160a01b0319166001600160a01b038316908117909155604051919250906000907f8be0079c531659141344cd1fd0a4f28419497f9722a3daafe3b4186f6b6457e0908290a35080156145ee576000805461ff001916905550565b600054610100900460ff16806147035750614703614549565b80614711575060005460ff16155b61474c5760405162461bcd60e51b815260040180806020018281038252602e815260200180614f3a602e913960400191505060405180910390fd5b600054610100900460ff16158015614777576000805460ff1961ff0019909116610100171660011790555b6097805460ff1916905580156145ee576000805461ff001916905550565b600054610100900460ff16806147ae57506147ae614549565b806147bc575060005460ff16155b6147f75760405162461bcd60e51b815260040180806020018281038252602e815260200180614f3a602e913960400191505060405180910390fd5b600054610100900460ff16158015614822576000805460ff1961ff0019909116610100171660011790555b6001600160a01b0385166148675760405162461bcd60e51b815260040180806020018281038252602781526020018061501a6027913960400191505060405180910390fd5b6001600160a01b0384166148ac5760405162461bcd60e51b815260040180806020018281038252602b815260200180614ece602b913960400191505060405180910390fd5b6001600160a01b0383166148f15760405162461bcd60e51b815260040180806020018281038252602a815260200180614d63602a913960400191505060405180910390fd5b6001600160a01b0382166149365760405162461bcd60e51b815260040180806020018281038252602c815260200180614dd8602c913960400191505060405180910390fd5b60cb80546001600160a01b038088166001600160a01b03199283161790925560cc805487841690831617905560cd805486841690831617905560d1805492851692909116919091179055600360ce819055600560cf5560d05580156142e2576000805461ff00191690555050505050565b604080516001600160a01b0380861660248301528416604482015260648082018490528251808303909101815260849091019091526020810180516001600160e01b03166323b872dd60e01b179052610dbd908590614a0e826001600160a01b0316611cce565b614a5f576040805162461bcd60e51b815260206004820152601f60248201527f5361666545524332303a2063616c6c20746f206e6f6e2d636f6e747261637400604482015290519081900360640190fd5b60006060836001600160a01b0316836040518082805190602001908083835b60208310614a9d5780518252601f199092019160209182019101614a7e565b6001836020036101000a0380198251168184511680821785525050505050509050019150506000604051808303816000865af19150503d8060008114614aff576040519150601f19603f3d011682016040523d82523d6000602084013e614b04565b606091505b509150915081614b5b576040805162461bcd60e51b815260206004820181905260248201527f5361666545524332303a206c6f772d6c6576656c2063616c6c206661696c6564604482015290519081900360640190fd5b805115610dbd57808060200190516020811015614b7757600080fd5b5051610dbd5760405162461bcd60e51b815260040180806020018281038252602a81526020018061515d602a913960400191505060405180910390fd5b6040805161010081018252600080825260208201819052918101829052606081018290526080810182905260a081018290529060c08201908152602001600090529056fe5b56616c69646174696f6e5d20496e76616c696420636c6f73652074726164657220616464726573735b56616c69646174696f6e5d20546865206f70656e2076616c75652068617320746f206265206c6172676572207468616e20305b56616c69646174696f6e5d205472616e73666572206f6620657468206661696c65645b56616c69646174696f6e5d20456e6f75676820455448206e6f742073656e744f776e61626c653a206e6577206f776e657220697320746865207a65726f20616464726573735b56616c69646174696f6e5d204665652028455448292069732062656c6f77206d696e696d756d207265717569726564206665655b56616c69646174696f6e5d20546865204552432d323020616d6f756e742068617320746f206265206c6172676572207468616e20305b56616c69646174696f6e5d20546865206f70656e204552432d323020616d6f756e742068617320746f206265206c6172676572207468616e20305b56616c69646174696f6e5d2064657657616c6c657420697320746865207a65726f20616464726573735b56616c69646174696f6e5d205472616e73666572206f6620666565206661696c65645b56616c69646174696f6e5d3a20496e76616c6964207377617020746f6b656e20616464726573735b56616c69646174696f6e5d20496e76616c696420707269636520657374696d61746f7220616464726573735b56616c69646174696f6e5d2054686520636c6f73652076616c75652068617320746f206265206c6172676572207468616e20305b56616c69646174696f6e5d20466565202853574150292069732062656c6f77206d696e696d756d207265717569726564206665655b56616c69646174696f6e5d3a20496e76616c696420707269636520657374696d61746f7220616464726573735b56616c69646174696f6e5d20546865206164647265737320646f6573206e6f7420636f6e7461696e206120636f6e74726163745b56616c69646174696f6e5d206665657357616c6c657420697320746865207a65726f2061646472657373536166654d6174683a206d756c7469706c69636174696f6e206f766572666c6f774f776e61626c653a2063616c6c6572206973206e6f7420746865206f776e6572436f6e747261637420696e7374616e63652068617320616c7265616479206265656e20696e697469616c697a65645b56616c69646174696f6e5d2054686520636c6f7365204552432d323020616d6f756e742068617320746f206265206c6172676572207468616e20305b56616c69646174696f6e5d206d73672e76616c756520646f65736e277420636f6e7461696e20656e6f7567682045544820666f72206665655b56616c69646174696f6e5d3a205468652063616c6c6572206973206e6f7420617574686f72697a656420746f20636c6f7365207468652074726164655b56616c69646174696f6e5d20496e76616c6964207377617020746f6b656e20616464726573735b56616c69646174696f6e5d20546865206665652068617320746f206265206c6172676572207468616e20305b56616c69646174696f6e5d3a20416c6c6f7765642046656520536c6970706167652070657263656e74616765206d757374206265206265747765656e203020746f203130305b56616c69646174696f6e5d3a20455448204665652070657263656e74616765206d757374206265206265747765656e203020746f203130305b56616c69646174696f6e5d205468652045544820616d6f756e742068617320746f206265206c6172676572207468616e20305b56616c69646174696f6e5d3a205468652063616c6c6572206973206e6f7420617574686f72697a656420746f2063616e63656c207468652074726164655361666545524332303a204552433230206f7065726174696f6e20646964206e6f7420737563636565645b56616c69646174696f6e5d3a20556e6973776170204665652070657263656e74616765206d757374206265206265747765656e203020746f20313030a2646970667358221220d692f82fd1f53e4dc9bdfc9aaa29c6fbabb8fb5afc8327eac53798317649bfd264736f6c63430006020033","opcodes":"PUSH1 0x80 PUSH1 0x40 MSTORE CALLVALUE DUP1 ISZERO PUSH2 0x10 JUMPI PUSH1 0x0 DUP1 REVERT JUMPDEST POP PUSH2 0x51F9 DUP1 PUSH2 0x20 PUSH1 0x0 CODECOPY PUSH1 0x0 RETURN INVALID PUSH1 0x80 PUSH1 0x40 MSTORE PUSH1 0x4 CALLDATASIZE LT PUSH2 0x180 JUMPI PUSH1 0x0 CALLDATALOAD PUSH1 0xE0 SHR DUP1 PUSH4 0x8DA5CB5B GT PUSH2 0xD1 JUMPI DUP1 PUSH4 0xC0F8BC60 GT PUSH2 0x8A JUMPI DUP1 PUSH4 0xD8AD1B2B GT PUSH2 0x64 JUMPI DUP1 PUSH4 0xD8AD1B2B EQ PUSH2 0x618 JUMPI DUP1 PUSH4 0xDA179205 EQ PUSH2 0x64B JUMPI DUP1 PUSH4 0xF2FDE38B EQ PUSH2 0x67E JUMPI DUP1 PUSH4 0xF8C8765E EQ PUSH2 0x6B1 JUMPI PUSH2 0x180 JUMP JUMPDEST DUP1 PUSH4 0xC0F8BC60 EQ PUSH2 0x57F JUMPI DUP1 PUSH4 0xCD7D9E99 EQ PUSH2 0x5B8 JUMPI DUP1 PUSH4 0xD2BB3AED EQ PUSH2 0x5EB JUMPI PUSH2 0x180 JUMP JUMPDEST DUP1 PUSH4 0x8DA5CB5B EQ PUSH2 0x458 JUMPI DUP1 PUSH4 0x90D49B9D EQ PUSH2 0x489 JUMPI DUP1 PUSH4 0x9976DFBE EQ PUSH2 0x4BC JUMPI DUP1 PUSH4 0xA9FF2BAE EQ PUSH2 0x4F5 JUMPI DUP1 PUSH4 0xB851B7CA EQ PUSH2 0x522 JUMPI DUP1 PUSH4 0xBF3452F8 EQ PUSH2 0x555 JUMPI PUSH2 0x180 JUMP JUMPDEST DUP1 PUSH4 0x40E58EE5 GT PUSH2 0x13E JUMPI DUP1 PUSH4 0x5F72F450 GT PUSH2 0x118 JUMPI DUP1 PUSH4 0x5F72F450 EQ PUSH2 0x360 JUMPI DUP1 PUSH4 0x715018A6 EQ PUSH2 0x401 JUMPI DUP1 PUSH4 0x8456CB59 EQ PUSH2 0x416 JUMPI DUP1 PUSH4 0x8CC6058B EQ PUSH2 0x42B JUMPI PUSH2 0x180 JUMP JUMPDEST DUP1 PUSH4 0x40E58EE5 EQ PUSH2 0x2F7 JUMPI DUP1 PUSH4 0x5C04AA6A EQ PUSH2 0x321 JUMPI DUP1 PUSH4 0x5C975ABB EQ PUSH2 0x34B JUMPI PUSH2 0x180 JUMP JUMPDEST DUP1 PUSH3 0x45A3D7 EQ PUSH2 0x185 JUMPI DUP1 PUSH4 0x107AF1E4 EQ PUSH2 0x1BA JUMPI DUP1 PUSH4 0x1F53AC02 EQ PUSH2 0x215 JUMPI DUP1 PUSH4 0x2699FD1F EQ PUSH2 0x248 JUMPI DUP1 PUSH4 0x31BFF521 EQ PUSH2 0x29B JUMPI DUP1 PUSH4 0x3F4BA83A EQ PUSH2 0x2E2 JUMPI JUMPDEST PUSH1 0x0 DUP1 REVERT JUMPDEST CALLVALUE DUP1 ISZERO PUSH2 0x191 JUMPI PUSH1 0x0 DUP1 REVERT JUMPDEST POP PUSH2 0x1B8 PUSH1 0x4 DUP1 CALLDATASIZE SUB PUSH1 0x20 DUP2 LT ISZERO PUSH2 0x1A8 JUMPI PUSH1 0x0 DUP1 REVERT JUMPDEST POP CALLDATALOAD PUSH1 0x1 PUSH1 0x1 PUSH1 0xA0 SHL SUB AND PUSH2 0x6FC JUMP JUMPDEST STOP JUMPDEST PUSH2 0x1B8 PUSH1 0x4 DUP1 CALLDATASIZE SUB PUSH2 0x100 DUP2 LT ISZERO PUSH2 0x1D1 JUMPI PUSH1 0x0 DUP1 REVERT JUMPDEST POP DUP1 CALLDATALOAD SWAP1 PUSH1 0x1 PUSH1 0x1 PUSH1 0xA0 SHL SUB PUSH1 0x20 DUP3 ADD CALLDATALOAD DUP2 AND SWAP2 PUSH1 0x40 DUP2 ADD CALLDATALOAD SWAP2 PUSH1 0x60 DUP3 ADD CALLDATALOAD DUP2 AND SWAP2 PUSH1 0x80 DUP2 ADD CALLDATALOAD SWAP1 SWAP2 AND SWAP1 PUSH1 0xA0 DUP2 ADD CALLDATALOAD SWAP1 PUSH1 0xC0 DUP2 ADD CALLDATALOAD ISZERO ISZERO SWAP1 PUSH1 0xE0 ADD CALLDATALOAD ISZERO ISZERO PUSH2 0x80A JUMP JUMPDEST CALLVALUE DUP1 ISZERO PUSH2 0x221 JUMPI PUSH1 0x0 DUP1 REVERT JUMPDEST POP PUSH2 0x1B8 PUSH1 0x4 DUP1 CALLDATASIZE SUB PUSH1 0x20 DUP2 LT ISZERO PUSH2 0x238 JUMPI PUSH1 0x0 DUP1 REVERT JUMPDEST POP CALLDATALOAD PUSH1 0x1 PUSH1 0x1 PUSH1 0xA0 SHL SUB AND PUSH2 0x9EA JUMP JUMPDEST CALLVALUE DUP1 ISZERO PUSH2 0x254 JUMPI PUSH1 0x0 DUP1 REVERT JUMPDEST POP PUSH2 0x289 PUSH1 0x4 DUP1 CALLDATASIZE SUB PUSH1 0x60 DUP2 LT ISZERO PUSH2 0x26B JUMPI PUSH1 0x0 DUP1 REVERT JUMPDEST POP DUP1 CALLDATALOAD SWAP1 PUSH1 0x1 PUSH1 0x1 PUSH1 0xA0 SHL SUB PUSH1 0x20 DUP3 ADD CALLDATALOAD AND SWAP1 PUSH1 0x40 ADD CALLDATALOAD ISZERO ISZERO PUSH2 0xAD1 JUMP JUMPDEST PUSH1 0x40 DUP1 MLOAD SWAP2 DUP3 MSTORE MLOAD SWAP1 DUP2 SWAP1 SUB PUSH1 0x20 ADD SWAP1 RETURN JUMPDEST CALLVALUE DUP1 ISZERO PUSH2 0x2A7 JUMPI PUSH1 0x0 DUP1 REVERT JUMPDEST POP PUSH2 0x2CE PUSH1 0x4 DUP1 CALLDATASIZE SUB PUSH1 0x20 DUP2 LT ISZERO PUSH2 0x2BE JUMPI PUSH1 0x0 DUP1 REVERT JUMPDEST POP CALLDATALOAD PUSH1 0x1 PUSH1 0x1 PUSH1 0xA0 SHL SUB AND PUSH2 0xB06 JUMP JUMPDEST PUSH1 0x40 DUP1 MLOAD SWAP2 ISZERO ISZERO DUP3 MSTORE MLOAD SWAP1 DUP2 SWAP1 SUB PUSH1 0x20 ADD SWAP1 RETURN JUMPDEST CALLVALUE DUP1 ISZERO PUSH2 0x2EE JUMPI PUSH1 0x0 DUP1 REVERT JUMPDEST POP PUSH2 0x1B8 PUSH2 0xB24 JUMP JUMPDEST CALLVALUE DUP1 ISZERO PUSH2 0x303 JUMPI PUSH1 0x0 DUP1 REVERT JUMPDEST POP PUSH2 0x1B8 PUSH1 0x4 DUP1 CALLDATASIZE SUB PUSH1 0x20 DUP2 LT ISZERO PUSH2 0x31A JUMPI PUSH1 0x0 DUP1 REVERT JUMPDEST POP CALLDATALOAD PUSH2 0xB86 JUMP JUMPDEST CALLVALUE DUP1 ISZERO PUSH2 0x32D JUMPI PUSH1 0x0 DUP1 REVERT JUMPDEST POP PUSH2 0x289 PUSH1 0x4 DUP1 CALLDATASIZE SUB PUSH1 0x20 DUP2 LT ISZERO PUSH2 0x344 JUMPI PUSH1 0x0 DUP1 REVERT JUMPDEST POP CALLDATALOAD PUSH2 0xDC3 JUMP JUMPDEST CALLVALUE DUP1 ISZERO PUSH2 0x357 JUMPI PUSH1 0x0 DUP1 REVERT JUMPDEST POP PUSH2 0x2CE PUSH2 0xDE1 JUMP JUMPDEST CALLVALUE DUP1 ISZERO PUSH2 0x36C JUMPI PUSH1 0x0 DUP1 REVERT JUMPDEST POP PUSH2 0x38A PUSH1 0x4 DUP1 CALLDATASIZE SUB PUSH1 0x20 DUP2 LT ISZERO PUSH2 0x383 JUMPI PUSH1 0x0 DUP1 REVERT JUMPDEST POP CALLDATALOAD PUSH2 0xDEA JUMP JUMPDEST PUSH1 0x40 DUP1 MLOAD DUP10 DUP2 MSTORE PUSH1 0x1 PUSH1 0x1 PUSH1 0xA0 SHL SUB DUP1 DUP11 AND PUSH1 0x20 DUP4 ADD MSTORE DUP9 DUP2 AND SWAP3 DUP3 ADD SWAP3 SWAP1 SWAP3 MSTORE PUSH1 0x60 DUP2 ADD DUP8 SWAP1 MSTORE DUP6 DUP3 AND PUSH1 0x80 DUP3 ADD MSTORE SWAP1 DUP5 AND PUSH1 0xA0 DUP3 ADD MSTORE PUSH1 0xC0 DUP2 ADD DUP4 PUSH1 0x2 DUP2 GT ISZERO PUSH2 0x3D2 JUMPI INVALID JUMPDEST PUSH1 0xFF AND DUP2 MSTORE PUSH1 0x20 ADD DUP3 PUSH1 0x2 DUP2 GT ISZERO PUSH2 0x3E6 JUMPI INVALID JUMPDEST PUSH1 0xFF AND DUP2 MSTORE PUSH1 0x20 ADD SWAP9 POP POP POP POP POP POP POP POP POP PUSH1 0x40 MLOAD DUP1 SWAP2 SUB SWAP1 RETURN JUMPDEST CALLVALUE DUP1 ISZERO PUSH2 0x40D JUMPI PUSH1 0x0 DUP1 REVERT JUMPDEST POP PUSH2 0x1B8 PUSH2 0xF04 JUMP JUMPDEST CALLVALUE DUP1 ISZERO PUSH2 0x422 JUMPI PUSH1 0x0 DUP1 REVERT JUMPDEST POP PUSH2 0x1B8 PUSH2 0xFA6 JUMP JUMPDEST CALLVALUE DUP1 ISZERO PUSH2 0x437 JUMPI PUSH1 0x0 DUP1 REVERT JUMPDEST POP PUSH2 0x1B8 PUSH1 0x4 DUP1 CALLDATASIZE SUB PUSH1 0x20 DUP2 LT ISZERO PUSH2 0x44E JUMPI PUSH1 0x0 DUP1 REVERT JUMPDEST POP CALLDATALOAD PUSH1 0xFF AND PUSH2 0x1006 JUMP JUMPDEST CALLVALUE DUP1 ISZERO PUSH2 0x464 JUMPI PUSH1 0x0 DUP1 REVERT JUMPDEST POP PUSH2 0x46D PUSH2 0x10A9 JUMP JUMPDEST PUSH1 0x40 DUP1 MLOAD PUSH1 0x1 PUSH1 0x1 PUSH1 0xA0 SHL SUB SWAP1 SWAP3 AND DUP3 MSTORE MLOAD SWAP1 DUP2 SWAP1 SUB PUSH1 0x20 ADD SWAP1 RETURN JUMPDEST CALLVALUE DUP1 ISZERO PUSH2 0x495 JUMPI PUSH1 0x0 DUP1 REVERT JUMPDEST POP PUSH2 0x1B8 PUSH1 0x4 DUP1 CALLDATASIZE SUB PUSH1 0x20 DUP2 LT ISZERO PUSH2 0x4AC JUMPI PUSH1 0x0 DUP1 REVERT JUMPDEST POP CALLDATALOAD PUSH1 0x1 PUSH1 0x1 PUSH1 0xA0 SHL SUB AND PUSH2 0x10B8 JUMP JUMPDEST CALLVALUE DUP1 ISZERO PUSH2 0x4C8 JUMPI PUSH1 0x0 DUP1 REVERT JUMPDEST POP PUSH2 0x289 PUSH1 0x4 DUP1 CALLDATASIZE SUB PUSH1 0x40 DUP2 LT ISZERO PUSH2 0x4DF JUMPI PUSH1 0x0 DUP1 REVERT JUMPDEST POP DUP1 CALLDATALOAD SWAP1 PUSH1 0x20 ADD CALLDATALOAD PUSH1 0x1 PUSH1 0x1 PUSH1 0xA0 SHL SUB AND PUSH2 0x119F JUMP JUMPDEST CALLVALUE DUP1 ISZERO PUSH2 0x501 JUMPI PUSH1 0x0 DUP1 REVERT JUMPDEST POP PUSH2 0x1B8 PUSH1 0x4 DUP1 CALLDATASIZE SUB PUSH1 0x20 DUP2 LT ISZERO PUSH2 0x518 JUMPI PUSH1 0x0 DUP1 REVERT JUMPDEST POP CALLDATALOAD PUSH1 0xFF AND PUSH2 0x127E JUMP JUMPDEST CALLVALUE DUP1 ISZERO PUSH2 0x52E JUMPI PUSH1 0x0 DUP1 REVERT JUMPDEST POP PUSH2 0x1B8 PUSH1 0x4 DUP1 CALLDATASIZE SUB PUSH1 0x20 DUP2 LT ISZERO PUSH2 0x545 JUMPI PUSH1 0x0 DUP1 REVERT JUMPDEST POP CALLDATALOAD PUSH1 0x1 PUSH1 0x1 PUSH1 0xA0 SHL SUB AND PUSH2 0x1321 JUMP JUMPDEST CALLVALUE DUP1 ISZERO PUSH2 0x561 JUMPI PUSH1 0x0 DUP1 REVERT JUMPDEST POP PUSH2 0x289 PUSH1 0x4 DUP1 CALLDATASIZE SUB PUSH1 0x20 DUP2 LT ISZERO PUSH2 0x578 JUMPI PUSH1 0x0 DUP1 REVERT JUMPDEST POP CALLDATALOAD PUSH2 0x1457 JUMP JUMPDEST CALLVALUE DUP1 ISZERO PUSH2 0x58B JUMPI PUSH1 0x0 DUP1 REVERT JUMPDEST POP PUSH2 0x289 PUSH1 0x4 DUP1 CALLDATASIZE SUB PUSH1 0x40 DUP2 LT ISZERO PUSH2 0x5A2 JUMPI PUSH1 0x0 DUP1 REVERT JUMPDEST POP DUP1 CALLDATALOAD SWAP1 PUSH1 0x20 ADD CALLDATALOAD PUSH1 0x1 PUSH1 0x1 PUSH1 0xA0 SHL SUB AND PUSH2 0x1474 JUMP JUMPDEST CALLVALUE DUP1 ISZERO PUSH2 0x5C4 JUMPI PUSH1 0x0 DUP1 REVERT JUMPDEST POP PUSH2 0x1B8 PUSH1 0x4 DUP1 CALLDATASIZE SUB PUSH1 0x20 DUP2 LT ISZERO PUSH2 0x5DB JUMPI PUSH1 0x0 DUP1 REVERT JUMPDEST POP CALLDATALOAD PUSH1 0x1 PUSH1 0x1 PUSH1 0xA0 SHL SUB AND PUSH2 0x1682 JUMP JUMPDEST CALLVALUE DUP1 ISZERO PUSH2 0x5F7 JUMPI PUSH1 0x0 DUP1 REVERT JUMPDEST POP PUSH2 0x1B8 PUSH1 0x4 DUP1 CALLDATASIZE SUB PUSH1 0x20 DUP2 LT ISZERO PUSH2 0x60E JUMPI PUSH1 0x0 DUP1 REVERT JUMPDEST POP CALLDATALOAD PUSH1 0xFF AND PUSH2 0x174D JUMP JUMPDEST CALLVALUE DUP1 ISZERO PUSH2 0x624 JUMPI PUSH1 0x0 DUP1 REVERT JUMPDEST POP PUSH2 0x1B8 PUSH1 0x4 DUP1 CALLDATASIZE SUB PUSH1 0x20 DUP2 LT ISZERO PUSH2 0x63B JUMPI PUSH1 0x0 DUP1 REVERT JUMPDEST POP CALLDATALOAD PUSH1 0x1 PUSH1 0x1 PUSH1 0xA0 SHL SUB AND PUSH2 0x17F0 JUMP JUMPDEST PUSH2 0x1B8 PUSH1 0x4 DUP1 CALLDATASIZE SUB PUSH1 0x80 DUP2 LT ISZERO PUSH2 0x661 JUMPI PUSH1 0x0 DUP1 REVERT JUMPDEST POP DUP1 CALLDATALOAD SWAP1 PUSH1 0x20 DUP2 ADD CALLDATALOAD SWAP1 PUSH1 0x40 DUP2 ADD CALLDATALOAD ISZERO ISZERO SWAP1 PUSH1 0x60 ADD CALLDATALOAD ISZERO ISZERO PUSH2 0x18B8 JUMP JUMPDEST CALLVALUE DUP1 ISZERO PUSH2 0x68A JUMPI PUSH1 0x0 DUP1 REVERT JUMPDEST POP PUSH2 0x1B8 PUSH1 0x4 DUP1 CALLDATASIZE SUB PUSH1 0x20 DUP2 LT ISZERO PUSH2 0x6A1 JUMPI PUSH1 0x0 DUP1 REVERT JUMPDEST POP CALLDATALOAD PUSH1 0x1 PUSH1 0x1 PUSH1 0xA0 SHL SUB AND PUSH2 0x1B21 JUMP JUMPDEST CALLVALUE DUP1 ISZERO PUSH2 0x6BD JUMPI PUSH1 0x0 DUP1 REVERT JUMPDEST POP PUSH2 0x1B8 PUSH1 0x4 DUP1 CALLDATASIZE SUB PUSH1 0x80 DUP2 LT ISZERO PUSH2 0x6D4 JUMPI PUSH1 0x0 DUP1 REVERT JUMPDEST POP PUSH1 0x1 PUSH1 0x1 PUSH1 0xA0 SHL SUB DUP2 CALLDATALOAD DUP2 AND SWAP2 PUSH1 0x20 DUP2 ADD CALLDATALOAD DUP3 AND SWAP2 PUSH1 0x40 DUP3 ADD CALLDATALOAD DUP2 AND SWAP2 PUSH1 0x60 ADD CALLDATALOAD AND PUSH2 0x1C1A JUMP JUMPDEST PUSH2 0x704 PUSH2 0x1CCA JUMP JUMPDEST PUSH1 0x65 SLOAD PUSH1 0x1 PUSH1 0x1 PUSH1 0xA0 SHL SUB SWAP1 DUP2 AND SWAP2 AND EQ PUSH2 0x754 JUMPI PUSH1 0x40 DUP1 MLOAD PUSH3 0x461BCD PUSH1 0xE5 SHL DUP2 MSTORE PUSH1 0x20 PUSH1 0x4 DUP3 ADD DUP2 SWAP1 MSTORE PUSH1 0x24 DUP3 ADD MSTORE PUSH1 0x0 DUP1 MLOAD PUSH1 0x20 PUSH2 0x4F1A DUP4 CODECOPY DUP2 MLOAD SWAP2 MSTORE PUSH1 0x44 DUP3 ADD MSTORE SWAP1 MLOAD SWAP1 DUP2 SWAP1 SUB PUSH1 0x64 ADD SWAP1 REVERT JUMPDEST DUP1 PUSH2 0x767 DUP2 PUSH1 0x1 PUSH1 0x1 PUSH1 0xA0 SHL SUB AND PUSH2 0x1CCE JUMP JUMPDEST PUSH2 0x7A2 JUMPI PUSH1 0x40 MLOAD PUSH3 0x461BCD PUSH1 0xE5 SHL DUP2 MSTORE PUSH1 0x4 ADD DUP1 DUP1 PUSH1 0x20 ADD DUP3 DUP2 SUB DUP3 MSTORE PUSH1 0x34 DUP2 MSTORE PUSH1 0x20 ADD DUP1 PUSH2 0x4E9A PUSH1 0x34 SWAP2 CODECOPY PUSH1 0x40 ADD SWAP2 POP POP PUSH1 0x40 MLOAD DUP1 SWAP2 SUB SWAP1 REVERT JUMPDEST PUSH1 0x1 PUSH1 0x1 PUSH1 0xA0 SHL SUB DUP3 AND PUSH2 0x7E7 JUMPI PUSH1 0x40 MLOAD PUSH3 0x461BCD PUSH1 0xE5 SHL DUP2 MSTORE PUSH1 0x4 ADD DUP1 DUP1 PUSH1 0x20 ADD DUP3 DUP2 SUB DUP3 MSTORE PUSH1 0x2D DUP2 MSTORE PUSH1 0x20 ADD DUP1 PUSH2 0x4E6D PUSH1 0x2D SWAP2 CODECOPY PUSH1 0x40 ADD SWAP2 POP POP PUSH1 0x40 MLOAD DUP1 SWAP2 SUB SWAP1 REVERT JUMPDEST POP PUSH1 0xD1 DUP1 SLOAD PUSH1 0x1 PUSH1 0x1 PUSH1 0xA0 SHL SUB NOT AND PUSH1 0x1 PUSH1 0x1 PUSH1 0xA0 SHL SUB SWAP3 SWAP1 SWAP3 AND SWAP2 SWAP1 SWAP2 OR SWAP1 SSTORE JUMP JUMPDEST PUSH1 0x97 SLOAD PUSH1 0xFF AND ISZERO PUSH2 0x855 JUMPI PUSH1 0x40 DUP1 MLOAD PUSH3 0x461BCD PUSH1 0xE5 SHL DUP2 MSTORE PUSH1 0x20 PUSH1 0x4 DUP3 ADD MSTORE PUSH1 0x10 PUSH1 0x24 DUP3 ADD MSTORE PUSH16 0x14185D5CD8589B194E881C185D5CD959 PUSH1 0x82 SHL PUSH1 0x44 DUP3 ADD MSTORE SWAP1 MLOAD SWAP1 DUP2 SWAP1 SUB PUSH1 0x64 ADD SWAP1 REVERT JUMPDEST PUSH1 0x0 DUP9 GT PUSH2 0x894 JUMPI PUSH1 0x40 MLOAD PUSH3 0x461BCD PUSH1 0xE5 SHL DUP2 MSTORE PUSH1 0x4 ADD DUP1 DUP1 PUSH1 0x20 ADD DUP3 DUP2 SUB DUP3 MSTORE PUSH1 0x33 DUP2 MSTORE PUSH1 0x20 ADD DUP1 PUSH2 0x4C22 PUSH1 0x33 SWAP2 CODECOPY PUSH1 0x40 ADD SWAP2 POP POP PUSH1 0x40 MLOAD DUP1 SWAP2 SUB SWAP1 REVERT JUMPDEST PUSH1 0x0 DUP7 GT PUSH2 0x8D3 JUMPI PUSH1 0x40 MLOAD PUSH3 0x461BCD PUSH1 0xE5 SHL DUP2 MSTORE PUSH1 0x4 ADD DUP1 DUP1 PUSH1 0x20 ADD DUP3 DUP2 SUB DUP3 MSTORE PUSH1 0x34 DUP2 MSTORE PUSH1 0x20 ADD DUP1 PUSH2 0x4E04 PUSH1 0x34 SWAP2 CODECOPY PUSH1 0x40 ADD SWAP2 POP POP PUSH1 0x40 MLOAD DUP1 SWAP2 SUB SWAP1 REVERT JUMPDEST PUSH2 0x8DC DUP8 PUSH2 0xB06 JUMP JUMPDEST PUSH2 0x91F JUMPI PUSH1 0x0 DUP4 GT PUSH2 0x91F JUMPI PUSH1 0x40 MLOAD PUSH3 0x461BCD PUSH1 0xE5 SHL DUP2 MSTORE PUSH1 0x4 ADD DUP1 DUP1 PUSH1 0x20 ADD DUP3 DUP2 SUB DUP3 MSTORE PUSH1 0x2C DUP2 MSTORE PUSH1 0x20 ADD DUP1 PUSH2 0x5041 PUSH1 0x2C SWAP2 CODECOPY PUSH1 0x40 ADD SWAP2 POP POP PUSH1 0x40 MLOAD DUP1 SWAP2 SUB SWAP1 REVERT JUMPDEST PUSH1 0x1 PUSH1 0x1 PUSH1 0xA0 SHL SUB DUP6 AND PUSH2 0x964 JUMPI PUSH1 0x40 MLOAD PUSH3 0x461BCD PUSH1 0xE5 SHL DUP2 MSTORE PUSH1 0x4 ADD DUP1 DUP1 PUSH1 0x20 ADD DUP3 DUP2 SUB DUP3 MSTORE PUSH1 0x29 DUP2 MSTORE PUSH1 0x20 ADD DUP1 PUSH2 0x4BF9 PUSH1 0x29 SWAP2 CODECOPY PUSH1 0x40 ADD SWAP2 POP POP PUSH1 0x40 MLOAD DUP1 SWAP2 SUB SWAP1 REVERT JUMPDEST PUSH20 0xEEEEEEEEEEEEEEEEEEEEEEEEEEEEEEEEEEEEEEEE PUSH1 0x1 PUSH1 0x1 PUSH1 0xA0 SHL SUB DUP9 AND EQ ISZERO PUSH2 0x99C JUMPI PUSH2 0x997 DUP9 DUP8 DUP8 DUP8 DUP8 DUP8 PUSH2 0x1D0A JUMP JUMPDEST PUSH2 0x9E0 JUMP JUMPDEST PUSH20 0xEEEEEEEEEEEEEEEEEEEEEEEEEEEEEEEEEEEEEEEE PUSH1 0x1 PUSH1 0x1 PUSH1 0xA0 SHL SUB DUP6 AND EQ ISZERO PUSH2 0x9D0 JUMPI PUSH2 0x997 DUP9 DUP9 DUP8 DUP10 DUP8 DUP8 DUP8 PUSH2 0x21F0 JUMP JUMPDEST PUSH2 0x9E0 DUP9 DUP9 DUP9 DUP9 DUP9 DUP9 DUP9 DUP9 PUSH2 0x278B JUMP JUMPDEST POP POP POP POP POP POP POP POP JUMP JUMPDEST PUSH2 0x9F2 PUSH2 0x1CCA JUMP JUMPDEST PUSH1 0x65 SLOAD PUSH1 0x1 PUSH1 0x1 PUSH1 0xA0 SHL SUB SWAP1 DUP2 AND SWAP2 AND EQ PUSH2 0xA42 JUMPI PUSH1 0x40 DUP1 MLOAD PUSH3 0x461BCD PUSH1 0xE5 SHL DUP2 MSTORE PUSH1 0x20 PUSH1 0x4 DUP3 ADD DUP2 SWAP1 MSTORE PUSH1 0x24 DUP3 ADD MSTORE PUSH1 0x0 DUP1 MLOAD PUSH1 0x20 PUSH2 0x4F1A DUP4 CODECOPY DUP2 MLOAD SWAP2 MSTORE PUSH1 0x44 DUP3 ADD MSTORE SWAP1 MLOAD SWAP1 DUP2 SWAP1 SUB PUSH1 0x64 ADD SWAP1 REVERT JUMPDEST PUSH1 0x1 PUSH1 0x1 PUSH1 0xA0 SHL SUB DUP2 AND PUSH2 0xA87 JUMPI PUSH1 0x40 MLOAD PUSH3 0x461BCD PUSH1 0xE5 SHL DUP2 MSTORE PUSH1 0x4 ADD DUP1 DUP1 PUSH1 0x20 ADD DUP3 DUP2 SUB DUP3 MSTORE PUSH1 0x2A DUP2 MSTORE PUSH1 0x20 ADD DUP1 PUSH2 0x4D63 PUSH1 0x2A SWAP2 CODECOPY PUSH1 0x40 ADD SWAP2 POP POP PUSH1 0x40 MLOAD DUP1 SWAP2 SUB SWAP1 REVERT JUMPDEST PUSH1 0xCD DUP1 SLOAD PUSH1 0x1 PUSH1 0x1 PUSH1 0xA0 SHL SUB NOT AND PUSH1 0x1 PUSH1 0x1 PUSH1 0xA0 SHL SUB DUP4 AND SWAP1 DUP2 OR SWAP1 SWAP2 SSTORE PUSH1 0x40 MLOAD PUSH32 0x268C00F4EC08B34FDDE24B52E47A09D62F3F3837EB3B8AC7206CEFB3BB5E5345 SWAP1 PUSH1 0x0 SWAP1 LOG2 POP JUMP JUMPDEST PUSH1 0x0 DUP1 DUP3 PUSH2 0xAE8 JUMPI PUSH2 0xAE3 DUP6 DUP6 PUSH2 0x1474 JUMP JUMPDEST PUSH2 0xAF2 JUMP JUMPDEST PUSH2 0xAF2 DUP6 DUP6 PUSH2 0x119F JUMP JUMPDEST SWAP1 POP PUSH2 0xAFD DUP2 PUSH2 0x2CB0 JUMP JUMPDEST SWAP6 SWAP5 POP POP POP POP POP JUMP JUMPDEST PUSH1 0x1 PUSH1 0x1 PUSH1 0xA0 SHL SUB AND PUSH1 0x0 SWAP1 DUP2 MSTORE PUSH1 0xD2 PUSH1 0x20 MSTORE PUSH1 0x40 SWAP1 KECCAK256 SLOAD PUSH1 0xFF AND SWAP1 JUMP JUMPDEST PUSH2 0xB2C PUSH2 0x1CCA JUMP JUMPDEST PUSH1 0x65 SLOAD PUSH1 0x1 PUSH1 0x1 PUSH1 0xA0 SHL SUB SWAP1 DUP2 AND SWAP2 AND EQ PUSH2 0xB7C JUMPI PUSH1 0x40 DUP1 MLOAD PUSH3 0x461BCD PUSH1 0xE5 SHL DUP2 MSTORE PUSH1 0x20 PUSH1 0x4 DUP3 ADD DUP2 SWAP1 MSTORE PUSH1 0x24 DUP3 ADD MSTORE PUSH1 0x0 DUP1 MLOAD PUSH1 0x20 PUSH2 0x4F1A DUP4 CODECOPY DUP2 MLOAD SWAP2 MSTORE PUSH1 0x44 DUP3 ADD MSTORE SWAP1 MLOAD SWAP1 DUP2 SWAP1 SUB PUSH1 0x64 ADD SWAP1 REVERT JUMPDEST PUSH2 0xB84 PUSH2 0x2E3E JUMP JUMPDEST JUMP JUMPDEST DUP1 PUSH2 0xB8F PUSH2 0x4BB4 JUMP JUMPDEST PUSH1 0x0 DUP3 DUP2 MSTORE PUSH1 0xCA PUSH1 0x20 SWAP1 DUP2 MSTORE PUSH1 0x40 SWAP2 DUP3 SWAP1 KECCAK256 DUP3 MLOAD PUSH2 0x100 DUP2 ADD DUP5 MSTORE DUP2 SLOAD DUP2 MSTORE PUSH1 0x1 DUP3 ADD SLOAD SWAP3 DUP2 ADD SWAP3 SWAP1 SWAP3 MSTORE PUSH1 0x2 DUP1 DUP3 ADD SLOAD PUSH1 0x1 PUSH1 0x1 PUSH1 0xA0 SHL SUB SWAP1 DUP2 AND SWAP5 DUP5 ADD SWAP5 SWAP1 SWAP5 MSTORE PUSH1 0x3 DUP3 ADD SLOAD DUP5 AND PUSH1 0x60 DUP5 ADD MSTORE PUSH1 0x4 DUP3 ADD SLOAD DUP5 AND PUSH1 0x80 DUP5 ADD MSTORE PUSH1 0x5 DUP3 ADD SLOAD SWAP4 DUP5 AND PUSH1 0xA0 DUP5 ADD MSTORE SWAP2 SWAP3 SWAP1 SWAP2 PUSH1 0xC0 DUP5 ADD SWAP2 PUSH1 0x1 PUSH1 0xA0 SHL SWAP1 DIV PUSH1 0xFF AND SWAP1 DUP2 GT ISZERO PUSH2 0xC14 JUMPI INVALID JUMPDEST PUSH1 0x2 DUP2 GT ISZERO PUSH2 0xC1F JUMPI INVALID JUMPDEST DUP2 MSTORE PUSH1 0x20 ADD PUSH1 0x5 DUP3 ADD PUSH1 0x15 SWAP1 SLOAD SWAP1 PUSH2 0x100 EXP SWAP1 DIV PUSH1 0xFF AND PUSH1 0x2 DUP2 GT ISZERO PUSH2 0xC41 JUMPI INVALID JUMPDEST PUSH1 0x2 DUP2 GT ISZERO PUSH2 0xC4C JUMPI INVALID JUMPDEST SWAP1 MSTORE POP SWAP1 POP PUSH1 0x0 DUP2 PUSH1 0xE0 ADD MLOAD PUSH1 0x2 DUP2 GT ISZERO PUSH2 0xC63 JUMPI INVALID JUMPDEST EQ PUSH2 0xC6D JUMPI PUSH1 0x0 DUP1 REVERT JUMPDEST PUSH2 0xC75 PUSH2 0x4BB4 JUMP JUMPDEST PUSH1 0x0 DUP5 DUP2 MSTORE PUSH1 0xCA PUSH1 0x20 SWAP1 DUP2 MSTORE PUSH1 0x40 SWAP2 DUP3 SWAP1 KECCAK256 DUP3 MLOAD PUSH2 0x100 DUP2 ADD DUP5 MSTORE DUP2 SLOAD DUP2 MSTORE PUSH1 0x1 DUP3 ADD SLOAD SWAP3 DUP2 ADD SWAP3 SWAP1 SWAP3 MSTORE PUSH1 0x2 DUP1 DUP3 ADD SLOAD PUSH1 0x1 PUSH1 0x1 PUSH1 0xA0 SHL SUB SWAP1 DUP2 AND SWAP5 DUP5 ADD SWAP5 SWAP1 SWAP5 MSTORE PUSH1 0x3 DUP3 ADD SLOAD DUP5 AND PUSH1 0x60 DUP5 ADD MSTORE PUSH1 0x4 DUP3 ADD SLOAD DUP5 AND PUSH1 0x80 DUP5 ADD MSTORE PUSH1 0x5 DUP3 ADD SLOAD SWAP4 DUP5 AND PUSH1 0xA0 DUP5 ADD MSTORE SWAP2 SWAP3 SWAP1 SWAP2 PUSH1 0xC0 DUP5 ADD SWAP2 PUSH1 0x1 PUSH1 0xA0 SHL SWAP1 DIV PUSH1 0xFF AND SWAP1 DUP2 GT ISZERO PUSH2 0xCFA JUMPI INVALID JUMPDEST PUSH1 0x2 DUP2 GT ISZERO PUSH2 0xD05 JUMPI INVALID JUMPDEST DUP2 MSTORE PUSH1 0x20 ADD PUSH1 0x5 DUP3 ADD PUSH1 0x15 SWAP1 SLOAD SWAP1 PUSH2 0x100 EXP SWAP1 DIV PUSH1 0xFF AND PUSH1 0x2 DUP2 GT ISZERO PUSH2 0xD27 JUMPI INVALID JUMPDEST PUSH1 0x2 DUP2 GT ISZERO PUSH2 0xD32 JUMPI INVALID JUMPDEST SWAP1 MSTORE POP SWAP1 POP PUSH2 0xD3F PUSH2 0x1CCA JUMP JUMPDEST PUSH1 0x1 PUSH1 0x1 PUSH1 0xA0 SHL SUB AND DUP2 PUSH1 0x40 ADD MLOAD PUSH1 0x1 PUSH1 0x1 PUSH1 0xA0 SHL SUB AND EQ PUSH2 0xD92 JUMPI PUSH1 0x40 MLOAD PUSH3 0x461BCD PUSH1 0xE5 SHL DUP2 MSTORE PUSH1 0x4 ADD DUP1 DUP1 PUSH1 0x20 ADD DUP3 DUP2 SUB DUP3 MSTORE PUSH1 0x3E DUP2 MSTORE PUSH1 0x20 ADD DUP1 PUSH2 0x511F PUSH1 0x3E SWAP2 CODECOPY PUSH1 0x40 ADD SWAP2 POP POP PUSH1 0x40 MLOAD DUP1 SWAP2 SUB SWAP1 REVERT JUMPDEST DUP1 PUSH1 0xC0 ADD MLOAD PUSH1 0x2 DUP2 GT ISZERO PUSH2 0xDA2 JUMPI INVALID JUMPDEST PUSH2 0xDB4 JUMPI PUSH2 0xDAF DUP5 PUSH2 0x2EDC JUMP JUMPDEST PUSH2 0xDBD JUMP JUMPDEST PUSH2 0xDBD DUP5 PUSH2 0x3056 JUMP JUMPDEST POP POP POP POP JUMP JUMPDEST PUSH1 0x0 DUP1 PUSH2 0xDCF DUP4 PUSH2 0x1457 JUMP JUMPDEST SWAP1 POP PUSH2 0xDDA DUP2 PUSH2 0x2CB0 JUMP JUMPDEST SWAP4 SWAP3 POP POP POP JUMP JUMPDEST PUSH1 0x97 SLOAD PUSH1 0xFF AND SWAP1 JUMP JUMPDEST PUSH1 0x0 DUP1 PUSH1 0x0 DUP1 PUSH1 0x0 DUP1 PUSH1 0x0 DUP1 PUSH2 0xDFE PUSH2 0x4BB4 JUMP JUMPDEST PUSH1 0x0 DUP11 DUP2 MSTORE PUSH1 0xCA PUSH1 0x20 SWAP1 DUP2 MSTORE PUSH1 0x40 SWAP2 DUP3 SWAP1 KECCAK256 DUP3 MLOAD PUSH2 0x100 DUP2 ADD DUP5 MSTORE DUP2 SLOAD DUP2 MSTORE PUSH1 0x1 DUP3 ADD SLOAD SWAP3 DUP2 ADD SWAP3 SWAP1 SWAP3 MSTORE PUSH1 0x2 DUP1 DUP3 ADD SLOAD PUSH1 0x1 PUSH1 0x1 PUSH1 0xA0 SHL SUB SWAP1 DUP2 AND SWAP5 DUP5 ADD SWAP5 SWAP1 SWAP5 MSTORE PUSH1 0x3 DUP3 ADD SLOAD DUP5 AND PUSH1 0x60 DUP5 ADD MSTORE PUSH1 0x4 DUP3 ADD SLOAD DUP5 AND PUSH1 0x80 DUP5 ADD MSTORE PUSH1 0x5 DUP3 ADD SLOAD SWAP4 DUP5 AND PUSH1 0xA0 DUP5 ADD MSTORE SWAP2 SWAP3 SWAP1 SWAP2 PUSH1 0xC0 DUP5 ADD SWAP2 PUSH1 0x1 PUSH1 0xA0 SHL SWAP1 DIV PUSH1 0xFF AND SWAP1 DUP2 GT ISZERO PUSH2 0xE83 JUMPI INVALID JUMPDEST PUSH1 0x2 DUP2 GT ISZERO PUSH2 0xE8E JUMPI INVALID JUMPDEST DUP2 MSTORE PUSH1 0x20 ADD PUSH1 0x5 DUP3 ADD PUSH1 0x15 SWAP1 SLOAD SWAP1 PUSH2 0x100 EXP SWAP1 DIV PUSH1 0xFF AND PUSH1 0x2 DUP2 GT ISZERO PUSH2 0xEB0 JUMPI INVALID JUMPDEST PUSH1 0x2 DUP2 GT ISZERO PUSH2 0xEBB JUMPI INVALID JUMPDEST SWAP1 MSTORE POP DUP1 MLOAD PUSH1 0x40 DUP3 ADD MLOAD PUSH1 0x80 DUP4 ADD MLOAD PUSH1 0x20 DUP5 ADD MLOAD PUSH1 0x60 DUP6 ADD MLOAD PUSH1 0xA0 DUP7 ADD MLOAD PUSH1 0xC0 DUP8 ADD MLOAD PUSH1 0xE0 SWAP1 SWAP8 ADD MLOAD SWAP6 SWAP16 POP SWAP4 SWAP14 POP SWAP2 SWAP12 POP SWAP10 POP SWAP8 POP SWAP6 POP SWAP1 SWAP4 POP SWAP2 POP POP SWAP2 SWAP4 SWAP6 SWAP8 POP SWAP2 SWAP4 SWAP6 SWAP8 JUMP JUMPDEST PUSH2 0xF0C PUSH2 0x1CCA JUMP JUMPDEST PUSH1 0x65 SLOAD PUSH1 0x1 PUSH1 0x1 PUSH1 0xA0 SHL SUB SWAP1 DUP2 AND SWAP2 AND EQ PUSH2 0xF5C JUMPI PUSH1 0x40 DUP1 MLOAD PUSH3 0x461BCD PUSH1 0xE5 SHL DUP2 MSTORE PUSH1 0x20 PUSH1 0x4 DUP3 ADD DUP2 SWAP1 MSTORE PUSH1 0x24 DUP3 ADD MSTORE PUSH1 0x0 DUP1 MLOAD PUSH1 0x20 PUSH2 0x4F1A DUP4 CODECOPY DUP2 MLOAD SWAP2 MSTORE PUSH1 0x44 DUP3 ADD MSTORE SWAP1 MLOAD SWAP1 DUP2 SWAP1 SUB PUSH1 0x64 ADD SWAP1 REVERT JUMPDEST PUSH1 0x65 SLOAD PUSH1 0x40 MLOAD PUSH1 0x0 SWAP2 PUSH1 0x1 PUSH1 0x1 PUSH1 0xA0 SHL SUB AND SWAP1 PUSH32 0x8BE0079C531659141344CD1FD0A4F28419497F9722A3DAAFE3B4186F6B6457E0 SWAP1 DUP4 SWAP1 LOG3 PUSH1 0x65 DUP1 SLOAD PUSH1 0x1 PUSH1 0x1 PUSH1 0xA0 SHL SUB NOT AND SWAP1 SSTORE JUMP JUMPDEST PUSH2 0xFAE PUSH2 0x1CCA JUMP JUMPDEST PUSH1 0x65 SLOAD PUSH1 0x1 PUSH1 0x1 PUSH1 0xA0 SHL SUB SWAP1 DUP2 AND SWAP2 AND EQ PUSH2 0xFFE JUMPI PUSH1 0x40 DUP1 MLOAD PUSH3 0x461BCD PUSH1 0xE5 SHL DUP2 MSTORE PUSH1 0x20 PUSH1 0x4 DUP3 ADD DUP2 SWAP1 MSTORE PUSH1 0x24 DUP3 ADD MSTORE PUSH1 0x0 DUP1 MLOAD PUSH1 0x20 PUSH2 0x4F1A DUP4 CODECOPY DUP2 MLOAD SWAP2 MSTORE PUSH1 0x44 DUP3 ADD MSTORE SWAP1 MLOAD SWAP1 DUP2 SWAP1 SUB PUSH1 0x64 ADD SWAP1 REVERT JUMPDEST PUSH2 0xB84 PUSH2 0x3228 JUMP JUMPDEST PUSH2 0x100E PUSH2 0x1CCA JUMP JUMPDEST PUSH1 0x65 SLOAD PUSH1 0x1 PUSH1 0x1 PUSH1 0xA0 SHL SUB SWAP1 DUP2 AND SWAP2 AND EQ PUSH2 0x105E JUMPI PUSH1 0x40 DUP1 MLOAD PUSH3 0x461BCD PUSH1 0xE5 SHL DUP2 MSTORE PUSH1 0x20 PUSH1 0x4 DUP3 ADD DUP2 SWAP1 MSTORE PUSH1 0x24 DUP3 ADD MSTORE PUSH1 0x0 DUP1 MLOAD PUSH1 0x20 PUSH2 0x4F1A DUP4 CODECOPY DUP2 MLOAD SWAP2 MSTORE PUSH1 0x44 DUP3 ADD MSTORE SWAP1 MLOAD SWAP1 DUP2 SWAP1 SUB PUSH1 0x64 ADD SWAP1 REVERT JUMPDEST PUSH1 0x64 DUP2 PUSH1 0xFF AND GT ISZERO PUSH2 0x10A1 JUMPI PUSH1 0x40 MLOAD PUSH3 0x461BCD PUSH1 0xE5 SHL DUP2 MSTORE PUSH1 0x4 ADD DUP1 DUP1 PUSH1 0x20 ADD DUP3 DUP2 SUB DUP3 MSTORE PUSH1 0x39 DUP2 MSTORE PUSH1 0x20 ADD DUP1 PUSH2 0x50B3 PUSH1 0x39 SWAP2 CODECOPY PUSH1 0x40 ADD SWAP2 POP POP PUSH1 0x40 MLOAD DUP1 SWAP2 SUB SWAP1 REVERT JUMPDEST PUSH1 0xFF AND PUSH1 0xCE SSTORE JUMP JUMPDEST PUSH1 0x65 SLOAD PUSH1 0x1 PUSH1 0x1 PUSH1 0xA0 SHL SUB AND SWAP1 JUMP JUMPDEST PUSH2 0x10C0 PUSH2 0x1CCA JUMP JUMPDEST PUSH1 0x65 SLOAD PUSH1 0x1 PUSH1 0x1 PUSH1 0xA0 SHL SUB SWAP1 DUP2 AND SWAP2 AND EQ PUSH2 0x1110 JUMPI PUSH1 0x40 DUP1 MLOAD PUSH3 0x461BCD PUSH1 0xE5 SHL DUP2 MSTORE PUSH1 0x20 PUSH1 0x4 DUP3 ADD DUP2 SWAP1 MSTORE PUSH1 0x24 DUP3 ADD MSTORE PUSH1 0x0 DUP1 MLOAD PUSH1 0x20 PUSH2 0x4F1A DUP4 CODECOPY DUP2 MLOAD SWAP2 MSTORE PUSH1 0x44 DUP3 ADD MSTORE SWAP1 MLOAD SWAP1 DUP2 SWAP1 SUB PUSH1 0x64 ADD SWAP1 REVERT JUMPDEST PUSH1 0x1 PUSH1 0x1 PUSH1 0xA0 SHL SUB DUP2 AND PUSH2 0x1155 JUMPI PUSH1 0x40 MLOAD PUSH3 0x461BCD PUSH1 0xE5 SHL DUP2 MSTORE PUSH1 0x4 ADD DUP1 DUP1 PUSH1 0x20 ADD DUP3 DUP2 SUB DUP3 MSTORE PUSH1 0x2B DUP2 MSTORE PUSH1 0x20 ADD DUP1 PUSH2 0x4ECE PUSH1 0x2B SWAP2 CODECOPY PUSH1 0x40 ADD SWAP2 POP POP PUSH1 0x40 MLOAD DUP1 SWAP2 SUB SWAP1 REVERT JUMPDEST PUSH1 0xCC DUP1 SLOAD PUSH1 0x1 PUSH1 0x1 PUSH1 0xA0 SHL SUB NOT AND PUSH1 0x1 PUSH1 0x1 PUSH1 0xA0 SHL SUB DUP4 AND SWAP1 DUP2 OR SWAP1 SWAP2 SSTORE PUSH1 0x40 MLOAD PUSH32 0xE805FFC02A12D27B142431551E2CD3F766203C54A9A4AB0D1CF01CE7366A796F SWAP1 PUSH1 0x0 SWAP1 LOG2 POP JUMP JUMPDEST PUSH1 0x0 PUSH2 0x11AA DUP3 PUSH2 0xB06 JUMP JUMPDEST ISZERO PUSH2 0x11B7 JUMPI POP PUSH1 0x0 PUSH2 0x1278 JUMP JUMPDEST PUSH1 0x0 DUP3 PUSH1 0x1 PUSH1 0x1 PUSH1 0xA0 SHL SUB AND PUSH4 0x18160DDD PUSH1 0x40 MLOAD DUP2 PUSH4 0xFFFFFFFF AND PUSH1 0xE0 SHL DUP2 MSTORE PUSH1 0x4 ADD PUSH1 0x20 PUSH1 0x40 MLOAD DUP1 DUP4 SUB DUP2 DUP7 DUP1 EXTCODESIZE ISZERO DUP1 ISZERO PUSH2 0x11F2 JUMPI PUSH1 0x0 DUP1 REVERT JUMPDEST POP GAS STATICCALL ISZERO DUP1 ISZERO PUSH2 0x1206 JUMPI RETURNDATASIZE PUSH1 0x0 DUP1 RETURNDATACOPY RETURNDATASIZE PUSH1 0x0 REVERT JUMPDEST POP POP POP POP PUSH1 0x40 MLOAD RETURNDATASIZE PUSH1 0x20 DUP2 LT ISZERO PUSH2 0x121C JUMPI PUSH1 0x0 DUP1 REVERT JUMPDEST POP MLOAD SWAP1 POP PUSH1 0x0 PUSH2 0x1253 DUP3 PUSH2 0x1247 PUSH1 0x64 PUSH2 0x123B DUP10 DUP5 PUSH4 0xFFFFFFFF PUSH2 0x32A9 AND JUMP JUMPDEST SWAP1 PUSH4 0xFFFFFFFF PUSH2 0x32A9 AND JUMP JUMPDEST SWAP1 PUSH4 0xFFFFFFFF PUSH2 0x3302 AND JUMP JUMPDEST SWAP1 POP PUSH8 0x16345785D8A0000 PUSH2 0x1272 DUP4 PUSH2 0x1247 DUP5 DUP5 PUSH4 0xFFFFFFFF PUSH2 0x32A9 AND JUMP JUMPDEST SWAP4 POP POP POP POP JUMPDEST SWAP3 SWAP2 POP POP JUMP JUMPDEST PUSH2 0x1286 PUSH2 0x1CCA JUMP JUMPDEST PUSH1 0x65 SLOAD PUSH1 0x1 PUSH1 0x1 PUSH1 0xA0 SHL SUB SWAP1 DUP2 AND SWAP2 AND EQ PUSH2 0x12D6 JUMPI PUSH1 0x40 DUP1 MLOAD PUSH3 0x461BCD PUSH1 0xE5 SHL DUP2 MSTORE PUSH1 0x20 PUSH1 0x4 DUP3 ADD DUP2 SWAP1 MSTORE PUSH1 0x24 DUP3 ADD MSTORE PUSH1 0x0 DUP1 MLOAD PUSH1 0x20 PUSH2 0x4F1A DUP4 CODECOPY DUP2 MLOAD SWAP2 MSTORE PUSH1 0x44 DUP3 ADD MSTORE SWAP1 MLOAD SWAP1 DUP2 SWAP1 SUB PUSH1 0x64 ADD SWAP1 REVERT JUMPDEST PUSH1 0x64 DUP2 PUSH1 0xFF AND GT ISZERO PUSH2 0x1319 JUMPI PUSH1 0x40 MLOAD PUSH3 0x461BCD PUSH1 0xE5 SHL DUP2 MSTORE PUSH1 0x4 ADD DUP1 DUP1 PUSH1 0x20 ADD DUP3 DUP2 SUB DUP3 MSTORE PUSH1 0x3D DUP2 MSTORE PUSH1 0x20 ADD DUP1 PUSH2 0x5187 PUSH1 0x3D SWAP2 CODECOPY PUSH1 0x40 ADD SWAP2 POP POP PUSH1 0x40 MLOAD DUP1 SWAP2 SUB SWAP1 REVERT JUMPDEST PUSH1 0xFF AND PUSH1 0xD0 SSTORE JUMP JUMPDEST PUSH2 0x1329 PUSH2 0x1CCA JUMP JUMPDEST PUSH1 0x65 SLOAD PUSH1 0x1 PUSH1 0x1 PUSH1 0xA0 SHL SUB SWAP1 DUP2 AND SWAP2 AND EQ PUSH2 0x1379 JUMPI PUSH1 0x40 DUP1 MLOAD PUSH3 0x461BCD PUSH1 0xE5 SHL DUP2 MSTORE PUSH1 0x20 PUSH1 0x4 DUP3 ADD DUP2 SWAP1 MSTORE PUSH1 0x24 DUP3 ADD MSTORE PUSH1 0x0 DUP1 MLOAD PUSH1 0x20 PUSH2 0x4F1A DUP4 CODECOPY DUP2 MLOAD SWAP2 MSTORE PUSH1 0x44 DUP3 ADD MSTORE SWAP1 MLOAD SWAP1 DUP2 SWAP1 SUB PUSH1 0x64 ADD SWAP1 REVERT JUMPDEST DUP1 PUSH2 0x138C DUP2 PUSH1 0x1 PUSH1 0x1 PUSH1 0xA0 SHL SUB AND PUSH2 0x1CCE JUMP JUMPDEST PUSH2 0x13C7 JUMPI PUSH1 0x40 MLOAD PUSH3 0x461BCD PUSH1 0xE5 SHL DUP2 MSTORE PUSH1 0x4 ADD DUP1 DUP1 PUSH1 0x20 ADD DUP3 DUP2 SUB DUP3 MSTORE PUSH1 0x34 DUP2 MSTORE PUSH1 0x20 ADD DUP1 PUSH2 0x4E9A PUSH1 0x34 SWAP2 CODECOPY PUSH1 0x40 ADD SWAP2 POP POP PUSH1 0x40 MLOAD DUP1 SWAP2 SUB SWAP1 REVERT JUMPDEST PUSH1 0x1 PUSH1 0x1 PUSH1 0xA0 SHL SUB DUP3 AND PUSH2 0x140C JUMPI PUSH1 0x40 MLOAD PUSH3 0x461BCD PUSH1 0xE5 SHL DUP2 MSTORE PUSH1 0x4 ADD DUP1 DUP1 PUSH1 0x20 ADD DUP3 DUP2 SUB DUP3 MSTORE PUSH1 0x28 DUP2 MSTORE PUSH1 0x20 ADD DUP1 PUSH2 0x4DB0 PUSH1 0x28 SWAP2 CODECOPY PUSH1 0x40 ADD SWAP2 POP POP PUSH1 0x40 MLOAD DUP1 SWAP2 SUB SWAP1 REVERT JUMPDEST PUSH1 0xCB DUP1 SLOAD PUSH1 0x1 PUSH1 0x1 PUSH1 0xA0 SHL SUB NOT AND PUSH1 0x1 PUSH1 0x1 PUSH1 0xA0 SHL SUB DUP5 AND SWAP1 DUP2 OR SWAP1 SWAP2 SSTORE PUSH1 0x40 MLOAD PUSH32 0x44FE57485076F35A8EB17E92799DCC65F24A9EAB90FFAE0AF662812F19803BE5 SWAP1 PUSH1 0x0 SWAP1 LOG2 POP POP JUMP JUMPDEST PUSH1 0x0 PUSH2 0x1278 PUSH2 0x3E8 PUSH2 0x1247 PUSH1 0xCE SLOAD DUP6 PUSH2 0x32A9 SWAP1 SWAP2 SWAP1 PUSH4 0xFFFFFFFF AND JUMP JUMPDEST PUSH1 0x0 PUSH2 0x147F DUP3 PUSH2 0xB06 JUMP JUMPDEST ISZERO PUSH2 0x148C JUMPI POP PUSH1 0x0 PUSH2 0x1278 JUMP JUMPDEST PUSH1 0x0 DUP3 PUSH1 0x1 PUSH1 0x1 PUSH1 0xA0 SHL SUB AND PUSH4 0x313CE567 PUSH1 0x40 MLOAD DUP2 PUSH4 0xFFFFFFFF AND PUSH1 0xE0 SHL DUP2 MSTORE PUSH1 0x4 ADD PUSH1 0x20 PUSH1 0x40 MLOAD DUP1 DUP4 SUB DUP2 DUP7 DUP1 EXTCODESIZE ISZERO DUP1 ISZERO PUSH2 0x14C7 JUMPI PUSH1 0x0 DUP1 REVERT JUMPDEST POP GAS STATICCALL ISZERO DUP1 ISZERO PUSH2 0x14DB JUMPI RETURNDATASIZE PUSH1 0x0 DUP1 RETURNDATACOPY RETURNDATASIZE PUSH1 0x0 REVERT JUMPDEST POP POP POP POP PUSH1 0x40 MLOAD RETURNDATASIZE PUSH1 0x20 DUP2 LT ISZERO PUSH2 0x14F1 JUMPI PUSH1 0x0 DUP1 REVERT JUMPDEST POP MLOAD PUSH1 0xD1 SLOAD PUSH1 0x40 DUP1 MLOAD PUSH4 0x50A23945 PUSH1 0xE0 SHL DUP2 MSTORE PUSH1 0xFF SWAP1 SWAP4 AND PUSH1 0xA EXP PUSH1 0x4 DUP5 ADD DUP2 SWAP1 MSTORE PUSH1 0x1 PUSH1 0x1 PUSH1 0xA0 SHL SUB DUP8 DUP2 AND PUSH1 0x24 DUP7 ADD MSTORE SWAP2 MLOAD SWAP1 SWAP5 POP PUSH1 0x0 SWAP4 SWAP2 SWAP1 SWAP3 AND SWAP2 PUSH4 0x50A23945 SWAP2 PUSH1 0x44 DUP1 DUP3 ADD SWAP3 DUP7 SWAP3 SWAP1 SWAP2 SWAP1 DUP3 SWAP1 SUB ADD DUP2 DUP7 DUP1 EXTCODESIZE ISZERO DUP1 ISZERO PUSH2 0x1555 JUMPI PUSH1 0x0 DUP1 REVERT JUMPDEST POP GAS STATICCALL ISZERO DUP1 ISZERO PUSH2 0x1569 JUMPI RETURNDATASIZE PUSH1 0x0 DUP1 RETURNDATACOPY RETURNDATASIZE PUSH1 0x0 REVERT JUMPDEST POP POP POP POP PUSH1 0x40 MLOAD RETURNDATASIZE PUSH1 0x0 DUP3 RETURNDATACOPY PUSH1 0x1F RETURNDATASIZE SWAP1 DUP2 ADD PUSH1 0x1F NOT AND DUP3 ADD PUSH1 0x40 MSTORE PUSH1 0x20 DUP2 LT ISZERO PUSH2 0x1592 JUMPI PUSH1 0x0 DUP1 REVERT JUMPDEST DUP2 ADD SWAP1 DUP1 DUP1 MLOAD PUSH1 0x40 MLOAD SWAP4 SWAP3 SWAP2 SWAP1 DUP5 PUSH5 0x100000000 DUP3 GT ISZERO PUSH2 0x15B2 JUMPI PUSH1 0x0 DUP1 REVERT JUMPDEST SWAP1 DUP4 ADD SWAP1 PUSH1 0x20 DUP3 ADD DUP6 DUP2 GT ISZERO PUSH2 0x15C7 JUMPI PUSH1 0x0 DUP1 REVERT JUMPDEST DUP3 MLOAD DUP7 PUSH1 0x20 DUP3 MUL DUP4 ADD GT PUSH5 0x100000000 DUP3 GT OR ISZERO PUSH2 0x15E4 JUMPI PUSH1 0x0 DUP1 REVERT JUMPDEST DUP3 MSTORE POP DUP2 MLOAD PUSH1 0x20 SWAP2 DUP3 ADD SWAP3 DUP3 ADD SWAP2 MUL DUP1 DUP4 DUP4 PUSH1 0x0 JUMPDEST DUP4 DUP2 LT ISZERO PUSH2 0x1611 JUMPI DUP2 DUP2 ADD MLOAD DUP4 DUP3 ADD MSTORE PUSH1 0x20 ADD PUSH2 0x15F9 JUMP JUMPDEST POP POP POP POP SWAP1 POP ADD PUSH1 0x40 MSTORE POP POP POP PUSH1 0x0 DUP2 MLOAD DUP2 LT PUSH2 0x162A JUMPI INVALID JUMPDEST PUSH1 0x20 MUL PUSH1 0x20 ADD ADD MLOAD SWAP1 POP PUSH2 0x165F PUSH2 0x1652 PUSH2 0x3E8 PUSH2 0x1247 PUSH1 0xD0 SLOAD DUP6 PUSH2 0x32A9 SWAP1 SWAP2 SWAP1 PUSH4 0xFFFFFFFF AND JUMP JUMPDEST DUP3 SWAP1 PUSH4 0xFFFFFFFF PUSH2 0x3344 AND JUMP JUMPDEST SWAP1 POP PUSH1 0x0 PUSH2 0x1677 DUP4 PUSH2 0x1247 DUP9 DUP6 PUSH4 0xFFFFFFFF PUSH2 0x32A9 AND JUMP JUMPDEST SWAP1 POP PUSH2 0x1272 DUP2 PUSH2 0x1457 JUMP JUMPDEST PUSH2 0x168A PUSH2 0x1CCA JUMP JUMPDEST PUSH1 0x65 SLOAD PUSH1 0x1 PUSH1 0x1 PUSH1 0xA0 SHL SUB SWAP1 DUP2 AND SWAP2 AND EQ PUSH2 0x16DA JUMPI PUSH1 0x40 DUP1 MLOAD PUSH3 0x461BCD PUSH1 0xE5 SHL DUP2 MSTORE PUSH1 0x20 PUSH1 0x4 DUP3 ADD DUP2 SWAP1 MSTORE PUSH1 0x24 DUP3 ADD MSTORE PUSH1 0x0 DUP1 MLOAD PUSH1 0x20 PUSH2 0x4F1A DUP4 CODECOPY DUP2 MLOAD SWAP2 MSTORE PUSH1 0x44 DUP3 ADD MSTORE SWAP1 MLOAD SWAP1 DUP2 SWAP1 SUB PUSH1 0x64 ADD SWAP1 REVERT JUMPDEST DUP1 PUSH2 0x16ED DUP2 PUSH1 0x1 PUSH1 0x1 PUSH1 0xA0 SHL SUB AND PUSH2 0x1CCE JUMP JUMPDEST PUSH2 0x1728 JUMPI PUSH1 0x40 MLOAD PUSH3 0x461BCD PUSH1 0xE5 SHL DUP2 MSTORE PUSH1 0x4 ADD DUP1 DUP1 PUSH1 0x20 ADD DUP3 DUP2 SUB DUP3 MSTORE PUSH1 0x34 DUP2 MSTORE PUSH1 0x20 ADD DUP1 PUSH2 0x4E9A PUSH1 0x34 SWAP2 CODECOPY PUSH1 0x40 ADD SWAP2 POP POP PUSH1 0x40 MLOAD DUP1 SWAP2 SUB SWAP1 REVERT JUMPDEST POP PUSH1 0x1 PUSH1 0x1 PUSH1 0xA0 SHL SUB AND PUSH1 0x0 SWAP1 DUP2 MSTORE PUSH1 0xD2 PUSH1 0x20 MSTORE PUSH1 0x40 SWAP1 KECCAK256 DUP1 SLOAD PUSH1 0xFF NOT AND PUSH1 0x1 OR SWAP1 SSTORE JUMP JUMPDEST PUSH2 0x1755 PUSH2 0x1CCA JUMP JUMPDEST PUSH1 0x65 SLOAD PUSH1 0x1 PUSH1 0x1 PUSH1 0xA0 SHL SUB SWAP1 DUP2 AND SWAP2 AND EQ PUSH2 0x17A5 JUMPI PUSH1 0x40 DUP1 MLOAD PUSH3 0x461BCD PUSH1 0xE5 SHL DUP2 MSTORE PUSH1 0x20 PUSH1 0x4 DUP3 ADD DUP2 SWAP1 MSTORE PUSH1 0x24 DUP3 ADD MSTORE PUSH1 0x0 DUP1 MLOAD PUSH1 0x20 PUSH2 0x4F1A DUP4 CODECOPY DUP2 MLOAD SWAP2 MSTORE PUSH1 0x44 DUP3 ADD MSTORE SWAP1 MLOAD SWAP1 DUP2 SWAP1 SUB PUSH1 0x64 ADD SWAP1 REVERT JUMPDEST PUSH1 0x64 DUP2 PUSH1 0xFF AND GT ISZERO PUSH2 0x17E8 JUMPI PUSH1 0x40 MLOAD PUSH3 0x461BCD PUSH1 0xE5 SHL DUP2 MSTORE PUSH1 0x4 ADD DUP1 DUP1 PUSH1 0x20 ADD DUP3 DUP2 SUB DUP3 MSTORE PUSH1 0x46 DUP2 MSTORE PUSH1 0x20 ADD DUP1 PUSH2 0x506D PUSH1 0x46 SWAP2 CODECOPY PUSH1 0x60 ADD SWAP2 POP POP PUSH1 0x40 MLOAD DUP1 SWAP2 SUB SWAP1 REVERT JUMPDEST PUSH1 0xFF AND PUSH1 0xCF SSTORE JUMP JUMPDEST PUSH2 0x17F8 PUSH2 0x1CCA JUMP JUMPDEST PUSH1 0x65 SLOAD PUSH1 0x1 PUSH1 0x1 PUSH1 0xA0 SHL SUB SWAP1 DUP2 AND SWAP2 AND EQ PUSH2 0x1848 JUMPI PUSH1 0x40 DUP1 MLOAD PUSH3 0x461BCD PUSH1 0xE5 SHL DUP2 MSTORE PUSH1 0x20 PUSH1 0x4 DUP3 ADD DUP2 SWAP1 MSTORE PUSH1 0x24 DUP3 ADD MSTORE PUSH1 0x0 DUP1 MLOAD PUSH1 0x20 PUSH2 0x4F1A DUP4 CODECOPY DUP2 MLOAD SWAP2 MSTORE PUSH1 0x44 DUP3 ADD MSTORE SWAP1 MLOAD SWAP1 DUP2 SWAP1 SUB PUSH1 0x64 ADD SWAP1 REVERT JUMPDEST DUP1 PUSH2 0x185B DUP2 PUSH1 0x1 PUSH1 0x1 PUSH1 0xA0 SHL SUB AND PUSH2 0x1CCE JUMP JUMPDEST PUSH2 0x1896 JUMPI PUSH1 0x40 MLOAD PUSH3 0x461BCD PUSH1 0xE5 SHL DUP2 MSTORE PUSH1 0x4 ADD DUP1 DUP1 PUSH1 0x20 ADD DUP3 DUP2 SUB DUP3 MSTORE PUSH1 0x34 DUP2 MSTORE PUSH1 0x20 ADD DUP1 PUSH2 0x4E9A PUSH1 0x34 SWAP2 CODECOPY PUSH1 0x40 ADD SWAP2 POP POP PUSH1 0x40 MLOAD DUP1 SWAP2 SUB SWAP1 REVERT JUMPDEST POP PUSH1 0x1 PUSH1 0x1 PUSH1 0xA0 SHL SUB AND PUSH1 0x0 SWAP1 DUP2 MSTORE PUSH1 0xD2 PUSH1 0x20 MSTORE PUSH1 0x40 SWAP1 KECCAK256 DUP1 SLOAD PUSH1 0xFF NOT AND SWAP1 SSTORE JUMP JUMPDEST DUP4 PUSH2 0x18C1 PUSH2 0x4BB4 JUMP JUMPDEST PUSH1 0x0 DUP3 DUP2 MSTORE PUSH1 0xCA PUSH1 0x20 SWAP1 DUP2 MSTORE PUSH1 0x40 SWAP2 DUP3 SWAP1 KECCAK256 DUP3 MLOAD PUSH2 0x100 DUP2 ADD DUP5 MSTORE DUP2 SLOAD DUP2 MSTORE PUSH1 0x1 DUP3 ADD SLOAD SWAP3 DUP2 ADD SWAP3 SWAP1 SWAP3 MSTORE PUSH1 0x2 DUP1 DUP3 ADD SLOAD PUSH1 0x1 PUSH1 0x1 PUSH1 0xA0 SHL SUB SWAP1 DUP2 AND SWAP5 DUP5 ADD SWAP5 SWAP1 SWAP5 MSTORE PUSH1 0x3 DUP3 ADD SLOAD DUP5 AND PUSH1 0x60 DUP5 ADD MSTORE PUSH1 0x4 DUP3 ADD SLOAD DUP5 AND PUSH1 0x80 DUP5 ADD MSTORE PUSH1 0x5 DUP3 ADD SLOAD SWAP4 DUP5 AND PUSH1 0xA0 DUP5 ADD MSTORE SWAP2 SWAP3 SWAP1 SWAP2 PUSH1 0xC0 DUP5 ADD SWAP2 PUSH1 0x1 PUSH1 0xA0 SHL SWAP1 DIV PUSH1 0xFF AND SWAP1 DUP2 GT ISZERO PUSH2 0x1946 JUMPI INVALID JUMPDEST PUSH1 0x2 DUP2 GT ISZERO PUSH2 0x1951 JUMPI INVALID JUMPDEST DUP2 MSTORE PUSH1 0x20 ADD PUSH1 0x5 DUP3 ADD PUSH1 0x15 SWAP1 SLOAD SWAP1 PUSH2 0x100 EXP SWAP1 DIV PUSH1 0xFF AND PUSH1 0x2 DUP2 GT ISZERO PUSH2 0x1973 JUMPI INVALID JUMPDEST PUSH1 0x2 DUP2 GT ISZERO PUSH2 0x197E JUMPI INVALID JUMPDEST SWAP1 MSTORE POP SWAP1 POP PUSH1 0x0 DUP2 PUSH1 0xE0 ADD MLOAD PUSH1 0x2 DUP2 GT ISZERO PUSH2 0x1995 JUMPI INVALID JUMPDEST EQ PUSH2 0x199F JUMPI PUSH1 0x0 DUP1 REVERT JUMPDEST PUSH2 0x19A7 PUSH2 0x4BB4 JUMP JUMPDEST PUSH1 0x0 DUP8 DUP2 MSTORE PUSH1 0xCA PUSH1 0x20 SWAP1 DUP2 MSTORE PUSH1 0x40 SWAP2 DUP3 SWAP1 KECCAK256 DUP3 MLOAD PUSH2 0x100 DUP2 ADD DUP5 MSTORE DUP2 SLOAD DUP2 MSTORE PUSH1 0x1 DUP3 ADD SLOAD SWAP3 DUP2 ADD SWAP3 SWAP1 SWAP3 MSTORE PUSH1 0x2 DUP1 DUP3 ADD SLOAD PUSH1 0x1 PUSH1 0x1 PUSH1 0xA0 SHL SUB SWAP1 DUP2 AND SWAP5 DUP5 ADD SWAP5 SWAP1 SWAP5 MSTORE PUSH1 0x3 DUP3 ADD SLOAD DUP5 AND PUSH1 0x60 DUP5 ADD MSTORE PUSH1 0x4 DUP3 ADD SLOAD DUP5 AND PUSH1 0x80 DUP5 ADD MSTORE PUSH1 0x5 DUP3 ADD SLOAD SWAP4 DUP5 AND PUSH1 0xA0 DUP5 ADD MSTORE SWAP2 SWAP3 SWAP1 SWAP2 PUSH1 0xC0 DUP5 ADD SWAP2 PUSH1 0x1 PUSH1 0xA0 SHL SWAP1 DIV PUSH1 0xFF AND SWAP1 DUP2 GT ISZERO PUSH2 0x1A2C JUMPI INVALID JUMPDEST PUSH1 0x2 DUP2 GT ISZERO PUSH2 0x1A37 JUMPI INVALID JUMPDEST DUP2 MSTORE PUSH1 0x20 ADD PUSH1 0x5 DUP3 ADD PUSH1 0x15 SWAP1 SLOAD SWAP1 PUSH2 0x100 EXP SWAP1 DIV PUSH1 0xFF AND PUSH1 0x2 DUP2 GT ISZERO PUSH2 0x1A59 JUMPI INVALID JUMPDEST PUSH1 0x2 DUP2 GT ISZERO PUSH2 0x1A64 JUMPI INVALID JUMPDEST SWAP1 MSTORE POP SWAP1 POP PUSH2 0x1A71 PUSH2 0x1CCA JUMP JUMPDEST PUSH1 0x1 PUSH1 0x1 PUSH1 0xA0 SHL SUB AND DUP2 PUSH1 0x60 ADD MLOAD PUSH1 0x1 PUSH1 0x1 PUSH1 0xA0 SHL SUB AND EQ PUSH2 0x1AC4 JUMPI PUSH1 0x40 MLOAD PUSH3 0x461BCD PUSH1 0xE5 SHL DUP2 MSTORE PUSH1 0x4 ADD DUP1 DUP1 PUSH1 0x20 ADD DUP3 DUP2 SUB DUP3 MSTORE PUSH1 0x3D DUP2 MSTORE PUSH1 0x20 ADD DUP1 PUSH2 0x4FDD PUSH1 0x3D SWAP2 CODECOPY PUSH1 0x40 ADD SWAP2 POP POP PUSH1 0x40 MLOAD DUP1 SWAP2 SUB SWAP1 REVERT JUMPDEST DUP1 PUSH1 0xC0 ADD MLOAD PUSH1 0x2 DUP2 GT ISZERO PUSH2 0x1AD4 JUMPI INVALID JUMPDEST PUSH2 0x1AE9 JUMPI PUSH2 0x1AE4 DUP8 DUP8 DUP8 DUP8 PUSH2 0x3386 JUMP JUMPDEST PUSH2 0x1B18 JUMP JUMPDEST DUP1 PUSH1 0xC0 ADD MLOAD PUSH1 0x2 DUP2 GT ISZERO PUSH2 0x1AF9 JUMPI INVALID JUMPDEST PUSH1 0x1 EQ ISZERO PUSH2 0x1B0C JUMPI PUSH2 0x1AE4 DUP8 DUP8 DUP8 PUSH2 0x385D JUMP JUMPDEST PUSH2 0x1B18 DUP8 DUP8 DUP8 DUP8 PUSH2 0x3CED JUMP JUMPDEST POP POP POP POP POP POP POP JUMP JUMPDEST PUSH2 0x1B29 PUSH2 0x1CCA JUMP JUMPDEST PUSH1 0x65 SLOAD PUSH1 0x1 PUSH1 0x1 PUSH1 0xA0 SHL SUB SWAP1 DUP2 AND SWAP2 AND EQ PUSH2 0x1B79 JUMPI PUSH1 0x40 DUP1 MLOAD PUSH3 0x461BCD PUSH1 0xE5 SHL DUP2 MSTORE PUSH1 0x20 PUSH1 0x4 DUP3 ADD DUP2 SWAP1 MSTORE PUSH1 0x24 DUP3 ADD MSTORE PUSH1 0x0 DUP1 MLOAD PUSH1 0x20 PUSH2 0x4F1A DUP4 CODECOPY DUP2 MLOAD SWAP2 MSTORE PUSH1 0x44 DUP3 ADD MSTORE SWAP1 MLOAD SWAP1 DUP2 SWAP1 SUB PUSH1 0x64 ADD SWAP1 REVERT JUMPDEST PUSH1 0x1 PUSH1 0x1 PUSH1 0xA0 SHL SUB DUP2 AND PUSH2 0x1BBE JUMPI PUSH1 0x40 MLOAD PUSH3 0x461BCD PUSH1 0xE5 SHL DUP2 MSTORE PUSH1 0x4 ADD DUP1 DUP1 PUSH1 0x20 ADD DUP3 DUP2 SUB DUP3 MSTORE PUSH1 0x26 DUP2 MSTORE PUSH1 0x20 ADD DUP1 PUSH2 0x4C98 PUSH1 0x26 SWAP2 CODECOPY PUSH1 0x40 ADD SWAP2 POP POP PUSH1 0x40 MLOAD DUP1 SWAP2 SUB SWAP1 REVERT JUMPDEST PUSH1 0x65 SLOAD PUSH1 0x40 MLOAD PUSH1 0x1 PUSH1 0x1 PUSH1 0xA0 SHL SUB DUP1 DUP5 AND SWAP3 AND SWAP1 PUSH32 0x8BE0079C531659141344CD1FD0A4F28419497F9722A3DAAFE3B4186F6B6457E0 SWAP1 PUSH1 0x0 SWAP1 LOG3 PUSH1 0x65 DUP1 SLOAD PUSH1 0x1 PUSH1 0x1 PUSH1 0xA0 SHL SUB NOT AND PUSH1 0x1 PUSH1 0x1 PUSH1 0xA0 SHL SUB SWAP3 SWAP1 SWAP3 AND SWAP2 SWAP1 SWAP2 OR SWAP1 SSTORE JUMP JUMPDEST DUP4 PUSH2 0x1C2D DUP2 PUSH1 0x1 PUSH1 0x1 PUSH1 0xA0 SHL SUB AND PUSH2 0x1CCE JUMP JUMPDEST PUSH2 0x1C68 JUMPI PUSH1 0x40 MLOAD PUSH3 0x461BCD PUSH1 0xE5 SHL DUP2 MSTORE PUSH1 0x4 ADD DUP1 DUP1 PUSH1 0x20 ADD DUP3 DUP2 SUB DUP3 MSTORE PUSH1 0x34 DUP2 MSTORE PUSH1 0x20 ADD DUP1 PUSH2 0x4E9A PUSH1 0x34 SWAP2 CODECOPY PUSH1 0x40 ADD SWAP2 POP POP PUSH1 0x40 MLOAD DUP1 SWAP2 SUB SWAP1 REVERT JUMPDEST DUP2 PUSH2 0x1C7B DUP2 PUSH1 0x1 PUSH1 0x1 PUSH1 0xA0 SHL SUB AND PUSH2 0x1CCE JUMP JUMPDEST PUSH2 0x1CB6 JUMPI PUSH1 0x40 MLOAD PUSH3 0x461BCD PUSH1 0xE5 SHL DUP2 MSTORE PUSH1 0x4 ADD DUP1 DUP1 PUSH1 0x20 ADD DUP3 DUP2 SUB DUP3 MSTORE PUSH1 0x34 DUP2 MSTORE PUSH1 0x20 ADD DUP1 PUSH2 0x4E9A PUSH1 0x34 SWAP2 CODECOPY PUSH1 0x40 ADD SWAP2 POP POP PUSH1 0x40 MLOAD DUP1 SWAP2 SUB SWAP1 REVERT JUMPDEST PUSH2 0x1CC2 DUP7 DUP7 DUP7 DUP7 PUSH2 0x421F JUMP JUMPDEST POP POP POP POP POP POP JUMP JUMPDEST CALLER SWAP1 JUMP JUMPDEST PUSH1 0x0 DUP2 EXTCODEHASH PUSH32 0xC5D2460186F7233C927E7DB2DCC703C0E500B653CA82273B7BFAD8045D85A470 DUP2 DUP2 EQ DUP1 ISZERO SWAP1 PUSH2 0x1D02 JUMPI POP DUP2 ISZERO ISZERO JUMPDEST SWAP5 SWAP4 POP POP POP POP JUMP JUMPDEST PUSH1 0x97 SLOAD PUSH1 0xFF AND ISZERO PUSH2 0x1D55 JUMPI PUSH1 0x40 DUP1 MLOAD PUSH3 0x461BCD PUSH1 0xE5 SHL DUP2 MSTORE PUSH1 0x20 PUSH1 0x4 DUP3 ADD MSTORE PUSH1 0x10 PUSH1 0x24 DUP3 ADD MSTORE PUSH16 0x14185D5CD8589B194E881C185D5CD959 PUSH1 0x82 SHL PUSH1 0x44 DUP3 ADD MSTORE SWAP1 MLOAD SWAP1 DUP2 SWAP1 SUB PUSH1 0x64 ADD SWAP1 REVERT JUMPDEST DUP3 PUSH2 0x1D68 DUP2 PUSH1 0x1 PUSH1 0x1 PUSH1 0xA0 SHL SUB AND PUSH2 0x1CCE JUMP JUMPDEST PUSH2 0x1DA3 JUMPI PUSH1 0x40 MLOAD PUSH3 0x461BCD PUSH1 0xE5 SHL DUP2 MSTORE PUSH1 0x4 ADD DUP1 DUP1 PUSH1 0x20 ADD DUP3 DUP2 SUB DUP3 MSTORE PUSH1 0x34 DUP2 MSTORE PUSH1 0x20 ADD DUP1 PUSH2 0x4E9A PUSH1 0x34 SWAP2 CODECOPY PUSH1 0x40 ADD SWAP2 POP POP PUSH1 0x40 MLOAD DUP1 SWAP2 SUB SWAP1 REVERT JUMPDEST PUSH1 0x0 DUP8 GT PUSH2 0x1DE2 JUMPI PUSH1 0x40 MLOAD PUSH3 0x461BCD PUSH1 0xE5 SHL DUP2 MSTORE PUSH1 0x4 ADD DUP1 DUP1 PUSH1 0x20 ADD DUP3 DUP2 SUB DUP3 MSTORE PUSH1 0x33 DUP2 MSTORE PUSH1 0x20 ADD DUP1 PUSH2 0x50EC PUSH1 0x33 SWAP2 CODECOPY PUSH1 0x40 ADD SWAP2 POP POP PUSH1 0x40 MLOAD DUP1 SWAP2 SUB SWAP1 REVERT JUMPDEST PUSH1 0x0 DUP7 GT PUSH2 0x1E21 JUMPI PUSH1 0x40 MLOAD PUSH3 0x461BCD PUSH1 0xE5 SHL DUP2 MSTORE PUSH1 0x4 ADD DUP1 DUP1 PUSH1 0x20 ADD DUP3 DUP2 SUB DUP3 MSTORE PUSH1 0x36 DUP2 MSTORE PUSH1 0x20 ADD DUP1 PUSH2 0x4CF2 PUSH1 0x36 SWAP2 CODECOPY PUSH1 0x40 ADD SWAP2 POP POP PUSH1 0x40 MLOAD DUP1 SWAP2 SUB SWAP1 REVERT JUMPDEST PUSH1 0x0 DUP4 GT PUSH2 0x1E60 JUMPI PUSH1 0x40 MLOAD PUSH3 0x461BCD PUSH1 0xE5 SHL DUP2 MSTORE PUSH1 0x4 ADD DUP1 DUP1 PUSH1 0x20 ADD DUP3 DUP2 SUB DUP3 MSTORE PUSH1 0x2C DUP2 MSTORE PUSH1 0x20 ADD DUP1 PUSH2 0x5041 PUSH1 0x2C SWAP2 CODECOPY PUSH1 0x40 ADD SWAP2 POP POP PUSH1 0x40 MLOAD DUP1 SWAP2 SUB SWAP1 REVERT JUMPDEST DUP2 ISZERO PUSH2 0x1F3D JUMPI DUP7 CALLVALUE LT ISZERO PUSH2 0x1EA9 JUMPI PUSH1 0x40 DUP1 MLOAD PUSH3 0x461BCD PUSH1 0xE5 SHL DUP2 MSTORE PUSH1 0x20 PUSH1 0x4 DUP3 ADD DUP2 SWAP1 MSTORE PUSH1 0x24 DUP3 ADD MSTORE PUSH1 0x0 DUP1 MLOAD PUSH1 0x20 PUSH2 0x4C78 DUP4 CODECOPY DUP2 MLOAD SWAP2 MSTORE PUSH1 0x44 DUP3 ADD MSTORE SWAP1 MLOAD SWAP1 DUP2 SWAP1 SUB PUSH1 0x64 ADD SWAP1 REVERT JUMPDEST PUSH1 0x0 PUSH2 0x1EB4 DUP9 PUSH2 0xDC3 JUMP JUMPDEST SWAP1 POP PUSH1 0x0 DUP2 DUP6 LT ISZERO PUSH2 0x1F2D JUMPI PUSH2 0x1ED0 DUP3 DUP7 PUSH4 0xFFFFFFFF PUSH2 0x3344 AND JUMP JUMPDEST SWAP1 POP PUSH1 0x0 PUSH2 0x1EE9 DUP4 PUSH2 0x1247 DUP5 PUSH1 0x64 PUSH4 0xFFFFFFFF PUSH2 0x32A9 AND JUMP JUMPDEST SWAP1 POP PUSH1 0xCF SLOAD DUP2 LT PUSH2 0x1F2B JUMPI PUSH1 0x40 MLOAD PUSH3 0x461BCD PUSH1 0xE5 SHL DUP2 MSTORE PUSH1 0x4 ADD DUP1 DUP1 PUSH1 0x20 ADD DUP3 DUP2 SUB DUP3 MSTORE PUSH1 0x35 DUP2 MSTORE PUSH1 0x20 ADD DUP1 PUSH2 0x4E38 PUSH1 0x35 SWAP2 CODECOPY PUSH1 0x40 ADD SWAP2 POP POP PUSH1 0x40 MLOAD DUP1 SWAP2 SUB SWAP1 REVERT JUMPDEST POP JUMPDEST PUSH2 0x1F36 DUP3 PUSH2 0x42E9 JUMP JUMPDEST POP POP PUSH2 0x2070 JUMP JUMPDEST PUSH1 0x0 PUSH2 0x1F48 DUP9 PUSH2 0x1457 JUMP JUMPDEST SWAP1 POP DUP1 DUP5 LT ISZERO PUSH2 0x1F89 JUMPI PUSH1 0x40 MLOAD PUSH3 0x461BCD PUSH1 0xE5 SHL DUP2 MSTORE PUSH1 0x4 ADD DUP1 DUP1 PUSH1 0x20 ADD DUP3 DUP2 SUB DUP3 MSTORE PUSH1 0x34 DUP2 MSTORE PUSH1 0x20 ADD DUP1 PUSH2 0x4CBE PUSH1 0x34 SWAP2 CODECOPY PUSH1 0x40 ADD SWAP2 POP POP PUSH1 0x40 MLOAD DUP1 SWAP2 SUB SWAP1 REVERT JUMPDEST PUSH2 0x1F99 DUP9 DUP3 PUSH4 0xFFFFFFFF PUSH2 0x43F3 AND JUMP JUMPDEST CALLVALUE LT ISZERO PUSH2 0x1FDB JUMPI PUSH1 0x40 DUP1 MLOAD PUSH3 0x461BCD PUSH1 0xE5 SHL DUP2 MSTORE PUSH1 0x20 PUSH1 0x4 DUP3 ADD DUP2 SWAP1 MSTORE PUSH1 0x24 DUP3 ADD MSTORE PUSH1 0x0 DUP1 MLOAD PUSH1 0x20 PUSH2 0x4C78 DUP4 CODECOPY DUP2 MLOAD SWAP2 MSTORE PUSH1 0x44 DUP3 ADD MSTORE SWAP1 MLOAD SWAP1 DUP2 SWAP1 SUB PUSH1 0x64 ADD SWAP1 REVERT JUMPDEST PUSH1 0xCC SLOAD PUSH1 0x40 MLOAD PUSH1 0x0 SWAP2 PUSH1 0x1 PUSH1 0x1 PUSH1 0xA0 SHL SUB AND SWAP1 DUP4 SWAP1 DUP4 DUP2 DUP2 DUP2 DUP6 DUP8 GAS CALL SWAP3 POP POP POP RETURNDATASIZE DUP1 PUSH1 0x0 DUP2 EQ PUSH2 0x2028 JUMPI PUSH1 0x40 MLOAD SWAP2 POP PUSH1 0x1F NOT PUSH1 0x3F RETURNDATASIZE ADD AND DUP3 ADD PUSH1 0x40 MSTORE RETURNDATASIZE DUP3 MSTORE RETURNDATASIZE PUSH1 0x0 PUSH1 0x20 DUP5 ADD RETURNDATACOPY PUSH2 0x202D JUMP JUMPDEST PUSH1 0x60 SWAP2 POP JUMPDEST POP POP SWAP1 POP DUP1 PUSH2 0x206D JUMPI PUSH1 0x40 MLOAD PUSH3 0x461BCD PUSH1 0xE5 SHL DUP2 MSTORE PUSH1 0x4 ADD DUP1 DUP1 PUSH1 0x20 ADD DUP3 DUP2 SUB DUP3 MSTORE PUSH1 0x23 DUP2 MSTORE PUSH1 0x20 ADD DUP1 PUSH2 0x4D8D PUSH1 0x23 SWAP2 CODECOPY PUSH1 0x40 ADD SWAP2 POP POP PUSH1 0x40 MLOAD DUP1 SWAP2 SUB SWAP1 REVERT JUMPDEST POP POP JUMPDEST PUSH1 0xC9 SLOAD PUSH2 0x2084 SWAP1 PUSH1 0x1 PUSH4 0xFFFFFFFF PUSH2 0x43F3 AND JUMP JUMPDEST PUSH1 0xC9 DUP2 SWAP1 SSTORE PUSH1 0x40 DUP1 MLOAD PUSH2 0x100 DUP2 ADD DUP3 MSTORE DUP10 DUP2 MSTORE PUSH1 0x20 DUP1 DUP3 ADD DUP11 DUP2 MSTORE CALLER DUP4 DUP6 ADD SWAP1 DUP2 MSTORE PUSH1 0x1 PUSH1 0x1 PUSH1 0xA0 SHL SUB DUP12 DUP2 AND PUSH1 0x60 DUP7 ADD SWAP1 DUP2 MSTORE PUSH20 0xEEEEEEEEEEEEEEEEEEEEEEEEEEEEEEEEEEEEEEEE PUSH1 0x80 DUP8 ADD SWAP1 DUP2 MSTORE DUP13 DUP4 AND PUSH1 0xA0 DUP9 ADD SWAP1 DUP2 MSTORE PUSH1 0x0 PUSH1 0xC0 DUP10 ADD DUP2 DUP2 MSTORE PUSH1 0xE0 DUP11 ADD DUP3 SWAP1 MSTORE SWAP11 DUP2 MSTORE PUSH1 0xCA SWAP1 SWAP8 MSTORE SWAP8 SWAP1 SWAP6 KECCAK256 DUP7 MLOAD DUP2 SSTORE SWAP4 MLOAD PUSH1 0x1 DUP6 ADD SSTORE SWAP2 MLOAD PUSH1 0x2 DUP1 DUP6 ADD DUP1 SLOAD PUSH1 0x1 PUSH1 0x1 PUSH1 0xA0 SHL SUB NOT SWAP1 DUP2 AND SWAP4 DUP6 AND SWAP4 SWAP1 SWAP4 OR SWAP1 SSTORE SWAP3 MLOAD PUSH1 0x3 DUP6 ADD DUP1 SLOAD DUP4 AND SWAP2 DUP5 AND SWAP2 SWAP1 SWAP2 OR SWAP1 SSTORE SWAP4 MLOAD PUSH1 0x4 DUP5 ADD DUP1 SLOAD DUP7 AND SWAP2 DUP4 AND SWAP2 SWAP1 SWAP2 OR SWAP1 SSTORE SWAP5 MLOAD PUSH1 0x5 DUP4 ADD DUP1 SLOAD SWAP1 SWAP5 AND SWAP6 AND SWAP5 SWAP1 SWAP5 OR DUP1 DUP4 SSTORE SWAP5 MLOAD SWAP3 SWAP5 SWAP1 SWAP4 PUSH1 0xFF PUSH1 0xA0 SHL NOT SWAP1 SWAP2 AND SWAP1 PUSH1 0x1 PUSH1 0xA0 SHL SWAP1 DUP5 SWAP1 DUP2 GT ISZERO PUSH2 0x217E JUMPI INVALID JUMPDEST MUL OR SWAP1 SSTORE POP PUSH1 0xE0 DUP3 ADD MLOAD PUSH1 0x5 DUP3 ADD DUP1 SLOAD PUSH1 0xFF PUSH1 0xA8 SHL NOT AND PUSH1 0x1 PUSH1 0xA8 SHL DUP4 PUSH1 0x2 DUP2 GT ISZERO PUSH2 0x21A6 JUMPI INVALID JUMPDEST MUL OR SWAP1 SSTORE POP POP PUSH1 0xC9 SLOAD PUSH1 0x40 MLOAD PUSH1 0x1 PUSH1 0x1 PUSH1 0xA0 SHL SUB DUP9 AND SWAP3 POP CALLER SWAP2 SWAP1 PUSH32 0xFA75D1B5404B6ACB93BD5D4B44839BA9063BB0B7AF3AA9193C87098E54DFC979 SWAP1 PUSH1 0x0 SWAP1 LOG4 POP POP POP POP POP POP POP JUMP JUMPDEST PUSH1 0x97 SLOAD PUSH1 0xFF AND ISZERO PUSH2 0x223B JUMPI PUSH1 0x40 DUP1 MLOAD PUSH3 0x461BCD PUSH1 0xE5 SHL DUP2 MSTORE PUSH1 0x20 PUSH1 0x4 DUP3 ADD MSTORE PUSH1 0x10 PUSH1 0x24 DUP3 ADD MSTORE PUSH16 0x14185D5CD8589B194E881C185D5CD959 PUSH1 0x82 SHL PUSH1 0x44 DUP3 ADD MSTORE SWAP1 MLOAD SWAP1 DUP2 SWAP1 SUB PUSH1 0x64 ADD SWAP1 REVERT JUMPDEST DUP6 PUSH2 0x224E DUP2 PUSH1 0x1 PUSH1 0x1 PUSH1 0xA0 SHL SUB AND PUSH2 0x1CCE JUMP JUMPDEST PUSH2 0x2289 JUMPI PUSH1 0x40 MLOAD PUSH3 0x461BCD PUSH1 0xE5 SHL DUP2 MSTORE PUSH1 0x4 ADD DUP1 DUP1 PUSH1 0x20 ADD DUP3 DUP2 SUB DUP3 MSTORE PUSH1 0x34 DUP2 MSTORE PUSH1 0x20 ADD DUP1 PUSH2 0x4E9A PUSH1 0x34 SWAP2 CODECOPY PUSH1 0x40 ADD SWAP2 POP POP PUSH1 0x40 MLOAD DUP1 SWAP2 SUB SWAP1 REVERT JUMPDEST PUSH1 0x0 DUP6 GT PUSH2 0x22C8 JUMPI PUSH1 0x40 MLOAD PUSH3 0x461BCD PUSH1 0xE5 SHL DUP2 MSTORE PUSH1 0x4 ADD DUP1 DUP1 PUSH1 0x20 ADD DUP3 DUP2 SUB DUP3 MSTORE PUSH1 0x33 DUP2 MSTORE PUSH1 0x20 ADD DUP1 PUSH2 0x50EC PUSH1 0x33 SWAP2 CODECOPY PUSH1 0x40 ADD SWAP2 POP POP PUSH1 0x40 MLOAD DUP1 SWAP2 SUB SWAP1 REVERT JUMPDEST PUSH1 0x0 DUP9 GT PUSH2 0x2307 JUMPI PUSH1 0x40 MLOAD PUSH3 0x461BCD PUSH1 0xE5 SHL DUP2 MSTORE PUSH1 0x4 ADD DUP1 DUP1 PUSH1 0x20 ADD DUP3 DUP2 SUB DUP3 MSTORE PUSH1 0x36 DUP2 MSTORE PUSH1 0x20 ADD DUP1 PUSH2 0x4CF2 PUSH1 0x36 SWAP2 CODECOPY PUSH1 0x40 ADD SWAP2 POP POP PUSH1 0x40 MLOAD DUP1 SWAP2 SUB SWAP1 REVERT JUMPDEST PUSH2 0x2310 DUP8 PUSH2 0xB06 JUMP JUMPDEST PUSH2 0x24E5 JUMPI DUP3 ISZERO PUSH2 0x23B0 JUMPI PUSH1 0x0 PUSH2 0x2327 DUP10 DUP10 DUP6 PUSH2 0xAD1 JUMP JUMPDEST SWAP1 POP PUSH1 0x0 DUP2 DUP7 LT ISZERO PUSH2 0x23A0 JUMPI PUSH2 0x2343 DUP3 DUP8 PUSH4 0xFFFFFFFF PUSH2 0x3344 AND JUMP JUMPDEST SWAP1 POP PUSH1 0x0 PUSH2 0x235C DUP4 PUSH2 0x1247 DUP5 PUSH1 0x64 PUSH4 0xFFFFFFFF PUSH2 0x32A9 AND JUMP JUMPDEST SWAP1 POP PUSH1 0xCF SLOAD DUP2 LT PUSH2 0x239E JUMPI PUSH1 0x40 MLOAD PUSH3 0x461BCD PUSH1 0xE5 SHL DUP2 MSTORE PUSH1 0x4 ADD DUP1 DUP1 PUSH1 0x20 ADD DUP3 DUP2 SUB DUP3 MSTORE PUSH1 0x35 DUP2 MSTORE PUSH1 0x20 ADD DUP1 PUSH2 0x4E38 PUSH1 0x35 SWAP2 CODECOPY PUSH1 0x40 ADD SWAP2 POP POP PUSH1 0x40 MLOAD DUP1 SWAP2 SUB SWAP1 REVERT JUMPDEST POP JUMPDEST PUSH2 0x23A9 DUP3 PUSH2 0x42E9 JUMP JUMPDEST POP POP PUSH2 0x24E5 JUMP JUMPDEST PUSH1 0x0 DUP3 PUSH2 0x23C6 JUMPI PUSH2 0x23C1 DUP10 DUP10 PUSH2 0x1474 JUMP JUMPDEST PUSH2 0x23D0 JUMP JUMPDEST PUSH2 0x23D0 DUP10 DUP10 PUSH2 0x119F JUMP JUMPDEST SWAP1 POP DUP1 DUP6 LT ISZERO PUSH2 0x2411 JUMPI PUSH1 0x40 MLOAD PUSH3 0x461BCD PUSH1 0xE5 SHL DUP2 MSTORE PUSH1 0x4 ADD DUP1 DUP1 PUSH1 0x20 ADD DUP3 DUP2 SUB DUP3 MSTORE PUSH1 0x34 DUP2 MSTORE PUSH1 0x20 ADD DUP1 PUSH2 0x4CBE PUSH1 0x34 SWAP2 CODECOPY PUSH1 0x40 ADD SWAP2 POP POP PUSH1 0x40 MLOAD DUP1 SWAP2 SUB SWAP1 REVERT JUMPDEST DUP1 CALLVALUE LT ISZERO PUSH2 0x2450 JUMPI PUSH1 0x40 MLOAD PUSH3 0x461BCD PUSH1 0xE5 SHL DUP2 MSTORE PUSH1 0x4 ADD DUP1 DUP1 PUSH1 0x20 ADD DUP3 DUP2 SUB DUP3 MSTORE PUSH1 0x39 DUP2 MSTORE PUSH1 0x20 ADD DUP1 PUSH2 0x4FA4 PUSH1 0x39 SWAP2 CODECOPY PUSH1 0x40 ADD SWAP2 POP POP PUSH1 0x40 MLOAD DUP1 SWAP2 SUB SWAP1 REVERT JUMPDEST PUSH1 0xCC SLOAD PUSH1 0x40 MLOAD PUSH1 0x0 SWAP2 PUSH1 0x1 PUSH1 0x1 PUSH1 0xA0 SHL SUB AND SWAP1 DUP4 SWAP1 DUP4 DUP2 DUP2 DUP2 DUP6 DUP8 GAS CALL SWAP3 POP POP POP RETURNDATASIZE DUP1 PUSH1 0x0 DUP2 EQ PUSH2 0x249D JUMPI PUSH1 0x40 MLOAD SWAP2 POP PUSH1 0x1F NOT PUSH1 0x3F RETURNDATASIZE ADD AND DUP3 ADD PUSH1 0x40 MSTORE RETURNDATASIZE DUP3 MSTORE RETURNDATASIZE PUSH1 0x0 PUSH1 0x20 DUP5 ADD RETURNDATACOPY PUSH2 0x24A2 JUMP JUMPDEST PUSH1 0x60 SWAP2 POP JUMPDEST POP POP SWAP1 POP DUP1 PUSH2 0x24E2 JUMPI PUSH1 0x40 MLOAD PUSH3 0x461BCD PUSH1 0xE5 SHL DUP2 MSTORE PUSH1 0x4 ADD DUP1 DUP1 PUSH1 0x20 ADD DUP3 DUP2 SUB DUP3 MSTORE PUSH1 0x23 DUP2 MSTORE PUSH1 0x20 ADD DUP1 PUSH2 0x4D8D PUSH1 0x23 SWAP2 CODECOPY PUSH1 0x40 ADD SWAP2 POP POP PUSH1 0x40 MLOAD DUP1 SWAP2 SUB SWAP1 REVERT JUMPDEST POP POP JUMPDEST PUSH1 0x40 DUP1 MLOAD PUSH4 0x6EB1769F PUSH1 0xE1 SHL DUP2 MSTORE CALLER PUSH1 0x4 DUP3 ADD MSTORE ADDRESS PUSH1 0x24 DUP3 ADD MSTORE SWAP1 MLOAD DUP9 SWAP2 PUSH1 0x1 PUSH1 0x1 PUSH1 0xA0 SHL SUB DUP4 AND SWAP2 PUSH4 0xDD62ED3E SWAP2 PUSH1 0x44 DUP1 DUP3 ADD SWAP3 PUSH1 0x20 SWAP3 SWAP1 SWAP2 SWAP1 DUP3 SWAP1 SUB ADD DUP2 DUP7 DUP1 EXTCODESIZE ISZERO DUP1 ISZERO PUSH2 0x2534 JUMPI PUSH1 0x0 DUP1 REVERT JUMPDEST POP GAS STATICCALL ISZERO DUP1 ISZERO PUSH2 0x2548 JUMPI RETURNDATASIZE PUSH1 0x0 DUP1 RETURNDATACOPY RETURNDATASIZE PUSH1 0x0 REVERT JUMPDEST POP POP POP POP PUSH1 0x40 MLOAD RETURNDATASIZE PUSH1 0x20 DUP2 LT ISZERO PUSH2 0x255E JUMPI PUSH1 0x0 DUP1 REVERT JUMPDEST POP MLOAD DUP10 GT ISZERO PUSH2 0x256C JUMPI PUSH1 0x0 DUP1 REVERT JUMPDEST PUSH1 0x40 DUP1 MLOAD PUSH4 0x23B872DD PUSH1 0xE0 SHL DUP2 MSTORE CALLER PUSH1 0x4 DUP3 ADD MSTORE ADDRESS PUSH1 0x24 DUP3 ADD MSTORE PUSH1 0x44 DUP2 ADD DUP12 SWAP1 MSTORE SWAP1 MLOAD PUSH1 0x1 PUSH1 0x1 PUSH1 0xA0 SHL SUB DUP4 AND SWAP2 PUSH4 0x23B872DD SWAP2 PUSH1 0x64 DUP1 DUP4 ADD SWAP3 PUSH1 0x20 SWAP3 SWAP2 SWAP1 DUP3 SWAP1 SUB ADD DUP2 PUSH1 0x0 DUP8 DUP1 EXTCODESIZE ISZERO DUP1 ISZERO PUSH2 0x25C1 JUMPI PUSH1 0x0 DUP1 REVERT JUMPDEST POP GAS CALL ISZERO DUP1 ISZERO PUSH2 0x25D5 JUMPI RETURNDATASIZE PUSH1 0x0 DUP1 RETURNDATACOPY RETURNDATASIZE PUSH1 0x0 REVERT JUMPDEST POP POP POP POP PUSH1 0x40 MLOAD RETURNDATASIZE PUSH1 0x20 DUP2 LT ISZERO PUSH2 0x25EB JUMPI PUSH1 0x0 DUP1 REVERT JUMPDEST POP MLOAD PUSH2 0x25F6 JUMPI PUSH1 0x0 DUP1 REVERT JUMPDEST PUSH1 0xC9 SLOAD PUSH2 0x260A SWAP1 PUSH1 0x1 PUSH4 0xFFFFFFFF PUSH2 0x43F3 AND JUMP JUMPDEST PUSH1 0xC9 SSTORE PUSH1 0x40 DUP1 MLOAD PUSH2 0x100 DUP2 ADD DUP3 MSTORE DUP11 DUP2 MSTORE PUSH1 0x20 DUP2 ADD DUP9 SWAP1 MSTORE CALLER SWAP2 DUP2 ADD SWAP2 SWAP1 SWAP2 MSTORE PUSH1 0x1 PUSH1 0x1 PUSH1 0xA0 SHL SUB DUP9 DUP2 AND PUSH1 0x60 DUP4 ADD MSTORE DUP10 AND PUSH1 0x80 DUP3 ADD MSTORE PUSH20 0xEEEEEEEEEEEEEEEEEEEEEEEEEEEEEEEEEEEEEEEE PUSH1 0xA0 DUP3 ADD MSTORE PUSH1 0xC0 DUP2 ADD PUSH1 0x1 DUP2 MSTORE PUSH1 0x20 ADD PUSH1 0x0 SWAP1 MSTORE PUSH1 0xC9 SLOAD PUSH1 0x0 SWAP1 DUP2 MSTORE PUSH1 0xCA PUSH1 0x20 SWAP1 DUP2 MSTORE PUSH1 0x40 SWAP2 DUP3 SWAP1 KECCAK256 DUP4 MLOAD DUP2 SSTORE SWAP1 DUP4 ADD MLOAD PUSH1 0x1 DUP3 ADD SSTORE SWAP1 DUP3 ADD MLOAD PUSH1 0x2 DUP1 DUP4 ADD DUP1 SLOAD PUSH1 0x1 PUSH1 0x1 PUSH1 0xA0 SHL SUB SWAP4 DUP5 AND PUSH1 0x1 PUSH1 0x1 PUSH1 0xA0 SHL SUB NOT SWAP2 DUP3 AND OR SWAP1 SWAP2 SSTORE PUSH1 0x60 DUP6 ADD MLOAD PUSH1 0x3 DUP6 ADD DUP1 SLOAD SWAP2 DUP6 AND SWAP2 DUP4 AND SWAP2 SWAP1 SWAP2 OR SWAP1 SSTORE PUSH1 0x80 DUP6 ADD MLOAD PUSH1 0x4 DUP6 ADD DUP1 SLOAD SWAP2 DUP6 AND SWAP2 DUP4 AND SWAP2 SWAP1 SWAP2 OR SWAP1 SSTORE PUSH1 0xA0 DUP6 ADD MLOAD PUSH1 0x5 DUP6 ADD DUP1 SLOAD SWAP2 SWAP1 SWAP5 AND SWAP2 AND OR DUP1 DUP4 SSTORE PUSH1 0xC0 DUP6 ADD MLOAD SWAP3 SWAP2 PUSH1 0xFF PUSH1 0xA0 SHL NOT SWAP1 SWAP2 AND SWAP1 PUSH1 0x1 PUSH1 0xA0 SHL SWAP1 DUP5 SWAP1 DUP2 GT ISZERO PUSH2 0x2717 JUMPI INVALID JUMPDEST MUL OR SWAP1 SSTORE POP PUSH1 0xE0 DUP3 ADD MLOAD PUSH1 0x5 DUP3 ADD DUP1 SLOAD PUSH1 0xFF PUSH1 0xA8 SHL NOT AND PUSH1 0x1 PUSH1 0xA8 SHL DUP4 PUSH1 0x2 DUP2 GT ISZERO PUSH2 0x273F JUMPI INVALID JUMPDEST MUL OR SWAP1 SSTORE POP POP PUSH1 0xC9 SLOAD PUSH1 0x40 MLOAD PUSH1 0x1 PUSH1 0x1 PUSH1 0xA0 SHL SUB DUP11 AND SWAP3 POP CALLER SWAP2 SWAP1 PUSH32 0xFA75D1B5404B6ACB93BD5D4B44839BA9063BB0B7AF3AA9193C87098E54DFC979 SWAP1 PUSH1 0x0 SWAP1 LOG4 POP POP POP POP POP POP POP POP POP JUMP JUMPDEST PUSH1 0x97 SLOAD PUSH1 0xFF AND ISZERO PUSH2 0x27D6 JUMPI PUSH1 0x40 DUP1 MLOAD PUSH3 0x461BCD PUSH1 0xE5 SHL DUP2 MSTORE PUSH1 0x20 PUSH1 0x4 DUP3 ADD MSTORE PUSH1 0x10 PUSH1 0x24 DUP3 ADD MSTORE PUSH16 0x14185D5CD8589B194E881C185D5CD959 PUSH1 0x82 SHL PUSH1 0x44 DUP3 ADD MSTORE SWAP1 MLOAD SWAP1 DUP2 SWAP1 SUB PUSH1 0x64 ADD SWAP1 REVERT JUMPDEST PUSH1 0x0 DUP9 GT PUSH2 0x2815 JUMPI PUSH1 0x40 MLOAD PUSH3 0x461BCD PUSH1 0xE5 SHL DUP2 MSTORE PUSH1 0x4 ADD DUP1 DUP1 PUSH1 0x20 ADD DUP3 DUP2 SUB DUP3 MSTORE PUSH1 0x3B DUP2 MSTORE PUSH1 0x20 ADD DUP1 PUSH2 0x4D28 PUSH1 0x3B SWAP2 CODECOPY PUSH1 0x40 ADD SWAP2 POP POP PUSH1 0x40 MLOAD DUP1 SWAP2 SUB SWAP1 REVERT JUMPDEST PUSH1 0x0 DUP7 GT PUSH2 0x2854 JUMPI PUSH1 0x40 MLOAD PUSH3 0x461BCD PUSH1 0xE5 SHL DUP2 MSTORE PUSH1 0x4 ADD DUP1 DUP1 PUSH1 0x20 ADD DUP3 DUP2 SUB DUP3 MSTORE PUSH1 0x3C DUP2 MSTORE PUSH1 0x20 ADD DUP1 PUSH2 0x4F68 PUSH1 0x3C SWAP2 CODECOPY PUSH1 0x40 ADD SWAP2 POP POP PUSH1 0x40 MLOAD DUP1 SWAP2 SUB SWAP1 REVERT JUMPDEST PUSH2 0x285D DUP8 PUSH2 0xB06 JUMP JUMPDEST PUSH2 0x2A32 JUMPI DUP2 ISZERO PUSH2 0x28FD JUMPI PUSH1 0x0 PUSH2 0x2874 DUP10 DUP10 DUP5 PUSH2 0xAD1 JUMP JUMPDEST SWAP1 POP PUSH1 0x0 DUP2 DUP6 LT ISZERO PUSH2 0x28ED JUMPI PUSH2 0x2890 DUP3 DUP7 PUSH4 0xFFFFFFFF PUSH2 0x3344 AND JUMP JUMPDEST SWAP1 POP PUSH1 0x0 PUSH2 0x28A9 DUP4 PUSH2 0x1247 DUP5 PUSH1 0x64 PUSH4 0xFFFFFFFF PUSH2 0x32A9 AND JUMP JUMPDEST SWAP1 POP PUSH1 0xCF SLOAD DUP2 LT PUSH2 0x28EB JUMPI PUSH1 0x40 MLOAD PUSH3 0x461BCD PUSH1 0xE5 SHL DUP2 MSTORE PUSH1 0x4 ADD DUP1 DUP1 PUSH1 0x20 ADD DUP3 DUP2 SUB DUP3 MSTORE PUSH1 0x35 DUP2 MSTORE PUSH1 0x20 ADD DUP1 PUSH2 0x4E38 PUSH1 0x35 SWAP2 CODECOPY PUSH1 0x40 ADD SWAP2 POP POP PUSH1 0x40 MLOAD DUP1 SWAP2 SUB SWAP1 REVERT JUMPDEST POP JUMPDEST PUSH2 0x28F6 DUP3 PUSH2 0x42E9 JUMP JUMPDEST POP POP PUSH2 0x2A32 JUMP JUMPDEST PUSH1 0x0 DUP2 PUSH2 0x2913 JUMPI PUSH2 0x290E DUP10 DUP10 PUSH2 0x1474 JUMP JUMPDEST PUSH2 0x291D JUMP JUMPDEST PUSH2 0x291D DUP10 DUP10 PUSH2 0x119F JUMP JUMPDEST SWAP1 POP DUP1 DUP5 LT ISZERO PUSH2 0x295E JUMPI PUSH1 0x40 MLOAD PUSH3 0x461BCD PUSH1 0xE5 SHL DUP2 MSTORE PUSH1 0x4 ADD DUP1 DUP1 PUSH1 0x20 ADD DUP3 DUP2 SUB DUP3 MSTORE PUSH1 0x34 DUP2 MSTORE PUSH1 0x20 ADD DUP1 PUSH2 0x4CBE PUSH1 0x34 SWAP2 CODECOPY PUSH1 0x40 ADD SWAP2 POP POP PUSH1 0x40 MLOAD DUP1 SWAP2 SUB SWAP1 REVERT JUMPDEST DUP1 CALLVALUE LT ISZERO PUSH2 0x299D JUMPI PUSH1 0x40 MLOAD PUSH3 0x461BCD PUSH1 0xE5 SHL DUP2 MSTORE PUSH1 0x4 ADD DUP1 DUP1 PUSH1 0x20 ADD DUP3 DUP2 SUB DUP3 MSTORE PUSH1 0x39 DUP2 MSTORE PUSH1 0x20 ADD DUP1 PUSH2 0x4FA4 PUSH1 0x39 SWAP2 CODECOPY PUSH1 0x40 ADD SWAP2 POP POP PUSH1 0x40 MLOAD DUP1 SWAP2 SUB SWAP1 REVERT JUMPDEST PUSH1 0xCC SLOAD PUSH1 0x40 MLOAD PUSH1 0x0 SWAP2 PUSH1 0x1 PUSH1 0x1 PUSH1 0xA0 SHL SUB AND SWAP1 DUP4 SWAP1 DUP4 DUP2 DUP2 DUP2 DUP6 DUP8 GAS CALL SWAP3 POP POP POP RETURNDATASIZE DUP1 PUSH1 0x0 DUP2 EQ PUSH2 0x29EA JUMPI PUSH1 0x40 MLOAD SWAP2 POP PUSH1 0x1F NOT PUSH1 0x3F RETURNDATASIZE ADD AND DUP3 ADD PUSH1 0x40 MSTORE RETURNDATASIZE DUP3 MSTORE RETURNDATASIZE PUSH1 0x0 PUSH1 0x20 DUP5 ADD RETURNDATACOPY PUSH2 0x29EF JUMP JUMPDEST PUSH1 0x60 SWAP2 POP JUMPDEST POP POP SWAP1 POP DUP1 PUSH2 0x2A2F JUMPI PUSH1 0x40 MLOAD PUSH3 0x461BCD PUSH1 0xE5 SHL DUP2 MSTORE PUSH1 0x4 ADD DUP1 DUP1 PUSH1 0x20 ADD DUP3 DUP2 SUB DUP3 MSTORE PUSH1 0x23 DUP2 MSTORE PUSH1 0x20 ADD DUP1 PUSH2 0x4D8D PUSH1 0x23 SWAP2 CODECOPY PUSH1 0x40 ADD SWAP2 POP POP PUSH1 0x40 MLOAD DUP1 SWAP2 SUB SWAP1 REVERT JUMPDEST POP POP JUMPDEST PUSH1 0x40 DUP1 MLOAD PUSH4 0x6EB1769F PUSH1 0xE1 SHL DUP2 MSTORE CALLER PUSH1 0x4 DUP3 ADD MSTORE ADDRESS PUSH1 0x24 DUP3 ADD MSTORE SWAP1 MLOAD DUP9 SWAP2 PUSH1 0x1 PUSH1 0x1 PUSH1 0xA0 SHL SUB DUP4 AND SWAP2 PUSH4 0xDD62ED3E SWAP2 PUSH1 0x44 DUP1 DUP3 ADD SWAP3 PUSH1 0x20 SWAP3 SWAP1 SWAP2 SWAP1 DUP3 SWAP1 SUB ADD DUP2 DUP7 DUP1 EXTCODESIZE ISZERO DUP1 ISZERO PUSH2 0x2A81 JUMPI PUSH1 0x0 DUP1 REVERT JUMPDEST POP GAS STATICCALL ISZERO DUP1 ISZERO PUSH2 0x2A95 JUMPI RETURNDATASIZE PUSH1 0x0 DUP1 RETURNDATACOPY RETURNDATASIZE PUSH1 0x0 REVERT JUMPDEST POP POP POP POP PUSH1 0x40 MLOAD RETURNDATASIZE PUSH1 0x20 DUP2 LT ISZERO PUSH2 0x2AAB JUMPI PUSH1 0x0 DUP1 REVERT JUMPDEST POP MLOAD DUP10 GT ISZERO PUSH2 0x2AB9 JUMPI PUSH1 0x0 DUP1 REVERT JUMPDEST PUSH1 0x40 DUP1 MLOAD PUSH4 0x23B872DD PUSH1 0xE0 SHL DUP2 MSTORE CALLER PUSH1 0x4 DUP3 ADD MSTORE ADDRESS PUSH1 0x24 DUP3 ADD MSTORE PUSH1 0x44 DUP2 ADD DUP12 SWAP1 MSTORE SWAP1 MLOAD PUSH1 0x1 PUSH1 0x1 PUSH1 0xA0 SHL SUB DUP4 AND SWAP2 PUSH4 0x23B872DD SWAP2 PUSH1 0x64 DUP1 DUP4 ADD SWAP3 PUSH1 0x20 SWAP3 SWAP2 SWAP1 DUP3 SWAP1 SUB ADD DUP2 PUSH1 0x0 DUP8 DUP1 EXTCODESIZE ISZERO DUP1 ISZERO PUSH2 0x2B0E JUMPI PUSH1 0x0 DUP1 REVERT JUMPDEST POP GAS CALL ISZERO DUP1 ISZERO PUSH2 0x2B22 JUMPI RETURNDATASIZE PUSH1 0x0 DUP1 RETURNDATACOPY RETURNDATASIZE PUSH1 0x0 REVERT JUMPDEST POP POP POP POP PUSH1 0x40 MLOAD RETURNDATASIZE PUSH1 0x20 DUP2 LT ISZERO PUSH2 0x2B38 JUMPI PUSH1 0x0 DUP1 REVERT JUMPDEST POP MLOAD PUSH2 0x2B43 JUMPI PUSH1 0x0 DUP1 REVERT JUMPDEST PUSH1 0xC9 SLOAD PUSH2 0x2B57 SWAP1 PUSH1 0x1 PUSH4 0xFFFFFFFF PUSH2 0x43F3 AND JUMP JUMPDEST PUSH1 0xC9 DUP2 SWAP1 SSTORE PUSH1 0x40 DUP1 MLOAD PUSH2 0x100 DUP2 ADD DUP3 MSTORE DUP12 DUP2 MSTORE PUSH1 0x20 DUP1 DUP3 ADD DUP12 DUP2 MSTORE CALLER DUP4 DUP6 ADD SWAP1 DUP2 MSTORE PUSH1 0x1 PUSH1 0x1 PUSH1 0xA0 SHL SUB DUP13 DUP2 AND PUSH1 0x60 DUP7 ADD SWAP1 DUP2 MSTORE DUP16 DUP3 AND PUSH1 0x80 DUP8 ADD SWAP1 DUP2 MSTORE DUP14 DUP4 AND PUSH1 0xA0 DUP9 ADD SWAP1 DUP2 MSTORE PUSH1 0x2 PUSH1 0xC0 DUP10 ADD DUP2 DUP2 MSTORE PUSH1 0x0 PUSH1 0xE0 DUP12 ADD DUP2 SWAP1 MSTORE SWAP12 DUP13 MSTORE PUSH1 0xCA SWAP1 SWAP9 MSTORE SWAP9 SWAP1 SWAP10 KECCAK256 DUP8 MLOAD DUP2 SSTORE SWAP5 MLOAD PUSH1 0x1 DUP7 ADD SSTORE SWAP3 MLOAD DUP5 DUP9 ADD DUP1 SLOAD SWAP2 DUP5 AND PUSH1 0x1 PUSH1 0x1 PUSH1 0xA0 SHL SUB NOT SWAP3 DUP4 AND OR SWAP1 SSTORE SWAP1 MLOAD PUSH1 0x3 DUP6 ADD DUP1 SLOAD SWAP2 DUP5 AND SWAP2 DUP4 AND SWAP2 SWAP1 SWAP2 OR SWAP1 SSTORE SWAP2 MLOAD PUSH1 0x4 DUP5 ADD DUP1 SLOAD SWAP2 DUP4 AND SWAP2 DUP5 AND SWAP2 SWAP1 SWAP2 OR SWAP1 SSTORE SWAP6 MLOAD PUSH1 0x5 DUP4 ADD DUP1 SLOAD SWAP2 SWAP1 SWAP8 AND SWAP2 AND OR DUP1 DUP7 SSTORE SWAP2 MLOAD SWAP3 SWAP5 SWAP1 SWAP4 SWAP1 SWAP2 PUSH1 0xFF PUSH1 0xA0 SHL NOT AND SWAP1 PUSH1 0x1 PUSH1 0xA0 SHL SWAP1 DUP5 SWAP1 DUP2 GT ISZERO PUSH2 0x2C3C JUMPI INVALID JUMPDEST MUL OR SWAP1 SSTORE POP PUSH1 0xE0 DUP3 ADD MLOAD PUSH1 0x5 DUP3 ADD DUP1 SLOAD PUSH1 0xFF PUSH1 0xA8 SHL NOT AND PUSH1 0x1 PUSH1 0xA8 SHL DUP4 PUSH1 0x2 DUP2 GT ISZERO PUSH2 0x2C64 JUMPI INVALID JUMPDEST MUL OR SWAP1 SSTORE POP POP PUSH1 0xC9 SLOAD PUSH1 0x40 MLOAD PUSH1 0x1 PUSH1 0x1 PUSH1 0xA0 SHL SUB DUP10 AND SWAP3 POP CALLER SWAP2 SWAP1 PUSH32 0xFA75D1B5404B6ACB93BD5D4B44839BA9063BB0B7AF3AA9193C87098E54DFC979 SWAP1 PUSH1 0x0 SWAP1 LOG4 POP POP POP POP POP POP POP POP POP JUMP JUMPDEST PUSH1 0x0 DUP1 PUSH2 0x2CC4 DUP4 PUSH1 0x2 PUSH4 0xFFFFFFFF PUSH2 0x3302 AND JUMP JUMPDEST PUSH1 0xD1 SLOAD PUSH1 0xCB SLOAD PUSH1 0x40 DUP1 MLOAD PUSH4 0x7524C56F PUSH1 0xE1 SHL DUP2 MSTORE PUSH1 0x1 PUSH1 0x4 DUP3 ADD MSTORE PUSH1 0x1 PUSH1 0x1 PUSH1 0xA0 SHL SUB SWAP3 DUP4 AND PUSH1 0x24 DUP3 ADD MSTORE SWAP1 MLOAD SWAP4 SWAP5 POP PUSH1 0x0 SWAP4 SWAP2 SWAP1 SWAP3 AND SWAP2 PUSH4 0xEA498ADE SWAP2 PUSH1 0x44 DUP1 DUP4 ADD SWAP3 DUP7 SWAP3 SWAP2 SWAP1 DUP3 SWAP1 SUB ADD DUP2 DUP7 DUP1 EXTCODESIZE ISZERO DUP1 ISZERO PUSH2 0x2D20 JUMPI PUSH1 0x0 DUP1 REVERT JUMPDEST POP GAS STATICCALL ISZERO DUP1 ISZERO PUSH2 0x2D34 JUMPI RETURNDATASIZE PUSH1 0x0 DUP1 RETURNDATACOPY RETURNDATASIZE PUSH1 0x0 REVERT JUMPDEST POP POP POP POP PUSH1 0x40 MLOAD RETURNDATASIZE PUSH1 0x0 DUP3 RETURNDATACOPY PUSH1 0x1F RETURNDATASIZE SWAP1 DUP2 ADD PUSH1 0x1F NOT AND DUP3 ADD PUSH1 0x40 MSTORE PUSH1 0x20 DUP2 LT ISZERO PUSH2 0x2D5D JUMPI PUSH1 0x0 DUP1 REVERT JUMPDEST DUP2 ADD SWAP1 DUP1 DUP1 MLOAD PUSH1 0x40 MLOAD SWAP4 SWAP3 SWAP2 SWAP1 DUP5 PUSH5 0x100000000 DUP3 GT ISZERO PUSH2 0x2D7D JUMPI PUSH1 0x0 DUP1 REVERT JUMPDEST SWAP1 DUP4 ADD SWAP1 PUSH1 0x20 DUP3 ADD DUP6 DUP2 GT ISZERO PUSH2 0x2D92 JUMPI PUSH1 0x0 DUP1 REVERT JUMPDEST DUP3 MLOAD DUP7 PUSH1 0x20 DUP3 MUL DUP4 ADD GT PUSH5 0x100000000 DUP3 GT OR ISZERO PUSH2 0x2DAF JUMPI PUSH1 0x0 DUP1 REVERT JUMPDEST DUP3 MSTORE POP DUP2 MLOAD PUSH1 0x20 SWAP2 DUP3 ADD SWAP3 DUP3 ADD SWAP2 MUL DUP1 DUP4 DUP4 PUSH1 0x0 JUMPDEST DUP4 DUP2 LT ISZERO PUSH2 0x2DDC JUMPI DUP2 DUP2 ADD MLOAD DUP4 DUP3 ADD MSTORE PUSH1 0x20 ADD PUSH2 0x2DC4 JUMP JUMPDEST POP POP POP POP SWAP1 POP ADD PUSH1 0x40 MSTORE POP POP POP PUSH1 0x0 DUP2 MLOAD DUP2 LT PUSH2 0x2DF5 JUMPI INVALID JUMPDEST PUSH1 0x20 MUL PUSH1 0x20 ADD ADD MLOAD SWAP1 POP PUSH1 0x0 PUSH2 0x2E2C PUSH2 0x2E1F PUSH2 0x3E8 PUSH2 0x1247 PUSH1 0xD0 SLOAD DUP7 PUSH2 0x32A9 SWAP1 SWAP2 SWAP1 PUSH4 0xFFFFFFFF AND JUMP JUMPDEST DUP4 SWAP1 PUSH4 0xFFFFFFFF PUSH2 0x3344 AND JUMP JUMPDEST SWAP1 POP PUSH2 0xAFD DUP4 DUP3 PUSH4 0xFFFFFFFF PUSH2 0x32A9 AND JUMP JUMPDEST PUSH1 0x97 SLOAD PUSH1 0xFF AND PUSH2 0x2E8C JUMPI PUSH1 0x40 DUP1 MLOAD PUSH3 0x461BCD PUSH1 0xE5 SHL DUP2 MSTORE PUSH1 0x20 PUSH1 0x4 DUP3 ADD MSTORE PUSH1 0x14 PUSH1 0x24 DUP3 ADD MSTORE PUSH20 0x14185D5CD8589B194E881B9BDD081C185D5CD959 PUSH1 0x62 SHL PUSH1 0x44 DUP3 ADD MSTORE SWAP1 MLOAD SWAP1 DUP2 SWAP1 SUB PUSH1 0x64 ADD SWAP1 REVERT JUMPDEST PUSH1 0x97 DUP1 SLOAD PUSH1 0xFF NOT AND SWAP1 SSTORE PUSH32 0x5DB9EE0A495BF2E6FF9C91A7834C1BA4FDD244A5E8AA4E537BD38AEAE4B073AA PUSH2 0x2EBF PUSH2 0x1CCA JUMP JUMPDEST PUSH1 0x40 DUP1 MLOAD PUSH1 0x1 PUSH1 0x1 PUSH1 0xA0 SHL SUB SWAP1 SWAP3 AND DUP3 MSTORE MLOAD SWAP1 DUP2 SWAP1 SUB PUSH1 0x20 ADD SWAP1 LOG1 JUMP JUMPDEST DUP1 PUSH2 0x2EE5 PUSH2 0x4BB4 JUMP JUMPDEST PUSH1 0x0 DUP3 DUP2 MSTORE PUSH1 0xCA PUSH1 0x20 SWAP1 DUP2 MSTORE PUSH1 0x40 SWAP2 DUP3 SWAP1 KECCAK256 DUP3 MLOAD PUSH2 0x100 DUP2 ADD DUP5 MSTORE DUP2 SLOAD DUP2 MSTORE PUSH1 0x1 DUP3 ADD SLOAD SWAP3 DUP2 ADD SWAP3 SWAP1 SWAP3 MSTORE PUSH1 0x2 DUP1 DUP3 ADD SLOAD PUSH1 0x1 PUSH1 0x1 PUSH1 0xA0 SHL SUB SWAP1 DUP2 AND SWAP5 DUP5 ADD SWAP5 SWAP1 SWAP5 MSTORE PUSH1 0x3 DUP3 ADD SLOAD DUP5 AND PUSH1 0x60 DUP5 ADD MSTORE PUSH1 0x4 DUP3 ADD SLOAD DUP5 AND PUSH1 0x80 DUP5 ADD MSTORE PUSH1 0x5 DUP3 ADD SLOAD SWAP4 DUP5 AND PUSH1 0xA0 DUP5 ADD MSTORE SWAP2 SWAP3 SWAP1 SWAP2 PUSH1 0xC0 DUP5 ADD SWAP2 PUSH1 0x1 PUSH1 0xA0 SHL SWAP1 DIV PUSH1 0xFF AND SWAP1 DUP2 GT ISZERO PUSH2 0x2F6A JUMPI INVALID JUMPDEST PUSH1 0x2 DUP2 GT ISZERO PUSH2 0x2F75 JUMPI INVALID JUMPDEST DUP2 MSTORE PUSH1 0x20 ADD PUSH1 0x5 DUP3 ADD PUSH1 0x15 SWAP1 SLOAD SWAP1 PUSH2 0x100 EXP SWAP1 DIV PUSH1 0xFF AND PUSH1 0x2 DUP2 GT ISZERO PUSH2 0x2F97 JUMPI INVALID JUMPDEST PUSH1 0x2 DUP2 GT ISZERO PUSH2 0x2FA2 JUMPI INVALID JUMPDEST SWAP1 MSTORE POP SWAP1 POP PUSH1 0x0 DUP2 PUSH1 0xE0 ADD MLOAD PUSH1 0x2 DUP2 GT ISZERO PUSH2 0x2FB9 JUMPI INVALID JUMPDEST EQ PUSH2 0x2FC3 JUMPI PUSH1 0x0 DUP1 REVERT JUMPDEST PUSH1 0x0 DUP4 DUP2 MSTORE PUSH1 0xCA PUSH1 0x20 MSTORE PUSH1 0x40 DUP1 DUP3 KECCAK256 PUSH1 0x5 DUP2 ADD DUP1 SLOAD PUSH1 0xFF PUSH1 0xA8 SHL NOT AND PUSH1 0x1 PUSH1 0xA9 SHL OR SWAP1 SSTORE PUSH1 0x2 DUP2 ADD SLOAD DUP2 SLOAD SWAP3 MLOAD SWAP2 SWAP4 PUSH1 0x1 PUSH1 0x1 PUSH1 0xA0 SHL SUB SWAP1 SWAP2 AND SWAP3 DUP1 ISZERO PUSH2 0x8FC MUL SWAP3 SWAP1 SWAP2 DUP2 DUP2 DUP2 DUP6 DUP9 DUP9 CALL SWAP4 POP POP POP POP ISZERO DUP1 ISZERO PUSH2 0x3024 JUMPI RETURNDATASIZE PUSH1 0x0 DUP1 RETURNDATACOPY RETURNDATASIZE PUSH1 0x0 REVERT JUMPDEST POP PUSH1 0x40 MLOAD DUP5 SWAP1 PUSH32 0x8BF30E7FF26833413BE5F69E1D373744864D600B664204B4A2F9844A8EEDB9ED SWAP1 PUSH1 0x0 SWAP1 LOG2 POP POP POP POP JUMP JUMPDEST DUP1 PUSH2 0x305F PUSH2 0x4BB4 JUMP JUMPDEST PUSH1 0x0 DUP3 DUP2 MSTORE PUSH1 0xCA PUSH1 0x20 SWAP1 DUP2 MSTORE PUSH1 0x40 SWAP2 DUP3 SWAP1 KECCAK256 DUP3 MLOAD PUSH2 0x100 DUP2 ADD DUP5 MSTORE DUP2 SLOAD DUP2 MSTORE PUSH1 0x1 DUP3 ADD SLOAD SWAP3 DUP2 ADD SWAP3 SWAP1 SWAP3 MSTORE PUSH1 0x2 DUP1 DUP3 ADD SLOAD PUSH1 0x1 PUSH1 0x1 PUSH1 0xA0 SHL SUB SWAP1 DUP2 AND SWAP5 DUP5 ADD SWAP5 SWAP1 SWAP5 MSTORE PUSH1 0x3 DUP3 ADD SLOAD DUP5 AND PUSH1 0x60 DUP5 ADD MSTORE PUSH1 0x4 DUP3 ADD SLOAD DUP5 AND PUSH1 0x80 DUP5 ADD MSTORE PUSH1 0x5 DUP3 ADD SLOAD SWAP4 DUP5 AND PUSH1 0xA0 DUP5 ADD MSTORE SWAP2 SWAP3 SWAP1 SWAP2 PUSH1 0xC0 DUP5 ADD SWAP2 PUSH1 0x1 PUSH1 0xA0 SHL SWAP1 DIV PUSH1 0xFF AND SWAP1 DUP2 GT ISZERO PUSH2 0x30E4 JUMPI INVALID JUMPDEST PUSH1 0x2 DUP2 GT ISZERO PUSH2 0x30EF JUMPI INVALID JUMPDEST DUP2 MSTORE PUSH1 0x20 ADD PUSH1 0x5 DUP3 ADD PUSH1 0x15 SWAP1 SLOAD SWAP1 PUSH2 0x100 EXP SWAP1 DIV PUSH1 0xFF AND PUSH1 0x2 DUP2 GT ISZERO PUSH2 0x3111 JUMPI INVALID JUMPDEST PUSH1 0x2 DUP2 GT ISZERO PUSH2 0x311C JUMPI INVALID JUMPDEST SWAP1 MSTORE POP SWAP1 POP PUSH1 0x0 DUP2 PUSH1 0xE0 ADD MLOAD PUSH1 0x2 DUP2 GT ISZERO PUSH2 0x3133 JUMPI INVALID JUMPDEST EQ PUSH2 0x313D JUMPI PUSH1 0x0 DUP1 REVERT JUMPDEST PUSH1 0x0 DUP4 DUP2 MSTORE PUSH1 0xCA PUSH1 0x20 SWAP1 DUP2 MSTORE PUSH1 0x40 DUP1 DUP4 KECCAK256 PUSH1 0x5 DUP2 ADD DUP1 SLOAD PUSH1 0xFF PUSH1 0xA8 SHL NOT AND PUSH1 0x1 PUSH1 0xA9 SHL OR SWAP1 SSTORE PUSH1 0x4 DUP1 DUP3 ADD SLOAD PUSH1 0x2 DUP4 ADD SLOAD DUP4 SLOAD DUP6 MLOAD PUSH4 0xA9059CBB PUSH1 0xE0 SHL DUP2 MSTORE PUSH1 0x1 PUSH1 0x1 PUSH1 0xA0 SHL SUB SWAP3 DUP4 AND SWAP5 DUP2 ADD SWAP5 SWAP1 SWAP5 MSTORE PUSH1 0x24 DUP5 ADD MSTORE SWAP4 MLOAD SWAP3 SWAP6 SWAP4 AND SWAP4 DUP5 SWAP4 PUSH4 0xA9059CBB SWAP4 PUSH1 0x44 DUP1 DUP6 ADD SWAP5 SWAP2 SWAP3 SWAP2 DUP4 SWAP1 SUB ADD SWAP1 DUP3 SWAP1 DUP8 DUP1 EXTCODESIZE ISZERO DUP1 ISZERO PUSH2 0x31C1 JUMPI PUSH1 0x0 DUP1 REVERT JUMPDEST POP GAS CALL ISZERO DUP1 ISZERO PUSH2 0x31D5 JUMPI RETURNDATASIZE PUSH1 0x0 DUP1 RETURNDATACOPY RETURNDATASIZE PUSH1 0x0 REVERT JUMPDEST POP POP POP POP PUSH1 0x40 MLOAD RETURNDATASIZE PUSH1 0x20 DUP2 LT ISZERO PUSH2 0x31EB JUMPI PUSH1 0x0 DUP1 REVERT JUMPDEST POP MLOAD PUSH2 0x31F6 JUMPI PUSH1 0x0 DUP1 REVERT JUMPDEST PUSH1 0x40 MLOAD DUP6 SWAP1 PUSH32 0x8BF30E7FF26833413BE5F69E1D373744864D600B664204B4A2F9844A8EEDB9ED SWAP1 PUSH1 0x0 SWAP1 LOG2 POP POP POP POP POP JUMP JUMPDEST PUSH1 0x97 SLOAD PUSH1 0xFF AND ISZERO PUSH2 0x3273 JUMPI PUSH1 0x40 DUP1 MLOAD PUSH3 0x461BCD PUSH1 0xE5 SHL DUP2 MSTORE PUSH1 0x20 PUSH1 0x4 DUP3 ADD MSTORE PUSH1 0x10 PUSH1 0x24 DUP3 ADD MSTORE PUSH16 0x14185D5CD8589B194E881C185D5CD959 PUSH1 0x82 SHL PUSH1 0x44 DUP3 ADD MSTORE SWAP1 MLOAD SWAP1 DUP2 SWAP1 SUB PUSH1 0x64 ADD SWAP1 REVERT JUMPDEST PUSH1 0x97 DUP1 SLOAD PUSH1 0xFF NOT AND PUSH1 0x1 OR SWAP1 SSTORE PUSH32 0x62E78CEA01BEE320CD4E420270B5EA74000D11B0C9F74754EBDBFC544B05A258 PUSH2 0x2EBF PUSH2 0x1CCA JUMP JUMPDEST PUSH1 0x0 DUP3 PUSH2 0x32B8 JUMPI POP PUSH1 0x0 PUSH2 0x1278 JUMP JUMPDEST DUP3 DUP3 MUL DUP3 DUP5 DUP3 DUP2 PUSH2 0x32C5 JUMPI INVALID JUMPDEST DIV EQ PUSH2 0xDDA JUMPI PUSH1 0x40 MLOAD PUSH3 0x461BCD PUSH1 0xE5 SHL DUP2 MSTORE PUSH1 0x4 ADD DUP1 DUP1 PUSH1 0x20 ADD DUP3 DUP2 SUB DUP3 MSTORE PUSH1 0x21 DUP2 MSTORE PUSH1 0x20 ADD DUP1 PUSH2 0x4EF9 PUSH1 0x21 SWAP2 CODECOPY PUSH1 0x40 ADD SWAP2 POP POP PUSH1 0x40 MLOAD DUP1 SWAP2 SUB SWAP1 REVERT JUMPDEST PUSH1 0x0 PUSH2 0xDDA DUP4 DUP4 PUSH1 0x40 MLOAD DUP1 PUSH1 0x40 ADD PUSH1 0x40 MSTORE DUP1 PUSH1 0x1A DUP2 MSTORE PUSH1 0x20 ADD PUSH32 0x536166654D6174683A206469766973696F6E206279207A65726F000000000000 DUP2 MSTORE POP PUSH2 0x444D JUMP JUMPDEST PUSH1 0x0 PUSH2 0xDDA DUP4 DUP4 PUSH1 0x40 MLOAD DUP1 PUSH1 0x40 ADD PUSH1 0x40 MSTORE DUP1 PUSH1 0x1E DUP2 MSTORE PUSH1 0x20 ADD PUSH32 0x536166654D6174683A207375627472616374696F6E206F766572666C6F770000 DUP2 MSTORE POP PUSH2 0x44EF JUMP JUMPDEST DUP4 PUSH2 0x338F PUSH2 0x4BB4 JUMP JUMPDEST PUSH1 0x0 DUP3 DUP2 MSTORE PUSH1 0xCA PUSH1 0x20 SWAP1 DUP2 MSTORE PUSH1 0x40 SWAP2 DUP3 SWAP1 KECCAK256 DUP3 MLOAD PUSH2 0x100 DUP2 ADD DUP5 MSTORE DUP2 SLOAD DUP2 MSTORE PUSH1 0x1 DUP3 ADD SLOAD SWAP3 DUP2 ADD SWAP3 SWAP1 SWAP3 MSTORE PUSH1 0x2 DUP1 DUP3 ADD SLOAD PUSH1 0x1 PUSH1 0x1 PUSH1 0xA0 SHL SUB SWAP1 DUP2 AND SWAP5 DUP5 ADD SWAP5 SWAP1 SWAP5 MSTORE PUSH1 0x3 DUP3 ADD SLOAD DUP5 AND PUSH1 0x60 DUP5 ADD MSTORE PUSH1 0x4 DUP3 ADD SLOAD DUP5 AND PUSH1 0x80 DUP5 ADD MSTORE PUSH1 0x5 DUP3 ADD SLOAD SWAP4 DUP5 AND PUSH1 0xA0 DUP5 ADD MSTORE SWAP2 SWAP3 SWAP1 SWAP2 PUSH1 0xC0 DUP5 ADD SWAP2 PUSH1 0x1 PUSH1 0xA0 SHL SWAP1 DIV PUSH1 0xFF AND SWAP1 DUP2 GT ISZERO PUSH2 0x3414 JUMPI INVALID JUMPDEST PUSH1 0x2 DUP2 GT ISZERO PUSH2 0x341F JUMPI INVALID JUMPDEST DUP2 MSTORE PUSH1 0x20 ADD PUSH1 0x5 DUP3 ADD PUSH1 0x15 SWAP1 SLOAD SWAP1 PUSH2 0x100 EXP SWAP1 DIV PUSH1 0xFF AND PUSH1 0x2 DUP2 GT ISZERO PUSH2 0x3441 JUMPI INVALID JUMPDEST PUSH1 0x2 DUP2 GT ISZERO PUSH2 0x344C JUMPI INVALID JUMPDEST SWAP1 MSTORE POP SWAP1 POP PUSH1 0x0 DUP2 PUSH1 0xE0 ADD MLOAD PUSH1 0x2 DUP2 GT ISZERO PUSH2 0x3463 JUMPI INVALID JUMPDEST EQ PUSH2 0x346D JUMPI PUSH1 0x0 DUP1 REVERT JUMPDEST PUSH1 0x0 DUP7 DUP2 MSTORE PUSH1 0xCA PUSH1 0x20 MSTORE PUSH1 0x40 SWAP1 KECCAK256 PUSH1 0x5 DUP2 ADD SLOAD PUSH2 0x3492 SWAP1 PUSH1 0x1 PUSH1 0x1 PUSH1 0xA0 SHL SUB AND PUSH2 0xB06 JUMP JUMPDEST PUSH2 0x36A0 JUMPI DUP5 ISZERO PUSH2 0x3545 JUMPI PUSH1 0x1 DUP2 ADD SLOAD PUSH1 0x5 DUP3 ADD SLOAD PUSH1 0x0 SWAP2 PUSH2 0x34BC SWAP2 PUSH1 0x1 PUSH1 0x1 PUSH1 0xA0 SHL SUB AND DUP8 PUSH2 0xAD1 JUMP JUMPDEST SWAP1 POP PUSH1 0x0 DUP2 DUP9 LT ISZERO PUSH2 0x3535 JUMPI PUSH2 0x34D8 DUP3 DUP10 PUSH4 0xFFFFFFFF PUSH2 0x3344 AND JUMP JUMPDEST SWAP1 POP PUSH1 0x0 PUSH2 0x34F1 DUP4 PUSH2 0x1247 DUP5 PUSH1 0x64 PUSH4 0xFFFFFFFF PUSH2 0x32A9 AND JUMP JUMPDEST SWAP1 POP PUSH1 0xCF SLOAD DUP2 LT PUSH2 0x3533 JUMPI PUSH1 0x40 MLOAD PUSH3 0x461BCD PUSH1 0xE5 SHL DUP2 MSTORE PUSH1 0x4 ADD DUP1 DUP1 PUSH1 0x20 ADD DUP3 DUP2 SUB DUP3 MSTORE PUSH1 0x35 DUP2 MSTORE PUSH1 0x20 ADD DUP1 PUSH2 0x4E38 PUSH1 0x35 SWAP2 CODECOPY PUSH1 0x40 ADD SWAP2 POP POP PUSH1 0x40 MLOAD DUP1 SWAP2 SUB SWAP1 REVERT JUMPDEST POP JUMPDEST PUSH2 0x353E DUP3 PUSH2 0x42E9 JUMP JUMPDEST POP POP PUSH2 0x36A0 JUMP JUMPDEST PUSH1 0x0 DUP5 PUSH2 0x356E JUMPI PUSH1 0x1 DUP3 ADD SLOAD PUSH1 0x5 DUP4 ADD SLOAD PUSH2 0x3569 SWAP2 SWAP1 PUSH1 0x1 PUSH1 0x1 PUSH1 0xA0 SHL SUB AND PUSH2 0x1474 JUMP JUMPDEST PUSH2 0x358B JUMP JUMPDEST PUSH1 0x1 DUP3 ADD SLOAD PUSH1 0x5 DUP4 ADD SLOAD PUSH2 0x358B SWAP2 SWAP1 PUSH1 0x1 PUSH1 0x1 PUSH1 0xA0 SHL SUB AND PUSH2 0x119F JUMP JUMPDEST SWAP1 POP DUP1 DUP8 LT ISZERO PUSH2 0x35CC JUMPI PUSH1 0x40 MLOAD PUSH3 0x461BCD PUSH1 0xE5 SHL DUP2 MSTORE PUSH1 0x4 ADD DUP1 DUP1 PUSH1 0x20 ADD DUP3 DUP2 SUB DUP3 MSTORE PUSH1 0x34 DUP2 MSTORE PUSH1 0x20 ADD DUP1 PUSH2 0x4CBE PUSH1 0x34 SWAP2 CODECOPY PUSH1 0x40 ADD SWAP2 POP POP PUSH1 0x40 MLOAD DUP1 SWAP2 SUB SWAP1 REVERT JUMPDEST DUP1 CALLVALUE LT ISZERO PUSH2 0x360B JUMPI PUSH1 0x40 MLOAD PUSH3 0x461BCD PUSH1 0xE5 SHL DUP2 MSTORE PUSH1 0x4 ADD DUP1 DUP1 PUSH1 0x20 ADD DUP3 DUP2 SUB DUP3 MSTORE PUSH1 0x39 DUP2 MSTORE PUSH1 0x20 ADD DUP1 PUSH2 0x4FA4 PUSH1 0x39 SWAP2 CODECOPY PUSH1 0x40 ADD SWAP2 POP POP PUSH1 0x40 MLOAD DUP1 SWAP2 SUB SWAP1 REVERT JUMPDEST PUSH1 0xCC SLOAD PUSH1 0x40 MLOAD PUSH1 0x0 SWAP2 PUSH1 0x1 PUSH1 0x1 PUSH1 0xA0 SHL SUB AND SWAP1 DUP4 SWAP1 DUP4 DUP2 DUP2 DUP2 DUP6 DUP8 GAS CALL SWAP3 POP POP POP RETURNDATASIZE DUP1 PUSH1 0x0 DUP2 EQ PUSH2 0x3658 JUMPI PUSH1 0x40 MLOAD SWAP2 POP PUSH1 0x1F NOT PUSH1 0x3F RETURNDATASIZE ADD AND DUP3 ADD PUSH1 0x40 MSTORE RETURNDATASIZE DUP3 MSTORE RETURNDATASIZE PUSH1 0x0 PUSH1 0x20 DUP5 ADD RETURNDATACOPY PUSH2 0x365D JUMP JUMPDEST PUSH1 0x60 SWAP2 POP JUMPDEST POP POP SWAP1 POP DUP1 PUSH2 0x369D JUMPI PUSH1 0x40 MLOAD PUSH3 0x461BCD PUSH1 0xE5 SHL DUP2 MSTORE PUSH1 0x4 ADD DUP1 DUP1 PUSH1 0x20 ADD DUP3 DUP2 SUB DUP3 MSTORE PUSH1 0x23 DUP2 MSTORE PUSH1 0x20 ADD DUP1 PUSH2 0x4D8D PUSH1 0x23 SWAP2 CODECOPY PUSH1 0x40 ADD SWAP2 POP POP PUSH1 0x40 MLOAD DUP1 SWAP2 SUB SWAP1 REVERT JUMPDEST POP POP JUMPDEST PUSH1 0x5 DUP2 ADD DUP1 SLOAD PUSH1 0xFF PUSH1 0xA8 SHL NOT AND PUSH1 0x1 PUSH1 0xA8 SHL OR SWAP1 DUP2 SWAP1 SSTORE PUSH1 0x3 DUP3 ADD SLOAD PUSH1 0x40 DUP1 MLOAD PUSH4 0x6EB1769F PUSH1 0xE1 SHL DUP2 MSTORE PUSH1 0x1 PUSH1 0x1 PUSH1 0xA0 SHL SUB SWAP3 DUP4 AND PUSH1 0x4 DUP3 ADD MSTORE ADDRESS PUSH1 0x24 DUP3 ADD MSTORE SWAP1 MLOAD SWAP2 SWAP1 SWAP3 AND SWAP2 DUP3 SWAP2 PUSH4 0xDD62ED3E SWAP2 PUSH1 0x44 DUP1 DUP3 ADD SWAP3 PUSH1 0x20 SWAP3 SWAP1 SWAP2 SWAP1 DUP3 SWAP1 SUB ADD DUP2 DUP7 DUP1 EXTCODESIZE ISZERO DUP1 ISZERO PUSH2 0x370F JUMPI PUSH1 0x0 DUP1 REVERT JUMPDEST POP GAS STATICCALL ISZERO DUP1 ISZERO PUSH2 0x3723 JUMPI RETURNDATASIZE PUSH1 0x0 DUP1 RETURNDATACOPY RETURNDATASIZE PUSH1 0x0 REVERT JUMPDEST POP POP POP POP PUSH1 0x40 MLOAD RETURNDATASIZE PUSH1 0x20 DUP2 LT ISZERO PUSH2 0x3739 JUMPI PUSH1 0x0 DUP1 REVERT JUMPDEST POP MLOAD PUSH1 0x1 DUP4 ADD SLOAD GT ISZERO PUSH2 0x374B JUMPI PUSH1 0x0 DUP1 REVERT JUMPDEST PUSH1 0x3 DUP3 ADD SLOAD PUSH1 0x2 DUP4 ADD SLOAD PUSH1 0x1 DUP5 ADD SLOAD PUSH1 0x40 DUP1 MLOAD PUSH4 0x23B872DD PUSH1 0xE0 SHL DUP2 MSTORE PUSH1 0x1 PUSH1 0x1 PUSH1 0xA0 SHL SUB SWAP5 DUP6 AND PUSH1 0x4 DUP3 ADD MSTORE SWAP3 DUP5 AND PUSH1 0x24 DUP5 ADD MSTORE PUSH1 0x44 DUP4 ADD SWAP2 SWAP1 SWAP2 MSTORE MLOAD SWAP2 DUP4 AND SWAP2 PUSH4 0x23B872DD SWAP2 PUSH1 0x64 DUP1 DUP3 ADD SWAP3 PUSH1 0x20 SWAP3 SWAP1 SWAP2 SWAP1 DUP3 SWAP1 SUB ADD DUP2 PUSH1 0x0 DUP8 DUP1 EXTCODESIZE ISZERO DUP1 ISZERO PUSH2 0x37B5 JUMPI PUSH1 0x0 DUP1 REVERT JUMPDEST POP GAS CALL ISZERO DUP1 ISZERO PUSH2 0x37C9 JUMPI RETURNDATASIZE PUSH1 0x0 DUP1 RETURNDATACOPY RETURNDATASIZE PUSH1 0x0 REVERT JUMPDEST POP POP POP POP PUSH1 0x40 MLOAD RETURNDATASIZE PUSH1 0x20 DUP2 LT ISZERO PUSH2 0x37DF JUMPI PUSH1 0x0 DUP1 REVERT JUMPDEST POP MLOAD PUSH2 0x37EA JUMPI PUSH1 0x0 DUP1 REVERT JUMPDEST PUSH1 0x3 DUP3 ADD SLOAD DUP3 SLOAD PUSH1 0x40 MLOAD PUSH1 0x1 PUSH1 0x1 PUSH1 0xA0 SHL SUB SWAP1 SWAP3 AND SWAP2 DUP2 ISZERO PUSH2 0x8FC MUL SWAP2 SWAP1 PUSH1 0x0 DUP2 DUP2 DUP2 DUP6 DUP9 DUP9 CALL SWAP4 POP POP POP POP ISZERO DUP1 ISZERO PUSH2 0x3827 JUMPI RETURNDATASIZE PUSH1 0x0 DUP1 RETURNDATACOPY RETURNDATASIZE PUSH1 0x0 REVERT JUMPDEST POP PUSH1 0x40 MLOAD DUP9 SWAP1 PUSH32 0xBF67515A38EE520223D32C1266D52101C30D936ED1F3E436C8CAEB0A43CB06BF SWAP1 PUSH1 0x0 SWAP1 LOG2 POP POP POP POP POP POP POP POP JUMP JUMPDEST DUP3 PUSH2 0x3866 PUSH2 0x4BB4 JUMP JUMPDEST PUSH1 0x0 DUP3 DUP2 MSTORE PUSH1 0xCA PUSH1 0x20 SWAP1 DUP2 MSTORE PUSH1 0x40 SWAP2 DUP3 SWAP1 KECCAK256 DUP3 MLOAD PUSH2 0x100 DUP2 ADD DUP5 MSTORE DUP2 SLOAD DUP2 MSTORE PUSH1 0x1 DUP3 ADD SLOAD SWAP3 DUP2 ADD SWAP3 SWAP1 SWAP3 MSTORE PUSH1 0x2 DUP1 DUP3 ADD SLOAD PUSH1 0x1 PUSH1 0x1 PUSH1 0xA0 SHL SUB SWAP1 DUP2 AND SWAP5 DUP5 ADD SWAP5 SWAP1 SWAP5 MSTORE PUSH1 0x3 DUP3 ADD SLOAD DUP5 AND PUSH1 0x60 DUP5 ADD MSTORE PUSH1 0x4 DUP3 ADD SLOAD DUP5 AND PUSH1 0x80 DUP5 ADD MSTORE PUSH1 0x5 DUP3 ADD SLOAD SWAP4 DUP5 AND PUSH1 0xA0 DUP5 ADD MSTORE SWAP2 SWAP3 SWAP1 SWAP2 PUSH1 0xC0 DUP5 ADD SWAP2 PUSH1 0x1 PUSH1 0xA0 SHL SWAP1 DIV PUSH1 0xFF AND SWAP1 DUP2 GT ISZERO PUSH2 0x38EB JUMPI INVALID JUMPDEST PUSH1 0x2 DUP2 GT ISZERO PUSH2 0x38F6 JUMPI INVALID JUMPDEST DUP2 MSTORE PUSH1 0x20 ADD PUSH1 0x5 DUP3 ADD PUSH1 0x15 SWAP1 SLOAD SWAP1 PUSH2 0x100 EXP SWAP1 DIV PUSH1 0xFF AND PUSH1 0x2 DUP2 GT ISZERO PUSH2 0x3918 JUMPI INVALID JUMPDEST PUSH1 0x2 DUP2 GT ISZERO PUSH2 0x3923 JUMPI INVALID JUMPDEST SWAP1 MSTORE POP SWAP1 POP PUSH1 0x0 DUP2 PUSH1 0xE0 ADD MLOAD PUSH1 0x2 DUP2 GT ISZERO PUSH2 0x393A JUMPI INVALID JUMPDEST EQ PUSH2 0x3944 JUMPI PUSH1 0x0 DUP1 REVERT JUMPDEST PUSH1 0x0 DUP6 DUP2 MSTORE PUSH1 0xCA PUSH1 0x20 MSTORE PUSH1 0x40 SWAP1 KECCAK256 DUP4 ISZERO PUSH2 0x3A37 JUMPI DUP1 PUSH1 0x1 ADD SLOAD CALLVALUE LT ISZERO PUSH2 0x399F JUMPI PUSH1 0x40 DUP1 MLOAD PUSH3 0x461BCD PUSH1 0xE5 SHL DUP2 MSTORE PUSH1 0x20 PUSH1 0x4 DUP3 ADD DUP2 SWAP1 MSTORE PUSH1 0x24 DUP3 ADD MSTORE PUSH1 0x0 DUP1 MLOAD PUSH1 0x20 PUSH2 0x4C78 DUP4 CODECOPY DUP2 MLOAD SWAP2 MSTORE PUSH1 0x44 DUP3 ADD MSTORE SWAP1 MLOAD SWAP1 DUP2 SWAP1 SUB PUSH1 0x64 ADD SWAP1 REVERT JUMPDEST PUSH1 0x0 PUSH2 0x39AE DUP3 PUSH1 0x1 ADD SLOAD PUSH2 0xDC3 JUMP JUMPDEST SWAP1 POP PUSH1 0x0 DUP2 DUP8 LT ISZERO PUSH2 0x3A27 JUMPI PUSH2 0x39CA DUP3 DUP9 PUSH4 0xFFFFFFFF PUSH2 0x3344 AND JUMP JUMPDEST SWAP1 POP PUSH1 0x0 PUSH2 0x39E3 DUP4 PUSH2 0x1247 DUP5 PUSH1 0x64 PUSH4 0xFFFFFFFF PUSH2 0x32A9 AND JUMP JUMPDEST SWAP1 POP PUSH1 0xCF SLOAD DUP2 LT PUSH2 0x3A25 JUMPI PUSH1 0x40 MLOAD PUSH3 0x461BCD PUSH1 0xE5 SHL DUP2 MSTORE PUSH1 0x4 ADD DUP1 DUP1 PUSH1 0x20 ADD DUP3 DUP2 SUB DUP3 MSTORE PUSH1 0x35 DUP2 MSTORE PUSH1 0x20 ADD DUP1 PUSH2 0x4E38 PUSH1 0x35 SWAP2 CODECOPY PUSH1 0x40 ADD SWAP2 POP POP PUSH1 0x40 MLOAD DUP1 SWAP2 SUB SWAP1 REVERT JUMPDEST POP JUMPDEST PUSH2 0x3A30 DUP3 PUSH2 0x42E9 JUMP JUMPDEST POP POP PUSH2 0x3B73 JUMP JUMPDEST PUSH1 0x0 PUSH2 0x3A46 DUP3 PUSH1 0x1 ADD SLOAD PUSH2 0x1457 JUMP JUMPDEST SWAP1 POP DUP1 DUP7 LT ISZERO PUSH2 0x3A87 JUMPI PUSH1 0x40 MLOAD PUSH3 0x461BCD PUSH1 0xE5 SHL DUP2 MSTORE PUSH1 0x4 ADD DUP1 DUP1 PUSH1 0x20 ADD DUP3 DUP2 SUB DUP3 MSTORE PUSH1 0x34 DUP2 MSTORE PUSH1 0x20 ADD DUP1 PUSH2 0x4CBE PUSH1 0x34 SWAP2 CODECOPY PUSH1 0x40 ADD SWAP2 POP POP PUSH1 0x40 MLOAD DUP1 SWAP2 SUB SWAP1 REVERT JUMPDEST PUSH1 0x1 DUP3 ADD SLOAD PUSH2 0x3A9C SWAP1 DUP3 PUSH4 0xFFFFFFFF PUSH2 0x43F3 AND JUMP JUMPDEST CALLVALUE LT ISZERO PUSH2 0x3ADE JUMPI PUSH1 0x40 DUP1 MLOAD PUSH3 0x461BCD PUSH1 0xE5 SHL DUP2 MSTORE PUSH1 0x20 PUSH1 0x4 DUP3 ADD DUP2 SWAP1 MSTORE PUSH1 0x24 DUP3 ADD MSTORE PUSH1 0x0 DUP1 MLOAD PUSH1 0x20 PUSH2 0x4C78 DUP4 CODECOPY DUP2 MLOAD SWAP2 MSTORE PUSH1 0x44 DUP3 ADD MSTORE SWAP1 MLOAD SWAP1 DUP2 SWAP1 SUB PUSH1 0x64 ADD SWAP1 REVERT JUMPDEST PUSH1 0xCC SLOAD PUSH1 0x40 MLOAD PUSH1 0x0 SWAP2 PUSH1 0x1 PUSH1 0x1 PUSH1 0xA0 SHL SUB AND SWAP1 DUP4 SWAP1 DUP4 DUP2 DUP2 DUP2 DUP6 DUP8 GAS CALL SWAP3 POP POP POP RETURNDATASIZE DUP1 PUSH1 0x0 DUP2 EQ PUSH2 0x3B2B JUMPI PUSH1 0x40 MLOAD SWAP2 POP PUSH1 0x1F NOT PUSH1 0x3F RETURNDATASIZE ADD AND DUP3 ADD PUSH1 0x40 MSTORE RETURNDATASIZE DUP3 MSTORE RETURNDATASIZE PUSH1 0x0 PUSH1 0x20 DUP5 ADD RETURNDATACOPY PUSH2 0x3B30 JUMP JUMPDEST PUSH1 0x60 SWAP2 POP JUMPDEST POP POP SWAP1 POP DUP1 PUSH2 0x3B70 JUMPI PUSH1 0x40 MLOAD PUSH3 0x461BCD PUSH1 0xE5 SHL DUP2 MSTORE PUSH1 0x4 ADD DUP1 DUP1 PUSH1 0x20 ADD DUP3 DUP2 SUB DUP3 MSTORE PUSH1 0x23 DUP2 MSTORE PUSH1 0x20 ADD DUP1 PUSH2 0x4D8D PUSH1 0x23 SWAP2 CODECOPY PUSH1 0x40 ADD SWAP2 POP POP PUSH1 0x40 MLOAD DUP1 SWAP2 SUB SWAP1 REVERT JUMPDEST POP POP JUMPDEST PUSH1 0x5 DUP2 ADD DUP1 SLOAD PUSH1 0xFF PUSH1 0xA8 SHL NOT AND PUSH1 0x1 PUSH1 0xA8 SHL OR SWAP1 SSTORE PUSH1 0x4 DUP1 DUP3 ADD SLOAD PUSH1 0x3 DUP4 ADD SLOAD DUP4 SLOAD PUSH1 0x40 DUP1 MLOAD PUSH4 0xA9059CBB PUSH1 0xE0 SHL DUP2 MSTORE PUSH1 0x1 PUSH1 0x1 PUSH1 0xA0 SHL SUB SWAP4 DUP5 AND SWAP6 DUP2 ADD SWAP6 SWAP1 SWAP6 MSTORE PUSH1 0x24 DUP6 ADD SWAP2 SWAP1 SWAP2 MSTORE MLOAD SWAP2 AND SWAP2 DUP3 SWAP2 PUSH4 0xA9059CBB SWAP2 PUSH1 0x44 DUP1 DUP3 ADD SWAP3 PUSH1 0x20 SWAP3 SWAP1 SWAP2 SWAP1 DUP3 SWAP1 SUB ADD DUP2 PUSH1 0x0 DUP8 DUP1 EXTCODESIZE ISZERO DUP1 ISZERO PUSH2 0x3BEB JUMPI PUSH1 0x0 DUP1 REVERT JUMPDEST POP GAS CALL ISZERO DUP1 ISZERO PUSH2 0x3BFF JUMPI RETURNDATASIZE PUSH1 0x0 DUP1 RETURNDATACOPY RETURNDATASIZE PUSH1 0x0 REVERT JUMPDEST POP POP POP POP PUSH1 0x40 MLOAD RETURNDATASIZE PUSH1 0x20 DUP2 LT ISZERO PUSH2 0x3C15 JUMPI PUSH1 0x0 DUP1 REVERT JUMPDEST POP MLOAD PUSH2 0x3C20 JUMPI PUSH1 0x0 DUP1 REVERT JUMPDEST PUSH1 0x2 DUP3 ADD SLOAD PUSH1 0x1 DUP4 ADD SLOAD PUSH1 0x40 MLOAD PUSH1 0x0 SWAP3 PUSH1 0x1 PUSH1 0x1 PUSH1 0xA0 SHL SUB AND SWAP2 SWAP1 DUP4 DUP2 DUP2 DUP2 DUP6 DUP8 GAS CALL SWAP3 POP POP POP RETURNDATASIZE DUP1 PUSH1 0x0 DUP2 EQ PUSH2 0x3C73 JUMPI PUSH1 0x40 MLOAD SWAP2 POP PUSH1 0x1F NOT PUSH1 0x3F RETURNDATASIZE ADD AND DUP3 ADD PUSH1 0x40 MSTORE RETURNDATASIZE DUP3 MSTORE RETURNDATASIZE PUSH1 0x0 PUSH1 0x20 DUP5 ADD RETURNDATACOPY PUSH2 0x3C78 JUMP JUMPDEST PUSH1 0x60 SWAP2 POP JUMPDEST POP POP SWAP1 POP DUP1 PUSH2 0x3CB8 JUMPI PUSH1 0x40 MLOAD PUSH3 0x461BCD PUSH1 0xE5 SHL DUP2 MSTORE PUSH1 0x4 ADD DUP1 DUP1 PUSH1 0x20 ADD DUP3 DUP2 SUB DUP3 MSTORE PUSH1 0x23 DUP2 MSTORE PUSH1 0x20 ADD DUP1 PUSH2 0x4C55 PUSH1 0x23 SWAP2 CODECOPY PUSH1 0x40 ADD SWAP2 POP POP PUSH1 0x40 MLOAD DUP1 SWAP2 SUB SWAP1 REVERT JUMPDEST PUSH1 0x40 MLOAD DUP9 SWAP1 PUSH32 0xBF67515A38EE520223D32C1266D52101C30D936ED1F3E436C8CAEB0A43CB06BF SWAP1 PUSH1 0x0 SWAP1 LOG2 POP POP POP POP POP POP POP POP JUMP JUMPDEST DUP4 PUSH2 0x3CF6 PUSH2 0x4BB4 JUMP JUMPDEST PUSH1 0x0 DUP3 DUP2 MSTORE PUSH1 0xCA PUSH1 0x20 SWAP1 DUP2 MSTORE PUSH1 0x40 SWAP2 DUP3 SWAP1 KECCAK256 DUP3 MLOAD PUSH2 0x100 DUP2 ADD DUP5 MSTORE DUP2 SLOAD DUP2 MSTORE PUSH1 0x1 DUP3 ADD SLOAD SWAP3 DUP2 ADD SWAP3 SWAP1 SWAP3 MSTORE PUSH1 0x2 DUP1 DUP3 ADD SLOAD PUSH1 0x1 PUSH1 0x1 PUSH1 0xA0 SHL SUB SWAP1 DUP2 AND SWAP5 DUP5 ADD SWAP5 SWAP1 SWAP5 MSTORE PUSH1 0x3 DUP3 ADD SLOAD DUP5 AND PUSH1 0x60 DUP5 ADD MSTORE PUSH1 0x4 DUP3 ADD SLOAD DUP5 AND PUSH1 0x80 DUP5 ADD MSTORE PUSH1 0x5 DUP3 ADD SLOAD SWAP4 DUP5 AND PUSH1 0xA0 DUP5 ADD MSTORE SWAP2 SWAP3 SWAP1 SWAP2 PUSH1 0xC0 DUP5 ADD SWAP2 PUSH1 0x1 PUSH1 0xA0 SHL SWAP1 DIV PUSH1 0xFF AND SWAP1 DUP2 GT ISZERO PUSH2 0x3D7B JUMPI INVALID JUMPDEST PUSH1 0x2 DUP2 GT ISZERO PUSH2 0x3D86 JUMPI INVALID JUMPDEST DUP2 MSTORE PUSH1 0x20 ADD PUSH1 0x5 DUP3 ADD PUSH1 0x15 SWAP1 SLOAD SWAP1 PUSH2 0x100 EXP SWAP1 DIV PUSH1 0xFF AND PUSH1 0x2 DUP2 GT ISZERO PUSH2 0x3DA8 JUMPI INVALID JUMPDEST PUSH1 0x2 DUP2 GT ISZERO PUSH2 0x3DB3 JUMPI INVALID JUMPDEST SWAP1 MSTORE POP SWAP1 POP PUSH1 0x0 DUP2 PUSH1 0xE0 ADD MLOAD PUSH1 0x2 DUP2 GT ISZERO PUSH2 0x3DCA JUMPI INVALID JUMPDEST EQ PUSH2 0x3DD4 JUMPI PUSH1 0x0 DUP1 REVERT JUMPDEST PUSH1 0x0 DUP7 DUP2 MSTORE PUSH1 0xCA PUSH1 0x20 MSTORE PUSH1 0x40 SWAP1 KECCAK256 PUSH1 0x5 DUP2 ADD SLOAD PUSH2 0x3DF9 SWAP1 PUSH1 0x1 PUSH1 0x1 PUSH1 0xA0 SHL SUB AND PUSH2 0xB06 JUMP JUMPDEST PUSH2 0x4007 JUMPI DUP5 ISZERO PUSH2 0x3EAC JUMPI PUSH1 0x1 DUP2 ADD SLOAD PUSH1 0x5 DUP3 ADD SLOAD PUSH1 0x0 SWAP2 PUSH2 0x3E23 SWAP2 PUSH1 0x1 PUSH1 0x1 PUSH1 0xA0 SHL SUB AND DUP8 PUSH2 0xAD1 JUMP JUMPDEST SWAP1 POP PUSH1 0x0 DUP2 DUP9 LT ISZERO PUSH2 0x3E9C JUMPI PUSH2 0x3E3F DUP3 DUP10 PUSH4 0xFFFFFFFF PUSH2 0x3344 AND JUMP JUMPDEST SWAP1 POP PUSH1 0x0 PUSH2 0x3E58 DUP4 PUSH2 0x1247 DUP5 PUSH1 0x64 PUSH4 0xFFFFFFFF PUSH2 0x32A9 AND JUMP JUMPDEST SWAP1 POP PUSH1 0xCF SLOAD DUP2 LT PUSH2 0x3E9A JUMPI PUSH1 0x40 MLOAD PUSH3 0x461BCD PUSH1 0xE5 SHL DUP2 MSTORE PUSH1 0x4 ADD DUP1 DUP1 PUSH1 0x20 ADD DUP3 DUP2 SUB DUP3 MSTORE PUSH1 0x35 DUP2 MSTORE PUSH1 0x20 ADD DUP1 PUSH2 0x4E38 PUSH1 0x35 SWAP2 CODECOPY PUSH1 0x40 ADD SWAP2 POP POP PUSH1 0x40 MLOAD DUP1 SWAP2 SUB SWAP1 REVERT JUMPDEST POP JUMPDEST PUSH2 0x3EA5 DUP3 PUSH2 0x42E9 JUMP JUMPDEST POP POP PUSH2 0x4007 JUMP JUMPDEST PUSH1 0x0 DUP5 PUSH2 0x3ED5 JUMPI PUSH1 0x1 DUP3 ADD SLOAD PUSH1 0x5 DUP4 ADD SLOAD PUSH2 0x3ED0 SWAP2 SWAP1 PUSH1 0x1 PUSH1 0x1 PUSH1 0xA0 SHL SUB AND PUSH2 0x1474 JUMP JUMPDEST PUSH2 0x3EF2 JUMP JUMPDEST PUSH1 0x1 DUP3 ADD SLOAD PUSH1 0x5 DUP4 ADD SLOAD PUSH2 0x3EF2 SWAP2 SWAP1 PUSH1 0x1 PUSH1 0x1 PUSH1 0xA0 SHL SUB AND PUSH2 0x119F JUMP JUMPDEST SWAP1 POP DUP1 DUP8 LT ISZERO PUSH2 0x3F33 JUMPI PUSH1 0x40 MLOAD PUSH3 0x461BCD PUSH1 0xE5 SHL DUP2 MSTORE PUSH1 0x4 ADD DUP1 DUP1 PUSH1 0x20 ADD DUP3 DUP2 SUB DUP3 MSTORE PUSH1 0x34 DUP2 MSTORE PUSH1 0x20 ADD DUP1 PUSH2 0x4CBE PUSH1 0x34 SWAP2 CODECOPY PUSH1 0x40 ADD SWAP2 POP POP PUSH1 0x40 MLOAD DUP1 SWAP2 SUB SWAP1 REVERT JUMPDEST DUP1 CALLVALUE LT ISZERO PUSH2 0x3F72 JUMPI PUSH1 0x40 MLOAD PUSH3 0x461BCD PUSH1 0xE5 SHL DUP2 MSTORE PUSH1 0x4 ADD DUP1 DUP1 PUSH1 0x20 ADD DUP3 DUP2 SUB DUP3 MSTORE PUSH1 0x39 DUP2 MSTORE PUSH1 0x20 ADD DUP1 PUSH2 0x4FA4 PUSH1 0x39 SWAP2 CODECOPY PUSH1 0x40 ADD SWAP2 POP POP PUSH1 0x40 MLOAD DUP1 SWAP2 SUB SWAP1 REVERT JUMPDEST PUSH1 0xCC SLOAD PUSH1 0x40 MLOAD PUSH1 0x0 SWAP2 PUSH1 0x1 PUSH1 0x1 PUSH1 0xA0 SHL SUB AND SWAP1 DUP4 SWAP1 DUP4 DUP2 DUP2 DUP2 DUP6 DUP8 GAS CALL SWAP3 POP POP POP RETURNDATASIZE DUP1 PUSH1 0x0 DUP2 EQ PUSH2 0x3FBF JUMPI PUSH1 0x40 MLOAD SWAP2 POP PUSH1 0x1F NOT PUSH1 0x3F RETURNDATASIZE ADD AND DUP3 ADD PUSH1 0x40 MSTORE RETURNDATASIZE DUP3 MSTORE RETURNDATASIZE PUSH1 0x0 PUSH1 0x20 DUP5 ADD RETURNDATACOPY PUSH2 0x3FC4 JUMP JUMPDEST PUSH1 0x60 SWAP2 POP JUMPDEST POP POP SWAP1 POP DUP1 PUSH2 0x4004 JUMPI PUSH1 0x40 MLOAD PUSH3 0x461BCD PUSH1 0xE5 SHL DUP2 MSTORE PUSH1 0x4 ADD DUP1 DUP1 PUSH1 0x20 ADD DUP3 DUP2 SUB DUP3 MSTORE PUSH1 0x23 DUP2 MSTORE PUSH1 0x20 ADD DUP1 PUSH2 0x4D8D PUSH1 0x23 SWAP2 CODECOPY PUSH1 0x40 ADD SWAP2 POP POP PUSH1 0x40 MLOAD DUP1 SWAP2 SUB SWAP1 REVERT JUMPDEST POP POP JUMPDEST PUSH1 0x5 DUP2 ADD DUP1 SLOAD PUSH1 0xFF PUSH1 0xA8 SHL NOT AND PUSH1 0x1 PUSH1 0xA8 SHL OR SWAP1 DUP2 SWAP1 SSTORE PUSH1 0x3 DUP3 ADD SLOAD PUSH1 0x40 DUP1 MLOAD PUSH4 0x6EB1769F PUSH1 0xE1 SHL DUP2 MSTORE PUSH1 0x1 PUSH1 0x1 PUSH1 0xA0 SHL SUB SWAP3 DUP4 AND PUSH1 0x4 DUP3 ADD MSTORE ADDRESS PUSH1 0x24 DUP3 ADD MSTORE SWAP1 MLOAD SWAP2 SWAP1 SWAP3 AND SWAP2 DUP3 SWAP2 PUSH4 0xDD62ED3E SWAP2 PUSH1 0x44 DUP1 DUP3 ADD SWAP3 PUSH1 0x20 SWAP3 SWAP1 SWAP2 SWAP1 DUP3 SWAP1 SUB ADD DUP2 DUP7 DUP1 EXTCODESIZE ISZERO DUP1 ISZERO PUSH2 0x4076 JUMPI PUSH1 0x0 DUP1 REVERT JUMPDEST POP GAS STATICCALL ISZERO DUP1 ISZERO PUSH2 0x408A JUMPI RETURNDATASIZE PUSH1 0x0 DUP1 RETURNDATACOPY RETURNDATASIZE PUSH1 0x0 REVERT JUMPDEST POP POP POP POP PUSH1 0x40 MLOAD RETURNDATASIZE PUSH1 0x20 DUP2 LT ISZERO PUSH2 0x40A0 JUMPI PUSH1 0x0 DUP1 REVERT JUMPDEST POP MLOAD PUSH1 0x1 DUP4 ADD SLOAD GT ISZERO PUSH2 0x40B2 JUMPI PUSH1 0x0 DUP1 REVERT JUMPDEST PUSH1 0x3 DUP3 ADD SLOAD PUSH1 0x2 DUP4 ADD SLOAD PUSH1 0x1 DUP5 ADD SLOAD PUSH1 0x40 DUP1 MLOAD PUSH4 0x23B872DD PUSH1 0xE0 SHL DUP2 MSTORE PUSH1 0x1 PUSH1 0x1 PUSH1 0xA0 SHL SUB SWAP5 DUP6 AND PUSH1 0x4 DUP3 ADD MSTORE SWAP3 DUP5 AND PUSH1 0x24 DUP5 ADD MSTORE PUSH1 0x44 DUP4 ADD SWAP2 SWAP1 SWAP2 MSTORE MLOAD SWAP2 DUP4 AND SWAP2 PUSH4 0x23B872DD SWAP2 PUSH1 0x64 DUP1 DUP3 ADD SWAP3 PUSH1 0x20 SWAP3 SWAP1 SWAP2 SWAP1 DUP3 SWAP1 SUB ADD DUP2 PUSH1 0x0 DUP8 DUP1 EXTCODESIZE ISZERO DUP1 ISZERO PUSH2 0x411C JUMPI PUSH1 0x0 DUP1 REVERT JUMPDEST POP GAS CALL ISZERO DUP1 ISZERO PUSH2 0x4130 JUMPI RETURNDATASIZE PUSH1 0x0 DUP1 RETURNDATACOPY RETURNDATASIZE PUSH1 0x0 REVERT JUMPDEST POP POP POP POP PUSH1 0x40 MLOAD RETURNDATASIZE PUSH1 0x20 DUP2 LT ISZERO PUSH2 0x4146 JUMPI PUSH1 0x0 DUP1 REVERT JUMPDEST POP MLOAD PUSH2 0x4151 JUMPI PUSH1 0x0 DUP1 REVERT JUMPDEST PUSH1 0x4 DUP1 DUP4 ADD SLOAD PUSH1 0x3 DUP5 ADD SLOAD DUP5 SLOAD PUSH1 0x40 DUP1 MLOAD PUSH4 0xA9059CBB PUSH1 0xE0 SHL DUP2 MSTORE PUSH1 0x1 PUSH1 0x1 PUSH1 0xA0 SHL SUB SWAP4 DUP5 AND SWAP6 DUP2 ADD SWAP6 SWAP1 SWAP6 MSTORE PUSH1 0x24 DUP6 ADD SWAP2 SWAP1 SWAP2 MSTORE MLOAD SWAP2 AND SWAP2 DUP3 SWAP2 PUSH4 0xA9059CBB SWAP2 PUSH1 0x44 DUP1 DUP3 ADD SWAP3 PUSH1 0x20 SWAP3 SWAP1 SWAP2 SWAP1 DUP3 SWAP1 SUB ADD DUP2 PUSH1 0x0 DUP8 DUP1 EXTCODESIZE ISZERO DUP1 ISZERO PUSH2 0x41B4 JUMPI PUSH1 0x0 DUP1 REVERT JUMPDEST POP GAS CALL ISZERO DUP1 ISZERO PUSH2 0x41C8 JUMPI RETURNDATASIZE PUSH1 0x0 DUP1 RETURNDATACOPY RETURNDATASIZE PUSH1 0x0 REVERT JUMPDEST POP POP POP POP PUSH1 0x40 MLOAD RETURNDATASIZE PUSH1 0x20 DUP2 LT ISZERO PUSH2 0x41DE JUMPI PUSH1 0x0 DUP1 REVERT JUMPDEST POP MLOAD PUSH2 0x41E9 JUMPI PUSH1 0x0 DUP1 REVERT JUMPDEST PUSH1 0x40 MLOAD DUP10 SWAP1 PUSH32 0xBF67515A38EE520223D32C1266D52101C30D936ED1F3E436C8CAEB0A43CB06BF SWAP1 PUSH1 0x0 SWAP1 LOG2 POP POP POP POP POP POP POP POP POP JUMP JUMPDEST PUSH1 0x0 SLOAD PUSH2 0x100 SWAP1 DIV PUSH1 0xFF AND DUP1 PUSH2 0x4238 JUMPI POP PUSH2 0x4238 PUSH2 0x4549 JUMP JUMPDEST DUP1 PUSH2 0x4246 JUMPI POP PUSH1 0x0 SLOAD PUSH1 0xFF AND ISZERO JUMPDEST PUSH2 0x4281 JUMPI PUSH1 0x40 MLOAD PUSH3 0x461BCD PUSH1 0xE5 SHL DUP2 MSTORE PUSH1 0x4 ADD DUP1 DUP1 PUSH1 0x20 ADD DUP3 DUP2 SUB DUP3 MSTORE PUSH1 0x2E DUP2 MSTORE PUSH1 0x20 ADD DUP1 PUSH2 0x4F3A PUSH1 0x2E SWAP2 CODECOPY PUSH1 0x40 ADD SWAP2 POP POP PUSH1 0x40 MLOAD DUP1 SWAP2 SUB SWAP1 REVERT JUMPDEST PUSH1 0x0 SLOAD PUSH2 0x100 SWAP1 DIV PUSH1 0xFF AND ISZERO DUP1 ISZERO PUSH2 0x42AC JUMPI PUSH1 0x0 DUP1 SLOAD PUSH1 0xFF NOT PUSH2 0xFF00 NOT SWAP1 SWAP2 AND PUSH2 0x100 OR AND PUSH1 0x1 OR SWAP1 SSTORE JUMPDEST PUSH2 0x42B4 PUSH2 0x454F JUMP JUMPDEST PUSH2 0x42BC PUSH2 0x45F1 JUMP JUMPDEST PUSH2 0x42C4 PUSH2 0x46EA JUMP JUMPDEST PUSH2 0x42D0 DUP6 DUP6 DUP6 DUP6 PUSH2 0x4795 JUMP JUMPDEST DUP1 ISZERO PUSH2 0x42E2 JUMPI PUSH1 0x0 DUP1 SLOAD PUSH2 0xFF00 NOT AND SWAP1 SSTORE JUMPDEST POP POP POP POP POP JUMP JUMPDEST PUSH1 0x0 PUSH2 0x4301 PUSH1 0x64 PUSH2 0x1247 DUP5 PUSH1 0xA PUSH4 0xFFFFFFFF PUSH2 0x32A9 AND JUMP JUMPDEST SWAP1 POP PUSH1 0x0 PUSH2 0x431B PUSH1 0x64 PUSH2 0x1247 DUP6 PUSH1 0xA PUSH4 0xFFFFFFFF PUSH2 0x32A9 AND JUMP JUMPDEST SWAP1 POP PUSH1 0x0 PUSH2 0x433F DUP3 PUSH2 0x4333 DUP7 DUP7 PUSH4 0xFFFFFFFF PUSH2 0x3344 AND JUMP JUMPDEST SWAP1 PUSH4 0xFFFFFFFF PUSH2 0x3344 AND JUMP JUMPDEST PUSH1 0xCC SLOAD PUSH1 0xCB SLOAD SWAP2 SWAP3 POP PUSH2 0x4367 SWAP2 PUSH1 0x1 PUSH1 0x1 PUSH1 0xA0 SHL SUB SWAP1 DUP2 AND SWAP2 CALLER SWAP2 AND DUP5 PUSH4 0xFFFFFFFF PUSH2 0x49A7 AND JUMP JUMPDEST PUSH1 0xCD SLOAD PUSH1 0xCB SLOAD PUSH2 0x438C SWAP2 PUSH1 0x1 PUSH1 0x1 PUSH1 0xA0 SHL SUB SWAP2 DUP3 AND SWAP2 CALLER SWAP2 AND DUP7 PUSH4 0xFFFFFFFF PUSH2 0x49A7 AND JUMP JUMPDEST PUSH1 0xCB SLOAD PUSH1 0x40 DUP1 MLOAD PUSH4 0x79CC679 PUSH1 0xE4 SHL DUP2 MSTORE CALLER PUSH1 0x4 DUP3 ADD MSTORE PUSH1 0x24 DUP2 ADD DUP6 SWAP1 MSTORE SWAP1 MLOAD PUSH1 0x1 PUSH1 0x1 PUSH1 0xA0 SHL SUB SWAP1 SWAP3 AND SWAP2 PUSH4 0x79CC6790 SWAP2 PUSH1 0x44 DUP1 DUP3 ADD SWAP3 PUSH1 0x0 SWAP3 SWAP1 SWAP2 SWAP1 DUP3 SWAP1 SUB ADD DUP2 DUP4 DUP8 DUP1 EXTCODESIZE ISZERO DUP1 ISZERO PUSH2 0x43DF JUMPI PUSH1 0x0 DUP1 REVERT JUMPDEST POP GAS CALL ISZERO DUP1 ISZERO PUSH2 0x9E0 JUMPI RETURNDATASIZE PUSH1 0x0 DUP1 RETURNDATACOPY RETURNDATASIZE PUSH1 0x0 REVERT JUMPDEST PUSH1 0x0 DUP3 DUP3 ADD DUP4 DUP2 LT ISZERO PUSH2 0xDDA JUMPI PUSH1 0x40 DUP1 MLOAD PUSH3 0x461BCD PUSH1 0xE5 SHL DUP2 MSTORE PUSH1 0x20 PUSH1 0x4 DUP3 ADD MSTORE PUSH1 0x1B PUSH1 0x24 DUP3 ADD MSTORE PUSH32 0x536166654D6174683A206164646974696F6E206F766572666C6F770000000000 PUSH1 0x44 DUP3 ADD MSTORE SWAP1 MLOAD SWAP1 DUP2 SWAP1 SUB PUSH1 0x64 ADD SWAP1 REVERT JUMPDEST PUSH1 0x0 DUP2 DUP4 PUSH2 0x44D9 JUMPI PUSH1 0x40 MLOAD PUSH3 0x461BCD PUSH1 0xE5 SHL DUP2 MSTORE PUSH1 0x4 ADD DUP1 DUP1 PUSH1 0x20 ADD DUP3 DUP2 SUB DUP3 MSTORE DUP4 DUP2 DUP2 MLOAD DUP2 MSTORE PUSH1 0x20 ADD SWAP2 POP DUP1 MLOAD SWAP1 PUSH1 0x20 ADD SWAP1 DUP1 DUP4 DUP4 PUSH1 0x0 JUMPDEST DUP4 DUP2 LT ISZERO PUSH2 0x449E JUMPI DUP2 DUP2 ADD MLOAD DUP4 DUP3 ADD MSTORE PUSH1 0x20 ADD PUSH2 0x4486 JUMP JUMPDEST POP POP POP POP SWAP1 POP SWAP1 DUP2 ADD SWAP1 PUSH1 0x1F AND DUP1 ISZERO PUSH2 0x44CB JUMPI DUP1 DUP3 SUB DUP1 MLOAD PUSH1 0x1 DUP4 PUSH1 0x20 SUB PUSH2 0x100 EXP SUB NOT AND DUP2 MSTORE PUSH1 0x20 ADD SWAP2 POP JUMPDEST POP SWAP3 POP POP POP PUSH1 0x40 MLOAD DUP1 SWAP2 SUB SWAP1 REVERT JUMPDEST POP PUSH1 0x0 DUP4 DUP6 DUP2 PUSH2 0x44E5 JUMPI INVALID JUMPDEST DIV SWAP6 SWAP5 POP POP POP POP POP JUMP JUMPDEST PUSH1 0x0 DUP2 DUP5 DUP5 GT ISZERO PUSH2 0x4541 JUMPI PUSH1 0x40 MLOAD PUSH3 0x461BCD PUSH1 0xE5 SHL DUP2 MSTORE PUSH1 0x20 PUSH1 0x4 DUP3 ADD DUP2 DUP2 MSTORE DUP4 MLOAD PUSH1 0x24 DUP5 ADD MSTORE DUP4 MLOAD SWAP1 SWAP3 DUP4 SWAP3 PUSH1 0x44 SWAP1 SWAP2 ADD SWAP2 SWAP1 DUP6 ADD SWAP1 DUP1 DUP4 DUP4 PUSH1 0x0 DUP4 ISZERO PUSH2 0x449E JUMPI DUP2 DUP2 ADD MLOAD DUP4 DUP3 ADD MSTORE PUSH1 0x20 ADD PUSH2 0x4486 JUMP JUMPDEST POP POP POP SWAP1 SUB SWAP1 JUMP JUMPDEST ADDRESS EXTCODESIZE ISZERO SWAP1 JUMP JUMPDEST PUSH1 0x0 SLOAD PUSH2 0x100 SWAP1 DIV PUSH1 0xFF AND DUP1 PUSH2 0x4568 JUMPI POP PUSH2 0x4568 PUSH2 0x4549 JUMP JUMPDEST DUP1 PUSH2 0x4576 JUMPI POP PUSH1 0x0 SLOAD PUSH1 0xFF AND ISZERO JUMPDEST PUSH2 0x45B1 JUMPI PUSH1 0x40 MLOAD PUSH3 0x461BCD PUSH1 0xE5 SHL DUP2 MSTORE PUSH1 0x4 ADD DUP1 DUP1 PUSH1 0x20 ADD DUP3 DUP2 SUB DUP3 MSTORE PUSH1 0x2E DUP2 MSTORE PUSH1 0x20 ADD DUP1 PUSH2 0x4F3A PUSH1 0x2E SWAP2 CODECOPY PUSH1 0x40 ADD SWAP2 POP POP PUSH1 0x40 MLOAD DUP1 SWAP2 SUB SWAP1 REVERT JUMPDEST PUSH1 0x0 SLOAD PUSH2 0x100 SWAP1 DIV PUSH1 0xFF AND ISZERO DUP1 ISZERO PUSH2 0x45DC JUMPI PUSH1 0x0 DUP1 SLOAD PUSH1 0xFF NOT PUSH2 0xFF00 NOT SWAP1 SWAP2 AND PUSH2 0x100 OR AND PUSH1 0x1 OR SWAP1 SSTORE JUMPDEST DUP1 ISZERO PUSH2 0x45EE JUMPI PUSH1 0x0 DUP1 SLOAD PUSH2 0xFF00 NOT AND SWAP1 SSTORE JUMPDEST POP JUMP JUMPDEST PUSH1 0x0 SLOAD PUSH2 0x100 SWAP1 DIV PUSH1 0xFF AND DUP1 PUSH2 0x460A JUMPI POP PUSH2 0x460A PUSH2 0x4549 JUMP JUMPDEST DUP1 PUSH2 0x4618 JUMPI POP PUSH1 0x0 SLOAD PUSH1 0xFF AND ISZERO JUMPDEST PUSH2 0x4653 JUMPI PUSH1 0x40 MLOAD PUSH3 0x461BCD PUSH1 0xE5 SHL DUP2 MSTORE PUSH1 0x4 ADD DUP1 DUP1 PUSH1 0x20 ADD DUP3 DUP2 SUB DUP3 MSTORE PUSH1 0x2E DUP2 MSTORE PUSH1 0x20 ADD DUP1 PUSH2 0x4F3A PUSH1 0x2E SWAP2 CODECOPY PUSH1 0x40 ADD SWAP2 POP POP PUSH1 0x40 MLOAD DUP1 SWAP2 SUB SWAP1 REVERT JUMPDEST PUSH1 0x0 SLOAD PUSH2 0x100 SWAP1 DIV PUSH1 0xFF AND ISZERO DUP1 ISZERO PUSH2 0x467E JUMPI PUSH1 0x0 DUP1 SLOAD PUSH1 0xFF NOT PUSH2 0xFF00 NOT SWAP1 SWAP2 AND PUSH2 0x100 OR AND PUSH1 0x1 OR SWAP1 SSTORE JUMPDEST PUSH1 0x0 PUSH2 0x4688 PUSH2 0x1CCA JUMP JUMPDEST PUSH1 0x65 DUP1 SLOAD PUSH1 0x1 PUSH1 0x1 PUSH1 0xA0 SHL SUB NOT AND PUSH1 0x1 PUSH1 0x1 PUSH1 0xA0 SHL SUB DUP4 AND SWAP1 DUP2 OR SWAP1 SWAP2 SSTORE PUSH1 0x40 MLOAD SWAP2 SWAP3 POP SWAP1 PUSH1 0x0 SWAP1 PUSH32 0x8BE0079C531659141344CD1FD0A4F28419497F9722A3DAAFE3B4186F6B6457E0 SWAP1 DUP3 SWAP1 LOG3 POP DUP1 ISZERO PUSH2 0x45EE JUMPI PUSH1 0x0 DUP1 SLOAD PUSH2 0xFF00 NOT AND SWAP1 SSTORE POP JUMP JUMPDEST PUSH1 0x0 SLOAD PUSH2 0x100 SWAP1 DIV PUSH1 0xFF AND DUP1 PUSH2 0x4703 JUMPI POP PUSH2 0x4703 PUSH2 0x4549 JUMP JUMPDEST DUP1 PUSH2 0x4711 JUMPI POP PUSH1 0x0 SLOAD PUSH1 0xFF AND ISZERO JUMPDEST PUSH2 0x474C JUMPI PUSH1 0x40 MLOAD PUSH3 0x461BCD PUSH1 0xE5 SHL DUP2 MSTORE PUSH1 0x4 ADD DUP1 DUP1 PUSH1 0x20 ADD DUP3 DUP2 SUB DUP3 MSTORE PUSH1 0x2E DUP2 MSTORE PUSH1 0x20 ADD DUP1 PUSH2 0x4F3A PUSH1 0x2E SWAP2 CODECOPY PUSH1 0x40 ADD SWAP2 POP POP PUSH1 0x40 MLOAD DUP1 SWAP2 SUB SWAP1 REVERT JUMPDEST PUSH1 0x0 SLOAD PUSH2 0x100 SWAP1 DIV PUSH1 0xFF AND ISZERO DUP1 ISZERO PUSH2 0x4777 JUMPI PUSH1 0x0 DUP1 SLOAD PUSH1 0xFF NOT PUSH2 0xFF00 NOT SWAP1 SWAP2 AND PUSH2 0x100 OR AND PUSH1 0x1 OR SWAP1 SSTORE JUMPDEST PUSH1 0x97 DUP1 SLOAD PUSH1 0xFF NOT AND SWAP1 SSTORE DUP1 ISZERO PUSH2 0x45EE JUMPI PUSH1 0x0 DUP1 SLOAD PUSH2 0xFF00 NOT AND SWAP1 SSTORE POP JUMP JUMPDEST PUSH1 0x0 SLOAD PUSH2 0x100 SWAP1 DIV PUSH1 0xFF AND DUP1 PUSH2 0x47AE JUMPI POP PUSH2 0x47AE PUSH2 0x4549 JUMP JUMPDEST DUP1 PUSH2 0x47BC JUMPI POP PUSH1 0x0 SLOAD PUSH1 0xFF AND ISZERO JUMPDEST PUSH2 0x47F7 JUMPI PUSH1 0x40 MLOAD PUSH3 0x461BCD PUSH1 0xE5 SHL DUP2 MSTORE PUSH1 0x4 ADD DUP1 DUP1 PUSH1 0x20 ADD DUP3 DUP2 SUB DUP3 MSTORE PUSH1 0x2E DUP2 MSTORE PUSH1 0x20 ADD DUP1 PUSH2 0x4F3A PUSH1 0x2E SWAP2 CODECOPY PUSH1 0x40 ADD SWAP2 POP POP PUSH1 0x40 MLOAD DUP1 SWAP2 SUB SWAP1 REVERT JUMPDEST PUSH1 0x0 SLOAD PUSH2 0x100 SWAP1 DIV PUSH1 0xFF AND ISZERO DUP1 ISZERO PUSH2 0x4822 JUMPI PUSH1 0x0 DUP1 SLOAD PUSH1 0xFF NOT PUSH2 0xFF00 NOT SWAP1 SWAP2 AND PUSH2 0x100 OR AND PUSH1 0x1 OR SWAP1 SSTORE JUMPDEST PUSH1 0x1 PUSH1 0x1 PUSH1 0xA0 SHL SUB DUP6 AND PUSH2 0x4867 JUMPI PUSH1 0x40 MLOAD PUSH3 0x461BCD PUSH1 0xE5 SHL DUP2 MSTORE PUSH1 0x4 ADD DUP1 DUP1 PUSH1 0x20 ADD DUP3 DUP2 SUB DUP3 MSTORE PUSH1 0x27 DUP2 MSTORE PUSH1 0x20 ADD DUP1 PUSH2 0x501A PUSH1 0x27 SWAP2 CODECOPY PUSH1 0x40 ADD SWAP2 POP POP PUSH1 0x40 MLOAD DUP1 SWAP2 SUB SWAP1 REVERT JUMPDEST PUSH1 0x1 PUSH1 0x1 PUSH1 0xA0 SHL SUB DUP5 AND PUSH2 0x48AC JUMPI PUSH1 0x40 MLOAD PUSH3 0x461BCD PUSH1 0xE5 SHL DUP2 MSTORE PUSH1 0x4 ADD DUP1 DUP1 PUSH1 0x20 ADD DUP3 DUP2 SUB DUP3 MSTORE PUSH1 0x2B DUP2 MSTORE PUSH1 0x20 ADD DUP1 PUSH2 0x4ECE PUSH1 0x2B SWAP2 CODECOPY PUSH1 0x40 ADD SWAP2 POP POP PUSH1 0x40 MLOAD DUP1 SWAP2 SUB SWAP1 REVERT JUMPDEST PUSH1 0x1 PUSH1 0x1 PUSH1 0xA0 SHL SUB DUP4 AND PUSH2 0x48F1 JUMPI PUSH1 0x40 MLOAD PUSH3 0x461BCD PUSH1 0xE5 SHL DUP2 MSTORE PUSH1 0x4 ADD DUP1 DUP1 PUSH1 0x20 ADD DUP3 DUP2 SUB DUP3 MSTORE PUSH1 0x2A DUP2 MSTORE PUSH1 0x20 ADD DUP1 PUSH2 0x4D63 PUSH1 0x2A SWAP2 CODECOPY PUSH1 0x40 ADD SWAP2 POP POP PUSH1 0x40 MLOAD DUP1 SWAP2 SUB SWAP1 REVERT JUMPDEST PUSH1 0x1 PUSH1 0x1 PUSH1 0xA0 SHL SUB DUP3 AND PUSH2 0x4936 JUMPI PUSH1 0x40 MLOAD PUSH3 0x461BCD PUSH1 0xE5 SHL DUP2 MSTORE PUSH1 0x4 ADD DUP1 DUP1 PUSH1 0x20 ADD DUP3 DUP2 SUB DUP3 MSTORE PUSH1 0x2C DUP2 MSTORE PUSH1 0x20 ADD DUP1 PUSH2 0x4DD8 PUSH1 0x2C SWAP2 CODECOPY PUSH1 0x40 ADD SWAP2 POP POP PUSH1 0x40 MLOAD DUP1 SWAP2 SUB SWAP1 REVERT JUMPDEST PUSH1 0xCB DUP1 SLOAD PUSH1 0x1 PUSH1 0x1 PUSH1 0xA0 SHL SUB DUP1 DUP9 AND PUSH1 0x1 PUSH1 0x1 PUSH1 0xA0 SHL SUB NOT SWAP3 DUP4 AND OR SWAP1 SWAP3 SSTORE PUSH1 0xCC DUP1 SLOAD DUP8 DUP5 AND SWAP1 DUP4 AND OR SWAP1 SSTORE PUSH1 0xCD DUP1 SLOAD DUP7 DUP5 AND SWAP1 DUP4 AND OR SWAP1 SSTORE PUSH1 0xD1 DUP1 SLOAD SWAP3 DUP6 AND SWAP3 SWAP1 SWAP2 AND SWAP2 SWAP1 SWAP2 OR SWAP1 SSTORE PUSH1 0x3 PUSH1 0xCE DUP2 SWAP1 SSTORE PUSH1 0x5 PUSH1 0xCF SSTORE PUSH1 0xD0 SSTORE DUP1 ISZERO PUSH2 0x42E2 JUMPI PUSH1 0x0 DUP1 SLOAD PUSH2 0xFF00 NOT AND SWAP1 SSTORE POP POP POP POP POP JUMP JUMPDEST PUSH1 0x40 DUP1 MLOAD PUSH1 0x1 PUSH1 0x1 PUSH1 0xA0 SHL SUB DUP1 DUP7 AND PUSH1 0x24 DUP4 ADD MSTORE DUP5 AND PUSH1 0x44 DUP3 ADD MSTORE PUSH1 0x64 DUP1 DUP3 ADD DUP5 SWAP1 MSTORE DUP3 MLOAD DUP1 DUP4 SUB SWAP1 SWAP2 ADD DUP2 MSTORE PUSH1 0x84 SWAP1 SWAP2 ADD SWAP1 SWAP2 MSTORE PUSH1 0x20 DUP2 ADD DUP1 MLOAD PUSH1 0x1 PUSH1 0x1 PUSH1 0xE0 SHL SUB AND PUSH4 0x23B872DD PUSH1 0xE0 SHL OR SWAP1 MSTORE PUSH2 0xDBD SWAP1 DUP6 SWAP1 PUSH2 0x4A0E DUP3 PUSH1 0x1 PUSH1 0x1 PUSH1 0xA0 SHL SUB AND PUSH2 0x1CCE JUMP JUMPDEST PUSH2 0x4A5F JUMPI PUSH1 0x40 DUP1 MLOAD PUSH3 0x461BCD PUSH1 0xE5 SHL DUP2 MSTORE PUSH1 0x20 PUSH1 0x4 DUP3 ADD MSTORE PUSH1 0x1F PUSH1 0x24 DUP3 ADD MSTORE PUSH32 0x5361666545524332303A2063616C6C20746F206E6F6E2D636F6E747261637400 PUSH1 0x44 DUP3 ADD MSTORE SWAP1 MLOAD SWAP1 DUP2 SWAP1 SUB PUSH1 0x64 ADD SWAP1 REVERT JUMPDEST PUSH1 0x0 PUSH1 0x60 DUP4 PUSH1 0x1 PUSH1 0x1 PUSH1 0xA0 SHL SUB AND DUP4 PUSH1 0x40 MLOAD DUP1 DUP3 DUP1 MLOAD SWAP1 PUSH1 0x20 ADD SWAP1 DUP1 DUP4 DUP4 JUMPDEST PUSH1 0x20 DUP4 LT PUSH2 0x4A9D JUMPI DUP1 MLOAD DUP3 MSTORE PUSH1 0x1F NOT SWAP1 SWAP3 ADD SWAP2 PUSH1 0x20 SWAP2 DUP3 ADD SWAP2 ADD PUSH2 0x4A7E JUMP JUMPDEST PUSH1 0x1 DUP4 PUSH1 0x20 SUB PUSH2 0x100 EXP SUB DUP1 NOT DUP3 MLOAD AND DUP2 DUP5 MLOAD AND DUP1 DUP3 OR DUP6 MSTORE POP POP POP POP POP POP SWAP1 POP ADD SWAP2 POP POP PUSH1 0x0 PUSH1 0x40 MLOAD DUP1 DUP4 SUB DUP2 PUSH1 0x0 DUP7 GAS CALL SWAP2 POP POP RETURNDATASIZE DUP1 PUSH1 0x0 DUP2 EQ PUSH2 0x4AFF JUMPI PUSH1 0x40 MLOAD SWAP2 POP PUSH1 0x1F NOT PUSH1 0x3F RETURNDATASIZE ADD AND DUP3 ADD PUSH1 0x40 MSTORE RETURNDATASIZE DUP3 MSTORE RETURNDATASIZE PUSH1 0x0 PUSH1 0x20 DUP5 ADD RETURNDATACOPY PUSH2 0x4B04 JUMP JUMPDEST PUSH1 0x60 SWAP2 POP JUMPDEST POP SWAP2 POP SWAP2 POP DUP2 PUSH2 0x4B5B JUMPI PUSH1 0x40 DUP1 MLOAD PUSH3 0x461BCD PUSH1 0xE5 SHL DUP2 MSTORE PUSH1 0x20 PUSH1 0x4 DUP3 ADD DUP2 SWAP1 MSTORE PUSH1 0x24 DUP3 ADD MSTORE PUSH32 0x5361666545524332303A206C6F772D6C6576656C2063616C6C206661696C6564 PUSH1 0x44 DUP3 ADD MSTORE SWAP1 MLOAD SWAP1 DUP2 SWAP1 SUB PUSH1 0x64 ADD SWAP1 REVERT JUMPDEST DUP1 MLOAD ISZERO PUSH2 0xDBD JUMPI DUP1 DUP1 PUSH1 0x20 ADD SWAP1 MLOAD PUSH1 0x20 DUP2 LT ISZERO PUSH2 0x4B77 JUMPI PUSH1 0x0 DUP1 REVERT JUMPDEST POP MLOAD PUSH2 0xDBD JUMPI PUSH1 0x40 MLOAD PUSH3 0x461BCD PUSH1 0xE5 SHL DUP2 MSTORE PUSH1 0x4 ADD DUP1 DUP1 PUSH1 0x20 ADD DUP3 DUP2 SUB DUP3 MSTORE PUSH1 0x2A DUP2 MSTORE PUSH1 0x20 ADD DUP1 PUSH2 0x515D PUSH1 0x2A SWAP2 CODECOPY PUSH1 0x40 ADD SWAP2 POP POP PUSH1 0x40 MLOAD DUP1 SWAP2 SUB SWAP1 REVERT JUMPDEST PUSH1 0x40 DUP1 MLOAD PUSH2 0x100 DUP2 ADD DUP3 MSTORE PUSH1 0x0 DUP1 DUP3 MSTORE PUSH1 0x20 DUP3 ADD DUP2 SWAP1 MSTORE SWAP2 DUP2 ADD DUP3 SWAP1 MSTORE PUSH1 0x60 DUP2 ADD DUP3 SWAP1 MSTORE PUSH1 0x80 DUP2 ADD DUP3 SWAP1 MSTORE PUSH1 0xA0 DUP2 ADD DUP3 SWAP1 MSTORE SWAP1 PUSH1 0xC0 DUP3 ADD SWAP1 DUP2 MSTORE PUSH1 0x20 ADD PUSH1 0x0 SWAP1 MSTORE SWAP1 JUMP INVALID JUMPDEST JUMP PUSH2 0x6C69 PUSH5 0x6174696F6E 0x5D KECCAK256 0x49 PUSH15 0x76616C696420636C6F736520747261 PUSH5 0x6572206164 PUSH5 0x726573735B JUMP PUSH2 0x6C69 PUSH5 0x6174696F6E 0x5D KECCAK256 SLOAD PUSH9 0x65206F70656E207661 PUSH13 0x75652068617320746F20626520 PUSH13 0x6172676572207468616E20305B JUMP PUSH2 0x6C69 PUSH5 0x6174696F6E 0x5D KECCAK256 SLOAD PUSH19 0x616E73666572206F6620657468206661696C65 PUSH5 0x5B56616C69 PUSH5 0x6174696F6E 0x5D KECCAK256 GASLIMIT PUSH15 0x6F75676820455448206E6F74207365 PUSH15 0x744F776E61626C653A206E6577206F PUSH24 0x6E657220697320746865207A65726F20616464726573735B JUMP PUSH2 0x6C69 PUSH5 0x6174696F6E 0x5D KECCAK256 CHAINID PUSH6 0x652028455448 0x29 KECCAK256 PUSH10 0x732062656C6F77206D69 PUSH15 0x696D756D2072657175697265642066 PUSH6 0x655B56616C69 PUSH5 0x6174696F6E 0x5D KECCAK256 SLOAD PUSH9 0x65204552432D323020 PUSH2 0x6D6F PUSH22 0x6E742068617320746F206265206C6172676572207468 PUSH2 0x6E20 ADDRESS JUMPDEST JUMP PUSH2 0x6C69 PUSH5 0x6174696F6E 0x5D KECCAK256 SLOAD PUSH9 0x65206F70656E204552 NUMBER 0x2D ORIGIN ADDRESS KECCAK256 PUSH2 0x6D6F PUSH22 0x6E742068617320746F206265206C6172676572207468 PUSH2 0x6E20 ADDRESS JUMPDEST JUMP PUSH2 0x6C69 PUSH5 0x6174696F6E 0x5D KECCAK256 PUSH5 0x657657616C PUSH13 0x657420697320746865207A6572 PUSH16 0x20616464726573735B56616C69646174 PUSH10 0x6F6E5D205472616E7366 PUSH6 0x72206F662066 PUSH6 0x65206661696C PUSH6 0x645B56616C69 PUSH5 0x6174696F6E 0x5D GASPRICE KECCAK256 0x49 PUSH15 0x76616C6964207377617020746F6B65 PUSH15 0x20616464726573735B56616C696461 PUSH21 0x696F6E5D20496E76616C6964207072696365206573 PUSH21 0x696D61746F7220616464726573735B56616C696461 PUSH21 0x696F6E5D2054686520636C6F73652076616C756520 PUSH9 0x617320746F20626520 PUSH13 0x6172676572207468616E20305B JUMP PUSH2 0x6C69 PUSH5 0x6174696F6E 0x5D KECCAK256 CHAINID PUSH6 0x652028535741 POP 0x29 KECCAK256 PUSH10 0x732062656C6F77206D69 PUSH15 0x696D756D2072657175697265642066 PUSH6 0x655B56616C69 PUSH5 0x6174696F6E 0x5D GASPRICE KECCAK256 0x49 PUSH15 0x76616C696420707269636520657374 PUSH10 0x6D61746F722061646472 PUSH6 0x73735B56616C PUSH10 0x646174696F6E5D205468 PUSH6 0x206164647265 PUSH20 0x7320646F6573206E6F7420636F6E7461696E2061 KECCAK256 PUSH4 0x6F6E7472 PUSH2 0x6374 JUMPDEST JUMP PUSH2 0x6C69 PUSH5 0x6174696F6E 0x5D KECCAK256 PUSH7 0x65657357616C6C PUSH6 0x742069732074 PUSH9 0x65207A65726F206164 PUSH5 0x7265737353 PUSH2 0x6665 0x4D PUSH2 0x7468 GASPRICE KECCAK256 PUSH14 0x756C7469706C69636174696F6E20 PUSH16 0x766572666C6F774F776E61626C653A20 PUSH4 0x616C6C65 PUSH19 0x206973206E6F7420746865206F776E6572436F PUSH15 0x747261637420696E7374616E636520 PUSH9 0x617320616C72656164 PUSH26 0x206265656E20696E697469616C697A65645B56616C6964617469 PUSH16 0x6E5D2054686520636C6F736520455243 0x2D ORIGIN ADDRESS KECCAK256 PUSH2 0x6D6F PUSH22 0x6E742068617320746F206265206C6172676572207468 PUSH2 0x6E20 ADDRESS JUMPDEST JUMP PUSH2 0x6C69 PUSH5 0x6174696F6E 0x5D KECCAK256 PUSH14 0x73672E76616C756520646F65736E 0x27 PUSH21 0x20636F6E7461696E20656E6F756768204554482066 PUSH16 0x72206665655B56616C69646174696F6E 0x5D GASPRICE KECCAK256 SLOAD PUSH9 0x652063616C6C657220 PUSH10 0x73206E6F742061757468 PUSH16 0x72697A656420746F20636C6F73652074 PUSH9 0x652074726164655B56 PUSH2 0x6C69 PUSH5 0x6174696F6E 0x5D KECCAK256 0x49 PUSH15 0x76616C6964207377617020746F6B65 PUSH15 0x20616464726573735B56616C696461 PUSH21 0x696F6E5D20546865206665652068617320746F2062 PUSH6 0x206C61726765 PUSH19 0x207468616E20305B56616C69646174696F6E5D GASPRICE KECCAK256 COINBASE PUSH13 0x6C6F7765642046656520536C69 PUSH17 0x706167652070657263656E74616765206D PUSH22 0x7374206265206265747765656E203020746F20313030 JUMPDEST JUMP PUSH2 0x6C69 PUSH5 0x6174696F6E 0x5D GASPRICE KECCAK256 GASLIMIT SLOAD 0x48 KECCAK256 CHAINID PUSH6 0x652070657263 PUSH6 0x6E7461676520 PUSH14 0x757374206265206265747765656E KECCAK256 ADDRESS KECCAK256 PUSH21 0x6F203130305B56616C69646174696F6E5D20546865 KECCAK256 GASLIMIT SLOAD 0x48 KECCAK256 PUSH2 0x6D6F PUSH22 0x6E742068617320746F206265206C6172676572207468 PUSH2 0x6E20 ADDRESS JUMPDEST JUMP PUSH2 0x6C69 PUSH5 0x6174696F6E 0x5D GASPRICE KECCAK256 SLOAD PUSH9 0x652063616C6C657220 PUSH10 0x73206E6F742061757468 PUSH16 0x72697A656420746F2063616E63656C20 PUSH21 0x68652074726164655361666545524332303A204552 NUMBER ORIGIN ADDRESS KECCAK256 PUSH16 0x7065726174696F6E20646964206E6F74 KECCAK256 PUSH20 0x7563636565645B56616C69646174696F6E5D3A20 SSTORE PUSH15 0x697377617020466565207065726365 PUSH15 0x74616765206D757374206265206265 PUSH21 0x7765656E203020746F20313030A264697066735822 SLT KECCAK256 0xD6 SWAP3 0xF8 0x2F 0xD1 CREATE2 RETURNDATACOPY 0x4D 0xC9 0xBD 0xFC SWAP11 0xAA 0x29 0xC6 0xFB 0xAB 0xB8 0xFB GAS 0xFC DUP4 0x27 0xEA 0xC5 CALLDATACOPY SWAP9 BALANCE PUSH23 0x49BFD264736F6C63430006020033000000000000000000 "},"methodIdentifiers":{"addTokenToFreeList(address)":"cd7d9e99","cancel(uint256)":"40e58ee5","check(uint256)":"5f72f450","close(uint256,uint256,bool,bool)":"da179205","getFeeInEthForERC20(uint256,address)":"c0f8bc60","getFeeInEthForERC20UsingTotalSupply(uint256,address)":"9976dfbe","getFeeInEthForEth(uint256)":"bf3452f8","getFeeInSwapForERC20(uint256,address,bool)":"2699fd1f","getFeeInSwapForETH(uint256)":"5c04aa6a","initialize(address,address,address,address)":"f8c8765e","isFreeToken(address)":"31bff521","open(uint256,address,uint256,address,address,uint256,bool,bool)":"107af1e4","owner()":"8da5cb5b","pause()":"8456cb59","paused()":"5c975abb","removeTokenFromFreeList(address)":"d8ad1b2b","renounceOwnership()":"715018a6","setAllowedFeeSlippagePercentage(uint8)":"d2bb3aed","setDevWallet(address)":"1f53ac02","setEthFeePercentage(uint8)":"8cc6058b","setFeeWallet(address)":"90d49b9d","setPriceEstimator(address)":"0045a3d7","setSwapToken(address)":"b851b7ca","setUniswapFeePercentage(uint8)":"a9ff2bae","transferOwnership(address)":"f2fde38b","unpause()":"3f4ba83a"}},"storageLayout":{"storage":[{"astId":48,"contract":"contracts/SmartSwap.sol:SmartSwap","label":"initialized","offset":0,"slot":"0","type":"t_bool"},{"astId":50,"contract":"contracts/SmartSwap.sol:SmartSwap","label":"initializing","offset":1,"slot":"0","type":"t_bool"},{"astId":113,"contract":"contracts/SmartSwap.sol:SmartSwap","label":"______gap","offset":0,"slot":"1","type":"t_array(t_uint256)50_storage"},{"astId":43,"contract":"contracts/SmartSwap.sol:SmartSwap","label":"__gap","offset":0,"slot":"51","type":"t_array(t_uint256)50_storage"},{"astId":402,"contract":"contracts/SmartSwap.sol:SmartSwap","label":"_owner","offset":0,"slot":"101","type":"t_address"},{"astId":515,"contract":"contracts/SmartSwap.sol:SmartSwap","label":"__gap","offset":0,"slot":"102","type":"t_array(t_uint256)49_storage"},{"astId":2264,"contract":"contracts/SmartSwap.sol:SmartSwap","label":"_paused","offset":0,"slot":"151","type":"t_bool"},{"astId":2347,"contract":"contracts/SmartSwap.sol:SmartSwap","label":"__gap","offset":0,"slot":"152","type":"t_array(t_uint256)49_storage"},{"astId":3095,"contract":"contracts/SmartSwap.sol:SmartSwap","label":"_swapId","offset":0,"slot":"201","type":"t_uint256"},{"astId":3099,"contract":"contracts/SmartSwap.sol:SmartSwap","label":"_swaps","offset":0,"slot":"202","type":"t_mapping(t_uint256,t_struct(Swap)3081_storage)"},{"astId":3101,"contract":"contracts/SmartSwap.sol:SmartSwap","label":"_swapToken","offset":0,"slot":"203","type":"t_contract(IERC20)1497"},{"astId":3103,"contract":"contracts/SmartSwap.sol:SmartSwap","label":"_feesWallet","offset":0,"slot":"204","type":"t_address_payable"},{"astId":3105,"contract":"contracts/SmartSwap.sol:SmartSwap","label":"_devWallet","offset":0,"slot":"205","type":"t_address"},{"astId":3107,"contract":"contracts/SmartSwap.sol:SmartSwap","label":"_ethFeePercentage","offset":0,"slot":"206","type":"t_uint256"},{"astId":3109,"contract":"contracts/SmartSwap.sol:SmartSwap","label":"_allowedFeeSlippagePercentage","offset":0,"slot":"207","type":"t_uint256"},{"astId":3111,"contract":"contracts/SmartSwap.sol:SmartSwap","label":"_uniswapFeePercentage","offset":0,"slot":"208","type":"t_uint256"},{"astId":3113,"contract":"contracts/SmartSwap.sol:SmartSwap","label":"_priceEstimator","offset":0,"slot":"209","type":"t_contract(IPriceEstimator)2830"},{"astId":3117,"contract":"contracts/SmartSwap.sol:SmartSwap","label":"_listFreeTokens","offset":0,"slot":"210","type":"t_mapping(t_address,t_bool)"}],"types":{"t_address":{"encoding":"inplace","label":"address","numberOfBytes":"20"},"t_address_payable":{"encoding":"inplace","label":"address payable","numberOfBytes":"20"},"t_array(t_uint256)49_storage":{"base":"t_uint256","encoding":"inplace","label":"uint256[49]","numberOfBytes":"1568"},"t_array(t_uint256)50_storage":{"base":"t_uint256","encoding":"inplace","label":"uint256[50]","numberOfBytes":"1600"},"t_bool":{"encoding":"inplace","label":"bool","numberOfBytes":"1"},"t_contract(IERC20)1497":{"encoding":"inplace","label":"contract IERC20","numberOfBytes":"20"},"t_contract(IPriceEstimator)2830":{"encoding":"inplace","label":"contract IPriceEstimator","numberOfBytes":"20"},"t_enum(Status)3060":{"encoding":"inplace","label":"enum SmartSwap.Status","numberOfBytes":"1"},"t_enum(SwapType)3064":{"encoding":"inplace","label":"enum SmartSwap.SwapType","numberOfBytes":"1"},"t_mapping(t_address,t_bool)":{"encoding":"mapping","key":"t_address","label":"mapping(address => bool)","numberOfBytes":"32","value":"t_bool"},"t_mapping(t_uint256,t_struct(Swap)3081_storage)":{"encoding":"mapping","key":"t_uint256","label":"mapping(uint256 => struct SmartSwap.Swap)","numberOfBytes":"32","value":"t_struct(Swap)3081_storage"},"t_struct(Swap)3081_storage":{"encoding":"inplace","label":"struct SmartSwap.Swap","members":[{"astId":3066,"contract":"contracts/SmartSwap.sol:SmartSwap","label":"openValue","offset":0,"slot":"0","type":"t_uint256"},{"astId":3068,"contract":"contracts/SmartSwap.sol:SmartSwap","label":"closeValue","offset":0,"slot":"1","type":"t_uint256"},{"astId":3070,"contract":"contracts/SmartSwap.sol:SmartSwap","label":"openTrader","offset":0,"slot":"2","type":"t_address_payable"},{"astId":3072,"contract":"contracts/SmartSwap.sol:SmartSwap","label":"closeTrader","offset":0,"slot":"3","type":"t_address_payable"},{"astId":3074,"contract":"contracts/SmartSwap.sol:SmartSwap","label":"openContractAddress","offset":0,"slot":"4","type":"t_address"},{"astId":3076,"contract":"contracts/SmartSwap.sol:SmartSwap","label":"closeContractAddress","offset":0,"slot":"5","type":"t_address"},{"astId":3078,"contract":"contracts/SmartSwap.sol:SmartSwap","label":"swapType","offset":20,"slot":"5","type":"t_enum(SwapType)3064"},{"astId":3080,"contract":"contracts/SmartSwap.sol:SmartSwap","label":"status","offset":21,"slot":"5","type":"t_enum(Status)3060"}],"numberOfBytes":"192"},"t_uint256":{"encoding":"inplace","label":"uint256","numberOfBytes":"32"}}}}}}