{"contracts/SwapStakingContract.sol":{"SwapStakingContract":{"abi":[{"anonymous":false,"inputs":[{"indexed":false,"internalType":"address","name":"account","type":"address"}],"name":"Paused","type":"event"},{"anonymous":false,"inputs":[{"indexed":false,"internalType":"uint256","name":"amount","type":"uint256"}],"name":"RewardsDistributed","type":"event"},{"anonymous":false,"inputs":[{"indexed":true,"internalType":"address","name":"account","type":"address"},{"indexed":false,"internalType":"uint256","name":"reward","type":"uint256"}],"name":"RewardsWithdrawn","type":"event"},{"anonymous":false,"inputs":[{"indexed":true,"internalType":"bytes32","name":"role","type":"bytes32"},{"indexed":true,"internalType":"address","name":"account","type":"address"},{"indexed":true,"internalType":"address","name":"sender","type":"address"}],"name":"RoleGranted","type":"event"},{"anonymous":false,"inputs":[{"indexed":true,"internalType":"bytes32","name":"role","type":"bytes32"},{"indexed":true,"internalType":"address","name":"account","type":"address"},{"indexed":true,"internalType":"address","name":"sender","type":"address"}],"name":"RoleRevoked","type":"event"},{"anonymous":false,"inputs":[{"indexed":true,"internalType":"address","name":"account","type":"address"},{"indexed":false,"internalType":"uint256","name":"amount","type":"uint256"}],"name":"StakeDeposited","type":"event"},{"anonymous":false,"inputs":[{"indexed":false,"internalType":"address","name":"account","type":"address"}],"name":"Unpaused","type":"event"},{"anonymous":false,"inputs":[{"indexed":true,"internalType":"address","name":"account","type":"address"},{"indexed":false,"internalType":"uint256","name":"amount","type":"uint256"},{"indexed":false,"internalType":"uint256","name":"reward","type":"uint256"}],"name":"WithdrawExecuted","type":"event"},{"anonymous":false,"inputs":[{"indexed":true,"internalType":"address","name":"account","type":"address"},{"indexed":false,"internalType":"uint256","name":"amount","type":"uint256"},{"indexed":false,"internalType":"uint256","name":"initiateDate","type":"uint256"}],"name":"WithdrawInitiated","type":"event"},{"inputs":[],"name":"DEFAULT_ADMIN_ROLE","outputs":[{"internalType":"bytes32","name":"","type":"bytes32"}],"stateMutability":"view","type":"function"},{"inputs":[],"name":"currentTotalStake","outputs":[{"internalType":"uint256","name":"","type":"uint256"}],"stateMutability":"view","type":"function"},{"inputs":[{"internalType":"uint256","name":"amount","type":"uint256"}],"name":"deposit","outputs":[],"stateMutability":"nonpayable","type":"function"},{"inputs":[],"name":"distributeRewards","outputs":[],"stateMutability":"nonpayable","type":"function"},{"inputs":[],"name":"executeWithdrawal","outputs":[],"stateMutability":"nonpayable","type":"function"},{"inputs":[{"internalType":"bytes32","name":"role","type":"bytes32"}],"name":"getRoleAdmin","outputs":[{"internalType":"bytes32","name":"","type":"bytes32"}],"stateMutability":"view","type":"function"},{"inputs":[{"internalType":"bytes32","name":"role","type":"bytes32"},{"internalType":"uint256","name":"index","type":"uint256"}],"name":"getRoleMember","outputs":[{"internalType":"address","name":"","type":"address"}],"stateMutability":"view","type":"function"},{"inputs":[{"internalType":"bytes32","name":"role","type":"bytes32"}],"name":"getRoleMemberCount","outputs":[{"internalType":"uint256","name":"","type":"uint256"}],"stateMutability":"view","type":"function"},{"inputs":[{"internalType":"address","name":"account","type":"address"}],"name":"getStakeDetails","outputs":[{"internalType":"uint256","name":"initialDeposit","type":"uint256"},{"internalType":"uint256","name":"startDate","type":"uint256"},{"internalType":"uint256","name":"endDate","type":"uint256"},{"internalType":"uint256","name":"rewards","type":"uint256"}],"stateMutability":"view","type":"function"},{"inputs":[{"internalType":"bytes32","name":"role","type":"bytes32"},{"internalType":"address","name":"account","type":"address"}],"name":"grantRole","outputs":[],"stateMutability":"nonpayable","type":"function"},{"inputs":[{"internalType":"bytes32","name":"role","type":"bytes32"},{"internalType":"address","name":"account","type":"address"}],"name":"hasRole","outputs":[{"internalType":"bool","name":"","type":"bool"}],"stateMutability":"view","type":"function"},{"inputs":[{"internalType":"address","name":"_token","type":"address"},{"internalType":"address","name":"_rewardsAddress","type":"address"},{"internalType":"uint256","name":"_maxStakingAmount","type":"uint256"},{"internalType":"uint256","name":"_unstakingPeriod","type":"uint256"}],"name":"initialize","outputs":[],"stateMutability":"nonpayable","type":"function"},{"inputs":[{"internalType":"uint256","name":"withdrawAmount","type":"uint256"}],"name":"initiateWithdrawal","outputs":[],"stateMutability":"nonpayable","type":"function"},{"inputs":[],"name":"maxStakingAmount","outputs":[{"internalType":"uint256","name":"","type":"uint256"}],"stateMutability":"view","type":"function"},{"inputs":[],"name":"pause","outputs":[],"stateMutability":"nonpayable","type":"function"},{"inputs":[],"name":"paused","outputs":[{"internalType":"bool","name":"","type":"bool"}],"stateMutability":"view","type":"function"},{"inputs":[{"internalType":"bytes32","name":"role","type":"bytes32"},{"internalType":"address","name":"account","type":"address"}],"name":"renounceRole","outputs":[],"stateMutability":"nonpayable","type":"function"},{"inputs":[{"internalType":"bytes32","name":"role","type":"bytes32"},{"internalType":"address","name":"account","type":"address"}],"name":"revokeRole","outputs":[],"stateMutability":"nonpayable","type":"function"},{"inputs":[],"name":"rewardsAddress","outputs":[{"internalType":"address","name":"","type":"address"}],"stateMutability":"view","type":"function"},{"inputs":[],"name":"rewardsDistributed","outputs":[{"internalType":"uint256","name":"","type":"uint256"}],"stateMutability":"view","type":"function"},{"inputs":[],"name":"rewardsWithdrawn","outputs":[{"internalType":"uint256","name":"","type":"uint256"}],"stateMutability":"view","type":"function"},{"inputs":[{"internalType":"address","name":"_rewardsAddress","type":"address"}],"name":"setRewardAddress","outputs":[],"stateMutability":"nonpayable","type":"function"},{"inputs":[{"internalType":"address","name":"_token","type":"address"}],"name":"setTokenAddress","outputs":[],"stateMutability":"nonpayable","type":"function"},{"inputs":[],"name":"token","outputs":[{"internalType":"contract IERC20","name":"","type":"address"}],"stateMutability":"view","type":"function"},{"inputs":[],"name":"totalRewardsDistributed","outputs":[{"internalType":"uint256","name":"","type":"uint256"}],"stateMutability":"view","type":"function"},{"inputs":[],"name":"unpause","outputs":[],"stateMutability":"nonpayable","type":"function"},{"inputs":[],"name":"unstakingPeriod","outputs":[{"internalType":"uint256","name":"","type":"uint256"}],"stateMutability":"view","type":"function"},{"inputs":[],"name":"version","outputs":[{"internalType":"string","name":"","type":"string"}],"stateMutability":"pure","type":"function"},{"inputs":[],"name":"withdrawRewards","outputs":[],"stateMutability":"nonpayable","type":"function"}],"evm":{"bytecode":{"linkReferences":{},"object":"608060405234801561001057600080fd5b5061331e806100206000396000f3fe608060405234801561001057600080fd5b50600436106101cf5760003560e01c80639c1454d411610104578063ce4843e9116100a2578063f21c783b11610071578063f21c783b146104c4578063f41322ac146104cc578063fa45aa0014610518578063fc0c546a14610520576101cf565b8063ce4843e91461044c578063d547741f14610454578063eb990c5914610480578063ee172546146104bc576101cf565b8063c0973eed116100de578063c0973eed14610417578063c413d1001461041f578063c7b8981c14610427578063ca15c8731461042f576101cf565b80639c1454d4146103ea578063a217fddf146103f2578063b6b55f25146103fa576101cf565b806354fd4d50116101715780636f4a2cd01161014b5780636f4a2cd01461036f5780638456cb59146103775780639010d07c1461037f57806391d14854146103be576101cf565b806354fd4d50146102b05780635c975abb1461032d5780635e00e67914610349576101cf565b80632f2ff15d116101ad5780632f2ff15d1461024857806336568abe146102745780633f4ba83a146102a05780634d5d0806146102a8576101cf565b806312edde5e146101d4578063248a9ca3146101f357806326a4e8d214610222575b600080fd5b6101f1600480360360208110156101ea57600080fd5b5035610528565b005b6102106004803603602081101561020957600080fd5b50356107a6565b60408051918252519081900360200190f35b6101f16004803603602081101561023857600080fd5b50356001600160a01b03166107bb565b6101f16004803603604081101561025e57600080fd5b50803590602001356001600160a01b031661092a565b6101f16004803603604081101561028a57600080fd5b50803590602001356001600160a01b0316610991565b6101f16109f2565b610210610a63565b6102b8610a69565b6040805160208082528351818301528351919283929083019185019080838360005b838110156102f25781810151838201526020016102da565b50505050905090810190601f16801561031f5780820380516001836020036101000a031916815260200191505b509250505060405180910390f35b610335610a85565b604080519115158252519081900360200190f35b6101f16004803603602081101561035f57600080fd5b50356001600160a01b0316610a8e565b6101f1610bf6565b6101f1610d1b565b6103a26004803603604081101561039557600080fd5b5080359060200135610d8a565b604080516001600160a01b039092168252519081900360200190f35b610335600480360360408110156103d457600080fd5b50803590602001356001600160a01b0316610db1565b610210610dcf565b610210610dd6565b6101f16004803603602081101561041057600080fd5b5035610ddb565b6103a261120c565b61021061121b565b6101f1611222565b6102106004803603602081101561044557600080fd5b503561151e565b610210611535565b6101f16004803603604081101561046a57600080fd5b50803590602001356001600160a01b031661153b565b6101f16004803603608081101561049657600080fd5b506001600160a01b03813581169160208101359091169060408101359060600135611594565b6102106115f5565b6102106115fc565b6104f2600480360360208110156104e257600080fd5b50356001600160a01b0316611602565b604080519485526020850193909352838301919091526060830152519081900360800190f35b6101f1611711565b6103a2611c3c565b60c95460ff1661056d576040805162461bcd60e51b815260206004820152601f6024820152600080516020612b31833981519152604482015290519081900360640190fd5b60c9805460ff1916905560975460ff16156105c2576040805162461bcd60e51b815260206004820152601060248201526f14185d5cd8589b194e881c185d5cd95960821b604482015290519081900360640190fd5b336000908152610104602090815260408083206101059092529091208261061a5760405162461bcd60e51b815260040180806020018281038252602f815260200180612d9c602f913960400191505060405180910390fd5b815483111561065a5760405162461bcd60e51b815260040180806020018281038252603d8152602001806130ac603d913960400191505060405180910390fd5b600582015460ff16801561066e5750815415155b6106a95760405162461bcd60e51b815260040180806020018281038252604081526020018061327a6040913960400191505060405180910390fd5b6002820154156106ea5760405162461bcd60e51b815260040180806020018281038252603f815260200180612c60603f913960400191505060405180910390fd5b60018101541561072b5760405162461bcd60e51b815260040180806020018281038252603f815260200180612c60603f913960400191505060405180910390fd5b426002830181905561010054600484015560018201849055815560fe54610758908463ffffffff611c4b16565b60fe5560408051848152426020820152815133927ff908b12fe0d8dc1ff4fda115e5bace3a7ad1aad889daca8e638ca0b29f806577928290030190a2505060c9805460ff1916600117905550565b60009081526065602052604090206002015490565b806107ce816001600160a01b0316611c8d565b6108095760405162461bcd60e51b8152600401808060200182810382526034815260200180612d476034913960400191505060405180910390fd5b60975460ff16610857576040805162461bcd60e51b815260206004820152601460248201527314185d5cd8589b194e881b9bdd081c185d5cd95960621b604482015290519081900360640190fd5b60408051694f574e45525f524f4c4560b01b8152905190819003600a01902061088790610882611cc9565b610db1565b6108c25760405162461bcd60e51b8152600401808060200182810382526041815260200180612e366041913960600191505060405180910390fd5b6001600160a01b0382166109075760405162461bcd60e51b8152600401808060200182810382526027815260200180612f5f6027913960400191505060405180910390fd5b5060fb80546001600160a01b0319166001600160a01b0392909216919091179055565b60008281526065602052604090206002015461094890610882611cc9565b6109835760405162461bcd60e51b815260040180806020018281038252602f815260200180612b02602f913960400191505060405180910390fd5b61098d8282611ccd565b5050565b610999611cc9565b6001600160a01b0316816001600160a01b0316146109e85760405162461bcd60e51b815260040180806020018281038252602f8152602001806132ba602f913960400191505060405180910390fd5b61098d8282611d3c565b604080516a5041555345525f524f4c4560a81b8152905190819003600b019020610a1e90610882611cc9565b610a595760405162461bcd60e51b8152600401808060200182810382526035815260200180612c9f6035913960400191505060405180910390fd5b610a61611dab565b565b60fd5481565b6040805180820190915260028152613b1960f11b602082015290565b60975460ff1690565b60975460ff16610adc576040805162461bcd60e51b815260206004820152601460248201527314185d5cd8589b194e881b9bdd081c185d5cd95960621b604482015290519081900360640190fd5b60408051694f574e45525f524f4c4560b01b8152905190819003600a019020610b0790610882611cc9565b610b425760405162461bcd60e51b8152600401808060200182810382526043815260200180612d046043913960600191505060405180910390fd5b6001600160a01b038116610b875760405162461bcd60e51b8152600401808060200182810382526030815260200180612bc26030913960400191505060405180910390fd5b60fc546001600160a01b0382811691161415610bd45760405162461bcd60e51b815260040180806020018281038252603c815260200180612b86603c913960400191505060405180910390fd5b60fc80546001600160a01b0319166001600160a01b0392909216919091179055565b60c95460ff16610c3b576040805162461bcd60e51b815260206004820152601f6024820152600080516020612b31833981519152604482015290519081900360640190fd5b60c9805460ff1916905560975460ff1615610c90576040805162461bcd60e51b815260206004820152601060248201526f14185d5cd8589b194e881c185d5cd95960821b604482015290519081900360640190fd5b6040805177524557415244535f4449535452494255544f525f524f4c4560401b81529051908190036018019020610cc990610882611cc9565b610d045760405162461bcd60e51b815260040180806020018281038252603a815260200180613127603a913960400191505060405180910390fd5b610d0c611e49565b60c9805460ff19166001179055565b604080516a5041555345525f524f4c4560a81b8152905190819003600b019020610d4790610882611cc9565b610d825760405162461bcd60e51b81526004018080602001828103825260338152602001806131946033913960400191505060405180910390fd5b610a616120da565b6000828152606560205260408120610da8908363ffffffff61215b16565b90505b92915050565b6000828152606560205260408120610da8908363ffffffff61216716565b6101015481565b600081565b60c95460ff16610e20576040805162461bcd60e51b815260206004820152601f6024820152600080516020612b31833981519152604482015290519081900360640190fd5b60c9805460ff1916905560975460ff1615610e75576040805162461bcd60e51b815260206004820152601060248201526f14185d5cd8589b194e881c185d5cd95960821b604482015290519081900360640190fd5b33600090815261010460205260409020600281015415610ec65760405162461bcd60e51b81526004018080602001828103825260338152602001806131616033913960400191505060405180910390fd5b80546040805160c081018252828152600184015460208201526002840154918101919091526003830154606082015260048301546080820152600583015460ff16151560a0820152600090610f1a9061217c565b90506000610f3e82610f32858863ffffffff6121ec16565b9063ffffffff6121ec16565b9050828111610f7e5760405162461bcd60e51b8152600401808060200182810382526036815260200180612c2a6036913960400191505060405180910390fd5b6000610fa2610f93838663ffffffff611c4b16565b60fe549063ffffffff6121ec16565b905060fd54811115610fe55760405162461bcd60e51b815260040180806020018281038252603d815260200180612eec603d913960400191505060405180910390fd5b8185554260018087019190915560058601805460ff1916909117905561010054600386015560fe81905560fb54604080516323b872dd60e01b81523360048201523060248201526044810189905290516001600160a01b03909216916323b872dd916064808201926020929091908290030181600087803b15801561106957600080fd5b505af115801561107d573d6000803e3d6000fd5b505050506040513d602081101561109357600080fd5b50516110d05760405162461bcd60e51b81526004018080602001828103825260388152602001806130746038913960400191505060405180910390fd5b82156111b457610102546110ea908463ffffffff6121ec16565b6101025560fb5460fc54604080516323b872dd60e01b81526001600160a01b03928316600482015230602482015260448101879052905191909216916323b872dd9160648083019260209291908290030181600087803b15801561114d57600080fd5b505af1158015611161573d6000803e3d6000fd5b505050506040513d602081101561117757600080fd5b50516111b45760405162461bcd60e51b8152600401808060200182810382526038815260200180612bf26038913960400191505060405180910390fd5b337f0a7bb2e28cc4698aac06db79cf9163bfcc20719286cf59fa7d492ceda1b8edc26111e6888663ffffffff6121ec16565b60408051918252519081900360200190a2505060c9805460ff1916600117905550505050565b60fc546001600160a01b031681565b6101025481565b60c95460ff16611267576040805162461bcd60e51b815260206004820152601f6024820152600080516020612b31833981519152604482015290519081900360640190fd5b60c9805460ff1916905560975460ff16156112bc576040805162461bcd60e51b815260206004820152601060248201526f14185d5cd8589b194e881c185d5cd95960821b604482015290519081900360640190fd5b33600090815261010460205260409020600581015460ff1680156112e05750805415155b61131b5760405162461bcd60e51b815260040180806020018281038252603f8152602001806131c7603f913960400191505060405180910390fd5b60028101541561135c5760405162461bcd60e51b815260040180806020018281038252603e8152602001806130e9603e913960400191505060405180910390fd5b6040805160c08101825282548152600183015460208201526002830154918101919091526003820154606082015260048201546080820152600582015460ff16151560a08201526000906113af9061217c565b9050600081116113f05760405162461bcd60e51b815260040180806020018281038252603e81526020018061323c603e913960400191505060405180910390fd5b6101005460038301556101025461140d908263ffffffff6121ec16565b6101025560fb5460fc54604080516323b872dd60e01b81526001600160a01b03928316600482015233602482015260448101859052905191909216916323b872dd9160648083019260209291908290030181600087803b15801561147057600080fd5b505af1158015611484573d6000803e3d6000fd5b505050506040513d602081101561149a57600080fd5b50516114d75760405162461bcd60e51b815260040180806020018281038252604881526020018061302c6048913960600191505060405180910390fd5b60408051828152905133917f8a43c4352486ec339f487f64af78ca5cbf06cd47833f073d3baf3a193e503161919081900360200190a2505060c9805460ff19166001179055565b6000818152606560205260408120610dab90612246565b60fe5481565b60008281526065602052604090206002015461155990610882611cc9565b6109e85760405162461bcd60e51b8152600401808060200182810382526030815260200180612cd46030913960400191505060405180910390fd5b836115a7816001600160a01b0316611c8d565b6115e25760405162461bcd60e51b8152600401808060200182810382526034815260200180612d476034913960400191505060405180910390fd5b6115ee85858585612251565b5050505050565b6101035481565b60ff5481565b6001600160a01b0381166000908152610104602052604081206005015481908190819060ff16801561164c57506001600160a01b0385166000908152610104602052604090205415155b6116875760405162461bcd60e51b81526004018080602001828103825260368152602001806132066036913960400191505060405180910390fd5b61168f612a61565b506001600160a01b03851660009081526101046020908152604091829020825160c081018452815480825260018301549382018490526002830154948201859052600383015460608301526004830154608083015260059092015460ff16151560a0820152929091906117018461217c565b9450945094509450509193509193565b60c95460ff16611756576040805162461bcd60e51b815260206004820152601f6024820152600080516020612b31833981519152604482015290519081900360640190fd5b60c9805460ff1916905560975460ff16156117ab576040805162461bcd60e51b815260206004820152601060248201526f14185d5cd8589b194e881c185d5cd95960821b604482015290519081900360640190fd5b6117b3612a61565b503360009081526101046020908152604091829020825160c08101845281548152600182015492810192909252600281015492820192909252600382015460608201526004820154608082015260059091015460ff16151560a0820152611818612a99565b503360009081526101056020908152604091829020825180840184528154815260019091015491810191909152908201511515806118595750602081015115155b6118945760405162461bcd60e51b815260040180806020018281038252602d815260200180612dcb602d913960400191505060405180910390fd5b8160a0015180156118a55750815115155b6118e05760405162461bcd60e51b8152600401808060200182810382526035815260200180612b516035913960400191505060405180910390fd5b60006201518083604001514203816118f457fe5b0490508060ff5411156119385760405162461bcd60e51b815260040180806020018281038252602c815260200180612ad6602c913960400191505060405180910390fd5b600082602001516000141561194e578351611954565b82602001515b905060006119618561217c565b905081856000015110156119a65760405162461bcd60e51b815260040180806020018281038252604c815260200180612fe0604c913960600191505060405180910390fd5b84518210156119f75733600090815261010460205260409020546119d0908363ffffffff611c4b16565b33600090815261010460205260408120918255600282015561010054600390910155611a33565b336000908152610104602052604081208181556001810182905560028101829055600381018290556004810191909155600501805460ff191690555b60fb546040805163a9059cbb60e01b81523360048201526024810185905290516001600160a01b039092169163a9059cbb916044808201926020929091908290030181600087803b158015611a8757600080fd5b505af1158015611a9b573d6000803e3d6000fd5b505050506040513d6020811015611ab157600080fd5b5051611aee5760405162461bcd60e51b8152600401808060200182810382526047815260200180612ea56047913960600191505060405180910390fd5b8015611bd25761010254611b08908263ffffffff6121ec16565b6101025560fb5460fc54604080516323b872dd60e01b81526001600160a01b03928316600482015233602482015260448101859052905191909216916323b872dd9160648083019260209291908290030181600087803b158015611b6b57600080fd5b505af1158015611b7f573d6000803e3d6000fd5b505050506040513d6020811015611b9557600080fd5b5051611bd25760405162461bcd60e51b815260040180806020018281038252603e815260200180612df8603e913960400191505060405180910390fd5b336000818152610105602090815260408083206001810184905592909255815185815290810184905281517ff6c0fc94edc8fd2a37514f1fb85af88fca386b00a54127b912273e6b83322e08929181900390910190a2505060c9805460ff19166001179055505050565b60fb546001600160a01b031681565b6000610da883836040518060400160405280601e81526020017f536166654d6174683a207375627472616374696f6e206f766572666c6f7700008152506123e0565b6000813f7fc5d2460186f7233c927e7db2dcc703c0e500b653ca82273b7bfad8045d85a470818114801590611cc157508115155b949350505050565b3390565b6000828152606560205260409020611ceb908263ffffffff61247716565b1561098d57611cf8611cc9565b6001600160a01b0316816001600160a01b0316837f2f8788117e7eff1d82e926ec794901d17c78024a50270940304540a733656f0d60405160405180910390a45050565b6000828152606560205260409020611d5a908263ffffffff61248c16565b1561098d57611d67611cc9565b6001600160a01b0316816001600160a01b0316837ff6391f5c32d9c69d2a47ea670b442974b53935d1edc7fd64eb21e047a839171b60405160405180910390a45050565b60975460ff16611df9576040805162461bcd60e51b815260206004820152601460248201527314185d5cd8589b194e881b9bdd081c185d5cd95960621b604482015290519081900360640190fd5b6097805460ff191690557f5db9ee0a495bf2e6ff9c91a7834c1ba4fdd244a5e8aa4e537bd38aeae4b073aa611e2c611cc9565b604080516001600160a01b039092168252519081900360200190a1565b60975460ff1615611e94576040805162461bcd60e51b815260206004820152601060248201526f14185d5cd8589b194e881c185d5cd95960821b604482015290519081900360640190fd5b6040805177524557415244535f4449535452494255544f525f524f4c4560401b81529051908190036018019020611ecd90610882611cc9565b611f085760405162461bcd60e51b815260040180806020018281038252603a815260200180613127603a913960400191505060405180910390fd5b600060fe5411611f495760405162461bcd60e51b815260040180806020018281038252602f815260200180612fb1602f913960400191505060405180910390fd5b60fb5460fc54604080516370a0823160e01b81526001600160a01b039283166004820152905160009392909216916370a0823191602480820192602092909190829003018186803b158015611f9d57600080fd5b505afa158015611fb1573d6000803e3d6000fd5b505050506040513d6020811015611fc757600080fd5b50519050806120075760405162461bcd60e51b815260040180806020018281038252602b815260200180612f86602b913960400191505060405180910390fd5b60006120326101015461202661010254856121ec90919063ffffffff16565b9063ffffffff611c4b16565b9050600061206360fe54612057670de0b6b3a7640000856124a190919063ffffffff16565b9063ffffffff6124fa16565b6101005490915061207a908263ffffffff6121ec16565b610100556101018390556000610102556101035461209e908363ffffffff6121ec16565b610103556040805183815290517f6d1c76d614228b523baa4dcd9539e2c713b54ff4ab3ff2d1627e7f6cd32be4429181900360200190a1505050565b60975460ff1615612125576040805162461bcd60e51b815260206004820152601060248201526f14185d5cd8589b194e881c185d5cd95960821b604482015290519081900360640190fd5b6097805460ff191660011790557f62e78cea01bee320cd4e420270b5ea74000d11b0c9f74754ebdbfc544b05a258611e2c611cc9565b6000610da8838361253c565b6000610da8836001600160a01b0384166125a0565b604081015160009081906121a9576060830151610100546121a29163ffffffff611c4b16565b90506121c5565b606083015160808401516121c29163ffffffff611c4b16565b90505b82516121e590670de0b6b3a764000090612057908463ffffffff6124a116565b9392505050565b600082820183811015610da8576040805162461bcd60e51b815260206004820152601b60248201527f536166654d6174683a206164646974696f6e206f766572666c6f770000000000604482015290519081900360640190fd5b6000610dab826125b8565b600054610100900460ff168061226a575061226a6125bc565b80612278575060005460ff16155b6122b35760405162461bcd60e51b815260040180806020018281038252602e815260200180612e77602e913960400191505060405180910390fd5b600054610100900460ff161580156122de576000805460ff1961ff0019909116610100171660011790555b6001600160a01b0385166123235760405162461bcd60e51b8152600401808060200182810382526027815260200180612f5f6027913960400191505060405180910390fd5b600083116123625760405162461bcd60e51b8152600401808060200182810382526036815260200180612f296036913960400191505060405180910390fd5b61236a6125c2565b6123726125c2565b61237a612664565b61238261270f565b61238a6127bd565b612392610d1b565b61239b84610a8e565b6123a36109f2565b60fb80546001600160a01b0319166001600160a01b03871617905560fd83905560ff82905580156115ee576000805461ff00191690555050505050565b6000818484111561246f5760405162461bcd60e51b81526004018080602001828103825283818151815260200191508051906020019080838360005b8381101561243457818101518382015260200161241c565b50505050905090810190601f1680156124615780820380516001836020036101000a031916815260200191505b509250505060405180910390fd5b505050900390565b6000610da8836001600160a01b0384166128ec565b6000610da8836001600160a01b038416612936565b6000826124b057506000610dab565b828202828482816124bd57fe5b0414610da85760405162461bcd60e51b8152600401808060200182810382526021815260200180612d7b6021913960400191505060405180910390fd5b6000610da883836040518060400160405280601a81526020017f536166654d6174683a206469766973696f6e206279207a65726f0000000000008152506129fc565b8154600090821061257e5760405162461bcd60e51b8152600401808060200182810382526022815260200180612ab46022913960400191505060405180910390fd5b82600001828154811061258d57fe5b9060005260206000200154905092915050565b60009081526001919091016020526040902054151590565b5490565b303b1590565b600054610100900460ff16806125db57506125db6125bc565b806125e9575060005460ff16155b6126245760405162461bcd60e51b815260040180806020018281038252602e815260200180612e77602e913960400191505060405180910390fd5b600054610100900460ff1615801561264f576000805460ff1961ff0019909116610100171660011790555b8015612661576000805461ff00191690555b50565b600054610100900460ff168061267d575061267d6125bc565b8061268b575060005460ff16155b6126c65760405162461bcd60e51b815260040180806020018281038252602e815260200180612e77602e913960400191505060405180910390fd5b600054610100900460ff161580156126f1576000805460ff1961ff0019909116610100171660011790555b6097805460ff191690558015612661576000805461ff001916905550565b600054610100900460ff168061272857506127286125bc565b80612736575060005460ff16155b6127715760405162461bcd60e51b815260040180806020018281038252602e815260200180612e77602e913960400191505060405180910390fd5b600054610100900460ff1615801561279c576000805460ff1961ff0019909116610100171660011790555b60c9805460ff191660011790558015612661576000805461ff001916905550565b600054610100900460ff16806127d657506127d66125bc565b806127e4575060005460ff16155b61281f5760405162461bcd60e51b815260040180806020018281038252602e815260200180612e77602e913960400191505060405180910390fd5b600054610100900460ff1615801561284a576000805460ff1961ff0019909116610100171660011790555b61285c6000612857611cc9565b610983565b604080516a5041555345525f524f4c4560a81b8152905190819003600b01902061288890612857611cc9565b60408051694f574e45525f524f4c4560b01b8152905190819003600a0190206128b390612857611cc9565b6040805177524557415244535f4449535452494255544f525f524f4c4560401b8152905190819003601801902061264f90612857611cc9565b60006128f883836125a0565b61292e57508154600181810184556000848152602080822090930184905584548482528286019093526040902091909155610dab565b506000610dab565b600081815260018301602052604081205480156129f2578354600019808301919081019060009087908390811061296957fe5b906000526020600020015490508087600001848154811061298657fe5b6000918252602080832090910192909255828152600189810190925260409020908401905586548790806129b657fe5b60019003818190600052602060002001600090559055866001016000878152602001908152602001600020600090556001945050505050610dab565b6000915050610dab565b60008183612a4b5760405162461bcd60e51b815260206004820181815283516024840152835190928392604490910191908501908083836000831561243457818101518382015260200161241c565b506000838581612a5757fe5b0495945050505050565b6040518060c0016040528060008152602001600081526020016000815260200160008152602001600081526020016000151581525090565b60405180604001604052806000815260200160008152509056fe456e756d657261626c655365743a20696e646578206f7574206f6620626f756e64735b57697468647261775d2054686520756e7374616b696e6720706572696f6420646964206e6f742070617373416363657373436f6e74726f6c3a2073656e646572206d75737420626520616e2061646d696e20746f206772616e745265656e7472616e637947756172643a207265656e7472616e742063616c6c005b57697468647261775d205468657265206973206e6f207374616b65206465706f73697420666f722074686973206163636f756e745b56616c69646174696f6e5d205f726577617264734164647265737320697320616c72656164792073657420746f20676976656e20616464726573735b56616c69646174696f6e5d205f726577617264734164647265737320697320746865207a65726f20616464726573735b4465706f7369745d20536f6d657468696e672077656e742077726f6e67207768696c65207472616e7366657272696e67207265776172645b56616c69646174696f6e5d20546865207374616b65206465706f7369742068617320746f206265206c6172676572207468616e20305b496e697469617465205769746864726177616c5d20596f75206861766520616c726561647920696e6974696174656420746865207769746864726177616c537761705374616b696e67436f6e74726163743a206d75737420686176652070617573657220726f6c6520746f20756e7061757365416363657373436f6e74726f6c3a2073656e646572206d75737420626520616e2061646d696e20746f207265766f6b655b56616c69646174696f6e5d205468652063616c6c6572206d7573742068617665206f776e657220726f6c6520746f20736574207265776172647320616464726573735b56616c69646174696f6e5d20546865206164647265737320646f6573206e6f7420636f6e7461696e206120636f6e7472616374536166654d6174683a206d756c7469706c69636174696f6e206f766572666c6f775b496e697469617465205769746864726177616c5d20496e76616c6964207769746864726177616c20616d6f756e745b57697468647261775d20576974686472617720616d6f756e74206973206e6f7420696e697469616c697a65645b57697468647261775d20536f6d657468696e672077656e742077726f6e67207768696c65207472616e7366657272696e6720796f7572207265776172645b56616c69646174696f6e5d205468652063616c6c6572206d7573742068617665206f776e657220726f6c6520746f2073657420746f6b656e2061646472657373436f6e747261637420696e7374616e63652068617320616c7265616479206265656e20696e697469616c697a65645b57697468647261775d20536f6d657468696e672077656e742077726f6e67207768696c65207472616e7366657272696e6720796f757220696e697469616c206465706f7369745b4465706f7369745d20596f7572206465706f73697420776f756c6420657863656564207468652063757272656e74207374616b696e67206c696d69745b56616c69646174696f6e5d205f6d61785374616b696e67416d6f756e742068617320746f206265206c6172676572207468616e20305b56616c69646174696f6e5d20496e76616c6964207377617020746f6b656e20616464726573735b56616c69646174696f6e5d206e6f7420656e6f756768207265776172647320616363756d756c617465645b56616c69646174696f6e5d206e6f7420656e6f75676820746f74616c207374616b6520616363756d756c617465645b77697468647261775d2052656d61696e696e67207374616b656465706f73697420616d6f756e74206d75737420626520686967686572207468616e20776974686472617720616d6f756e745b52657761726473205769746864726177616c5d20536f6d657468696e672077656e742077726f6e67207768696c65207472616e7366657272696e6720796f7572207265776172645b4465706f7369745d20536f6d657468696e672077656e742077726f6e6720647572696e672074686520746f6b656e207472616e736665725b496e697469617465205769746864726177616c5d20576974686472617720616d6f756e742065786365656420746865207374616b6520616d6f756e745b52657761726473205769746864726177616c5d20596f7520616c726561647920696e69746961746564207468652066756c6c207769746864726177616c5b56616c69646174696f6e5d205468652063616c6c6572206d75737420686176652072657761726473206469737472696275746f7220726f6c655b4465706f7369745d20596f75206861766520616c726561647920696e6974696174656420746865207769746864726177616c537761705374616b696e67436f6e74726163743a206d75737420686176652070617573657220726f6c6520746f2070617573655b52657761726473205769746864726177616c5d205468657265206973206e6f207374616b65206465706f73697420666f722074686973206163636f756e745b56616c69646174696f6e5d2054686973206163636f756e7420646f65736e277420686176652061207374616b65206465706f7369745b52657761726473205769746864726177616c5d205468652072657761726420616d6f756e742068617320746f206265206c6172676572207468616e20305b496e697469617465205769746864726177616c5d205468657265206973206e6f207374616b65206465706f73697420666f722074686973206163636f756e74416363657373436f6e74726f6c3a2063616e206f6e6c792072656e6f756e636520726f6c657320666f722073656c66a2646970667358221220a724f8708fc6849b8dafa26a796038cce511e5a0a4e47dd293b9392909e6c20b64736f6c63430006020033","opcodes":"PUSH1 0x80 PUSH1 0x40 MSTORE CALLVALUE DUP1 ISZERO PUSH2 0x10 JUMPI PUSH1 0x0 DUP1 REVERT JUMPDEST POP PUSH2 0x331E DUP1 PUSH2 0x20 PUSH1 0x0 CODECOPY PUSH1 0x0 RETURN INVALID PUSH1 0x80 PUSH1 0x40 MSTORE CALLVALUE DUP1 ISZERO PUSH2 0x10 JUMPI PUSH1 0x0 DUP1 REVERT JUMPDEST POP PUSH1 0x4 CALLDATASIZE LT PUSH2 0x1CF JUMPI PUSH1 0x0 CALLDATALOAD PUSH1 0xE0 SHR DUP1 PUSH4 0x9C1454D4 GT PUSH2 0x104 JUMPI DUP1 PUSH4 0xCE4843E9 GT PUSH2 0xA2 JUMPI DUP1 PUSH4 0xF21C783B GT PUSH2 0x71 JUMPI DUP1 PUSH4 0xF21C783B EQ PUSH2 0x4C4 JUMPI DUP1 PUSH4 0xF41322AC EQ PUSH2 0x4CC JUMPI DUP1 PUSH4 0xFA45AA00 EQ PUSH2 0x518 JUMPI DUP1 PUSH4 0xFC0C546A EQ PUSH2 0x520 JUMPI PUSH2 0x1CF JUMP JUMPDEST DUP1 PUSH4 0xCE4843E9 EQ PUSH2 0x44C JUMPI DUP1 PUSH4 0xD547741F EQ PUSH2 0x454 JUMPI DUP1 PUSH4 0xEB990C59 EQ PUSH2 0x480 JUMPI DUP1 PUSH4 0xEE172546 EQ PUSH2 0x4BC JUMPI PUSH2 0x1CF JUMP JUMPDEST DUP1 PUSH4 0xC0973EED GT PUSH2 0xDE JUMPI DUP1 PUSH4 0xC0973EED EQ PUSH2 0x417 JUMPI DUP1 PUSH4 0xC413D100 EQ PUSH2 0x41F JUMPI DUP1 PUSH4 0xC7B8981C EQ PUSH2 0x427 JUMPI DUP1 PUSH4 0xCA15C873 EQ PUSH2 0x42F JUMPI PUSH2 0x1CF JUMP JUMPDEST DUP1 PUSH4 0x9C1454D4 EQ PUSH2 0x3EA JUMPI DUP1 PUSH4 0xA217FDDF EQ PUSH2 0x3F2 JUMPI DUP1 PUSH4 0xB6B55F25 EQ PUSH2 0x3FA JUMPI PUSH2 0x1CF JUMP JUMPDEST DUP1 PUSH4 0x54FD4D50 GT PUSH2 0x171 JUMPI DUP1 PUSH4 0x6F4A2CD0 GT PUSH2 0x14B JUMPI DUP1 PUSH4 0x6F4A2CD0 EQ PUSH2 0x36F JUMPI DUP1 PUSH4 0x8456CB59 EQ PUSH2 0x377 JUMPI DUP1 PUSH4 0x9010D07C EQ PUSH2 0x37F JUMPI DUP1 PUSH4 0x91D14854 EQ PUSH2 0x3BE JUMPI PUSH2 0x1CF JUMP JUMPDEST DUP1 PUSH4 0x54FD4D50 EQ PUSH2 0x2B0 JUMPI DUP1 PUSH4 0x5C975ABB EQ PUSH2 0x32D JUMPI DUP1 PUSH4 0x5E00E679 EQ PUSH2 0x349 JUMPI PUSH2 0x1CF JUMP JUMPDEST DUP1 PUSH4 0x2F2FF15D GT PUSH2 0x1AD JUMPI DUP1 PUSH4 0x2F2FF15D EQ PUSH2 0x248 JUMPI DUP1 PUSH4 0x36568ABE EQ PUSH2 0x274 JUMPI DUP1 PUSH4 0x3F4BA83A EQ PUSH2 0x2A0 JUMPI DUP1 PUSH4 0x4D5D0806 EQ PUSH2 0x2A8 JUMPI PUSH2 0x1CF JUMP JUMPDEST DUP1 PUSH4 0x12EDDE5E EQ PUSH2 0x1D4 JUMPI DUP1 PUSH4 0x248A9CA3 EQ PUSH2 0x1F3 JUMPI DUP1 PUSH4 0x26A4E8D2 EQ PUSH2 0x222 JUMPI JUMPDEST PUSH1 0x0 DUP1 REVERT JUMPDEST PUSH2 0x1F1 PUSH1 0x4 DUP1 CALLDATASIZE SUB PUSH1 0x20 DUP2 LT ISZERO PUSH2 0x1EA JUMPI PUSH1 0x0 DUP1 REVERT JUMPDEST POP CALLDATALOAD PUSH2 0x528 JUMP JUMPDEST STOP JUMPDEST PUSH2 0x210 PUSH1 0x4 DUP1 CALLDATASIZE SUB PUSH1 0x20 DUP2 LT ISZERO PUSH2 0x209 JUMPI PUSH1 0x0 DUP1 REVERT JUMPDEST POP CALLDATALOAD PUSH2 0x7A6 JUMP JUMPDEST PUSH1 0x40 DUP1 MLOAD SWAP2 DUP3 MSTORE MLOAD SWAP1 DUP2 SWAP1 SUB PUSH1 0x20 ADD SWAP1 RETURN JUMPDEST PUSH2 0x1F1 PUSH1 0x4 DUP1 CALLDATASIZE SUB PUSH1 0x20 DUP2 LT ISZERO PUSH2 0x238 JUMPI PUSH1 0x0 DUP1 REVERT JUMPDEST POP CALLDATALOAD PUSH1 0x1 PUSH1 0x1 PUSH1 0xA0 SHL SUB AND PUSH2 0x7BB JUMP JUMPDEST PUSH2 0x1F1 PUSH1 0x4 DUP1 CALLDATASIZE SUB PUSH1 0x40 DUP2 LT ISZERO PUSH2 0x25E JUMPI PUSH1 0x0 DUP1 REVERT JUMPDEST POP DUP1 CALLDATALOAD SWAP1 PUSH1 0x20 ADD CALLDATALOAD PUSH1 0x1 PUSH1 0x1 PUSH1 0xA0 SHL SUB AND PUSH2 0x92A JUMP JUMPDEST PUSH2 0x1F1 PUSH1 0x4 DUP1 CALLDATASIZE SUB PUSH1 0x40 DUP2 LT ISZERO PUSH2 0x28A JUMPI PUSH1 0x0 DUP1 REVERT JUMPDEST POP DUP1 CALLDATALOAD SWAP1 PUSH1 0x20 ADD CALLDATALOAD PUSH1 0x1 PUSH1 0x1 PUSH1 0xA0 SHL SUB AND PUSH2 0x991 JUMP JUMPDEST PUSH2 0x1F1 PUSH2 0x9F2 JUMP JUMPDEST PUSH2 0x210 PUSH2 0xA63 JUMP JUMPDEST PUSH2 0x2B8 PUSH2 0xA69 JUMP JUMPDEST PUSH1 0x40 DUP1 MLOAD PUSH1 0x20 DUP1 DUP3 MSTORE DUP4 MLOAD DUP2 DUP4 ADD MSTORE DUP4 MLOAD SWAP2 SWAP3 DUP4 SWAP3 SWAP1 DUP4 ADD SWAP2 DUP6 ADD SWAP1 DUP1 DUP4 DUP4 PUSH1 0x0 JUMPDEST DUP4 DUP2 LT ISZERO PUSH2 0x2F2 JUMPI DUP2 DUP2 ADD MLOAD DUP4 DUP3 ADD MSTORE PUSH1 0x20 ADD PUSH2 0x2DA JUMP JUMPDEST POP POP POP POP SWAP1 POP SWAP1 DUP2 ADD SWAP1 PUSH1 0x1F AND DUP1 ISZERO PUSH2 0x31F JUMPI DUP1 DUP3 SUB DUP1 MLOAD PUSH1 0x1 DUP4 PUSH1 0x20 SUB PUSH2 0x100 EXP SUB NOT AND DUP2 MSTORE PUSH1 0x20 ADD SWAP2 POP JUMPDEST POP SWAP3 POP POP POP PUSH1 0x40 MLOAD DUP1 SWAP2 SUB SWAP1 RETURN JUMPDEST PUSH2 0x335 PUSH2 0xA85 JUMP JUMPDEST PUSH1 0x40 DUP1 MLOAD SWAP2 ISZERO ISZERO DUP3 MSTORE MLOAD SWAP1 DUP2 SWAP1 SUB PUSH1 0x20 ADD SWAP1 RETURN JUMPDEST PUSH2 0x1F1 PUSH1 0x4 DUP1 CALLDATASIZE SUB PUSH1 0x20 DUP2 LT ISZERO PUSH2 0x35F JUMPI PUSH1 0x0 DUP1 REVERT JUMPDEST POP CALLDATALOAD PUSH1 0x1 PUSH1 0x1 PUSH1 0xA0 SHL SUB AND PUSH2 0xA8E JUMP JUMPDEST PUSH2 0x1F1 PUSH2 0xBF6 JUMP JUMPDEST PUSH2 0x1F1 PUSH2 0xD1B JUMP JUMPDEST PUSH2 0x3A2 PUSH1 0x4 DUP1 CALLDATASIZE SUB PUSH1 0x40 DUP2 LT ISZERO PUSH2 0x395 JUMPI PUSH1 0x0 DUP1 REVERT JUMPDEST POP DUP1 CALLDATALOAD SWAP1 PUSH1 0x20 ADD CALLDATALOAD PUSH2 0xD8A JUMP JUMPDEST PUSH1 0x40 DUP1 MLOAD PUSH1 0x1 PUSH1 0x1 PUSH1 0xA0 SHL SUB SWAP1 SWAP3 AND DUP3 MSTORE MLOAD SWAP1 DUP2 SWAP1 SUB PUSH1 0x20 ADD SWAP1 RETURN JUMPDEST PUSH2 0x335 PUSH1 0x4 DUP1 CALLDATASIZE SUB PUSH1 0x40 DUP2 LT ISZERO PUSH2 0x3D4 JUMPI PUSH1 0x0 DUP1 REVERT JUMPDEST POP DUP1 CALLDATALOAD SWAP1 PUSH1 0x20 ADD CALLDATALOAD PUSH1 0x1 PUSH1 0x1 PUSH1 0xA0 SHL SUB AND PUSH2 0xDB1 JUMP JUMPDEST PUSH2 0x210 PUSH2 0xDCF JUMP JUMPDEST PUSH2 0x210 PUSH2 0xDD6 JUMP JUMPDEST PUSH2 0x1F1 PUSH1 0x4 DUP1 CALLDATASIZE SUB PUSH1 0x20 DUP2 LT ISZERO PUSH2 0x410 JUMPI PUSH1 0x0 DUP1 REVERT JUMPDEST POP CALLDATALOAD PUSH2 0xDDB JUMP JUMPDEST PUSH2 0x3A2 PUSH2 0x120C JUMP JUMPDEST PUSH2 0x210 PUSH2 0x121B JUMP JUMPDEST PUSH2 0x1F1 PUSH2 0x1222 JUMP JUMPDEST PUSH2 0x210 PUSH1 0x4 DUP1 CALLDATASIZE SUB PUSH1 0x20 DUP2 LT ISZERO PUSH2 0x445 JUMPI PUSH1 0x0 DUP1 REVERT JUMPDEST POP CALLDATALOAD PUSH2 0x151E JUMP JUMPDEST PUSH2 0x210 PUSH2 0x1535 JUMP JUMPDEST PUSH2 0x1F1 PUSH1 0x4 DUP1 CALLDATASIZE SUB PUSH1 0x40 DUP2 LT ISZERO PUSH2 0x46A JUMPI PUSH1 0x0 DUP1 REVERT JUMPDEST POP DUP1 CALLDATALOAD SWAP1 PUSH1 0x20 ADD CALLDATALOAD PUSH1 0x1 PUSH1 0x1 PUSH1 0xA0 SHL SUB AND PUSH2 0x153B JUMP JUMPDEST PUSH2 0x1F1 PUSH1 0x4 DUP1 CALLDATASIZE SUB PUSH1 0x80 DUP2 LT ISZERO PUSH2 0x496 JUMPI PUSH1 0x0 DUP1 REVERT JUMPDEST POP PUSH1 0x1 PUSH1 0x1 PUSH1 0xA0 SHL SUB DUP2 CALLDATALOAD DUP2 AND SWAP2 PUSH1 0x20 DUP2 ADD CALLDATALOAD SWAP1 SWAP2 AND SWAP1 PUSH1 0x40 DUP2 ADD CALLDATALOAD SWAP1 PUSH1 0x60 ADD CALLDATALOAD PUSH2 0x1594 JUMP JUMPDEST PUSH2 0x210 PUSH2 0x15F5 JUMP JUMPDEST PUSH2 0x210 PUSH2 0x15FC JUMP JUMPDEST PUSH2 0x4F2 PUSH1 0x4 DUP1 CALLDATASIZE SUB PUSH1 0x20 DUP2 LT ISZERO PUSH2 0x4E2 JUMPI PUSH1 0x0 DUP1 REVERT JUMPDEST POP CALLDATALOAD PUSH1 0x1 PUSH1 0x1 PUSH1 0xA0 SHL SUB AND PUSH2 0x1602 JUMP JUMPDEST PUSH1 0x40 DUP1 MLOAD SWAP5 DUP6 MSTORE PUSH1 0x20 DUP6 ADD SWAP4 SWAP1 SWAP4 MSTORE DUP4 DUP4 ADD SWAP2 SWAP1 SWAP2 MSTORE PUSH1 0x60 DUP4 ADD MSTORE MLOAD SWAP1 DUP2 SWAP1 SUB PUSH1 0x80 ADD SWAP1 RETURN JUMPDEST PUSH2 0x1F1 PUSH2 0x1711 JUMP JUMPDEST PUSH2 0x3A2 PUSH2 0x1C3C JUMP JUMPDEST PUSH1 0xC9 SLOAD PUSH1 0xFF AND PUSH2 0x56D JUMPI PUSH1 0x40 DUP1 MLOAD PUSH3 0x461BCD PUSH1 0xE5 SHL DUP2 MSTORE PUSH1 0x20 PUSH1 0x4 DUP3 ADD MSTORE PUSH1 0x1F PUSH1 0x24 DUP3 ADD MSTORE PUSH1 0x0 DUP1 MLOAD PUSH1 0x20 PUSH2 0x2B31 DUP4 CODECOPY DUP2 MLOAD SWAP2 MSTORE PUSH1 0x44 DUP3 ADD MSTORE SWAP1 MLOAD SWAP1 DUP2 SWAP1 SUB PUSH1 0x64 ADD SWAP1 REVERT JUMPDEST PUSH1 0xC9 DUP1 SLOAD PUSH1 0xFF NOT AND SWAP1 SSTORE PUSH1 0x97 SLOAD PUSH1 0xFF AND ISZERO PUSH2 0x5C2 JUMPI PUSH1 0x40 DUP1 MLOAD PUSH3 0x461BCD PUSH1 0xE5 SHL DUP2 MSTORE PUSH1 0x20 PUSH1 0x4 DUP3 ADD MSTORE PUSH1 0x10 PUSH1 0x24 DUP3 ADD MSTORE PUSH16 0x14185D5CD8589B194E881C185D5CD959 PUSH1 0x82 SHL PUSH1 0x44 DUP3 ADD MSTORE SWAP1 MLOAD SWAP1 DUP2 SWAP1 SUB PUSH1 0x64 ADD SWAP1 REVERT JUMPDEST CALLER PUSH1 0x0 SWAP1 DUP2 MSTORE PUSH2 0x104 PUSH1 0x20 SWAP1 DUP2 MSTORE PUSH1 0x40 DUP1 DUP4 KECCAK256 PUSH2 0x105 SWAP1 SWAP3 MSTORE SWAP1 SWAP2 KECCAK256 DUP3 PUSH2 0x61A JUMPI PUSH1 0x40 MLOAD PUSH3 0x461BCD PUSH1 0xE5 SHL DUP2 MSTORE PUSH1 0x4 ADD DUP1 DUP1 PUSH1 0x20 ADD DUP3 DUP2 SUB DUP3 MSTORE PUSH1 0x2F DUP2 MSTORE PUSH1 0x20 ADD DUP1 PUSH2 0x2D9C PUSH1 0x2F SWAP2 CODECOPY PUSH1 0x40 ADD SWAP2 POP POP PUSH1 0x40 MLOAD DUP1 SWAP2 SUB SWAP1 REVERT JUMPDEST DUP2 SLOAD DUP4 GT ISZERO PUSH2 0x65A JUMPI PUSH1 0x40 MLOAD PUSH3 0x461BCD PUSH1 0xE5 SHL DUP2 MSTORE PUSH1 0x4 ADD DUP1 DUP1 PUSH1 0x20 ADD DUP3 DUP2 SUB DUP3 MSTORE PUSH1 0x3D DUP2 MSTORE PUSH1 0x20 ADD DUP1 PUSH2 0x30AC PUSH1 0x3D SWAP2 CODECOPY PUSH1 0x40 ADD SWAP2 POP POP PUSH1 0x40 MLOAD DUP1 SWAP2 SUB SWAP1 REVERT JUMPDEST PUSH1 0x5 DUP3 ADD SLOAD PUSH1 0xFF AND DUP1 ISZERO PUSH2 0x66E JUMPI POP DUP2 SLOAD ISZERO ISZERO JUMPDEST PUSH2 0x6A9 JUMPI PUSH1 0x40 MLOAD PUSH3 0x461BCD PUSH1 0xE5 SHL DUP2 MSTORE PUSH1 0x4 ADD DUP1 DUP1 PUSH1 0x20 ADD DUP3 DUP2 SUB DUP3 MSTORE PUSH1 0x40 DUP2 MSTORE PUSH1 0x20 ADD DUP1 PUSH2 0x327A PUSH1 0x40 SWAP2 CODECOPY PUSH1 0x40 ADD SWAP2 POP POP PUSH1 0x40 MLOAD DUP1 SWAP2 SUB SWAP1 REVERT JUMPDEST PUSH1 0x2 DUP3 ADD SLOAD ISZERO PUSH2 0x6EA JUMPI PUSH1 0x40 MLOAD PUSH3 0x461BCD PUSH1 0xE5 SHL DUP2 MSTORE PUSH1 0x4 ADD DUP1 DUP1 PUSH1 0x20 ADD DUP3 DUP2 SUB DUP3 MSTORE PUSH1 0x3F DUP2 MSTORE PUSH1 0x20 ADD DUP1 PUSH2 0x2C60 PUSH1 0x3F SWAP2 CODECOPY PUSH1 0x40 ADD SWAP2 POP POP PUSH1 0x40 MLOAD DUP1 SWAP2 SUB SWAP1 REVERT JUMPDEST PUSH1 0x1 DUP2 ADD SLOAD ISZERO PUSH2 0x72B JUMPI PUSH1 0x40 MLOAD PUSH3 0x461BCD PUSH1 0xE5 SHL DUP2 MSTORE PUSH1 0x4 ADD DUP1 DUP1 PUSH1 0x20 ADD DUP3 DUP2 SUB DUP3 MSTORE PUSH1 0x3F DUP2 MSTORE PUSH1 0x20 ADD DUP1 PUSH2 0x2C60 PUSH1 0x3F SWAP2 CODECOPY PUSH1 0x40 ADD SWAP2 POP POP PUSH1 0x40 MLOAD DUP1 SWAP2 SUB SWAP1 REVERT JUMPDEST TIMESTAMP PUSH1 0x2 DUP4 ADD DUP2 SWAP1 SSTORE PUSH2 0x100 SLOAD PUSH1 0x4 DUP5 ADD SSTORE PUSH1 0x1 DUP3 ADD DUP5 SWAP1 SSTORE DUP2 SSTORE PUSH1 0xFE SLOAD PUSH2 0x758 SWAP1 DUP5 PUSH4 0xFFFFFFFF PUSH2 0x1C4B AND JUMP JUMPDEST PUSH1 0xFE SSTORE PUSH1 0x40 DUP1 MLOAD DUP5 DUP2 MSTORE TIMESTAMP PUSH1 0x20 DUP3 ADD MSTORE DUP2 MLOAD CALLER SWAP3 PUSH32 0xF908B12FE0D8DC1FF4FDA115E5BACE3A7AD1AAD889DACA8E638CA0B29F806577 SWAP3 DUP3 SWAP1 SUB ADD SWAP1 LOG2 POP POP PUSH1 0xC9 DUP1 SLOAD PUSH1 0xFF NOT AND PUSH1 0x1 OR SWAP1 SSTORE POP JUMP JUMPDEST PUSH1 0x0 SWAP1 DUP2 MSTORE PUSH1 0x65 PUSH1 0x20 MSTORE PUSH1 0x40 SWAP1 KECCAK256 PUSH1 0x2 ADD SLOAD SWAP1 JUMP JUMPDEST DUP1 PUSH2 0x7CE DUP2 PUSH1 0x1 PUSH1 0x1 PUSH1 0xA0 SHL SUB AND PUSH2 0x1C8D JUMP JUMPDEST PUSH2 0x809 JUMPI PUSH1 0x40 MLOAD PUSH3 0x461BCD PUSH1 0xE5 SHL DUP2 MSTORE PUSH1 0x4 ADD DUP1 DUP1 PUSH1 0x20 ADD DUP3 DUP2 SUB DUP3 MSTORE PUSH1 0x34 DUP2 MSTORE PUSH1 0x20 ADD DUP1 PUSH2 0x2D47 PUSH1 0x34 SWAP2 CODECOPY PUSH1 0x40 ADD SWAP2 POP POP PUSH1 0x40 MLOAD DUP1 SWAP2 SUB SWAP1 REVERT JUMPDEST PUSH1 0x97 SLOAD PUSH1 0xFF AND PUSH2 0x857 JUMPI PUSH1 0x40 DUP1 MLOAD PUSH3 0x461BCD PUSH1 0xE5 SHL DUP2 MSTORE PUSH1 0x20 PUSH1 0x4 DUP3 ADD MSTORE PUSH1 0x14 PUSH1 0x24 DUP3 ADD MSTORE PUSH20 0x14185D5CD8589B194E881B9BDD081C185D5CD959 PUSH1 0x62 SHL PUSH1 0x44 DUP3 ADD MSTORE SWAP1 MLOAD SWAP1 DUP2 SWAP1 SUB PUSH1 0x64 ADD SWAP1 REVERT JUMPDEST PUSH1 0x40 DUP1 MLOAD PUSH10 0x4F574E45525F524F4C45 PUSH1 0xB0 SHL DUP2 MSTORE SWAP1 MLOAD SWAP1 DUP2 SWAP1 SUB PUSH1 0xA ADD SWAP1 KECCAK256 PUSH2 0x887 SWAP1 PUSH2 0x882 PUSH2 0x1CC9 JUMP JUMPDEST PUSH2 0xDB1 JUMP JUMPDEST PUSH2 0x8C2 JUMPI PUSH1 0x40 MLOAD PUSH3 0x461BCD PUSH1 0xE5 SHL DUP2 MSTORE PUSH1 0x4 ADD DUP1 DUP1 PUSH1 0x20 ADD DUP3 DUP2 SUB DUP3 MSTORE PUSH1 0x41 DUP2 MSTORE PUSH1 0x20 ADD DUP1 PUSH2 0x2E36 PUSH1 0x41 SWAP2 CODECOPY PUSH1 0x60 ADD SWAP2 POP POP PUSH1 0x40 MLOAD DUP1 SWAP2 SUB SWAP1 REVERT JUMPDEST PUSH1 0x1 PUSH1 0x1 PUSH1 0xA0 SHL SUB DUP3 AND PUSH2 0x907 JUMPI PUSH1 0x40 MLOAD PUSH3 0x461BCD PUSH1 0xE5 SHL DUP2 MSTORE PUSH1 0x4 ADD DUP1 DUP1 PUSH1 0x20 ADD DUP3 DUP2 SUB DUP3 MSTORE PUSH1 0x27 DUP2 MSTORE PUSH1 0x20 ADD DUP1 PUSH2 0x2F5F PUSH1 0x27 SWAP2 CODECOPY PUSH1 0x40 ADD SWAP2 POP POP PUSH1 0x40 MLOAD DUP1 SWAP2 SUB SWAP1 REVERT JUMPDEST POP PUSH1 0xFB DUP1 SLOAD PUSH1 0x1 PUSH1 0x1 PUSH1 0xA0 SHL SUB NOT AND PUSH1 0x1 PUSH1 0x1 PUSH1 0xA0 SHL SUB SWAP3 SWAP1 SWAP3 AND SWAP2 SWAP1 SWAP2 OR SWAP1 SSTORE JUMP JUMPDEST PUSH1 0x0 DUP3 DUP2 MSTORE PUSH1 0x65 PUSH1 0x20 MSTORE PUSH1 0x40 SWAP1 KECCAK256 PUSH1 0x2 ADD SLOAD PUSH2 0x948 SWAP1 PUSH2 0x882 PUSH2 0x1CC9 JUMP JUMPDEST PUSH2 0x983 JUMPI PUSH1 0x40 MLOAD PUSH3 0x461BCD PUSH1 0xE5 SHL DUP2 MSTORE PUSH1 0x4 ADD DUP1 DUP1 PUSH1 0x20 ADD DUP3 DUP2 SUB DUP3 MSTORE PUSH1 0x2F DUP2 MSTORE PUSH1 0x20 ADD DUP1 PUSH2 0x2B02 PUSH1 0x2F SWAP2 CODECOPY PUSH1 0x40 ADD SWAP2 POP POP PUSH1 0x40 MLOAD DUP1 SWAP2 SUB SWAP1 REVERT JUMPDEST PUSH2 0x98D DUP3 DUP3 PUSH2 0x1CCD JUMP JUMPDEST POP POP JUMP JUMPDEST PUSH2 0x999 PUSH2 0x1CC9 JUMP JUMPDEST PUSH1 0x1 PUSH1 0x1 PUSH1 0xA0 SHL SUB AND DUP2 PUSH1 0x1 PUSH1 0x1 PUSH1 0xA0 SHL SUB AND EQ PUSH2 0x9E8 JUMPI PUSH1 0x40 MLOAD PUSH3 0x461BCD PUSH1 0xE5 SHL DUP2 MSTORE PUSH1 0x4 ADD DUP1 DUP1 PUSH1 0x20 ADD DUP3 DUP2 SUB DUP3 MSTORE PUSH1 0x2F DUP2 MSTORE PUSH1 0x20 ADD DUP1 PUSH2 0x32BA PUSH1 0x2F SWAP2 CODECOPY PUSH1 0x40 ADD SWAP2 POP POP PUSH1 0x40 MLOAD DUP1 SWAP2 SUB SWAP1 REVERT JUMPDEST PUSH2 0x98D DUP3 DUP3 PUSH2 0x1D3C JUMP JUMPDEST PUSH1 0x40 DUP1 MLOAD PUSH11 0x5041555345525F524F4C45 PUSH1 0xA8 SHL DUP2 MSTORE SWAP1 MLOAD SWAP1 DUP2 SWAP1 SUB PUSH1 0xB ADD SWAP1 KECCAK256 PUSH2 0xA1E SWAP1 PUSH2 0x882 PUSH2 0x1CC9 JUMP JUMPDEST PUSH2 0xA59 JUMPI PUSH1 0x40 MLOAD PUSH3 0x461BCD PUSH1 0xE5 SHL DUP2 MSTORE PUSH1 0x4 ADD DUP1 DUP1 PUSH1 0x20 ADD DUP3 DUP2 SUB DUP3 MSTORE PUSH1 0x35 DUP2 MSTORE PUSH1 0x20 ADD DUP1 PUSH2 0x2C9F PUSH1 0x35 SWAP2 CODECOPY PUSH1 0x40 ADD SWAP2 POP POP PUSH1 0x40 MLOAD DUP1 SWAP2 SUB SWAP1 REVERT JUMPDEST PUSH2 0xA61 PUSH2 0x1DAB JUMP JUMPDEST JUMP JUMPDEST PUSH1 0xFD SLOAD DUP2 JUMP JUMPDEST PUSH1 0x40 DUP1 MLOAD DUP1 DUP3 ADD SWAP1 SWAP2 MSTORE PUSH1 0x2 DUP2 MSTORE PUSH2 0x3B19 PUSH1 0xF1 SHL PUSH1 0x20 DUP3 ADD MSTORE SWAP1 JUMP JUMPDEST PUSH1 0x97 SLOAD PUSH1 0xFF AND SWAP1 JUMP JUMPDEST PUSH1 0x97 SLOAD PUSH1 0xFF AND PUSH2 0xADC JUMPI PUSH1 0x40 DUP1 MLOAD PUSH3 0x461BCD PUSH1 0xE5 SHL DUP2 MSTORE PUSH1 0x20 PUSH1 0x4 DUP3 ADD MSTORE PUSH1 0x14 PUSH1 0x24 DUP3 ADD MSTORE PUSH20 0x14185D5CD8589B194E881B9BDD081C185D5CD959 PUSH1 0x62 SHL PUSH1 0x44 DUP3 ADD MSTORE SWAP1 MLOAD SWAP1 DUP2 SWAP1 SUB PUSH1 0x64 ADD SWAP1 REVERT JUMPDEST PUSH1 0x40 DUP1 MLOAD PUSH10 0x4F574E45525F524F4C45 PUSH1 0xB0 SHL DUP2 MSTORE SWAP1 MLOAD SWAP1 DUP2 SWAP1 SUB PUSH1 0xA ADD SWAP1 KECCAK256 PUSH2 0xB07 SWAP1 PUSH2 0x882 PUSH2 0x1CC9 JUMP JUMPDEST PUSH2 0xB42 JUMPI PUSH1 0x40 MLOAD PUSH3 0x461BCD PUSH1 0xE5 SHL DUP2 MSTORE PUSH1 0x4 ADD DUP1 DUP1 PUSH1 0x20 ADD DUP3 DUP2 SUB DUP3 MSTORE PUSH1 0x43 DUP2 MSTORE PUSH1 0x20 ADD DUP1 PUSH2 0x2D04 PUSH1 0x43 SWAP2 CODECOPY PUSH1 0x60 ADD SWAP2 POP POP PUSH1 0x40 MLOAD DUP1 SWAP2 SUB SWAP1 REVERT JUMPDEST PUSH1 0x1 PUSH1 0x1 PUSH1 0xA0 SHL SUB DUP2 AND PUSH2 0xB87 JUMPI PUSH1 0x40 MLOAD PUSH3 0x461BCD PUSH1 0xE5 SHL DUP2 MSTORE PUSH1 0x4 ADD DUP1 DUP1 PUSH1 0x20 ADD DUP3 DUP2 SUB DUP3 MSTORE PUSH1 0x30 DUP2 MSTORE PUSH1 0x20 ADD DUP1 PUSH2 0x2BC2 PUSH1 0x30 SWAP2 CODECOPY PUSH1 0x40 ADD SWAP2 POP POP PUSH1 0x40 MLOAD DUP1 SWAP2 SUB SWAP1 REVERT JUMPDEST PUSH1 0xFC SLOAD PUSH1 0x1 PUSH1 0x1 PUSH1 0xA0 SHL SUB DUP3 DUP2 AND SWAP2 AND EQ ISZERO PUSH2 0xBD4 JUMPI PUSH1 0x40 MLOAD PUSH3 0x461BCD PUSH1 0xE5 SHL DUP2 MSTORE PUSH1 0x4 ADD DUP1 DUP1 PUSH1 0x20 ADD DUP3 DUP2 SUB DUP3 MSTORE PUSH1 0x3C DUP2 MSTORE PUSH1 0x20 ADD DUP1 PUSH2 0x2B86 PUSH1 0x3C SWAP2 CODECOPY PUSH1 0x40 ADD SWAP2 POP POP PUSH1 0x40 MLOAD DUP1 SWAP2 SUB SWAP1 REVERT JUMPDEST PUSH1 0xFC DUP1 SLOAD PUSH1 0x1 PUSH1 0x1 PUSH1 0xA0 SHL SUB NOT AND PUSH1 0x1 PUSH1 0x1 PUSH1 0xA0 SHL SUB SWAP3 SWAP1 SWAP3 AND SWAP2 SWAP1 SWAP2 OR SWAP1 SSTORE JUMP JUMPDEST PUSH1 0xC9 SLOAD PUSH1 0xFF AND PUSH2 0xC3B JUMPI PUSH1 0x40 DUP1 MLOAD PUSH3 0x461BCD PUSH1 0xE5 SHL DUP2 MSTORE PUSH1 0x20 PUSH1 0x4 DUP3 ADD MSTORE PUSH1 0x1F PUSH1 0x24 DUP3 ADD MSTORE PUSH1 0x0 DUP1 MLOAD PUSH1 0x20 PUSH2 0x2B31 DUP4 CODECOPY DUP2 MLOAD SWAP2 MSTORE PUSH1 0x44 DUP3 ADD MSTORE SWAP1 MLOAD SWAP1 DUP2 SWAP1 SUB PUSH1 0x64 ADD SWAP1 REVERT JUMPDEST PUSH1 0xC9 DUP1 SLOAD PUSH1 0xFF NOT AND SWAP1 SSTORE PUSH1 0x97 SLOAD PUSH1 0xFF AND ISZERO PUSH2 0xC90 JUMPI PUSH1 0x40 DUP1 MLOAD PUSH3 0x461BCD PUSH1 0xE5 SHL DUP2 MSTORE PUSH1 0x20 PUSH1 0x4 DUP3 ADD MSTORE PUSH1 0x10 PUSH1 0x24 DUP3 ADD MSTORE PUSH16 0x14185D5CD8589B194E881C185D5CD959 PUSH1 0x82 SHL PUSH1 0x44 DUP3 ADD MSTORE SWAP1 MLOAD SWAP1 DUP2 SWAP1 SUB PUSH1 0x64 ADD SWAP1 REVERT JUMPDEST PUSH1 0x40 DUP1 MLOAD PUSH24 0x524557415244535F4449535452494255544F525F524F4C45 PUSH1 0x40 SHL DUP2 MSTORE SWAP1 MLOAD SWAP1 DUP2 SWAP1 SUB PUSH1 0x18 ADD SWAP1 KECCAK256 PUSH2 0xCC9 SWAP1 PUSH2 0x882 PUSH2 0x1CC9 JUMP JUMPDEST PUSH2 0xD04 JUMPI PUSH1 0x40 MLOAD PUSH3 0x461BCD PUSH1 0xE5 SHL DUP2 MSTORE PUSH1 0x4 ADD DUP1 DUP1 PUSH1 0x20 ADD DUP3 DUP2 SUB DUP3 MSTORE PUSH1 0x3A DUP2 MSTORE PUSH1 0x20 ADD DUP1 PUSH2 0x3127 PUSH1 0x3A SWAP2 CODECOPY PUSH1 0x40 ADD SWAP2 POP POP PUSH1 0x40 MLOAD DUP1 SWAP2 SUB SWAP1 REVERT JUMPDEST PUSH2 0xD0C PUSH2 0x1E49 JUMP JUMPDEST PUSH1 0xC9 DUP1 SLOAD PUSH1 0xFF NOT AND PUSH1 0x1 OR SWAP1 SSTORE JUMP JUMPDEST PUSH1 0x40 DUP1 MLOAD PUSH11 0x5041555345525F524F4C45 PUSH1 0xA8 SHL DUP2 MSTORE SWAP1 MLOAD SWAP1 DUP2 SWAP1 SUB PUSH1 0xB ADD SWAP1 KECCAK256 PUSH2 0xD47 SWAP1 PUSH2 0x882 PUSH2 0x1CC9 JUMP JUMPDEST PUSH2 0xD82 JUMPI PUSH1 0x40 MLOAD PUSH3 0x461BCD PUSH1 0xE5 SHL DUP2 MSTORE PUSH1 0x4 ADD DUP1 DUP1 PUSH1 0x20 ADD DUP3 DUP2 SUB DUP3 MSTORE PUSH1 0x33 DUP2 MSTORE PUSH1 0x20 ADD DUP1 PUSH2 0x3194 PUSH1 0x33 SWAP2 CODECOPY PUSH1 0x40 ADD SWAP2 POP POP PUSH1 0x40 MLOAD DUP1 SWAP2 SUB SWAP1 REVERT JUMPDEST PUSH2 0xA61 PUSH2 0x20DA JUMP JUMPDEST PUSH1 0x0 DUP3 DUP2 MSTORE PUSH1 0x65 PUSH1 0x20 MSTORE PUSH1 0x40 DUP2 KECCAK256 PUSH2 0xDA8 SWAP1 DUP4 PUSH4 0xFFFFFFFF PUSH2 0x215B AND JUMP JUMPDEST SWAP1 POP JUMPDEST SWAP3 SWAP2 POP POP JUMP JUMPDEST PUSH1 0x0 DUP3 DUP2 MSTORE PUSH1 0x65 PUSH1 0x20 MSTORE PUSH1 0x40 DUP2 KECCAK256 PUSH2 0xDA8 SWAP1 DUP4 PUSH4 0xFFFFFFFF PUSH2 0x2167 AND JUMP JUMPDEST PUSH2 0x101 SLOAD DUP2 JUMP JUMPDEST PUSH1 0x0 DUP2 JUMP JUMPDEST PUSH1 0xC9 SLOAD PUSH1 0xFF AND PUSH2 0xE20 JUMPI PUSH1 0x40 DUP1 MLOAD PUSH3 0x461BCD PUSH1 0xE5 SHL DUP2 MSTORE PUSH1 0x20 PUSH1 0x4 DUP3 ADD MSTORE PUSH1 0x1F PUSH1 0x24 DUP3 ADD MSTORE PUSH1 0x0 DUP1 MLOAD PUSH1 0x20 PUSH2 0x2B31 DUP4 CODECOPY DUP2 MLOAD SWAP2 MSTORE PUSH1 0x44 DUP3 ADD MSTORE SWAP1 MLOAD SWAP1 DUP2 SWAP1 SUB PUSH1 0x64 ADD SWAP1 REVERT JUMPDEST PUSH1 0xC9 DUP1 SLOAD PUSH1 0xFF NOT AND SWAP1 SSTORE PUSH1 0x97 SLOAD PUSH1 0xFF AND ISZERO PUSH2 0xE75 JUMPI PUSH1 0x40 DUP1 MLOAD PUSH3 0x461BCD PUSH1 0xE5 SHL DUP2 MSTORE PUSH1 0x20 PUSH1 0x4 DUP3 ADD MSTORE PUSH1 0x10 PUSH1 0x24 DUP3 ADD MSTORE PUSH16 0x14185D5CD8589B194E881C185D5CD959 PUSH1 0x82 SHL PUSH1 0x44 DUP3 ADD MSTORE SWAP1 MLOAD SWAP1 DUP2 SWAP1 SUB PUSH1 0x64 ADD SWAP1 REVERT JUMPDEST CALLER PUSH1 0x0 SWAP1 DUP2 MSTORE PUSH2 0x104 PUSH1 0x20 MSTORE PUSH1 0x40 SWAP1 KECCAK256 PUSH1 0x2 DUP2 ADD SLOAD ISZERO PUSH2 0xEC6 JUMPI PUSH1 0x40 MLOAD PUSH3 0x461BCD PUSH1 0xE5 SHL DUP2 MSTORE PUSH1 0x4 ADD DUP1 DUP1 PUSH1 0x20 ADD DUP3 DUP2 SUB DUP3 MSTORE PUSH1 0x33 DUP2 MSTORE PUSH1 0x20 ADD DUP1 PUSH2 0x3161 PUSH1 0x33 SWAP2 CODECOPY PUSH1 0x40 ADD SWAP2 POP POP PUSH1 0x40 MLOAD DUP1 SWAP2 SUB SWAP1 REVERT JUMPDEST DUP1 SLOAD PUSH1 0x40 DUP1 MLOAD PUSH1 0xC0 DUP2 ADD DUP3 MSTORE DUP3 DUP2 MSTORE PUSH1 0x1 DUP5 ADD SLOAD PUSH1 0x20 DUP3 ADD MSTORE PUSH1 0x2 DUP5 ADD SLOAD SWAP2 DUP2 ADD SWAP2 SWAP1 SWAP2 MSTORE PUSH1 0x3 DUP4 ADD SLOAD PUSH1 0x60 DUP3 ADD MSTORE PUSH1 0x4 DUP4 ADD SLOAD PUSH1 0x80 DUP3 ADD MSTORE PUSH1 0x5 DUP4 ADD SLOAD PUSH1 0xFF AND ISZERO ISZERO PUSH1 0xA0 DUP3 ADD MSTORE PUSH1 0x0 SWAP1 PUSH2 0xF1A SWAP1 PUSH2 0x217C JUMP JUMPDEST SWAP1 POP PUSH1 0x0 PUSH2 0xF3E DUP3 PUSH2 0xF32 DUP6 DUP9 PUSH4 0xFFFFFFFF PUSH2 0x21EC AND JUMP JUMPDEST SWAP1 PUSH4 0xFFFFFFFF PUSH2 0x21EC AND JUMP JUMPDEST SWAP1 POP DUP3 DUP2 GT PUSH2 0xF7E JUMPI PUSH1 0x40 MLOAD PUSH3 0x461BCD PUSH1 0xE5 SHL DUP2 MSTORE PUSH1 0x4 ADD DUP1 DUP1 PUSH1 0x20 ADD DUP3 DUP2 SUB DUP3 MSTORE PUSH1 0x36 DUP2 MSTORE PUSH1 0x20 ADD DUP1 PUSH2 0x2C2A PUSH1 0x36 SWAP2 CODECOPY PUSH1 0x40 ADD SWAP2 POP POP PUSH1 0x40 MLOAD DUP1 SWAP2 SUB SWAP1 REVERT JUMPDEST PUSH1 0x0 PUSH2 0xFA2 PUSH2 0xF93 DUP4 DUP7 PUSH4 0xFFFFFFFF PUSH2 0x1C4B AND JUMP JUMPDEST PUSH1 0xFE SLOAD SWAP1 PUSH4 0xFFFFFFFF PUSH2 0x21EC AND JUMP JUMPDEST SWAP1 POP PUSH1 0xFD SLOAD DUP2 GT ISZERO PUSH2 0xFE5 JUMPI PUSH1 0x40 MLOAD PUSH3 0x461BCD PUSH1 0xE5 SHL DUP2 MSTORE PUSH1 0x4 ADD DUP1 DUP1 PUSH1 0x20 ADD DUP3 DUP2 SUB DUP3 MSTORE PUSH1 0x3D DUP2 MSTORE PUSH1 0x20 ADD DUP1 PUSH2 0x2EEC PUSH1 0x3D SWAP2 CODECOPY PUSH1 0x40 ADD SWAP2 POP POP PUSH1 0x40 MLOAD DUP1 SWAP2 SUB SWAP1 REVERT JUMPDEST DUP2 DUP6 SSTORE TIMESTAMP PUSH1 0x1 DUP1 DUP8 ADD SWAP2 SWAP1 SWAP2 SSTORE PUSH1 0x5 DUP7 ADD DUP1 SLOAD PUSH1 0xFF NOT AND SWAP1 SWAP2 OR SWAP1 SSTORE PUSH2 0x100 SLOAD PUSH1 0x3 DUP7 ADD SSTORE PUSH1 0xFE DUP2 SWAP1 SSTORE PUSH1 0xFB SLOAD PUSH1 0x40 DUP1 MLOAD PUSH4 0x23B872DD PUSH1 0xE0 SHL DUP2 MSTORE CALLER PUSH1 0x4 DUP3 ADD MSTORE ADDRESS PUSH1 0x24 DUP3 ADD MSTORE PUSH1 0x44 DUP2 ADD DUP10 SWAP1 MSTORE SWAP1 MLOAD PUSH1 0x1 PUSH1 0x1 PUSH1 0xA0 SHL SUB SWAP1 SWAP3 AND SWAP2 PUSH4 0x23B872DD SWAP2 PUSH1 0x64 DUP1 DUP3 ADD SWAP3 PUSH1 0x20 SWAP3 SWAP1 SWAP2 SWAP1 DUP3 SWAP1 SUB ADD DUP2 PUSH1 0x0 DUP8 DUP1 EXTCODESIZE ISZERO DUP1 ISZERO PUSH2 0x1069 JUMPI PUSH1 0x0 DUP1 REVERT JUMPDEST POP GAS CALL ISZERO DUP1 ISZERO PUSH2 0x107D JUMPI RETURNDATASIZE PUSH1 0x0 DUP1 RETURNDATACOPY RETURNDATASIZE PUSH1 0x0 REVERT JUMPDEST POP POP POP POP PUSH1 0x40 MLOAD RETURNDATASIZE PUSH1 0x20 DUP2 LT ISZERO PUSH2 0x1093 JUMPI PUSH1 0x0 DUP1 REVERT JUMPDEST POP MLOAD PUSH2 0x10D0 JUMPI PUSH1 0x40 MLOAD PUSH3 0x461BCD PUSH1 0xE5 SHL DUP2 MSTORE PUSH1 0x4 ADD DUP1 DUP1 PUSH1 0x20 ADD DUP3 DUP2 SUB DUP3 MSTORE PUSH1 0x38 DUP2 MSTORE PUSH1 0x20 ADD DUP1 PUSH2 0x3074 PUSH1 0x38 SWAP2 CODECOPY PUSH1 0x40 ADD SWAP2 POP POP PUSH1 0x40 MLOAD DUP1 SWAP2 SUB SWAP1 REVERT JUMPDEST DUP3 ISZERO PUSH2 0x11B4 JUMPI PUSH2 0x102 SLOAD PUSH2 0x10EA SWAP1 DUP5 PUSH4 0xFFFFFFFF PUSH2 0x21EC AND JUMP JUMPDEST PUSH2 0x102 SSTORE PUSH1 0xFB SLOAD PUSH1 0xFC SLOAD PUSH1 0x40 DUP1 MLOAD PUSH4 0x23B872DD PUSH1 0xE0 SHL DUP2 MSTORE PUSH1 0x1 PUSH1 0x1 PUSH1 0xA0 SHL SUB SWAP3 DUP4 AND PUSH1 0x4 DUP3 ADD MSTORE ADDRESS PUSH1 0x24 DUP3 ADD MSTORE PUSH1 0x44 DUP2 ADD DUP8 SWAP1 MSTORE SWAP1 MLOAD SWAP2 SWAP1 SWAP3 AND SWAP2 PUSH4 0x23B872DD SWAP2 PUSH1 0x64 DUP1 DUP4 ADD SWAP3 PUSH1 0x20 SWAP3 SWAP2 SWAP1 DUP3 SWAP1 SUB ADD DUP2 PUSH1 0x0 DUP8 DUP1 EXTCODESIZE ISZERO DUP1 ISZERO PUSH2 0x114D JUMPI PUSH1 0x0 DUP1 REVERT JUMPDEST POP GAS CALL ISZERO DUP1 ISZERO PUSH2 0x1161 JUMPI RETURNDATASIZE PUSH1 0x0 DUP1 RETURNDATACOPY RETURNDATASIZE PUSH1 0x0 REVERT JUMPDEST POP POP POP POP PUSH1 0x40 MLOAD RETURNDATASIZE PUSH1 0x20 DUP2 LT ISZERO PUSH2 0x1177 JUMPI PUSH1 0x0 DUP1 REVERT JUMPDEST POP MLOAD PUSH2 0x11B4 JUMPI PUSH1 0x40 MLOAD PUSH3 0x461BCD PUSH1 0xE5 SHL DUP2 MSTORE PUSH1 0x4 ADD DUP1 DUP1 PUSH1 0x20 ADD DUP3 DUP2 SUB DUP3 MSTORE PUSH1 0x38 DUP2 MSTORE PUSH1 0x20 ADD DUP1 PUSH2 0x2BF2 PUSH1 0x38 SWAP2 CODECOPY PUSH1 0x40 ADD SWAP2 POP POP PUSH1 0x40 MLOAD DUP1 SWAP2 SUB SWAP1 REVERT JUMPDEST CALLER PUSH32 0xA7BB2E28CC4698AAC06DB79CF9163BFCC20719286CF59FA7D492CEDA1B8EDC2 PUSH2 0x11E6 DUP9 DUP7 PUSH4 0xFFFFFFFF PUSH2 0x21EC AND JUMP JUMPDEST PUSH1 0x40 DUP1 MLOAD SWAP2 DUP3 MSTORE MLOAD SWAP1 DUP2 SWAP1 SUB PUSH1 0x20 ADD SWAP1 LOG2 POP POP PUSH1 0xC9 DUP1 SLOAD PUSH1 0xFF NOT AND PUSH1 0x1 OR SWAP1 SSTORE POP POP POP POP JUMP JUMPDEST PUSH1 0xFC SLOAD PUSH1 0x1 PUSH1 0x1 PUSH1 0xA0 SHL SUB AND DUP2 JUMP JUMPDEST PUSH2 0x102 SLOAD DUP2 JUMP JUMPDEST PUSH1 0xC9 SLOAD PUSH1 0xFF AND PUSH2 0x1267 JUMPI PUSH1 0x40 DUP1 MLOAD PUSH3 0x461BCD PUSH1 0xE5 SHL DUP2 MSTORE PUSH1 0x20 PUSH1 0x4 DUP3 ADD MSTORE PUSH1 0x1F PUSH1 0x24 DUP3 ADD MSTORE PUSH1 0x0 DUP1 MLOAD PUSH1 0x20 PUSH2 0x2B31 DUP4 CODECOPY DUP2 MLOAD SWAP2 MSTORE PUSH1 0x44 DUP3 ADD MSTORE SWAP1 MLOAD SWAP1 DUP2 SWAP1 SUB PUSH1 0x64 ADD SWAP1 REVERT JUMPDEST PUSH1 0xC9 DUP1 SLOAD PUSH1 0xFF NOT AND SWAP1 SSTORE PUSH1 0x97 SLOAD PUSH1 0xFF AND ISZERO PUSH2 0x12BC JUMPI PUSH1 0x40 DUP1 MLOAD PUSH3 0x461BCD PUSH1 0xE5 SHL DUP2 MSTORE PUSH1 0x20 PUSH1 0x4 DUP3 ADD MSTORE PUSH1 0x10 PUSH1 0x24 DUP3 ADD MSTORE PUSH16 0x14185D5CD8589B194E881C185D5CD959 PUSH1 0x82 SHL PUSH1 0x44 DUP3 ADD MSTORE SWAP1 MLOAD SWAP1 DUP2 SWAP1 SUB PUSH1 0x64 ADD SWAP1 REVERT JUMPDEST CALLER PUSH1 0x0 SWAP1 DUP2 MSTORE PUSH2 0x104 PUSH1 0x20 MSTORE PUSH1 0x40 SWAP1 KECCAK256 PUSH1 0x5 DUP2 ADD SLOAD PUSH1 0xFF AND DUP1 ISZERO PUSH2 0x12E0 JUMPI POP DUP1 SLOAD ISZERO ISZERO JUMPDEST PUSH2 0x131B JUMPI PUSH1 0x40 MLOAD PUSH3 0x461BCD PUSH1 0xE5 SHL DUP2 MSTORE PUSH1 0x4 ADD DUP1 DUP1 PUSH1 0x20 ADD DUP3 DUP2 SUB DUP3 MSTORE PUSH1 0x3F DUP2 MSTORE PUSH1 0x20 ADD DUP1 PUSH2 0x31C7 PUSH1 0x3F SWAP2 CODECOPY PUSH1 0x40 ADD SWAP2 POP POP PUSH1 0x40 MLOAD DUP1 SWAP2 SUB SWAP1 REVERT JUMPDEST PUSH1 0x2 DUP2 ADD SLOAD ISZERO PUSH2 0x135C JUMPI PUSH1 0x40 MLOAD PUSH3 0x461BCD PUSH1 0xE5 SHL DUP2 MSTORE PUSH1 0x4 ADD DUP1 DUP1 PUSH1 0x20 ADD DUP3 DUP2 SUB DUP3 MSTORE PUSH1 0x3E DUP2 MSTORE PUSH1 0x20 ADD DUP1 PUSH2 0x30E9 PUSH1 0x3E SWAP2 CODECOPY PUSH1 0x40 ADD SWAP2 POP POP PUSH1 0x40 MLOAD DUP1 SWAP2 SUB SWAP1 REVERT JUMPDEST PUSH1 0x40 DUP1 MLOAD PUSH1 0xC0 DUP2 ADD DUP3 MSTORE DUP3 SLOAD DUP2 MSTORE PUSH1 0x1 DUP4 ADD SLOAD PUSH1 0x20 DUP3 ADD MSTORE PUSH1 0x2 DUP4 ADD SLOAD SWAP2 DUP2 ADD SWAP2 SWAP1 SWAP2 MSTORE PUSH1 0x3 DUP3 ADD SLOAD PUSH1 0x60 DUP3 ADD MSTORE PUSH1 0x4 DUP3 ADD SLOAD PUSH1 0x80 DUP3 ADD MSTORE PUSH1 0x5 DUP3 ADD SLOAD PUSH1 0xFF AND ISZERO ISZERO PUSH1 0xA0 DUP3 ADD MSTORE PUSH1 0x0 SWAP1 PUSH2 0x13AF SWAP1 PUSH2 0x217C JUMP JUMPDEST SWAP1 POP PUSH1 0x0 DUP2 GT PUSH2 0x13F0 JUMPI PUSH1 0x40 MLOAD PUSH3 0x461BCD PUSH1 0xE5 SHL DUP2 MSTORE PUSH1 0x4 ADD DUP1 DUP1 PUSH1 0x20 ADD DUP3 DUP2 SUB DUP3 MSTORE PUSH1 0x3E DUP2 MSTORE PUSH1 0x20 ADD DUP1 PUSH2 0x323C PUSH1 0x3E SWAP2 CODECOPY PUSH1 0x40 ADD SWAP2 POP POP PUSH1 0x40 MLOAD DUP1 SWAP2 SUB SWAP1 REVERT JUMPDEST PUSH2 0x100 SLOAD PUSH1 0x3 DUP4 ADD SSTORE PUSH2 0x102 SLOAD PUSH2 0x140D SWAP1 DUP3 PUSH4 0xFFFFFFFF PUSH2 0x21EC AND JUMP JUMPDEST PUSH2 0x102 SSTORE PUSH1 0xFB SLOAD PUSH1 0xFC SLOAD PUSH1 0x40 DUP1 MLOAD PUSH4 0x23B872DD PUSH1 0xE0 SHL DUP2 MSTORE PUSH1 0x1 PUSH1 0x1 PUSH1 0xA0 SHL SUB SWAP3 DUP4 AND PUSH1 0x4 DUP3 ADD MSTORE CALLER PUSH1 0x24 DUP3 ADD MSTORE PUSH1 0x44 DUP2 ADD DUP6 SWAP1 MSTORE SWAP1 MLOAD SWAP2 SWAP1 SWAP3 AND SWAP2 PUSH4 0x23B872DD SWAP2 PUSH1 0x64 DUP1 DUP4 ADD SWAP3 PUSH1 0x20 SWAP3 SWAP2 SWAP1 DUP3 SWAP1 SUB ADD DUP2 PUSH1 0x0 DUP8 DUP1 EXTCODESIZE ISZERO DUP1 ISZERO PUSH2 0x1470 JUMPI PUSH1 0x0 DUP1 REVERT JUMPDEST POP GAS CALL ISZERO DUP1 ISZERO PUSH2 0x1484 JUMPI RETURNDATASIZE PUSH1 0x0 DUP1 RETURNDATACOPY RETURNDATASIZE PUSH1 0x0 REVERT JUMPDEST POP POP POP POP PUSH1 0x40 MLOAD RETURNDATASIZE PUSH1 0x20 DUP2 LT ISZERO PUSH2 0x149A JUMPI PUSH1 0x0 DUP1 REVERT JUMPDEST POP MLOAD PUSH2 0x14D7 JUMPI PUSH1 0x40 MLOAD PUSH3 0x461BCD PUSH1 0xE5 SHL DUP2 MSTORE PUSH1 0x4 ADD DUP1 DUP1 PUSH1 0x20 ADD DUP3 DUP2 SUB DUP3 MSTORE PUSH1 0x48 DUP2 MSTORE PUSH1 0x20 ADD DUP1 PUSH2 0x302C PUSH1 0x48 SWAP2 CODECOPY PUSH1 0x60 ADD SWAP2 POP POP PUSH1 0x40 MLOAD DUP1 SWAP2 SUB SWAP1 REVERT JUMPDEST PUSH1 0x40 DUP1 MLOAD DUP3 DUP2 MSTORE SWAP1 MLOAD CALLER SWAP2 PUSH32 0x8A43C4352486EC339F487F64AF78CA5CBF06CD47833F073D3BAF3A193E503161 SWAP2 SWAP1 DUP2 SWAP1 SUB PUSH1 0x20 ADD SWAP1 LOG2 POP POP PUSH1 0xC9 DUP1 SLOAD PUSH1 0xFF NOT AND PUSH1 0x1 OR SWAP1 SSTORE JUMP JUMPDEST PUSH1 0x0 DUP2 DUP2 MSTORE PUSH1 0x65 PUSH1 0x20 MSTORE PUSH1 0x40 DUP2 KECCAK256 PUSH2 0xDAB SWAP1 PUSH2 0x2246 JUMP JUMPDEST PUSH1 0xFE SLOAD DUP2 JUMP JUMPDEST PUSH1 0x0 DUP3 DUP2 MSTORE PUSH1 0x65 PUSH1 0x20 MSTORE PUSH1 0x40 SWAP1 KECCAK256 PUSH1 0x2 ADD SLOAD PUSH2 0x1559 SWAP1 PUSH2 0x882 PUSH2 0x1CC9 JUMP JUMPDEST PUSH2 0x9E8 JUMPI PUSH1 0x40 MLOAD PUSH3 0x461BCD PUSH1 0xE5 SHL DUP2 MSTORE PUSH1 0x4 ADD DUP1 DUP1 PUSH1 0x20 ADD DUP3 DUP2 SUB DUP3 MSTORE PUSH1 0x30 DUP2 MSTORE PUSH1 0x20 ADD DUP1 PUSH2 0x2CD4 PUSH1 0x30 SWAP2 CODECOPY PUSH1 0x40 ADD SWAP2 POP POP PUSH1 0x40 MLOAD DUP1 SWAP2 SUB SWAP1 REVERT JUMPDEST DUP4 PUSH2 0x15A7 DUP2 PUSH1 0x1 PUSH1 0x1 PUSH1 0xA0 SHL SUB AND PUSH2 0x1C8D JUMP JUMPDEST PUSH2 0x15E2 JUMPI PUSH1 0x40 MLOAD PUSH3 0x461BCD PUSH1 0xE5 SHL DUP2 MSTORE PUSH1 0x4 ADD DUP1 DUP1 PUSH1 0x20 ADD DUP3 DUP2 SUB DUP3 MSTORE PUSH1 0x34 DUP2 MSTORE PUSH1 0x20 ADD DUP1 PUSH2 0x2D47 PUSH1 0x34 SWAP2 CODECOPY PUSH1 0x40 ADD SWAP2 POP POP PUSH1 0x40 MLOAD DUP1 SWAP2 SUB SWAP1 REVERT JUMPDEST PUSH2 0x15EE DUP6 DUP6 DUP6 DUP6 PUSH2 0x2251 JUMP JUMPDEST POP POP POP POP POP JUMP JUMPDEST PUSH2 0x103 SLOAD DUP2 JUMP JUMPDEST PUSH1 0xFF SLOAD DUP2 JUMP JUMPDEST PUSH1 0x1 PUSH1 0x1 PUSH1 0xA0 SHL SUB DUP2 AND PUSH1 0x0 SWAP1 DUP2 MSTORE PUSH2 0x104 PUSH1 0x20 MSTORE PUSH1 0x40 DUP2 KECCAK256 PUSH1 0x5 ADD SLOAD DUP2 SWAP1 DUP2 SWAP1 DUP2 SWAP1 PUSH1 0xFF AND DUP1 ISZERO PUSH2 0x164C JUMPI POP PUSH1 0x1 PUSH1 0x1 PUSH1 0xA0 SHL SUB DUP6 AND PUSH1 0x0 SWAP1 DUP2 MSTORE PUSH2 0x104 PUSH1 0x20 MSTORE PUSH1 0x40 SWAP1 KECCAK256 SLOAD ISZERO ISZERO JUMPDEST PUSH2 0x1687 JUMPI PUSH1 0x40 MLOAD PUSH3 0x461BCD PUSH1 0xE5 SHL DUP2 MSTORE PUSH1 0x4 ADD DUP1 DUP1 PUSH1 0x20 ADD DUP3 DUP2 SUB DUP3 MSTORE PUSH1 0x36 DUP2 MSTORE PUSH1 0x20 ADD DUP1 PUSH2 0x3206 PUSH1 0x36 SWAP2 CODECOPY PUSH1 0x40 ADD SWAP2 POP POP PUSH1 0x40 MLOAD DUP1 SWAP2 SUB SWAP1 REVERT JUMPDEST PUSH2 0x168F PUSH2 0x2A61 JUMP JUMPDEST POP PUSH1 0x1 PUSH1 0x1 PUSH1 0xA0 SHL SUB DUP6 AND PUSH1 0x0 SWAP1 DUP2 MSTORE PUSH2 0x104 PUSH1 0x20 SWAP1 DUP2 MSTORE PUSH1 0x40 SWAP2 DUP3 SWAP1 KECCAK256 DUP3 MLOAD PUSH1 0xC0 DUP2 ADD DUP5 MSTORE DUP2 SLOAD DUP1 DUP3 MSTORE PUSH1 0x1 DUP4 ADD SLOAD SWAP4 DUP3 ADD DUP5 SWAP1 MSTORE PUSH1 0x2 DUP4 ADD SLOAD SWAP5 DUP3 ADD DUP6 SWAP1 MSTORE PUSH1 0x3 DUP4 ADD SLOAD PUSH1 0x60 DUP4 ADD MSTORE PUSH1 0x4 DUP4 ADD SLOAD PUSH1 0x80 DUP4 ADD MSTORE PUSH1 0x5 SWAP1 SWAP3 ADD SLOAD PUSH1 0xFF AND ISZERO ISZERO PUSH1 0xA0 DUP3 ADD MSTORE SWAP3 SWAP1 SWAP2 SWAP1 PUSH2 0x1701 DUP5 PUSH2 0x217C JUMP JUMPDEST SWAP5 POP SWAP5 POP SWAP5 POP SWAP5 POP POP SWAP2 SWAP4 POP SWAP2 SWAP4 JUMP JUMPDEST PUSH1 0xC9 SLOAD PUSH1 0xFF AND PUSH2 0x1756 JUMPI PUSH1 0x40 DUP1 MLOAD PUSH3 0x461BCD PUSH1 0xE5 SHL DUP2 MSTORE PUSH1 0x20 PUSH1 0x4 DUP3 ADD MSTORE PUSH1 0x1F PUSH1 0x24 DUP3 ADD MSTORE PUSH1 0x0 DUP1 MLOAD PUSH1 0x20 PUSH2 0x2B31 DUP4 CODECOPY DUP2 MLOAD SWAP2 MSTORE PUSH1 0x44 DUP3 ADD MSTORE SWAP1 MLOAD SWAP1 DUP2 SWAP1 SUB PUSH1 0x64 ADD SWAP1 REVERT JUMPDEST PUSH1 0xC9 DUP1 SLOAD PUSH1 0xFF NOT AND SWAP1 SSTORE PUSH1 0x97 SLOAD PUSH1 0xFF AND ISZERO PUSH2 0x17AB JUMPI PUSH1 0x40 DUP1 MLOAD PUSH3 0x461BCD PUSH1 0xE5 SHL DUP2 MSTORE PUSH1 0x20 PUSH1 0x4 DUP3 ADD MSTORE PUSH1 0x10 PUSH1 0x24 DUP3 ADD MSTORE PUSH16 0x14185D5CD8589B194E881C185D5CD959 PUSH1 0x82 SHL PUSH1 0x44 DUP3 ADD MSTORE SWAP1 MLOAD SWAP1 DUP2 SWAP1 SUB PUSH1 0x64 ADD SWAP1 REVERT JUMPDEST PUSH2 0x17B3 PUSH2 0x2A61 JUMP JUMPDEST POP CALLER PUSH1 0x0 SWAP1 DUP2 MSTORE PUSH2 0x104 PUSH1 0x20 SWAP1 DUP2 MSTORE PUSH1 0x40 SWAP2 DUP3 SWAP1 KECCAK256 DUP3 MLOAD PUSH1 0xC0 DUP2 ADD DUP5 MSTORE DUP2 SLOAD DUP2 MSTORE PUSH1 0x1 DUP3 ADD SLOAD SWAP3 DUP2 ADD SWAP3 SWAP1 SWAP3 MSTORE PUSH1 0x2 DUP2 ADD SLOAD SWAP3 DUP3 ADD SWAP3 SWAP1 SWAP3 MSTORE PUSH1 0x3 DUP3 ADD SLOAD PUSH1 0x60 DUP3 ADD MSTORE PUSH1 0x4 DUP3 ADD SLOAD PUSH1 0x80 DUP3 ADD MSTORE PUSH1 0x5 SWAP1 SWAP2 ADD SLOAD PUSH1 0xFF AND ISZERO ISZERO PUSH1 0xA0 DUP3 ADD MSTORE PUSH2 0x1818 PUSH2 0x2A99 JUMP JUMPDEST POP CALLER PUSH1 0x0 SWAP1 DUP2 MSTORE PUSH2 0x105 PUSH1 0x20 SWAP1 DUP2 MSTORE PUSH1 0x40 SWAP2 DUP3 SWAP1 KECCAK256 DUP3 MLOAD DUP1 DUP5 ADD DUP5 MSTORE DUP2 SLOAD DUP2 MSTORE PUSH1 0x1 SWAP1 SWAP2 ADD SLOAD SWAP2 DUP2 ADD SWAP2 SWAP1 SWAP2 MSTORE SWAP1 DUP3 ADD MLOAD ISZERO ISZERO DUP1 PUSH2 0x1859 JUMPI POP PUSH1 0x20 DUP2 ADD MLOAD ISZERO ISZERO JUMPDEST PUSH2 0x1894 JUMPI PUSH1 0x40 MLOAD PUSH3 0x461BCD PUSH1 0xE5 SHL DUP2 MSTORE PUSH1 0x4 ADD DUP1 DUP1 PUSH1 0x20 ADD DUP3 DUP2 SUB DUP3 MSTORE PUSH1 0x2D DUP2 MSTORE PUSH1 0x20 ADD DUP1 PUSH2 0x2DCB PUSH1 0x2D SWAP2 CODECOPY PUSH1 0x40 ADD SWAP2 POP POP PUSH1 0x40 MLOAD DUP1 SWAP2 SUB SWAP1 REVERT JUMPDEST DUP2 PUSH1 0xA0 ADD MLOAD DUP1 ISZERO PUSH2 0x18A5 JUMPI POP DUP2 MLOAD ISZERO ISZERO JUMPDEST PUSH2 0x18E0 JUMPI PUSH1 0x40 MLOAD PUSH3 0x461BCD PUSH1 0xE5 SHL DUP2 MSTORE PUSH1 0x4 ADD DUP1 DUP1 PUSH1 0x20 ADD DUP3 DUP2 SUB DUP3 MSTORE PUSH1 0x35 DUP2 MSTORE PUSH1 0x20 ADD DUP1 PUSH2 0x2B51 PUSH1 0x35 SWAP2 CODECOPY PUSH1 0x40 ADD SWAP2 POP POP PUSH1 0x40 MLOAD DUP1 SWAP2 SUB SWAP1 REVERT JUMPDEST PUSH1 0x0 PUSH3 0x15180 DUP4 PUSH1 0x40 ADD MLOAD TIMESTAMP SUB DUP2 PUSH2 0x18F4 JUMPI INVALID JUMPDEST DIV SWAP1 POP DUP1 PUSH1 0xFF SLOAD GT ISZERO PUSH2 0x1938 JUMPI PUSH1 0x40 MLOAD PUSH3 0x461BCD PUSH1 0xE5 SHL DUP2 MSTORE PUSH1 0x4 ADD DUP1 DUP1 PUSH1 0x20 ADD DUP3 DUP2 SUB DUP3 MSTORE PUSH1 0x2C DUP2 MSTORE PUSH1 0x20 ADD DUP1 PUSH2 0x2AD6 PUSH1 0x2C SWAP2 CODECOPY PUSH1 0x40 ADD SWAP2 POP POP PUSH1 0x40 MLOAD DUP1 SWAP2 SUB SWAP1 REVERT JUMPDEST PUSH1 0x0 DUP3 PUSH1 0x20 ADD MLOAD PUSH1 0x0 EQ ISZERO PUSH2 0x194E JUMPI DUP4 MLOAD PUSH2 0x1954 JUMP JUMPDEST DUP3 PUSH1 0x20 ADD MLOAD JUMPDEST SWAP1 POP PUSH1 0x0 PUSH2 0x1961 DUP6 PUSH2 0x217C JUMP JUMPDEST SWAP1 POP DUP2 DUP6 PUSH1 0x0 ADD MLOAD LT ISZERO PUSH2 0x19A6 JUMPI PUSH1 0x40 MLOAD PUSH3 0x461BCD PUSH1 0xE5 SHL DUP2 MSTORE PUSH1 0x4 ADD DUP1 DUP1 PUSH1 0x20 ADD DUP3 DUP2 SUB DUP3 MSTORE PUSH1 0x4C DUP2 MSTORE PUSH1 0x20 ADD DUP1 PUSH2 0x2FE0 PUSH1 0x4C SWAP2 CODECOPY PUSH1 0x60 ADD SWAP2 POP POP PUSH1 0x40 MLOAD DUP1 SWAP2 SUB SWAP1 REVERT JUMPDEST DUP5 MLOAD DUP3 LT ISZERO PUSH2 0x19F7 JUMPI CALLER PUSH1 0x0 SWAP1 DUP2 MSTORE PUSH2 0x104 PUSH1 0x20 MSTORE PUSH1 0x40 SWAP1 KECCAK256 SLOAD PUSH2 0x19D0 SWAP1 DUP4 PUSH4 0xFFFFFFFF PUSH2 0x1C4B AND JUMP JUMPDEST CALLER PUSH1 0x0 SWAP1 DUP2 MSTORE PUSH2 0x104 PUSH1 0x20 MSTORE PUSH1 0x40 DUP2 KECCAK256 SWAP2 DUP3 SSTORE PUSH1 0x2 DUP3 ADD SSTORE PUSH2 0x100 SLOAD PUSH1 0x3 SWAP1 SWAP2 ADD SSTORE PUSH2 0x1A33 JUMP JUMPDEST CALLER PUSH1 0x0 SWAP1 DUP2 MSTORE PUSH2 0x104 PUSH1 0x20 MSTORE PUSH1 0x40 DUP2 KECCAK256 DUP2 DUP2 SSTORE PUSH1 0x1 DUP2 ADD DUP3 SWAP1 SSTORE PUSH1 0x2 DUP2 ADD DUP3 SWAP1 SSTORE PUSH1 0x3 DUP2 ADD DUP3 SWAP1 SSTORE PUSH1 0x4 DUP2 ADD SWAP2 SWAP1 SWAP2 SSTORE PUSH1 0x5 ADD DUP1 SLOAD PUSH1 0xFF NOT AND SWAP1 SSTORE JUMPDEST PUSH1 0xFB SLOAD PUSH1 0x40 DUP1 MLOAD PUSH4 0xA9059CBB PUSH1 0xE0 SHL DUP2 MSTORE CALLER PUSH1 0x4 DUP3 ADD MSTORE PUSH1 0x24 DUP2 ADD DUP6 SWAP1 MSTORE SWAP1 MLOAD PUSH1 0x1 PUSH1 0x1 PUSH1 0xA0 SHL SUB SWAP1 SWAP3 AND SWAP2 PUSH4 0xA9059CBB SWAP2 PUSH1 0x44 DUP1 DUP3 ADD SWAP3 PUSH1 0x20 SWAP3 SWAP1 SWAP2 SWAP1 DUP3 SWAP1 SUB ADD DUP2 PUSH1 0x0 DUP8 DUP1 EXTCODESIZE ISZERO DUP1 ISZERO PUSH2 0x1A87 JUMPI PUSH1 0x0 DUP1 REVERT JUMPDEST POP GAS CALL ISZERO DUP1 ISZERO PUSH2 0x1A9B JUMPI RETURNDATASIZE PUSH1 0x0 DUP1 RETURNDATACOPY RETURNDATASIZE PUSH1 0x0 REVERT JUMPDEST POP POP POP POP PUSH1 0x40 MLOAD RETURNDATASIZE PUSH1 0x20 DUP2 LT ISZERO PUSH2 0x1AB1 JUMPI PUSH1 0x0 DUP1 REVERT JUMPDEST POP MLOAD PUSH2 0x1AEE JUMPI PUSH1 0x40 MLOAD PUSH3 0x461BCD PUSH1 0xE5 SHL DUP2 MSTORE PUSH1 0x4 ADD DUP1 DUP1 PUSH1 0x20 ADD DUP3 DUP2 SUB DUP3 MSTORE PUSH1 0x47 DUP2 MSTORE PUSH1 0x20 ADD DUP1 PUSH2 0x2EA5 PUSH1 0x47 SWAP2 CODECOPY PUSH1 0x60 ADD SWAP2 POP POP PUSH1 0x40 MLOAD DUP1 SWAP2 SUB SWAP1 REVERT JUMPDEST DUP1 ISZERO PUSH2 0x1BD2 JUMPI PUSH2 0x102 SLOAD PUSH2 0x1B08 SWAP1 DUP3 PUSH4 0xFFFFFFFF PUSH2 0x21EC AND JUMP JUMPDEST PUSH2 0x102 SSTORE PUSH1 0xFB SLOAD PUSH1 0xFC SLOAD PUSH1 0x40 DUP1 MLOAD PUSH4 0x23B872DD PUSH1 0xE0 SHL DUP2 MSTORE PUSH1 0x1 PUSH1 0x1 PUSH1 0xA0 SHL SUB SWAP3 DUP4 AND PUSH1 0x4 DUP3 ADD MSTORE CALLER PUSH1 0x24 DUP3 ADD MSTORE PUSH1 0x44 DUP2 ADD DUP6 SWAP1 MSTORE SWAP1 MLOAD SWAP2 SWAP1 SWAP3 AND SWAP2 PUSH4 0x23B872DD SWAP2 PUSH1 0x64 DUP1 DUP4 ADD SWAP3 PUSH1 0x20 SWAP3 SWAP2 SWAP1 DUP3 SWAP1 SUB ADD DUP2 PUSH1 0x0 DUP8 DUP1 EXTCODESIZE ISZERO DUP1 ISZERO PUSH2 0x1B6B JUMPI PUSH1 0x0 DUP1 REVERT JUMPDEST POP GAS CALL ISZERO DUP1 ISZERO PUSH2 0x1B7F JUMPI RETURNDATASIZE PUSH1 0x0 DUP1 RETURNDATACOPY RETURNDATASIZE PUSH1 0x0 REVERT JUMPDEST POP POP POP POP PUSH1 0x40 MLOAD RETURNDATASIZE PUSH1 0x20 DUP2 LT ISZERO PUSH2 0x1B95 JUMPI PUSH1 0x0 DUP1 REVERT JUMPDEST POP MLOAD PUSH2 0x1BD2 JUMPI PUSH1 0x40 MLOAD PUSH3 0x461BCD PUSH1 0xE5 SHL DUP2 MSTORE PUSH1 0x4 ADD DUP1 DUP1 PUSH1 0x20 ADD DUP3 DUP2 SUB DUP3 MSTORE PUSH1 0x3E DUP2 MSTORE PUSH1 0x20 ADD DUP1 PUSH2 0x2DF8 PUSH1 0x3E SWAP2 CODECOPY PUSH1 0x40 ADD SWAP2 POP POP PUSH1 0x40 MLOAD DUP1 SWAP2 SUB SWAP1 REVERT JUMPDEST CALLER PUSH1 0x0 DUP2 DUP2 MSTORE PUSH2 0x105 PUSH1 0x20 SWAP1 DUP2 MSTORE PUSH1 0x40 DUP1 DUP4 KECCAK256 PUSH1 0x1 DUP2 ADD DUP5 SWAP1 SSTORE SWAP3 SWAP1 SWAP3 SSTORE DUP2 MLOAD DUP6 DUP2 MSTORE SWAP1 DUP2 ADD DUP5 SWAP1 MSTORE DUP2 MLOAD PUSH32 0xF6C0FC94EDC8FD2A37514F1FB85AF88FCA386B00A54127B912273E6B83322E08 SWAP3 SWAP2 DUP2 SWAP1 SUB SWAP1 SWAP2 ADD SWAP1 LOG2 POP POP PUSH1 0xC9 DUP1 SLOAD PUSH1 0xFF NOT AND PUSH1 0x1 OR SWAP1 SSTORE POP POP POP JUMP JUMPDEST PUSH1 0xFB SLOAD PUSH1 0x1 PUSH1 0x1 PUSH1 0xA0 SHL SUB AND DUP2 JUMP JUMPDEST PUSH1 0x0 PUSH2 0xDA8 DUP4 DUP4 PUSH1 0x40 MLOAD DUP1 PUSH1 0x40 ADD PUSH1 0x40 MSTORE DUP1 PUSH1 0x1E DUP2 MSTORE PUSH1 0x20 ADD PUSH32 0x536166654D6174683A207375627472616374696F6E206F766572666C6F770000 DUP2 MSTORE POP PUSH2 0x23E0 JUMP JUMPDEST PUSH1 0x0 DUP2 EXTCODEHASH PUSH32 0xC5D2460186F7233C927E7DB2DCC703C0E500B653CA82273B7BFAD8045D85A470 DUP2 DUP2 EQ DUP1 ISZERO SWAP1 PUSH2 0x1CC1 JUMPI POP DUP2 ISZERO ISZERO JUMPDEST SWAP5 SWAP4 POP POP POP POP JUMP JUMPDEST CALLER SWAP1 JUMP JUMPDEST PUSH1 0x0 DUP3 DUP2 MSTORE PUSH1 0x65 PUSH1 0x20 MSTORE PUSH1 0x40 SWAP1 KECCAK256 PUSH2 0x1CEB SWAP1 DUP3 PUSH4 0xFFFFFFFF PUSH2 0x2477 AND JUMP JUMPDEST ISZERO PUSH2 0x98D JUMPI PUSH2 0x1CF8 PUSH2 0x1CC9 JUMP JUMPDEST PUSH1 0x1 PUSH1 0x1 PUSH1 0xA0 SHL SUB AND DUP2 PUSH1 0x1 PUSH1 0x1 PUSH1 0xA0 SHL SUB AND DUP4 PUSH32 0x2F8788117E7EFF1D82E926EC794901D17C78024A50270940304540A733656F0D PUSH1 0x40 MLOAD PUSH1 0x40 MLOAD DUP1 SWAP2 SUB SWAP1 LOG4 POP POP JUMP JUMPDEST PUSH1 0x0 DUP3 DUP2 MSTORE PUSH1 0x65 PUSH1 0x20 MSTORE PUSH1 0x40 SWAP1 KECCAK256 PUSH2 0x1D5A SWAP1 DUP3 PUSH4 0xFFFFFFFF PUSH2 0x248C AND JUMP JUMPDEST ISZERO PUSH2 0x98D JUMPI PUSH2 0x1D67 PUSH2 0x1CC9 JUMP JUMPDEST PUSH1 0x1 PUSH1 0x1 PUSH1 0xA0 SHL SUB AND DUP2 PUSH1 0x1 PUSH1 0x1 PUSH1 0xA0 SHL SUB AND DUP4 PUSH32 0xF6391F5C32D9C69D2A47EA670B442974B53935D1EDC7FD64EB21E047A839171B PUSH1 0x40 MLOAD PUSH1 0x40 MLOAD DUP1 SWAP2 SUB SWAP1 LOG4 POP POP JUMP JUMPDEST PUSH1 0x97 SLOAD PUSH1 0xFF AND PUSH2 0x1DF9 JUMPI PUSH1 0x40 DUP1 MLOAD PUSH3 0x461BCD PUSH1 0xE5 SHL DUP2 MSTORE PUSH1 0x20 PUSH1 0x4 DUP3 ADD MSTORE PUSH1 0x14 PUSH1 0x24 DUP3 ADD MSTORE PUSH20 0x14185D5CD8589B194E881B9BDD081C185D5CD959 PUSH1 0x62 SHL PUSH1 0x44 DUP3 ADD MSTORE SWAP1 MLOAD SWAP1 DUP2 SWAP1 SUB PUSH1 0x64 ADD SWAP1 REVERT JUMPDEST PUSH1 0x97 DUP1 SLOAD PUSH1 0xFF NOT AND SWAP1 SSTORE PUSH32 0x5DB9EE0A495BF2E6FF9C91A7834C1BA4FDD244A5E8AA4E537BD38AEAE4B073AA PUSH2 0x1E2C PUSH2 0x1CC9 JUMP JUMPDEST PUSH1 0x40 DUP1 MLOAD PUSH1 0x1 PUSH1 0x1 PUSH1 0xA0 SHL SUB SWAP1 SWAP3 AND DUP3 MSTORE MLOAD SWAP1 DUP2 SWAP1 SUB PUSH1 0x20 ADD SWAP1 LOG1 JUMP JUMPDEST PUSH1 0x97 SLOAD PUSH1 0xFF AND ISZERO PUSH2 0x1E94 JUMPI PUSH1 0x40 DUP1 MLOAD PUSH3 0x461BCD PUSH1 0xE5 SHL DUP2 MSTORE PUSH1 0x20 PUSH1 0x4 DUP3 ADD MSTORE PUSH1 0x10 PUSH1 0x24 DUP3 ADD MSTORE PUSH16 0x14185D5CD8589B194E881C185D5CD959 PUSH1 0x82 SHL PUSH1 0x44 DUP3 ADD MSTORE SWAP1 MLOAD SWAP1 DUP2 SWAP1 SUB PUSH1 0x64 ADD SWAP1 REVERT JUMPDEST PUSH1 0x40 DUP1 MLOAD PUSH24 0x524557415244535F4449535452494255544F525F524F4C45 PUSH1 0x40 SHL DUP2 MSTORE SWAP1 MLOAD SWAP1 DUP2 SWAP1 SUB PUSH1 0x18 ADD SWAP1 KECCAK256 PUSH2 0x1ECD SWAP1 PUSH2 0x882 PUSH2 0x1CC9 JUMP JUMPDEST PUSH2 0x1F08 JUMPI PUSH1 0x40 MLOAD PUSH3 0x461BCD PUSH1 0xE5 SHL DUP2 MSTORE PUSH1 0x4 ADD DUP1 DUP1 PUSH1 0x20 ADD DUP3 DUP2 SUB DUP3 MSTORE PUSH1 0x3A DUP2 MSTORE PUSH1 0x20 ADD DUP1 PUSH2 0x3127 PUSH1 0x3A SWAP2 CODECOPY PUSH1 0x40 ADD SWAP2 POP POP PUSH1 0x40 MLOAD DUP1 SWAP2 SUB SWAP1 REVERT JUMPDEST PUSH1 0x0 PUSH1 0xFE SLOAD GT PUSH2 0x1F49 JUMPI PUSH1 0x40 MLOAD PUSH3 0x461BCD PUSH1 0xE5 SHL DUP2 MSTORE PUSH1 0x4 ADD DUP1 DUP1 PUSH1 0x20 ADD DUP3 DUP2 SUB DUP3 MSTORE PUSH1 0x2F DUP2 MSTORE PUSH1 0x20 ADD DUP1 PUSH2 0x2FB1 PUSH1 0x2F SWAP2 CODECOPY PUSH1 0x40 ADD SWAP2 POP POP PUSH1 0x40 MLOAD DUP1 SWAP2 SUB SWAP1 REVERT JUMPDEST PUSH1 0xFB SLOAD PUSH1 0xFC SLOAD PUSH1 0x40 DUP1 MLOAD PUSH4 0x70A08231 PUSH1 0xE0 SHL DUP2 MSTORE PUSH1 0x1 PUSH1 0x1 PUSH1 0xA0 SHL SUB SWAP3 DUP4 AND PUSH1 0x4 DUP3 ADD MSTORE SWAP1 MLOAD PUSH1 0x0 SWAP4 SWAP3 SWAP1 SWAP3 AND SWAP2 PUSH4 0x70A08231 SWAP2 PUSH1 0x24 DUP1 DUP3 ADD SWAP3 PUSH1 0x20 SWAP3 SWAP1 SWAP2 SWAP1 DUP3 SWAP1 SUB ADD DUP2 DUP7 DUP1 EXTCODESIZE ISZERO DUP1 ISZERO PUSH2 0x1F9D JUMPI PUSH1 0x0 DUP1 REVERT JUMPDEST POP GAS STATICCALL ISZERO DUP1 ISZERO PUSH2 0x1FB1 JUMPI RETURNDATASIZE PUSH1 0x0 DUP1 RETURNDATACOPY RETURNDATASIZE PUSH1 0x0 REVERT JUMPDEST POP POP POP POP PUSH1 0x40 MLOAD RETURNDATASIZE PUSH1 0x20 DUP2 LT ISZERO PUSH2 0x1FC7 JUMPI PUSH1 0x0 DUP1 REVERT JUMPDEST POP MLOAD SWAP1 POP DUP1 PUSH2 0x2007 JUMPI PUSH1 0x40 MLOAD PUSH3 0x461BCD PUSH1 0xE5 SHL DUP2 MSTORE PUSH1 0x4 ADD DUP1 DUP1 PUSH1 0x20 ADD DUP3 DUP2 SUB DUP3 MSTORE PUSH1 0x2B DUP2 MSTORE PUSH1 0x20 ADD DUP1 PUSH2 0x2F86 PUSH1 0x2B SWAP2 CODECOPY PUSH1 0x40 ADD SWAP2 POP POP PUSH1 0x40 MLOAD DUP1 SWAP2 SUB SWAP1 REVERT JUMPDEST PUSH1 0x0 PUSH2 0x2032 PUSH2 0x101 SLOAD PUSH2 0x2026 PUSH2 0x102 SLOAD DUP6 PUSH2 0x21EC SWAP1 SWAP2 SWAP1 PUSH4 0xFFFFFFFF AND JUMP JUMPDEST SWAP1 PUSH4 0xFFFFFFFF PUSH2 0x1C4B AND JUMP JUMPDEST SWAP1 POP PUSH1 0x0 PUSH2 0x2063 PUSH1 0xFE SLOAD PUSH2 0x2057 PUSH8 0xDE0B6B3A7640000 DUP6 PUSH2 0x24A1 SWAP1 SWAP2 SWAP1 PUSH4 0xFFFFFFFF AND JUMP JUMPDEST SWAP1 PUSH4 0xFFFFFFFF PUSH2 0x24FA AND JUMP JUMPDEST PUSH2 0x100 SLOAD SWAP1 SWAP2 POP PUSH2 0x207A SWAP1 DUP3 PUSH4 0xFFFFFFFF PUSH2 0x21EC AND JUMP JUMPDEST PUSH2 0x100 SSTORE PUSH2 0x101 DUP4 SWAP1 SSTORE PUSH1 0x0 PUSH2 0x102 SSTORE PUSH2 0x103 SLOAD PUSH2 0x209E SWAP1 DUP4 PUSH4 0xFFFFFFFF PUSH2 0x21EC AND JUMP JUMPDEST PUSH2 0x103 SSTORE PUSH1 0x40 DUP1 MLOAD DUP4 DUP2 MSTORE SWAP1 MLOAD PUSH32 0x6D1C76D614228B523BAA4DCD9539E2C713B54FF4AB3FF2D1627E7F6CD32BE442 SWAP2 DUP2 SWAP1 SUB PUSH1 0x20 ADD SWAP1 LOG1 POP POP POP JUMP JUMPDEST PUSH1 0x97 SLOAD PUSH1 0xFF AND ISZERO PUSH2 0x2125 JUMPI PUSH1 0x40 DUP1 MLOAD PUSH3 0x461BCD PUSH1 0xE5 SHL DUP2 MSTORE PUSH1 0x20 PUSH1 0x4 DUP3 ADD MSTORE PUSH1 0x10 PUSH1 0x24 DUP3 ADD MSTORE PUSH16 0x14185D5CD8589B194E881C185D5CD959 PUSH1 0x82 SHL PUSH1 0x44 DUP3 ADD MSTORE SWAP1 MLOAD SWAP1 DUP2 SWAP1 SUB PUSH1 0x64 ADD SWAP1 REVERT JUMPDEST PUSH1 0x97 DUP1 SLOAD PUSH1 0xFF NOT AND PUSH1 0x1 OR SWAP1 SSTORE PUSH32 0x62E78CEA01BEE320CD4E420270B5EA74000D11B0C9F74754EBDBFC544B05A258 PUSH2 0x1E2C PUSH2 0x1CC9 JUMP JUMPDEST PUSH1 0x0 PUSH2 0xDA8 DUP4 DUP4 PUSH2 0x253C JUMP JUMPDEST PUSH1 0x0 PUSH2 0xDA8 DUP4 PUSH1 0x1 PUSH1 0x1 PUSH1 0xA0 SHL SUB DUP5 AND PUSH2 0x25A0 JUMP JUMPDEST PUSH1 0x40 DUP2 ADD MLOAD PUSH1 0x0 SWAP1 DUP2 SWAP1 PUSH2 0x21A9 JUMPI PUSH1 0x60 DUP4 ADD MLOAD PUSH2 0x100 SLOAD PUSH2 0x21A2 SWAP2 PUSH4 0xFFFFFFFF PUSH2 0x1C4B AND JUMP JUMPDEST SWAP1 POP PUSH2 0x21C5 JUMP JUMPDEST PUSH1 0x60 DUP4 ADD MLOAD PUSH1 0x80 DUP5 ADD MLOAD PUSH2 0x21C2 SWAP2 PUSH4 0xFFFFFFFF PUSH2 0x1C4B AND JUMP JUMPDEST SWAP1 POP JUMPDEST DUP3 MLOAD PUSH2 0x21E5 SWAP1 PUSH8 0xDE0B6B3A7640000 SWAP1 PUSH2 0x2057 SWAP1 DUP5 PUSH4 0xFFFFFFFF PUSH2 0x24A1 AND JUMP JUMPDEST SWAP4 SWAP3 POP POP POP JUMP JUMPDEST PUSH1 0x0 DUP3 DUP3 ADD DUP4 DUP2 LT ISZERO PUSH2 0xDA8 JUMPI PUSH1 0x40 DUP1 MLOAD PUSH3 0x461BCD PUSH1 0xE5 SHL DUP2 MSTORE PUSH1 0x20 PUSH1 0x4 DUP3 ADD MSTORE PUSH1 0x1B PUSH1 0x24 DUP3 ADD MSTORE PUSH32 0x536166654D6174683A206164646974696F6E206F766572666C6F770000000000 PUSH1 0x44 DUP3 ADD MSTORE SWAP1 MLOAD SWAP1 DUP2 SWAP1 SUB PUSH1 0x64 ADD SWAP1 REVERT JUMPDEST PUSH1 0x0 PUSH2 0xDAB DUP3 PUSH2 0x25B8 JUMP JUMPDEST PUSH1 0x0 SLOAD PUSH2 0x100 SWAP1 DIV PUSH1 0xFF AND DUP1 PUSH2 0x226A JUMPI POP PUSH2 0x226A PUSH2 0x25BC JUMP JUMPDEST DUP1 PUSH2 0x2278 JUMPI POP PUSH1 0x0 SLOAD PUSH1 0xFF AND ISZERO JUMPDEST PUSH2 0x22B3 JUMPI PUSH1 0x40 MLOAD PUSH3 0x461BCD PUSH1 0xE5 SHL DUP2 MSTORE PUSH1 0x4 ADD DUP1 DUP1 PUSH1 0x20 ADD DUP3 DUP2 SUB DUP3 MSTORE PUSH1 0x2E DUP2 MSTORE PUSH1 0x20 ADD DUP1 PUSH2 0x2E77 PUSH1 0x2E SWAP2 CODECOPY PUSH1 0x40 ADD SWAP2 POP POP PUSH1 0x40 MLOAD DUP1 SWAP2 SUB SWAP1 REVERT JUMPDEST PUSH1 0x0 SLOAD PUSH2 0x100 SWAP1 DIV PUSH1 0xFF AND ISZERO DUP1 ISZERO PUSH2 0x22DE JUMPI PUSH1 0x0 DUP1 SLOAD PUSH1 0xFF NOT PUSH2 0xFF00 NOT SWAP1 SWAP2 AND PUSH2 0x100 OR AND PUSH1 0x1 OR SWAP1 SSTORE JUMPDEST PUSH1 0x1 PUSH1 0x1 PUSH1 0xA0 SHL SUB DUP6 AND PUSH2 0x2323 JUMPI PUSH1 0x40 MLOAD PUSH3 0x461BCD PUSH1 0xE5 SHL DUP2 MSTORE PUSH1 0x4 ADD DUP1 DUP1 PUSH1 0x20 ADD DUP3 DUP2 SUB DUP3 MSTORE PUSH1 0x27 DUP2 MSTORE PUSH1 0x20 ADD DUP1 PUSH2 0x2F5F PUSH1 0x27 SWAP2 CODECOPY PUSH1 0x40 ADD SWAP2 POP POP PUSH1 0x40 MLOAD DUP1 SWAP2 SUB SWAP1 REVERT JUMPDEST PUSH1 0x0 DUP4 GT PUSH2 0x2362 JUMPI PUSH1 0x40 MLOAD PUSH3 0x461BCD PUSH1 0xE5 SHL DUP2 MSTORE PUSH1 0x4 ADD DUP1 DUP1 PUSH1 0x20 ADD DUP3 DUP2 SUB DUP3 MSTORE PUSH1 0x36 DUP2 MSTORE PUSH1 0x20 ADD DUP1 PUSH2 0x2F29 PUSH1 0x36 SWAP2 CODECOPY PUSH1 0x40 ADD SWAP2 POP POP PUSH1 0x40 MLOAD DUP1 SWAP2 SUB SWAP1 REVERT JUMPDEST PUSH2 0x236A PUSH2 0x25C2 JUMP JUMPDEST PUSH2 0x2372 PUSH2 0x25C2 JUMP JUMPDEST PUSH2 0x237A PUSH2 0x2664 JUMP JUMPDEST PUSH2 0x2382 PUSH2 0x270F JUMP JUMPDEST PUSH2 0x238A PUSH2 0x27BD JUMP JUMPDEST PUSH2 0x2392 PUSH2 0xD1B JUMP JUMPDEST PUSH2 0x239B DUP5 PUSH2 0xA8E JUMP JUMPDEST PUSH2 0x23A3 PUSH2 0x9F2 JUMP JUMPDEST PUSH1 0xFB DUP1 SLOAD PUSH1 0x1 PUSH1 0x1 PUSH1 0xA0 SHL SUB NOT AND PUSH1 0x1 PUSH1 0x1 PUSH1 0xA0 SHL SUB DUP8 AND OR SWAP1 SSTORE PUSH1 0xFD DUP4 SWAP1 SSTORE PUSH1 0xFF DUP3 SWAP1 SSTORE DUP1 ISZERO PUSH2 0x15EE JUMPI PUSH1 0x0 DUP1 SLOAD PUSH2 0xFF00 NOT AND SWAP1 SSTORE POP POP POP POP POP JUMP JUMPDEST PUSH1 0x0 DUP2 DUP5 DUP5 GT ISZERO PUSH2 0x246F JUMPI PUSH1 0x40 MLOAD PUSH3 0x461BCD PUSH1 0xE5 SHL DUP2 MSTORE PUSH1 0x4 ADD DUP1 DUP1 PUSH1 0x20 ADD DUP3 DUP2 SUB DUP3 MSTORE DUP4 DUP2 DUP2 MLOAD DUP2 MSTORE PUSH1 0x20 ADD SWAP2 POP DUP1 MLOAD SWAP1 PUSH1 0x20 ADD SWAP1 DUP1 DUP4 DUP4 PUSH1 0x0 JUMPDEST DUP4 DUP2 LT ISZERO PUSH2 0x2434 JUMPI DUP2 DUP2 ADD MLOAD DUP4 DUP3 ADD MSTORE PUSH1 0x20 ADD PUSH2 0x241C JUMP JUMPDEST POP POP POP POP SWAP1 POP SWAP1 DUP2 ADD SWAP1 PUSH1 0x1F AND DUP1 ISZERO PUSH2 0x2461 JUMPI DUP1 DUP3 SUB DUP1 MLOAD PUSH1 0x1 DUP4 PUSH1 0x20 SUB PUSH2 0x100 EXP SUB NOT AND DUP2 MSTORE PUSH1 0x20 ADD SWAP2 POP JUMPDEST POP SWAP3 POP POP POP PUSH1 0x40 MLOAD DUP1 SWAP2 SUB SWAP1 REVERT JUMPDEST POP POP POP SWAP1 SUB SWAP1 JUMP JUMPDEST PUSH1 0x0 PUSH2 0xDA8 DUP4 PUSH1 0x1 PUSH1 0x1 PUSH1 0xA0 SHL SUB DUP5 AND PUSH2 0x28EC JUMP JUMPDEST PUSH1 0x0 PUSH2 0xDA8 DUP4 PUSH1 0x1 PUSH1 0x1 PUSH1 0xA0 SHL SUB DUP5 AND PUSH2 0x2936 JUMP JUMPDEST PUSH1 0x0 DUP3 PUSH2 0x24B0 JUMPI POP PUSH1 0x0 PUSH2 0xDAB JUMP JUMPDEST DUP3 DUP3 MUL DUP3 DUP5 DUP3 DUP2 PUSH2 0x24BD JUMPI INVALID JUMPDEST DIV EQ PUSH2 0xDA8 JUMPI PUSH1 0x40 MLOAD PUSH3 0x461BCD PUSH1 0xE5 SHL DUP2 MSTORE PUSH1 0x4 ADD DUP1 DUP1 PUSH1 0x20 ADD DUP3 DUP2 SUB DUP3 MSTORE PUSH1 0x21 DUP2 MSTORE PUSH1 0x20 ADD DUP1 PUSH2 0x2D7B PUSH1 0x21 SWAP2 CODECOPY PUSH1 0x40 ADD SWAP2 POP POP PUSH1 0x40 MLOAD DUP1 SWAP2 SUB SWAP1 REVERT JUMPDEST PUSH1 0x0 PUSH2 0xDA8 DUP4 DUP4 PUSH1 0x40 MLOAD DUP1 PUSH1 0x40 ADD PUSH1 0x40 MSTORE DUP1 PUSH1 0x1A DUP2 MSTORE PUSH1 0x20 ADD PUSH32 0x536166654D6174683A206469766973696F6E206279207A65726F000000000000 DUP2 MSTORE POP PUSH2 0x29FC JUMP JUMPDEST DUP2 SLOAD PUSH1 0x0 SWAP1 DUP3 LT PUSH2 0x257E JUMPI PUSH1 0x40 MLOAD PUSH3 0x461BCD PUSH1 0xE5 SHL DUP2 MSTORE PUSH1 0x4 ADD DUP1 DUP1 PUSH1 0x20 ADD DUP3 DUP2 SUB DUP3 MSTORE PUSH1 0x22 DUP2 MSTORE PUSH1 0x20 ADD DUP1 PUSH2 0x2AB4 PUSH1 0x22 SWAP2 CODECOPY PUSH1 0x40 ADD SWAP2 POP POP PUSH1 0x40 MLOAD DUP1 SWAP2 SUB SWAP1 REVERT JUMPDEST DUP3 PUSH1 0x0 ADD DUP3 DUP2 SLOAD DUP2 LT PUSH2 0x258D JUMPI INVALID JUMPDEST SWAP1 PUSH1 0x0 MSTORE PUSH1 0x20 PUSH1 0x0 KECCAK256 ADD SLOAD SWAP1 POP SWAP3 SWAP2 POP POP JUMP JUMPDEST PUSH1 0x0 SWAP1 DUP2 MSTORE PUSH1 0x1 SWAP2 SWAP1 SWAP2 ADD PUSH1 0x20 MSTORE PUSH1 0x40 SWAP1 KECCAK256 SLOAD ISZERO ISZERO SWAP1 JUMP JUMPDEST SLOAD SWAP1 JUMP JUMPDEST ADDRESS EXTCODESIZE ISZERO SWAP1 JUMP JUMPDEST PUSH1 0x0 SLOAD PUSH2 0x100 SWAP1 DIV PUSH1 0xFF AND DUP1 PUSH2 0x25DB JUMPI POP PUSH2 0x25DB PUSH2 0x25BC JUMP JUMPDEST DUP1 PUSH2 0x25E9 JUMPI POP PUSH1 0x0 SLOAD PUSH1 0xFF AND ISZERO JUMPDEST PUSH2 0x2624 JUMPI PUSH1 0x40 MLOAD PUSH3 0x461BCD PUSH1 0xE5 SHL DUP2 MSTORE PUSH1 0x4 ADD DUP1 DUP1 PUSH1 0x20 ADD DUP3 DUP2 SUB DUP3 MSTORE PUSH1 0x2E DUP2 MSTORE PUSH1 0x20 ADD DUP1 PUSH2 0x2E77 PUSH1 0x2E SWAP2 CODECOPY PUSH1 0x40 ADD SWAP2 POP POP PUSH1 0x40 MLOAD DUP1 SWAP2 SUB SWAP1 REVERT JUMPDEST PUSH1 0x0 SLOAD PUSH2 0x100 SWAP1 DIV PUSH1 0xFF AND ISZERO DUP1 ISZERO PUSH2 0x264F JUMPI PUSH1 0x0 DUP1 SLOAD PUSH1 0xFF NOT PUSH2 0xFF00 NOT SWAP1 SWAP2 AND PUSH2 0x100 OR AND PUSH1 0x1 OR SWAP1 SSTORE JUMPDEST DUP1 ISZERO PUSH2 0x2661 JUMPI PUSH1 0x0 DUP1 SLOAD PUSH2 0xFF00 NOT AND SWAP1 SSTORE JUMPDEST POP JUMP JUMPDEST PUSH1 0x0 SLOAD PUSH2 0x100 SWAP1 DIV PUSH1 0xFF AND DUP1 PUSH2 0x267D JUMPI POP PUSH2 0x267D PUSH2 0x25BC JUMP JUMPDEST DUP1 PUSH2 0x268B JUMPI POP PUSH1 0x0 SLOAD PUSH1 0xFF AND ISZERO JUMPDEST PUSH2 0x26C6 JUMPI PUSH1 0x40 MLOAD PUSH3 0x461BCD PUSH1 0xE5 SHL DUP2 MSTORE PUSH1 0x4 ADD DUP1 DUP1 PUSH1 0x20 ADD DUP3 DUP2 SUB DUP3 MSTORE PUSH1 0x2E DUP2 MSTORE PUSH1 0x20 ADD DUP1 PUSH2 0x2E77 PUSH1 0x2E SWAP2 CODECOPY PUSH1 0x40 ADD SWAP2 POP POP PUSH1 0x40 MLOAD DUP1 SWAP2 SUB SWAP1 REVERT JUMPDEST PUSH1 0x0 SLOAD PUSH2 0x100 SWAP1 DIV PUSH1 0xFF AND ISZERO DUP1 ISZERO PUSH2 0x26F1 JUMPI PUSH1 0x0 DUP1 SLOAD PUSH1 0xFF NOT PUSH2 0xFF00 NOT SWAP1 SWAP2 AND PUSH2 0x100 OR AND PUSH1 0x1 OR SWAP1 SSTORE JUMPDEST PUSH1 0x97 DUP1 SLOAD PUSH1 0xFF NOT AND SWAP1 SSTORE DUP1 ISZERO PUSH2 0x2661 JUMPI PUSH1 0x0 DUP1 SLOAD PUSH2 0xFF00 NOT AND SWAP1 SSTORE POP JUMP JUMPDEST PUSH1 0x0 SLOAD PUSH2 0x100 SWAP1 DIV PUSH1 0xFF AND DUP1 PUSH2 0x2728 JUMPI POP PUSH2 0x2728 PUSH2 0x25BC JUMP JUMPDEST DUP1 PUSH2 0x2736 JUMPI POP PUSH1 0x0 SLOAD PUSH1 0xFF AND ISZERO JUMPDEST PUSH2 0x2771 JUMPI PUSH1 0x40 MLOAD PUSH3 0x461BCD PUSH1 0xE5 SHL DUP2 MSTORE PUSH1 0x4 ADD DUP1 DUP1 PUSH1 0x20 ADD DUP3 DUP2 SUB DUP3 MSTORE PUSH1 0x2E DUP2 MSTORE PUSH1 0x20 ADD DUP1 PUSH2 0x2E77 PUSH1 0x2E SWAP2 CODECOPY PUSH1 0x40 ADD SWAP2 POP POP PUSH1 0x40 MLOAD DUP1 SWAP2 SUB SWAP1 REVERT JUMPDEST PUSH1 0x0 SLOAD PUSH2 0x100 SWAP1 DIV PUSH1 0xFF AND ISZERO DUP1 ISZERO PUSH2 0x279C JUMPI PUSH1 0x0 DUP1 SLOAD PUSH1 0xFF NOT PUSH2 0xFF00 NOT SWAP1 SWAP2 AND PUSH2 0x100 OR AND PUSH1 0x1 OR SWAP1 SSTORE JUMPDEST PUSH1 0xC9 DUP1 SLOAD PUSH1 0xFF NOT AND PUSH1 0x1 OR SWAP1 SSTORE DUP1 ISZERO PUSH2 0x2661 JUMPI PUSH1 0x0 DUP1 SLOAD PUSH2 0xFF00 NOT AND SWAP1 SSTORE POP JUMP JUMPDEST PUSH1 0x0 SLOAD PUSH2 0x100 SWAP1 DIV PUSH1 0xFF AND DUP1 PUSH2 0x27D6 JUMPI POP PUSH2 0x27D6 PUSH2 0x25BC JUMP JUMPDEST DUP1 PUSH2 0x27E4 JUMPI POP PUSH1 0x0 SLOAD PUSH1 0xFF AND ISZERO JUMPDEST PUSH2 0x281F JUMPI PUSH1 0x40 MLOAD PUSH3 0x461BCD PUSH1 0xE5 SHL DUP2 MSTORE PUSH1 0x4 ADD DUP1 DUP1 PUSH1 0x20 ADD DUP3 DUP2 SUB DUP3 MSTORE PUSH1 0x2E DUP2 MSTORE PUSH1 0x20 ADD DUP1 PUSH2 0x2E77 PUSH1 0x2E SWAP2 CODECOPY PUSH1 0x40 ADD SWAP2 POP POP PUSH1 0x40 MLOAD DUP1 SWAP2 SUB SWAP1 REVERT JUMPDEST PUSH1 0x0 SLOAD PUSH2 0x100 SWAP1 DIV PUSH1 0xFF AND ISZERO DUP1 ISZERO PUSH2 0x284A JUMPI PUSH1 0x0 DUP1 SLOAD PUSH1 0xFF NOT PUSH2 0xFF00 NOT SWAP1 SWAP2 AND PUSH2 0x100 OR AND PUSH1 0x1 OR SWAP1 SSTORE JUMPDEST PUSH2 0x285C PUSH1 0x0 PUSH2 0x2857 PUSH2 0x1CC9 JUMP JUMPDEST PUSH2 0x983 JUMP JUMPDEST PUSH1 0x40 DUP1 MLOAD PUSH11 0x5041555345525F524F4C45 PUSH1 0xA8 SHL DUP2 MSTORE SWAP1 MLOAD SWAP1 DUP2 SWAP1 SUB PUSH1 0xB ADD SWAP1 KECCAK256 PUSH2 0x2888 SWAP1 PUSH2 0x2857 PUSH2 0x1CC9 JUMP JUMPDEST PUSH1 0x40 DUP1 MLOAD PUSH10 0x4F574E45525F524F4C45 PUSH1 0xB0 SHL DUP2 MSTORE SWAP1 MLOAD SWAP1 DUP2 SWAP1 SUB PUSH1 0xA ADD SWAP1 KECCAK256 PUSH2 0x28B3 SWAP1 PUSH2 0x2857 PUSH2 0x1CC9 JUMP JUMPDEST PUSH1 0x40 DUP1 MLOAD PUSH24 0x524557415244535F4449535452494255544F525F524F4C45 PUSH1 0x40 SHL DUP2 MSTORE SWAP1 MLOAD SWAP1 DUP2 SWAP1 SUB PUSH1 0x18 ADD SWAP1 KECCAK256 PUSH2 0x264F SWAP1 PUSH2 0x2857 PUSH2 0x1CC9 JUMP JUMPDEST PUSH1 0x0 PUSH2 0x28F8 DUP4 DUP4 PUSH2 0x25A0 JUMP JUMPDEST PUSH2 0x292E JUMPI POP DUP2 SLOAD PUSH1 0x1 DUP2 DUP2 ADD DUP5 SSTORE PUSH1 0x0 DUP5 DUP2 MSTORE PUSH1 0x20 DUP1 DUP3 KECCAK256 SWAP1 SWAP4 ADD DUP5 SWAP1 SSTORE DUP5 SLOAD DUP5 DUP3 MSTORE DUP3 DUP7 ADD SWAP1 SWAP4 MSTORE PUSH1 0x40 SWAP1 KECCAK256 SWAP2 SWAP1 SWAP2 SSTORE PUSH2 0xDAB JUMP JUMPDEST POP PUSH1 0x0 PUSH2 0xDAB JUMP JUMPDEST PUSH1 0x0 DUP2 DUP2 MSTORE PUSH1 0x1 DUP4 ADD PUSH1 0x20 MSTORE PUSH1 0x40 DUP2 KECCAK256 SLOAD DUP1 ISZERO PUSH2 0x29F2 JUMPI DUP4 SLOAD PUSH1 0x0 NOT DUP1 DUP4 ADD SWAP2 SWAP1 DUP2 ADD SWAP1 PUSH1 0x0 SWAP1 DUP8 SWAP1 DUP4 SWAP1 DUP2 LT PUSH2 0x2969 JUMPI INVALID JUMPDEST SWAP1 PUSH1 0x0 MSTORE PUSH1 0x20 PUSH1 0x0 KECCAK256 ADD SLOAD SWAP1 POP DUP1 DUP8 PUSH1 0x0 ADD DUP5 DUP2 SLOAD DUP2 LT PUSH2 0x2986 JUMPI INVALID JUMPDEST PUSH1 0x0 SWAP2 DUP3 MSTORE PUSH1 0x20 DUP1 DUP4 KECCAK256 SWAP1 SWAP2 ADD SWAP3 SWAP1 SWAP3 SSTORE DUP3 DUP2 MSTORE PUSH1 0x1 DUP10 DUP2 ADD SWAP1 SWAP3 MSTORE PUSH1 0x40 SWAP1 KECCAK256 SWAP1 DUP5 ADD SWAP1 SSTORE DUP7 SLOAD DUP8 SWAP1 DUP1 PUSH2 0x29B6 JUMPI INVALID JUMPDEST PUSH1 0x1 SWAP1 SUB DUP2 DUP2 SWAP1 PUSH1 0x0 MSTORE PUSH1 0x20 PUSH1 0x0 KECCAK256 ADD PUSH1 0x0 SWAP1 SSTORE SWAP1 SSTORE DUP7 PUSH1 0x1 ADD PUSH1 0x0 DUP8 DUP2 MSTORE PUSH1 0x20 ADD SWAP1 DUP2 MSTORE PUSH1 0x20 ADD PUSH1 0x0 KECCAK256 PUSH1 0x0 SWAP1 SSTORE PUSH1 0x1 SWAP5 POP POP POP POP POP PUSH2 0xDAB JUMP JUMPDEST PUSH1 0x0 SWAP2 POP POP PUSH2 0xDAB JUMP JUMPDEST PUSH1 0x0 DUP2 DUP4 PUSH2 0x2A4B JUMPI PUSH1 0x40 MLOAD PUSH3 0x461BCD PUSH1 0xE5 SHL DUP2 MSTORE PUSH1 0x20 PUSH1 0x4 DUP3 ADD DUP2 DUP2 MSTORE DUP4 MLOAD PUSH1 0x24 DUP5 ADD MSTORE DUP4 MLOAD SWAP1 SWAP3 DUP4 SWAP3 PUSH1 0x44 SWAP1 SWAP2 ADD SWAP2 SWAP1 DUP6 ADD SWAP1 DUP1 DUP4 DUP4 PUSH1 0x0 DUP4 ISZERO PUSH2 0x2434 JUMPI DUP2 DUP2 ADD MLOAD DUP4 DUP3 ADD MSTORE PUSH1 0x20 ADD PUSH2 0x241C JUMP JUMPDEST POP PUSH1 0x0 DUP4 DUP6 DUP2 PUSH2 0x2A57 JUMPI INVALID JUMPDEST DIV SWAP6 SWAP5 POP POP POP POP POP JUMP JUMPDEST PUSH1 0x40 MLOAD DUP1 PUSH1 0xC0 ADD PUSH1 0x40 MSTORE DUP1 PUSH1 0x0 DUP2 MSTORE PUSH1 0x20 ADD PUSH1 0x0 DUP2 MSTORE PUSH1 0x20 ADD PUSH1 0x0 DUP2 MSTORE PUSH1 0x20 ADD PUSH1 0x0 DUP2 MSTORE PUSH1 0x20 ADD PUSH1 0x0 DUP2 MSTORE PUSH1 0x20 ADD PUSH1 0x0 ISZERO ISZERO DUP2 MSTORE POP SWAP1 JUMP JUMPDEST PUSH1 0x40 MLOAD DUP1 PUSH1 0x40 ADD PUSH1 0x40 MSTORE DUP1 PUSH1 0x0 DUP2 MSTORE PUSH1 0x20 ADD PUSH1 0x0 DUP2 MSTORE POP SWAP1 JUMP INVALID GASLIMIT PUSH15 0x756D657261626C655365743A20696E PUSH5 0x6578206F75 PUSH21 0x206F6620626F756E64735B57697468647261775D20 SLOAD PUSH9 0x6520756E7374616B69 PUSH15 0x6720706572696F6420646964206E6F PUSH21 0x2070617373416363657373436F6E74726F6C3A2073 PUSH6 0x6E646572206D PUSH22 0x737420626520616E2061646D696E20746F206772616E PUSH21 0x5265656E7472616E637947756172643A207265656E PUSH21 0x72616E742063616C6C005B57697468647261775D20 SLOAD PUSH9 0x657265206973206E6F KECCAK256 PUSH20 0x74616B65206465706F73697420666F7220746869 PUSH20 0x206163636F756E745B56616C69646174696F6E5D KECCAK256 0x5F PUSH19 0x6577617264734164647265737320697320616C PUSH19 0x656164792073657420746F20676976656E2061 PUSH5 0x6472657373 JUMPDEST JUMP PUSH2 0x6C69 PUSH5 0x6174696F6E 0x5D KECCAK256 0x5F PUSH19 0x65776172647341646472657373206973207468 PUSH6 0x207A65726F20 PUSH2 0x6464 PUSH19 0x6573735B4465706F7369745D20536F6D657468 PUSH10 0x6E672077656E74207772 PUSH16 0x6E67207768696C65207472616E736665 PUSH19 0x72696E67207265776172645B56616C69646174 PUSH10 0x6F6E5D20546865207374 PUSH2 0x6B65 KECCAK256 PUSH5 0x65706F7369 PUSH21 0x2068617320746F206265206C617267657220746861 PUSH15 0x20305B496E69746961746520576974 PUSH9 0x64726177616C5D2059 PUSH16 0x75206861766520616C72656164792069 PUSH15 0x697469617465642074686520776974 PUSH9 0x64726177616C537761 PUSH17 0x5374616B696E67436F6E74726163743A20 PUSH14 0x7573742068617665207061757365 PUSH19 0x20726F6C6520746F20756E7061757365416363 PUSH6 0x7373436F6E74 PUSH19 0x6F6C3A2073656E646572206D75737420626520 PUSH2 0x6E20 PUSH2 0x646D PUSH10 0x6E20746F207265766F6B PUSH6 0x5B56616C6964 PUSH2 0x7469 PUSH16 0x6E5D205468652063616C6C6572206D75 PUSH20 0x742068617665206F776E657220726F6C6520746F KECCAK256 PUSH20 0x6574207265776172647320616464726573735B56 PUSH2 0x6C69 PUSH5 0x6174696F6E 0x5D KECCAK256 SLOAD PUSH9 0x652061646472657373 KECCAK256 PUSH5 0x6F6573206E PUSH16 0x7420636F6E7461696E206120636F6E74 PUSH19 0x616374536166654D6174683A206D756C746970 PUSH13 0x69636174696F6E206F76657266 PUSH13 0x6F775B496E6974696174652057 PUSH10 0x746864726177616C5D20 0x49 PUSH15 0x76616C696420776974686472617761 PUSH13 0x20616D6F756E745B5769746864 PUSH19 0x61775D20576974686472617720616D6F756E74 KECCAK256 PUSH10 0x73206E6F7420696E6974 PUSH10 0x616C697A65645B576974 PUSH9 0x647261775D20536F6D PUSH6 0x7468696E6720 PUSH24 0x656E742077726F6E67207768696C65207472616E73666572 PUSH19 0x696E6720796F7572207265776172645B56616C PUSH10 0x646174696F6E5D205468 PUSH6 0x2063616C6C65 PUSH19 0x206D7573742068617665206F776E657220726F PUSH13 0x6520746F2073657420746F6B65 PUSH15 0x2061646472657373436F6E74726163 PUSH21 0x20696E7374616E63652068617320616C7265616479 KECCAK256 PUSH3 0x65656E KECCAK256 PUSH10 0x6E697469616C697A6564 JUMPDEST JUMPI PUSH10 0x7468647261775D20536F PUSH14 0x657468696E672077656E74207772 PUSH16 0x6E67207768696C65207472616E736665 PUSH19 0x72696E6720796F757220696E697469616C2064 PUSH6 0x706F7369745B DIFFICULTY PUSH6 0x706F7369745D KECCAK256 MSIZE PUSH16 0x7572206465706F73697420776F756C64 KECCAK256 PUSH6 0x786365656420 PUSH21 0x68652063757272656E74207374616B696E67206C69 PUSH14 0x69745B56616C69646174696F6E5D KECCAK256 0x5F PUSH14 0x61785374616B696E67416D6F756E PUSH21 0x2068617320746F206265206C617267657220746861 PUSH15 0x20305B56616C69646174696F6E5D20 0x49 PUSH15 0x76616C6964207377617020746F6B65 PUSH15 0x20616464726573735B56616C696461 PUSH21 0x696F6E5D206E6F7420656E6F756768207265776172 PUSH5 0x7320616363 PUSH22 0x6D756C617465645B56616C69646174696F6E5D206E6F PUSH21 0x20656E6F75676820746F74616C207374616B652061 PUSH4 0x63756D75 PUSH13 0x617465645B7769746864726177 0x5D KECCAK256 MSTORE PUSH6 0x6D61696E696E PUSH8 0x207374616B656465 PUSH17 0x6F73697420616D6F756E74206D75737420 PUSH3 0x652068 PUSH10 0x67686572207468616E20 PUSH24 0x6974686472617720616D6F756E745B526577617264732057 PUSH10 0x746864726177616C5D20 MSTORE8 PUSH16 0x6D657468696E672077656E742077726F PUSH15 0x67207768696C65207472616E736665 PUSH19 0x72696E6720796F7572207265776172645B4465 PUSH17 0x6F7369745D20536F6D657468696E672077 PUSH6 0x6E742077726F PUSH15 0x6720647572696E672074686520746F PUSH12 0x656E207472616E736665725B 0x49 PUSH15 0x697469617465205769746864726177 PUSH2 0x6C5D KECCAK256 JUMPI PUSH10 0x74686472617720616D6F PUSH22 0x6E742065786365656420746865207374616B6520616D PUSH16 0x756E745B526577617264732057697468 PUSH5 0x726177616C 0x5D KECCAK256 MSIZE PUSH16 0x7520616C726561647920696E69746961 PUSH21 0x6564207468652066756C6C20776974686472617761 PUSH13 0x5B56616C69646174696F6E5D20 SLOAD PUSH9 0x652063616C6C657220 PUSH14 0x7573742068617665207265776172 PUSH5 0x7320646973 PUSH21 0x72696275746F7220726F6C655B4465706F7369745D KECCAK256 MSIZE PUSH16 0x75206861766520616C72656164792069 PUSH15 0x697469617465642074686520776974 PUSH9 0x64726177616C537761 PUSH17 0x5374616B696E67436F6E74726163743A20 PUSH14 0x7573742068617665207061757365 PUSH19 0x20726F6C6520746F2070617573655B52657761 PUSH19 0x6473205769746864726177616C5D2054686572 PUSH6 0x206973206E6F KECCAK256 PUSH20 0x74616B65206465706F73697420666F7220746869 PUSH20 0x206163636F756E745B56616C69646174696F6E5D KECCAK256 SLOAD PUSH9 0x6973206163636F756E PUSH21 0x20646F65736E277420686176652061207374616B65 KECCAK256 PUSH5 0x65706F7369 PUSH21 0x5B52657761726473205769746864726177616C5D20 SLOAD PUSH9 0x652072657761726420 PUSH2 0x6D6F PUSH22 0x6E742068617320746F206265206C6172676572207468 PUSH2 0x6E20 ADDRESS JUMPDEST 0x49 PUSH15 0x697469617465205769746864726177 PUSH2 0x6C5D KECCAK256 SLOAD PUSH9 0x657265206973206E6F KECCAK256 PUSH20 0x74616B65206465706F73697420666F7220746869 PUSH20 0x206163636F756E74416363657373436F6E74726F PUSH13 0x3A2063616E206F6E6C79207265 PUSH15 0x6F756E636520726F6C657320666F72 KECCAK256 PUSH20 0x656C66A2646970667358221220A724F8708FC684 SWAP12 DUP14 0xAF LOG2 PUSH11 0x796038CCE511E5A0A4E47D 0xD2 SWAP4 0xB9 CODECOPY 0x29 MULMOD 0xE6 0xC2 SIGNEXTEND PUSH5 0x736F6C6343 STOP MOD MUL STOP CALLER "},"methodIdentifiers":{"DEFAULT_ADMIN_ROLE()":"a217fddf","currentTotalStake()":"ce4843e9","deposit(uint256)":"b6b55f25","distributeRewards()":"6f4a2cd0","executeWithdrawal()":"fa45aa00","getRoleAdmin(bytes32)":"248a9ca3","getRoleMember(bytes32,uint256)":"9010d07c","getRoleMemberCount(bytes32)":"ca15c873","getStakeDetails(address)":"f41322ac","grantRole(bytes32,address)":"2f2ff15d","hasRole(bytes32,address)":"91d14854","initialize(address,address,uint256,uint256)":"eb990c59","initiateWithdrawal(uint256)":"12edde5e","maxStakingAmount()":"4d5d0806","pause()":"8456cb59","paused()":"5c975abb","renounceRole(bytes32,address)":"36568abe","revokeRole(bytes32,address)":"d547741f","rewardsAddress()":"c0973eed","rewardsDistributed()":"9c1454d4","rewardsWithdrawn()":"c413d100","setRewardAddress(address)":"5e00e679","setTokenAddress(address)":"26a4e8d2","token()":"fc0c546a","totalRewardsDistributed()":"ee172546","unpause()":"3f4ba83a","unstakingPeriod()":"f21c783b","version()":"54fd4d50","withdrawRewards()":"c7b8981c"}},"storageLayout":{"storage":[{"astId":48,"contract":"contracts/SwapStakingContract.sol:SwapStakingContract","label":"initialized","offset":0,"slot":"0","type":"t_bool"},{"astId":50,"contract":"contracts/SwapStakingContract.sol:SwapStakingContract","label":"initializing","offset":1,"slot":"0","type":"t_bool"},{"astId":113,"contract":"contracts/SwapStakingContract.sol:SwapStakingContract","label":"______gap","offset":0,"slot":"1","type":"t_array(t_uint256)50_storage"},{"astId":43,"contract":"contracts/SwapStakingContract.sol:SwapStakingContract","label":"__gap","offset":0,"slot":"51","type":"t_array(t_uint256)50_storage"},{"astId":157,"contract":"contracts/SwapStakingContract.sol:SwapStakingContract","label":"_roles","offset":0,"slot":"101","type":"t_mapping(t_bytes32,t_struct(RoleData)153_storage)"},{"astId":391,"contract":"contracts/SwapStakingContract.sol:SwapStakingContract","label":"__gap","offset":0,"slot":"102","type":"t_array(t_uint256)49_storage"},{"astId":2264,"contract":"contracts/SwapStakingContract.sol:SwapStakingContract","label":"_paused","offset":0,"slot":"151","type":"t_bool"},{"astId":2347,"contract":"contracts/SwapStakingContract.sol:SwapStakingContract","label":"__gap","offset":0,"slot":"152","type":"t_array(t_uint256)49_storage"},{"astId":2355,"contract":"contracts/SwapStakingContract.sol:SwapStakingContract","label":"_notEntered","offset":0,"slot":"201","type":"t_bool"},{"astId":2395,"contract":"contracts/SwapStakingContract.sol:SwapStakingContract","label":"__gap","offset":0,"slot":"202","type":"t_array(t_uint256)49_storage"},{"astId":7070,"contract":"contracts/SwapStakingContract.sol:SwapStakingContract","label":"token","offset":0,"slot":"251","type":"t_contract(IERC20)1497"},{"astId":7072,"contract":"contracts/SwapStakingContract.sol:SwapStakingContract","label":"rewardsAddress","offset":0,"slot":"252","type":"t_address"},{"astId":7074,"contract":"contracts/SwapStakingContract.sol:SwapStakingContract","label":"maxStakingAmount","offset":0,"slot":"253","type":"t_uint256"},{"astId":7076,"contract":"contracts/SwapStakingContract.sol:SwapStakingContract","label":"currentTotalStake","offset":0,"slot":"254","type":"t_uint256"},{"astId":7078,"contract":"contracts/SwapStakingContract.sol:SwapStakingContract","label":"unstakingPeriod","offset":0,"slot":"255","type":"t_uint256"},{"astId":7080,"contract":"contracts/SwapStakingContract.sol:SwapStakingContract","label":"totalRewardPoints","offset":0,"slot":"256","type":"t_uint256"},{"astId":7082,"contract":"contracts/SwapStakingContract.sol:SwapStakingContract","label":"rewardsDistributed","offset":0,"slot":"257","type":"t_uint256"},{"astId":7084,"contract":"contracts/SwapStakingContract.sol:SwapStakingContract","label":"rewardsWithdrawn","offset":0,"slot":"258","type":"t_uint256"},{"astId":7086,"contract":"contracts/SwapStakingContract.sol:SwapStakingContract","label":"totalRewardsDistributed","offset":0,"slot":"259","type":"t_uint256"},{"astId":7090,"contract":"contracts/SwapStakingContract.sol:SwapStakingContract","label":"_stakeDeposits","offset":0,"slot":"260","type":"t_mapping(t_address,t_struct(StakeDeposit)7063_storage)"},{"astId":7094,"contract":"contracts/SwapStakingContract.sol:SwapStakingContract","label":"_withdrawStates","offset":0,"slot":"261","type":"t_mapping(t_address,t_struct(WithdrawalState)7068_storage)"}],"types":{"t_address":{"encoding":"inplace","label":"address","numberOfBytes":"20"},"t_array(t_bytes32)dyn_storage":{"base":"t_bytes32","encoding":"dynamic_array","label":"bytes32[]","numberOfBytes":"32"},"t_array(t_uint256)49_storage":{"base":"t_uint256","encoding":"inplace","label":"uint256[49]","numberOfBytes":"1568"},"t_array(t_uint256)50_storage":{"base":"t_uint256","encoding":"inplace","label":"uint256[50]","numberOfBytes":"1600"},"t_bool":{"encoding":"inplace","label":"bool","numberOfBytes":"1"},"t_bytes32":{"encoding":"inplace","label":"bytes32","numberOfBytes":"32"},"t_contract(IERC20)1497":{"encoding":"inplace","label":"contract IERC20","numberOfBytes":"20"},"t_mapping(t_address,t_struct(StakeDeposit)7063_storage)":{"encoding":"mapping","key":"t_address","label":"mapping(address => struct SwapStakingContract.StakeDeposit)","numberOfBytes":"32","value":"t_struct(StakeDeposit)7063_storage"},"t_mapping(t_address,t_struct(WithdrawalState)7068_storage)":{"encoding":"mapping","key":"t_address","label":"mapping(address => struct SwapStakingContract.WithdrawalState)","numberOfBytes":"32","value":"t_struct(WithdrawalState)7068_storage"},"t_mapping(t_bytes32,t_struct(RoleData)153_storage)":{"encoding":"mapping","key":"t_bytes32","label":"mapping(bytes32 => struct AccessControlUpgradeSafe.RoleData)","numberOfBytes":"32","value":"t_struct(RoleData)153_storage"},"t_mapping(t_bytes32,t_uint256)":{"encoding":"mapping","key":"t_bytes32","label":"mapping(bytes32 => uint256)","numberOfBytes":"32","value":"t_uint256"},"t_struct(AddressSet)2052_storage":{"encoding":"inplace","label":"struct EnumerableSet.AddressSet","members":[{"astId":2051,"contract":"contracts/SwapStakingContract.sol:SwapStakingContract","label":"_inner","offset":0,"slot":"0","type":"t_struct(Set)1877_storage"}],"numberOfBytes":"64"},"t_struct(RoleData)153_storage":{"encoding":"inplace","label":"struct AccessControlUpgradeSafe.RoleData","members":[{"astId":150,"contract":"contracts/SwapStakingContract.sol:SwapStakingContract","label":"members","offset":0,"slot":"0","type":"t_struct(AddressSet)2052_storage"},{"astId":152,"contract":"contracts/SwapStakingContract.sol:SwapStakingContract","label":"adminRole","offset":0,"slot":"2","type":"t_bytes32"}],"numberOfBytes":"96"},"t_struct(Set)1877_storage":{"encoding":"inplace","label":"struct EnumerableSet.Set","members":[{"astId":1872,"contract":"contracts/SwapStakingContract.sol:SwapStakingContract","label":"_values","offset":0,"slot":"0","type":"t_array(t_bytes32)dyn_storage"},{"astId":1876,"contract":"contracts/SwapStakingContract.sol:SwapStakingContract","label":"_indexes","offset":0,"slot":"1","type":"t_mapping(t_bytes32,t_uint256)"}],"numberOfBytes":"64"},"t_struct(StakeDeposit)7063_storage":{"encoding":"inplace","label":"struct SwapStakingContract.StakeDeposit","members":[{"astId":7052,"contract":"contracts/SwapStakingContract.sol:SwapStakingContract","label":"amount","offset":0,"slot":"0","type":"t_uint256"},{"astId":7054,"contract":"contracts/SwapStakingContract.sol:SwapStakingContract","label":"startDate","offset":0,"slot":"1","type":"t_uint256"},{"astId":7056,"contract":"contracts/SwapStakingContract.sol:SwapStakingContract","label":"endDate","offset":0,"slot":"2","type":"t_uint256"},{"astId":7058,"contract":"contracts/SwapStakingContract.sol:SwapStakingContract","label":"entryRewardPoints","offset":0,"slot":"3","type":"t_uint256"},{"astId":7060,"contract":"contracts/SwapStakingContract.sol:SwapStakingContract","label":"exitRewardPoints","offset":0,"slot":"4","type":"t_uint256"},{"astId":7062,"contract":"contracts/SwapStakingContract.sol:SwapStakingContract","label":"exists","offset":0,"slot":"5","type":"t_bool"}],"numberOfBytes":"192"},"t_struct(WithdrawalState)7068_storage":{"encoding":"inplace","label":"struct SwapStakingContract.WithdrawalState","members":[{"astId":7065,"contract":"contracts/SwapStakingContract.sol:SwapStakingContract","label":"initiateDate","offset":0,"slot":"0","type":"t_uint256"},{"astId":7067,"contract":"contracts/SwapStakingContract.sol:SwapStakingContract","label":"amount","offset":0,"slot":"1","type":"t_uint256"}],"numberOfBytes":"64"},"t_uint256":{"encoding":"inplace","label":"uint256","numberOfBytes":"32"}}}}}}