{"@openzeppelin/contracts-ethereum-package/contracts/utils/Pausable.sol":{"PausableUpgradeSafe":{"abi":[{"anonymous":false,"inputs":[{"indexed":false,"internalType":"address","name":"account","type":"address"}],"name":"Paused","type":"event"},{"anonymous":false,"inputs":[{"indexed":false,"internalType":"address","name":"account","type":"address"}],"name":"Unpaused","type":"event"},{"inputs":[],"name":"paused","outputs":[{"internalType":"bool","name":"","type":"bool"}],"stateMutability":"view","type":"function"}],"evm":{"bytecode":{"linkReferences":{},"object":"6080604052348015600f57600080fd5b5060868061001e6000396000f3fe6080604052348015600f57600080fd5b506004361060285760003560e01c80635c975abb14602d575b600080fd5b60336047565b604080519115158252519081900360200190f35b60655460ff169056fea2646970667358221220369b0df71d6bd4177746ceee2f8797ffd6b7339f369acacb04a448473164a69c64736f6c63430006020033","opcodes":"PUSH1 0x80 PUSH1 0x40 MSTORE CALLVALUE DUP1 ISZERO PUSH1 0xF JUMPI PUSH1 0x0 DUP1 REVERT JUMPDEST POP PUSH1 0x86 DUP1 PUSH2 0x1E PUSH1 0x0 CODECOPY PUSH1 0x0 RETURN INVALID PUSH1 0x80 PUSH1 0x40 MSTORE CALLVALUE DUP1 ISZERO PUSH1 0xF JUMPI PUSH1 0x0 DUP1 REVERT JUMPDEST POP PUSH1 0x4 CALLDATASIZE LT PUSH1 0x28 JUMPI PUSH1 0x0 CALLDATALOAD PUSH1 0xE0 SHR DUP1 PUSH4 0x5C975ABB EQ PUSH1 0x2D JUMPI JUMPDEST PUSH1 0x0 DUP1 REVERT JUMPDEST PUSH1 0x33 PUSH1 0x47 JUMP JUMPDEST PUSH1 0x40 DUP1 MLOAD SWAP2 ISZERO ISZERO DUP3 MSTORE MLOAD SWAP1 DUP2 SWAP1 SUB PUSH1 0x20 ADD SWAP1 RETURN JUMPDEST PUSH1 0x65 SLOAD PUSH1 0xFF AND SWAP1 JUMP INVALID LOG2 PUSH5 0x6970667358 0x22 SLT KECCAK256 CALLDATASIZE SWAP12 0xD 0xF7 SAR PUSH12 0xD4177746CEEE2F8797FFD6B7 CALLER SWAP16 CALLDATASIZE SWAP11 0xCA 0xCB DIV LOG4 0x48 SELFBALANCE BALANCE PUSH5 0xA69C64736F PUSH13 0x63430006020033000000000000 "},"methodIdentifiers":{"paused()":"5c975abb"}},"storageLayout":{"storage":[{"astId":48,"contract":"@openzeppelin/contracts-ethereum-package/contracts/utils/Pausable.sol:PausableUpgradeSafe","label":"initialized","offset":0,"slot":"0","type":"t_bool"},{"astId":50,"contract":"@openzeppelin/contracts-ethereum-package/contracts/utils/Pausable.sol:PausableUpgradeSafe","label":"initializing","offset":1,"slot":"0","type":"t_bool"},{"astId":113,"contract":"@openzeppelin/contracts-ethereum-package/contracts/utils/Pausable.sol:PausableUpgradeSafe","label":"______gap","offset":0,"slot":"1","type":"t_array(t_uint256)50_storage"},{"astId":43,"contract":"@openzeppelin/contracts-ethereum-package/contracts/utils/Pausable.sol:PausableUpgradeSafe","label":"__gap","offset":0,"slot":"51","type":"t_array(t_uint256)50_storage"},{"astId":2264,"contract":"@openzeppelin/contracts-ethereum-package/contracts/utils/Pausable.sol:PausableUpgradeSafe","label":"_paused","offset":0,"slot":"101","type":"t_bool"},{"astId":2347,"contract":"@openzeppelin/contracts-ethereum-package/contracts/utils/Pausable.sol:PausableUpgradeSafe","label":"__gap","offset":0,"slot":"102","type":"t_array(t_uint256)49_storage"}],"types":{"t_array(t_uint256)49_storage":{"base":"t_uint256","encoding":"inplace","label":"uint256[49]","numberOfBytes":"1568"},"t_array(t_uint256)50_storage":{"base":"t_uint256","encoding":"inplace","label":"uint256[50]","numberOfBytes":"1600"},"t_bool":{"encoding":"inplace","label":"bool","numberOfBytes":"1"},"t_uint256":{"encoding":"inplace","label":"uint256","numberOfBytes":"32"}}}}}}