{"contracts/SwapSmartLock.sol":{"SwapSmartLock":{"abi":[{"anonymous":false,"inputs":[{"indexed":true,"internalType":"address","name":"wallet","type":"address"}],"name":"DevWalletChanged","type":"event"},{"anonymous":false,"inputs":[{"indexed":true,"internalType":"address","name":"wallet","type":"address"}],"name":"FeeWalletChanged","type":"event"},{"anonymous":false,"inputs":[{"indexed":true,"internalType":"address","name":"previousOwner","type":"address"},{"indexed":true,"internalType":"address","name":"newOwner","type":"address"}],"name":"OwnershipTransferred","type":"event"},{"anonymous":false,"inputs":[{"indexed":false,"internalType":"address","name":"account","type":"address"}],"name":"Paused","type":"event"},{"anonymous":false,"inputs":[{"indexed":true,"internalType":"uint256","name":"id","type":"uint256"},{"indexed":true,"internalType":"address","name":"beneficiary","type":"address"},{"indexed":true,"internalType":"address","name":"token","type":"address"}],"name":"PaymentReleased","type":"event"},{"anonymous":false,"inputs":[{"indexed":true,"internalType":"address","name":"token","type":"address"},{"indexed":true,"internalType":"address","name":"sender","type":"address"},{"indexed":true,"internalType":"address","name":"beneficiary","type":"address"},{"indexed":false,"internalType":"uint256","name":"id","type":"uint256"},{"indexed":false,"internalType":"uint256","name":"amount","type":"uint256"},{"indexed":false,"internalType":"uint256","name":"releaseTime","type":"uint256"},{"indexed":false,"internalType":"uint256","name":"fee","type":"uint256"},{"indexed":false,"internalType":"bool","name":"isFeeInSwap","type":"bool"},{"indexed":false,"internalType":"bool","name":"calcFeeUsingTotalSupply","type":"bool"}],"name":"PaymentScheduled","type":"event"},{"anonymous":false,"inputs":[{"indexed":true,"internalType":"address","name":"swapTokenAddress","type":"address"}],"name":"SwapTokenUpdated","type":"event"},{"anonymous":false,"inputs":[{"indexed":false,"internalType":"address","name":"account","type":"address"}],"name":"Unpaused","type":"event"},{"inputs":[{"internalType":"address","name":"token","type":"address"}],"name":"addTokenToFreeList","outputs":[],"stateMutability":"nonpayable","type":"function"},{"inputs":[{"internalType":"address","name":"user","type":"address"}],"name":"getBeneficiaryPaymentIds","outputs":[{"internalType":"uint256[]","name":"ids","type":"uint256[]"}],"stateMutability":"view","type":"function"},{"inputs":[],"name":"getDevWallet","outputs":[{"internalType":"address","name":"","type":"address"}],"stateMutability":"view","type":"function"},{"inputs":[{"internalType":"uint256","name":"amount","type":"uint256"},{"internalType":"address","name":"token","type":"address"}],"name":"getFeeInEthForERC20","outputs":[{"internalType":"uint256","name":"","type":"uint256"}],"stateMutability":"view","type":"function"},{"inputs":[{"internalType":"uint256","name":"amount","type":"uint256"},{"internalType":"address","name":"token","type":"address"}],"name":"getFeeInEthForERC20UsingTotalSupply","outputs":[{"internalType":"uint256","name":"","type":"uint256"}],"stateMutability":"view","type":"function"},{"inputs":[{"internalType":"uint256","name":"amount","type":"uint256"}],"name":"getFeeInEthForEth","outputs":[{"internalType":"uint256","name":"","type":"uint256"}],"stateMutability":"view","type":"function"},{"inputs":[{"internalType":"uint256","name":"amount","type":"uint256"},{"internalType":"address","name":"token","type":"address"},{"internalType":"bool","name":"calcFeeUsingTotalSupply","type":"bool"}],"name":"getFeeInSwapForERC20","outputs":[{"internalType":"uint256","name":"","type":"uint256"}],"stateMutability":"view","type":"function"},{"inputs":[{"internalType":"uint256","name":"amount","type":"uint256"}],"name":"getFeeInSwapForETH","outputs":[{"internalType":"uint256","name":"","type":"uint256"}],"stateMutability":"view","type":"function"},{"inputs":[],"name":"getFeesWallet","outputs":[{"internalType":"address","name":"","type":"address"}],"stateMutability":"view","type":"function"},{"inputs":[{"internalType":"uint256","name":"id","type":"uint256"}],"name":"getPaymentDetails","outputs":[{"internalType":"address","name":"token","type":"address"},{"internalType":"uint256","name":"amount","type":"uint256"},{"internalType":"uint256","name":"releaseTime","type":"uint256"},{"internalType":"address","name":"sender","type":"address"},{"internalType":"address","name":"beneficiary","type":"address"},{"internalType":"uint256","name":"createdAt","type":"uint256"},{"internalType":"enum SwapSmartLock.Status","name":"status","type":"uint8"}],"stateMutability":"view","type":"function"},{"inputs":[],"name":"getPriceEstimator","outputs":[{"internalType":"address","name":"","type":"address"}],"stateMutability":"view","type":"function"},{"inputs":[{"internalType":"address","name":"user","type":"address"}],"name":"getSenderPaymentIds","outputs":[{"internalType":"uint256[]","name":"ids","type":"uint256[]"}],"stateMutability":"view","type":"function"},{"inputs":[],"name":"getSwapToken","outputs":[{"internalType":"address","name":"","type":"address"}],"stateMutability":"view","type":"function"},{"inputs":[{"internalType":"address","name":"swapTokenAddress","type":"address"},{"internalType":"address payable","name":"feesWallet","type":"address"},{"internalType":"address","name":"devWallet","type":"address"},{"internalType":"address","name":"priceEstimator","type":"address"}],"name":"initialize","outputs":[],"stateMutability":"nonpayable","type":"function"},{"inputs":[{"internalType":"address","name":"token","type":"address"}],"name":"isFreeToken","outputs":[{"internalType":"bool","name":"","type":"bool"}],"stateMutability":"view","type":"function"},{"inputs":[],"name":"owner","outputs":[{"internalType":"address","name":"","type":"address"}],"stateMutability":"view","type":"function"},{"inputs":[],"name":"pause","outputs":[],"stateMutability":"nonpayable","type":"function"},{"inputs":[],"name":"paused","outputs":[{"internalType":"bool","name":"","type":"bool"}],"stateMutability":"view","type":"function"},{"inputs":[{"internalType":"uint256","name":"id","type":"uint256"}],"name":"releasable","outputs":[{"internalType":"bool","name":"","type":"bool"}],"stateMutability":"view","type":"function"},{"inputs":[{"internalType":"uint256","name":"id","type":"uint256"}],"name":"release","outputs":[],"stateMutability":"nonpayable","type":"function"},{"inputs":[{"internalType":"address","name":"token","type":"address"}],"name":"removeTokenFromFreeList","outputs":[],"stateMutability":"nonpayable","type":"function"},{"inputs":[],"name":"renounceOwnership","outputs":[],"stateMutability":"nonpayable","type":"function"},{"inputs":[{"internalType":"address","name":"tokenAddress","type":"address"},{"internalType":"uint256[]","name":"amounts","type":"uint256[]"},{"internalType":"uint256[]","name":"releaseTimes","type":"uint256[]"},{"internalType":"address payable[]","name":"beneficiaries","type":"address[]"},{"internalType":"uint256[]","name":"fees","type":"uint256[]"},{"internalType":"bool","name":"isFeeInSwap","type":"bool"},{"internalType":"bool","name":"calcFeeUsingTotalSupply","type":"bool"}],"name":"scheduleBulkPayment","outputs":[],"stateMutability":"payable","type":"function"},{"inputs":[{"internalType":"address","name":"tokenAddress","type":"address"},{"internalType":"uint256","name":"amount","type":"uint256"},{"internalType":"uint256","name":"releaseTime","type":"uint256"},{"internalType":"address payable","name":"beneficiary","type":"address"},{"internalType":"uint256","name":"fee","type":"uint256"},{"internalType":"bool","name":"isFeeInSwap","type":"bool"},{"internalType":"bool","name":"calcFeeUsingTotalSupply","type":"bool"}],"name":"schedulePayment","outputs":[],"stateMutability":"payable","type":"function"},{"inputs":[{"internalType":"uint8","name":"allowedFeeSlippagePercentage","type":"uint8"}],"name":"setAllowedFeeSlippagePercentage","outputs":[],"stateMutability":"nonpayable","type":"function"},{"inputs":[{"internalType":"address payable","name":"wallet","type":"address"}],"name":"setDevWallet","outputs":[],"stateMutability":"nonpayable","type":"function"},{"inputs":[{"internalType":"uint8","name":"ethFeePercentage","type":"uint8"}],"name":"setEthFeePercentage","outputs":[],"stateMutability":"nonpayable","type":"function"},{"inputs":[{"internalType":"address payable","name":"wallet","type":"address"}],"name":"setFeeWallet","outputs":[],"stateMutability":"nonpayable","type":"function"},{"inputs":[{"internalType":"uint256","name":"ethAmountInWei","type":"uint256"}],"name":"setMaxFeeInEth","outputs":[],"stateMutability":"nonpayable","type":"function"},{"inputs":[{"internalType":"address","name":"priceEstimator","type":"address"}],"name":"setPriceEstimator","outputs":[],"stateMutability":"nonpayable","type":"function"},{"inputs":[{"internalType":"address","name":"swapTokenAddress","type":"address"}],"name":"setSwapToken","outputs":[],"stateMutability":"nonpayable","type":"function"},{"inputs":[{"internalType":"uint8","name":"uniswapFeePercentage","type":"uint8"}],"name":"setUniswapFeePercentage","outputs":[],"stateMutability":"nonpayable","type":"function"},{"inputs":[{"internalType":"address","name":"newOwner","type":"address"}],"name":"transferOwnership","outputs":[],"stateMutability":"nonpayable","type":"function"},{"inputs":[],"name":"unpause","outputs":[],"stateMutability":"nonpayable","type":"function"}],"evm":{"bytecode":{"linkReferences":{},"object":"608060405234801561001057600080fd5b50613ac2806100206000396000f3fe6080604052600436106101f85760003560e01c80639976dfbe1161010d578063cd7d9e99116100a0578063d92b9b631161006f578063d92b9b63146108e7578063e4bf01a814610939578063ea8a459314610963578063f2fde38b14610978578063f8c8765e146109ab576101f8565b8063cd7d9e99146106dc578063d22edafb1461070f578063d2bb3aed14610887578063d8ad1b2b146108b4576101f8565b8063af056b39116100dc578063af056b3914610613578063b851b7ca14610646578063bf3452f814610679578063c0f8bc60146106a3576101f8565b80639976dfbe1461050f5780639e70df21146105485780639fa944dd146105d1578063a9ff2bae146105e6576101f8565b806356ee468a11610190578063715018a61161015f578063715018a6146104705780638456cb59146104855780638cc6058b1461049a5780638da5cb5b146104c757806390d49b9d146104dc576101f8565b806356ee468a146103845780635c04aa6a146103ae5780635c975abb146103d857806361164e53146103ed576101f8565b806331bff521116101cc57806331bff521146102e957806337bdc99b146103305780633f4ba83a1461035a578063453dd97f1461036f576101f8565b806245a3d7146101fd578063199eedfa146102325780631f53ac02146102635780632699fd1f14610296575b600080fd5b34801561020957600080fd5b506102306004803603602081101561022057600080fd5b50356001600160a01b03166109f6565b005b34801561023e57600080fd5b50610247610b04565b604080516001600160a01b039092168252519081900360200190f35b34801561026f57600080fd5b506102306004803603602081101561028657600080fd5b50356001600160a01b0316610b13565b3480156102a257600080fd5b506102d7600480360360608110156102b957600080fd5b508035906001600160a01b0360208201351690604001351515610bfa565b60408051918252519081900360200190f35b3480156102f557600080fd5b5061031c6004803603602081101561030c57600080fd5b50356001600160a01b0316610c2f565b604080519115158252519081900360200190f35b34801561033c57600080fd5b506102306004803603602081101561035357600080fd5b5035610c51565b34801561036657600080fd5b50610230610dcc565b34801561037b57600080fd5b50610247610e2e565b34801561039057600080fd5b50610230600480360360208110156103a757600080fd5b5035610e3d565b3480156103ba57600080fd5b506102d7600480360360208110156103d157600080fd5b5035610e9a565b3480156103e457600080fd5b5061031c610eb8565b3480156103f957600080fd5b506104206004803603602081101561041057600080fd5b50356001600160a01b0316610ec1565b60408051602080825283518183015283519192839290830191858101910280838360005b8381101561045c578181015183820152602001610444565b505050509050019250505060405180910390f35b34801561047c57600080fd5b50610230610f2d565b34801561049157600080fd5b50610230610fcf565b3480156104a657600080fd5b50610230600480360360208110156104bd57600080fd5b503560ff1661102f565b3480156104d357600080fd5b506102476110d2565b3480156104e857600080fd5b50610230600480360360208110156104ff57600080fd5b50356001600160a01b03166110e1565b34801561051b57600080fd5b506102d76004803603604081101561053257600080fd5b50803590602001356001600160a01b03166111c8565b34801561055457600080fd5b506105726004803603602081101561056b57600080fd5b50356112b2565b604080516001600160a01b03808a168252602082018990529181018790528582166060820152908416608082015260a0810183905260c081018260018111156105b757fe5b60ff16815260200197505050505050505060405180910390f35b3480156105dd57600080fd5b506102476113dd565b3480156105f257600080fd5b506102306004803603602081101561060957600080fd5b503560ff166113ec565b34801561061f57600080fd5b506104206004803603602081101561063657600080fd5b50356001600160a01b031661148f565b34801561065257600080fd5b506102306004803603602081101561066957600080fd5b50356001600160a01b03166114f9565b34801561068557600080fd5b506102d76004803603602081101561069c57600080fd5b503561162f565b3480156106af57600080fd5b506102d7600480360360408110156106c657600080fd5b50803590602001356001600160a01b031661164e565b3480156106e857600080fd5b50610230600480360360208110156106ff57600080fd5b50356001600160a01b031661185a565b610230600480360360e081101561072557600080fd5b6001600160a01b038235169190810190604081016020820135600160201b81111561074f57600080fd5b82018360208201111561076157600080fd5b803590602001918460208302840111600160201b8311171561078257600080fd5b919390929091602081019035600160201b81111561079f57600080fd5b8201836020820111156107b157600080fd5b803590602001918460208302840111600160201b831117156107d257600080fd5b919390929091602081019035600160201b8111156107ef57600080fd5b82018360208201111561080157600080fd5b803590602001918460208302840111600160201b8311171561082257600080fd5b919390929091602081019035600160201b81111561083f57600080fd5b82018360208201111561085157600080fd5b803590602001918460208302840111600160201b8311171561087257600080fd5b91935091508035151590602001351515611925565b34801561089357600080fd5b50610230600480360360208110156108aa57600080fd5b503560ff16611af2565b3480156108c057600080fd5b50610230600480360360208110156108d757600080fd5b50356001600160a01b0316611b95565b610230600480360360e08110156108fd57600080fd5b506001600160a01b03813581169160208101359160408201359160608101359091169060808101359060a081013515159060c001351515611c5d565b34801561094557600080fd5b5061031c6004803603602081101561095c57600080fd5b5035611cc2565b34801561096f57600080fd5b50610247611d93565b34801561098457600080fd5b506102306004803603602081101561099b57600080fd5b50356001600160a01b0316611da2565b3480156109b757600080fd5b50610230600480360360808110156109ce57600080fd5b506001600160a01b038135811691602081013582169160408201358116916060013516611e9b565b6109fe611f4b565b6065546001600160a01b03908116911614610a4e576040805162461bcd60e51b815260206004820181905260248201526000805160206138a6833981519152604482015290519081900360640190fd5b80610a61816001600160a01b0316611f4f565b610a9c5760405162461bcd60e51b81526004018080602001828103825260348152602001806137f76034913960400191505060405180910390fd5b6001600160a01b038216610ae15760405162461bcd60e51b815260040180806020018281038252602d8152602001806137ca602d913960400191505060405180910390fd5b5060d080546001600160a01b0319166001600160a01b0392909216919091179055565b60d0546001600160a01b031690565b610b1b611f4b565b6065546001600160a01b03908116911614610b6b576040805162461bcd60e51b815260206004820181905260248201526000805160206138a6833981519152604482015290519081900360640190fd5b6001600160a01b038116610bb05760405162461bcd60e51b815260040180806020018281038252602a815260200180613720602a913960400191505060405180910390fd5b60cb80546001600160a01b0319166001600160a01b0383169081179091556040517f268c00f4ec08b34fdde24b52e47a09d62f3f3837eb3b8ac7206cefb3bb5e534590600090a250565b60008082610c1157610c0c858561164e565b610c1b565b610c1b85856111c8565b9050610c2681611f8b565b95945050505050565b6001600160a01b038116600090815260d5602052604090205460ff165b919050565b80610c5b81611cc2565b610cac576040805162461bcd60e51b815260206004820181905260248201527f5b52656c656173655d3a2043616e27742072656c65617365207061796d656e74604482015290519081900360640190fd5b610cb461368b565b600083815260cf6020908152604091829020825160e08101845281546001600160a01b039081168252600180840154821694830194909452600283015416938101939093526003810154606084015260048101546080840152600581015460a08401526006810154909160c084019160ff1690811115610d3057fe5b6001811115610d3b57fe5b90525080519091506001600160a01b031673eeeeeeeeeeeeeeeeeeeeeeeeeeeeeeeeeeeeeeee1415610d7557610d7083612117565b610d7e565b610d7e836121e5565b80600001516001600160a01b031681604001516001600160a01b0316847fa6ea333f41ff25e0a1adef6504bf3be9c7e740717d65f28a40b57a9681c2940c60405160405180910390a4505050565b610dd4611f4b565b6065546001600160a01b03908116911614610e24576040805162461bcd60e51b815260206004820181905260248201526000805160206138a6833981519152604482015290519081900360640190fd5b610e2c612227565b565b60cb546001600160a01b031690565b610e45611f4b565b6065546001600160a01b03908116911614610e95576040805162461bcd60e51b815260206004820181905260248201526000805160206138a6833981519152604482015290519081900360640190fd5b60d455565b600080610ea68361162f565b9050610eb181611f8b565b9392505050565b60975460ff1690565b6001600160a01b038116600090815260cd6020908152604091829020805483518184028101840190945280845260609392830182828015610f2157602002820191906000526020600020905b815481526020019060010190808311610f0d575b50505050509050919050565b610f35611f4b565b6065546001600160a01b03908116911614610f85576040805162461bcd60e51b815260206004820181905260248201526000805160206138a6833981519152604482015290519081900360640190fd5b6065546040516000916001600160a01b0316907f8be0079c531659141344cd1fd0a4f28419497f9722a3daafe3b4186f6b6457e0908390a3606580546001600160a01b0319169055565b610fd7611f4b565b6065546001600160a01b03908116911614611027576040805162461bcd60e51b815260206004820181905260248201526000805160206138a6833981519152604482015290519081900360640190fd5b610e2c6122c5565b611037611f4b565b6065546001600160a01b03908116911614611087576040805162461bcd60e51b815260206004820181905260248201526000805160206138a6833981519152604482015290519081900360640190fd5b60648160ff1611156110ca5760405162461bcd60e51b81526004018080602001828103825260398152602001806139c76039913960400191505060405180910390fd5b60ff1660d155565b6065546001600160a01b031690565b6110e9611f4b565b6065546001600160a01b03908116911614611139576040805162461bcd60e51b815260206004820181905260248201526000805160206138a6833981519152604482015290519081900360640190fd5b6001600160a01b03811661117e5760405162461bcd60e51b815260040180806020018281038252602b81526020018061382b602b913960400191505060405180910390fd5b60ca80546001600160a01b0319166001600160a01b0383169081179091556040517fe805ffc02a12d27b142431551e2cd3f766203c54a9a4ab0d1cf01ce7366a796f90600090a250565b60006111d382610c2f565b156111e0575060006112ac565b6000826001600160a01b03166318160ddd6040518163ffffffff1660e01b815260040160206040518083038186803b15801561121b57600080fd5b505afa15801561122f573d6000803e3d6000fd5b505050506040513d602081101561124557600080fd5b50519050600061127c826112706064611264898463ffffffff61234616565b9063ffffffff61234616565b9063ffffffff61239f16565b905067016345785d8a00006112a661129e84611270858563ffffffff61234616565b60d4546123e1565b93505050505b92915050565b600080600080600080600060cf600089815260200190815260200160002060030154600014156113135760405162461bcd60e51b8152600401808060200182810382526026815260200180613a676026913960400191505060405180910390fd5b61131b61368b565b600089815260cf6020908152604091829020825160e08101845281546001600160a01b039081168252600180840154821694830194909452600283015416938101939093526003810154606084015260048101546080840152600581015460a08401526006810154909160c084019160ff169081111561139757fe5b60018111156113a257fe5b9052508051606082015160808301516020840151604085015160a086015160c090960151949f939e50919c509a509850919650945092505050565b60c9546001600160a01b031690565b6113f4611f4b565b6065546001600160a01b03908116911614611444576040805162461bcd60e51b815260206004820181905260248201526000805160206138a6833981519152604482015290519081900360640190fd5b60648160ff1611156114875760405162461bcd60e51b815260040180806020018281038252603d815260200180613a2a603d913960400191505060405180910390fd5b60ff1660d355565b6001600160a01b038116600090815260ce6020908152604091829020805483518184028101840190945280845260609392830182828015610f215760200282019190600052602060002090815481526020019060010190808311610f0d5750505050509050919050565b611501611f4b565b6065546001600160a01b03908116911614611551576040805162461bcd60e51b815260206004820181905260248201526000805160206138a6833981519152604482015290519081900360640190fd5b80611564816001600160a01b0316611f4f565b61159f5760405162461bcd60e51b81526004018080602001828103825260348152602001806137f76034913960400191505060405180910390fd5b6001600160a01b0382166115e45760405162461bcd60e51b815260040180806020018281038252602881526020018061376d6028913960400191505060405180910390fd5b60c980546001600160a01b0319166001600160a01b0384169081179091556040517f44fe57485076f35a8eb17e92799dcc65f24a9eab90ffae0af662812f19803be590600090a25050565b60006112ac61129e606461127060d1548661234690919063ffffffff16565b600061165982610c2f565b15611666575060006112ac565b6000826001600160a01b031663313ce5676040518163ffffffff1660e01b815260040160206040518083038186803b1580156116a157600080fd5b505afa1580156116b5573d6000803e3d6000fd5b505050506040513d60208110156116cb57600080fd5b505160d054604080516350a2394560e01b815260ff909316600a0a600484018190526001600160a01b038781166024860152915190945060009391909216916350a23945916044808201928692909190829003018186803b15801561172f57600080fd5b505afa158015611743573d6000803e3d6000fd5b505050506040513d6000823e601f3d908101601f19168201604052602081101561176c57600080fd5b8101908080516040519392919084600160201b82111561178b57600080fd5b9083019060208201858111156117a057600080fd5b82518660208202830111600160201b821117156117bc57600080fd5b82525081516020918201928201910280838360005b838110156117e95781810151838201526020016117d1565b5050505090500160405250505060008151811061180257fe5b6020026020010151905061183761182a6103e861127060d3548561234690919063ffffffff16565b829063ffffffff6123f716565b9050600061184f83611270888563ffffffff61234616565b90506112a68161162f565b611862611f4b565b6065546001600160a01b039081169116146118b2576040805162461bcd60e51b815260206004820181905260248201526000805160206138a6833981519152604482015290519081900360640190fd5b806118c5816001600160a01b0316611f4f565b6119005760405162461bcd60e51b81526004018080602001828103825260348152602001806137f76034913960400191505060405180910390fd5b506001600160a01b0316600090815260d560205260409020805460ff19166001179055565b60975460ff1615611970576040805162461bcd60e51b815260206004820152601060248201526f14185d5cd8589b194e881c185d5cd95960821b604482015290519081900360640190fd5b348988146119c5576040805162461bcd60e51b815260206004820152601c60248201527f53776170536d6172744c6f636b3a20496e76616c696420696e70757400000000604482015290519081900360640190fd5b898614611a19576040805162461bcd60e51b815260206004820152601c60248201527f53776170536d6172744c6f636b3a20496e76616c696420696e70757400000000604482015290519081900360640190fd5b898414611a6d576040805162461bcd60e51b815260206004820152601c60248201527f53776170536d6172744c6f636b3a20496e76616c696420696e70757400000000604482015290519081900360640190fd5b60005b8a811015611ae357611ad98d8d8d84818110611a8857fe5b905060200201358c8c85818110611a9b57fe5b905060200201358b8b86818110611aae57fe5b905060200201356001600160a01b0316868b8b88818110611acb57fe5b905060200201358a8a612439565b9150600101611a70565b50505050505050505050505050565b611afa611f4b565b6065546001600160a01b03908116911614611b4a576040805162461bcd60e51b815260206004820181905260248201526000805160206138a6833981519152604482015290519081900360640190fd5b60648160ff161115611b8d5760405162461bcd60e51b81526004018080602001828103825260468152602001806139816046913960600191505060405180910390fd5b60ff1660d255565b611b9d611f4b565b6065546001600160a01b03908116911614611bed576040805162461bcd60e51b815260206004820181905260248201526000805160206138a6833981519152604482015290519081900360640190fd5b80611c00816001600160a01b0316611f4f565b611c3b5760405162461bcd60e51b81526004018080602001828103825260348152602001806137f76034913960400191505060405180910390fd5b506001600160a01b0316600090815260d560205260409020805460ff19169055565b60975460ff1615611ca8576040805162461bcd60e51b815260206004820152601060248201526f14185d5cd8589b194e881c185d5cd95960821b604482015290519081900360640190fd5b611cb88787878734888888612439565b5050505050505050565b6000611ccc61368b565b600083815260cf6020908152604091829020825160e08101845281546001600160a01b039081168252600180840154821694830194909452600283015416938101939093526003810154606084015260048101546080840152600581015460a08401526006810154909160c084019160ff1690811115611d4857fe5b6001811115611d5357fe5b905250905060018160c001516001811115611d6a57fe5b148015611d7b575042816080015111155b15611d8a576001915050610c4c565b50600092915050565b60ca546001600160a01b031690565b611daa611f4b565b6065546001600160a01b03908116911614611dfa576040805162461bcd60e51b815260206004820181905260248201526000805160206138a6833981519152604482015290519081900360640190fd5b6001600160a01b038116611e3f5760405162461bcd60e51b81526004018080602001828103825260268152602001806136c66026913960400191505060405180910390fd5b6065546040516001600160a01b038084169216907f8be0079c531659141344cd1fd0a4f28419497f9722a3daafe3b4186f6b6457e090600090a3606580546001600160a01b0319166001600160a01b0392909216919091179055565b83611eae816001600160a01b0316611f4f565b611ee95760405162461bcd60e51b81526004018080602001828103825260348152602001806137f76034913960400191505060405180910390fd5b81611efc816001600160a01b0316611f4f565b611f375760405162461bcd60e51b81526004018080602001828103825260348152602001806137f76034913960400191505060405180910390fd5b611f4386868686612623565b505050505050565b3390565b6000813f7fc5d2460186f7233c927e7db2dcc703c0e500b653ca82273b7bfad8045d85a470818114801590611f8357508115155b949350505050565b600080611f9f83600263ffffffff61239f16565b60d05460c95460408051637524c56f60e11b8152600160048201526001600160a01b0392831660248201529051939450600093919092169163ea498ade9160448083019286929190829003018186803b158015611ffb57600080fd5b505afa15801561200f573d6000803e3d6000fd5b505050506040513d6000823e601f3d908101601f19168201604052602081101561203857600080fd5b8101908080516040519392919084600160201b82111561205757600080fd5b90830190602082018581111561206c57600080fd5b82518660208202830111600160201b8211171561208857600080fd5b82525081516020918201928201910280838360005b838110156120b557818101518382015260200161209d565b505050509050016040525050506000815181106120ce57fe5b6020026020010151905060006121056120f86103e861127060d3548661234690919063ffffffff16565b839063ffffffff6123f716565b9050610c26838263ffffffff61234616565b600081815260cf602052604080822060068101805460ff191690556002810154600382015492519193926001600160a01b03909116918381818185875af1925050503d8060008114612185576040519150601f19603f3d011682016040523d82523d6000602084013e61218a565b606091505b50509050806121e0576040805162461bcd60e51b815260206004820181905260248201527f5b52656c656173655d204661696c656420746f207472616e7366657220455448604482015290519081900360640190fd5b505050565b600081815260cf6020526040902060068101805460ff19169055600281015460038201548254612223926001600160a01b03918216929116906126ed565b5050565b60975460ff16612275576040805162461bcd60e51b815260206004820152601460248201527314185d5cd8589b194e881b9bdd081c185d5cd95960621b604482015290519081900360640190fd5b6097805460ff191690557f5db9ee0a495bf2e6ff9c91a7834c1ba4fdd244a5e8aa4e537bd38aeae4b073aa6122a8611f4b565b604080516001600160a01b039092168252519081900360200190a1565b60975460ff1615612310576040805162461bcd60e51b815260206004820152601060248201526f14185d5cd8589b194e881c185d5cd95960821b604482015290519081900360640190fd5b6097805460ff191660011790557f62e78cea01bee320cd4e420270b5ea74000d11b0c9f74754ebdbfc544b05a2586122a8611f4b565b600082612355575060006112ac565b8282028284828161236257fe5b0414610eb15760405162461bcd60e51b81526004018080602001828103825260218152602001806138566021913960400191505060405180910390fd5b6000610eb183836040518060400160405280601a81526020017f536166654d6174683a206469766973696f6e206279207a65726f00000000000081525061273f565b60008183106123f05781610eb1565b5090919050565b6000610eb183836040518060400160405280601e81526020017f536166654d6174683a207375627472616374696f6e206f766572666c6f7700008152506127e1565b60008088116124795760405162461bcd60e51b815260040180806020018281038252602f815260200180613877602f913960400191505060405180910390fd5b61248289610c2f565b6124c557600084116124c55760405162461bcd60e51b815260040180806020018281038252602c815260200180613955602c913960400191505060405180910390fd5b6001600160a01b03861661250a5760405162461bcd60e51b815260040180806020018281038252602881526020018061392d6028913960400191505060405180910390fd5b8473eeeeeeeeeeeeeeeeeeeeeeeeeeeeeeeeeeeeeeee6001600160a01b038b1614156125835761253e89868a8a8a8961283b565b831561255b57612554818a63ffffffff6123f716565b905061257e565b61257b8561256f838c63ffffffff6123f716565b9063ffffffff6123f716565b90505b6125ab565b6125938a8a878b8b8b8a8a612bbf565b836125ab576125a8818663ffffffff6123f716565b90505b60cc5460408051918252602082018b90528181018a905260608201879052851515608083015284151560a0830152516001600160a01b03808a16923392918e16917f211830a7f3f5f8b96be451168334f4a75f9f11a9c0a857c7e0c3592e07f881049181900360c00190a49998505050505050505050565b600054610100900460ff168061263c575061263c612f47565b8061264a575060005460ff16155b6126855760405162461bcd60e51b815260040180806020018281038252602e8152602001806138c6602e913960400191505060405180910390fd5b600054610100900460ff161580156126b0576000805460ff1961ff0019909116610100171660011790555b6126b8612f4d565b6126c0612fef565b6126c86130e8565b6126d485858585613193565b80156126e6576000805461ff00191690555b5050505050565b604080516001600160a01b038416602482015260448082018490528251808303909101815260649091019091526020810180516001600160e01b031663a9059cbb60e01b1790526121e090849061331b565b600081836127cb5760405162461bcd60e51b81526004018080602001828103825283818151815260200191508051906020019080838360005b83811015612790578181015183820152602001612778565b50505050905090810190601f1680156127bd5780820380516001836020036101000a031916815260200191505b509250505060405180910390fd5b5060008385816127d757fe5b0495945050505050565b600081848411156128335760405162461bcd60e51b8152602060048201818152835160248401528351909283926044909101919085019080838360008315612790578181015183820152602001612778565b505050900390565b801561292a5785821015612896576040805162461bcd60e51b815260206004820181905260248201527f5b56616c69646174696f6e5d20456e6f75676820455448206e6f742073656e74604482015290519081900360640190fd5b60006128a187610e9a565b905060008187101561291a576128bd828863ffffffff6123f716565b905060006128d68361127084606463ffffffff61234616565b905060d25481106129185760405162461bcd60e51b81526004018080602001828103825260358152602001806137956035913960400191505060405180910390fd5b505b612923826134d9565b5050612a6f565b60006129358761162f565b9050808610156129765760405162461bcd60e51b81526004018080602001828103825260348152602001806136ec6034913960400191505060405180910390fd5b612986878263ffffffff6135d716565b8310156129da576040805162461bcd60e51b815260206004820181905260248201527f5b56616c69646174696f6e5d20456e6f75676820455448206e6f742073656e74604482015290519081900360640190fd5b60ca546040516000916001600160a01b03169083908381818185875af1925050503d8060008114612a27576040519150601f19603f3d011682016040523d82523d6000602084013e612a2c565b606091505b5050905080612a6c5760405162461bcd60e51b815260040180806020018281038252602381526020018061374a6023913960400191505060405180910390fd5b50505b60cc54612a8390600163ffffffff6135d716565b60cc8190556040805160e08101825273eeeeeeeeeeeeeeeeeeeeeeeeeeeeeeeeeeeeeeee81523360208083019182526001600160a01b03888116848601908152606085018d8152608086018c81524260a08801908152600160c0890181815260009b8c5260cf90975298909920875181549086166001600160a01b03199182161782559651818a01805491871691891691909117905592516002840180549190951696169590951790925590516003820155915160048301559351600582015592516006840180549294939192909160ff19909116908381811115612b6457fe5b021790555050506001600160a01b03909216600090815260cd6020908152604080832060cc8054825460018181018555938752858720015533855260ce84529184209154825491820183559184529190922001555050505050565b87612bd2816001600160a01b0316611f4f565b612c0d5760405162461bcd60e51b81526004018080602001828103825260348152602001806137f76034913960400191505060405180910390fd5b612c1689610c2f565b612deb578215612cb6576000612c2d898b85610bfa565b9050600081891015612ca657612c49828a63ffffffff6123f716565b90506000612c628361127084606463ffffffff61234616565b905060d2548110612ca45760405162461bcd60e51b81526004018080602001828103825260358152602001806137956035913960400191505060405180910390fd5b505b612caf826134d9565b5050612deb565b600082612ccc57612cc7898b61164e565b612cd6565b612cd6898b6111c8565b905080881015612d175760405162461bcd60e51b81526004018080602001828103825260348152602001806136ec6034913960400191505060405180910390fd5b80851015612d565760405162461bcd60e51b81526004018080602001828103825260398152602001806138f46039913960400191505060405180910390fd5b60ca546040516000916001600160a01b03169083908381818185875af1925050503d8060008114612da3576040519150601f19603f3d011682016040523d82523d6000602084013e612da8565b606091505b5050905080612de85760405162461bcd60e51b815260040180806020018281038252602381526020018061374a6023913960400191505060405180910390fd5b50505b612e066001600160a01b038a1633308b63ffffffff61363116565b60cc54612e1a90600163ffffffff6135d716565b60cc8190556040805160e0810182526001600160a01b038c811682523360208084019182528a8316848601908152606085018f8152608086018e81524260a08801908152600160c0890181815260009b8c5260cf90965298909920875181549088166001600160a01b03199182161782559551818a01805491891691881691909117905592516002840180549190971695169490941790945592516003840155905160048301559351600582015592516006840180549294939192909160ff19909116908381811115612ee957fe5b021790555050506001600160a01b03909416600090815260cd6020908152604080832060cc8054825460018181018555938752858720015533855260ce84529184209154825491820183559184529190922001555050505050505050565b303b1590565b600054610100900460ff1680612f665750612f66612f47565b80612f74575060005460ff16155b612faf5760405162461bcd60e51b815260040180806020018281038252602e8152602001806138c6602e913960400191505060405180910390fd5b600054610100900460ff16158015612fda576000805460ff1961ff0019909116610100171660011790555b8015612fec576000805461ff00191690555b50565b600054610100900460ff16806130085750613008612f47565b80613016575060005460ff16155b6130515760405162461bcd60e51b815260040180806020018281038252602e8152602001806138c6602e913960400191505060405180910390fd5b600054610100900460ff1615801561307c576000805460ff1961ff0019909116610100171660011790555b6000613086611f4b565b606580546001600160a01b0319166001600160a01b038316908117909155604051919250906000907f8be0079c531659141344cd1fd0a4f28419497f9722a3daafe3b4186f6b6457e0908290a3508015612fec576000805461ff001916905550565b600054610100900460ff16806131015750613101612f47565b8061310f575060005460ff16155b61314a5760405162461bcd60e51b815260040180806020018281038252602e8152602001806138c6602e913960400191505060405180910390fd5b600054610100900460ff16158015613175576000805460ff1961ff0019909116610100171660011790555b6097805460ff191690558015612fec576000805461ff001916905550565b600054610100900460ff16806131ac57506131ac612f47565b806131ba575060005460ff16155b6131f55760405162461bcd60e51b815260040180806020018281038252602e8152602001806138c6602e913960400191505060405180910390fd5b600054610100900460ff16158015613220576000805460ff1961ff0019909116610100171660011790555b6001600160a01b0384166132655760405162461bcd60e51b815260040180806020018281038252602b81526020018061382b602b913960400191505060405180910390fd5b6001600160a01b0383166132aa5760405162461bcd60e51b815260040180806020018281038252602a815260200180613720602a913960400191505060405180910390fd5b60c980546001600160a01b038088166001600160a01b03199283161790925560ca805487841690831617905560cb805486841690831617905560d0805492851692909116919091179055600160d155600560d255600360d35580156126e6576000805461ff00191690555050505050565b61332d826001600160a01b0316611f4f565b61337e576040805162461bcd60e51b815260206004820152601f60248201527f5361666545524332303a2063616c6c20746f206e6f6e2d636f6e747261637400604482015290519081900360640190fd5b60006060836001600160a01b0316836040518082805190602001908083835b602083106133bc5780518252601f19909201916020918201910161339d565b6001836020036101000a0380198251168184511680821785525050505050509050019150506000604051808303816000865af19150503d806000811461341e576040519150601f19603f3d011682016040523d82523d6000602084013e613423565b606091505b50915091508161347a576040805162461bcd60e51b815260206004820181905260248201527f5361666545524332303a206c6f772d6c6576656c2063616c6c206661696c6564604482015290519081900360640190fd5b8051156134d35780806020019051602081101561349657600080fd5b50516134d35760405162461bcd60e51b815260040180806020018281038252602a815260200180613a00602a913960400191505060405180910390fd5b50505050565b60006134f1606461127084600a63ffffffff61234616565b9050600061350b606461127085600a63ffffffff61234616565b905060006135238261256f868663ffffffff6123f716565b60ca5460c95491925061354b916001600160a01b03908116913391168463ffffffff61363116565b60cb5460c954613570916001600160a01b03918216913391168663ffffffff61363116565b60c9546040805163079cc67960e41b81523360048201526024810185905290516001600160a01b03909216916379cc67909160448082019260009290919082900301818387803b1580156135c357600080fd5b505af1158015611cb8573d6000803e3d6000fd5b600082820183811015610eb1576040805162461bcd60e51b815260206004820152601b60248201527f536166654d6174683a206164646974696f6e206f766572666c6f770000000000604482015290519081900360640190fd5b604080516001600160a01b0380861660248301528416604482015260648082018490528251808303909101815260849091019091526020810180516001600160e01b03166323b872dd60e01b1790526134d390859061331b565b6040805160e081018252600080825260208201819052918101829052606081018290526080810182905260a081018290529060c08201529056fe4f776e61626c653a206e6577206f776e657220697320746865207a65726f20616464726573735b56616c69646174696f6e5d204665652028455448292069732062656c6f77206d696e696d756d207265717569726564206665655b56616c69646174696f6e5d2064657657616c6c657420697320746865207a65726f20616464726573735b56616c69646174696f6e5d205472616e73666572206f6620666565206661696c65645b56616c69646174696f6e5d3a20496e76616c6964207377617020746f6b656e20616464726573735b56616c69646174696f6e5d20466565202853574150292069732062656c6f77206d696e696d756d207265717569726564206665655b56616c69646174696f6e5d3a20496e76616c696420707269636520657374696d61746f7220616464726573735b56616c69646174696f6e5d20546865206164647265737320646f6573206e6f7420636f6e7461696e206120636f6e74726163745b56616c69646174696f6e5d206665657357616c6c657420697320746865207a65726f2061646472657373536166654d6174683a206d756c7469706c69636174696f6e206f766572666c6f775b56616c69646174696f6e5d2054686520616d6f756e742068617320746f206265206c6172676572207468616e20304f776e61626c653a2063616c6c6572206973206e6f7420746865206f776e6572436f6e747261637420696e7374616e63652068617320616c7265616479206265656e20696e697469616c697a65645b56616c69646174696f6e5d206d73672e76616c756520646f65736e277420636f6e7461696e20656e6f7567682045544820666f72206665655b56616c69646174696f6e5d20496e76616c69642062656e656669636961727920616464726573735b56616c69646174696f6e5d20546865206665652068617320746f206265206c6172676572207468616e20305b56616c69646174696f6e5d3a20416c6c6f7765642046656520536c6970706167652070657263656e74616765206d757374206265206265747765656e203020746f203130305b56616c69646174696f6e5d3a20455448204665652070657263656e74616765206d757374206265206265747765656e203020746f203130305361666545524332303a204552433230206f7065726174696f6e20646964206e6f7420737563636565645b56616c69646174696f6e5d3a20556e6973776170204665652070657263656e74616765206d757374206265206265747765656e203020746f203130305b56616c69646174696f6e5d205061796d656e742064657461696c73206e6f7420666f756e64a2646970667358221220d88116faf92ef2577a85d1f19dce35ec2c62e6da064ab5b5ca7fd6cb5d81658964736f6c63430006020033","opcodes":"PUSH1 0x80 PUSH1 0x40 MSTORE CALLVALUE DUP1 ISZERO PUSH2 0x10 JUMPI PUSH1 0x0 DUP1 REVERT JUMPDEST POP PUSH2 0x3AC2 DUP1 PUSH2 0x20 PUSH1 0x0 CODECOPY PUSH1 0x0 RETURN INVALID PUSH1 0x80 PUSH1 0x40 MSTORE PUSH1 0x4 CALLDATASIZE LT PUSH2 0x1F8 JUMPI PUSH1 0x0 CALLDATALOAD PUSH1 0xE0 SHR DUP1 PUSH4 0x9976DFBE GT PUSH2 0x10D JUMPI DUP1 PUSH4 0xCD7D9E99 GT PUSH2 0xA0 JUMPI DUP1 PUSH4 0xD92B9B63 GT PUSH2 0x6F JUMPI DUP1 PUSH4 0xD92B9B63 EQ PUSH2 0x8E7 JUMPI DUP1 PUSH4 0xE4BF01A8 EQ PUSH2 0x939 JUMPI DUP1 PUSH4 0xEA8A4593 EQ PUSH2 0x963 JUMPI DUP1 PUSH4 0xF2FDE38B EQ PUSH2 0x978 JUMPI DUP1 PUSH4 0xF8C8765E EQ PUSH2 0x9AB JUMPI PUSH2 0x1F8 JUMP JUMPDEST DUP1 PUSH4 0xCD7D9E99 EQ PUSH2 0x6DC JUMPI DUP1 PUSH4 0xD22EDAFB EQ PUSH2 0x70F JUMPI DUP1 PUSH4 0xD2BB3AED EQ PUSH2 0x887 JUMPI DUP1 PUSH4 0xD8AD1B2B EQ PUSH2 0x8B4 JUMPI PUSH2 0x1F8 JUMP JUMPDEST DUP1 PUSH4 0xAF056B39 GT PUSH2 0xDC JUMPI DUP1 PUSH4 0xAF056B39 EQ PUSH2 0x613 JUMPI DUP1 PUSH4 0xB851B7CA EQ PUSH2 0x646 JUMPI DUP1 PUSH4 0xBF3452F8 EQ PUSH2 0x679 JUMPI DUP1 PUSH4 0xC0F8BC60 EQ PUSH2 0x6A3 JUMPI PUSH2 0x1F8 JUMP JUMPDEST DUP1 PUSH4 0x9976DFBE EQ PUSH2 0x50F JUMPI DUP1 PUSH4 0x9E70DF21 EQ PUSH2 0x548 JUMPI DUP1 PUSH4 0x9FA944DD EQ PUSH2 0x5D1 JUMPI DUP1 PUSH4 0xA9FF2BAE EQ PUSH2 0x5E6 JUMPI PUSH2 0x1F8 JUMP JUMPDEST DUP1 PUSH4 0x56EE468A GT PUSH2 0x190 JUMPI DUP1 PUSH4 0x715018A6 GT PUSH2 0x15F JUMPI DUP1 PUSH4 0x715018A6 EQ PUSH2 0x470 JUMPI DUP1 PUSH4 0x8456CB59 EQ PUSH2 0x485 JUMPI DUP1 PUSH4 0x8CC6058B EQ PUSH2 0x49A JUMPI DUP1 PUSH4 0x8DA5CB5B EQ PUSH2 0x4C7 JUMPI DUP1 PUSH4 0x90D49B9D EQ PUSH2 0x4DC JUMPI PUSH2 0x1F8 JUMP JUMPDEST DUP1 PUSH4 0x56EE468A EQ PUSH2 0x384 JUMPI DUP1 PUSH4 0x5C04AA6A EQ PUSH2 0x3AE JUMPI DUP1 PUSH4 0x5C975ABB EQ PUSH2 0x3D8 JUMPI DUP1 PUSH4 0x61164E53 EQ PUSH2 0x3ED JUMPI PUSH2 0x1F8 JUMP JUMPDEST DUP1 PUSH4 0x31BFF521 GT PUSH2 0x1CC JUMPI DUP1 PUSH4 0x31BFF521 EQ PUSH2 0x2E9 JUMPI DUP1 PUSH4 0x37BDC99B EQ PUSH2 0x330 JUMPI DUP1 PUSH4 0x3F4BA83A EQ PUSH2 0x35A JUMPI DUP1 PUSH4 0x453DD97F EQ PUSH2 0x36F JUMPI PUSH2 0x1F8 JUMP JUMPDEST DUP1 PUSH3 0x45A3D7 EQ PUSH2 0x1FD JUMPI DUP1 PUSH4 0x199EEDFA EQ PUSH2 0x232 JUMPI DUP1 PUSH4 0x1F53AC02 EQ PUSH2 0x263 JUMPI DUP1 PUSH4 0x2699FD1F EQ PUSH2 0x296 JUMPI JUMPDEST PUSH1 0x0 DUP1 REVERT JUMPDEST CALLVALUE DUP1 ISZERO PUSH2 0x209 JUMPI PUSH1 0x0 DUP1 REVERT JUMPDEST POP PUSH2 0x230 PUSH1 0x4 DUP1 CALLDATASIZE SUB PUSH1 0x20 DUP2 LT ISZERO PUSH2 0x220 JUMPI PUSH1 0x0 DUP1 REVERT JUMPDEST POP CALLDATALOAD PUSH1 0x1 PUSH1 0x1 PUSH1 0xA0 SHL SUB AND PUSH2 0x9F6 JUMP JUMPDEST STOP JUMPDEST CALLVALUE DUP1 ISZERO PUSH2 0x23E JUMPI PUSH1 0x0 DUP1 REVERT JUMPDEST POP PUSH2 0x247 PUSH2 0xB04 JUMP JUMPDEST PUSH1 0x40 DUP1 MLOAD PUSH1 0x1 PUSH1 0x1 PUSH1 0xA0 SHL SUB SWAP1 SWAP3 AND DUP3 MSTORE MLOAD SWAP1 DUP2 SWAP1 SUB PUSH1 0x20 ADD SWAP1 RETURN JUMPDEST CALLVALUE DUP1 ISZERO PUSH2 0x26F JUMPI PUSH1 0x0 DUP1 REVERT JUMPDEST POP PUSH2 0x230 PUSH1 0x4 DUP1 CALLDATASIZE SUB PUSH1 0x20 DUP2 LT ISZERO PUSH2 0x286 JUMPI PUSH1 0x0 DUP1 REVERT JUMPDEST POP CALLDATALOAD PUSH1 0x1 PUSH1 0x1 PUSH1 0xA0 SHL SUB AND PUSH2 0xB13 JUMP JUMPDEST CALLVALUE DUP1 ISZERO PUSH2 0x2A2 JUMPI PUSH1 0x0 DUP1 REVERT JUMPDEST POP PUSH2 0x2D7 PUSH1 0x4 DUP1 CALLDATASIZE SUB PUSH1 0x60 DUP2 LT ISZERO PUSH2 0x2B9 JUMPI PUSH1 0x0 DUP1 REVERT JUMPDEST POP DUP1 CALLDATALOAD SWAP1 PUSH1 0x1 PUSH1 0x1 PUSH1 0xA0 SHL SUB PUSH1 0x20 DUP3 ADD CALLDATALOAD AND SWAP1 PUSH1 0x40 ADD CALLDATALOAD ISZERO ISZERO PUSH2 0xBFA JUMP JUMPDEST PUSH1 0x40 DUP1 MLOAD SWAP2 DUP3 MSTORE MLOAD SWAP1 DUP2 SWAP1 SUB PUSH1 0x20 ADD SWAP1 RETURN JUMPDEST CALLVALUE DUP1 ISZERO PUSH2 0x2F5 JUMPI PUSH1 0x0 DUP1 REVERT JUMPDEST POP PUSH2 0x31C PUSH1 0x4 DUP1 CALLDATASIZE SUB PUSH1 0x20 DUP2 LT ISZERO PUSH2 0x30C JUMPI PUSH1 0x0 DUP1 REVERT JUMPDEST POP CALLDATALOAD PUSH1 0x1 PUSH1 0x1 PUSH1 0xA0 SHL SUB AND PUSH2 0xC2F JUMP JUMPDEST PUSH1 0x40 DUP1 MLOAD SWAP2 ISZERO ISZERO DUP3 MSTORE MLOAD SWAP1 DUP2 SWAP1 SUB PUSH1 0x20 ADD SWAP1 RETURN JUMPDEST CALLVALUE DUP1 ISZERO PUSH2 0x33C JUMPI PUSH1 0x0 DUP1 REVERT JUMPDEST POP PUSH2 0x230 PUSH1 0x4 DUP1 CALLDATASIZE SUB PUSH1 0x20 DUP2 LT ISZERO PUSH2 0x353 JUMPI PUSH1 0x0 DUP1 REVERT JUMPDEST POP CALLDATALOAD PUSH2 0xC51 JUMP JUMPDEST CALLVALUE DUP1 ISZERO PUSH2 0x366 JUMPI PUSH1 0x0 DUP1 REVERT JUMPDEST POP PUSH2 0x230 PUSH2 0xDCC JUMP JUMPDEST CALLVALUE DUP1 ISZERO PUSH2 0x37B JUMPI PUSH1 0x0 DUP1 REVERT JUMPDEST POP PUSH2 0x247 PUSH2 0xE2E JUMP JUMPDEST CALLVALUE DUP1 ISZERO PUSH2 0x390 JUMPI PUSH1 0x0 DUP1 REVERT JUMPDEST POP PUSH2 0x230 PUSH1 0x4 DUP1 CALLDATASIZE SUB PUSH1 0x20 DUP2 LT ISZERO PUSH2 0x3A7 JUMPI PUSH1 0x0 DUP1 REVERT JUMPDEST POP CALLDATALOAD PUSH2 0xE3D JUMP JUMPDEST CALLVALUE DUP1 ISZERO PUSH2 0x3BA JUMPI PUSH1 0x0 DUP1 REVERT JUMPDEST POP PUSH2 0x2D7 PUSH1 0x4 DUP1 CALLDATASIZE SUB PUSH1 0x20 DUP2 LT ISZERO PUSH2 0x3D1 JUMPI PUSH1 0x0 DUP1 REVERT JUMPDEST POP CALLDATALOAD PUSH2 0xE9A JUMP JUMPDEST CALLVALUE DUP1 ISZERO PUSH2 0x3E4 JUMPI PUSH1 0x0 DUP1 REVERT JUMPDEST POP PUSH2 0x31C PUSH2 0xEB8 JUMP JUMPDEST CALLVALUE DUP1 ISZERO PUSH2 0x3F9 JUMPI PUSH1 0x0 DUP1 REVERT JUMPDEST POP PUSH2 0x420 PUSH1 0x4 DUP1 CALLDATASIZE SUB PUSH1 0x20 DUP2 LT ISZERO PUSH2 0x410 JUMPI PUSH1 0x0 DUP1 REVERT JUMPDEST POP CALLDATALOAD PUSH1 0x1 PUSH1 0x1 PUSH1 0xA0 SHL SUB AND PUSH2 0xEC1 JUMP JUMPDEST PUSH1 0x40 DUP1 MLOAD PUSH1 0x20 DUP1 DUP3 MSTORE DUP4 MLOAD DUP2 DUP4 ADD MSTORE DUP4 MLOAD SWAP2 SWAP3 DUP4 SWAP3 SWAP1 DUP4 ADD SWAP2 DUP6 DUP2 ADD SWAP2 MUL DUP1 DUP4 DUP4 PUSH1 0x0 JUMPDEST DUP4 DUP2 LT ISZERO PUSH2 0x45C JUMPI DUP2 DUP2 ADD MLOAD DUP4 DUP3 ADD MSTORE PUSH1 0x20 ADD PUSH2 0x444 JUMP JUMPDEST POP POP POP POP SWAP1 POP ADD SWAP3 POP POP POP PUSH1 0x40 MLOAD DUP1 SWAP2 SUB SWAP1 RETURN JUMPDEST CALLVALUE DUP1 ISZERO PUSH2 0x47C JUMPI PUSH1 0x0 DUP1 REVERT JUMPDEST POP PUSH2 0x230 PUSH2 0xF2D JUMP JUMPDEST CALLVALUE DUP1 ISZERO PUSH2 0x491 JUMPI PUSH1 0x0 DUP1 REVERT JUMPDEST POP PUSH2 0x230 PUSH2 0xFCF JUMP JUMPDEST CALLVALUE DUP1 ISZERO PUSH2 0x4A6 JUMPI PUSH1 0x0 DUP1 REVERT JUMPDEST POP PUSH2 0x230 PUSH1 0x4 DUP1 CALLDATASIZE SUB PUSH1 0x20 DUP2 LT ISZERO PUSH2 0x4BD JUMPI PUSH1 0x0 DUP1 REVERT JUMPDEST POP CALLDATALOAD PUSH1 0xFF AND PUSH2 0x102F JUMP JUMPDEST CALLVALUE DUP1 ISZERO PUSH2 0x4D3 JUMPI PUSH1 0x0 DUP1 REVERT JUMPDEST POP PUSH2 0x247 PUSH2 0x10D2 JUMP JUMPDEST CALLVALUE DUP1 ISZERO PUSH2 0x4E8 JUMPI PUSH1 0x0 DUP1 REVERT JUMPDEST POP PUSH2 0x230 PUSH1 0x4 DUP1 CALLDATASIZE SUB PUSH1 0x20 DUP2 LT ISZERO PUSH2 0x4FF JUMPI PUSH1 0x0 DUP1 REVERT JUMPDEST POP CALLDATALOAD PUSH1 0x1 PUSH1 0x1 PUSH1 0xA0 SHL SUB AND PUSH2 0x10E1 JUMP JUMPDEST CALLVALUE DUP1 ISZERO PUSH2 0x51B JUMPI PUSH1 0x0 DUP1 REVERT JUMPDEST POP PUSH2 0x2D7 PUSH1 0x4 DUP1 CALLDATASIZE SUB PUSH1 0x40 DUP2 LT ISZERO PUSH2 0x532 JUMPI PUSH1 0x0 DUP1 REVERT JUMPDEST POP DUP1 CALLDATALOAD SWAP1 PUSH1 0x20 ADD CALLDATALOAD PUSH1 0x1 PUSH1 0x1 PUSH1 0xA0 SHL SUB AND PUSH2 0x11C8 JUMP JUMPDEST CALLVALUE DUP1 ISZERO PUSH2 0x554 JUMPI PUSH1 0x0 DUP1 REVERT JUMPDEST POP PUSH2 0x572 PUSH1 0x4 DUP1 CALLDATASIZE SUB PUSH1 0x20 DUP2 LT ISZERO PUSH2 0x56B JUMPI PUSH1 0x0 DUP1 REVERT JUMPDEST POP CALLDATALOAD PUSH2 0x12B2 JUMP JUMPDEST PUSH1 0x40 DUP1 MLOAD PUSH1 0x1 PUSH1 0x1 PUSH1 0xA0 SHL SUB DUP1 DUP11 AND DUP3 MSTORE PUSH1 0x20 DUP3 ADD DUP10 SWAP1 MSTORE SWAP2 DUP2 ADD DUP8 SWAP1 MSTORE DUP6 DUP3 AND PUSH1 0x60 DUP3 ADD MSTORE SWAP1 DUP5 AND PUSH1 0x80 DUP3 ADD MSTORE PUSH1 0xA0 DUP2 ADD DUP4 SWAP1 MSTORE PUSH1 0xC0 DUP2 ADD DUP3 PUSH1 0x1 DUP2 GT ISZERO PUSH2 0x5B7 JUMPI INVALID JUMPDEST PUSH1 0xFF AND DUP2 MSTORE PUSH1 0x20 ADD SWAP8 POP POP POP POP POP POP POP POP PUSH1 0x40 MLOAD DUP1 SWAP2 SUB SWAP1 RETURN JUMPDEST CALLVALUE DUP1 ISZERO PUSH2 0x5DD JUMPI PUSH1 0x0 DUP1 REVERT JUMPDEST POP PUSH2 0x247 PUSH2 0x13DD JUMP JUMPDEST CALLVALUE DUP1 ISZERO PUSH2 0x5F2 JUMPI PUSH1 0x0 DUP1 REVERT JUMPDEST POP PUSH2 0x230 PUSH1 0x4 DUP1 CALLDATASIZE SUB PUSH1 0x20 DUP2 LT ISZERO PUSH2 0x609 JUMPI PUSH1 0x0 DUP1 REVERT JUMPDEST POP CALLDATALOAD PUSH1 0xFF AND PUSH2 0x13EC JUMP JUMPDEST CALLVALUE DUP1 ISZERO PUSH2 0x61F JUMPI PUSH1 0x0 DUP1 REVERT JUMPDEST POP PUSH2 0x420 PUSH1 0x4 DUP1 CALLDATASIZE SUB PUSH1 0x20 DUP2 LT ISZERO PUSH2 0x636 JUMPI PUSH1 0x0 DUP1 REVERT JUMPDEST POP CALLDATALOAD PUSH1 0x1 PUSH1 0x1 PUSH1 0xA0 SHL SUB AND PUSH2 0x148F JUMP JUMPDEST CALLVALUE DUP1 ISZERO PUSH2 0x652 JUMPI PUSH1 0x0 DUP1 REVERT JUMPDEST POP PUSH2 0x230 PUSH1 0x4 DUP1 CALLDATASIZE SUB PUSH1 0x20 DUP2 LT ISZERO PUSH2 0x669 JUMPI PUSH1 0x0 DUP1 REVERT JUMPDEST POP CALLDATALOAD PUSH1 0x1 PUSH1 0x1 PUSH1 0xA0 SHL SUB AND PUSH2 0x14F9 JUMP JUMPDEST CALLVALUE DUP1 ISZERO PUSH2 0x685 JUMPI PUSH1 0x0 DUP1 REVERT JUMPDEST POP PUSH2 0x2D7 PUSH1 0x4 DUP1 CALLDATASIZE SUB PUSH1 0x20 DUP2 LT ISZERO PUSH2 0x69C JUMPI PUSH1 0x0 DUP1 REVERT JUMPDEST POP CALLDATALOAD PUSH2 0x162F JUMP JUMPDEST CALLVALUE DUP1 ISZERO PUSH2 0x6AF JUMPI PUSH1 0x0 DUP1 REVERT JUMPDEST POP PUSH2 0x2D7 PUSH1 0x4 DUP1 CALLDATASIZE SUB PUSH1 0x40 DUP2 LT ISZERO PUSH2 0x6C6 JUMPI PUSH1 0x0 DUP1 REVERT JUMPDEST POP DUP1 CALLDATALOAD SWAP1 PUSH1 0x20 ADD CALLDATALOAD PUSH1 0x1 PUSH1 0x1 PUSH1 0xA0 SHL SUB AND PUSH2 0x164E JUMP JUMPDEST CALLVALUE DUP1 ISZERO PUSH2 0x6E8 JUMPI PUSH1 0x0 DUP1 REVERT JUMPDEST POP PUSH2 0x230 PUSH1 0x4 DUP1 CALLDATASIZE SUB PUSH1 0x20 DUP2 LT ISZERO PUSH2 0x6FF JUMPI PUSH1 0x0 DUP1 REVERT JUMPDEST POP CALLDATALOAD PUSH1 0x1 PUSH1 0x1 PUSH1 0xA0 SHL SUB AND PUSH2 0x185A JUMP JUMPDEST PUSH2 0x230 PUSH1 0x4 DUP1 CALLDATASIZE SUB PUSH1 0xE0 DUP2 LT ISZERO PUSH2 0x725 JUMPI PUSH1 0x0 DUP1 REVERT JUMPDEST PUSH1 0x1 PUSH1 0x1 PUSH1 0xA0 SHL SUB DUP3 CALLDATALOAD AND SWAP2 SWAP1 DUP2 ADD SWAP1 PUSH1 0x40 DUP2 ADD PUSH1 0x20 DUP3 ADD CALLDATALOAD PUSH1 0x1 PUSH1 0x20 SHL DUP2 GT ISZERO PUSH2 0x74F JUMPI PUSH1 0x0 DUP1 REVERT JUMPDEST DUP3 ADD DUP4 PUSH1 0x20 DUP3 ADD GT ISZERO PUSH2 0x761 JUMPI PUSH1 0x0 DUP1 REVERT JUMPDEST DUP1 CALLDATALOAD SWAP1 PUSH1 0x20 ADD SWAP2 DUP5 PUSH1 0x20 DUP4 MUL DUP5 ADD GT PUSH1 0x1 PUSH1 0x20 SHL DUP4 GT OR ISZERO PUSH2 0x782 JUMPI PUSH1 0x0 DUP1 REVERT JUMPDEST SWAP2 SWAP4 SWAP1 SWAP3 SWAP1 SWAP2 PUSH1 0x20 DUP2 ADD SWAP1 CALLDATALOAD PUSH1 0x1 PUSH1 0x20 SHL DUP2 GT ISZERO PUSH2 0x79F JUMPI PUSH1 0x0 DUP1 REVERT JUMPDEST DUP3 ADD DUP4 PUSH1 0x20 DUP3 ADD GT ISZERO PUSH2 0x7B1 JUMPI PUSH1 0x0 DUP1 REVERT JUMPDEST DUP1 CALLDATALOAD SWAP1 PUSH1 0x20 ADD SWAP2 DUP5 PUSH1 0x20 DUP4 MUL DUP5 ADD GT PUSH1 0x1 PUSH1 0x20 SHL DUP4 GT OR ISZERO PUSH2 0x7D2 JUMPI PUSH1 0x0 DUP1 REVERT JUMPDEST SWAP2 SWAP4 SWAP1 SWAP3 SWAP1 SWAP2 PUSH1 0x20 DUP2 ADD SWAP1 CALLDATALOAD PUSH1 0x1 PUSH1 0x20 SHL DUP2 GT ISZERO PUSH2 0x7EF JUMPI PUSH1 0x0 DUP1 REVERT JUMPDEST DUP3 ADD DUP4 PUSH1 0x20 DUP3 ADD GT ISZERO PUSH2 0x801 JUMPI PUSH1 0x0 DUP1 REVERT JUMPDEST DUP1 CALLDATALOAD SWAP1 PUSH1 0x20 ADD SWAP2 DUP5 PUSH1 0x20 DUP4 MUL DUP5 ADD GT PUSH1 0x1 PUSH1 0x20 SHL DUP4 GT OR ISZERO PUSH2 0x822 JUMPI PUSH1 0x0 DUP1 REVERT JUMPDEST SWAP2 SWAP4 SWAP1 SWAP3 SWAP1 SWAP2 PUSH1 0x20 DUP2 ADD SWAP1 CALLDATALOAD PUSH1 0x1 PUSH1 0x20 SHL DUP2 GT ISZERO PUSH2 0x83F JUMPI PUSH1 0x0 DUP1 REVERT JUMPDEST DUP3 ADD DUP4 PUSH1 0x20 DUP3 ADD GT ISZERO PUSH2 0x851 JUMPI PUSH1 0x0 DUP1 REVERT JUMPDEST DUP1 CALLDATALOAD SWAP1 PUSH1 0x20 ADD SWAP2 DUP5 PUSH1 0x20 DUP4 MUL DUP5 ADD GT PUSH1 0x1 PUSH1 0x20 SHL DUP4 GT OR ISZERO PUSH2 0x872 JUMPI PUSH1 0x0 DUP1 REVERT JUMPDEST SWAP2 SWAP4 POP SWAP2 POP DUP1 CALLDATALOAD ISZERO ISZERO SWAP1 PUSH1 0x20 ADD CALLDATALOAD ISZERO ISZERO PUSH2 0x1925 JUMP JUMPDEST CALLVALUE DUP1 ISZERO PUSH2 0x893 JUMPI PUSH1 0x0 DUP1 REVERT JUMPDEST POP PUSH2 0x230 PUSH1 0x4 DUP1 CALLDATASIZE SUB PUSH1 0x20 DUP2 LT ISZERO PUSH2 0x8AA JUMPI PUSH1 0x0 DUP1 REVERT JUMPDEST POP CALLDATALOAD PUSH1 0xFF AND PUSH2 0x1AF2 JUMP JUMPDEST CALLVALUE DUP1 ISZERO PUSH2 0x8C0 JUMPI PUSH1 0x0 DUP1 REVERT JUMPDEST POP PUSH2 0x230 PUSH1 0x4 DUP1 CALLDATASIZE SUB PUSH1 0x20 DUP2 LT ISZERO PUSH2 0x8D7 JUMPI PUSH1 0x0 DUP1 REVERT JUMPDEST POP CALLDATALOAD PUSH1 0x1 PUSH1 0x1 PUSH1 0xA0 SHL SUB AND PUSH2 0x1B95 JUMP JUMPDEST PUSH2 0x230 PUSH1 0x4 DUP1 CALLDATASIZE SUB PUSH1 0xE0 DUP2 LT ISZERO PUSH2 0x8FD JUMPI PUSH1 0x0 DUP1 REVERT JUMPDEST POP PUSH1 0x1 PUSH1 0x1 PUSH1 0xA0 SHL SUB DUP2 CALLDATALOAD DUP2 AND SWAP2 PUSH1 0x20 DUP2 ADD CALLDATALOAD SWAP2 PUSH1 0x40 DUP3 ADD CALLDATALOAD SWAP2 PUSH1 0x60 DUP2 ADD CALLDATALOAD SWAP1 SWAP2 AND SWAP1 PUSH1 0x80 DUP2 ADD CALLDATALOAD SWAP1 PUSH1 0xA0 DUP2 ADD CALLDATALOAD ISZERO ISZERO SWAP1 PUSH1 0xC0 ADD CALLDATALOAD ISZERO ISZERO PUSH2 0x1C5D JUMP JUMPDEST CALLVALUE DUP1 ISZERO PUSH2 0x945 JUMPI PUSH1 0x0 DUP1 REVERT JUMPDEST POP PUSH2 0x31C PUSH1 0x4 DUP1 CALLDATASIZE SUB PUSH1 0x20 DUP2 LT ISZERO PUSH2 0x95C JUMPI PUSH1 0x0 DUP1 REVERT JUMPDEST POP CALLDATALOAD PUSH2 0x1CC2 JUMP JUMPDEST CALLVALUE DUP1 ISZERO PUSH2 0x96F JUMPI PUSH1 0x0 DUP1 REVERT JUMPDEST POP PUSH2 0x247 PUSH2 0x1D93 JUMP JUMPDEST CALLVALUE DUP1 ISZERO PUSH2 0x984 JUMPI PUSH1 0x0 DUP1 REVERT JUMPDEST POP PUSH2 0x230 PUSH1 0x4 DUP1 CALLDATASIZE SUB PUSH1 0x20 DUP2 LT ISZERO PUSH2 0x99B JUMPI PUSH1 0x0 DUP1 REVERT JUMPDEST POP CALLDATALOAD PUSH1 0x1 PUSH1 0x1 PUSH1 0xA0 SHL SUB AND PUSH2 0x1DA2 JUMP JUMPDEST CALLVALUE DUP1 ISZERO PUSH2 0x9B7 JUMPI PUSH1 0x0 DUP1 REVERT JUMPDEST POP PUSH2 0x230 PUSH1 0x4 DUP1 CALLDATASIZE SUB PUSH1 0x80 DUP2 LT ISZERO PUSH2 0x9CE JUMPI PUSH1 0x0 DUP1 REVERT JUMPDEST POP PUSH1 0x1 PUSH1 0x1 PUSH1 0xA0 SHL SUB DUP2 CALLDATALOAD DUP2 AND SWAP2 PUSH1 0x20 DUP2 ADD CALLDATALOAD DUP3 AND SWAP2 PUSH1 0x40 DUP3 ADD CALLDATALOAD DUP2 AND SWAP2 PUSH1 0x60 ADD CALLDATALOAD AND PUSH2 0x1E9B JUMP JUMPDEST PUSH2 0x9FE PUSH2 0x1F4B JUMP JUMPDEST PUSH1 0x65 SLOAD PUSH1 0x1 PUSH1 0x1 PUSH1 0xA0 SHL SUB SWAP1 DUP2 AND SWAP2 AND EQ PUSH2 0xA4E JUMPI PUSH1 0x40 DUP1 MLOAD PUSH3 0x461BCD PUSH1 0xE5 SHL DUP2 MSTORE PUSH1 0x20 PUSH1 0x4 DUP3 ADD DUP2 SWAP1 MSTORE PUSH1 0x24 DUP3 ADD MSTORE PUSH1 0x0 DUP1 MLOAD PUSH1 0x20 PUSH2 0x38A6 DUP4 CODECOPY DUP2 MLOAD SWAP2 MSTORE PUSH1 0x44 DUP3 ADD MSTORE SWAP1 MLOAD SWAP1 DUP2 SWAP1 SUB PUSH1 0x64 ADD SWAP1 REVERT JUMPDEST DUP1 PUSH2 0xA61 DUP2 PUSH1 0x1 PUSH1 0x1 PUSH1 0xA0 SHL SUB AND PUSH2 0x1F4F JUMP JUMPDEST PUSH2 0xA9C JUMPI PUSH1 0x40 MLOAD PUSH3 0x461BCD PUSH1 0xE5 SHL DUP2 MSTORE PUSH1 0x4 ADD DUP1 DUP1 PUSH1 0x20 ADD DUP3 DUP2 SUB DUP3 MSTORE PUSH1 0x34 DUP2 MSTORE PUSH1 0x20 ADD DUP1 PUSH2 0x37F7 PUSH1 0x34 SWAP2 CODECOPY PUSH1 0x40 ADD SWAP2 POP POP PUSH1 0x40 MLOAD DUP1 SWAP2 SUB SWAP1 REVERT JUMPDEST PUSH1 0x1 PUSH1 0x1 PUSH1 0xA0 SHL SUB DUP3 AND PUSH2 0xAE1 JUMPI PUSH1 0x40 MLOAD PUSH3 0x461BCD PUSH1 0xE5 SHL DUP2 MSTORE PUSH1 0x4 ADD DUP1 DUP1 PUSH1 0x20 ADD DUP3 DUP2 SUB DUP3 MSTORE PUSH1 0x2D DUP2 MSTORE PUSH1 0x20 ADD DUP1 PUSH2 0x37CA PUSH1 0x2D SWAP2 CODECOPY PUSH1 0x40 ADD SWAP2 POP POP PUSH1 0x40 MLOAD DUP1 SWAP2 SUB SWAP1 REVERT JUMPDEST POP PUSH1 0xD0 DUP1 SLOAD PUSH1 0x1 PUSH1 0x1 PUSH1 0xA0 SHL SUB NOT AND PUSH1 0x1 PUSH1 0x1 PUSH1 0xA0 SHL SUB SWAP3 SWAP1 SWAP3 AND SWAP2 SWAP1 SWAP2 OR SWAP1 SSTORE JUMP JUMPDEST PUSH1 0xD0 SLOAD PUSH1 0x1 PUSH1 0x1 PUSH1 0xA0 SHL SUB AND SWAP1 JUMP JUMPDEST PUSH2 0xB1B PUSH2 0x1F4B JUMP JUMPDEST PUSH1 0x65 SLOAD PUSH1 0x1 PUSH1 0x1 PUSH1 0xA0 SHL SUB SWAP1 DUP2 AND SWAP2 AND EQ PUSH2 0xB6B JUMPI PUSH1 0x40 DUP1 MLOAD PUSH3 0x461BCD PUSH1 0xE5 SHL DUP2 MSTORE PUSH1 0x20 PUSH1 0x4 DUP3 ADD DUP2 SWAP1 MSTORE PUSH1 0x24 DUP3 ADD MSTORE PUSH1 0x0 DUP1 MLOAD PUSH1 0x20 PUSH2 0x38A6 DUP4 CODECOPY DUP2 MLOAD SWAP2 MSTORE PUSH1 0x44 DUP3 ADD MSTORE SWAP1 MLOAD SWAP1 DUP2 SWAP1 SUB PUSH1 0x64 ADD SWAP1 REVERT JUMPDEST PUSH1 0x1 PUSH1 0x1 PUSH1 0xA0 SHL SUB DUP2 AND PUSH2 0xBB0 JUMPI PUSH1 0x40 MLOAD PUSH3 0x461BCD PUSH1 0xE5 SHL DUP2 MSTORE PUSH1 0x4 ADD DUP1 DUP1 PUSH1 0x20 ADD DUP3 DUP2 SUB DUP3 MSTORE PUSH1 0x2A DUP2 MSTORE PUSH1 0x20 ADD DUP1 PUSH2 0x3720 PUSH1 0x2A SWAP2 CODECOPY PUSH1 0x40 ADD SWAP2 POP POP PUSH1 0x40 MLOAD DUP1 SWAP2 SUB SWAP1 REVERT JUMPDEST PUSH1 0xCB DUP1 SLOAD PUSH1 0x1 PUSH1 0x1 PUSH1 0xA0 SHL SUB NOT AND PUSH1 0x1 PUSH1 0x1 PUSH1 0xA0 SHL SUB DUP4 AND SWAP1 DUP2 OR SWAP1 SWAP2 SSTORE PUSH1 0x40 MLOAD PUSH32 0x268C00F4EC08B34FDDE24B52E47A09D62F3F3837EB3B8AC7206CEFB3BB5E5345 SWAP1 PUSH1 0x0 SWAP1 LOG2 POP JUMP JUMPDEST PUSH1 0x0 DUP1 DUP3 PUSH2 0xC11 JUMPI PUSH2 0xC0C DUP6 DUP6 PUSH2 0x164E JUMP JUMPDEST PUSH2 0xC1B JUMP JUMPDEST PUSH2 0xC1B DUP6 DUP6 PUSH2 0x11C8 JUMP JUMPDEST SWAP1 POP PUSH2 0xC26 DUP2 PUSH2 0x1F8B JUMP JUMPDEST SWAP6 SWAP5 POP POP POP POP POP JUMP JUMPDEST PUSH1 0x1 PUSH1 0x1 PUSH1 0xA0 SHL SUB DUP2 AND PUSH1 0x0 SWAP1 DUP2 MSTORE PUSH1 0xD5 PUSH1 0x20 MSTORE PUSH1 0x40 SWAP1 KECCAK256 SLOAD PUSH1 0xFF AND JUMPDEST SWAP2 SWAP1 POP JUMP JUMPDEST DUP1 PUSH2 0xC5B DUP2 PUSH2 0x1CC2 JUMP JUMPDEST PUSH2 0xCAC JUMPI PUSH1 0x40 DUP1 MLOAD PUSH3 0x461BCD PUSH1 0xE5 SHL DUP2 MSTORE PUSH1 0x20 PUSH1 0x4 DUP3 ADD DUP2 SWAP1 MSTORE PUSH1 0x24 DUP3 ADD MSTORE PUSH32 0x5B52656C656173655D3A2043616E27742072656C65617365207061796D656E74 PUSH1 0x44 DUP3 ADD MSTORE SWAP1 MLOAD SWAP1 DUP2 SWAP1 SUB PUSH1 0x64 ADD SWAP1 REVERT JUMPDEST PUSH2 0xCB4 PUSH2 0x368B JUMP JUMPDEST PUSH1 0x0 DUP4 DUP2 MSTORE PUSH1 0xCF PUSH1 0x20 SWAP1 DUP2 MSTORE PUSH1 0x40 SWAP2 DUP3 SWAP1 KECCAK256 DUP3 MLOAD PUSH1 0xE0 DUP2 ADD DUP5 MSTORE DUP2 SLOAD PUSH1 0x1 PUSH1 0x1 PUSH1 0xA0 SHL SUB SWAP1 DUP2 AND DUP3 MSTORE PUSH1 0x1 DUP1 DUP5 ADD SLOAD DUP3 AND SWAP5 DUP4 ADD SWAP5 SWAP1 SWAP5 MSTORE PUSH1 0x2 DUP4 ADD SLOAD AND SWAP4 DUP2 ADD SWAP4 SWAP1 SWAP4 MSTORE PUSH1 0x3 DUP2 ADD SLOAD PUSH1 0x60 DUP5 ADD MSTORE PUSH1 0x4 DUP2 ADD SLOAD PUSH1 0x80 DUP5 ADD MSTORE PUSH1 0x5 DUP2 ADD SLOAD PUSH1 0xA0 DUP5 ADD MSTORE PUSH1 0x6 DUP2 ADD SLOAD SWAP1 SWAP2 PUSH1 0xC0 DUP5 ADD SWAP2 PUSH1 0xFF AND SWAP1 DUP2 GT ISZERO PUSH2 0xD30 JUMPI INVALID JUMPDEST PUSH1 0x1 DUP2 GT ISZERO PUSH2 0xD3B JUMPI INVALID JUMPDEST SWAP1 MSTORE POP DUP1 MLOAD SWAP1 SWAP2 POP PUSH1 0x1 PUSH1 0x1 PUSH1 0xA0 SHL SUB AND PUSH20 0xEEEEEEEEEEEEEEEEEEEEEEEEEEEEEEEEEEEEEEEE EQ ISZERO PUSH2 0xD75 JUMPI PUSH2 0xD70 DUP4 PUSH2 0x2117 JUMP JUMPDEST PUSH2 0xD7E JUMP JUMPDEST PUSH2 0xD7E DUP4 PUSH2 0x21E5 JUMP JUMPDEST DUP1 PUSH1 0x0 ADD MLOAD PUSH1 0x1 PUSH1 0x1 PUSH1 0xA0 SHL SUB AND DUP2 PUSH1 0x40 ADD MLOAD PUSH1 0x1 PUSH1 0x1 PUSH1 0xA0 SHL SUB AND DUP5 PUSH32 0xA6EA333F41FF25E0A1ADEF6504BF3BE9C7E740717D65F28A40B57A9681C2940C PUSH1 0x40 MLOAD PUSH1 0x40 MLOAD DUP1 SWAP2 SUB SWAP1 LOG4 POP POP POP JUMP JUMPDEST PUSH2 0xDD4 PUSH2 0x1F4B JUMP JUMPDEST PUSH1 0x65 SLOAD PUSH1 0x1 PUSH1 0x1 PUSH1 0xA0 SHL SUB SWAP1 DUP2 AND SWAP2 AND EQ PUSH2 0xE24 JUMPI PUSH1 0x40 DUP1 MLOAD PUSH3 0x461BCD PUSH1 0xE5 SHL DUP2 MSTORE PUSH1 0x20 PUSH1 0x4 DUP3 ADD DUP2 SWAP1 MSTORE PUSH1 0x24 DUP3 ADD MSTORE PUSH1 0x0 DUP1 MLOAD PUSH1 0x20 PUSH2 0x38A6 DUP4 CODECOPY DUP2 MLOAD SWAP2 MSTORE PUSH1 0x44 DUP3 ADD MSTORE SWAP1 MLOAD SWAP1 DUP2 SWAP1 SUB PUSH1 0x64 ADD SWAP1 REVERT JUMPDEST PUSH2 0xE2C PUSH2 0x2227 JUMP JUMPDEST JUMP JUMPDEST PUSH1 0xCB SLOAD PUSH1 0x1 PUSH1 0x1 PUSH1 0xA0 SHL SUB AND SWAP1 JUMP JUMPDEST PUSH2 0xE45 PUSH2 0x1F4B JUMP JUMPDEST PUSH1 0x65 SLOAD PUSH1 0x1 PUSH1 0x1 PUSH1 0xA0 SHL SUB SWAP1 DUP2 AND SWAP2 AND EQ PUSH2 0xE95 JUMPI PUSH1 0x40 DUP1 MLOAD PUSH3 0x461BCD PUSH1 0xE5 SHL DUP2 MSTORE PUSH1 0x20 PUSH1 0x4 DUP3 ADD DUP2 SWAP1 MSTORE PUSH1 0x24 DUP3 ADD MSTORE PUSH1 0x0 DUP1 MLOAD PUSH1 0x20 PUSH2 0x38A6 DUP4 CODECOPY DUP2 MLOAD SWAP2 MSTORE PUSH1 0x44 DUP3 ADD MSTORE SWAP1 MLOAD SWAP1 DUP2 SWAP1 SUB PUSH1 0x64 ADD SWAP1 REVERT JUMPDEST PUSH1 0xD4 SSTORE JUMP JUMPDEST PUSH1 0x0 DUP1 PUSH2 0xEA6 DUP4 PUSH2 0x162F JUMP JUMPDEST SWAP1 POP PUSH2 0xEB1 DUP2 PUSH2 0x1F8B JUMP JUMPDEST SWAP4 SWAP3 POP POP POP JUMP JUMPDEST PUSH1 0x97 SLOAD PUSH1 0xFF AND SWAP1 JUMP JUMPDEST PUSH1 0x1 PUSH1 0x1 PUSH1 0xA0 SHL SUB DUP2 AND PUSH1 0x0 SWAP1 DUP2 MSTORE PUSH1 0xCD PUSH1 0x20 SWAP1 DUP2 MSTORE PUSH1 0x40 SWAP2 DUP3 SWAP1 KECCAK256 DUP1 SLOAD DUP4 MLOAD DUP2 DUP5 MUL DUP2 ADD DUP5 ADD SWAP1 SWAP5 MSTORE DUP1 DUP5 MSTORE PUSH1 0x60 SWAP4 SWAP3 DUP4 ADD DUP3 DUP3 DUP1 ISZERO PUSH2 0xF21 JUMPI PUSH1 0x20 MUL DUP3 ADD SWAP2 SWAP1 PUSH1 0x0 MSTORE PUSH1 0x20 PUSH1 0x0 KECCAK256 SWAP1 JUMPDEST DUP2 SLOAD DUP2 MSTORE PUSH1 0x20 ADD SWAP1 PUSH1 0x1 ADD SWAP1 DUP1 DUP4 GT PUSH2 0xF0D JUMPI JUMPDEST POP POP POP POP POP SWAP1 POP SWAP2 SWAP1 POP JUMP JUMPDEST PUSH2 0xF35 PUSH2 0x1F4B JUMP JUMPDEST PUSH1 0x65 SLOAD PUSH1 0x1 PUSH1 0x1 PUSH1 0xA0 SHL SUB SWAP1 DUP2 AND SWAP2 AND EQ PUSH2 0xF85 JUMPI PUSH1 0x40 DUP1 MLOAD PUSH3 0x461BCD PUSH1 0xE5 SHL DUP2 MSTORE PUSH1 0x20 PUSH1 0x4 DUP3 ADD DUP2 SWAP1 MSTORE PUSH1 0x24 DUP3 ADD MSTORE PUSH1 0x0 DUP1 MLOAD PUSH1 0x20 PUSH2 0x38A6 DUP4 CODECOPY DUP2 MLOAD SWAP2 MSTORE PUSH1 0x44 DUP3 ADD MSTORE SWAP1 MLOAD SWAP1 DUP2 SWAP1 SUB PUSH1 0x64 ADD SWAP1 REVERT JUMPDEST PUSH1 0x65 SLOAD PUSH1 0x40 MLOAD PUSH1 0x0 SWAP2 PUSH1 0x1 PUSH1 0x1 PUSH1 0xA0 SHL SUB AND SWAP1 PUSH32 0x8BE0079C531659141344CD1FD0A4F28419497F9722A3DAAFE3B4186F6B6457E0 SWAP1 DUP4 SWAP1 LOG3 PUSH1 0x65 DUP1 SLOAD PUSH1 0x1 PUSH1 0x1 PUSH1 0xA0 SHL SUB NOT AND SWAP1 SSTORE JUMP JUMPDEST PUSH2 0xFD7 PUSH2 0x1F4B JUMP JUMPDEST PUSH1 0x65 SLOAD PUSH1 0x1 PUSH1 0x1 PUSH1 0xA0 SHL SUB SWAP1 DUP2 AND SWAP2 AND EQ PUSH2 0x1027 JUMPI PUSH1 0x40 DUP1 MLOAD PUSH3 0x461BCD PUSH1 0xE5 SHL DUP2 MSTORE PUSH1 0x20 PUSH1 0x4 DUP3 ADD DUP2 SWAP1 MSTORE PUSH1 0x24 DUP3 ADD MSTORE PUSH1 0x0 DUP1 MLOAD PUSH1 0x20 PUSH2 0x38A6 DUP4 CODECOPY DUP2 MLOAD SWAP2 MSTORE PUSH1 0x44 DUP3 ADD MSTORE SWAP1 MLOAD SWAP1 DUP2 SWAP1 SUB PUSH1 0x64 ADD SWAP1 REVERT JUMPDEST PUSH2 0xE2C PUSH2 0x22C5 JUMP JUMPDEST PUSH2 0x1037 PUSH2 0x1F4B JUMP JUMPDEST PUSH1 0x65 SLOAD PUSH1 0x1 PUSH1 0x1 PUSH1 0xA0 SHL SUB SWAP1 DUP2 AND SWAP2 AND EQ PUSH2 0x1087 JUMPI PUSH1 0x40 DUP1 MLOAD PUSH3 0x461BCD PUSH1 0xE5 SHL DUP2 MSTORE PUSH1 0x20 PUSH1 0x4 DUP3 ADD DUP2 SWAP1 MSTORE PUSH1 0x24 DUP3 ADD MSTORE PUSH1 0x0 DUP1 MLOAD PUSH1 0x20 PUSH2 0x38A6 DUP4 CODECOPY DUP2 MLOAD SWAP2 MSTORE PUSH1 0x44 DUP3 ADD MSTORE SWAP1 MLOAD SWAP1 DUP2 SWAP1 SUB PUSH1 0x64 ADD SWAP1 REVERT JUMPDEST PUSH1 0x64 DUP2 PUSH1 0xFF AND GT ISZERO PUSH2 0x10CA JUMPI PUSH1 0x40 MLOAD PUSH3 0x461BCD PUSH1 0xE5 SHL DUP2 MSTORE PUSH1 0x4 ADD DUP1 DUP1 PUSH1 0x20 ADD DUP3 DUP2 SUB DUP3 MSTORE PUSH1 0x39 DUP2 MSTORE PUSH1 0x20 ADD DUP1 PUSH2 0x39C7 PUSH1 0x39 SWAP2 CODECOPY PUSH1 0x40 ADD SWAP2 POP POP PUSH1 0x40 MLOAD DUP1 SWAP2 SUB SWAP1 REVERT JUMPDEST PUSH1 0xFF AND PUSH1 0xD1 SSTORE JUMP JUMPDEST PUSH1 0x65 SLOAD PUSH1 0x1 PUSH1 0x1 PUSH1 0xA0 SHL SUB AND SWAP1 JUMP JUMPDEST PUSH2 0x10E9 PUSH2 0x1F4B JUMP JUMPDEST PUSH1 0x65 SLOAD PUSH1 0x1 PUSH1 0x1 PUSH1 0xA0 SHL SUB SWAP1 DUP2 AND SWAP2 AND EQ PUSH2 0x1139 JUMPI PUSH1 0x40 DUP1 MLOAD PUSH3 0x461BCD PUSH1 0xE5 SHL DUP2 MSTORE PUSH1 0x20 PUSH1 0x4 DUP3 ADD DUP2 SWAP1 MSTORE PUSH1 0x24 DUP3 ADD MSTORE PUSH1 0x0 DUP1 MLOAD PUSH1 0x20 PUSH2 0x38A6 DUP4 CODECOPY DUP2 MLOAD SWAP2 MSTORE PUSH1 0x44 DUP3 ADD MSTORE SWAP1 MLOAD SWAP1 DUP2 SWAP1 SUB PUSH1 0x64 ADD SWAP1 REVERT JUMPDEST PUSH1 0x1 PUSH1 0x1 PUSH1 0xA0 SHL SUB DUP2 AND PUSH2 0x117E JUMPI PUSH1 0x40 MLOAD PUSH3 0x461BCD PUSH1 0xE5 SHL DUP2 MSTORE PUSH1 0x4 ADD DUP1 DUP1 PUSH1 0x20 ADD DUP3 DUP2 SUB DUP3 MSTORE PUSH1 0x2B DUP2 MSTORE PUSH1 0x20 ADD DUP1 PUSH2 0x382B PUSH1 0x2B SWAP2 CODECOPY PUSH1 0x40 ADD SWAP2 POP POP PUSH1 0x40 MLOAD DUP1 SWAP2 SUB SWAP1 REVERT JUMPDEST PUSH1 0xCA DUP1 SLOAD PUSH1 0x1 PUSH1 0x1 PUSH1 0xA0 SHL SUB NOT AND PUSH1 0x1 PUSH1 0x1 PUSH1 0xA0 SHL SUB DUP4 AND SWAP1 DUP2 OR SWAP1 SWAP2 SSTORE PUSH1 0x40 MLOAD PUSH32 0xE805FFC02A12D27B142431551E2CD3F766203C54A9A4AB0D1CF01CE7366A796F SWAP1 PUSH1 0x0 SWAP1 LOG2 POP JUMP JUMPDEST PUSH1 0x0 PUSH2 0x11D3 DUP3 PUSH2 0xC2F JUMP JUMPDEST ISZERO PUSH2 0x11E0 JUMPI POP PUSH1 0x0 PUSH2 0x12AC JUMP JUMPDEST PUSH1 0x0 DUP3 PUSH1 0x1 PUSH1 0x1 PUSH1 0xA0 SHL SUB AND PUSH4 0x18160DDD PUSH1 0x40 MLOAD DUP2 PUSH4 0xFFFFFFFF AND PUSH1 0xE0 SHL DUP2 MSTORE PUSH1 0x4 ADD PUSH1 0x20 PUSH1 0x40 MLOAD DUP1 DUP4 SUB DUP2 DUP7 DUP1 EXTCODESIZE ISZERO DUP1 ISZERO PUSH2 0x121B JUMPI PUSH1 0x0 DUP1 REVERT JUMPDEST POP GAS STATICCALL ISZERO DUP1 ISZERO PUSH2 0x122F JUMPI RETURNDATASIZE PUSH1 0x0 DUP1 RETURNDATACOPY RETURNDATASIZE PUSH1 0x0 REVERT JUMPDEST POP POP POP POP PUSH1 0x40 MLOAD RETURNDATASIZE PUSH1 0x20 DUP2 LT ISZERO PUSH2 0x1245 JUMPI PUSH1 0x0 DUP1 REVERT JUMPDEST POP MLOAD SWAP1 POP PUSH1 0x0 PUSH2 0x127C DUP3 PUSH2 0x1270 PUSH1 0x64 PUSH2 0x1264 DUP10 DUP5 PUSH4 0xFFFFFFFF PUSH2 0x2346 AND JUMP JUMPDEST SWAP1 PUSH4 0xFFFFFFFF PUSH2 0x2346 AND JUMP JUMPDEST SWAP1 PUSH4 0xFFFFFFFF PUSH2 0x239F AND JUMP JUMPDEST SWAP1 POP PUSH8 0x16345785D8A0000 PUSH2 0x12A6 PUSH2 0x129E DUP5 PUSH2 0x1270 DUP6 DUP6 PUSH4 0xFFFFFFFF PUSH2 0x2346 AND JUMP JUMPDEST PUSH1 0xD4 SLOAD PUSH2 0x23E1 JUMP JUMPDEST SWAP4 POP POP POP POP JUMPDEST SWAP3 SWAP2 POP POP JUMP JUMPDEST PUSH1 0x0 DUP1 PUSH1 0x0 DUP1 PUSH1 0x0 DUP1 PUSH1 0x0 PUSH1 0xCF PUSH1 0x0 DUP10 DUP2 MSTORE PUSH1 0x20 ADD SWAP1 DUP2 MSTORE PUSH1 0x20 ADD PUSH1 0x0 KECCAK256 PUSH1 0x3 ADD SLOAD PUSH1 0x0 EQ ISZERO PUSH2 0x1313 JUMPI PUSH1 0x40 MLOAD PUSH3 0x461BCD PUSH1 0xE5 SHL DUP2 MSTORE PUSH1 0x4 ADD DUP1 DUP1 PUSH1 0x20 ADD DUP3 DUP2 SUB DUP3 MSTORE PUSH1 0x26 DUP2 MSTORE PUSH1 0x20 ADD DUP1 PUSH2 0x3A67 PUSH1 0x26 SWAP2 CODECOPY PUSH1 0x40 ADD SWAP2 POP POP PUSH1 0x40 MLOAD DUP1 SWAP2 SUB SWAP1 REVERT JUMPDEST PUSH2 0x131B PUSH2 0x368B JUMP JUMPDEST PUSH1 0x0 DUP10 DUP2 MSTORE PUSH1 0xCF PUSH1 0x20 SWAP1 DUP2 MSTORE PUSH1 0x40 SWAP2 DUP3 SWAP1 KECCAK256 DUP3 MLOAD PUSH1 0xE0 DUP2 ADD DUP5 MSTORE DUP2 SLOAD PUSH1 0x1 PUSH1 0x1 PUSH1 0xA0 SHL SUB SWAP1 DUP2 AND DUP3 MSTORE PUSH1 0x1 DUP1 DUP5 ADD SLOAD DUP3 AND SWAP5 DUP4 ADD SWAP5 SWAP1 SWAP5 MSTORE PUSH1 0x2 DUP4 ADD SLOAD AND SWAP4 DUP2 ADD SWAP4 SWAP1 SWAP4 MSTORE PUSH1 0x3 DUP2 ADD SLOAD PUSH1 0x60 DUP5 ADD MSTORE PUSH1 0x4 DUP2 ADD SLOAD PUSH1 0x80 DUP5 ADD MSTORE PUSH1 0x5 DUP2 ADD SLOAD PUSH1 0xA0 DUP5 ADD MSTORE PUSH1 0x6 DUP2 ADD SLOAD SWAP1 SWAP2 PUSH1 0xC0 DUP5 ADD SWAP2 PUSH1 0xFF AND SWAP1 DUP2 GT ISZERO PUSH2 0x1397 JUMPI INVALID JUMPDEST PUSH1 0x1 DUP2 GT ISZERO PUSH2 0x13A2 JUMPI INVALID JUMPDEST SWAP1 MSTORE POP DUP1 MLOAD PUSH1 0x60 DUP3 ADD MLOAD PUSH1 0x80 DUP4 ADD MLOAD PUSH1 0x20 DUP5 ADD MLOAD PUSH1 0x40 DUP6 ADD MLOAD PUSH1 0xA0 DUP7 ADD MLOAD PUSH1 0xC0 SWAP1 SWAP7 ADD MLOAD SWAP5 SWAP16 SWAP4 SWAP15 POP SWAP2 SWAP13 POP SWAP11 POP SWAP9 POP SWAP2 SWAP7 POP SWAP5 POP SWAP3 POP POP POP JUMP JUMPDEST PUSH1 0xC9 SLOAD PUSH1 0x1 PUSH1 0x1 PUSH1 0xA0 SHL SUB AND SWAP1 JUMP JUMPDEST PUSH2 0x13F4 PUSH2 0x1F4B JUMP JUMPDEST PUSH1 0x65 SLOAD PUSH1 0x1 PUSH1 0x1 PUSH1 0xA0 SHL SUB SWAP1 DUP2 AND SWAP2 AND EQ PUSH2 0x1444 JUMPI PUSH1 0x40 DUP1 MLOAD PUSH3 0x461BCD PUSH1 0xE5 SHL DUP2 MSTORE PUSH1 0x20 PUSH1 0x4 DUP3 ADD DUP2 SWAP1 MSTORE PUSH1 0x24 DUP3 ADD MSTORE PUSH1 0x0 DUP1 MLOAD PUSH1 0x20 PUSH2 0x38A6 DUP4 CODECOPY DUP2 MLOAD SWAP2 MSTORE PUSH1 0x44 DUP3 ADD MSTORE SWAP1 MLOAD SWAP1 DUP2 SWAP1 SUB PUSH1 0x64 ADD SWAP1 REVERT JUMPDEST PUSH1 0x64 DUP2 PUSH1 0xFF AND GT ISZERO PUSH2 0x1487 JUMPI PUSH1 0x40 MLOAD PUSH3 0x461BCD PUSH1 0xE5 SHL DUP2 MSTORE PUSH1 0x4 ADD DUP1 DUP1 PUSH1 0x20 ADD DUP3 DUP2 SUB DUP3 MSTORE PUSH1 0x3D DUP2 MSTORE PUSH1 0x20 ADD DUP1 PUSH2 0x3A2A PUSH1 0x3D SWAP2 CODECOPY PUSH1 0x40 ADD SWAP2 POP POP PUSH1 0x40 MLOAD DUP1 SWAP2 SUB SWAP1 REVERT JUMPDEST PUSH1 0xFF AND PUSH1 0xD3 SSTORE JUMP JUMPDEST PUSH1 0x1 PUSH1 0x1 PUSH1 0xA0 SHL SUB DUP2 AND PUSH1 0x0 SWAP1 DUP2 MSTORE PUSH1 0xCE PUSH1 0x20 SWAP1 DUP2 MSTORE PUSH1 0x40 SWAP2 DUP3 SWAP1 KECCAK256 DUP1 SLOAD DUP4 MLOAD DUP2 DUP5 MUL DUP2 ADD DUP5 ADD SWAP1 SWAP5 MSTORE DUP1 DUP5 MSTORE PUSH1 0x60 SWAP4 SWAP3 DUP4 ADD DUP3 DUP3 DUP1 ISZERO PUSH2 0xF21 JUMPI PUSH1 0x20 MUL DUP3 ADD SWAP2 SWAP1 PUSH1 0x0 MSTORE PUSH1 0x20 PUSH1 0x0 KECCAK256 SWAP1 DUP2 SLOAD DUP2 MSTORE PUSH1 0x20 ADD SWAP1 PUSH1 0x1 ADD SWAP1 DUP1 DUP4 GT PUSH2 0xF0D JUMPI POP POP POP POP POP SWAP1 POP SWAP2 SWAP1 POP JUMP JUMPDEST PUSH2 0x1501 PUSH2 0x1F4B JUMP JUMPDEST PUSH1 0x65 SLOAD PUSH1 0x1 PUSH1 0x1 PUSH1 0xA0 SHL SUB SWAP1 DUP2 AND SWAP2 AND EQ PUSH2 0x1551 JUMPI PUSH1 0x40 DUP1 MLOAD PUSH3 0x461BCD PUSH1 0xE5 SHL DUP2 MSTORE PUSH1 0x20 PUSH1 0x4 DUP3 ADD DUP2 SWAP1 MSTORE PUSH1 0x24 DUP3 ADD MSTORE PUSH1 0x0 DUP1 MLOAD PUSH1 0x20 PUSH2 0x38A6 DUP4 CODECOPY DUP2 MLOAD SWAP2 MSTORE PUSH1 0x44 DUP3 ADD MSTORE SWAP1 MLOAD SWAP1 DUP2 SWAP1 SUB PUSH1 0x64 ADD SWAP1 REVERT JUMPDEST DUP1 PUSH2 0x1564 DUP2 PUSH1 0x1 PUSH1 0x1 PUSH1 0xA0 SHL SUB AND PUSH2 0x1F4F JUMP JUMPDEST PUSH2 0x159F JUMPI PUSH1 0x40 MLOAD PUSH3 0x461BCD PUSH1 0xE5 SHL DUP2 MSTORE PUSH1 0x4 ADD DUP1 DUP1 PUSH1 0x20 ADD DUP3 DUP2 SUB DUP3 MSTORE PUSH1 0x34 DUP2 MSTORE PUSH1 0x20 ADD DUP1 PUSH2 0x37F7 PUSH1 0x34 SWAP2 CODECOPY PUSH1 0x40 ADD SWAP2 POP POP PUSH1 0x40 MLOAD DUP1 SWAP2 SUB SWAP1 REVERT JUMPDEST PUSH1 0x1 PUSH1 0x1 PUSH1 0xA0 SHL SUB DUP3 AND PUSH2 0x15E4 JUMPI PUSH1 0x40 MLOAD PUSH3 0x461BCD PUSH1 0xE5 SHL DUP2 MSTORE PUSH1 0x4 ADD DUP1 DUP1 PUSH1 0x20 ADD DUP3 DUP2 SUB DUP3 MSTORE PUSH1 0x28 DUP2 MSTORE PUSH1 0x20 ADD DUP1 PUSH2 0x376D PUSH1 0x28 SWAP2 CODECOPY PUSH1 0x40 ADD SWAP2 POP POP PUSH1 0x40 MLOAD DUP1 SWAP2 SUB SWAP1 REVERT JUMPDEST PUSH1 0xC9 DUP1 SLOAD PUSH1 0x1 PUSH1 0x1 PUSH1 0xA0 SHL SUB NOT AND PUSH1 0x1 PUSH1 0x1 PUSH1 0xA0 SHL SUB DUP5 AND SWAP1 DUP2 OR SWAP1 SWAP2 SSTORE PUSH1 0x40 MLOAD PUSH32 0x44FE57485076F35A8EB17E92799DCC65F24A9EAB90FFAE0AF662812F19803BE5 SWAP1 PUSH1 0x0 SWAP1 LOG2 POP POP JUMP JUMPDEST PUSH1 0x0 PUSH2 0x12AC PUSH2 0x129E PUSH1 0x64 PUSH2 0x1270 PUSH1 0xD1 SLOAD DUP7 PUSH2 0x2346 SWAP1 SWAP2 SWAP1 PUSH4 0xFFFFFFFF AND JUMP JUMPDEST PUSH1 0x0 PUSH2 0x1659 DUP3 PUSH2 0xC2F JUMP JUMPDEST ISZERO PUSH2 0x1666 JUMPI POP PUSH1 0x0 PUSH2 0x12AC JUMP JUMPDEST PUSH1 0x0 DUP3 PUSH1 0x1 PUSH1 0x1 PUSH1 0xA0 SHL SUB AND PUSH4 0x313CE567 PUSH1 0x40 MLOAD DUP2 PUSH4 0xFFFFFFFF AND PUSH1 0xE0 SHL DUP2 MSTORE PUSH1 0x4 ADD PUSH1 0x20 PUSH1 0x40 MLOAD DUP1 DUP4 SUB DUP2 DUP7 DUP1 EXTCODESIZE ISZERO DUP1 ISZERO PUSH2 0x16A1 JUMPI PUSH1 0x0 DUP1 REVERT JUMPDEST POP GAS STATICCALL ISZERO DUP1 ISZERO PUSH2 0x16B5 JUMPI RETURNDATASIZE PUSH1 0x0 DUP1 RETURNDATACOPY RETURNDATASIZE PUSH1 0x0 REVERT JUMPDEST POP POP POP POP PUSH1 0x40 MLOAD RETURNDATASIZE PUSH1 0x20 DUP2 LT ISZERO PUSH2 0x16CB JUMPI PUSH1 0x0 DUP1 REVERT JUMPDEST POP MLOAD PUSH1 0xD0 SLOAD PUSH1 0x40 DUP1 MLOAD PUSH4 0x50A23945 PUSH1 0xE0 SHL DUP2 MSTORE PUSH1 0xFF SWAP1 SWAP4 AND PUSH1 0xA EXP PUSH1 0x4 DUP5 ADD DUP2 SWAP1 MSTORE PUSH1 0x1 PUSH1 0x1 PUSH1 0xA0 SHL SUB DUP8 DUP2 AND PUSH1 0x24 DUP7 ADD MSTORE SWAP2 MLOAD SWAP1 SWAP5 POP PUSH1 0x0 SWAP4 SWAP2 SWAP1 SWAP3 AND SWAP2 PUSH4 0x50A23945 SWAP2 PUSH1 0x44 DUP1 DUP3 ADD SWAP3 DUP7 SWAP3 SWAP1 SWAP2 SWAP1 DUP3 SWAP1 SUB ADD DUP2 DUP7 DUP1 EXTCODESIZE ISZERO DUP1 ISZERO PUSH2 0x172F JUMPI PUSH1 0x0 DUP1 REVERT JUMPDEST POP GAS STATICCALL ISZERO DUP1 ISZERO PUSH2 0x1743 JUMPI RETURNDATASIZE PUSH1 0x0 DUP1 RETURNDATACOPY RETURNDATASIZE PUSH1 0x0 REVERT JUMPDEST POP POP POP POP PUSH1 0x40 MLOAD RETURNDATASIZE PUSH1 0x0 DUP3 RETURNDATACOPY PUSH1 0x1F RETURNDATASIZE SWAP1 DUP2 ADD PUSH1 0x1F NOT AND DUP3 ADD PUSH1 0x40 MSTORE PUSH1 0x20 DUP2 LT ISZERO PUSH2 0x176C JUMPI PUSH1 0x0 DUP1 REVERT JUMPDEST DUP2 ADD SWAP1 DUP1 DUP1 MLOAD PUSH1 0x40 MLOAD SWAP4 SWAP3 SWAP2 SWAP1 DUP5 PUSH1 0x1 PUSH1 0x20 SHL DUP3 GT ISZERO PUSH2 0x178B JUMPI PUSH1 0x0 DUP1 REVERT JUMPDEST SWAP1 DUP4 ADD SWAP1 PUSH1 0x20 DUP3 ADD DUP6 DUP2 GT ISZERO PUSH2 0x17A0 JUMPI PUSH1 0x0 DUP1 REVERT JUMPDEST DUP3 MLOAD DUP7 PUSH1 0x20 DUP3 MUL DUP4 ADD GT PUSH1 0x1 PUSH1 0x20 SHL DUP3 GT OR ISZERO PUSH2 0x17BC JUMPI PUSH1 0x0 DUP1 REVERT JUMPDEST DUP3 MSTORE POP DUP2 MLOAD PUSH1 0x20 SWAP2 DUP3 ADD SWAP3 DUP3 ADD SWAP2 MUL DUP1 DUP4 DUP4 PUSH1 0x0 JUMPDEST DUP4 DUP2 LT ISZERO PUSH2 0x17E9 JUMPI DUP2 DUP2 ADD MLOAD DUP4 DUP3 ADD MSTORE PUSH1 0x20 ADD PUSH2 0x17D1 JUMP JUMPDEST POP POP POP POP SWAP1 POP ADD PUSH1 0x40 MSTORE POP POP POP PUSH1 0x0 DUP2 MLOAD DUP2 LT PUSH2 0x1802 JUMPI INVALID JUMPDEST PUSH1 0x20 MUL PUSH1 0x20 ADD ADD MLOAD SWAP1 POP PUSH2 0x1837 PUSH2 0x182A PUSH2 0x3E8 PUSH2 0x1270 PUSH1 0xD3 SLOAD DUP6 PUSH2 0x2346 SWAP1 SWAP2 SWAP1 PUSH4 0xFFFFFFFF AND JUMP JUMPDEST DUP3 SWAP1 PUSH4 0xFFFFFFFF PUSH2 0x23F7 AND JUMP JUMPDEST SWAP1 POP PUSH1 0x0 PUSH2 0x184F DUP4 PUSH2 0x1270 DUP9 DUP6 PUSH4 0xFFFFFFFF PUSH2 0x2346 AND JUMP JUMPDEST SWAP1 POP PUSH2 0x12A6 DUP2 PUSH2 0x162F JUMP JUMPDEST PUSH2 0x1862 PUSH2 0x1F4B JUMP JUMPDEST PUSH1 0x65 SLOAD PUSH1 0x1 PUSH1 0x1 PUSH1 0xA0 SHL SUB SWAP1 DUP2 AND SWAP2 AND EQ PUSH2 0x18B2 JUMPI PUSH1 0x40 DUP1 MLOAD PUSH3 0x461BCD PUSH1 0xE5 SHL DUP2 MSTORE PUSH1 0x20 PUSH1 0x4 DUP3 ADD DUP2 SWAP1 MSTORE PUSH1 0x24 DUP3 ADD MSTORE PUSH1 0x0 DUP1 MLOAD PUSH1 0x20 PUSH2 0x38A6 DUP4 CODECOPY DUP2 MLOAD SWAP2 MSTORE PUSH1 0x44 DUP3 ADD MSTORE SWAP1 MLOAD SWAP1 DUP2 SWAP1 SUB PUSH1 0x64 ADD SWAP1 REVERT JUMPDEST DUP1 PUSH2 0x18C5 DUP2 PUSH1 0x1 PUSH1 0x1 PUSH1 0xA0 SHL SUB AND PUSH2 0x1F4F JUMP JUMPDEST PUSH2 0x1900 JUMPI PUSH1 0x40 MLOAD PUSH3 0x461BCD PUSH1 0xE5 SHL DUP2 MSTORE PUSH1 0x4 ADD DUP1 DUP1 PUSH1 0x20 ADD DUP3 DUP2 SUB DUP3 MSTORE PUSH1 0x34 DUP2 MSTORE PUSH1 0x20 ADD DUP1 PUSH2 0x37F7 PUSH1 0x34 SWAP2 CODECOPY PUSH1 0x40 ADD SWAP2 POP POP PUSH1 0x40 MLOAD DUP1 SWAP2 SUB SWAP1 REVERT JUMPDEST POP PUSH1 0x1 PUSH1 0x1 PUSH1 0xA0 SHL SUB AND PUSH1 0x0 SWAP1 DUP2 MSTORE PUSH1 0xD5 PUSH1 0x20 MSTORE PUSH1 0x40 SWAP1 KECCAK256 DUP1 SLOAD PUSH1 0xFF NOT AND PUSH1 0x1 OR SWAP1 SSTORE JUMP JUMPDEST PUSH1 0x97 SLOAD PUSH1 0xFF AND ISZERO PUSH2 0x1970 JUMPI PUSH1 0x40 DUP1 MLOAD PUSH3 0x461BCD PUSH1 0xE5 SHL DUP2 MSTORE PUSH1 0x20 PUSH1 0x4 DUP3 ADD MSTORE PUSH1 0x10 PUSH1 0x24 DUP3 ADD MSTORE PUSH16 0x14185D5CD8589B194E881C185D5CD959 PUSH1 0x82 SHL PUSH1 0x44 DUP3 ADD MSTORE SWAP1 MLOAD SWAP1 DUP2 SWAP1 SUB PUSH1 0x64 ADD SWAP1 REVERT JUMPDEST CALLVALUE DUP10 DUP9 EQ PUSH2 0x19C5 JUMPI PUSH1 0x40 DUP1 MLOAD PUSH3 0x461BCD PUSH1 0xE5 SHL DUP2 MSTORE PUSH1 0x20 PUSH1 0x4 DUP3 ADD MSTORE PUSH1 0x1C PUSH1 0x24 DUP3 ADD MSTORE PUSH32 0x53776170536D6172744C6F636B3A20496E76616C696420696E70757400000000 PUSH1 0x44 DUP3 ADD MSTORE SWAP1 MLOAD SWAP1 DUP2 SWAP1 SUB PUSH1 0x64 ADD SWAP1 REVERT JUMPDEST DUP10 DUP7 EQ PUSH2 0x1A19 JUMPI PUSH1 0x40 DUP1 MLOAD PUSH3 0x461BCD PUSH1 0xE5 SHL DUP2 MSTORE PUSH1 0x20 PUSH1 0x4 DUP3 ADD MSTORE PUSH1 0x1C PUSH1 0x24 DUP3 ADD MSTORE PUSH32 0x53776170536D6172744C6F636B3A20496E76616C696420696E70757400000000 PUSH1 0x44 DUP3 ADD MSTORE SWAP1 MLOAD SWAP1 DUP2 SWAP1 SUB PUSH1 0x64 ADD SWAP1 REVERT JUMPDEST DUP10 DUP5 EQ PUSH2 0x1A6D JUMPI PUSH1 0x40 DUP1 MLOAD PUSH3 0x461BCD PUSH1 0xE5 SHL DUP2 MSTORE PUSH1 0x20 PUSH1 0x4 DUP3 ADD MSTORE PUSH1 0x1C PUSH1 0x24 DUP3 ADD MSTORE PUSH32 0x53776170536D6172744C6F636B3A20496E76616C696420696E70757400000000 PUSH1 0x44 DUP3 ADD MSTORE SWAP1 MLOAD SWAP1 DUP2 SWAP1 SUB PUSH1 0x64 ADD SWAP1 REVERT JUMPDEST PUSH1 0x0 JUMPDEST DUP11 DUP2 LT ISZERO PUSH2 0x1AE3 JUMPI PUSH2 0x1AD9 DUP14 DUP14 DUP14 DUP5 DUP2 DUP2 LT PUSH2 0x1A88 JUMPI INVALID JUMPDEST SWAP1 POP PUSH1 0x20 MUL ADD CALLDATALOAD DUP13 DUP13 DUP6 DUP2 DUP2 LT PUSH2 0x1A9B JUMPI INVALID JUMPDEST SWAP1 POP PUSH1 0x20 MUL ADD CALLDATALOAD DUP12 DUP12 DUP7 DUP2 DUP2 LT PUSH2 0x1AAE JUMPI INVALID JUMPDEST SWAP1 POP PUSH1 0x20 MUL ADD CALLDATALOAD PUSH1 0x1 PUSH1 0x1 PUSH1 0xA0 SHL SUB AND DUP7 DUP12 DUP12 DUP9 DUP2 DUP2 LT PUSH2 0x1ACB JUMPI INVALID JUMPDEST SWAP1 POP PUSH1 0x20 MUL ADD CALLDATALOAD DUP11 DUP11 PUSH2 0x2439 JUMP JUMPDEST SWAP2 POP PUSH1 0x1 ADD PUSH2 0x1A70 JUMP JUMPDEST POP POP POP POP POP POP POP POP POP POP POP POP POP JUMP JUMPDEST PUSH2 0x1AFA PUSH2 0x1F4B JUMP JUMPDEST PUSH1 0x65 SLOAD PUSH1 0x1 PUSH1 0x1 PUSH1 0xA0 SHL SUB SWAP1 DUP2 AND SWAP2 AND EQ PUSH2 0x1B4A JUMPI PUSH1 0x40 DUP1 MLOAD PUSH3 0x461BCD PUSH1 0xE5 SHL DUP2 MSTORE PUSH1 0x20 PUSH1 0x4 DUP3 ADD DUP2 SWAP1 MSTORE PUSH1 0x24 DUP3 ADD MSTORE PUSH1 0x0 DUP1 MLOAD PUSH1 0x20 PUSH2 0x38A6 DUP4 CODECOPY DUP2 MLOAD SWAP2 MSTORE PUSH1 0x44 DUP3 ADD MSTORE SWAP1 MLOAD SWAP1 DUP2 SWAP1 SUB PUSH1 0x64 ADD SWAP1 REVERT JUMPDEST PUSH1 0x64 DUP2 PUSH1 0xFF AND GT ISZERO PUSH2 0x1B8D JUMPI PUSH1 0x40 MLOAD PUSH3 0x461BCD PUSH1 0xE5 SHL DUP2 MSTORE PUSH1 0x4 ADD DUP1 DUP1 PUSH1 0x20 ADD DUP3 DUP2 SUB DUP3 MSTORE PUSH1 0x46 DUP2 MSTORE PUSH1 0x20 ADD DUP1 PUSH2 0x3981 PUSH1 0x46 SWAP2 CODECOPY PUSH1 0x60 ADD SWAP2 POP POP PUSH1 0x40 MLOAD DUP1 SWAP2 SUB SWAP1 REVERT JUMPDEST PUSH1 0xFF AND PUSH1 0xD2 SSTORE JUMP JUMPDEST PUSH2 0x1B9D PUSH2 0x1F4B JUMP JUMPDEST PUSH1 0x65 SLOAD PUSH1 0x1 PUSH1 0x1 PUSH1 0xA0 SHL SUB SWAP1 DUP2 AND SWAP2 AND EQ PUSH2 0x1BED JUMPI PUSH1 0x40 DUP1 MLOAD PUSH3 0x461BCD PUSH1 0xE5 SHL DUP2 MSTORE PUSH1 0x20 PUSH1 0x4 DUP3 ADD DUP2 SWAP1 MSTORE PUSH1 0x24 DUP3 ADD MSTORE PUSH1 0x0 DUP1 MLOAD PUSH1 0x20 PUSH2 0x38A6 DUP4 CODECOPY DUP2 MLOAD SWAP2 MSTORE PUSH1 0x44 DUP3 ADD MSTORE SWAP1 MLOAD SWAP1 DUP2 SWAP1 SUB PUSH1 0x64 ADD SWAP1 REVERT JUMPDEST DUP1 PUSH2 0x1C00 DUP2 PUSH1 0x1 PUSH1 0x1 PUSH1 0xA0 SHL SUB AND PUSH2 0x1F4F JUMP JUMPDEST PUSH2 0x1C3B JUMPI PUSH1 0x40 MLOAD PUSH3 0x461BCD PUSH1 0xE5 SHL DUP2 MSTORE PUSH1 0x4 ADD DUP1 DUP1 PUSH1 0x20 ADD DUP3 DUP2 SUB DUP3 MSTORE PUSH1 0x34 DUP2 MSTORE PUSH1 0x20 ADD DUP1 PUSH2 0x37F7 PUSH1 0x34 SWAP2 CODECOPY PUSH1 0x40 ADD SWAP2 POP POP PUSH1 0x40 MLOAD DUP1 SWAP2 SUB SWAP1 REVERT JUMPDEST POP PUSH1 0x1 PUSH1 0x1 PUSH1 0xA0 SHL SUB AND PUSH1 0x0 SWAP1 DUP2 MSTORE PUSH1 0xD5 PUSH1 0x20 MSTORE PUSH1 0x40 SWAP1 KECCAK256 DUP1 SLOAD PUSH1 0xFF NOT AND SWAP1 SSTORE JUMP JUMPDEST PUSH1 0x97 SLOAD PUSH1 0xFF AND ISZERO PUSH2 0x1CA8 JUMPI PUSH1 0x40 DUP1 MLOAD PUSH3 0x461BCD PUSH1 0xE5 SHL DUP2 MSTORE PUSH1 0x20 PUSH1 0x4 DUP3 ADD MSTORE PUSH1 0x10 PUSH1 0x24 DUP3 ADD MSTORE PUSH16 0x14185D5CD8589B194E881C185D5CD959 PUSH1 0x82 SHL PUSH1 0x44 DUP3 ADD MSTORE SWAP1 MLOAD SWAP1 DUP2 SWAP1 SUB PUSH1 0x64 ADD SWAP1 REVERT JUMPDEST PUSH2 0x1CB8 DUP8 DUP8 DUP8 DUP8 CALLVALUE DUP9 DUP9 DUP9 PUSH2 0x2439 JUMP JUMPDEST POP POP POP POP POP POP POP POP JUMP JUMPDEST PUSH1 0x0 PUSH2 0x1CCC PUSH2 0x368B JUMP JUMPDEST PUSH1 0x0 DUP4 DUP2 MSTORE PUSH1 0xCF PUSH1 0x20 SWAP1 DUP2 MSTORE PUSH1 0x40 SWAP2 DUP3 SWAP1 KECCAK256 DUP3 MLOAD PUSH1 0xE0 DUP2 ADD DUP5 MSTORE DUP2 SLOAD PUSH1 0x1 PUSH1 0x1 PUSH1 0xA0 SHL SUB SWAP1 DUP2 AND DUP3 MSTORE PUSH1 0x1 DUP1 DUP5 ADD SLOAD DUP3 AND SWAP5 DUP4 ADD SWAP5 SWAP1 SWAP5 MSTORE PUSH1 0x2 DUP4 ADD SLOAD AND SWAP4 DUP2 ADD SWAP4 SWAP1 SWAP4 MSTORE PUSH1 0x3 DUP2 ADD SLOAD PUSH1 0x60 DUP5 ADD MSTORE PUSH1 0x4 DUP2 ADD SLOAD PUSH1 0x80 DUP5 ADD MSTORE PUSH1 0x5 DUP2 ADD SLOAD PUSH1 0xA0 DUP5 ADD MSTORE PUSH1 0x6 DUP2 ADD SLOAD SWAP1 SWAP2 PUSH1 0xC0 DUP5 ADD SWAP2 PUSH1 0xFF AND SWAP1 DUP2 GT ISZERO PUSH2 0x1D48 JUMPI INVALID JUMPDEST PUSH1 0x1 DUP2 GT ISZERO PUSH2 0x1D53 JUMPI INVALID JUMPDEST SWAP1 MSTORE POP SWAP1 POP PUSH1 0x1 DUP2 PUSH1 0xC0 ADD MLOAD PUSH1 0x1 DUP2 GT ISZERO PUSH2 0x1D6A JUMPI INVALID JUMPDEST EQ DUP1 ISZERO PUSH2 0x1D7B JUMPI POP TIMESTAMP DUP2 PUSH1 0x80 ADD MLOAD GT ISZERO JUMPDEST ISZERO PUSH2 0x1D8A JUMPI PUSH1 0x1 SWAP2 POP POP PUSH2 0xC4C JUMP JUMPDEST POP PUSH1 0x0 SWAP3 SWAP2 POP POP JUMP JUMPDEST PUSH1 0xCA SLOAD PUSH1 0x1 PUSH1 0x1 PUSH1 0xA0 SHL SUB AND SWAP1 JUMP JUMPDEST PUSH2 0x1DAA PUSH2 0x1F4B JUMP JUMPDEST PUSH1 0x65 SLOAD PUSH1 0x1 PUSH1 0x1 PUSH1 0xA0 SHL SUB SWAP1 DUP2 AND SWAP2 AND EQ PUSH2 0x1DFA JUMPI PUSH1 0x40 DUP1 MLOAD PUSH3 0x461BCD PUSH1 0xE5 SHL DUP2 MSTORE PUSH1 0x20 PUSH1 0x4 DUP3 ADD DUP2 SWAP1 MSTORE PUSH1 0x24 DUP3 ADD MSTORE PUSH1 0x0 DUP1 MLOAD PUSH1 0x20 PUSH2 0x38A6 DUP4 CODECOPY DUP2 MLOAD SWAP2 MSTORE PUSH1 0x44 DUP3 ADD MSTORE SWAP1 MLOAD SWAP1 DUP2 SWAP1 SUB PUSH1 0x64 ADD SWAP1 REVERT JUMPDEST PUSH1 0x1 PUSH1 0x1 PUSH1 0xA0 SHL SUB DUP2 AND PUSH2 0x1E3F JUMPI PUSH1 0x40 MLOAD PUSH3 0x461BCD PUSH1 0xE5 SHL DUP2 MSTORE PUSH1 0x4 ADD DUP1 DUP1 PUSH1 0x20 ADD DUP3 DUP2 SUB DUP3 MSTORE PUSH1 0x26 DUP2 MSTORE PUSH1 0x20 ADD DUP1 PUSH2 0x36C6 PUSH1 0x26 SWAP2 CODECOPY PUSH1 0x40 ADD SWAP2 POP POP PUSH1 0x40 MLOAD DUP1 SWAP2 SUB SWAP1 REVERT JUMPDEST PUSH1 0x65 SLOAD PUSH1 0x40 MLOAD PUSH1 0x1 PUSH1 0x1 PUSH1 0xA0 SHL SUB DUP1 DUP5 AND SWAP3 AND SWAP1 PUSH32 0x8BE0079C531659141344CD1FD0A4F28419497F9722A3DAAFE3B4186F6B6457E0 SWAP1 PUSH1 0x0 SWAP1 LOG3 PUSH1 0x65 DUP1 SLOAD PUSH1 0x1 PUSH1 0x1 PUSH1 0xA0 SHL SUB NOT AND PUSH1 0x1 PUSH1 0x1 PUSH1 0xA0 SHL SUB SWAP3 SWAP1 SWAP3 AND SWAP2 SWAP1 SWAP2 OR SWAP1 SSTORE JUMP JUMPDEST DUP4 PUSH2 0x1EAE DUP2 PUSH1 0x1 PUSH1 0x1 PUSH1 0xA0 SHL SUB AND PUSH2 0x1F4F JUMP JUMPDEST PUSH2 0x1EE9 JUMPI PUSH1 0x40 MLOAD PUSH3 0x461BCD PUSH1 0xE5 SHL DUP2 MSTORE PUSH1 0x4 ADD DUP1 DUP1 PUSH1 0x20 ADD DUP3 DUP2 SUB DUP3 MSTORE PUSH1 0x34 DUP2 MSTORE PUSH1 0x20 ADD DUP1 PUSH2 0x37F7 PUSH1 0x34 SWAP2 CODECOPY PUSH1 0x40 ADD SWAP2 POP POP PUSH1 0x40 MLOAD DUP1 SWAP2 SUB SWAP1 REVERT JUMPDEST DUP2 PUSH2 0x1EFC DUP2 PUSH1 0x1 PUSH1 0x1 PUSH1 0xA0 SHL SUB AND PUSH2 0x1F4F JUMP JUMPDEST PUSH2 0x1F37 JUMPI PUSH1 0x40 MLOAD PUSH3 0x461BCD PUSH1 0xE5 SHL DUP2 MSTORE PUSH1 0x4 ADD DUP1 DUP1 PUSH1 0x20 ADD DUP3 DUP2 SUB DUP3 MSTORE PUSH1 0x34 DUP2 MSTORE PUSH1 0x20 ADD DUP1 PUSH2 0x37F7 PUSH1 0x34 SWAP2 CODECOPY PUSH1 0x40 ADD SWAP2 POP POP PUSH1 0x40 MLOAD DUP1 SWAP2 SUB SWAP1 REVERT JUMPDEST PUSH2 0x1F43 DUP7 DUP7 DUP7 DUP7 PUSH2 0x2623 JUMP JUMPDEST POP POP POP POP POP POP JUMP JUMPDEST CALLER SWAP1 JUMP JUMPDEST PUSH1 0x0 DUP2 EXTCODEHASH PUSH32 0xC5D2460186F7233C927E7DB2DCC703C0E500B653CA82273B7BFAD8045D85A470 DUP2 DUP2 EQ DUP1 ISZERO SWAP1 PUSH2 0x1F83 JUMPI POP DUP2 ISZERO ISZERO JUMPDEST SWAP5 SWAP4 POP POP POP POP JUMP JUMPDEST PUSH1 0x0 DUP1 PUSH2 0x1F9F DUP4 PUSH1 0x2 PUSH4 0xFFFFFFFF PUSH2 0x239F AND JUMP JUMPDEST PUSH1 0xD0 SLOAD PUSH1 0xC9 SLOAD PUSH1 0x40 DUP1 MLOAD PUSH4 0x7524C56F PUSH1 0xE1 SHL DUP2 MSTORE PUSH1 0x1 PUSH1 0x4 DUP3 ADD MSTORE PUSH1 0x1 PUSH1 0x1 PUSH1 0xA0 SHL SUB SWAP3 DUP4 AND PUSH1 0x24 DUP3 ADD MSTORE SWAP1 MLOAD SWAP4 SWAP5 POP PUSH1 0x0 SWAP4 SWAP2 SWAP1 SWAP3 AND SWAP2 PUSH4 0xEA498ADE SWAP2 PUSH1 0x44 DUP1 DUP4 ADD SWAP3 DUP7 SWAP3 SWAP2 SWAP1 DUP3 SWAP1 SUB ADD DUP2 DUP7 DUP1 EXTCODESIZE ISZERO DUP1 ISZERO PUSH2 0x1FFB JUMPI PUSH1 0x0 DUP1 REVERT JUMPDEST POP GAS STATICCALL ISZERO DUP1 ISZERO PUSH2 0x200F JUMPI RETURNDATASIZE PUSH1 0x0 DUP1 RETURNDATACOPY RETURNDATASIZE PUSH1 0x0 REVERT JUMPDEST POP POP POP POP PUSH1 0x40 MLOAD RETURNDATASIZE PUSH1 0x0 DUP3 RETURNDATACOPY PUSH1 0x1F RETURNDATASIZE SWAP1 DUP2 ADD PUSH1 0x1F NOT AND DUP3 ADD PUSH1 0x40 MSTORE PUSH1 0x20 DUP2 LT ISZERO PUSH2 0x2038 JUMPI PUSH1 0x0 DUP1 REVERT JUMPDEST DUP2 ADD SWAP1 DUP1 DUP1 MLOAD PUSH1 0x40 MLOAD SWAP4 SWAP3 SWAP2 SWAP1 DUP5 PUSH1 0x1 PUSH1 0x20 SHL DUP3 GT ISZERO PUSH2 0x2057 JUMPI PUSH1 0x0 DUP1 REVERT JUMPDEST SWAP1 DUP4 ADD SWAP1 PUSH1 0x20 DUP3 ADD DUP6 DUP2 GT ISZERO PUSH2 0x206C JUMPI PUSH1 0x0 DUP1 REVERT JUMPDEST DUP3 MLOAD DUP7 PUSH1 0x20 DUP3 MUL DUP4 ADD GT PUSH1 0x1 PUSH1 0x20 SHL DUP3 GT OR ISZERO PUSH2 0x2088 JUMPI PUSH1 0x0 DUP1 REVERT JUMPDEST DUP3 MSTORE POP DUP2 MLOAD PUSH1 0x20 SWAP2 DUP3 ADD SWAP3 DUP3 ADD SWAP2 MUL DUP1 DUP4 DUP4 PUSH1 0x0 JUMPDEST DUP4 DUP2 LT ISZERO PUSH2 0x20B5 JUMPI DUP2 DUP2 ADD MLOAD DUP4 DUP3 ADD MSTORE PUSH1 0x20 ADD PUSH2 0x209D JUMP JUMPDEST POP POP POP POP SWAP1 POP ADD PUSH1 0x40 MSTORE POP POP POP PUSH1 0x0 DUP2 MLOAD DUP2 LT PUSH2 0x20CE JUMPI INVALID JUMPDEST PUSH1 0x20 MUL PUSH1 0x20 ADD ADD MLOAD SWAP1 POP PUSH1 0x0 PUSH2 0x2105 PUSH2 0x20F8 PUSH2 0x3E8 PUSH2 0x1270 PUSH1 0xD3 SLOAD DUP7 PUSH2 0x2346 SWAP1 SWAP2 SWAP1 PUSH4 0xFFFFFFFF AND JUMP JUMPDEST DUP4 SWAP1 PUSH4 0xFFFFFFFF PUSH2 0x23F7 AND JUMP JUMPDEST SWAP1 POP PUSH2 0xC26 DUP4 DUP3 PUSH4 0xFFFFFFFF PUSH2 0x2346 AND JUMP JUMPDEST PUSH1 0x0 DUP2 DUP2 MSTORE PUSH1 0xCF PUSH1 0x20 MSTORE PUSH1 0x40 DUP1 DUP3 KECCAK256 PUSH1 0x6 DUP2 ADD DUP1 SLOAD PUSH1 0xFF NOT AND SWAP1 SSTORE PUSH1 0x2 DUP2 ADD SLOAD PUSH1 0x3 DUP3 ADD SLOAD SWAP3 MLOAD SWAP2 SWAP4 SWAP3 PUSH1 0x1 PUSH1 0x1 PUSH1 0xA0 SHL SUB SWAP1 SWAP2 AND SWAP2 DUP4 DUP2 DUP2 DUP2 DUP6 DUP8 GAS CALL SWAP3 POP POP POP RETURNDATASIZE DUP1 PUSH1 0x0 DUP2 EQ PUSH2 0x2185 JUMPI PUSH1 0x40 MLOAD SWAP2 POP PUSH1 0x1F NOT PUSH1 0x3F RETURNDATASIZE ADD AND DUP3 ADD PUSH1 0x40 MSTORE RETURNDATASIZE DUP3 MSTORE RETURNDATASIZE PUSH1 0x0 PUSH1 0x20 DUP5 ADD RETURNDATACOPY PUSH2 0x218A JUMP JUMPDEST PUSH1 0x60 SWAP2 POP JUMPDEST POP POP SWAP1 POP DUP1 PUSH2 0x21E0 JUMPI PUSH1 0x40 DUP1 MLOAD PUSH3 0x461BCD PUSH1 0xE5 SHL DUP2 MSTORE PUSH1 0x20 PUSH1 0x4 DUP3 ADD DUP2 SWAP1 MSTORE PUSH1 0x24 DUP3 ADD MSTORE PUSH32 0x5B52656C656173655D204661696C656420746F207472616E7366657220455448 PUSH1 0x44 DUP3 ADD MSTORE SWAP1 MLOAD SWAP1 DUP2 SWAP1 SUB PUSH1 0x64 ADD SWAP1 REVERT JUMPDEST POP POP POP JUMP JUMPDEST PUSH1 0x0 DUP2 DUP2 MSTORE PUSH1 0xCF PUSH1 0x20 MSTORE PUSH1 0x40 SWAP1 KECCAK256 PUSH1 0x6 DUP2 ADD DUP1 SLOAD PUSH1 0xFF NOT AND SWAP1 SSTORE PUSH1 0x2 DUP2 ADD SLOAD PUSH1 0x3 DUP3 ADD SLOAD DUP3 SLOAD PUSH2 0x2223 SWAP3 PUSH1 0x1 PUSH1 0x1 PUSH1 0xA0 SHL SUB SWAP2 DUP3 AND SWAP3 SWAP2 AND SWAP1 PUSH2 0x26ED JUMP JUMPDEST POP POP JUMP JUMPDEST PUSH1 0x97 SLOAD PUSH1 0xFF AND PUSH2 0x2275 JUMPI PUSH1 0x40 DUP1 MLOAD PUSH3 0x461BCD PUSH1 0xE5 SHL DUP2 MSTORE PUSH1 0x20 PUSH1 0x4 DUP3 ADD MSTORE PUSH1 0x14 PUSH1 0x24 DUP3 ADD MSTORE PUSH20 0x14185D5CD8589B194E881B9BDD081C185D5CD959 PUSH1 0x62 SHL PUSH1 0x44 DUP3 ADD MSTORE SWAP1 MLOAD SWAP1 DUP2 SWAP1 SUB PUSH1 0x64 ADD SWAP1 REVERT JUMPDEST PUSH1 0x97 DUP1 SLOAD PUSH1 0xFF NOT AND SWAP1 SSTORE PUSH32 0x5DB9EE0A495BF2E6FF9C91A7834C1BA4FDD244A5E8AA4E537BD38AEAE4B073AA PUSH2 0x22A8 PUSH2 0x1F4B JUMP JUMPDEST PUSH1 0x40 DUP1 MLOAD PUSH1 0x1 PUSH1 0x1 PUSH1 0xA0 SHL SUB SWAP1 SWAP3 AND DUP3 MSTORE MLOAD SWAP1 DUP2 SWAP1 SUB PUSH1 0x20 ADD SWAP1 LOG1 JUMP JUMPDEST PUSH1 0x97 SLOAD PUSH1 0xFF AND ISZERO PUSH2 0x2310 JUMPI PUSH1 0x40 DUP1 MLOAD PUSH3 0x461BCD PUSH1 0xE5 SHL DUP2 MSTORE PUSH1 0x20 PUSH1 0x4 DUP3 ADD MSTORE PUSH1 0x10 PUSH1 0x24 DUP3 ADD MSTORE PUSH16 0x14185D5CD8589B194E881C185D5CD959 PUSH1 0x82 SHL PUSH1 0x44 DUP3 ADD MSTORE SWAP1 MLOAD SWAP1 DUP2 SWAP1 SUB PUSH1 0x64 ADD SWAP1 REVERT JUMPDEST PUSH1 0x97 DUP1 SLOAD PUSH1 0xFF NOT AND PUSH1 0x1 OR SWAP1 SSTORE PUSH32 0x62E78CEA01BEE320CD4E420270B5EA74000D11B0C9F74754EBDBFC544B05A258 PUSH2 0x22A8 PUSH2 0x1F4B JUMP JUMPDEST PUSH1 0x0 DUP3 PUSH2 0x2355 JUMPI POP PUSH1 0x0 PUSH2 0x12AC JUMP JUMPDEST DUP3 DUP3 MUL DUP3 DUP5 DUP3 DUP2 PUSH2 0x2362 JUMPI INVALID JUMPDEST DIV EQ PUSH2 0xEB1 JUMPI PUSH1 0x40 MLOAD PUSH3 0x461BCD PUSH1 0xE5 SHL DUP2 MSTORE PUSH1 0x4 ADD DUP1 DUP1 PUSH1 0x20 ADD DUP3 DUP2 SUB DUP3 MSTORE PUSH1 0x21 DUP2 MSTORE PUSH1 0x20 ADD DUP1 PUSH2 0x3856 PUSH1 0x21 SWAP2 CODECOPY PUSH1 0x40 ADD SWAP2 POP POP PUSH1 0x40 MLOAD DUP1 SWAP2 SUB SWAP1 REVERT JUMPDEST PUSH1 0x0 PUSH2 0xEB1 DUP4 DUP4 PUSH1 0x40 MLOAD DUP1 PUSH1 0x40 ADD PUSH1 0x40 MSTORE DUP1 PUSH1 0x1A DUP2 MSTORE PUSH1 0x20 ADD PUSH32 0x536166654D6174683A206469766973696F6E206279207A65726F000000000000 DUP2 MSTORE POP PUSH2 0x273F JUMP JUMPDEST PUSH1 0x0 DUP2 DUP4 LT PUSH2 0x23F0 JUMPI DUP2 PUSH2 0xEB1 JUMP JUMPDEST POP SWAP1 SWAP2 SWAP1 POP JUMP JUMPDEST PUSH1 0x0 PUSH2 0xEB1 DUP4 DUP4 PUSH1 0x40 MLOAD DUP1 PUSH1 0x40 ADD PUSH1 0x40 MSTORE DUP1 PUSH1 0x1E DUP2 MSTORE PUSH1 0x20 ADD PUSH32 0x536166654D6174683A207375627472616374696F6E206F766572666C6F770000 DUP2 MSTORE POP PUSH2 0x27E1 JUMP JUMPDEST PUSH1 0x0 DUP1 DUP9 GT PUSH2 0x2479 JUMPI PUSH1 0x40 MLOAD PUSH3 0x461BCD PUSH1 0xE5 SHL DUP2 MSTORE PUSH1 0x4 ADD DUP1 DUP1 PUSH1 0x20 ADD DUP3 DUP2 SUB DUP3 MSTORE PUSH1 0x2F DUP2 MSTORE PUSH1 0x20 ADD DUP1 PUSH2 0x3877 PUSH1 0x2F SWAP2 CODECOPY PUSH1 0x40 ADD SWAP2 POP POP PUSH1 0x40 MLOAD DUP1 SWAP2 SUB SWAP1 REVERT JUMPDEST PUSH2 0x2482 DUP10 PUSH2 0xC2F JUMP JUMPDEST PUSH2 0x24C5 JUMPI PUSH1 0x0 DUP5 GT PUSH2 0x24C5 JUMPI PUSH1 0x40 MLOAD PUSH3 0x461BCD PUSH1 0xE5 SHL DUP2 MSTORE PUSH1 0x4 ADD DUP1 DUP1 PUSH1 0x20 ADD DUP3 DUP2 SUB DUP3 MSTORE PUSH1 0x2C DUP2 MSTORE PUSH1 0x20 ADD DUP1 PUSH2 0x3955 PUSH1 0x2C SWAP2 CODECOPY PUSH1 0x40 ADD SWAP2 POP POP PUSH1 0x40 MLOAD DUP1 SWAP2 SUB SWAP1 REVERT JUMPDEST PUSH1 0x1 PUSH1 0x1 PUSH1 0xA0 SHL SUB DUP7 AND PUSH2 0x250A JUMPI PUSH1 0x40 MLOAD PUSH3 0x461BCD PUSH1 0xE5 SHL DUP2 MSTORE PUSH1 0x4 ADD DUP1 DUP1 PUSH1 0x20 ADD DUP3 DUP2 SUB DUP3 MSTORE PUSH1 0x28 DUP2 MSTORE PUSH1 0x20 ADD DUP1 PUSH2 0x392D PUSH1 0x28 SWAP2 CODECOPY PUSH1 0x40 ADD SWAP2 POP POP PUSH1 0x40 MLOAD DUP1 SWAP2 SUB SWAP1 REVERT JUMPDEST DUP5 PUSH20 0xEEEEEEEEEEEEEEEEEEEEEEEEEEEEEEEEEEEEEEEE PUSH1 0x1 PUSH1 0x1 PUSH1 0xA0 SHL SUB DUP12 AND EQ ISZERO PUSH2 0x2583 JUMPI PUSH2 0x253E DUP10 DUP7 DUP11 DUP11 DUP11 DUP10 PUSH2 0x283B JUMP JUMPDEST DUP4 ISZERO PUSH2 0x255B JUMPI PUSH2 0x2554 DUP2 DUP11 PUSH4 0xFFFFFFFF PUSH2 0x23F7 AND JUMP JUMPDEST SWAP1 POP PUSH2 0x257E JUMP JUMPDEST PUSH2 0x257B DUP6 PUSH2 0x256F DUP4 DUP13 PUSH4 0xFFFFFFFF PUSH2 0x23F7 AND JUMP JUMPDEST SWAP1 PUSH4 0xFFFFFFFF PUSH2 0x23F7 AND JUMP JUMPDEST SWAP1 POP JUMPDEST PUSH2 0x25AB JUMP JUMPDEST PUSH2 0x2593 DUP11 DUP11 DUP8 DUP12 DUP12 DUP12 DUP11 DUP11 PUSH2 0x2BBF JUMP JUMPDEST DUP4 PUSH2 0x25AB JUMPI PUSH2 0x25A8 DUP2 DUP7 PUSH4 0xFFFFFFFF PUSH2 0x23F7 AND JUMP JUMPDEST SWAP1 POP JUMPDEST PUSH1 0xCC SLOAD PUSH1 0x40 DUP1 MLOAD SWAP2 DUP3 MSTORE PUSH1 0x20 DUP3 ADD DUP12 SWAP1 MSTORE DUP2 DUP2 ADD DUP11 SWAP1 MSTORE PUSH1 0x60 DUP3 ADD DUP8 SWAP1 MSTORE DUP6 ISZERO ISZERO PUSH1 0x80 DUP4 ADD MSTORE DUP5 ISZERO ISZERO PUSH1 0xA0 DUP4 ADD MSTORE MLOAD PUSH1 0x1 PUSH1 0x1 PUSH1 0xA0 SHL SUB DUP1 DUP11 AND SWAP3 CALLER SWAP3 SWAP2 DUP15 AND SWAP2 PUSH32 0x211830A7F3F5F8B96BE451168334F4A75F9F11A9C0A857C7E0C3592E07F88104 SWAP2 DUP2 SWAP1 SUB PUSH1 0xC0 ADD SWAP1 LOG4 SWAP10 SWAP9 POP POP POP POP POP POP POP POP POP JUMP JUMPDEST PUSH1 0x0 SLOAD PUSH2 0x100 SWAP1 DIV PUSH1 0xFF AND DUP1 PUSH2 0x263C JUMPI POP PUSH2 0x263C PUSH2 0x2F47 JUMP JUMPDEST DUP1 PUSH2 0x264A JUMPI POP PUSH1 0x0 SLOAD PUSH1 0xFF AND ISZERO JUMPDEST PUSH2 0x2685 JUMPI PUSH1 0x40 MLOAD PUSH3 0x461BCD PUSH1 0xE5 SHL DUP2 MSTORE PUSH1 0x4 ADD DUP1 DUP1 PUSH1 0x20 ADD DUP3 DUP2 SUB DUP3 MSTORE PUSH1 0x2E DUP2 MSTORE PUSH1 0x20 ADD DUP1 PUSH2 0x38C6 PUSH1 0x2E SWAP2 CODECOPY PUSH1 0x40 ADD SWAP2 POP POP PUSH1 0x40 MLOAD DUP1 SWAP2 SUB SWAP1 REVERT JUMPDEST PUSH1 0x0 SLOAD PUSH2 0x100 SWAP1 DIV PUSH1 0xFF AND ISZERO DUP1 ISZERO PUSH2 0x26B0 JUMPI PUSH1 0x0 DUP1 SLOAD PUSH1 0xFF NOT PUSH2 0xFF00 NOT SWAP1 SWAP2 AND PUSH2 0x100 OR AND PUSH1 0x1 OR SWAP1 SSTORE JUMPDEST PUSH2 0x26B8 PUSH2 0x2F4D JUMP JUMPDEST PUSH2 0x26C0 PUSH2 0x2FEF JUMP JUMPDEST PUSH2 0x26C8 PUSH2 0x30E8 JUMP JUMPDEST PUSH2 0x26D4 DUP6 DUP6 DUP6 DUP6 PUSH2 0x3193 JUMP JUMPDEST DUP1 ISZERO PUSH2 0x26E6 JUMPI PUSH1 0x0 DUP1 SLOAD PUSH2 0xFF00 NOT AND SWAP1 SSTORE JUMPDEST POP POP POP POP POP JUMP JUMPDEST PUSH1 0x40 DUP1 MLOAD PUSH1 0x1 PUSH1 0x1 PUSH1 0xA0 SHL SUB DUP5 AND PUSH1 0x24 DUP3 ADD MSTORE PUSH1 0x44 DUP1 DUP3 ADD DUP5 SWAP1 MSTORE DUP3 MLOAD DUP1 DUP4 SUB SWAP1 SWAP2 ADD DUP2 MSTORE PUSH1 0x64 SWAP1 SWAP2 ADD SWAP1 SWAP2 MSTORE PUSH1 0x20 DUP2 ADD DUP1 MLOAD PUSH1 0x1 PUSH1 0x1 PUSH1 0xE0 SHL SUB AND PUSH4 0xA9059CBB PUSH1 0xE0 SHL OR SWAP1 MSTORE PUSH2 0x21E0 SWAP1 DUP5 SWAP1 PUSH2 0x331B JUMP JUMPDEST PUSH1 0x0 DUP2 DUP4 PUSH2 0x27CB JUMPI PUSH1 0x40 MLOAD PUSH3 0x461BCD PUSH1 0xE5 SHL DUP2 MSTORE PUSH1 0x4 ADD DUP1 DUP1 PUSH1 0x20 ADD DUP3 DUP2 SUB DUP3 MSTORE DUP4 DUP2 DUP2 MLOAD DUP2 MSTORE PUSH1 0x20 ADD SWAP2 POP DUP1 MLOAD SWAP1 PUSH1 0x20 ADD SWAP1 DUP1 DUP4 DUP4 PUSH1 0x0 JUMPDEST DUP4 DUP2 LT ISZERO PUSH2 0x2790 JUMPI DUP2 DUP2 ADD MLOAD DUP4 DUP3 ADD MSTORE PUSH1 0x20 ADD PUSH2 0x2778 JUMP JUMPDEST POP POP POP POP SWAP1 POP SWAP1 DUP2 ADD SWAP1 PUSH1 0x1F AND DUP1 ISZERO PUSH2 0x27BD JUMPI DUP1 DUP3 SUB DUP1 MLOAD PUSH1 0x1 DUP4 PUSH1 0x20 SUB PUSH2 0x100 EXP SUB NOT AND DUP2 MSTORE PUSH1 0x20 ADD SWAP2 POP JUMPDEST POP SWAP3 POP POP POP PUSH1 0x40 MLOAD DUP1 SWAP2 SUB SWAP1 REVERT JUMPDEST POP PUSH1 0x0 DUP4 DUP6 DUP2 PUSH2 0x27D7 JUMPI INVALID JUMPDEST DIV SWAP6 SWAP5 POP POP POP POP POP JUMP JUMPDEST PUSH1 0x0 DUP2 DUP5 DUP5 GT ISZERO PUSH2 0x2833 JUMPI PUSH1 0x40 MLOAD PUSH3 0x461BCD PUSH1 0xE5 SHL DUP2 MSTORE PUSH1 0x20 PUSH1 0x4 DUP3 ADD DUP2 DUP2 MSTORE DUP4 MLOAD PUSH1 0x24 DUP5 ADD MSTORE DUP4 MLOAD SWAP1 SWAP3 DUP4 SWAP3 PUSH1 0x44 SWAP1 SWAP2 ADD SWAP2 SWAP1 DUP6 ADD SWAP1 DUP1 DUP4 DUP4 PUSH1 0x0 DUP4 ISZERO PUSH2 0x2790 JUMPI DUP2 DUP2 ADD MLOAD DUP4 DUP3 ADD MSTORE PUSH1 0x20 ADD PUSH2 0x2778 JUMP JUMPDEST POP POP POP SWAP1 SUB SWAP1 JUMP JUMPDEST DUP1 ISZERO PUSH2 0x292A JUMPI DUP6 DUP3 LT ISZERO PUSH2 0x2896 JUMPI PUSH1 0x40 DUP1 MLOAD PUSH3 0x461BCD PUSH1 0xE5 SHL DUP2 MSTORE PUSH1 0x20 PUSH1 0x4 DUP3 ADD DUP2 SWAP1 MSTORE PUSH1 0x24 DUP3 ADD MSTORE PUSH32 0x5B56616C69646174696F6E5D20456E6F75676820455448206E6F742073656E74 PUSH1 0x44 DUP3 ADD MSTORE SWAP1 MLOAD SWAP1 DUP2 SWAP1 SUB PUSH1 0x64 ADD SWAP1 REVERT JUMPDEST PUSH1 0x0 PUSH2 0x28A1 DUP8 PUSH2 0xE9A JUMP JUMPDEST SWAP1 POP PUSH1 0x0 DUP2 DUP8 LT ISZERO PUSH2 0x291A JUMPI PUSH2 0x28BD DUP3 DUP9 PUSH4 0xFFFFFFFF PUSH2 0x23F7 AND JUMP JUMPDEST SWAP1 POP PUSH1 0x0 PUSH2 0x28D6 DUP4 PUSH2 0x1270 DUP5 PUSH1 0x64 PUSH4 0xFFFFFFFF PUSH2 0x2346 AND JUMP JUMPDEST SWAP1 POP PUSH1 0xD2 SLOAD DUP2 LT PUSH2 0x2918 JUMPI PUSH1 0x40 MLOAD PUSH3 0x461BCD PUSH1 0xE5 SHL DUP2 MSTORE PUSH1 0x4 ADD DUP1 DUP1 PUSH1 0x20 ADD DUP3 DUP2 SUB DUP3 MSTORE PUSH1 0x35 DUP2 MSTORE PUSH1 0x20 ADD DUP1 PUSH2 0x3795 PUSH1 0x35 SWAP2 CODECOPY PUSH1 0x40 ADD SWAP2 POP POP PUSH1 0x40 MLOAD DUP1 SWAP2 SUB SWAP1 REVERT JUMPDEST POP JUMPDEST PUSH2 0x2923 DUP3 PUSH2 0x34D9 JUMP JUMPDEST POP POP PUSH2 0x2A6F JUMP JUMPDEST PUSH1 0x0 PUSH2 0x2935 DUP8 PUSH2 0x162F JUMP JUMPDEST SWAP1 POP DUP1 DUP7 LT ISZERO PUSH2 0x2976 JUMPI PUSH1 0x40 MLOAD PUSH3 0x461BCD PUSH1 0xE5 SHL DUP2 MSTORE PUSH1 0x4 ADD DUP1 DUP1 PUSH1 0x20 ADD DUP3 DUP2 SUB DUP3 MSTORE PUSH1 0x34 DUP2 MSTORE PUSH1 0x20 ADD DUP1 PUSH2 0x36EC PUSH1 0x34 SWAP2 CODECOPY PUSH1 0x40 ADD SWAP2 POP POP PUSH1 0x40 MLOAD DUP1 SWAP2 SUB SWAP1 REVERT JUMPDEST PUSH2 0x2986 DUP8 DUP3 PUSH4 0xFFFFFFFF PUSH2 0x35D7 AND JUMP JUMPDEST DUP4 LT ISZERO PUSH2 0x29DA JUMPI PUSH1 0x40 DUP1 MLOAD PUSH3 0x461BCD PUSH1 0xE5 SHL DUP2 MSTORE PUSH1 0x20 PUSH1 0x4 DUP3 ADD DUP2 SWAP1 MSTORE PUSH1 0x24 DUP3 ADD MSTORE PUSH32 0x5B56616C69646174696F6E5D20456E6F75676820455448206E6F742073656E74 PUSH1 0x44 DUP3 ADD MSTORE SWAP1 MLOAD SWAP1 DUP2 SWAP1 SUB PUSH1 0x64 ADD SWAP1 REVERT JUMPDEST PUSH1 0xCA SLOAD PUSH1 0x40 MLOAD PUSH1 0x0 SWAP2 PUSH1 0x1 PUSH1 0x1 PUSH1 0xA0 SHL SUB AND SWAP1 DUP4 SWAP1 DUP4 DUP2 DUP2 DUP2 DUP6 DUP8 GAS CALL SWAP3 POP POP POP RETURNDATASIZE DUP1 PUSH1 0x0 DUP2 EQ PUSH2 0x2A27 JUMPI PUSH1 0x40 MLOAD SWAP2 POP PUSH1 0x1F NOT PUSH1 0x3F RETURNDATASIZE ADD AND DUP3 ADD PUSH1 0x40 MSTORE RETURNDATASIZE DUP3 MSTORE RETURNDATASIZE PUSH1 0x0 PUSH1 0x20 DUP5 ADD RETURNDATACOPY PUSH2 0x2A2C JUMP JUMPDEST PUSH1 0x60 SWAP2 POP JUMPDEST POP POP SWAP1 POP DUP1 PUSH2 0x2A6C JUMPI PUSH1 0x40 MLOAD PUSH3 0x461BCD PUSH1 0xE5 SHL DUP2 MSTORE PUSH1 0x4 ADD DUP1 DUP1 PUSH1 0x20 ADD DUP3 DUP2 SUB DUP3 MSTORE PUSH1 0x23 DUP2 MSTORE PUSH1 0x20 ADD DUP1 PUSH2 0x374A PUSH1 0x23 SWAP2 CODECOPY PUSH1 0x40 ADD SWAP2 POP POP PUSH1 0x40 MLOAD DUP1 SWAP2 SUB SWAP1 REVERT JUMPDEST POP POP JUMPDEST PUSH1 0xCC SLOAD PUSH2 0x2A83 SWAP1 PUSH1 0x1 PUSH4 0xFFFFFFFF PUSH2 0x35D7 AND JUMP JUMPDEST PUSH1 0xCC DUP2 SWAP1 SSTORE PUSH1 0x40 DUP1 MLOAD PUSH1 0xE0 DUP2 ADD DUP3 MSTORE PUSH20 0xEEEEEEEEEEEEEEEEEEEEEEEEEEEEEEEEEEEEEEEE DUP2 MSTORE CALLER PUSH1 0x20 DUP1 DUP4 ADD SWAP2 DUP3 MSTORE PUSH1 0x1 PUSH1 0x1 PUSH1 0xA0 SHL SUB DUP9 DUP2 AND DUP5 DUP7 ADD SWAP1 DUP2 MSTORE PUSH1 0x60 DUP6 ADD DUP14 DUP2 MSTORE PUSH1 0x80 DUP7 ADD DUP13 DUP2 MSTORE TIMESTAMP PUSH1 0xA0 DUP9 ADD SWAP1 DUP2 MSTORE PUSH1 0x1 PUSH1 0xC0 DUP10 ADD DUP2 DUP2 MSTORE PUSH1 0x0 SWAP12 DUP13 MSTORE PUSH1 0xCF SWAP1 SWAP8 MSTORE SWAP9 SWAP1 SWAP10 KECCAK256 DUP8 MLOAD DUP2 SLOAD SWAP1 DUP7 AND PUSH1 0x1 PUSH1 0x1 PUSH1 0xA0 SHL SUB NOT SWAP2 DUP3 AND OR DUP3 SSTORE SWAP7 MLOAD DUP2 DUP11 ADD DUP1 SLOAD SWAP2 DUP8 AND SWAP2 DUP10 AND SWAP2 SWAP1 SWAP2 OR SWAP1 SSTORE SWAP3 MLOAD PUSH1 0x2 DUP5 ADD DUP1 SLOAD SWAP2 SWAP1 SWAP6 AND SWAP7 AND SWAP6 SWAP1 SWAP6 OR SWAP1 SWAP3 SSTORE SWAP1 MLOAD PUSH1 0x3 DUP3 ADD SSTORE SWAP2 MLOAD PUSH1 0x4 DUP4 ADD SSTORE SWAP4 MLOAD PUSH1 0x5 DUP3 ADD SSTORE SWAP3 MLOAD PUSH1 0x6 DUP5 ADD DUP1 SLOAD SWAP3 SWAP5 SWAP4 SWAP2 SWAP3 SWAP1 SWAP2 PUSH1 0xFF NOT SWAP1 SWAP2 AND SWAP1 DUP4 DUP2 DUP2 GT ISZERO PUSH2 0x2B64 JUMPI INVALID JUMPDEST MUL OR SWAP1 SSTORE POP POP POP PUSH1 0x1 PUSH1 0x1 PUSH1 0xA0 SHL SUB SWAP1 SWAP3 AND PUSH1 0x0 SWAP1 DUP2 MSTORE PUSH1 0xCD PUSH1 0x20 SWAP1 DUP2 MSTORE PUSH1 0x40 DUP1 DUP4 KECCAK256 PUSH1 0xCC DUP1 SLOAD DUP3 SLOAD PUSH1 0x1 DUP2 DUP2 ADD DUP6 SSTORE SWAP4 DUP8 MSTORE DUP6 DUP8 KECCAK256 ADD SSTORE CALLER DUP6 MSTORE PUSH1 0xCE DUP5 MSTORE SWAP2 DUP5 KECCAK256 SWAP2 SLOAD DUP3 SLOAD SWAP2 DUP3 ADD DUP4 SSTORE SWAP2 DUP5 MSTORE SWAP2 SWAP1 SWAP3 KECCAK256 ADD SSTORE POP POP POP POP POP JUMP JUMPDEST DUP8 PUSH2 0x2BD2 DUP2 PUSH1 0x1 PUSH1 0x1 PUSH1 0xA0 SHL SUB AND PUSH2 0x1F4F JUMP JUMPDEST PUSH2 0x2C0D JUMPI PUSH1 0x40 MLOAD PUSH3 0x461BCD PUSH1 0xE5 SHL DUP2 MSTORE PUSH1 0x4 ADD DUP1 DUP1 PUSH1 0x20 ADD DUP3 DUP2 SUB DUP3 MSTORE PUSH1 0x34 DUP2 MSTORE PUSH1 0x20 ADD DUP1 PUSH2 0x37F7 PUSH1 0x34 SWAP2 CODECOPY PUSH1 0x40 ADD SWAP2 POP POP PUSH1 0x40 MLOAD DUP1 SWAP2 SUB SWAP1 REVERT JUMPDEST PUSH2 0x2C16 DUP10 PUSH2 0xC2F JUMP JUMPDEST PUSH2 0x2DEB JUMPI DUP3 ISZERO PUSH2 0x2CB6 JUMPI PUSH1 0x0 PUSH2 0x2C2D DUP10 DUP12 DUP6 PUSH2 0xBFA JUMP JUMPDEST SWAP1 POP PUSH1 0x0 DUP2 DUP10 LT ISZERO PUSH2 0x2CA6 JUMPI PUSH2 0x2C49 DUP3 DUP11 PUSH4 0xFFFFFFFF PUSH2 0x23F7 AND JUMP JUMPDEST SWAP1 POP PUSH1 0x0 PUSH2 0x2C62 DUP4 PUSH2 0x1270 DUP5 PUSH1 0x64 PUSH4 0xFFFFFFFF PUSH2 0x2346 AND JUMP JUMPDEST SWAP1 POP PUSH1 0xD2 SLOAD DUP2 LT PUSH2 0x2CA4 JUMPI PUSH1 0x40 MLOAD PUSH3 0x461BCD PUSH1 0xE5 SHL DUP2 MSTORE PUSH1 0x4 ADD DUP1 DUP1 PUSH1 0x20 ADD DUP3 DUP2 SUB DUP3 MSTORE PUSH1 0x35 DUP2 MSTORE PUSH1 0x20 ADD DUP1 PUSH2 0x3795 PUSH1 0x35 SWAP2 CODECOPY PUSH1 0x40 ADD SWAP2 POP POP PUSH1 0x40 MLOAD DUP1 SWAP2 SUB SWAP1 REVERT JUMPDEST POP JUMPDEST PUSH2 0x2CAF DUP3 PUSH2 0x34D9 JUMP JUMPDEST POP POP PUSH2 0x2DEB JUMP JUMPDEST PUSH1 0x0 DUP3 PUSH2 0x2CCC JUMPI PUSH2 0x2CC7 DUP10 DUP12 PUSH2 0x164E JUMP JUMPDEST PUSH2 0x2CD6 JUMP JUMPDEST PUSH2 0x2CD6 DUP10 DUP12 PUSH2 0x11C8 JUMP JUMPDEST SWAP1 POP DUP1 DUP9 LT ISZERO PUSH2 0x2D17 JUMPI PUSH1 0x40 MLOAD PUSH3 0x461BCD PUSH1 0xE5 SHL DUP2 MSTORE PUSH1 0x4 ADD DUP1 DUP1 PUSH1 0x20 ADD DUP3 DUP2 SUB DUP3 MSTORE PUSH1 0x34 DUP2 MSTORE PUSH1 0x20 ADD DUP1 PUSH2 0x36EC PUSH1 0x34 SWAP2 CODECOPY PUSH1 0x40 ADD SWAP2 POP POP PUSH1 0x40 MLOAD DUP1 SWAP2 SUB SWAP1 REVERT JUMPDEST DUP1 DUP6 LT ISZERO PUSH2 0x2D56 JUMPI PUSH1 0x40 MLOAD PUSH3 0x461BCD PUSH1 0xE5 SHL DUP2 MSTORE PUSH1 0x4 ADD DUP1 DUP1 PUSH1 0x20 ADD DUP3 DUP2 SUB DUP3 MSTORE PUSH1 0x39 DUP2 MSTORE PUSH1 0x20 ADD DUP1 PUSH2 0x38F4 PUSH1 0x39 SWAP2 CODECOPY PUSH1 0x40 ADD SWAP2 POP POP PUSH1 0x40 MLOAD DUP1 SWAP2 SUB SWAP1 REVERT JUMPDEST PUSH1 0xCA SLOAD PUSH1 0x40 MLOAD PUSH1 0x0 SWAP2 PUSH1 0x1 PUSH1 0x1 PUSH1 0xA0 SHL SUB AND SWAP1 DUP4 SWAP1 DUP4 DUP2 DUP2 DUP2 DUP6 DUP8 GAS CALL SWAP3 POP POP POP RETURNDATASIZE DUP1 PUSH1 0x0 DUP2 EQ PUSH2 0x2DA3 JUMPI PUSH1 0x40 MLOAD SWAP2 POP PUSH1 0x1F NOT PUSH1 0x3F RETURNDATASIZE ADD AND DUP3 ADD PUSH1 0x40 MSTORE RETURNDATASIZE DUP3 MSTORE RETURNDATASIZE PUSH1 0x0 PUSH1 0x20 DUP5 ADD RETURNDATACOPY PUSH2 0x2DA8 JUMP JUMPDEST PUSH1 0x60 SWAP2 POP JUMPDEST POP POP SWAP1 POP DUP1 PUSH2 0x2DE8 JUMPI PUSH1 0x40 MLOAD PUSH3 0x461BCD PUSH1 0xE5 SHL DUP2 MSTORE PUSH1 0x4 ADD DUP1 DUP1 PUSH1 0x20 ADD DUP3 DUP2 SUB DUP3 MSTORE PUSH1 0x23 DUP2 MSTORE PUSH1 0x20 ADD DUP1 PUSH2 0x374A PUSH1 0x23 SWAP2 CODECOPY PUSH1 0x40 ADD SWAP2 POP POP PUSH1 0x40 MLOAD DUP1 SWAP2 SUB SWAP1 REVERT JUMPDEST POP POP JUMPDEST PUSH2 0x2E06 PUSH1 0x1 PUSH1 0x1 PUSH1 0xA0 SHL SUB DUP11 AND CALLER ADDRESS DUP12 PUSH4 0xFFFFFFFF PUSH2 0x3631 AND JUMP JUMPDEST PUSH1 0xCC SLOAD PUSH2 0x2E1A SWAP1 PUSH1 0x1 PUSH4 0xFFFFFFFF PUSH2 0x35D7 AND JUMP JUMPDEST PUSH1 0xCC DUP2 SWAP1 SSTORE PUSH1 0x40 DUP1 MLOAD PUSH1 0xE0 DUP2 ADD DUP3 MSTORE PUSH1 0x1 PUSH1 0x1 PUSH1 0xA0 SHL SUB DUP13 DUP2 AND DUP3 MSTORE CALLER PUSH1 0x20 DUP1 DUP5 ADD SWAP2 DUP3 MSTORE DUP11 DUP4 AND DUP5 DUP7 ADD SWAP1 DUP2 MSTORE PUSH1 0x60 DUP6 ADD DUP16 DUP2 MSTORE PUSH1 0x80 DUP7 ADD DUP15 DUP2 MSTORE TIMESTAMP PUSH1 0xA0 DUP9 ADD SWAP1 DUP2 MSTORE PUSH1 0x1 PUSH1 0xC0 DUP10 ADD DUP2 DUP2 MSTORE PUSH1 0x0 SWAP12 DUP13 MSTORE PUSH1 0xCF SWAP1 SWAP7 MSTORE SWAP9 SWAP1 SWAP10 KECCAK256 DUP8 MLOAD DUP2 SLOAD SWAP1 DUP9 AND PUSH1 0x1 PUSH1 0x1 PUSH1 0xA0 SHL SUB NOT SWAP2 DUP3 AND OR DUP3 SSTORE SWAP6 MLOAD DUP2 DUP11 ADD DUP1 SLOAD SWAP2 DUP10 AND SWAP2 DUP9 AND SWAP2 SWAP1 SWAP2 OR SWAP1 SSTORE SWAP3 MLOAD PUSH1 0x2 DUP5 ADD DUP1 SLOAD SWAP2 SWAP1 SWAP8 AND SWAP6 AND SWAP5 SWAP1 SWAP5 OR SWAP1 SWAP5 SSTORE SWAP3 MLOAD PUSH1 0x3 DUP5 ADD SSTORE SWAP1 MLOAD PUSH1 0x4 DUP4 ADD SSTORE SWAP4 MLOAD PUSH1 0x5 DUP3 ADD SSTORE SWAP3 MLOAD PUSH1 0x6 DUP5 ADD DUP1 SLOAD SWAP3 SWAP5 SWAP4 SWAP2 SWAP3 SWAP1 SWAP2 PUSH1 0xFF NOT SWAP1 SWAP2 AND SWAP1 DUP4 DUP2 DUP2 GT ISZERO PUSH2 0x2EE9 JUMPI INVALID JUMPDEST MUL OR SWAP1 SSTORE POP POP POP PUSH1 0x1 PUSH1 0x1 PUSH1 0xA0 SHL SUB SWAP1 SWAP5 AND PUSH1 0x0 SWAP1 DUP2 MSTORE PUSH1 0xCD PUSH1 0x20 SWAP1 DUP2 MSTORE PUSH1 0x40 DUP1 DUP4 KECCAK256 PUSH1 0xCC DUP1 SLOAD DUP3 SLOAD PUSH1 0x1 DUP2 DUP2 ADD DUP6 SSTORE SWAP4 DUP8 MSTORE DUP6 DUP8 KECCAK256 ADD SSTORE CALLER DUP6 MSTORE PUSH1 0xCE DUP5 MSTORE SWAP2 DUP5 KECCAK256 SWAP2 SLOAD DUP3 SLOAD SWAP2 DUP3 ADD DUP4 SSTORE SWAP2 DUP5 MSTORE SWAP2 SWAP1 SWAP3 KECCAK256 ADD SSTORE POP POP POP POP POP POP POP POP JUMP JUMPDEST ADDRESS EXTCODESIZE ISZERO SWAP1 JUMP JUMPDEST PUSH1 0x0 SLOAD PUSH2 0x100 SWAP1 DIV PUSH1 0xFF AND DUP1 PUSH2 0x2F66 JUMPI POP PUSH2 0x2F66 PUSH2 0x2F47 JUMP JUMPDEST DUP1 PUSH2 0x2F74 JUMPI POP PUSH1 0x0 SLOAD PUSH1 0xFF AND ISZERO JUMPDEST PUSH2 0x2FAF JUMPI PUSH1 0x40 MLOAD PUSH3 0x461BCD PUSH1 0xE5 SHL DUP2 MSTORE PUSH1 0x4 ADD DUP1 DUP1 PUSH1 0x20 ADD DUP3 DUP2 SUB DUP3 MSTORE PUSH1 0x2E DUP2 MSTORE PUSH1 0x20 ADD DUP1 PUSH2 0x38C6 PUSH1 0x2E SWAP2 CODECOPY PUSH1 0x40 ADD SWAP2 POP POP PUSH1 0x40 MLOAD DUP1 SWAP2 SUB SWAP1 REVERT JUMPDEST PUSH1 0x0 SLOAD PUSH2 0x100 SWAP1 DIV PUSH1 0xFF AND ISZERO DUP1 ISZERO PUSH2 0x2FDA JUMPI PUSH1 0x0 DUP1 SLOAD PUSH1 0xFF NOT PUSH2 0xFF00 NOT SWAP1 SWAP2 AND PUSH2 0x100 OR AND PUSH1 0x1 OR SWAP1 SSTORE JUMPDEST DUP1 ISZERO PUSH2 0x2FEC JUMPI PUSH1 0x0 DUP1 SLOAD PUSH2 0xFF00 NOT AND SWAP1 SSTORE JUMPDEST POP JUMP JUMPDEST PUSH1 0x0 SLOAD PUSH2 0x100 SWAP1 DIV PUSH1 0xFF AND DUP1 PUSH2 0x3008 JUMPI POP PUSH2 0x3008 PUSH2 0x2F47 JUMP JUMPDEST DUP1 PUSH2 0x3016 JUMPI POP PUSH1 0x0 SLOAD PUSH1 0xFF AND ISZERO JUMPDEST PUSH2 0x3051 JUMPI PUSH1 0x40 MLOAD PUSH3 0x461BCD PUSH1 0xE5 SHL DUP2 MSTORE PUSH1 0x4 ADD DUP1 DUP1 PUSH1 0x20 ADD DUP3 DUP2 SUB DUP3 MSTORE PUSH1 0x2E DUP2 MSTORE PUSH1 0x20 ADD DUP1 PUSH2 0x38C6 PUSH1 0x2E SWAP2 CODECOPY PUSH1 0x40 ADD SWAP2 POP POP PUSH1 0x40 MLOAD DUP1 SWAP2 SUB SWAP1 REVERT JUMPDEST PUSH1 0x0 SLOAD PUSH2 0x100 SWAP1 DIV PUSH1 0xFF AND ISZERO DUP1 ISZERO PUSH2 0x307C JUMPI PUSH1 0x0 DUP1 SLOAD PUSH1 0xFF NOT PUSH2 0xFF00 NOT SWAP1 SWAP2 AND PUSH2 0x100 OR AND PUSH1 0x1 OR SWAP1 SSTORE JUMPDEST PUSH1 0x0 PUSH2 0x3086 PUSH2 0x1F4B JUMP JUMPDEST PUSH1 0x65 DUP1 SLOAD PUSH1 0x1 PUSH1 0x1 PUSH1 0xA0 SHL SUB NOT AND PUSH1 0x1 PUSH1 0x1 PUSH1 0xA0 SHL SUB DUP4 AND SWAP1 DUP2 OR SWAP1 SWAP2 SSTORE PUSH1 0x40 MLOAD SWAP2 SWAP3 POP SWAP1 PUSH1 0x0 SWAP1 PUSH32 0x8BE0079C531659141344CD1FD0A4F28419497F9722A3DAAFE3B4186F6B6457E0 SWAP1 DUP3 SWAP1 LOG3 POP DUP1 ISZERO PUSH2 0x2FEC JUMPI PUSH1 0x0 DUP1 SLOAD PUSH2 0xFF00 NOT AND SWAP1 SSTORE POP JUMP JUMPDEST PUSH1 0x0 SLOAD PUSH2 0x100 SWAP1 DIV PUSH1 0xFF AND DUP1 PUSH2 0x3101 JUMPI POP PUSH2 0x3101 PUSH2 0x2F47 JUMP JUMPDEST DUP1 PUSH2 0x310F JUMPI POP PUSH1 0x0 SLOAD PUSH1 0xFF AND ISZERO JUMPDEST PUSH2 0x314A JUMPI PUSH1 0x40 MLOAD PUSH3 0x461BCD PUSH1 0xE5 SHL DUP2 MSTORE PUSH1 0x4 ADD DUP1 DUP1 PUSH1 0x20 ADD DUP3 DUP2 SUB DUP3 MSTORE PUSH1 0x2E DUP2 MSTORE PUSH1 0x20 ADD DUP1 PUSH2 0x38C6 PUSH1 0x2E SWAP2 CODECOPY PUSH1 0x40 ADD SWAP2 POP POP PUSH1 0x40 MLOAD DUP1 SWAP2 SUB SWAP1 REVERT JUMPDEST PUSH1 0x0 SLOAD PUSH2 0x100 SWAP1 DIV PUSH1 0xFF AND ISZERO DUP1 ISZERO PUSH2 0x3175 JUMPI PUSH1 0x0 DUP1 SLOAD PUSH1 0xFF NOT PUSH2 0xFF00 NOT SWAP1 SWAP2 AND PUSH2 0x100 OR AND PUSH1 0x1 OR SWAP1 SSTORE JUMPDEST PUSH1 0x97 DUP1 SLOAD PUSH1 0xFF NOT AND SWAP1 SSTORE DUP1 ISZERO PUSH2 0x2FEC JUMPI PUSH1 0x0 DUP1 SLOAD PUSH2 0xFF00 NOT AND SWAP1 SSTORE POP JUMP JUMPDEST PUSH1 0x0 SLOAD PUSH2 0x100 SWAP1 DIV PUSH1 0xFF AND DUP1 PUSH2 0x31AC JUMPI POP PUSH2 0x31AC PUSH2 0x2F47 JUMP JUMPDEST DUP1 PUSH2 0x31BA JUMPI POP PUSH1 0x0 SLOAD PUSH1 0xFF AND ISZERO JUMPDEST PUSH2 0x31F5 JUMPI PUSH1 0x40 MLOAD PUSH3 0x461BCD PUSH1 0xE5 SHL DUP2 MSTORE PUSH1 0x4 ADD DUP1 DUP1 PUSH1 0x20 ADD DUP3 DUP2 SUB DUP3 MSTORE PUSH1 0x2E DUP2 MSTORE PUSH1 0x20 ADD DUP1 PUSH2 0x38C6 PUSH1 0x2E SWAP2 CODECOPY PUSH1 0x40 ADD SWAP2 POP POP PUSH1 0x40 MLOAD DUP1 SWAP2 SUB SWAP1 REVERT JUMPDEST PUSH1 0x0 SLOAD PUSH2 0x100 SWAP1 DIV PUSH1 0xFF AND ISZERO DUP1 ISZERO PUSH2 0x3220 JUMPI PUSH1 0x0 DUP1 SLOAD PUSH1 0xFF NOT PUSH2 0xFF00 NOT SWAP1 SWAP2 AND PUSH2 0x100 OR AND PUSH1 0x1 OR SWAP1 SSTORE JUMPDEST PUSH1 0x1 PUSH1 0x1 PUSH1 0xA0 SHL SUB DUP5 AND PUSH2 0x3265 JUMPI PUSH1 0x40 MLOAD PUSH3 0x461BCD PUSH1 0xE5 SHL DUP2 MSTORE PUSH1 0x4 ADD DUP1 DUP1 PUSH1 0x20 ADD DUP3 DUP2 SUB DUP3 MSTORE PUSH1 0x2B DUP2 MSTORE PUSH1 0x20 ADD DUP1 PUSH2 0x382B PUSH1 0x2B SWAP2 CODECOPY PUSH1 0x40 ADD SWAP2 POP POP PUSH1 0x40 MLOAD DUP1 SWAP2 SUB SWAP1 REVERT JUMPDEST PUSH1 0x1 PUSH1 0x1 PUSH1 0xA0 SHL SUB DUP4 AND PUSH2 0x32AA JUMPI PUSH1 0x40 MLOAD PUSH3 0x461BCD PUSH1 0xE5 SHL DUP2 MSTORE PUSH1 0x4 ADD DUP1 DUP1 PUSH1 0x20 ADD DUP3 DUP2 SUB DUP3 MSTORE PUSH1 0x2A DUP2 MSTORE PUSH1 0x20 ADD DUP1 PUSH2 0x3720 PUSH1 0x2A SWAP2 CODECOPY PUSH1 0x40 ADD SWAP2 POP POP PUSH1 0x40 MLOAD DUP1 SWAP2 SUB SWAP1 REVERT JUMPDEST PUSH1 0xC9 DUP1 SLOAD PUSH1 0x1 PUSH1 0x1 PUSH1 0xA0 SHL SUB DUP1 DUP9 AND PUSH1 0x1 PUSH1 0x1 PUSH1 0xA0 SHL SUB NOT SWAP3 DUP4 AND OR SWAP1 SWAP3 SSTORE PUSH1 0xCA DUP1 SLOAD DUP8 DUP5 AND SWAP1 DUP4 AND OR SWAP1 SSTORE PUSH1 0xCB DUP1 SLOAD DUP7 DUP5 AND SWAP1 DUP4 AND OR SWAP1 SSTORE PUSH1 0xD0 DUP1 SLOAD SWAP3 DUP6 AND SWAP3 SWAP1 SWAP2 AND SWAP2 SWAP1 SWAP2 OR SWAP1 SSTORE PUSH1 0x1 PUSH1 0xD1 SSTORE PUSH1 0x5 PUSH1 0xD2 SSTORE PUSH1 0x3 PUSH1 0xD3 SSTORE DUP1 ISZERO PUSH2 0x26E6 JUMPI PUSH1 0x0 DUP1 SLOAD PUSH2 0xFF00 NOT AND SWAP1 SSTORE POP POP POP POP POP JUMP JUMPDEST PUSH2 0x332D DUP3 PUSH1 0x1 PUSH1 0x1 PUSH1 0xA0 SHL SUB AND PUSH2 0x1F4F JUMP JUMPDEST PUSH2 0x337E JUMPI PUSH1 0x40 DUP1 MLOAD PUSH3 0x461BCD PUSH1 0xE5 SHL DUP2 MSTORE PUSH1 0x20 PUSH1 0x4 DUP3 ADD MSTORE PUSH1 0x1F PUSH1 0x24 DUP3 ADD MSTORE PUSH32 0x5361666545524332303A2063616C6C20746F206E6F6E2D636F6E747261637400 PUSH1 0x44 DUP3 ADD MSTORE SWAP1 MLOAD SWAP1 DUP2 SWAP1 SUB PUSH1 0x64 ADD SWAP1 REVERT JUMPDEST PUSH1 0x0 PUSH1 0x60 DUP4 PUSH1 0x1 PUSH1 0x1 PUSH1 0xA0 SHL SUB AND DUP4 PUSH1 0x40 MLOAD DUP1 DUP3 DUP1 MLOAD SWAP1 PUSH1 0x20 ADD SWAP1 DUP1 DUP4 DUP4 JUMPDEST PUSH1 0x20 DUP4 LT PUSH2 0x33BC JUMPI DUP1 MLOAD DUP3 MSTORE PUSH1 0x1F NOT SWAP1 SWAP3 ADD SWAP2 PUSH1 0x20 SWAP2 DUP3 ADD SWAP2 ADD PUSH2 0x339D JUMP JUMPDEST PUSH1 0x1 DUP4 PUSH1 0x20 SUB PUSH2 0x100 EXP SUB DUP1 NOT DUP3 MLOAD AND DUP2 DUP5 MLOAD AND DUP1 DUP3 OR DUP6 MSTORE POP POP POP POP POP POP SWAP1 POP ADD SWAP2 POP POP PUSH1 0x0 PUSH1 0x40 MLOAD DUP1 DUP4 SUB DUP2 PUSH1 0x0 DUP7 GAS CALL SWAP2 POP POP RETURNDATASIZE DUP1 PUSH1 0x0 DUP2 EQ PUSH2 0x341E JUMPI PUSH1 0x40 MLOAD SWAP2 POP PUSH1 0x1F NOT PUSH1 0x3F RETURNDATASIZE ADD AND DUP3 ADD PUSH1 0x40 MSTORE RETURNDATASIZE DUP3 MSTORE RETURNDATASIZE PUSH1 0x0 PUSH1 0x20 DUP5 ADD RETURNDATACOPY PUSH2 0x3423 JUMP JUMPDEST PUSH1 0x60 SWAP2 POP JUMPDEST POP SWAP2 POP SWAP2 POP DUP2 PUSH2 0x347A JUMPI PUSH1 0x40 DUP1 MLOAD PUSH3 0x461BCD PUSH1 0xE5 SHL DUP2 MSTORE PUSH1 0x20 PUSH1 0x4 DUP3 ADD DUP2 SWAP1 MSTORE PUSH1 0x24 DUP3 ADD MSTORE PUSH32 0x5361666545524332303A206C6F772D6C6576656C2063616C6C206661696C6564 PUSH1 0x44 DUP3 ADD MSTORE SWAP1 MLOAD SWAP1 DUP2 SWAP1 SUB PUSH1 0x64 ADD SWAP1 REVERT JUMPDEST DUP1 MLOAD ISZERO PUSH2 0x34D3 JUMPI DUP1 DUP1 PUSH1 0x20 ADD SWAP1 MLOAD PUSH1 0x20 DUP2 LT ISZERO PUSH2 0x3496 JUMPI PUSH1 0x0 DUP1 REVERT JUMPDEST POP MLOAD PUSH2 0x34D3 JUMPI PUSH1 0x40 MLOAD PUSH3 0x461BCD PUSH1 0xE5 SHL DUP2 MSTORE PUSH1 0x4 ADD DUP1 DUP1 PUSH1 0x20 ADD DUP3 DUP2 SUB DUP3 MSTORE PUSH1 0x2A DUP2 MSTORE PUSH1 0x20 ADD DUP1 PUSH2 0x3A00 PUSH1 0x2A SWAP2 CODECOPY PUSH1 0x40 ADD SWAP2 POP POP PUSH1 0x40 MLOAD DUP1 SWAP2 SUB SWAP1 REVERT JUMPDEST POP POP POP POP JUMP JUMPDEST PUSH1 0x0 PUSH2 0x34F1 PUSH1 0x64 PUSH2 0x1270 DUP5 PUSH1 0xA PUSH4 0xFFFFFFFF PUSH2 0x2346 AND JUMP JUMPDEST SWAP1 POP PUSH1 0x0 PUSH2 0x350B PUSH1 0x64 PUSH2 0x1270 DUP6 PUSH1 0xA PUSH4 0xFFFFFFFF PUSH2 0x2346 AND JUMP JUMPDEST SWAP1 POP PUSH1 0x0 PUSH2 0x3523 DUP3 PUSH2 0x256F DUP7 DUP7 PUSH4 0xFFFFFFFF PUSH2 0x23F7 AND JUMP JUMPDEST PUSH1 0xCA SLOAD PUSH1 0xC9 SLOAD SWAP2 SWAP3 POP PUSH2 0x354B SWAP2 PUSH1 0x1 PUSH1 0x1 PUSH1 0xA0 SHL SUB SWAP1 DUP2 AND SWAP2 CALLER SWAP2 AND DUP5 PUSH4 0xFFFFFFFF PUSH2 0x3631 AND JUMP JUMPDEST PUSH1 0xCB SLOAD PUSH1 0xC9 SLOAD PUSH2 0x3570 SWAP2 PUSH1 0x1 PUSH1 0x1 PUSH1 0xA0 SHL SUB SWAP2 DUP3 AND SWAP2 CALLER SWAP2 AND DUP7 PUSH4 0xFFFFFFFF PUSH2 0x3631 AND JUMP JUMPDEST PUSH1 0xC9 SLOAD PUSH1 0x40 DUP1 MLOAD PUSH4 0x79CC679 PUSH1 0xE4 SHL DUP2 MSTORE CALLER PUSH1 0x4 DUP3 ADD MSTORE PUSH1 0x24 DUP2 ADD DUP6 SWAP1 MSTORE SWAP1 MLOAD PUSH1 0x1 PUSH1 0x1 PUSH1 0xA0 SHL SUB SWAP1 SWAP3 AND SWAP2 PUSH4 0x79CC6790 SWAP2 PUSH1 0x44 DUP1 DUP3 ADD SWAP3 PUSH1 0x0 SWAP3 SWAP1 SWAP2 SWAP1 DUP3 SWAP1 SUB ADD DUP2 DUP4 DUP8 DUP1 EXTCODESIZE ISZERO DUP1 ISZERO PUSH2 0x35C3 JUMPI PUSH1 0x0 DUP1 REVERT JUMPDEST POP GAS CALL ISZERO DUP1 ISZERO PUSH2 0x1CB8 JUMPI RETURNDATASIZE PUSH1 0x0 DUP1 RETURNDATACOPY RETURNDATASIZE PUSH1 0x0 REVERT JUMPDEST PUSH1 0x0 DUP3 DUP3 ADD DUP4 DUP2 LT ISZERO PUSH2 0xEB1 JUMPI PUSH1 0x40 DUP1 MLOAD PUSH3 0x461BCD PUSH1 0xE5 SHL DUP2 MSTORE PUSH1 0x20 PUSH1 0x4 DUP3 ADD MSTORE PUSH1 0x1B PUSH1 0x24 DUP3 ADD MSTORE PUSH32 0x536166654D6174683A206164646974696F6E206F766572666C6F770000000000 PUSH1 0x44 DUP3 ADD MSTORE SWAP1 MLOAD SWAP1 DUP2 SWAP1 SUB PUSH1 0x64 ADD SWAP1 REVERT JUMPDEST PUSH1 0x40 DUP1 MLOAD PUSH1 0x1 PUSH1 0x1 PUSH1 0xA0 SHL SUB DUP1 DUP7 AND PUSH1 0x24 DUP4 ADD MSTORE DUP5 AND PUSH1 0x44 DUP3 ADD MSTORE PUSH1 0x64 DUP1 DUP3 ADD DUP5 SWAP1 MSTORE DUP3 MLOAD DUP1 DUP4 SUB SWAP1 SWAP2 ADD DUP2 MSTORE PUSH1 0x84 SWAP1 SWAP2 ADD SWAP1 SWAP2 MSTORE PUSH1 0x20 DUP2 ADD DUP1 MLOAD PUSH1 0x1 PUSH1 0x1 PUSH1 0xE0 SHL SUB AND PUSH4 0x23B872DD PUSH1 0xE0 SHL OR SWAP1 MSTORE PUSH2 0x34D3 SWAP1 DUP6 SWAP1 PUSH2 0x331B JUMP JUMPDEST PUSH1 0x40 DUP1 MLOAD PUSH1 0xE0 DUP2 ADD DUP3 MSTORE PUSH1 0x0 DUP1 DUP3 MSTORE PUSH1 0x20 DUP3 ADD DUP2 SWAP1 MSTORE SWAP2 DUP2 ADD DUP3 SWAP1 MSTORE PUSH1 0x60 DUP2 ADD DUP3 SWAP1 MSTORE PUSH1 0x80 DUP2 ADD DUP3 SWAP1 MSTORE PUSH1 0xA0 DUP2 ADD DUP3 SWAP1 MSTORE SWAP1 PUSH1 0xC0 DUP3 ADD MSTORE SWAP1 JUMP INVALID 0x4F PUSH24 0x6E61626C653A206E6577206F776E65722069732074686520 PUSH27 0x65726F20616464726573735B56616C69646174696F6E5D20466565 KECCAK256 0x28 GASLIMIT SLOAD 0x48 0x29 KECCAK256 PUSH10 0x732062656C6F77206D69 PUSH15 0x696D756D2072657175697265642066 PUSH6 0x655B56616C69 PUSH5 0x6174696F6E 0x5D KECCAK256 PUSH5 0x657657616C PUSH13 0x657420697320746865207A6572 PUSH16 0x20616464726573735B56616C69646174 PUSH10 0x6F6E5D205472616E7366 PUSH6 0x72206F662066 PUSH6 0x65206661696C PUSH6 0x645B56616C69 PUSH5 0x6174696F6E 0x5D GASPRICE KECCAK256 0x49 PUSH15 0x76616C6964207377617020746F6B65 PUSH15 0x20616464726573735B56616C696461 PUSH21 0x696F6E5D2046656520285357415029206973206265 PUSH13 0x6F77206D696E696D756D207265 PUSH18 0x7569726564206665655B56616C6964617469 PUSH16 0x6E5D3A20496E76616C69642070726963 PUSH6 0x20657374696D PUSH2 0x746F PUSH19 0x20616464726573735B56616C69646174696F6E 0x5D KECCAK256 SLOAD PUSH9 0x652061646472657373 KECCAK256 PUSH5 0x6F6573206E PUSH16 0x7420636F6E7461696E206120636F6E74 PUSH19 0x6163745B56616C69646174696F6E5D20666565 PUSH20 0x57616C6C657420697320746865207A65726F2061 PUSH5 0x6472657373 MSTORE8 PUSH2 0x6665 0x4D PUSH2 0x7468 GASPRICE KECCAK256 PUSH14 0x756C7469706C69636174696F6E20 PUSH16 0x766572666C6F775B56616C6964617469 PUSH16 0x6E5D2054686520616D6F756E74206861 PUSH20 0x20746F206265206C6172676572207468616E2030 0x4F PUSH24 0x6E61626C653A2063616C6C6572206973206E6F7420746865 KECCAK256 PUSH16 0x776E6572436F6E747261637420696E73 PUSH21 0x616E63652068617320616C7265616479206265656E KECCAK256 PUSH10 0x6E697469616C697A6564 JUMPDEST JUMP PUSH2 0x6C69 PUSH5 0x6174696F6E 0x5D KECCAK256 PUSH14 0x73672E76616C756520646F65736E 0x27 PUSH21 0x20636F6E7461696E20656E6F756768204554482066 PUSH16 0x72206665655B56616C69646174696F6E 0x5D KECCAK256 0x49 PUSH15 0x76616C69642062656E656669636961 PUSH19 0x7920616464726573735B56616C69646174696F PUSH15 0x5D2054686520666565206861732074 PUSH16 0x206265206C6172676572207468616E20 ADDRESS JUMPDEST JUMP PUSH2 0x6C69 PUSH5 0x6174696F6E 0x5D GASPRICE KECCAK256 COINBASE PUSH13 0x6C6F7765642046656520536C69 PUSH17 0x706167652070657263656E74616765206D PUSH22 0x7374206265206265747765656E203020746F20313030 JUMPDEST JUMP PUSH2 0x6C69 PUSH5 0x6174696F6E 0x5D GASPRICE KECCAK256 GASLIMIT SLOAD 0x48 KECCAK256 CHAINID PUSH6 0x652070657263 PUSH6 0x6E7461676520 PUSH14 0x757374206265206265747765656E KECCAK256 ADDRESS KECCAK256 PUSH21 0x6F203130305361666545524332303A204552433230 KECCAK256 PUSH16 0x7065726174696F6E20646964206E6F74 KECCAK256 PUSH20 0x7563636565645B56616C69646174696F6E5D3A20 SSTORE PUSH15 0x697377617020466565207065726365 PUSH15 0x74616765206D757374206265206265 PUSH21 0x7765656E203020746F203130305B56616C69646174 PUSH10 0x6F6E5D205061796D656E PUSH21 0x2064657461696C73206E6F7420666F756E64A26469 PUSH17 0x667358221220D88116FAF92EF2577A85D1 CALL SWAP14 0xCE CALLDATALOAD 0xEC 0x2C PUSH3 0xE6DA06 0x4A 0xB5 0xB5 0xCA PUSH32 0xD6CB5D81658964736F6C63430006020033000000000000000000000000000000 "},"methodIdentifiers":{"addTokenToFreeList(address)":"cd7d9e99","getBeneficiaryPaymentIds(address)":"61164e53","getDevWallet()":"453dd97f","getFeeInEthForERC20(uint256,address)":"c0f8bc60","getFeeInEthForERC20UsingTotalSupply(uint256,address)":"9976dfbe","getFeeInEthForEth(uint256)":"bf3452f8","getFeeInSwapForERC20(uint256,address,bool)":"2699fd1f","getFeeInSwapForETH(uint256)":"5c04aa6a","getFeesWallet()":"ea8a4593","getPaymentDetails(uint256)":"9e70df21","getPriceEstimator()":"199eedfa","getSenderPaymentIds(address)":"af056b39","getSwapToken()":"9fa944dd","initialize(address,address,address,address)":"f8c8765e","isFreeToken(address)":"31bff521","owner()":"8da5cb5b","pause()":"8456cb59","paused()":"5c975abb","releasable(uint256)":"e4bf01a8","release(uint256)":"37bdc99b","removeTokenFromFreeList(address)":"d8ad1b2b","renounceOwnership()":"715018a6","scheduleBulkPayment(address,uint256[],uint256[],address[],uint256[],bool,bool)":"d22edafb","schedulePayment(address,uint256,uint256,address,uint256,bool,bool)":"d92b9b63","setAllowedFeeSlippagePercentage(uint8)":"d2bb3aed","setDevWallet(address)":"1f53ac02","setEthFeePercentage(uint8)":"8cc6058b","setFeeWallet(address)":"90d49b9d","setMaxFeeInEth(uint256)":"56ee468a","setPriceEstimator(address)":"0045a3d7","setSwapToken(address)":"b851b7ca","setUniswapFeePercentage(uint8)":"a9ff2bae","transferOwnership(address)":"f2fde38b","unpause()":"3f4ba83a"}},"storageLayout":{"storage":[{"astId":48,"contract":"contracts/SwapSmartLock.sol:SwapSmartLock","label":"initialized","offset":0,"slot":"0","type":"t_bool"},{"astId":50,"contract":"contracts/SwapSmartLock.sol:SwapSmartLock","label":"initializing","offset":1,"slot":"0","type":"t_bool"},{"astId":113,"contract":"contracts/SwapSmartLock.sol:SwapSmartLock","label":"______gap","offset":0,"slot":"1","type":"t_array(t_uint256)50_storage"},{"astId":43,"contract":"contracts/SwapSmartLock.sol:SwapSmartLock","label":"__gap","offset":0,"slot":"51","type":"t_array(t_uint256)50_storage"},{"astId":402,"contract":"contracts/SwapSmartLock.sol:SwapSmartLock","label":"_owner","offset":0,"slot":"101","type":"t_address"},{"astId":515,"contract":"contracts/SwapSmartLock.sol:SwapSmartLock","label":"__gap","offset":0,"slot":"102","type":"t_array(t_uint256)49_storage"},{"astId":2264,"contract":"contracts/SwapSmartLock.sol:SwapSmartLock","label":"_paused","offset":0,"slot":"151","type":"t_bool"},{"astId":2347,"contract":"contracts/SwapSmartLock.sol:SwapSmartLock","label":"__gap","offset":0,"slot":"152","type":"t_array(t_uint256)49_storage"},{"astId":5313,"contract":"contracts/SwapSmartLock.sol:SwapSmartLock","label":"_swapToken","offset":0,"slot":"201","type":"t_contract(IERC20)1497"},{"astId":5315,"contract":"contracts/SwapSmartLock.sol:SwapSmartLock","label":"_feesWallet","offset":0,"slot":"202","type":"t_address_payable"},{"astId":5317,"contract":"contracts/SwapSmartLock.sol:SwapSmartLock","label":"_devWallet","offset":0,"slot":"203","type":"t_address"},{"astId":5346,"contract":"contracts/SwapSmartLock.sol:SwapSmartLock","label":"_paymentId","offset":0,"slot":"204","type":"t_uint256"},{"astId":5351,"contract":"contracts/SwapSmartLock.sol:SwapSmartLock","label":"_beneficiaryVsPaymentIds","offset":0,"slot":"205","type":"t_mapping(t_address,t_array(t_uint256)dyn_storage)"},{"astId":5356,"contract":"contracts/SwapSmartLock.sol:SwapSmartLock","label":"_senderVsPaymentIds","offset":0,"slot":"206","type":"t_mapping(t_address,t_array(t_uint256)dyn_storage)"},{"astId":5360,"contract":"contracts/SwapSmartLock.sol:SwapSmartLock","label":"_idVsPayment","offset":0,"slot":"207","type":"t_mapping(t_uint256,t_struct(Payment)5344_storage)"},{"astId":5362,"contract":"contracts/SwapSmartLock.sol:SwapSmartLock","label":"_priceEstimator","offset":0,"slot":"208","type":"t_contract(IPriceEstimator)2830"},{"astId":5364,"contract":"contracts/SwapSmartLock.sol:SwapSmartLock","label":"_ethFeePercentage","offset":0,"slot":"209","type":"t_uint256"},{"astId":5366,"contract":"contracts/SwapSmartLock.sol:SwapSmartLock","label":"_allowedFeeSlippagePercentage","offset":0,"slot":"210","type":"t_uint256"},{"astId":5368,"contract":"contracts/SwapSmartLock.sol:SwapSmartLock","label":"_uniswapFeePercentage","offset":0,"slot":"211","type":"t_uint256"},{"astId":5370,"contract":"contracts/SwapSmartLock.sol:SwapSmartLock","label":"_maxFeeInEth","offset":0,"slot":"212","type":"t_uint256"},{"astId":5374,"contract":"contracts/SwapSmartLock.sol:SwapSmartLock","label":"_listFreeTokens","offset":0,"slot":"213","type":"t_mapping(t_address,t_bool)"}],"types":{"t_address":{"encoding":"inplace","label":"address","numberOfBytes":"20"},"t_address_payable":{"encoding":"inplace","label":"address payable","numberOfBytes":"20"},"t_array(t_uint256)49_storage":{"base":"t_uint256","encoding":"inplace","label":"uint256[49]","numberOfBytes":"1568"},"t_array(t_uint256)50_storage":{"base":"t_uint256","encoding":"inplace","label":"uint256[50]","numberOfBytes":"1600"},"t_array(t_uint256)dyn_storage":{"base":"t_uint256","encoding":"dynamic_array","label":"uint256[]","numberOfBytes":"32"},"t_bool":{"encoding":"inplace","label":"bool","numberOfBytes":"1"},"t_contract(IERC20)1497":{"encoding":"inplace","label":"contract IERC20","numberOfBytes":"20"},"t_contract(IPriceEstimator)2830":{"encoding":"inplace","label":"contract IPriceEstimator","numberOfBytes":"20"},"t_enum(Status)5311":{"encoding":"inplace","label":"enum SwapSmartLock.Status","numberOfBytes":"1"},"t_mapping(t_address,t_array(t_uint256)dyn_storage)":{"encoding":"mapping","key":"t_address","label":"mapping(address => uint256[])","numberOfBytes":"32","value":"t_array(t_uint256)dyn_storage"},"t_mapping(t_address,t_bool)":{"encoding":"mapping","key":"t_address","label":"mapping(address => bool)","numberOfBytes":"32","value":"t_bool"},"t_mapping(t_uint256,t_struct(Payment)5344_storage)":{"encoding":"mapping","key":"t_uint256","label":"mapping(uint256 => struct SwapSmartLock.Payment)","numberOfBytes":"32","value":"t_struct(Payment)5344_storage"},"t_struct(Payment)5344_storage":{"encoding":"inplace","label":"struct SwapSmartLock.Payment","members":[{"astId":5331,"contract":"contracts/SwapSmartLock.sol:SwapSmartLock","label":"token","offset":0,"slot":"0","type":"t_address"},{"astId":5333,"contract":"contracts/SwapSmartLock.sol:SwapSmartLock","label":"sender","offset":0,"slot":"1","type":"t_address"},{"astId":5335,"contract":"contracts/SwapSmartLock.sol:SwapSmartLock","label":"beneficiary","offset":0,"slot":"2","type":"t_address_payable"},{"astId":5337,"contract":"contracts/SwapSmartLock.sol:SwapSmartLock","label":"amount","offset":0,"slot":"3","type":"t_uint256"},{"astId":5339,"contract":"contracts/SwapSmartLock.sol:SwapSmartLock","label":"releaseTime","offset":0,"slot":"4","type":"t_uint256"},{"astId":5341,"contract":"contracts/SwapSmartLock.sol:SwapSmartLock","label":"createdAt","offset":0,"slot":"5","type":"t_uint256"},{"astId":5343,"contract":"contracts/SwapSmartLock.sol:SwapSmartLock","label":"status","offset":0,"slot":"6","type":"t_enum(Status)5311"}],"numberOfBytes":"224"},"t_uint256":{"encoding":"inplace","label":"uint256","numberOfBytes":"32"}}}}}}