{"abi":[{"type":"function","name":"DEFAULT_ADMIN_ROLE","inputs":[],"outputs":[{"name":"","type":"bytes32","internalType":"bytes32"}],"stateMutability":"view"},{"type":"function","name":"currentTotalStake","inputs":[],"outputs":[{"name":"","type":"uint256","internalType":"uint256"}],"stateMutability":"view"},{"type":"function","name":"deposit","inputs":[{"name":"amount","type":"uint256","internalType":"uint256"}],"outputs":[],"stateMutability":"nonpayable"},{"type":"function","name":"distributeRewards","inputs":[],"outputs":[],"stateMutability":"nonpayable"},{"type":"function","name":"executeWithdrawal","inputs":[],"outputs":[],"stateMutability":"nonpayable"},{"type":"function","name":"getRoleAdmin","inputs":[{"name":"role","type":"bytes32","internalType":"bytes32"}],"outputs":[{"name":"","type":"bytes32","internalType":"bytes32"}],"stateMutability":"view"},{"type":"function","name":"getRoleMember","inputs":[{"name":"role","type":"bytes32","internalType":"bytes32"},{"name":"index","type":"uint256","internalType":"uint256"}],"outputs":[{"name":"","type":"address","internalType":"address"}],"stateMutability":"view"},{"type":"function","name":"getRoleMemberCount","inputs":[{"name":"role","type":"bytes32","internalType":"bytes32"}],"outputs":[{"name":"","type":"uint256","internalType":"uint256"}],"stateMutability":"view"},{"type":"function","name":"getStakeDetails","inputs":[{"name":"account","type":"address","internalType":"address"}],"outputs":[{"name":"initialDeposit","type":"uint256","internalType":"uint256"},{"name":"startDate","type":"uint256","internalType":"uint256"},{"name":"endDate","type":"uint256","internalType":"uint256"},{"name":"rewards","type":"uint256","internalType":"uint256"}],"stateMutability":"view"},{"type":"function","name":"grantRole","inputs":[{"name":"role","type":"bytes32","internalType":"bytes32"},{"name":"account","type":"address","internalType":"address"}],"outputs":[],"stateMutability":"nonpayable"},{"type":"function","name":"hasRole","inputs":[{"name":"role","type":"bytes32","internalType":"bytes32"},{"name":"account","type":"address","internalType":"address"}],"outputs":[{"name":"","type":"bool","internalType":"bool"}],"stateMutability":"view"},{"type":"function","name":"initialize","inputs":[{"name":"_token","type":"address","internalType":"address"},{"name":"_rewardsAddress","type":"address","internalType":"address"},{"name":"_maxStakingAmount","type":"uint256","internalType":"uint256"},{"name":"_unstakingPeriod","type":"uint256","internalType":"uint256"}],"outputs":[],"stateMutability":"nonpayable"},{"type":"function","name":"initiateWithdrawal","inputs":[{"name":"withdrawAmount","type":"uint256","internalType":"uint256"}],"outputs":[],"stateMutability":"nonpayable"},{"type":"function","name":"maxStakingAmount","inputs":[],"outputs":[{"name":"","type":"uint256","internalType":"uint256"}],"stateMutability":"view"},{"type":"function","name":"pause","inputs":[],"outputs":[],"stateMutability":"nonpayable"},{"type":"function","name":"paused","inputs":[],"outputs":[{"name":"","type":"bool","internalType":"bool"}],"stateMutability":"view"},{"type":"function","name":"renounceRole","inputs":[{"name":"role","type":"bytes32","internalType":"bytes32"},{"name":"account","type":"address","internalType":"address"}],"outputs":[],"stateMutability":"nonpayable"},{"type":"function","name":"revokeRole","inputs":[{"name":"role","type":"bytes32","internalType":"bytes32"},{"name":"account","type":"address","internalType":"address"}],"outputs":[],"stateMutability":"nonpayable"},{"type":"function","name":"rewardsAddress","inputs":[],"outputs":[{"name":"","type":"address","internalType":"address"}],"stateMutability":"view"},{"type":"function","name":"rewardsDistributed","inputs":[],"outputs":[{"name":"","type":"uint256","internalType":"uint256"}],"stateMutability":"view"},{"type":"function","name":"rewardsWithdrawn","inputs":[],"outputs":[{"name":"","type":"uint256","internalType":"uint256"}],"stateMutability":"view"},{"type":"function","name":"setRewardAddress","inputs":[{"name":"_rewardsAddress","type":"address","internalType":"address"}],"outputs":[],"stateMutability":"nonpayable"},{"type":"function","name":"setTokenAddress","inputs":[{"name":"_token","type":"address","internalType":"address"}],"outputs":[],"stateMutability":"nonpayable"},{"type":"function","name":"token","inputs":[],"outputs":[{"name":"","type":"address","internalType":"contract IERC20"}],"stateMutability":"view"},{"type":"function","name":"totalRewardsDistributed","inputs":[],"outputs":[{"name":"","type":"uint256","internalType":"uint256"}],"stateMutability":"view"},{"type":"function","name":"unpause","inputs":[],"outputs":[],"stateMutability":"nonpayable"},{"type":"function","name":"unstakingPeriod","inputs":[],"outputs":[{"name":"","type":"uint256","internalType":"uint256"}],"stateMutability":"view"},{"type":"function","name":"version","inputs":[],"outputs":[{"name":"","type":"string","internalType":"string"}],"stateMutability":"pure"},{"type":"function","name":"withdrawRewards","inputs":[],"outputs":[],"stateMutability":"nonpayable"},{"type":"event","name":"Paused","inputs":[{"name":"account","type":"address","indexed":false,"internalType":"address"}],"anonymous":false},{"type":"event","name":"RewardsDistributed","inputs":[{"name":"amount","type":"uint256","indexed":false,"internalType":"uint256"}],"anonymous":false},{"type":"event","name":"RewardsWithdrawn","inputs":[{"name":"account","type":"address","indexed":true,"internalType":"address"},{"name":"reward","type":"uint256","indexed":false,"internalType":"uint256"}],"anonymous":false},{"type":"event","name":"RoleGranted","inputs":[{"name":"role","type":"bytes32","indexed":true,"internalType":"bytes32"},{"name":"account","type":"address","indexed":true,"internalType":"address"},{"name":"sender","type":"address","indexed":true,"internalType":"address"}],"anonymous":false},{"type":"event","name":"RoleRevoked","inputs":[{"name":"role","type":"bytes32","indexed":true,"internalType":"bytes32"},{"name":"account","type":"address","indexed":true,"internalType":"address"},{"name":"sender","type":"address","indexed":true,"internalType":"address"}],"anonymous":false},{"type":"event","name":"StakeDeposited","inputs":[{"name":"account","type":"address","indexed":true,"internalType":"address"},{"name":"amount","type":"uint256","indexed":false,"internalType":"uint256"}],"anonymous":false},{"type":"event","name":"Unpaused","inputs":[{"name":"account","type":"address","indexed":false,"internalType":"address"}],"anonymous":false},{"type":"event","name":"WithdrawExecuted","inputs":[{"name":"account","type":"address","indexed":true,"internalType":"address"},{"name":"amount","type":"uint256","indexed":false,"internalType":"uint256"},{"name":"reward","type":"uint256","indexed":false,"internalType":"uint256"}],"anonymous":false},{"type":"event","name":"WithdrawInitiated","inputs":[{"name":"account","type":"address","indexed":true,"internalType":"address"},{"name":"amount","type":"uint256","indexed":false,"internalType":"uint256"},{"name":"initiateDate","type":"uint256","indexed":false,"internalType":"uint256"}],"anonymous":false}],"bytecode":{"object":"0x608060405234801561001057600080fd5b5061331e806100206000396000f3fe608060405234801561001057600080fd5b50600436106101cf5760003560e01c80639c1454d411610104578063ce4843e9116100a2578063f21c783b11610071578063f21c783b146104c4578063f41322ac146104cc578063fa45aa0014610518578063fc0c546a14610520576101cf565b8063ce4843e91461044c578063d547741f14610454578063eb990c5914610480578063ee172546146104bc576101cf565b8063c0973eed116100de578063c0973eed14610417578063c413d1001461041f578063c7b8981c14610427578063ca15c8731461042f576101cf565b80639c1454d4146103ea578063a217fddf146103f2578063b6b55f25146103fa576101cf565b806354fd4d50116101715780636f4a2cd01161014b5780636f4a2cd01461036f5780638456cb59146103775780639010d07c1461037f57806391d14854146103be576101cf565b806354fd4d50146102b05780635c975abb1461032d5780635e00e67914610349576101cf565b80632f2ff15d116101ad5780632f2ff15d1461024857806336568abe146102745780633f4ba83a146102a05780634d5d0806146102a8576101cf565b806312edde5e146101d4578063248a9ca3146101f357806326a4e8d214610222575b600080fd5b6101f1600480360360208110156101ea57600080fd5b5035610528565b005b6102106004803603602081101561020957600080fd5b50356107a6565b60408051918252519081900360200190f35b6101f16004803603602081101561023857600080fd5b50356001600160a01b03166107bb565b6101f16004803603604081101561025e57600080fd5b50803590602001356001600160a01b031661092a565b6101f16004803603604081101561028a57600080fd5b50803590602001356001600160a01b0316610991565b6101f16109f2565b610210610a63565b6102b8610a69565b6040805160208082528351818301528351919283929083019185019080838360005b838110156102f25781810151838201526020016102da565b50505050905090810190601f16801561031f5780820380516001836020036101000a031916815260200191505b509250505060405180910390f35b610335610a85565b604080519115158252519081900360200190f35b6101f16004803603602081101561035f57600080fd5b50356001600160a01b0316610a8e565b6101f1610bf6565b6101f1610d1b565b6103a26004803603604081101561039557600080fd5b5080359060200135610d8a565b604080516001600160a01b039092168252519081900360200190f35b610335600480360360408110156103d457600080fd5b50803590602001356001600160a01b0316610db1565b610210610dcf565b610210610dd6565b6101f16004803603602081101561041057600080fd5b5035610ddb565b6103a261120c565b61021061121b565b6101f1611222565b6102106004803603602081101561044557600080fd5b503561151e565b610210611535565b6101f16004803603604081101561046a57600080fd5b50803590602001356001600160a01b031661153b565b6101f16004803603608081101561049657600080fd5b506001600160a01b03813581169160208101359091169060408101359060600135611594565b6102106115f5565b6102106115fc565b6104f2600480360360208110156104e257600080fd5b50356001600160a01b0316611602565b604080519485526020850193909352838301919091526060830152519081900360800190f35b6101f1611711565b6103a2611c3c565b60c95460ff1661056d576040805162461bcd60e51b815260206004820152601f6024820152600080516020612b31833981519152604482015290519081900360640190fd5b60c9805460ff1916905560975460ff16156105c2576040805162461bcd60e51b815260206004820152601060248201526f14185d5cd8589b194e881c185d5cd95960821b604482015290519081900360640190fd5b336000908152610104602090815260408083206101059092529091208261061a5760405162461bcd60e51b815260040180806020018281038252602f815260200180612d9c602f913960400191505060405180910390fd5b815483111561065a5760405162461bcd60e51b815260040180806020018281038252603d8152602001806130ac603d913960400191505060405180910390fd5b600582015460ff16801561066e5750815415155b6106a95760405162461bcd60e51b815260040180806020018281038252604081526020018061327a6040913960400191505060405180910390fd5b6002820154156106ea5760405162461bcd60e51b815260040180806020018281038252603f815260200180612c60603f913960400191505060405180910390fd5b60018101541561072b5760405162461bcd60e51b815260040180806020018281038252603f815260200180612c60603f913960400191505060405180910390fd5b426002830181905561010054600484015560018201849055815560fe54610758908463ffffffff611c4b16565b60fe5560408051848152426020820152815133927ff908b12fe0d8dc1ff4fda115e5bace3a7ad1aad889daca8e638ca0b29f806577928290030190a2505060c9805460ff1916600117905550565b60009081526065602052604090206002015490565b806107ce816001600160a01b0316611c8d565b6108095760405162461bcd60e51b8152600401808060200182810382526034815260200180612d476034913960400191505060405180910390fd5b60975460ff16610857576040805162461bcd60e51b815260206004820152601460248201527314185d5cd8589b194e881b9bdd081c185d5cd95960621b604482015290519081900360640190fd5b60408051694f574e45525f524f4c4560b01b8152905190819003600a01902061088790610882611cc9565b610db1565b6108c25760405162461bcd60e51b8152600401808060200182810382526041815260200180612e366041913960600191505060405180910390fd5b6001600160a01b0382166109075760405162461bcd60e51b8152600401808060200182810382526027815260200180612f5f6027913960400191505060405180910390fd5b5060fb80546001600160a01b0319166001600160a01b0392909216919091179055565b60008281526065602052604090206002015461094890610882611cc9565b6109835760405162461bcd60e51b815260040180806020018281038252602f815260200180612b02602f913960400191505060405180910390fd5b61098d8282611ccd565b5050565b610999611cc9565b6001600160a01b0316816001600160a01b0316146109e85760405162461bcd60e51b815260040180806020018281038252602f8152602001806132ba602f913960400191505060405180910390fd5b61098d8282611d3c565b604080516a5041555345525f524f4c4560a81b8152905190819003600b019020610a1e90610882611cc9565b610a595760405162461bcd60e51b8152600401808060200182810382526035815260200180612c9f6035913960400191505060405180910390fd5b610a61611dab565b565b60fd5481565b6040805180820190915260028152613b1960f11b602082015290565b60975460ff1690565b60975460ff16610adc576040805162461bcd60e51b815260206004820152601460248201527314185d5cd8589b194e881b9bdd081c185d5cd95960621b604482015290519081900360640190fd5b60408051694f574e45525f524f4c4560b01b8152905190819003600a019020610b0790610882611cc9565b610b425760405162461bcd60e51b8152600401808060200182810382526043815260200180612d046043913960600191505060405180910390fd5b6001600160a01b038116610b875760405162461bcd60e51b8152600401808060200182810382526030815260200180612bc26030913960400191505060405180910390fd5b60fc546001600160a01b0382811691161415610bd45760405162461bcd60e51b815260040180806020018281038252603c815260200180612b86603c913960400191505060405180910390fd5b60fc80546001600160a01b0319166001600160a01b0392909216919091179055565b60c95460ff16610c3b576040805162461bcd60e51b815260206004820152601f6024820152600080516020612b31833981519152604482015290519081900360640190fd5b60c9805460ff1916905560975460ff1615610c90576040805162461bcd60e51b815260206004820152601060248201526f14185d5cd8589b194e881c185d5cd95960821b604482015290519081900360640190fd5b6040805177524557415244535f4449535452494255544f525f524f4c4560401b81529051908190036018019020610cc990610882611cc9565b610d045760405162461bcd60e51b815260040180806020018281038252603a815260200180613127603a913960400191505060405180910390fd5b610d0c611e49565b60c9805460ff19166001179055565b604080516a5041555345525f524f4c4560a81b8152905190819003600b019020610d4790610882611cc9565b610d825760405162461bcd60e51b81526004018080602001828103825260338152602001806131946033913960400191505060405180910390fd5b610a616120da565b6000828152606560205260408120610da8908363ffffffff61215b16565b90505b92915050565b6000828152606560205260408120610da8908363ffffffff61216716565b6101015481565b600081565b60c95460ff16610e20576040805162461bcd60e51b815260206004820152601f6024820152600080516020612b31833981519152604482015290519081900360640190fd5b60c9805460ff1916905560975460ff1615610e75576040805162461bcd60e51b815260206004820152601060248201526f14185d5cd8589b194e881c185d5cd95960821b604482015290519081900360640190fd5b33600090815261010460205260409020600281015415610ec65760405162461bcd60e51b81526004018080602001828103825260338152602001806131616033913960400191505060405180910390fd5b80546040805160c081018252828152600184015460208201526002840154918101919091526003830154606082015260048301546080820152600583015460ff16151560a0820152600090610f1a9061217c565b90506000610f3e82610f32858863ffffffff6121ec16565b9063ffffffff6121ec16565b9050828111610f7e5760405162461bcd60e51b8152600401808060200182810382526036815260200180612c2a6036913960400191505060405180910390fd5b6000610fa2610f93838663ffffffff611c4b16565b60fe549063ffffffff6121ec16565b905060fd54811115610fe55760405162461bcd60e51b815260040180806020018281038252603d815260200180612eec603d913960400191505060405180910390fd5b8185554260018087019190915560058601805460ff1916909117905561010054600386015560fe81905560fb54604080516323b872dd60e01b81523360048201523060248201526044810189905290516001600160a01b03909216916323b872dd916064808201926020929091908290030181600087803b15801561106957600080fd5b505af115801561107d573d6000803e3d6000fd5b505050506040513d602081101561109357600080fd5b50516110d05760405162461bcd60e51b81526004018080602001828103825260388152602001806130746038913960400191505060405180910390fd5b82156111b457610102546110ea908463ffffffff6121ec16565b6101025560fb5460fc54604080516323b872dd60e01b81526001600160a01b03928316600482015230602482015260448101879052905191909216916323b872dd9160648083019260209291908290030181600087803b15801561114d57600080fd5b505af1158015611161573d6000803e3d6000fd5b505050506040513d602081101561117757600080fd5b50516111b45760405162461bcd60e51b8152600401808060200182810382526038815260200180612bf26038913960400191505060405180910390fd5b337f0a7bb2e28cc4698aac06db79cf9163bfcc20719286cf59fa7d492ceda1b8edc26111e6888663ffffffff6121ec16565b60408051918252519081900360200190a2505060c9805460ff1916600117905550505050565b60fc546001600160a01b031681565b6101025481565b60c95460ff16611267576040805162461bcd60e51b815260206004820152601f6024820152600080516020612b31833981519152604482015290519081900360640190fd5b60c9805460ff1916905560975460ff16156112bc576040805162461bcd60e51b815260206004820152601060248201526f14185d5cd8589b194e881c185d5cd95960821b604482015290519081900360640190fd5b33600090815261010460205260409020600581015460ff1680156112e05750805415155b61131b5760405162461bcd60e51b815260040180806020018281038252603f8152602001806131c7603f913960400191505060405180910390fd5b60028101541561135c5760405162461bcd60e51b815260040180806020018281038252603e8152602001806130e9603e913960400191505060405180910390fd5b6040805160c08101825282548152600183015460208201526002830154918101919091526003820154606082015260048201546080820152600582015460ff16151560a08201526000906113af9061217c565b9050600081116113f05760405162461bcd60e51b815260040180806020018281038252603e81526020018061323c603e913960400191505060405180910390fd5b6101005460038301556101025461140d908263ffffffff6121ec16565b6101025560fb5460fc54604080516323b872dd60e01b81526001600160a01b03928316600482015233602482015260448101859052905191909216916323b872dd9160648083019260209291908290030181600087803b15801561147057600080fd5b505af1158015611484573d6000803e3d6000fd5b505050506040513d602081101561149a57600080fd5b50516114d75760405162461bcd60e51b815260040180806020018281038252604881526020018061302c6048913960600191505060405180910390fd5b60408051828152905133917f8a43c4352486ec339f487f64af78ca5cbf06cd47833f073d3baf3a193e503161919081900360200190a2505060c9805460ff19166001179055565b6000818152606560205260408120610dab90612246565b60fe5481565b60008281526065602052604090206002015461155990610882611cc9565b6109e85760405162461bcd60e51b8152600401808060200182810382526030815260200180612cd46030913960400191505060405180910390fd5b836115a7816001600160a01b0316611c8d565b6115e25760405162461bcd60e51b8152600401808060200182810382526034815260200180612d476034913960400191505060405180910390fd5b6115ee85858585612251565b5050505050565b6101035481565b60ff5481565b6001600160a01b0381166000908152610104602052604081206005015481908190819060ff16801561164c57506001600160a01b0385166000908152610104602052604090205415155b6116875760405162461bcd60e51b81526004018080602001828103825260368152602001806132066036913960400191505060405180910390fd5b61168f612a61565b506001600160a01b03851660009081526101046020908152604091829020825160c081018452815480825260018301549382018490526002830154948201859052600383015460608301526004830154608083015260059092015460ff16151560a0820152929091906117018461217c565b9450945094509450509193509193565b60c95460ff16611756576040805162461bcd60e51b815260206004820152601f6024820152600080516020612b31833981519152604482015290519081900360640190fd5b60c9805460ff1916905560975460ff16156117ab576040805162461bcd60e51b815260206004820152601060248201526f14185d5cd8589b194e881c185d5cd95960821b604482015290519081900360640190fd5b6117b3612a61565b503360009081526101046020908152604091829020825160c08101845281548152600182015492810192909252600281015492820192909252600382015460608201526004820154608082015260059091015460ff16151560a0820152611818612a99565b503360009081526101056020908152604091829020825180840184528154815260019091015491810191909152908201511515806118595750602081015115155b6118945760405162461bcd60e51b815260040180806020018281038252602d815260200180612dcb602d913960400191505060405180910390fd5b8160a0015180156118a55750815115155b6118e05760405162461bcd60e51b8152600401808060200182810382526035815260200180612b516035913960400191505060405180910390fd5b60006201518083604001514203816118f457fe5b0490508060ff5411156119385760405162461bcd60e51b815260040180806020018281038252602c815260200180612ad6602c913960400191505060405180910390fd5b600082602001516000141561194e578351611954565b82602001515b905060006119618561217c565b905081856000015110156119a65760405162461bcd60e51b815260040180806020018281038252604c815260200180612fe0604c913960600191505060405180910390fd5b84518210156119f75733600090815261010460205260409020546119d0908363ffffffff611c4b16565b33600090815261010460205260408120918255600282015561010054600390910155611a33565b336000908152610104602052604081208181556001810182905560028101829055600381018290556004810191909155600501805460ff191690555b60fb546040805163a9059cbb60e01b81523360048201526024810185905290516001600160a01b039092169163a9059cbb916044808201926020929091908290030181600087803b158015611a8757600080fd5b505af1158015611a9b573d6000803e3d6000fd5b505050506040513d6020811015611ab157600080fd5b5051611aee5760405162461bcd60e51b8152600401808060200182810382526047815260200180612ea56047913960600191505060405180910390fd5b8015611bd25761010254611b08908263ffffffff6121ec16565b6101025560fb5460fc54604080516323b872dd60e01b81526001600160a01b03928316600482015233602482015260448101859052905191909216916323b872dd9160648083019260209291908290030181600087803b158015611b6b57600080fd5b505af1158015611b7f573d6000803e3d6000fd5b505050506040513d6020811015611b9557600080fd5b5051611bd25760405162461bcd60e51b815260040180806020018281038252603e815260200180612df8603e913960400191505060405180910390fd5b336000818152610105602090815260408083206001810184905592909255815185815290810184905281517ff6c0fc94edc8fd2a37514f1fb85af88fca386b00a54127b912273e6b83322e08929181900390910190a2505060c9805460ff19166001179055505050565b60fb546001600160a01b031681565b6000610da883836040518060400160405280601e81526020017f536166654d6174683a207375627472616374696f6e206f766572666c6f7700008152506123e0565b6000813f7fc5d2460186f7233c927e7db2dcc703c0e500b653ca82273b7bfad8045d85a470818114801590611cc157508115155b949350505050565b3390565b6000828152606560205260409020611ceb908263ffffffff61247716565b1561098d57611cf8611cc9565b6001600160a01b0316816001600160a01b0316837f2f8788117e7eff1d82e926ec794901d17c78024a50270940304540a733656f0d60405160405180910390a45050565b6000828152606560205260409020611d5a908263ffffffff61248c16565b1561098d57611d67611cc9565b6001600160a01b0316816001600160a01b0316837ff6391f5c32d9c69d2a47ea670b442974b53935d1edc7fd64eb21e047a839171b60405160405180910390a45050565b60975460ff16611df9576040805162461bcd60e51b815260206004820152601460248201527314185d5cd8589b194e881b9bdd081c185d5cd95960621b604482015290519081900360640190fd5b6097805460ff191690557f5db9ee0a495bf2e6ff9c91a7834c1ba4fdd244a5e8aa4e537bd38aeae4b073aa611e2c611cc9565b604080516001600160a01b039092168252519081900360200190a1565b60975460ff1615611e94576040805162461bcd60e51b815260206004820152601060248201526f14185d5cd8589b194e881c185d5cd95960821b604482015290519081900360640190fd5b6040805177524557415244535f4449535452494255544f525f524f4c4560401b81529051908190036018019020611ecd90610882611cc9565b611f085760405162461bcd60e51b815260040180806020018281038252603a815260200180613127603a913960400191505060405180910390fd5b600060fe5411611f495760405162461bcd60e51b815260040180806020018281038252602f815260200180612fb1602f913960400191505060405180910390fd5b60fb5460fc54604080516370a0823160e01b81526001600160a01b039283166004820152905160009392909216916370a0823191602480820192602092909190829003018186803b158015611f9d57600080fd5b505afa158015611fb1573d6000803e3d6000fd5b505050506040513d6020811015611fc757600080fd5b50519050806120075760405162461bcd60e51b815260040180806020018281038252602b815260200180612f86602b913960400191505060405180910390fd5b60006120326101015461202661010254856121ec90919063ffffffff16565b9063ffffffff611c4b16565b9050600061206360fe54612057670de0b6b3a7640000856124a190919063ffffffff16565b9063ffffffff6124fa16565b6101005490915061207a908263ffffffff6121ec16565b610100556101018390556000610102556101035461209e908363ffffffff6121ec16565b610103556040805183815290517f6d1c76d614228b523baa4dcd9539e2c713b54ff4ab3ff2d1627e7f6cd32be4429181900360200190a1505050565b60975460ff1615612125576040805162461bcd60e51b815260206004820152601060248201526f14185d5cd8589b194e881c185d5cd95960821b604482015290519081900360640190fd5b6097805460ff191660011790557f62e78cea01bee320cd4e420270b5ea74000d11b0c9f74754ebdbfc544b05a258611e2c611cc9565b6000610da8838361253c565b6000610da8836001600160a01b0384166125a0565b604081015160009081906121a9576060830151610100546121a29163ffffffff611c4b16565b90506121c5565b606083015160808401516121c29163ffffffff611c4b16565b90505b82516121e590670de0b6b3a764000090612057908463ffffffff6124a116565b9392505050565b600082820183811015610da8576040805162461bcd60e51b815260206004820152601b60248201527f536166654d6174683a206164646974696f6e206f766572666c6f770000000000604482015290519081900360640190fd5b6000610dab826125b8565b600054610100900460ff168061226a575061226a6125bc565b80612278575060005460ff16155b6122b35760405162461bcd60e51b815260040180806020018281038252602e815260200180612e77602e913960400191505060405180910390fd5b600054610100900460ff161580156122de576000805460ff1961ff0019909116610100171660011790555b6001600160a01b0385166123235760405162461bcd60e51b8152600401808060200182810382526027815260200180612f5f6027913960400191505060405180910390fd5b600083116123625760405162461bcd60e51b8152600401808060200182810382526036815260200180612f296036913960400191505060405180910390fd5b61236a6125c2565b6123726125c2565b61237a612664565b61238261270f565b61238a6127bd565b612392610d1b565b61239b84610a8e565b6123a36109f2565b60fb80546001600160a01b0319166001600160a01b03871617905560fd83905560ff82905580156115ee576000805461ff00191690555050505050565b6000818484111561246f5760405162461bcd60e51b81526004018080602001828103825283818151815260200191508051906020019080838360005b8381101561243457818101518382015260200161241c565b50505050905090810190601f1680156124615780820380516001836020036101000a031916815260200191505b509250505060405180910390fd5b505050900390565b6000610da8836001600160a01b0384166128ec565b6000610da8836001600160a01b038416612936565b6000826124b057506000610dab565b828202828482816124bd57fe5b0414610da85760405162461bcd60e51b8152600401808060200182810382526021815260200180612d7b6021913960400191505060405180910390fd5b6000610da883836040518060400160405280601a81526020017f536166654d6174683a206469766973696f6e206279207a65726f0000000000008152506129fc565b8154600090821061257e5760405162461bcd60e51b8152600401808060200182810382526022815260200180612ab46022913960400191505060405180910390fd5b82600001828154811061258d57fe5b9060005260206000200154905092915050565b60009081526001919091016020526040902054151590565b5490565b303b1590565b600054610100900460ff16806125db57506125db6125bc565b806125e9575060005460ff16155b6126245760405162461bcd60e51b815260040180806020018281038252602e815260200180612e77602e913960400191505060405180910390fd5b600054610100900460ff1615801561264f576000805460ff1961ff0019909116610100171660011790555b8015612661576000805461ff00191690555b50565b600054610100900460ff168061267d575061267d6125bc565b8061268b575060005460ff16155b6126c65760405162461bcd60e51b815260040180806020018281038252602e815260200180612e77602e913960400191505060405180910390fd5b600054610100900460ff161580156126f1576000805460ff1961ff0019909116610100171660011790555b6097805460ff191690558015612661576000805461ff001916905550565b600054610100900460ff168061272857506127286125bc565b80612736575060005460ff16155b6127715760405162461bcd60e51b815260040180806020018281038252602e815260200180612e77602e913960400191505060405180910390fd5b600054610100900460ff1615801561279c576000805460ff1961ff0019909116610100171660011790555b60c9805460ff191660011790558015612661576000805461ff001916905550565b600054610100900460ff16806127d657506127d66125bc565b806127e4575060005460ff16155b61281f5760405162461bcd60e51b815260040180806020018281038252602e815260200180612e77602e913960400191505060405180910390fd5b600054610100900460ff1615801561284a576000805460ff1961ff0019909116610100171660011790555b61285c6000612857611cc9565b610983565b604080516a5041555345525f524f4c4560a81b8152905190819003600b01902061288890612857611cc9565b60408051694f574e45525f524f4c4560b01b8152905190819003600a0190206128b390612857611cc9565b6040805177524557415244535f4449535452494255544f525f524f4c4560401b8152905190819003601801902061264f90612857611cc9565b60006128f883836125a0565b61292e57508154600181810184556000848152602080822090930184905584548482528286019093526040902091909155610dab565b506000610dab565b600081815260018301602052604081205480156129f2578354600019808301919081019060009087908390811061296957fe5b906000526020600020015490508087600001848154811061298657fe5b6000918252602080832090910192909255828152600189810190925260409020908401905586548790806129b657fe5b60019003818190600052602060002001600090559055866001016000878152602001908152602001600020600090556001945050505050610dab565b6000915050610dab565b60008183612a4b5760405162461bcd60e51b815260206004820181815283516024840152835190928392604490910191908501908083836000831561243457818101518382015260200161241c565b506000838581612a5757fe5b0495945050505050565b6040518060c0016040528060008152602001600081526020016000815260200160008152602001600081526020016000151581525090565b60405180604001604052806000815260200160008152509056fe456e756d657261626c655365743a20696e646578206f7574206f6620626f756e64735b57697468647261775d2054686520756e7374616b696e6720706572696f6420646964206e6f742070617373416363657373436f6e74726f6c3a2073656e646572206d75737420626520616e2061646d696e20746f206772616e745265656e7472616e637947756172643a207265656e7472616e742063616c6c005b57697468647261775d205468657265206973206e6f207374616b65206465706f73697420666f722074686973206163636f756e745b56616c69646174696f6e5d205f726577617264734164647265737320697320616c72656164792073657420746f20676976656e20616464726573735b56616c69646174696f6e5d205f726577617264734164647265737320697320746865207a65726f20616464726573735b4465706f7369745d20536f6d657468696e672077656e742077726f6e67207768696c65207472616e7366657272696e67207265776172645b56616c69646174696f6e5d20546865207374616b65206465706f7369742068617320746f206265206c6172676572207468616e20305b496e697469617465205769746864726177616c5d20596f75206861766520616c726561647920696e6974696174656420746865207769746864726177616c537761705374616b696e67436f6e74726163743a206d75737420686176652070617573657220726f6c6520746f20756e7061757365416363657373436f6e74726f6c3a2073656e646572206d75737420626520616e2061646d696e20746f207265766f6b655b56616c69646174696f6e5d205468652063616c6c6572206d7573742068617665206f776e657220726f6c6520746f20736574207265776172647320616464726573735b56616c69646174696f6e5d20546865206164647265737320646f6573206e6f7420636f6e7461696e206120636f6e7472616374536166654d6174683a206d756c7469706c69636174696f6e206f766572666c6f775b496e697469617465205769746864726177616c5d20496e76616c6964207769746864726177616c20616d6f756e745b57697468647261775d20576974686472617720616d6f756e74206973206e6f7420696e697469616c697a65645b57697468647261775d20536f6d657468696e672077656e742077726f6e67207768696c65207472616e7366657272696e6720796f7572207265776172645b56616c69646174696f6e5d205468652063616c6c6572206d7573742068617665206f776e657220726f6c6520746f2073657420746f6b656e2061646472657373436f6e747261637420696e7374616e63652068617320616c7265616479206265656e20696e697469616c697a65645b57697468647261775d20536f6d657468696e672077656e742077726f6e67207768696c65207472616e7366657272696e6720796f757220696e697469616c206465706f7369745b4465706f7369745d20596f7572206465706f73697420776f756c6420657863656564207468652063757272656e74207374616b696e67206c696d69745b56616c69646174696f6e5d205f6d61785374616b696e67416d6f756e742068617320746f206265206c6172676572207468616e20305b56616c69646174696f6e5d20496e76616c6964207377617020746f6b656e20616464726573735b56616c69646174696f6e5d206e6f7420656e6f756768207265776172647320616363756d756c617465645b56616c69646174696f6e5d206e6f7420656e6f75676820746f74616c207374616b6520616363756d756c617465645b77697468647261775d2052656d61696e696e67207374616b656465706f73697420616d6f756e74206d75737420626520686967686572207468616e20776974686472617720616d6f756e745b52657761726473205769746864726177616c5d20536f6d657468696e672077656e742077726f6e67207768696c65207472616e7366657272696e6720796f7572207265776172645b4465706f7369745d20536f6d657468696e672077656e742077726f6e6720647572696e672074686520746f6b656e207472616e736665725b496e697469617465205769746864726177616c5d20576974686472617720616d6f756e742065786365656420746865207374616b6520616d6f756e745b52657761726473205769746864726177616c5d20596f7520616c726561647920696e69746961746564207468652066756c6c207769746864726177616c5b56616c69646174696f6e5d205468652063616c6c6572206d75737420686176652072657761726473206469737472696275746f7220726f6c655b4465706f7369745d20596f75206861766520616c726561647920696e6974696174656420746865207769746864726177616c537761705374616b696e67436f6e74726163743a206d75737420686176652070617573657220726f6c6520746f2070617573655b52657761726473205769746864726177616c5d205468657265206973206e6f207374616b65206465706f73697420666f722074686973206163636f756e745b56616c69646174696f6e5d2054686973206163636f756e7420646f65736e277420686176652061207374616b65206465706f7369745b52657761726473205769746864726177616c5d205468652072657761726420616d6f756e742068617320746f206265206c6172676572207468616e20305b496e697469617465205769746864726177616c5d205468657265206973206e6f207374616b65206465706f73697420666f722074686973206163636f756e74416363657373436f6e74726f6c3a2063616e206f6e6c792072656e6f756e636520726f6c657320666f722073656c66a26469706673582212208db553788993ef6b409f879c569a2907b80dc0d45467bd60c6c2a5a276d1b46364736f6c63430006020033","linkReferences":{}},"methodIdentifiers":{"DEFAULT_ADMIN_ROLE()":"a217fddf","currentTotalStake()":"ce4843e9","deposit(uint256)":"b6b55f25","distributeRewards()":"6f4a2cd0","executeWithdrawal()":"fa45aa00","getRoleAdmin(bytes32)":"248a9ca3","getRoleMember(bytes32,uint256)":"9010d07c","getRoleMemberCount(bytes32)":"ca15c873","getStakeDetails(address)":"f41322ac","grantRole(bytes32,address)":"2f2ff15d","hasRole(bytes32,address)":"91d14854","initialize(address,address,uint256,uint256)":"eb990c59","initiateWithdrawal(uint256)":"12edde5e","maxStakingAmount()":"4d5d0806","pause()":"8456cb59","paused()":"5c975abb","renounceRole(bytes32,address)":"36568abe","revokeRole(bytes32,address)":"d547741f","rewardsAddress()":"c0973eed","rewardsDistributed()":"9c1454d4","rewardsWithdrawn()":"c413d100","setRewardAddress(address)":"5e00e679","setTokenAddress(address)":"26a4e8d2","token()":"fc0c546a","totalRewardsDistributed()":"ee172546","unpause()":"3f4ba83a","unstakingPeriod()":"f21c783b","version()":"54fd4d50","withdrawRewards()":"c7b8981c"},"id":0}