{"abi":[{"type":"function","name":"excludeArtifacts","inputs":[],"outputs":[{"name":"excludedArtifacts_","type":"string[]","internalType":"string[]"}],"stateMutability":"view"},{"type":"function","name":"excludeContracts","inputs":[],"outputs":[{"name":"excludedContracts_","type":"address[]","internalType":"address[]"}],"stateMutability":"view"},{"type":"function","name":"excludeSenders","inputs":[],"outputs":[{"name":"excludedSenders_","type":"address[]","internalType":"address[]"}],"stateMutability":"view"},{"type":"function","name":"targetArtifactSelectors","inputs":[],"outputs":[{"name":"targetedArtifactSelectors_","type":"tuple[]","internalType":"struct StdInvariant.FuzzSelector[]","components":[{"name":"addr","type":"address","internalType":"address"},{"name":"selectors","type":"bytes4[]","internalType":"bytes4[]"}]}],"stateMutability":"view"},{"type":"function","name":"targetArtifacts","inputs":[],"outputs":[{"name":"targetedArtifacts_","type":"string[]","internalType":"string[]"}],"stateMutability":"view"},{"type":"function","name":"targetContracts","inputs":[],"outputs":[{"name":"targetedContracts_","type":"address[]","internalType":"address[]"}],"stateMutability":"view"},{"type":"function","name":"targetSelectors","inputs":[],"outputs":[{"name":"targetedSelectors_","type":"tuple[]","internalType":"struct StdInvariant.FuzzSelector[]","components":[{"name":"addr","type":"address","internalType":"address"},{"name":"selectors","type":"bytes4[]","internalType":"bytes4[]"}]}],"stateMutability":"view"},{"type":"function","name":"targetSenders","inputs":[],"outputs":[{"name":"targetedSenders_","type":"address[]","internalType":"address[]"}],"stateMutability":"view"}],"bytecode":{"object":"0x608060405234801561001057600080fd5b506107b9806100206000396000f3fe608060405234801561001057600080fd5b50600436106100885760003560e01c806385226c811161005b57806385226c81146100d0578063916a17c6146100e5578063b5508aa9146100ed578063e20c9f71146100f557610088565b80631ed7831c1461008d5780633e5e3c23146100ab5780633f7286f4146100b357806366d9a9a0146100bb575b600080fd5b6100956100fd565b6040516100a291906105f2565b60405180910390f35b61009561015f565b6100956101bf565b6100c361021f565b6040516100a291906106d6565b6100d861030e565b6040516100a2919061063f565b6100c36103dd565b6100d86104c3565b610095610592565b6060600180548060200260200160405190810160405280929190818152602001828054801561015557602002820191906000526020600020905b81546001600160a01b03168152600190910190602001808311610137575b5050505050905090565b60606003805480602002602001604051908101604052809291908181526020018280548015610155576020028201919060005260206000209081546001600160a01b03168152600190910190602001808311610137575050505050905090565b60606002805480602002602001604051908101604052809291908181526020018280548015610155576020028201919060005260206000209081546001600160a01b03168152600190910190602001808311610137575050505050905090565b60606006805480602002602001604051908101604052809291908181526020016000905b828210156103055760008481526020908190206040805180820182526002860290920180546001600160a01b031683526001810180548351818702810187019094528084529394919385830193928301828280156102ed57602002820191906000526020600020906000905b82829054906101000a900460e01b6001600160e01b031916815260200190600401906020826003010492830192600103820291508084116102af5790505b50505050508152505081526020019060010190610243565b50505050905090565b60606005805480602002602001604051908101604052809291908181526020016000905b828210156103055760008481526020908190208301805460408051601f60026000196101006001871615020190941693909304928301859004850281018501909152818152928301828280156103c95780601f1061039e576101008083540402835291602001916103c9565b820191906000526020600020905b8154815290600101906020018083116103ac57829003601f168201915b505050505081526020019060010190610332565b60606007805480602002602001604051908101604052809291908181526020016000905b828210156103055760008481526020908190206040805180820182526002860290920180546001600160a01b031683526001810180548351818702810187019094528084529394919385830193928301828280156104ab57602002820191906000526020600020906000905b82829054906101000a900460e01b6001600160e01b0319168152602001906004019060208260030104928301926001038202915080841161046d5790505b50505050508152505081526020019060010190610401565b60606004805480602002602001604051908101604052809291908181526020016000905b828210156103055760008481526020908190208301805460408051601f600260001961010060018716150201909416939093049283018590048502810185019091528181529283018282801561057e5780601f106105535761010080835404028352916020019161057e565b820191906000526020600020905b81548152906001019060200180831161056157829003601f168201915b5050505050815260200190600101906104e7565b60606000805480602002602001604051908101604052809291908181526020018280548015610155576020028201919060005260206000209081546001600160a01b03168152600190910190602001808311610137575050505050905090565b6020808252825182820181905260009190848201906040850190845b818110156106335783516001600160a01b03168352928401929184019160010161060e565b50909695505050505050565b6000602080830181845280855180835260408601915060408482028701019250838701855b828110156106c957878503603f1901845281518051808752885b81811015610699578281018901518882018a0152880161067e565b818111156106a9578989838a0101525b50601f01601f191695909501860194509285019290850190600101610664565b5092979650505050505050565b60208082528251828201819052600091906040908185019080840286018301878501865b8381101561077557888303603f19018552815180516001600160a01b03168452870151878401879052805187850181905260608501918901908a905b808210156107605782516001600160e01b0319168452928a0192918a019160019190910190610736565b505050948701949250908601906001016106fa565b50909897505050505050505056fea2646970667358221220ac2a2cd186c1a4815e8699f02fde7c0c2b9bd7c930138d924fafb54f9aec031f64736f6c63430006020033","linkReferences":{}},"methodIdentifiers":{"excludeArtifacts()":"b5508aa9","excludeContracts()":"e20c9f71","excludeSenders()":"1ed7831c","targetArtifactSelectors()":"66d9a9a0","targetArtifacts()":"85226c81","targetContracts()":"3f7286f4","targetSelectors()":"916a17c6","targetSenders()":"3e5e3c23"},"id":6}