{"abi":[{"type":"function","name":"paused","inputs":[],"outputs":[{"name":"","type":"bool","internalType":"bool"}],"stateMutability":"view"},{"type":"event","name":"Paused","inputs":[{"name":"account","type":"address","indexed":false,"internalType":"address"}],"anonymous":false},{"type":"event","name":"Unpaused","inputs":[{"name":"account","type":"address","indexed":false,"internalType":"address"}],"anonymous":false}],"bytecode":{"object":"0x6080604052348015600f57600080fd5b5060868061001e6000396000f3fe6080604052348015600f57600080fd5b506004361060285760003560e01c80635c975abb14602d575b600080fd5b60336047565b604080519115158252519081900360200190f35b60655460ff169056fea264697066735822122026a4e901b2c3bf789312310d321dfa724c295fdc728cc46f22f623111a31ca5264736f6c63430006020033","linkReferences":{}},"methodIdentifiers":{"paused()":"5c975abb"},"id":27}