{"abi":[{"type":"function","name":"DEFAULT_ADMIN_ROLE","inputs":[],"outputs":[{"name":"","type":"bytes32","internalType":"bytes32"}],"stateMutability":"view"},{"type":"function","name":"currentTotalStake","inputs":[],"outputs":[{"name":"","type":"uint256","internalType":"uint256"}],"stateMutability":"view"},{"type":"function","name":"deposit","inputs":[{"name":"amount","type":"uint256","internalType":"uint256"}],"outputs":[],"stateMutability":"nonpayable"},{"type":"function","name":"distributeRewards","inputs":[],"outputs":[],"stateMutability":"nonpayable"},{"type":"function","name":"executeWithdrawal","inputs":[],"outputs":[],"stateMutability":"nonpayable"},{"type":"function","name":"getRoleAdmin","inputs":[{"name":"role","type":"bytes32","internalType":"bytes32"}],"outputs":[{"name":"","type":"bytes32","internalType":"bytes32"}],"stateMutability":"view"},{"type":"function","name":"getRoleMember","inputs":[{"name":"role","type":"bytes32","internalType":"bytes32"},{"name":"index","type":"uint256","internalType":"uint256"}],"outputs":[{"name":"","type":"address","internalType":"address"}],"stateMutability":"view"},{"type":"function","name":"getRoleMemberCount","inputs":[{"name":"role","type":"bytes32","internalType":"bytes32"}],"outputs":[{"name":"","type":"uint256","internalType":"uint256"}],"stateMutability":"view"},{"type":"function","name":"getStakeDetails","inputs":[{"name":"account","type":"address","internalType":"address"}],"outputs":[{"name":"initialDeposit","type":"uint256","internalType":"uint256"},{"name":"startDate","type":"uint256","internalType":"uint256"},{"name":"endDate","type":"uint256","internalType":"uint256"},{"name":"rewards","type":"uint256","internalType":"uint256"}],"stateMutability":"view"},{"type":"function","name":"grantRole","inputs":[{"name":"role","type":"bytes32","internalType":"bytes32"},{"name":"account","type":"address","internalType":"address"}],"outputs":[],"stateMutability":"nonpayable"},{"type":"function","name":"hasMigrated","inputs":[],"outputs":[{"name":"","type":"bool","internalType":"bool"}],"stateMutability":"view"},{"type":"function","name":"hasRole","inputs":[{"name":"role","type":"bytes32","internalType":"bytes32"},{"name":"account","type":"address","internalType":"address"}],"outputs":[{"name":"","type":"bool","internalType":"bool"}],"stateMutability":"view"},{"type":"function","name":"initialize","inputs":[{"name":"_token","type":"address","internalType":"address"},{"name":"_rewardsAddress","type":"address","internalType":"address"},{"name":"_maxStakingAmount","type":"uint256","internalType":"uint256"},{"name":"_unstakingPeriod","type":"uint256","internalType":"uint256"}],"outputs":[],"stateMutability":"nonpayable"},{"type":"function","name":"initiateWithdrawal","inputs":[{"name":"withdrawAmount","type":"uint256","internalType":"uint256"}],"outputs":[],"stateMutability":"nonpayable"},{"type":"function","name":"maxStakingAmount","inputs":[],"outputs":[{"name":"","type":"uint256","internalType":"uint256"}],"stateMutability":"view"},{"type":"function","name":"migrateSwap","inputs":[{"name":"_address","type":"address","internalType":"address"},{"name":"_swapHolder","type":"address","internalType":"address"}],"outputs":[],"stateMutability":"nonpayable"},{"type":"function","name":"pause","inputs":[],"outputs":[],"stateMutability":"nonpayable"},{"type":"function","name":"paused","inputs":[],"outputs":[{"name":"","type":"bool","internalType":"bool"}],"stateMutability":"view"},{"type":"function","name":"renounceRole","inputs":[{"name":"role","type":"bytes32","internalType":"bytes32"},{"name":"account","type":"address","internalType":"address"}],"outputs":[],"stateMutability":"nonpayable"},{"type":"function","name":"revokeRole","inputs":[{"name":"role","type":"bytes32","internalType":"bytes32"},{"name":"account","type":"address","internalType":"address"}],"outputs":[],"stateMutability":"nonpayable"},{"type":"function","name":"rewardsAddress","inputs":[],"outputs":[{"name":"","type":"address","internalType":"address"}],"stateMutability":"view"},{"type":"function","name":"rewardsDistributed","inputs":[],"outputs":[{"name":"","type":"uint256","internalType":"uint256"}],"stateMutability":"view"},{"type":"function","name":"rewardsWithdrawn","inputs":[],"outputs":[{"name":"","type":"uint256","internalType":"uint256"}],"stateMutability":"view"},{"type":"function","name":"setRewardAddress","inputs":[{"name":"_rewardsAddress","type":"address","internalType":"address"}],"outputs":[],"stateMutability":"nonpayable"},{"type":"function","name":"setTokenAddress","inputs":[{"name":"_token","type":"address","internalType":"address"}],"outputs":[],"stateMutability":"nonpayable"},{"type":"function","name":"token","inputs":[],"outputs":[{"name":"","type":"address","internalType":"contract IERC20"}],"stateMutability":"view"},{"type":"function","name":"totalRewardsDistributed","inputs":[],"outputs":[{"name":"","type":"uint256","internalType":"uint256"}],"stateMutability":"view"},{"type":"function","name":"unpause","inputs":[],"outputs":[],"stateMutability":"nonpayable"},{"type":"function","name":"unstakingPeriod","inputs":[],"outputs":[{"name":"","type":"uint256","internalType":"uint256"}],"stateMutability":"view"},{"type":"function","name":"version","inputs":[],"outputs":[{"name":"","type":"string","internalType":"string"}],"stateMutability":"pure"},{"type":"function","name":"withdrawRewards","inputs":[],"outputs":[],"stateMutability":"nonpayable"},{"type":"event","name":"Paused","inputs":[{"name":"account","type":"address","indexed":false,"internalType":"address"}],"anonymous":false},{"type":"event","name":"RewardsDistributed","inputs":[{"name":"amount","type":"uint256","indexed":false,"internalType":"uint256"}],"anonymous":false},{"type":"event","name":"RewardsWithdrawn","inputs":[{"name":"account","type":"address","indexed":true,"internalType":"address"},{"name":"reward","type":"uint256","indexed":false,"internalType":"uint256"}],"anonymous":false},{"type":"event","name":"RoleGranted","inputs":[{"name":"role","type":"bytes32","indexed":true,"internalType":"bytes32"},{"name":"account","type":"address","indexed":true,"internalType":"address"},{"name":"sender","type":"address","indexed":true,"internalType":"address"}],"anonymous":false},{"type":"event","name":"RoleRevoked","inputs":[{"name":"role","type":"bytes32","indexed":true,"internalType":"bytes32"},{"name":"account","type":"address","indexed":true,"internalType":"address"},{"name":"sender","type":"address","indexed":true,"internalType":"address"}],"anonymous":false},{"type":"event","name":"StakeDeposited","inputs":[{"name":"account","type":"address","indexed":true,"internalType":"address"},{"name":"amount","type":"uint256","indexed":false,"internalType":"uint256"}],"anonymous":false},{"type":"event","name":"Unpaused","inputs":[{"name":"account","type":"address","indexed":false,"internalType":"address"}],"anonymous":false},{"type":"event","name":"WithdrawExecuted","inputs":[{"name":"account","type":"address","indexed":true,"internalType":"address"},{"name":"amount","type":"uint256","indexed":false,"internalType":"uint256"},{"name":"reward","type":"uint256","indexed":false,"internalType":"uint256"}],"anonymous":false},{"type":"event","name":"WithdrawInitiated","inputs":[{"name":"account","type":"address","indexed":true,"internalType":"address"},{"name":"amount","type":"uint256","indexed":false,"internalType":"uint256"},{"name":"initiateDate","type":"uint256","indexed":false,"internalType":"uint256"}],"anonymous":false}],"bytecode":{"object":"0x608060405234801561001057600080fd5b5061360f806100206000396000f3fe608060405234801561001057600080fd5b50600436106101e55760003560e01c80639c1454d41161010f578063d547741f116100a2578063f21c783b11610071578063f21c783b14610510578063f41322ac14610518578063fa45aa0014610564578063fc0c546a1461056c576101e5565b8063d547741f14610472578063e038caf81461049e578063eb990c59146104cc578063ee17254614610508576101e5565b8063c413d100116100de578063c413d1001461043d578063c7b8981c14610445578063ca15c8731461044d578063ce4843e91461046a576101e5565b80639c1454d414610408578063a217fddf14610410578063b6b55f2514610418578063c0973eed14610435576101e5565b806354fd4d50116101875780636f4a2cd0116101565780636f4a2cd01461038d5780638456cb59146103955780639010d07c1461039d57806391d14854146103dc576101e5565b806354fd4d50146102c65780635c975abb146103435780635e00e6791461035f5780636a17661314610385576101e5565b80632f2ff15d116101c35780632f2ff15d1461025e57806336568abe1461028a5780633f4ba83a146102b65780634d5d0806146102be576101e5565b806312edde5e146101ea578063248a9ca31461020957806326a4e8d214610238575b600080fd5b6102076004803603602081101561020057600080fd5b5035610574565b005b6102266004803603602081101561021f57600080fd5b50356107f2565b60408051918252519081900360200190f35b6102076004803603602081101561024e57600080fd5b50356001600160a01b0316610807565b6102076004803603604081101561027457600080fd5b50803590602001356001600160a01b0316610976565b610207600480360360408110156102a057600080fd5b50803590602001356001600160a01b03166109dd565b610207610a3e565b610226610aaf565b6102ce610ab5565b6040805160208082528351818301528351919283929083019185019080838360005b838110156103085781810151838201526020016102f0565b50505050905090810190601f1680156103355780820380516001836020036101000a031916815260200191505b509250505060405180910390f35b61034b610ad1565b604080519115158252519081900360200190f35b6102076004803603602081101561037557600080fd5b50356001600160a01b0316610ada565b61034b610c42565b610207610c4c565b610207610d71565b6103c0600480360360408110156103b357600080fd5b5080359060200135610de0565b604080516001600160a01b039092168252519081900360200190f35b61034b600480360360408110156103f257600080fd5b50803590602001356001600160a01b0316610e07565b610226610e25565b610226610e2c565b6102076004803603602081101561042e57600080fd5b5035610e31565b6103c0611262565b610226611271565b610207611278565b6102266004803603602081101561046357600080fd5b5035611574565b61022661158b565b6102076004803603604081101561048857600080fd5b50803590602001356001600160a01b0316611591565b610207600480360360408110156104b457600080fd5b506001600160a01b03813581169160200135166115ea565b610207600480360360808110156104e257600080fd5b506001600160a01b03813581169160208101359091169060408101359060600135611855565b6102266118af565b6102266118b6565b61053e6004803603602081101561052e57600080fd5b50356001600160a01b03166118bc565b604080519485526020850193909352838301919091526060830152519081900360800190f35b6102076119cb565b6103c0611ef6565b60c95460ff166105b9576040805162461bcd60e51b815260206004820152601f6024820152600080516020612deb833981519152604482015290519081900360640190fd5b60c9805460ff1916905560975460ff161561060e576040805162461bcd60e51b815260206004820152601060248201526f14185d5cd8589b194e881c185d5cd95960821b604482015290519081900360640190fd5b33600090815261010560209081526040808320610106909252909120826106665760405162461bcd60e51b815260040180806020018281038252602f81526020018061308d602f913960400191505060405180910390fd5b81548311156106a65760405162461bcd60e51b815260040180806020018281038252603d81526020018061339d603d913960400191505060405180910390fd5b600582015460ff1680156106ba5750815415155b6106f55760405162461bcd60e51b815260040180806020018281038252604081526020018061356b6040913960400191505060405180910390fd5b6002820154156107365760405162461bcd60e51b815260040180806020018281038252603f815260200180612f51603f913960400191505060405180910390fd5b6001810154156107775760405162461bcd60e51b815260040180806020018281038252603f815260200180612f51603f913960400191505060405180910390fd5b426002830181905561010054600484015560018201849055815560fe546107a4908463ffffffff611f0516565b60fe5560408051848152426020820152815133927ff908b12fe0d8dc1ff4fda115e5bace3a7ad1aad889daca8e638ca0b29f806577928290030190a2505060c9805460ff1916600117905550565b60009081526065602052604090206002015490565b8061081a816001600160a01b0316611f47565b6108555760405162461bcd60e51b81526004018080602001828103825260348152602001806130386034913960400191505060405180910390fd5b60975460ff166108a3576040805162461bcd60e51b815260206004820152601460248201527314185d5cd8589b194e881b9bdd081c185d5cd95960621b604482015290519081900360640190fd5b60408051694f574e45525f524f4c4560b01b8152905190819003600a0190206108d3906108ce611f83565b610e07565b61090e5760405162461bcd60e51b81526004018080602001828103825260418152602001806131276041913960600191505060405180910390fd5b6001600160a01b0382166109535760405162461bcd60e51b81526004018080602001828103825260278152602001806132506027913960400191505060405180910390fd5b5060fb80546001600160a01b0319166001600160a01b0392909216919091179055565b600082815260656020526040902060020154610994906108ce611f83565b6109cf5760405162461bcd60e51b815260040180806020018281038252602f815260200180612dbc602f913960400191505060405180910390fd5b6109d98282611f87565b5050565b6109e5611f83565b6001600160a01b0316816001600160a01b031614610a345760405162461bcd60e51b815260040180806020018281038252602f8152602001806135ab602f913960400191505060405180910390fd5b6109d98282611ff6565b604080516a5041555345525f524f4c4560a81b8152905190819003600b019020610a6a906108ce611f83565b610aa55760405162461bcd60e51b8152600401808060200182810382526035815260200180612f906035913960400191505060405180910390fd5b610aad612065565b565b60fd5481565b6040805180820190915260028152613b1960f11b602082015290565b60975460ff1690565b60975460ff16610b28576040805162461bcd60e51b815260206004820152601460248201527314185d5cd8589b194e881b9bdd081c185d5cd95960621b604482015290519081900360640190fd5b60408051694f574e45525f524f4c4560b01b8152905190819003600a019020610b53906108ce611f83565b610b8e5760405162461bcd60e51b8152600401808060200182810382526043815260200180612ff56043913960600191505060405180910390fd5b6001600160a01b038116610bd35760405162461bcd60e51b8152600401808060200182810382526030815260200180612eb36030913960400191505060405180910390fd5b60fc546001600160a01b0382811691161415610c205760405162461bcd60e51b815260040180806020018281038252603c815260200180612e40603c913960400191505060405180910390fd5b60fc80546001600160a01b0319166001600160a01b0392909216919091179055565b6101045460ff1681565b60c95460ff16610c91576040805162461bcd60e51b815260206004820152601f6024820152600080516020612deb833981519152604482015290519081900360640190fd5b60c9805460ff1916905560975460ff1615610ce6576040805162461bcd60e51b815260206004820152601060248201526f14185d5cd8589b194e881c185d5cd95960821b604482015290519081900360640190fd5b6040805177524557415244535f4449535452494255544f525f524f4c4560401b81529051908190036018019020610d1f906108ce611f83565b610d5a5760405162461bcd60e51b815260040180806020018281038252603a815260200180613418603a913960400191505060405180910390fd5b610d62612103565b60c9805460ff19166001179055565b604080516a5041555345525f524f4c4560a81b8152905190819003600b019020610d9d906108ce611f83565b610dd85760405162461bcd60e51b81526004018080602001828103825260338152602001806134856033913960400191505060405180910390fd5b610aad612394565b6000828152606560205260408120610dfe908363ffffffff61241516565b90505b92915050565b6000828152606560205260408120610dfe908363ffffffff61242116565b6101015481565b600081565b60c95460ff16610e76576040805162461bcd60e51b815260206004820152601f6024820152600080516020612deb833981519152604482015290519081900360640190fd5b60c9805460ff1916905560975460ff1615610ecb576040805162461bcd60e51b815260206004820152601060248201526f14185d5cd8589b194e881c185d5cd95960821b604482015290519081900360640190fd5b33600090815261010560205260409020600281015415610f1c5760405162461bcd60e51b81526004018080602001828103825260338152602001806134526033913960400191505060405180910390fd5b80546040805160c081018252828152600184015460208201526002840154918101919091526003830154606082015260048301546080820152600583015460ff16151560a0820152600090610f7090612436565b90506000610f9482610f88858863ffffffff6124a616565b9063ffffffff6124a616565b9050828111610fd45760405162461bcd60e51b8152600401808060200182810382526036815260200180612f1b6036913960400191505060405180910390fd5b6000610ff8610fe9838663ffffffff611f0516565b60fe549063ffffffff6124a616565b905060fd5481111561103b5760405162461bcd60e51b815260040180806020018281038252603d8152602001806131dd603d913960400191505060405180910390fd5b8185554260018087019190915560058601805460ff1916909117905561010054600386015560fe81905560fb54604080516323b872dd60e01b81523360048201523060248201526044810189905290516001600160a01b03909216916323b872dd916064808201926020929091908290030181600087803b1580156110bf57600080fd5b505af11580156110d3573d6000803e3d6000fd5b505050506040513d60208110156110e957600080fd5b50516111265760405162461bcd60e51b81526004018080602001828103825260388152602001806133656038913960400191505060405180910390fd5b821561120a5761010254611140908463ffffffff6124a616565b6101025560fb5460fc54604080516323b872dd60e01b81526001600160a01b03928316600482015230602482015260448101879052905191909216916323b872dd9160648083019260209291908290030181600087803b1580156111a357600080fd5b505af11580156111b7573d6000803e3d6000fd5b505050506040513d60208110156111cd57600080fd5b505161120a5760405162461bcd60e51b8152600401808060200182810382526038815260200180612ee36038913960400191505060405180910390fd5b337f0a7bb2e28cc4698aac06db79cf9163bfcc20719286cf59fa7d492ceda1b8edc261123c888663ffffffff6124a616565b60408051918252519081900360200190a2505060c9805460ff1916600117905550505050565b60fc546001600160a01b031681565b6101025481565b60c95460ff166112bd576040805162461bcd60e51b815260206004820152601f6024820152600080516020612deb833981519152604482015290519081900360640190fd5b60c9805460ff1916905560975460ff1615611312576040805162461bcd60e51b815260206004820152601060248201526f14185d5cd8589b194e881c185d5cd95960821b604482015290519081900360640190fd5b33600090815261010560205260409020600581015460ff1680156113365750805415155b6113715760405162461bcd60e51b815260040180806020018281038252603f8152602001806134b8603f913960400191505060405180910390fd5b6002810154156113b25760405162461bcd60e51b815260040180806020018281038252603e8152602001806133da603e913960400191505060405180910390fd5b6040805160c08101825282548152600183015460208201526002830154918101919091526003820154606082015260048201546080820152600582015460ff16151560a082015260009061140590612436565b9050600081116114465760405162461bcd60e51b815260040180806020018281038252603e81526020018061352d603e913960400191505060405180910390fd5b61010054600383015561010254611463908263ffffffff6124a616565b6101025560fb5460fc54604080516323b872dd60e01b81526001600160a01b03928316600482015233602482015260448101859052905191909216916323b872dd9160648083019260209291908290030181600087803b1580156114c657600080fd5b505af11580156114da573d6000803e3d6000fd5b505050506040513d60208110156114f057600080fd5b505161152d5760405162461bcd60e51b815260040180806020018281038252604881526020018061331d6048913960600191505060405180910390fd5b60408051828152905133917f8a43c4352486ec339f487f64af78ca5cbf06cd47833f073d3baf3a193e503161919081900360200190a2505060c9805460ff19166001179055565b6000818152606560205260408120610e0190612500565b60fe5481565b6000828152606560205260409020600201546115af906108ce611f83565b610a345760405162461bcd60e51b8152600401808060200182810382526030815260200180612fc56030913960400191505060405180910390fd5b6001600160a01b03821661162f5760405162461bcd60e51b81526004018080602001828103825260278152602001806132506027913960400191505060405180910390fd5b60408051694f574e45525f524f4c4560b01b8152905190819003600a01902061165a906108ce611f83565b6116955760405162461bcd60e51b8152600401808060200182810382526037815260200180612e7c6037913960400191505060405180910390fd5b6101045460ff16156116a657600080fd5b60fb54604080516370a0823160e01b815230600482015290516000926001600160a01b0316916370a08231916024808301926020929190829003018186803b1580156116f157600080fd5b505afa158015611705573d6000803e3d6000fd5b505050506040513d602081101561171b57600080fd5b5051610104805460ff1916600117905560fb546040805163a9059cbb60e01b81526000600482018190526024820185905291519394506001600160a01b039092169263a9059cbb926044808201936020939283900390910190829087803b15801561178557600080fd5b505af1158015611799573d6000803e3d6000fd5b505050506040513d60208110156117af57600080fd5b505060fb80546001600160a01b0319166001600160a01b038581169190911791829055604080516323b872dd60e01b8152858316600482015230602482015260448101859052905192909116916323b872dd916064808201926020929091908290030181600087803b15801561182457600080fd5b505af1158015611838573d6000803e3d6000fd5b505050506040513d602081101561184e57600080fd5b5050505050565b83611868816001600160a01b0316611f47565b6118a35760405162461bcd60e51b81526004018080602001828103825260348152602001806130386034913960400191505060405180910390fd5b61184e8585858561250b565b6101035481565b60ff5481565b6001600160a01b0381166000908152610105602052604081206005015481908190819060ff16801561190657506001600160a01b0385166000908152610105602052604090205415155b6119415760405162461bcd60e51b81526004018080602001828103825260368152602001806134f76036913960400191505060405180910390fd5b611949612d1b565b506001600160a01b03851660009081526101056020908152604091829020825160c081018452815480825260018301549382018490526002830154948201859052600383015460608301526004830154608083015260059092015460ff16151560a0820152929091906119bb84612436565b9450945094509450509193509193565b60c95460ff16611a10576040805162461bcd60e51b815260206004820152601f6024820152600080516020612deb833981519152604482015290519081900360640190fd5b60c9805460ff1916905560975460ff1615611a65576040805162461bcd60e51b815260206004820152601060248201526f14185d5cd8589b194e881c185d5cd95960821b604482015290519081900360640190fd5b611a6d612d1b565b503360009081526101056020908152604091829020825160c08101845281548152600182015492810192909252600281015492820192909252600382015460608201526004820154608082015260059091015460ff16151560a0820152611ad2612d53565b50336000908152610106602090815260409182902082518084018452815481526001909101549181019190915290820151151580611b135750602081015115155b611b4e5760405162461bcd60e51b815260040180806020018281038252602d8152602001806130bc602d913960400191505060405180910390fd5b8160a001518015611b5f5750815115155b611b9a5760405162461bcd60e51b8152600401808060200182810382526035815260200180612e0b6035913960400191505060405180910390fd5b6000620151808360400151420381611bae57fe5b0490508060ff541115611bf25760405162461bcd60e51b815260040180806020018281038252602c815260200180612d90602c913960400191505060405180910390fd5b6000826020015160001415611c08578351611c0e565b82602001515b90506000611c1b85612436565b90508185600001511015611c605760405162461bcd60e51b815260040180806020018281038252604c8152602001806132d1604c913960600191505060405180910390fd5b8451821015611cb1573360009081526101056020526040902054611c8a908363ffffffff611f0516565b33600090815261010560205260408120918255600282015561010054600390910155611ced565b336000908152610105602052604081208181556001810182905560028101829055600381018290556004810191909155600501805460ff191690555b60fb546040805163a9059cbb60e01b81523360048201526024810185905290516001600160a01b039092169163a9059cbb916044808201926020929091908290030181600087803b158015611d4157600080fd5b505af1158015611d55573d6000803e3d6000fd5b505050506040513d6020811015611d6b57600080fd5b5051611da85760405162461bcd60e51b81526004018080602001828103825260478152602001806131966047913960600191505060405180910390fd5b8015611e8c5761010254611dc2908263ffffffff6124a616565b6101025560fb5460fc54604080516323b872dd60e01b81526001600160a01b03928316600482015233602482015260448101859052905191909216916323b872dd9160648083019260209291908290030181600087803b158015611e2557600080fd5b505af1158015611e39573d6000803e3d6000fd5b505050506040513d6020811015611e4f57600080fd5b5051611e8c5760405162461bcd60e51b815260040180806020018281038252603e8152602001806130e9603e913960400191505060405180910390fd5b336000818152610106602090815260408083206001810184905592909255815185815290810184905281517ff6c0fc94edc8fd2a37514f1fb85af88fca386b00a54127b912273e6b83322e08929181900390910190a2505060c9805460ff19166001179055505050565b60fb546001600160a01b031681565b6000610dfe83836040518060400160405280601e81526020017f536166654d6174683a207375627472616374696f6e206f766572666c6f77000081525061269a565b6000813f7fc5d2460186f7233c927e7db2dcc703c0e500b653ca82273b7bfad8045d85a470818114801590611f7b57508115155b949350505050565b3390565b6000828152606560205260409020611fa5908263ffffffff61273116565b156109d957611fb2611f83565b6001600160a01b0316816001600160a01b0316837f2f8788117e7eff1d82e926ec794901d17c78024a50270940304540a733656f0d60405160405180910390a45050565b6000828152606560205260409020612014908263ffffffff61274616565b156109d957612021611f83565b6001600160a01b0316816001600160a01b0316837ff6391f5c32d9c69d2a47ea670b442974b53935d1edc7fd64eb21e047a839171b60405160405180910390a45050565b60975460ff166120b3576040805162461bcd60e51b815260206004820152601460248201527314185d5cd8589b194e881b9bdd081c185d5cd95960621b604482015290519081900360640190fd5b6097805460ff191690557f5db9ee0a495bf2e6ff9c91a7834c1ba4fdd244a5e8aa4e537bd38aeae4b073aa6120e6611f83565b604080516001600160a01b039092168252519081900360200190a1565b60975460ff161561214e576040805162461bcd60e51b815260206004820152601060248201526f14185d5cd8589b194e881c185d5cd95960821b604482015290519081900360640190fd5b6040805177524557415244535f4449535452494255544f525f524f4c4560401b81529051908190036018019020612187906108ce611f83565b6121c25760405162461bcd60e51b815260040180806020018281038252603a815260200180613418603a913960400191505060405180910390fd5b600060fe54116122035760405162461bcd60e51b815260040180806020018281038252602f8152602001806132a2602f913960400191505060405180910390fd5b60fb5460fc54604080516370a0823160e01b81526001600160a01b039283166004820152905160009392909216916370a0823191602480820192602092909190829003018186803b15801561225757600080fd5b505afa15801561226b573d6000803e3d6000fd5b505050506040513d602081101561228157600080fd5b50519050806122c15760405162461bcd60e51b815260040180806020018281038252602b815260200180613277602b913960400191505060405180910390fd5b60006122ec610101546122e061010254856124a690919063ffffffff16565b9063ffffffff611f0516565b9050600061231d60fe54612311670de0b6b3a76400008561275b90919063ffffffff16565b9063ffffffff6127b416565b61010054909150612334908263ffffffff6124a616565b6101005561010183905560006101025561010354612358908363ffffffff6124a616565b610103556040805183815290517f6d1c76d614228b523baa4dcd9539e2c713b54ff4ab3ff2d1627e7f6cd32be4429181900360200190a1505050565b60975460ff16156123df576040805162461bcd60e51b815260206004820152601060248201526f14185d5cd8589b194e881c185d5cd95960821b604482015290519081900360640190fd5b6097805460ff191660011790557f62e78cea01bee320cd4e420270b5ea74000d11b0c9f74754ebdbfc544b05a2586120e6611f83565b6000610dfe83836127f6565b6000610dfe836001600160a01b03841661285a565b604081015160009081906124635760608301516101005461245c9163ffffffff611f0516565b905061247f565b6060830151608084015161247c9163ffffffff611f0516565b90505b825161249f90670de0b6b3a764000090612311908463ffffffff61275b16565b9392505050565b600082820183811015610dfe576040805162461bcd60e51b815260206004820152601b60248201527f536166654d6174683a206164646974696f6e206f766572666c6f770000000000604482015290519081900360640190fd5b6000610e0182612872565b600054610100900460ff16806125245750612524612876565b80612532575060005460ff16155b61256d5760405162461bcd60e51b815260040180806020018281038252602e815260200180613168602e913960400191505060405180910390fd5b600054610100900460ff16158015612598576000805460ff1961ff0019909116610100171660011790555b6001600160a01b0385166125dd5760405162461bcd60e51b81526004018080602001828103825260278152602001806132506027913960400191505060405180910390fd5b6000831161261c5760405162461bcd60e51b815260040180806020018281038252603681526020018061321a6036913960400191505060405180910390fd5b61262461287c565b61262c61287c565b61263461291e565b61263c6129c9565b612644612a77565b61264c610d71565b61265584610ada565b61265d610a3e565b60fb80546001600160a01b0319166001600160a01b03871617905560fd83905560ff829055801561184e576000805461ff00191690555050505050565b600081848411156127295760405162461bcd60e51b81526004018080602001828103825283818151815260200191508051906020019080838360005b838110156126ee5781810151838201526020016126d6565b50505050905090810190601f16801561271b5780820380516001836020036101000a031916815260200191505b509250505060405180910390fd5b505050900390565b6000610dfe836001600160a01b038416612ba6565b6000610dfe836001600160a01b038416612bf0565b60008261276a57506000610e01565b8282028284828161277757fe5b0414610dfe5760405162461bcd60e51b815260040180806020018281038252602181526020018061306c6021913960400191505060405180910390fd5b6000610dfe83836040518060400160405280601a81526020017f536166654d6174683a206469766973696f6e206279207a65726f000000000000815250612cb6565b815460009082106128385760405162461bcd60e51b8152600401808060200182810382526022815260200180612d6e6022913960400191505060405180910390fd5b82600001828154811061284757fe5b9060005260206000200154905092915050565b60009081526001919091016020526040902054151590565b5490565b303b1590565b600054610100900460ff16806128955750612895612876565b806128a3575060005460ff16155b6128de5760405162461bcd60e51b815260040180806020018281038252602e815260200180613168602e913960400191505060405180910390fd5b600054610100900460ff16158015612909576000805460ff1961ff0019909116610100171660011790555b801561291b576000805461ff00191690555b50565b600054610100900460ff16806129375750612937612876565b80612945575060005460ff16155b6129805760405162461bcd60e51b815260040180806020018281038252602e815260200180613168602e913960400191505060405180910390fd5b600054610100900460ff161580156129ab576000805460ff1961ff0019909116610100171660011790555b6097805460ff19169055801561291b576000805461ff001916905550565b600054610100900460ff16806129e257506129e2612876565b806129f0575060005460ff16155b612a2b5760405162461bcd60e51b815260040180806020018281038252602e815260200180613168602e913960400191505060405180910390fd5b600054610100900460ff16158015612a56576000805460ff1961ff0019909116610100171660011790555b60c9805460ff19166001179055801561291b576000805461ff001916905550565b600054610100900460ff1680612a905750612a90612876565b80612a9e575060005460ff16155b612ad95760405162461bcd60e51b815260040180806020018281038252602e815260200180613168602e913960400191505060405180910390fd5b600054610100900460ff16158015612b04576000805460ff1961ff0019909116610100171660011790555b612b166000612b11611f83565b6109cf565b604080516a5041555345525f524f4c4560a81b8152905190819003600b019020612b4290612b11611f83565b60408051694f574e45525f524f4c4560b01b8152905190819003600a019020612b6d90612b11611f83565b6040805177524557415244535f4449535452494255544f525f524f4c4560401b8152905190819003601801902061290990612b11611f83565b6000612bb2838361285a565b612be857508154600181810184556000848152602080822090930184905584548482528286019093526040902091909155610e01565b506000610e01565b60008181526001830160205260408120548015612cac5783546000198083019190810190600090879083908110612c2357fe5b9060005260206000200154905080876000018481548110612c4057fe5b600091825260208083209091019290925582815260018981019092526040902090840190558654879080612c7057fe5b60019003818190600052602060002001600090559055866001016000878152602001908152602001600020600090556001945050505050610e01565b6000915050610e01565b60008183612d055760405162461bcd60e51b81526020600482018181528351602484015283519092839260449091019190850190808383600083156126ee5781810151838201526020016126d6565b506000838581612d1157fe5b0495945050505050565b6040518060c0016040528060008152602001600081526020016000815260200160008152602001600081526020016000151581525090565b60405180604001604052806000815260200160008152509056fe456e756d657261626c655365743a20696e646578206f7574206f6620626f756e64735b57697468647261775d2054686520756e7374616b696e6720706572696f6420646964206e6f742070617373416363657373436f6e74726f6c3a2073656e646572206d75737420626520616e2061646d696e20746f206772616e745265656e7472616e637947756172643a207265656e7472616e742063616c6c005b57697468647261775d205468657265206973206e6f207374616b65206465706f73697420666f722074686973206163636f756e745b56616c69646174696f6e5d205f726577617264734164647265737320697320616c72656164792073657420746f20676976656e20616464726573735b56616c69646174696f6e5d205468652063616c6c6572206d7573742068617665206f776e657220726f6c6520746f206d6967726174655b56616c69646174696f6e5d205f726577617264734164647265737320697320746865207a65726f20616464726573735b4465706f7369745d20536f6d657468696e672077656e742077726f6e67207768696c65207472616e7366657272696e67207265776172645b56616c69646174696f6e5d20546865207374616b65206465706f7369742068617320746f206265206c6172676572207468616e20305b496e697469617465205769746864726177616c5d20596f75206861766520616c726561647920696e6974696174656420746865207769746864726177616c537761705374616b696e67436f6e74726163743a206d75737420686176652070617573657220726f6c6520746f20756e7061757365416363657373436f6e74726f6c3a2073656e646572206d75737420626520616e2061646d696e20746f207265766f6b655b56616c69646174696f6e5d205468652063616c6c6572206d7573742068617665206f776e657220726f6c6520746f20736574207265776172647320616464726573735b56616c69646174696f6e5d20546865206164647265737320646f6573206e6f7420636f6e7461696e206120636f6e7472616374536166654d6174683a206d756c7469706c69636174696f6e206f766572666c6f775b496e697469617465205769746864726177616c5d20496e76616c6964207769746864726177616c20616d6f756e745b57697468647261775d20576974686472617720616d6f756e74206973206e6f7420696e697469616c697a65645b57697468647261775d20536f6d657468696e672077656e742077726f6e67207768696c65207472616e7366657272696e6720796f7572207265776172645b56616c69646174696f6e5d205468652063616c6c6572206d7573742068617665206f776e657220726f6c6520746f2073657420746f6b656e2061646472657373436f6e747261637420696e7374616e63652068617320616c7265616479206265656e20696e697469616c697a65645b57697468647261775d20536f6d657468696e672077656e742077726f6e67207768696c65207472616e7366657272696e6720796f757220696e697469616c206465706f7369745b4465706f7369745d20596f7572206465706f73697420776f756c6420657863656564207468652063757272656e74207374616b696e67206c696d69745b56616c69646174696f6e5d205f6d61785374616b696e67416d6f756e742068617320746f206265206c6172676572207468616e20305b56616c69646174696f6e5d20496e76616c6964207377617020746f6b656e20616464726573735b56616c69646174696f6e5d206e6f7420656e6f756768207265776172647320616363756d756c617465645b56616c69646174696f6e5d206e6f7420656e6f75676820746f74616c207374616b6520616363756d756c617465645b77697468647261775d2052656d61696e696e67207374616b656465706f73697420616d6f756e74206d75737420626520686967686572207468616e20776974686472617720616d6f756e745b52657761726473205769746864726177616c5d20536f6d657468696e672077656e742077726f6e67207768696c65207472616e7366657272696e6720796f7572207265776172645b4465706f7369745d20536f6d657468696e672077656e742077726f6e6720647572696e672074686520746f6b656e207472616e736665725b496e697469617465205769746864726177616c5d20576974686472617720616d6f756e742065786365656420746865207374616b6520616d6f756e745b52657761726473205769746864726177616c5d20596f7520616c726561647920696e69746961746564207468652066756c6c207769746864726177616c5b56616c69646174696f6e5d205468652063616c6c6572206d75737420686176652072657761726473206469737472696275746f7220726f6c655b4465706f7369745d20596f75206861766520616c726561647920696e6974696174656420746865207769746864726177616c537761705374616b696e67436f6e74726163743a206d75737420686176652070617573657220726f6c6520746f2070617573655b52657761726473205769746864726177616c5d205468657265206973206e6f207374616b65206465706f73697420666f722074686973206163636f756e745b56616c69646174696f6e5d2054686973206163636f756e7420646f65736e277420686176652061207374616b65206465706f7369745b52657761726473205769746864726177616c5d205468652072657761726420616d6f756e742068617320746f206265206c6172676572207468616e20305b496e697469617465205769746864726177616c5d205468657265206973206e6f207374616b65206465706f73697420666f722074686973206163636f756e74416363657373436f6e74726f6c3a2063616e206f6e6c792072656e6f756e636520726f6c657320666f722073656c66a2646970667358221220bdf8219f7d983d747bd8f9b31d5a3921fc8ac83cf2b5bd859f74c8359948555164736f6c63430006020033","linkReferences":{}},"methodIdentifiers":{"DEFAULT_ADMIN_ROLE()":"a217fddf","currentTotalStake()":"ce4843e9","deposit(uint256)":"b6b55f25","distributeRewards()":"6f4a2cd0","executeWithdrawal()":"fa45aa00","getRoleAdmin(bytes32)":"248a9ca3","getRoleMember(bytes32,uint256)":"9010d07c","getRoleMemberCount(bytes32)":"ca15c873","getStakeDetails(address)":"f41322ac","grantRole(bytes32,address)":"2f2ff15d","hasMigrated()":"6a176613","hasRole(bytes32,address)":"91d14854","initialize(address,address,uint256,uint256)":"eb990c59","initiateWithdrawal(uint256)":"12edde5e","maxStakingAmount()":"4d5d0806","migrateSwap(address,address)":"e038caf8","pause()":"8456cb59","paused()":"5c975abb","renounceRole(bytes32,address)":"36568abe","revokeRole(bytes32,address)":"d547741f","rewardsAddress()":"c0973eed","rewardsDistributed()":"9c1454d4","rewardsWithdrawn()":"c413d100","setRewardAddress(address)":"5e00e679","setTokenAddress(address)":"26a4e8d2","token()":"fc0c546a","totalRewardsDistributed()":"ee172546","unpause()":"3f4ba83a","unstakingPeriod()":"f21c783b","version()":"54fd4d50","withdrawRewards()":"c7b8981c"},"id":39}