{
  "contractName": "PriceEstimator",
  "abi": [
    {
      "anonymous": false,
      "inputs": [
        {
          "indexed": true,
          "internalType": "address",
          "name": "previousOwner",
          "type": "address"
        },
        {
          "indexed": true,
          "internalType": "address",
          "name": "newOwner",
          "type": "address"
        }
      ],
      "name": "OwnershipTransferred",
      "type": "event"
    },
    {
      "inputs": [],
      "name": "owner",
      "outputs": [
        {
          "internalType": "address",
          "name": "",
          "type": "address"
        }
      ],
      "stateMutability": "view",
      "type": "function"
    },
    {
      "inputs": [],
      "name": "renounceOwnership",
      "outputs": [],
      "stateMutability": "nonpayable",
      "type": "function"
    },
    {
      "inputs": [
        {
          "internalType": "address",
          "name": "newOwner",
          "type": "address"
        }
      ],
      "name": "transferOwnership",
      "outputs": [],
      "stateMutability": "nonpayable",
      "type": "function"
    },
    {
      "inputs": [
        {
          "internalType": "address",
          "name": "uniswapRouterAddress",
          "type": "address"
        }
      ],
      "name": "initialize",
      "outputs": [],
      "stateMutability": "nonpayable",
      "type": "function"
    },
    {
      "inputs": [
        {
          "internalType": "address",
          "name": "uniswapRouterAddress",
          "type": "address"
        }
      ],
      "name": "setUniswapRouter",
      "outputs": [],
      "stateMutability": "nonpayable",
      "type": "function"
    },
    {
      "inputs": [
        {
          "internalType": "uint256",
          "name": "erc20Amount",
          "type": "uint256"
        },
        {
          "internalType": "address",
          "name": "tokenAddress",
          "type": "address"
        }
      ],
      "name": "getEstimatedETHforERC20",
      "outputs": [
        {
          "internalType": "uint256[]",
          "name": "",
          "type": "uint256[]"
        }
      ],
      "stateMutability": "view",
      "type": "function"
    },
    {
      "inputs": [
        {
          "internalType": "uint256",
          "name": "etherAmount",
          "type": "uint256"
        },
        {
          "internalType": "address",
          "name": "tokenAddress",
          "type": "address"
        }
      ],
      "name": "getEstimatedERC20forETH",
      "outputs": [
        {
          "internalType": "uint256[]",
          "name": "",
          "type": "uint256[]"
        }
      ],
      "stateMutability": "view",
      "type": "function"
    }
  ],
  "bytecode": "0x608060405234801561001057600080fd5b50610be0806100206000396000f3fe608060405234801561001057600080fd5b506004361061007d5760003560e01c8063bea9849e1161005b578063bea9849e1461012c578063c4d66de814610152578063ea498ade14610178578063f2fde38b146101a45761007d565b806350a2394514610082578063715018a6146100fe5780638da5cb5b14610108575b600080fd5b6100ae6004803603604081101561009857600080fd5b50803590602001356001600160a01b03166101ca565b60408051602080825283518183015283519192839290830191858101910280838360005b838110156100ea5781810151838201526020016100d2565b505050509050019250505060405180910390f35b610106610332565b005b6101106103e6565b604080516001600160a01b039092168252519081900360200190f35b6101066004803603602081101561014257600080fd5b50356001600160a01b03166103f5565b6101066004803603602081101561016857600080fd5b50356001600160a01b0316610515565b6100ae6004803603604081101561018e57600080fd5b50803590602001356001600160a01b0316610570565b610106600480360360208110156101ba57600080fd5b50356001600160a01b031661058e565b6097546060906001600160a01b0316631f00ca74846101e885610699565b6040518363ffffffff1660e01b81526004018083815260200180602001828103825283818151815260200191508051906020019060200280838360005b8381101561023d578181015183820152602001610225565b50505050905001935050505060006040518083038186803b15801561026157600080fd5b505afa158015610275573d6000803e3d6000fd5b505050506040513d6000823e601f3d908101601f19168201604052602081101561029e57600080fd5b81019080805160405193929190846401000000008211156102be57600080fd5b9083019060208201858111156102d357600080fd5b82518660208202830111640100000000821117156102f057600080fd5b82525081516020918201928201910280838360005b8381101561031d578181015183820152602001610305565b50505050905001604052505050905092915050565b61033a610787565b6065546001600160a01b0390811691161461039c576040805162461bcd60e51b815260206004820181905260248201527f4f776e61626c653a2063616c6c6572206973206e6f7420746865206f776e6572604482015290519081900360640190fd5b6065546040516000916001600160a01b0316907f8be0079c531659141344cd1fd0a4f28419497f9722a3daafe3b4186f6b6457e0908390a3606580546001600160a01b0319169055565b6065546001600160a01b031690565b6103fd610787565b6065546001600160a01b0390811691161461045f576040805162461bcd60e51b815260206004820181905260248201527f4f776e61626c653a2063616c6c6572206973206e6f7420746865206f776e6572604482015290519081900360640190fd5b80610472816001600160a01b031661078b565b6104ad5760405162461bcd60e51b8152600401808060200182810382526034815260200180610b496034913960400191505060405180910390fd5b6001600160a01b0382166104f25760405162461bcd60e51b815260040180806020018281038252602c815260200180610b1d602c913960400191505060405180910390fd5b50609780546001600160a01b0319166001600160a01b0392909216919091179055565b80610528816001600160a01b031661078b565b6105635760405162461bcd60e51b8152600401808060200182810382526034815260200180610b496034913960400191505060405180910390fd5b61056c826107c7565b5050565b6097546060906001600160a01b0316631f00ca74846101e885610894565b610596610787565b6065546001600160a01b039081169116146105f8576040805162461bcd60e51b815260206004820181905260248201527f4f776e61626c653a2063616c6c6572206973206e6f7420746865206f776e6572604482015290519081900360640190fd5b6001600160a01b03811661063d5760405162461bcd60e51b8152600401808060200182810382526026815260200180610af76026913960400191505060405180910390fd5b6065546040516001600160a01b038084169216907f8be0079c531659141344cd1fd0a4f28419497f9722a3daafe3b4186f6b6457e090600090a3606580546001600160a01b0319166001600160a01b0392909216919091179055565b6040805160028082526060808301845292839291906020830190803883395050609754604080516315ab88c960e31b815290519394506001600160a01b039091169263ad5c464892506004808301926020929190829003018186803b15801561070157600080fd5b505afa158015610715573d6000803e3d6000fd5b505050506040513d602081101561072b57600080fd5b50518151829060009061073a57fe5b60200260200101906001600160a01b031690816001600160a01b031681525050828160018151811061076857fe5b6001600160a01b03909216602092830291909101909101529050919050565b3390565b6000813f7fc5d2460186f7233c927e7db2dcc703c0e500b653ca82273b7bfad8045d85a4708181148015906107bf57508115155b949350505050565b600054610100900460ff16806107e057506107e0610955565b806107ee575060005460ff16155b6108295760405162461bcd60e51b815260040180806020018281038252602e815260200180610b7d602e913960400191505060405180910390fd5b600054610100900460ff16158015610854576000805460ff1961ff0019909116610100171660011790555b61085c61095b565b6108646109fd565b609780546001600160a01b0319166001600160a01b038416179055801561056c576000805461ff00191690555050565b60408051600280825260608083018452928392919060208301908038833901905050905082816000815181106108c657fe5b6001600160a01b03928316602091820292909201810191909152609754604080516315ab88c960e31b81529051919093169263ad5c4648926004808301939192829003018186803b15801561091a57600080fd5b505afa15801561092e573d6000803e3d6000fd5b505050506040513d602081101561094457600080fd5b505181518290600190811061076857fe5b303b1590565b600054610100900460ff16806109745750610974610955565b80610982575060005460ff16155b6109bd5760405162461bcd60e51b815260040180806020018281038252602e815260200180610b7d602e913960400191505060405180910390fd5b600054610100900460ff161580156109e8576000805460ff1961ff0019909116610100171660011790555b80156109fa576000805461ff00191690555b50565b600054610100900460ff1680610a165750610a16610955565b80610a24575060005460ff16155b610a5f5760405162461bcd60e51b815260040180806020018281038252602e815260200180610b7d602e913960400191505060405180910390fd5b600054610100900460ff16158015610a8a576000805460ff1961ff0019909116610100171660011790555b6000610a94610787565b606580546001600160a01b0319166001600160a01b038316908117909155604051919250906000907f8be0079c531659141344cd1fd0a4f28419497f9722a3daafe3b4186f6b6457e0908290a35080156109fa576000805461ff00191690555056fe4f776e61626c653a206e6577206f776e657220697320746865207a65726f20616464726573735b56616c69646174696f6e5d3a20496e76616c696420756e697377617020726f7574657220616464726573735b56616c69646174696f6e5d20546865206164647265737320646f6573206e6f7420636f6e7461696e206120636f6e7472616374436f6e747261637420696e7374616e63652068617320616c7265616479206265656e20696e697469616c697a6564a2646970667358221220aa4bb87f4d35a791a841bb1dc85c3cd3d0b1a93fee3d919ac623950b871e960764736f6c63430006020033",
  "source": "pragma solidity 0.6.2;\n\nimport \"@openzeppelin/contracts-ethereum-package/contracts/access/Ownable.sol\";\nimport \"@openzeppelin/contracts-ethereum-package/contracts/utils/Address.sol\";\nimport \"@uniswap/v2-periphery/contracts/interfaces/IUniswapV2Router02.sol\";\nimport \"./IPriceEstimator.sol\";\n\ncontract PriceEstimator is IPriceEstimator, Initializable, OwnableUpgradeSafe {\n  using Address for address;\n\n  //address internal constant UNISWAP_ROUTER_ADDRESS = 0x7a250d5630B4cF539739dF2C5dAcb4c659F2488D ;\n\n  IUniswapV2Router02 internal uniswapRouter;\n\n  modifier onlyContract(address account)\n  {\n    require(account.isContract(), \"[Validation] The address does not contain a contract\");\n    _;\n  }\n\n  function initialize(address uniswapRouterAddress)\n  external\n  onlyContract(uniswapRouterAddress)\n  {\n    __PriceEstimator_init(uniswapRouterAddress);\n  }\n\n  function __PriceEstimator_init(address uniswapRouterAddress)\n  internal\n  initializer\n  {\n    __Context_init_unchained();\n    __Ownable_init_unchained();\n    uniswapRouter = IUniswapV2Router02(uniswapRouterAddress);\n  }\n\n  function setUniswapRouter(address uniswapRouterAddress)\n  external\n  onlyOwner\n  onlyContract(uniswapRouterAddress)\n  {\n    require(\n      uniswapRouterAddress != address(0),\n      \"[Validation]: Invalid uniswap router address\"\n    );\n    uniswapRouter = IUniswapV2Router02(uniswapRouterAddress);\n  }\n\n  function getEstimatedETHforERC20(uint256 erc20Amount, address tokenAddress)\n  external\n  override\n  view\n  returns (uint256[] memory)\n  {\n    return uniswapRouter.getAmountsIn(erc20Amount, getPathForETHtoERC20(tokenAddress));\n  }\n\n  function getPathForETHtoERC20(address tokenAddress)\n  internal\n  view\n  returns (address[] memory)\n  {\n    address[] memory path = new address[](2);\n    path[0] = uniswapRouter.WETH();\n    path[1] = tokenAddress;\n    return path;\n  }\n\n  function getEstimatedERC20forETH(uint256 etherAmount, address tokenAddress)\n  external\n  override\n  view\n  returns (uint256[] memory)\n  {\n    return uniswapRouter.getAmountsIn(etherAmount, getPathForERC20toETH(tokenAddress));\n  }\n\n  function getPathForERC20toETH(address tokenAddress)\n  internal\n  view\n  returns (address[] memory)\n  {\n    address[] memory path = new address[](2);\n    path[0] = tokenAddress;\n    path[1] = uniswapRouter.WETH();\n    return path;\n  }\n}",
  "sourcePath": "/home/adam/swap-contracts/contracts/PriceEstimator.sol",
  "compiler": {
    "name": "solc",
    "version": "0.6.2+commit.bacdbe57.Emscripten.clang"
  },
  "schemaVersion": "3.2.5",
  "updatedAt": "2020-10-20T07:03:39.459Z",
  "devdoc": {
    "methods": {
      "owner()": {
        "details": "Returns the address of the current owner."
      },
      "renounceOwnership()": {
        "details": "Leaves the contract without owner. It will not be possible to call `onlyOwner` functions anymore. Can only be called by the current owner.     * NOTE: Renouncing ownership will leave the contract without an owner, thereby removing any functionality that is only available to the owner."
      },
      "transferOwnership(address)": {
        "details": "Transfers ownership of the contract to a new account (`newOwner`). Can only be called by the current owner."
      }
    }
  },
  "userdoc": {
    "methods": {}
  }
}