{
  "contractName": "SmartSwap",
  "abi": [
    {
      "anonymous": false,
      "inputs": [
        {
          "indexed": true,
          "internalType": "uint256",
          "name": "id",
          "type": "uint256"
        }
      ],
      "name": "Cancel",
      "type": "event"
    },
    {
      "anonymous": false,
      "inputs": [
        {
          "indexed": true,
          "internalType": "uint256",
          "name": "id",
          "type": "uint256"
        }
      ],
      "name": "Close",
      "type": "event"
    },
    {
      "anonymous": false,
      "inputs": [
        {
          "indexed": true,
          "internalType": "address",
          "name": "wallet",
          "type": "address"
        }
      ],
      "name": "DevWalletChanged",
      "type": "event"
    },
    {
      "anonymous": false,
      "inputs": [
        {
          "indexed": true,
          "internalType": "address",
          "name": "wallet",
          "type": "address"
        }
      ],
      "name": "FeeWalletChanged",
      "type": "event"
    },
    {
      "anonymous": false,
      "inputs": [
        {
          "indexed": true,
          "internalType": "uint256",
          "name": "id",
          "type": "uint256"
        },
        {
          "indexed": true,
          "internalType": "address",
          "name": "openTrader",
          "type": "address"
        },
        {
          "indexed": true,
          "internalType": "address",
          "name": "closeTrader",
          "type": "address"
        }
      ],
      "name": "Open",
      "type": "event"
    },
    {
      "anonymous": false,
      "inputs": [
        {
          "indexed": true,
          "internalType": "address",
          "name": "previousOwner",
          "type": "address"
        },
        {
          "indexed": true,
          "internalType": "address",
          "name": "newOwner",
          "type": "address"
        }
      ],
      "name": "OwnershipTransferred",
      "type": "event"
    },
    {
      "anonymous": false,
      "inputs": [
        {
          "indexed": false,
          "internalType": "address",
          "name": "account",
          "type": "address"
        }
      ],
      "name": "Paused",
      "type": "event"
    },
    {
      "anonymous": false,
      "inputs": [
        {
          "indexed": true,
          "internalType": "address",
          "name": "swapTokenAddress",
          "type": "address"
        }
      ],
      "name": "SwapTokenUpdated",
      "type": "event"
    },
    {
      "anonymous": false,
      "inputs": [
        {
          "indexed": false,
          "internalType": "address",
          "name": "account",
          "type": "address"
        }
      ],
      "name": "Unpaused",
      "type": "event"
    },
    {
      "inputs": [],
      "name": "owner",
      "outputs": [
        {
          "internalType": "address",
          "name": "",
          "type": "address"
        }
      ],
      "stateMutability": "view",
      "type": "function"
    },
    {
      "inputs": [],
      "name": "paused",
      "outputs": [
        {
          "internalType": "bool",
          "name": "",
          "type": "bool"
        }
      ],
      "stateMutability": "view",
      "type": "function"
    },
    {
      "inputs": [],
      "name": "renounceOwnership",
      "outputs": [],
      "stateMutability": "nonpayable",
      "type": "function"
    },
    {
      "inputs": [
        {
          "internalType": "address",
          "name": "newOwner",
          "type": "address"
        }
      ],
      "name": "transferOwnership",
      "outputs": [],
      "stateMutability": "nonpayable",
      "type": "function"
    },
    {
      "inputs": [
        {
          "internalType": "address",
          "name": "swapTokenAddress",
          "type": "address"
        },
        {
          "internalType": "address payable",
          "name": "feesWallet",
          "type": "address"
        },
        {
          "internalType": "address",
          "name": "devWallet",
          "type": "address"
        },
        {
          "internalType": "address",
          "name": "priceEstimator",
          "type": "address"
        }
      ],
      "name": "initialize",
      "outputs": [],
      "stateMutability": "nonpayable",
      "type": "function"
    },
    {
      "inputs": [],
      "name": "pause",
      "outputs": [],
      "stateMutability": "nonpayable",
      "type": "function"
    },
    {
      "inputs": [],
      "name": "unpause",
      "outputs": [],
      "stateMutability": "nonpayable",
      "type": "function"
    },
    {
      "inputs": [
        {
          "internalType": "address",
          "name": "swapTokenAddress",
          "type": "address"
        }
      ],
      "name": "setSwapToken",
      "outputs": [],
      "stateMutability": "nonpayable",
      "type": "function"
    },
    {
      "inputs": [
        {
          "internalType": "address payable",
          "name": "wallet",
          "type": "address"
        }
      ],
      "name": "setFeeWallet",
      "outputs": [],
      "stateMutability": "nonpayable",
      "type": "function"
    },
    {
      "inputs": [
        {
          "internalType": "address payable",
          "name": "wallet",
          "type": "address"
        }
      ],
      "name": "setDevWallet",
      "outputs": [],
      "stateMutability": "nonpayable",
      "type": "function"
    },
    {
      "inputs": [
        {
          "internalType": "address",
          "name": "priceEstimator",
          "type": "address"
        }
      ],
      "name": "setPriceEstimator",
      "outputs": [],
      "stateMutability": "nonpayable",
      "type": "function"
    },
    {
      "inputs": [
        {
          "internalType": "uint8",
          "name": "ethFeePercentage",
          "type": "uint8"
        }
      ],
      "name": "setEthFeePercentage",
      "outputs": [],
      "stateMutability": "nonpayable",
      "type": "function"
    },
    {
      "inputs": [
        {
          "internalType": "uint8",
          "name": "allowedFeeSlippagePercentage",
          "type": "uint8"
        }
      ],
      "name": "setAllowedFeeSlippagePercentage",
      "outputs": [],
      "stateMutability": "nonpayable",
      "type": "function"
    },
    {
      "inputs": [
        {
          "internalType": "uint8",
          "name": "uniswapFeePercentage",
          "type": "uint8"
        }
      ],
      "name": "setUniswapFeePercentage",
      "outputs": [],
      "stateMutability": "nonpayable",
      "type": "function"
    },
    {
      "inputs": [
        {
          "internalType": "uint256",
          "name": "amount",
          "type": "uint256"
        }
      ],
      "name": "getFeeInEthForEth",
      "outputs": [
        {
          "internalType": "uint256",
          "name": "",
          "type": "uint256"
        }
      ],
      "stateMutability": "view",
      "type": "function"
    },
    {
      "inputs": [
        {
          "internalType": "uint256",
          "name": "amount",
          "type": "uint256"
        },
        {
          "internalType": "address",
          "name": "token",
          "type": "address"
        }
      ],
      "name": "getFeeInEthForERC20",
      "outputs": [
        {
          "internalType": "uint256",
          "name": "",
          "type": "uint256"
        }
      ],
      "stateMutability": "view",
      "type": "function"
    },
    {
      "inputs": [
        {
          "internalType": "uint256",
          "name": "amount",
          "type": "uint256"
        },
        {
          "internalType": "address",
          "name": "token",
          "type": "address"
        }
      ],
      "name": "getFeeInEthForERC20UsingTotalSupply",
      "outputs": [
        {
          "internalType": "uint256",
          "name": "",
          "type": "uint256"
        }
      ],
      "stateMutability": "view",
      "type": "function"
    },
    {
      "inputs": [
        {
          "internalType": "uint256",
          "name": "amount",
          "type": "uint256"
        }
      ],
      "name": "getFeeInSwapForETH",
      "outputs": [
        {
          "internalType": "uint256",
          "name": "",
          "type": "uint256"
        }
      ],
      "stateMutability": "view",
      "type": "function"
    },
    {
      "inputs": [
        {
          "internalType": "uint256",
          "name": "amount",
          "type": "uint256"
        },
        {
          "internalType": "address",
          "name": "token",
          "type": "address"
        },
        {
          "internalType": "bool",
          "name": "calcFeeUsingTotalSupply",
          "type": "bool"
        }
      ],
      "name": "getFeeInSwapForERC20",
      "outputs": [
        {
          "internalType": "uint256",
          "name": "",
          "type": "uint256"
        }
      ],
      "stateMutability": "view",
      "type": "function"
    },
    {
      "inputs": [
        {
          "internalType": "uint256",
          "name": "openValue",
          "type": "uint256"
        },
        {
          "internalType": "address",
          "name": "openContractAddress",
          "type": "address"
        },
        {
          "internalType": "uint256",
          "name": "closeValue",
          "type": "uint256"
        },
        {
          "internalType": "address payable",
          "name": "closeTrader",
          "type": "address"
        },
        {
          "internalType": "address",
          "name": "closeContractAddress",
          "type": "address"
        },
        {
          "internalType": "uint256",
          "name": "fee",
          "type": "uint256"
        },
        {
          "internalType": "bool",
          "name": "isFeeInSwap",
          "type": "bool"
        },
        {
          "internalType": "bool",
          "name": "calcFeeUsingTotalSupply",
          "type": "bool"
        }
      ],
      "name": "open",
      "outputs": [],
      "stateMutability": "payable",
      "type": "function"
    },
    {
      "inputs": [
        {
          "internalType": "uint256",
          "name": "id",
          "type": "uint256"
        },
        {
          "internalType": "uint256",
          "name": "fee",
          "type": "uint256"
        },
        {
          "internalType": "bool",
          "name": "isFeeInSwap",
          "type": "bool"
        },
        {
          "internalType": "bool",
          "name": "calcFeeUsingTotalSupply",
          "type": "bool"
        }
      ],
      "name": "close",
      "outputs": [],
      "stateMutability": "payable",
      "type": "function"
    },
    {
      "inputs": [
        {
          "internalType": "uint256",
          "name": "id",
          "type": "uint256"
        }
      ],
      "name": "cancel",
      "outputs": [],
      "stateMutability": "nonpayable",
      "type": "function"
    },
    {
      "inputs": [
        {
          "internalType": "uint256",
          "name": "id",
          "type": "uint256"
        }
      ],
      "name": "check",
      "outputs": [
        {
          "internalType": "uint256",
          "name": "openValue",
          "type": "uint256"
        },
        {
          "internalType": "address",
          "name": "openTrader",
          "type": "address"
        },
        {
          "internalType": "address",
          "name": "openContractAddress",
          "type": "address"
        },
        {
          "internalType": "uint256",
          "name": "closeValue",
          "type": "uint256"
        },
        {
          "internalType": "address",
          "name": "closeTrader",
          "type": "address"
        },
        {
          "internalType": "address",
          "name": "closeContractAddress",
          "type": "address"
        },
        {
          "internalType": "enum SmartSwap.SwapType",
          "name": "swapType",
          "type": "uint8"
        },
        {
          "internalType": "enum SmartSwap.Status",
          "name": "status",
          "type": "uint8"
        }
      ],
      "stateMutability": "view",
      "type": "function"
    },
    {
      "inputs": [
        {
          "internalType": "address",
          "name": "token",
          "type": "address"
        }
      ],
      "name": "addTokenToFreeList",
      "outputs": [],
      "stateMutability": "nonpayable",
      "type": "function"
    },
    {
      "inputs": [
        {
          "internalType": "address",
          "name": "token",
          "type": "address"
        }
      ],
      "name": "removeTokenFromFreeList",
      "outputs": [],
      "stateMutability": "nonpayable",
      "type": "function"
    },
    {
      "inputs": [
        {
          "internalType": "address",
          "name": "token",
          "type": "address"
        }
      ],
      "name": "isFreeToken",
      "outputs": [
        {
          "internalType": "bool",
          "name": "",
          "type": "bool"
        }
      ],
      "stateMutability": "view",
      "type": "function"
    }
  ],
  "bytecode": "0x608060405234801561001057600080fd5b506151f9806100206000396000f3fe6080604052600436106101805760003560e01c80638da5cb5b116100d1578063c0f8bc601161008a578063d8ad1b2b11610064578063d8ad1b2b14610618578063da1792051461064b578063f2fde38b1461067e578063f8c8765e146106b157610180565b8063c0f8bc601461057f578063cd7d9e99146105b8578063d2bb3aed146105eb57610180565b80638da5cb5b1461045857806390d49b9d146104895780639976dfbe146104bc578063a9ff2bae146104f5578063b851b7ca14610522578063bf3452f81461055557610180565b806340e58ee51161013e5780635f72f450116101185780635f72f45014610360578063715018a6146104015780638456cb59146104165780638cc6058b1461042b57610180565b806340e58ee5146102f75780635c04aa6a146103215780635c975abb1461034b57610180565b806245a3d714610185578063107af1e4146101ba5780631f53ac02146102155780632699fd1f1461024857806331bff5211461029b5780633f4ba83a146102e2575b600080fd5b34801561019157600080fd5b506101b8600480360360208110156101a857600080fd5b50356001600160a01b03166106fc565b005b6101b860048036036101008110156101d157600080fd5b508035906001600160a01b036020820135811691604081013591606082013581169160808101359091169060a08101359060c081013515159060e00135151561080a565b34801561022157600080fd5b506101b86004803603602081101561023857600080fd5b50356001600160a01b03166109ea565b34801561025457600080fd5b506102896004803603606081101561026b57600080fd5b508035906001600160a01b0360208201351690604001351515610ad1565b60408051918252519081900360200190f35b3480156102a757600080fd5b506102ce600480360360208110156102be57600080fd5b50356001600160a01b0316610b06565b604080519115158252519081900360200190f35b3480156102ee57600080fd5b506101b8610b24565b34801561030357600080fd5b506101b86004803603602081101561031a57600080fd5b5035610b86565b34801561032d57600080fd5b506102896004803603602081101561034457600080fd5b5035610dc3565b34801561035757600080fd5b506102ce610de1565b34801561036c57600080fd5b5061038a6004803603602081101561038357600080fd5b5035610dea565b604080518981526001600160a01b03808a1660208301528881169282019290925260608101879052858216608082015290841660a082015260c081018360028111156103d257fe5b60ff1681526020018260028111156103e657fe5b60ff1681526020019850505050505050505060405180910390f35b34801561040d57600080fd5b506101b8610f04565b34801561042257600080fd5b506101b8610fa6565b34801561043757600080fd5b506101b86004803603602081101561044e57600080fd5b503560ff16611006565b34801561046457600080fd5b5061046d6110a9565b604080516001600160a01b039092168252519081900360200190f35b34801561049557600080fd5b506101b8600480360360208110156104ac57600080fd5b50356001600160a01b03166110b8565b3480156104c857600080fd5b50610289600480360360408110156104df57600080fd5b50803590602001356001600160a01b031661119f565b34801561050157600080fd5b506101b86004803603602081101561051857600080fd5b503560ff1661127e565b34801561052e57600080fd5b506101b86004803603602081101561054557600080fd5b50356001600160a01b0316611321565b34801561056157600080fd5b506102896004803603602081101561057857600080fd5b5035611457565b34801561058b57600080fd5b50610289600480360360408110156105a257600080fd5b50803590602001356001600160a01b0316611474565b3480156105c457600080fd5b506101b8600480360360208110156105db57600080fd5b50356001600160a01b0316611682565b3480156105f757600080fd5b506101b86004803603602081101561060e57600080fd5b503560ff1661174d565b34801561062457600080fd5b506101b86004803603602081101561063b57600080fd5b50356001600160a01b03166117f0565b6101b86004803603608081101561066157600080fd5b5080359060208101359060408101351515906060013515156118b8565b34801561068a57600080fd5b506101b8600480360360208110156106a157600080fd5b50356001600160a01b0316611b21565b3480156106bd57600080fd5b506101b8600480360360808110156106d457600080fd5b506001600160a01b038135811691602081013582169160408201358116916060013516611c1a565b610704611cca565b6065546001600160a01b03908116911614610754576040805162461bcd60e51b81526020600482018190526024820152600080516020614f1a833981519152604482015290519081900360640190fd5b80610767816001600160a01b0316611cce565b6107a25760405162461bcd60e51b8152600401808060200182810382526034815260200180614e9a6034913960400191505060405180910390fd5b6001600160a01b0382166107e75760405162461bcd60e51b815260040180806020018281038252602d815260200180614e6d602d913960400191505060405180910390fd5b5060d180546001600160a01b0319166001600160a01b0392909216919091179055565b60975460ff1615610855576040805162461bcd60e51b815260206004820152601060248201526f14185d5cd8589b194e881c185d5cd95960821b604482015290519081900360640190fd5b600088116108945760405162461bcd60e51b8152600401808060200182810382526033815260200180614c226033913960400191505060405180910390fd5b600086116108d35760405162461bcd60e51b8152600401808060200182810382526034815260200180614e046034913960400191505060405180910390fd5b6108dc87610b06565b61091f576000831161091f5760405162461bcd60e51b815260040180806020018281038252602c815260200180615041602c913960400191505060405180910390fd5b6001600160a01b0385166109645760405162461bcd60e51b8152600401808060200182810382526029815260200180614bf96029913960400191505060405180910390fd5b73eeeeeeeeeeeeeeeeeeeeeeeeeeeeeeeeeeeeeeee6001600160a01b038816141561099c57610997888787878787611d0a565b6109e0565b73eeeeeeeeeeeeeeeeeeeeeeeeeeeeeeeeeeeeeeee6001600160a01b03851614156109d057610997888887898787876121f0565b6109e0888888888888888861278b565b5050505050505050565b6109f2611cca565b6065546001600160a01b03908116911614610a42576040805162461bcd60e51b81526020600482018190526024820152600080516020614f1a833981519152604482015290519081900360640190fd5b6001600160a01b038116610a875760405162461bcd60e51b815260040180806020018281038252602a815260200180614d63602a913960400191505060405180910390fd5b60cd80546001600160a01b0319166001600160a01b0383169081179091556040517f268c00f4ec08b34fdde24b52e47a09d62f3f3837eb3b8ac7206cefb3bb5e534590600090a250565b60008082610ae857610ae38585611474565b610af2565b610af2858561119f565b9050610afd81612cb0565b95945050505050565b6001600160a01b0316600090815260d2602052604090205460ff1690565b610b2c611cca565b6065546001600160a01b03908116911614610b7c576040805162461bcd60e51b81526020600482018190526024820152600080516020614f1a833981519152604482015290519081900360640190fd5b610b84612e3e565b565b80610b8f614bb4565b600082815260ca6020908152604091829020825161010081018452815481526001820154928101929092526002808201546001600160a01b0390811694840194909452600382015484166060840152600482015484166080840152600582015493841660a08401529192909160c0840191600160a01b900460ff1690811115610c1457fe5b6002811115610c1f57fe5b81526020016005820160159054906101000a900460ff166002811115610c4157fe5b6002811115610c4c57fe5b905250905060008160e001516002811115610c6357fe5b14610c6d57600080fd5b610c75614bb4565b600084815260ca6020908152604091829020825161010081018452815481526001820154928101929092526002808201546001600160a01b0390811694840194909452600382015484166060840152600482015484166080840152600582015493841660a08401529192909160c0840191600160a01b900460ff1690811115610cfa57fe5b6002811115610d0557fe5b81526020016005820160159054906101000a900460ff166002811115610d2757fe5b6002811115610d3257fe5b9052509050610d3f611cca565b6001600160a01b031681604001516001600160a01b031614610d925760405162461bcd60e51b815260040180806020018281038252603e81526020018061511f603e913960400191505060405180910390fd5b8060c001516002811115610da257fe5b610db457610daf84612edc565b610dbd565b610dbd84613056565b50505050565b600080610dcf83611457565b9050610dda81612cb0565b9392505050565b60975460ff1690565b600080600080600080600080610dfe614bb4565b60008a815260ca6020908152604091829020825161010081018452815481526001820154928101929092526002808201546001600160a01b0390811694840194909452600382015484166060840152600482015484166080840152600582015493841660a08401529192909160c0840191600160a01b900460ff1690811115610e8357fe5b6002811115610e8e57fe5b81526020016005820160159054906101000a900460ff166002811115610eb057fe5b6002811115610ebb57fe5b9052508051604082015160808301516020840151606085015160a086015160c087015160e090970151959f50939d50919b50995097509550909350915050919395975091939597565b610f0c611cca565b6065546001600160a01b03908116911614610f5c576040805162461bcd60e51b81526020600482018190526024820152600080516020614f1a833981519152604482015290519081900360640190fd5b6065546040516000916001600160a01b0316907f8be0079c531659141344cd1fd0a4f28419497f9722a3daafe3b4186f6b6457e0908390a3606580546001600160a01b0319169055565b610fae611cca565b6065546001600160a01b03908116911614610ffe576040805162461bcd60e51b81526020600482018190526024820152600080516020614f1a833981519152604482015290519081900360640190fd5b610b84613228565b61100e611cca565b6065546001600160a01b0390811691161461105e576040805162461bcd60e51b81526020600482018190526024820152600080516020614f1a833981519152604482015290519081900360640190fd5b60648160ff1611156110a15760405162461bcd60e51b81526004018080602001828103825260398152602001806150b36039913960400191505060405180910390fd5b60ff1660ce55565b6065546001600160a01b031690565b6110c0611cca565b6065546001600160a01b03908116911614611110576040805162461bcd60e51b81526020600482018190526024820152600080516020614f1a833981519152604482015290519081900360640190fd5b6001600160a01b0381166111555760405162461bcd60e51b815260040180806020018281038252602b815260200180614ece602b913960400191505060405180910390fd5b60cc80546001600160a01b0319166001600160a01b0383169081179091556040517fe805ffc02a12d27b142431551e2cd3f766203c54a9a4ab0d1cf01ce7366a796f90600090a250565b60006111aa82610b06565b156111b757506000611278565b6000826001600160a01b03166318160ddd6040518163ffffffff1660e01b815260040160206040518083038186803b1580156111f257600080fd5b505afa158015611206573d6000803e3d6000fd5b505050506040513d602081101561121c57600080fd5b50519050600061125382611247606461123b898463ffffffff6132a916565b9063ffffffff6132a916565b9063ffffffff61330216565b905067016345785d8a000061127283611247848463ffffffff6132a916565b93505050505b92915050565b611286611cca565b6065546001600160a01b039081169116146112d6576040805162461bcd60e51b81526020600482018190526024820152600080516020614f1a833981519152604482015290519081900360640190fd5b60648160ff1611156113195760405162461bcd60e51b815260040180806020018281038252603d815260200180615187603d913960400191505060405180910390fd5b60ff1660d055565b611329611cca565b6065546001600160a01b03908116911614611379576040805162461bcd60e51b81526020600482018190526024820152600080516020614f1a833981519152604482015290519081900360640190fd5b8061138c816001600160a01b0316611cce565b6113c75760405162461bcd60e51b8152600401808060200182810382526034815260200180614e9a6034913960400191505060405180910390fd5b6001600160a01b03821661140c5760405162461bcd60e51b8152600401808060200182810382526028815260200180614db06028913960400191505060405180910390fd5b60cb80546001600160a01b0319166001600160a01b0384169081179091556040517f44fe57485076f35a8eb17e92799dcc65f24a9eab90ffae0af662812f19803be590600090a25050565b60006112786103e861124760ce54856132a990919063ffffffff16565b600061147f82610b06565b1561148c57506000611278565b6000826001600160a01b031663313ce5676040518163ffffffff1660e01b815260040160206040518083038186803b1580156114c757600080fd5b505afa1580156114db573d6000803e3d6000fd5b505050506040513d60208110156114f157600080fd5b505160d154604080516350a2394560e01b815260ff909316600a0a600484018190526001600160a01b038781166024860152915190945060009391909216916350a23945916044808201928692909190829003018186803b15801561155557600080fd5b505afa158015611569573d6000803e3d6000fd5b505050506040513d6000823e601f3d908101601f19168201604052602081101561159257600080fd5b81019080805160405193929190846401000000008211156115b257600080fd5b9083019060208201858111156115c757600080fd5b82518660208202830111640100000000821117156115e457600080fd5b82525081516020918201928201910280838360005b838110156116115781810151838201526020016115f9565b5050505090500160405250505060008151811061162a57fe5b6020026020010151905061165f6116526103e861124760d054856132a990919063ffffffff16565b829063ffffffff61334416565b9050600061167783611247888563ffffffff6132a916565b905061127281611457565b61168a611cca565b6065546001600160a01b039081169116146116da576040805162461bcd60e51b81526020600482018190526024820152600080516020614f1a833981519152604482015290519081900360640190fd5b806116ed816001600160a01b0316611cce565b6117285760405162461bcd60e51b8152600401808060200182810382526034815260200180614e9a6034913960400191505060405180910390fd5b506001600160a01b0316600090815260d260205260409020805460ff19166001179055565b611755611cca565b6065546001600160a01b039081169116146117a5576040805162461bcd60e51b81526020600482018190526024820152600080516020614f1a833981519152604482015290519081900360640190fd5b60648160ff1611156117e85760405162461bcd60e51b815260040180806020018281038252604681526020018061506d6046913960600191505060405180910390fd5b60ff1660cf55565b6117f8611cca565b6065546001600160a01b03908116911614611848576040805162461bcd60e51b81526020600482018190526024820152600080516020614f1a833981519152604482015290519081900360640190fd5b8061185b816001600160a01b0316611cce565b6118965760405162461bcd60e51b8152600401808060200182810382526034815260200180614e9a6034913960400191505060405180910390fd5b506001600160a01b0316600090815260d260205260409020805460ff19169055565b836118c1614bb4565b600082815260ca6020908152604091829020825161010081018452815481526001820154928101929092526002808201546001600160a01b0390811694840194909452600382015484166060840152600482015484166080840152600582015493841660a08401529192909160c0840191600160a01b900460ff169081111561194657fe5b600281111561195157fe5b81526020016005820160159054906101000a900460ff16600281111561197357fe5b600281111561197e57fe5b905250905060008160e00151600281111561199557fe5b1461199f57600080fd5b6119a7614bb4565b600087815260ca6020908152604091829020825161010081018452815481526001820154928101929092526002808201546001600160a01b0390811694840194909452600382015484166060840152600482015484166080840152600582015493841660a08401529192909160c0840191600160a01b900460ff1690811115611a2c57fe5b6002811115611a3757fe5b81526020016005820160159054906101000a900460ff166002811115611a5957fe5b6002811115611a6457fe5b9052509050611a71611cca565b6001600160a01b031681606001516001600160a01b031614611ac45760405162461bcd60e51b815260040180806020018281038252603d815260200180614fdd603d913960400191505060405180910390fd5b8060c001516002811115611ad457fe5b611ae957611ae487878787613386565b611b18565b8060c001516002811115611af957fe5b60011415611b0c57611ae487878761385d565b611b1887878787613ced565b50505050505050565b611b29611cca565b6065546001600160a01b03908116911614611b79576040805162461bcd60e51b81526020600482018190526024820152600080516020614f1a833981519152604482015290519081900360640190fd5b6001600160a01b038116611bbe5760405162461bcd60e51b8152600401808060200182810382526026815260200180614c986026913960400191505060405180910390fd5b6065546040516001600160a01b038084169216907f8be0079c531659141344cd1fd0a4f28419497f9722a3daafe3b4186f6b6457e090600090a3606580546001600160a01b0319166001600160a01b0392909216919091179055565b83611c2d816001600160a01b0316611cce565b611c685760405162461bcd60e51b8152600401808060200182810382526034815260200180614e9a6034913960400191505060405180910390fd5b81611c7b816001600160a01b0316611cce565b611cb65760405162461bcd60e51b8152600401808060200182810382526034815260200180614e9a6034913960400191505060405180910390fd5b611cc28686868661421f565b505050505050565b3390565b6000813f7fc5d2460186f7233c927e7db2dcc703c0e500b653ca82273b7bfad8045d85a470818114801590611d0257508115155b949350505050565b60975460ff1615611d55576040805162461bcd60e51b815260206004820152601060248201526f14185d5cd8589b194e881c185d5cd95960821b604482015290519081900360640190fd5b82611d68816001600160a01b0316611cce565b611da35760405162461bcd60e51b8152600401808060200182810382526034815260200180614e9a6034913960400191505060405180910390fd5b60008711611de25760405162461bcd60e51b81526004018080602001828103825260338152602001806150ec6033913960400191505060405180910390fd5b60008611611e215760405162461bcd60e51b8152600401808060200182810382526036815260200180614cf26036913960400191505060405180910390fd5b60008311611e605760405162461bcd60e51b815260040180806020018281038252602c815260200180615041602c913960400191505060405180910390fd5b8115611f3d5786341015611ea9576040805162461bcd60e51b81526020600482018190526024820152600080516020614c78833981519152604482015290519081900360640190fd5b6000611eb488610dc3565b9050600081851015611f2d57611ed0828663ffffffff61334416565b90506000611ee98361124784606463ffffffff6132a916565b905060cf548110611f2b5760405162461bcd60e51b8152600401808060200182810382526035815260200180614e386035913960400191505060405180910390fd5b505b611f36826142e9565b5050612070565b6000611f4888611457565b905080841015611f895760405162461bcd60e51b8152600401808060200182810382526034815260200180614cbe6034913960400191505060405180910390fd5b611f99888263ffffffff6143f316565b341015611fdb576040805162461bcd60e51b81526020600482018190526024820152600080516020614c78833981519152604482015290519081900360640190fd5b60cc546040516000916001600160a01b03169083908381818185875af1925050503d8060008114612028576040519150601f19603f3d011682016040523d82523d6000602084013e61202d565b606091505b505090508061206d5760405162461bcd60e51b8152600401808060200182810382526023815260200180614d8d6023913960400191505060405180910390fd5b50505b60c95461208490600163ffffffff6143f316565b60c9819055604080516101008101825289815260208082018a8152338385019081526001600160a01b038b81166060860190815273eeeeeeeeeeeeeeeeeeeeeeeeeeeeeeeeeeeeeeee608087019081528c831660a08801908152600060c0890181815260e08a018290529a815260ca9097529790952086518155935160018501559151600280850180546001600160a01b03199081169385169390931790559251600385018054831691841691909117905593516004840180548616918316919091179055945160058301805490941695169490941780835594519294909360ff60a01b1990911690600160a01b90849081111561217e57fe5b021790555060e082015160058201805460ff60a81b1916600160a81b8360028111156121a657fe5b02179055505060c9546040516001600160a01b03881692503391907ffa75d1b5404b6acb93bd5d4b44839ba9063bb0b7af3aa9193c87098e54dfc97990600090a450505050505050565b60975460ff161561223b576040805162461bcd60e51b815260206004820152601060248201526f14185d5cd8589b194e881c185d5cd95960821b604482015290519081900360640190fd5b8561224e816001600160a01b0316611cce565b6122895760405162461bcd60e51b8152600401808060200182810382526034815260200180614e9a6034913960400191505060405180910390fd5b600085116122c85760405162461bcd60e51b81526004018080602001828103825260338152602001806150ec6033913960400191505060405180910390fd5b600088116123075760405162461bcd60e51b8152600401808060200182810382526036815260200180614cf26036913960400191505060405180910390fd5b61231087610b06565b6124e55782156123b0576000612327898985610ad1565b90506000818610156123a057612343828763ffffffff61334416565b9050600061235c8361124784606463ffffffff6132a916565b905060cf54811061239e5760405162461bcd60e51b8152600401808060200182810382526035815260200180614e386035913960400191505060405180910390fd5b505b6123a9826142e9565b50506124e5565b6000826123c6576123c18989611474565b6123d0565b6123d0898961119f565b9050808510156124115760405162461bcd60e51b8152600401808060200182810382526034815260200180614cbe6034913960400191505060405180910390fd5b803410156124505760405162461bcd60e51b8152600401808060200182810382526039815260200180614fa46039913960400191505060405180910390fd5b60cc546040516000916001600160a01b03169083908381818185875af1925050503d806000811461249d576040519150601f19603f3d011682016040523d82523d6000602084013e6124a2565b606091505b50509050806124e25760405162461bcd60e51b8152600401808060200182810382526023815260200180614d8d6023913960400191505060405180910390fd5b50505b60408051636eb1769f60e11b8152336004820152306024820152905188916001600160a01b0383169163dd62ed3e91604480820192602092909190829003018186803b15801561253457600080fd5b505afa158015612548573d6000803e3d6000fd5b505050506040513d602081101561255e57600080fd5b505189111561256c57600080fd5b604080516323b872dd60e01b8152336004820152306024820152604481018b905290516001600160a01b038316916323b872dd9160648083019260209291908290030181600087803b1580156125c157600080fd5b505af11580156125d5573d6000803e3d6000fd5b505050506040513d60208110156125eb57600080fd5b50516125f657600080fd5b60c95461260a90600163ffffffff6143f316565b60c95560408051610100810182528a81526020810188905233918101919091526001600160a01b0388811660608301528916608082015273eeeeeeeeeeeeeeeeeeeeeeeeeeeeeeeeeeeeeeee60a082015260c08101600181526020016000905260c954600090815260ca60209081526040918290208351815590830151600182015590820151600280830180546001600160a01b039384166001600160a01b0319918216179091556060850151600385018054918516918316919091179055608085015160048501805491851691831691909117905560a08501516005850180549190941691161780835560c0850151929160ff60a01b1990911690600160a01b90849081111561271757fe5b021790555060e082015160058201805460ff60a81b1916600160a81b83600281111561273f57fe5b02179055505060c9546040516001600160a01b038a1692503391907ffa75d1b5404b6acb93bd5d4b44839ba9063bb0b7af3aa9193c87098e54dfc97990600090a4505050505050505050565b60975460ff16156127d6576040805162461bcd60e51b815260206004820152601060248201526f14185d5cd8589b194e881c185d5cd95960821b604482015290519081900360640190fd5b600088116128155760405162461bcd60e51b815260040180806020018281038252603b815260200180614d28603b913960400191505060405180910390fd5b600086116128545760405162461bcd60e51b815260040180806020018281038252603c815260200180614f68603c913960400191505060405180910390fd5b61285d87610b06565b612a325781156128fd576000612874898984610ad1565b90506000818510156128ed57612890828663ffffffff61334416565b905060006128a98361124784606463ffffffff6132a916565b905060cf5481106128eb5760405162461bcd60e51b8152600401808060200182810382526035815260200180614e386035913960400191505060405180910390fd5b505b6128f6826142e9565b5050612a32565b6000816129135761290e8989611474565b61291d565b61291d898961119f565b90508084101561295e5760405162461bcd60e51b8152600401808060200182810382526034815260200180614cbe6034913960400191505060405180910390fd5b8034101561299d5760405162461bcd60e51b8152600401808060200182810382526039815260200180614fa46039913960400191505060405180910390fd5b60cc546040516000916001600160a01b03169083908381818185875af1925050503d80600081146129ea576040519150601f19603f3d011682016040523d82523d6000602084013e6129ef565b606091505b5050905080612a2f5760405162461bcd60e51b8152600401808060200182810382526023815260200180614d8d6023913960400191505060405180910390fd5b50505b60408051636eb1769f60e11b8152336004820152306024820152905188916001600160a01b0383169163dd62ed3e91604480820192602092909190829003018186803b158015612a8157600080fd5b505afa158015612a95573d6000803e3d6000fd5b505050506040513d6020811015612aab57600080fd5b5051891115612ab957600080fd5b604080516323b872dd60e01b8152336004820152306024820152604481018b905290516001600160a01b038316916323b872dd9160648083019260209291908290030181600087803b158015612b0e57600080fd5b505af1158015612b22573d6000803e3d6000fd5b505050506040513d6020811015612b3857600080fd5b5051612b4357600080fd5b60c954612b5790600163ffffffff6143f316565b60c981905560408051610100810182528b815260208082018b8152338385019081526001600160a01b038c8116606086019081528f8216608087019081528d831660a08801908152600260c08901818152600060e08b018190529b8c5260ca909852989099208751815594516001860155925184880180549184166001600160a01b031992831617905590516003850180549184169183169190911790559151600484018054918316918416919091179055955160058301805491909716911617808655915192949093909160ff60a01b191690600160a01b908490811115612c3c57fe5b021790555060e082015160058201805460ff60a81b1916600160a81b836002811115612c6457fe5b02179055505060c9546040516001600160a01b03891692503391907ffa75d1b5404b6acb93bd5d4b44839ba9063bb0b7af3aa9193c87098e54dfc97990600090a4505050505050505050565b600080612cc483600263ffffffff61330216565b60d15460cb5460408051637524c56f60e11b8152600160048201526001600160a01b0392831660248201529051939450600093919092169163ea498ade9160448083019286929190829003018186803b158015612d2057600080fd5b505afa158015612d34573d6000803e3d6000fd5b505050506040513d6000823e601f3d908101601f191682016040526020811015612d5d57600080fd5b8101908080516040519392919084640100000000821115612d7d57600080fd5b908301906020820185811115612d9257600080fd5b8251866020820283011164010000000082111715612daf57600080fd5b82525081516020918201928201910280838360005b83811015612ddc578181015183820152602001612dc4565b50505050905001604052505050600081518110612df557fe5b602002602001015190506000612e2c612e1f6103e861124760d054866132a990919063ffffffff16565b839063ffffffff61334416565b9050610afd838263ffffffff6132a916565b60975460ff16612e8c576040805162461bcd60e51b815260206004820152601460248201527314185d5cd8589b194e881b9bdd081c185d5cd95960621b604482015290519081900360640190fd5b6097805460ff191690557f5db9ee0a495bf2e6ff9c91a7834c1ba4fdd244a5e8aa4e537bd38aeae4b073aa612ebf611cca565b604080516001600160a01b039092168252519081900360200190a1565b80612ee5614bb4565b600082815260ca6020908152604091829020825161010081018452815481526001820154928101929092526002808201546001600160a01b0390811694840194909452600382015484166060840152600482015484166080840152600582015493841660a08401529192909160c0840191600160a01b900460ff1690811115612f6a57fe5b6002811115612f7557fe5b81526020016005820160159054906101000a900460ff166002811115612f9757fe5b6002811115612fa257fe5b905250905060008160e001516002811115612fb957fe5b14612fc357600080fd5b600083815260ca602052604080822060058101805460ff60a81b1916600160a91b17905560028101548154925191936001600160a01b039091169280156108fc02929091818181858888f19350505050158015613024573d6000803e3d6000fd5b5060405184907f8bf30e7ff26833413be5f69e1d373744864d600b664204b4a2f9844a8eedb9ed90600090a250505050565b8061305f614bb4565b600082815260ca6020908152604091829020825161010081018452815481526001820154928101929092526002808201546001600160a01b0390811694840194909452600382015484166060840152600482015484166080840152600582015493841660a08401529192909160c0840191600160a01b900460ff16908111156130e457fe5b60028111156130ef57fe5b81526020016005820160159054906101000a900460ff16600281111561311157fe5b600281111561311c57fe5b905250905060008160e00151600281111561313357fe5b1461313d57600080fd5b600083815260ca6020908152604080832060058101805460ff60a81b1916600160a91b17905560048082015460028301548354855163a9059cbb60e01b81526001600160a01b0392831694810194909452602484015293519295931693849363a9059cbb936044808501949192918390030190829087803b1580156131c157600080fd5b505af11580156131d5573d6000803e3d6000fd5b505050506040513d60208110156131eb57600080fd5b50516131f657600080fd5b60405185907f8bf30e7ff26833413be5f69e1d373744864d600b664204b4a2f9844a8eedb9ed90600090a25050505050565b60975460ff1615613273576040805162461bcd60e51b815260206004820152601060248201526f14185d5cd8589b194e881c185d5cd95960821b604482015290519081900360640190fd5b6097805460ff191660011790557f62e78cea01bee320cd4e420270b5ea74000d11b0c9f74754ebdbfc544b05a258612ebf611cca565b6000826132b857506000611278565b828202828482816132c557fe5b0414610dda5760405162461bcd60e51b8152600401808060200182810382526021815260200180614ef96021913960400191505060405180910390fd5b6000610dda83836040518060400160405280601a81526020017f536166654d6174683a206469766973696f6e206279207a65726f00000000000081525061444d565b6000610dda83836040518060400160405280601e81526020017f536166654d6174683a207375627472616374696f6e206f766572666c6f7700008152506144ef565b8361338f614bb4565b600082815260ca6020908152604091829020825161010081018452815481526001820154928101929092526002808201546001600160a01b0390811694840194909452600382015484166060840152600482015484166080840152600582015493841660a08401529192909160c0840191600160a01b900460ff169081111561341457fe5b600281111561341f57fe5b81526020016005820160159054906101000a900460ff16600281111561344157fe5b600281111561344c57fe5b905250905060008160e00151600281111561346357fe5b1461346d57600080fd5b600086815260ca602052604090206005810154613492906001600160a01b0316610b06565b6136a057841561354557600181015460058201546000916134bc916001600160a01b031687610ad1565b9050600081881015613535576134d8828963ffffffff61334416565b905060006134f18361124784606463ffffffff6132a916565b905060cf5481106135335760405162461bcd60e51b8152600401808060200182810382526035815260200180614e386035913960400191505060405180910390fd5b505b61353e826142e9565b50506136a0565b60008461356e576001820154600583015461356991906001600160a01b0316611474565b61358b565b6001820154600583015461358b91906001600160a01b031661119f565b9050808710156135cc5760405162461bcd60e51b8152600401808060200182810382526034815260200180614cbe6034913960400191505060405180910390fd5b8034101561360b5760405162461bcd60e51b8152600401808060200182810382526039815260200180614fa46039913960400191505060405180910390fd5b60cc546040516000916001600160a01b03169083908381818185875af1925050503d8060008114613658576040519150601f19603f3d011682016040523d82523d6000602084013e61365d565b606091505b505090508061369d5760405162461bcd60e51b8152600401808060200182810382526023815260200180614d8d6023913960400191505060405180910390fd5b50505b60058101805460ff60a81b1916600160a81b1790819055600382015460408051636eb1769f60e11b81526001600160a01b03928316600482015230602482015290519190921691829163dd62ed3e91604480820192602092909190829003018186803b15801561370f57600080fd5b505afa158015613723573d6000803e3d6000fd5b505050506040513d602081101561373957600080fd5b50516001830154111561374b57600080fd5b600382015460028301546001840154604080516323b872dd60e01b81526001600160a01b0394851660048201529284166024840152604483019190915251918316916323b872dd916064808201926020929091908290030181600087803b1580156137b557600080fd5b505af11580156137c9573d6000803e3d6000fd5b505050506040513d60208110156137df57600080fd5b50516137ea57600080fd5b600382015482546040516001600160a01b039092169181156108fc0291906000818181858888f19350505050158015613827573d6000803e3d6000fd5b5060405188907fbf67515a38ee520223d32c1266d52101c30d936ed1f3e436c8caeb0a43cb06bf90600090a25050505050505050565b82613866614bb4565b600082815260ca6020908152604091829020825161010081018452815481526001820154928101929092526002808201546001600160a01b0390811694840194909452600382015484166060840152600482015484166080840152600582015493841660a08401529192909160c0840191600160a01b900460ff16908111156138eb57fe5b60028111156138f657fe5b81526020016005820160159054906101000a900460ff16600281111561391857fe5b600281111561392357fe5b905250905060008160e00151600281111561393a57fe5b1461394457600080fd5b600085815260ca602052604090208315613a3757806001015434101561399f576040805162461bcd60e51b81526020600482018190526024820152600080516020614c78833981519152604482015290519081900360640190fd5b60006139ae8260010154610dc3565b9050600081871015613a27576139ca828863ffffffff61334416565b905060006139e38361124784606463ffffffff6132a916565b905060cf548110613a255760405162461bcd60e51b8152600401808060200182810382526035815260200180614e386035913960400191505060405180910390fd5b505b613a30826142e9565b5050613b73565b6000613a468260010154611457565b905080861015613a875760405162461bcd60e51b8152600401808060200182810382526034815260200180614cbe6034913960400191505060405180910390fd5b6001820154613a9c908263ffffffff6143f316565b341015613ade576040805162461bcd60e51b81526020600482018190526024820152600080516020614c78833981519152604482015290519081900360640190fd5b60cc546040516000916001600160a01b03169083908381818185875af1925050503d8060008114613b2b576040519150601f19603f3d011682016040523d82523d6000602084013e613b30565b606091505b5050905080613b705760405162461bcd60e51b8152600401808060200182810382526023815260200180614d8d6023913960400191505060405180910390fd5b50505b60058101805460ff60a81b1916600160a81b179055600480820154600383015483546040805163a9059cbb60e01b81526001600160a01b0393841695810195909552602485019190915251911691829163a9059cbb916044808201926020929091908290030181600087803b158015613beb57600080fd5b505af1158015613bff573d6000803e3d6000fd5b505050506040513d6020811015613c1557600080fd5b5051613c2057600080fd5b600282015460018301546040516000926001600160a01b031691908381818185875af1925050503d8060008114613c73576040519150601f19603f3d011682016040523d82523d6000602084013e613c78565b606091505b5050905080613cb85760405162461bcd60e51b8152600401808060200182810382526023815260200180614c556023913960400191505060405180910390fd5b60405188907fbf67515a38ee520223d32c1266d52101c30d936ed1f3e436c8caeb0a43cb06bf90600090a25050505050505050565b83613cf6614bb4565b600082815260ca6020908152604091829020825161010081018452815481526001820154928101929092526002808201546001600160a01b0390811694840194909452600382015484166060840152600482015484166080840152600582015493841660a08401529192909160c0840191600160a01b900460ff1690811115613d7b57fe5b6002811115613d8657fe5b81526020016005820160159054906101000a900460ff166002811115613da857fe5b6002811115613db357fe5b905250905060008160e001516002811115613dca57fe5b14613dd457600080fd5b600086815260ca602052604090206005810154613df9906001600160a01b0316610b06565b614007578415613eac5760018101546005820154600091613e23916001600160a01b031687610ad1565b9050600081881015613e9c57613e3f828963ffffffff61334416565b90506000613e588361124784606463ffffffff6132a916565b905060cf548110613e9a5760405162461bcd60e51b8152600401808060200182810382526035815260200180614e386035913960400191505060405180910390fd5b505b613ea5826142e9565b5050614007565b600084613ed55760018201546005830154613ed091906001600160a01b0316611474565b613ef2565b60018201546005830154613ef291906001600160a01b031661119f565b905080871015613f335760405162461bcd60e51b8152600401808060200182810382526034815260200180614cbe6034913960400191505060405180910390fd5b80341015613f725760405162461bcd60e51b8152600401808060200182810382526039815260200180614fa46039913960400191505060405180910390fd5b60cc546040516000916001600160a01b03169083908381818185875af1925050503d8060008114613fbf576040519150601f19603f3d011682016040523d82523d6000602084013e613fc4565b606091505b50509050806140045760405162461bcd60e51b8152600401808060200182810382526023815260200180614d8d6023913960400191505060405180910390fd5b50505b60058101805460ff60a81b1916600160a81b1790819055600382015460408051636eb1769f60e11b81526001600160a01b03928316600482015230602482015290519190921691829163dd62ed3e91604480820192602092909190829003018186803b15801561407657600080fd5b505afa15801561408a573d6000803e3d6000fd5b505050506040513d60208110156140a057600080fd5b5051600183015411156140b257600080fd5b600382015460028301546001840154604080516323b872dd60e01b81526001600160a01b0394851660048201529284166024840152604483019190915251918316916323b872dd916064808201926020929091908290030181600087803b15801561411c57600080fd5b505af1158015614130573d6000803e3d6000fd5b505050506040513d602081101561414657600080fd5b505161415157600080fd5b600480830154600384015484546040805163a9059cbb60e01b81526001600160a01b0393841695810195909552602485019190915251911691829163a9059cbb916044808201926020929091908290030181600087803b1580156141b457600080fd5b505af11580156141c8573d6000803e3d6000fd5b505050506040513d60208110156141de57600080fd5b50516141e957600080fd5b60405189907fbf67515a38ee520223d32c1266d52101c30d936ed1f3e436c8caeb0a43cb06bf90600090a2505050505050505050565b600054610100900460ff16806142385750614238614549565b80614246575060005460ff16155b6142815760405162461bcd60e51b815260040180806020018281038252602e815260200180614f3a602e913960400191505060405180910390fd5b600054610100900460ff161580156142ac576000805460ff1961ff0019909116610100171660011790555b6142b461454f565b6142bc6145f1565b6142c46146ea565b6142d085858585614795565b80156142e2576000805461ff00191690555b5050505050565b6000614301606461124784600a63ffffffff6132a916565b9050600061431b606461124785600a63ffffffff6132a916565b9050600061433f82614333868663ffffffff61334416565b9063ffffffff61334416565b60cc5460cb54919250614367916001600160a01b03908116913391168463ffffffff6149a716565b60cd5460cb5461438c916001600160a01b03918216913391168663ffffffff6149a716565b60cb546040805163079cc67960e41b81523360048201526024810185905290516001600160a01b03909216916379cc67909160448082019260009290919082900301818387803b1580156143df57600080fd5b505af11580156109e0573d6000803e3d6000fd5b600082820183811015610dda576040805162461bcd60e51b815260206004820152601b60248201527f536166654d6174683a206164646974696f6e206f766572666c6f770000000000604482015290519081900360640190fd5b600081836144d95760405162461bcd60e51b81526004018080602001828103825283818151815260200191508051906020019080838360005b8381101561449e578181015183820152602001614486565b50505050905090810190601f1680156144cb5780820380516001836020036101000a031916815260200191505b509250505060405180910390fd5b5060008385816144e557fe5b0495945050505050565b600081848411156145415760405162461bcd60e51b815260206004820181815283516024840152835190928392604490910191908501908083836000831561449e578181015183820152602001614486565b505050900390565b303b1590565b600054610100900460ff16806145685750614568614549565b80614576575060005460ff16155b6145b15760405162461bcd60e51b815260040180806020018281038252602e815260200180614f3a602e913960400191505060405180910390fd5b600054610100900460ff161580156145dc576000805460ff1961ff0019909116610100171660011790555b80156145ee576000805461ff00191690555b50565b600054610100900460ff168061460a575061460a614549565b80614618575060005460ff16155b6146535760405162461bcd60e51b815260040180806020018281038252602e815260200180614f3a602e913960400191505060405180910390fd5b600054610100900460ff1615801561467e576000805460ff1961ff0019909116610100171660011790555b6000614688611cca565b606580546001600160a01b0319166001600160a01b038316908117909155604051919250906000907f8be0079c531659141344cd1fd0a4f28419497f9722a3daafe3b4186f6b6457e0908290a35080156145ee576000805461ff001916905550565b600054610100900460ff16806147035750614703614549565b80614711575060005460ff16155b61474c5760405162461bcd60e51b815260040180806020018281038252602e815260200180614f3a602e913960400191505060405180910390fd5b600054610100900460ff16158015614777576000805460ff1961ff0019909116610100171660011790555b6097805460ff1916905580156145ee576000805461ff001916905550565b600054610100900460ff16806147ae57506147ae614549565b806147bc575060005460ff16155b6147f75760405162461bcd60e51b815260040180806020018281038252602e815260200180614f3a602e913960400191505060405180910390fd5b600054610100900460ff16158015614822576000805460ff1961ff0019909116610100171660011790555b6001600160a01b0385166148675760405162461bcd60e51b815260040180806020018281038252602781526020018061501a6027913960400191505060405180910390fd5b6001600160a01b0384166148ac5760405162461bcd60e51b815260040180806020018281038252602b815260200180614ece602b913960400191505060405180910390fd5b6001600160a01b0383166148f15760405162461bcd60e51b815260040180806020018281038252602a815260200180614d63602a913960400191505060405180910390fd5b6001600160a01b0382166149365760405162461bcd60e51b815260040180806020018281038252602c815260200180614dd8602c913960400191505060405180910390fd5b60cb80546001600160a01b038088166001600160a01b03199283161790925560cc805487841690831617905560cd805486841690831617905560d1805492851692909116919091179055600360ce819055600560cf5560d05580156142e2576000805461ff00191690555050505050565b604080516001600160a01b0380861660248301528416604482015260648082018490528251808303909101815260849091019091526020810180516001600160e01b03166323b872dd60e01b179052610dbd908590614a0e826001600160a01b0316611cce565b614a5f576040805162461bcd60e51b815260206004820152601f60248201527f5361666545524332303a2063616c6c20746f206e6f6e2d636f6e747261637400604482015290519081900360640190fd5b60006060836001600160a01b0316836040518082805190602001908083835b60208310614a9d5780518252601f199092019160209182019101614a7e565b6001836020036101000a0380198251168184511680821785525050505050509050019150506000604051808303816000865af19150503d8060008114614aff576040519150601f19603f3d011682016040523d82523d6000602084013e614b04565b606091505b509150915081614b5b576040805162461bcd60e51b815260206004820181905260248201527f5361666545524332303a206c6f772d6c6576656c2063616c6c206661696c6564604482015290519081900360640190fd5b805115610dbd57808060200190516020811015614b7757600080fd5b5051610dbd5760405162461bcd60e51b815260040180806020018281038252602a81526020018061515d602a913960400191505060405180910390fd5b6040805161010081018252600080825260208201819052918101829052606081018290526080810182905260a081018290529060c08201908152602001600090529056fe5b56616c69646174696f6e5d20496e76616c696420636c6f73652074726164657220616464726573735b56616c69646174696f6e5d20546865206f70656e2076616c75652068617320746f206265206c6172676572207468616e20305b56616c69646174696f6e5d205472616e73666572206f6620657468206661696c65645b56616c69646174696f6e5d20456e6f75676820455448206e6f742073656e744f776e61626c653a206e6577206f776e657220697320746865207a65726f20616464726573735b56616c69646174696f6e5d204665652028455448292069732062656c6f77206d696e696d756d207265717569726564206665655b56616c69646174696f6e5d20546865204552432d323020616d6f756e742068617320746f206265206c6172676572207468616e20305b56616c69646174696f6e5d20546865206f70656e204552432d323020616d6f756e742068617320746f206265206c6172676572207468616e20305b56616c69646174696f6e5d2064657657616c6c657420697320746865207a65726f20616464726573735b56616c69646174696f6e5d205472616e73666572206f6620666565206661696c65645b56616c69646174696f6e5d3a20496e76616c6964207377617020746f6b656e20616464726573735b56616c69646174696f6e5d20496e76616c696420707269636520657374696d61746f7220616464726573735b56616c69646174696f6e5d2054686520636c6f73652076616c75652068617320746f206265206c6172676572207468616e20305b56616c69646174696f6e5d20466565202853574150292069732062656c6f77206d696e696d756d207265717569726564206665655b56616c69646174696f6e5d3a20496e76616c696420707269636520657374696d61746f7220616464726573735b56616c69646174696f6e5d20546865206164647265737320646f6573206e6f7420636f6e7461696e206120636f6e74726163745b56616c69646174696f6e5d206665657357616c6c657420697320746865207a65726f2061646472657373536166654d6174683a206d756c7469706c69636174696f6e206f766572666c6f774f776e61626c653a2063616c6c6572206973206e6f7420746865206f776e6572436f6e747261637420696e7374616e63652068617320616c7265616479206265656e20696e697469616c697a65645b56616c69646174696f6e5d2054686520636c6f7365204552432d323020616d6f756e742068617320746f206265206c6172676572207468616e20305b56616c69646174696f6e5d206d73672e76616c756520646f65736e277420636f6e7461696e20656e6f7567682045544820666f72206665655b56616c69646174696f6e5d3a205468652063616c6c6572206973206e6f7420617574686f72697a656420746f20636c6f7365207468652074726164655b56616c69646174696f6e5d20496e76616c6964207377617020746f6b656e20616464726573735b56616c69646174696f6e5d20546865206665652068617320746f206265206c6172676572207468616e20305b56616c69646174696f6e5d3a20416c6c6f7765642046656520536c6970706167652070657263656e74616765206d757374206265206265747765656e203020746f203130305b56616c69646174696f6e5d3a20455448204665652070657263656e74616765206d757374206265206265747765656e203020746f203130305b56616c69646174696f6e5d205468652045544820616d6f756e742068617320746f206265206c6172676572207468616e20305b56616c69646174696f6e5d3a205468652063616c6c6572206973206e6f7420617574686f72697a656420746f2063616e63656c207468652074726164655361666545524332303a204552433230206f7065726174696f6e20646964206e6f7420737563636565645b56616c69646174696f6e5d3a20556e6973776170204665652070657263656e74616765206d757374206265206265747765656e203020746f20313030a2646970667358221220d82dda87c5bd64209564d6a7f678644aee67354676be015bbddff30c0276b2de64736f6c63430006020033",
  "source": "pragma solidity 0.6.2;\n\nimport \"@openzeppelin/contracts-ethereum-package/contracts/token/ERC20/ERC20.sol\";\nimport \"@openzeppelin/contracts-ethereum-package/contracts/token/ERC20/SafeERC20.sol\";\nimport \"@openzeppelin/contracts-ethereum-package/contracts/access/Ownable.sol\";\nimport \"@openzeppelin/contracts-ethereum-package/contracts/utils/Pausable.sol\";\nimport \"./IERC20Extended.sol\";\nimport \"./IPriceEstimator.sol\";\n\ncontract SmartSwap is Initializable, OwnableUpgradeSafe, PausableUpgradeSafe {\n    using SafeERC20 for IERC20;\n    using SafeMath for uint256;\n    using Address for address;\n\n    enum Status {\n        OPEN,\n        CLOSED,\n        CANCELLED\n    }\n\n    enum SwapType {\n        ETH_TO_ERC20,\n        ERC20_TO_ETH,\n        ERC20_TO_ERC20\n    }\n\n    struct Swap {\n        uint256 openValue;\n        uint256 closeValue;\n        address payable openTrader;\n        address payable closeTrader;\n        address openContractAddress;\n        address closeContractAddress;\n        SwapType swapType;\n        Status status;\n    }\n\n    address constant private ETH_ADDRESS = address(\n        0xEeeeeEeeeEeEeeEeEeEeeEEEeeeeEeeeeeeeEEeE\n    );\n\n    uint256 constant private DEV_FEE_PERCENTAGE = 10;\n    uint256 constant private BURN_FEE_PERCENTAGE = 10;\n\n    //Global swap id. Also give total number of swaps made so far\n    uint256 private _swapId;\n\n    mapping (uint256 => Swap) private _swaps;\n\n    IERC20 private _swapToken;\n\n    //Wallet where fees will go\n    address payable private _feesWallet;\n\n    //Wallet where dev fund will go\n    address private _devWallet;\n\n    uint256 private _ethFeePercentage;\n    uint256 private _allowedFeeSlippagePercentage;\n    uint256 private _uniswapFeePercentage;\n\n    IPriceEstimator private _priceEstimator;\n\n    //list of free tokens\n    mapping(address => bool) private _listFreeTokens;\n\n    event Open(uint256 indexed id, address indexed openTrader, address indexed closeTrader);\n    event Cancel(uint256 indexed id);\n    event Close(uint256 indexed id);\n    event FeeWalletChanged(address indexed wallet);\n    event DevWalletChanged(address indexed wallet);\n    event SwapTokenUpdated(address indexed swapTokenAddress);\n\n    modifier onlyContract(address account)\n    {\n        require(account.isContract(), \"[Validation] The address does not contain a contract\");\n        _;\n    }\n\n    modifier onlyOpenSwaps(uint256 id) {\n        Swap memory swap = _swaps[id];\n        require (swap.status == Status.OPEN);\n        _;\n    }\n\n    /**\n    * @dev initialize\n    */\n    function initialize(\n        address swapTokenAddress,\n        address payable feesWallet,\n        address devWallet,\n        address priceEstimator\n    )\n    external\n    onlyContract(swapTokenAddress)\n    onlyContract(priceEstimator)\n    {\n        __SmartSwap_init(swapTokenAddress, feesWallet, devWallet, priceEstimator);\n    }\n\n    function __SmartSwap_init(\n        address swapTokenAddress,\n        address payable feesWallet,\n        address devWallet,\n        address priceEstimator\n    )\n    internal\n    initializer\n    {\n        __Context_init_unchained();\n        __Ownable_init_unchained();\n        __Pausable_init_unchained();\n        __SmartSwap_init_unchained(swapTokenAddress, feesWallet, devWallet, priceEstimator);\n    }\n\n    function __SmartSwap_init_unchained(\n        address swapTokenAddress,\n        address payable feesWallet,\n        address devWallet,\n        address priceEstimator\n    )\n    internal\n    initializer\n    {\n        require(\n            swapTokenAddress != address(0),\n            \"[Validation] Invalid swap token address\"\n        );\n        require(feesWallet != address(0), \"[Validation] feesWallet is the zero address\");\n        require(devWallet != address(0), \"[Validation] devWallet is the zero address\");\n        require(\n            priceEstimator != address(0),\n            \"[Validation] Invalid price estimator address\"\n        );\n\n        _swapToken = IERC20(swapTokenAddress);\n        _feesWallet = feesWallet;\n        _devWallet = devWallet;\n        _priceEstimator = IPriceEstimator(priceEstimator);\n        _ethFeePercentage = 3;\n        _allowedFeeSlippagePercentage = 5;\n        _uniswapFeePercentage = 3;\n    }\n\n    /**\n    * @dev Called by an admin to pause, triggers stopped state.\n    */\n    function pause()\n    external\n    onlyOwner \n    {\n        _pause();\n    }\n\n    /**\n    * @dev Called by an admin to unpause, returns to normal state.\n    */\n    function unpause()\n    external\n    onlyOwner\n    {\n        _unpause();\n    }\n\n    /**\n    * @dev Update swap token address\n    * @param swapTokenAddress New swap token address\n    */\n    function setSwapToken(address swapTokenAddress)\n    external\n    onlyOwner\n    onlyContract(swapTokenAddress)\n    {\n        require(\n            swapTokenAddress != address(0),\n            \"[Validation]: Invalid swap token address\"\n        );\n        _swapToken = IERC20(swapTokenAddress);\n        emit SwapTokenUpdated(swapTokenAddress);\n    }\n\n    /**\n    * @dev Allows admin to set fee receiver wallet\n    * @param wallet New wallet address\n    */\n    function setFeeWallet(address payable wallet)\n    external\n    onlyOwner\n    {\n        require(\n            wallet != address(0),\n            \"[Validation] feesWallet is the zero address\"\n        );\n        _feesWallet = wallet;\n\n        emit FeeWalletChanged(wallet);\n    }\n\n    /**\n    * @dev Allows admin to set fee receiver wallet\n    * @param wallet New wallet address\n    */\n    function setDevWallet(address payable wallet)\n    external\n    onlyOwner\n    {\n        require(\n            wallet != address(0),\n            \"[Validation] devWallet is the zero address\"\n        );\n        _devWallet = wallet;\n\n        emit DevWalletChanged(wallet);\n    }\n\n    /**\n    * @dev Update price estimator address\n    * @param priceEstimator New price estimator address\n    */\n    function setPriceEstimator(address priceEstimator)\n    external\n    onlyOwner\n    onlyContract(priceEstimator)\n    {\n        require(\n            priceEstimator != address(0),\n            \"[Validation]: Invalid price estimator address\"\n        );\n        _priceEstimator = IPriceEstimator(priceEstimator);\n    }\n\n    /**\n    * @dev Update fees\n    * @param ethFeePercentage New percentage of fee in eth\n    */\n    function setEthFeePercentage(uint8 ethFeePercentage)\n    external\n    onlyOwner\n    {\n        require(\n            ethFeePercentage >= 0 && ethFeePercentage <= 100,\n            \"[Validation]: ETH Fee percentage must be between 0 to 100\"\n        );\n        _ethFeePercentage = ethFeePercentage;\n    }\n\n    /**\n    * @dev Update fee slippage percentage allowance for erc20\n    * @param allowedFeeSlippagePercentage New allowed fee slippage percentage for fee in erc20\n    */\n    function setAllowedFeeSlippagePercentage(uint8 allowedFeeSlippagePercentage)\n    external\n    onlyOwner\n    {\n        require(\n            allowedFeeSlippagePercentage >= 0 && allowedFeeSlippagePercentage <= 100,\n            \"[Validation]: Allowed Fee Slippage percentage must be between 0 to 100\"\n        );\n        _allowedFeeSlippagePercentage = allowedFeeSlippagePercentage;\n    }\n\n    /**\n    * @dev Update Uniswap fees\n    * @param uniswapFeePercentage New percentage of uniswap fee\n    */\n    function setUniswapFeePercentage(uint8 uniswapFeePercentage)\n    external\n    onlyOwner\n    {\n        require(\n            uniswapFeePercentage >= 0 && uniswapFeePercentage <= 100,\n            \"[Validation]: Uniswap Fee percentage must be between 0 to 100\"\n        );\n        _uniswapFeePercentage = uniswapFeePercentage;\n    }\n\n    function getFeeInEthForEth(uint256 amount)\n    public\n    view\n    returns (uint256) \n    {\n        //_ethFeePercentage is a percentage expressed in 1/10 (a tenth) of a percent hence we divide by 1000\n        return amount.mul(_ethFeePercentage).div(1000); //0.3% of ETH amount\n    }\n\n    function getFeeInEthForERC20(uint256 amount, address token)\n    public \n    view\n    returns (uint256)\n    {\n        if(isFreeToken(token)) {\n            return 0;\n        } else {\n            //price should be estimated by 1 token because Uniswap algo changes price based on large amount\n            uint256 tokenBits = 10 ** uint256(IERC20Extended(token).decimals());\n            uint256 estFeesInEthPerUnit = _priceEstimator.getEstimatedETHforERC20(tokenBits, token)[0];\n            //subtract uniswap 0.30% fees\n            //_uniswapFeePercentage is a percentage expressed in 1/10 (a tenth) of a percent hence we divide by 1000\n            estFeesInEthPerUnit = estFeesInEthPerUnit.sub(estFeesInEthPerUnit.mul(_uniswapFeePercentage).div(1000));\n            uint256 equivEth = amount.mul(estFeesInEthPerUnit).div(tokenBits); //multiply by amount to be scheduled amount\n            return getFeeInEthForEth(equivEth);\n        }\n    }\n\n    function getFeeInEthForERC20UsingTotalSupply(uint256 amount, address token)\n    public\n    view\n    returns (uint256)\n    {\n        if(isFreeToken(token)) {\n            return 0;\n        } else {\n            //per 1% supply , 0.1 ETH is the fee\n            uint256 tokenTotalSupply = IERC20(token).totalSupply();\n            uint256 percentage = amount.mul(tokenTotalSupply).mul(100).div(tokenTotalSupply);\n            uint256 ethFeeInWei = 100000000000000000; //0.1 ETH\n            return percentage.mul(ethFeeInWei).div(tokenTotalSupply);\n        }\n    }\n\n    function getFeeInSwapForETH(uint256 amount)\n    public\n    view\n    returns (uint256)\n    {\n        uint256 feesInEth = getFeeInEthForEth(amount);\n        return _getEquivSwapFee(feesInEth);\n    }\n\n    function getFeeInSwapForERC20(uint256 amount, address token, bool calcFeeUsingTotalSupply)\n    public\n    view\n    returns (uint256)\n    {\n        uint256 feesInEth = calcFeeUsingTotalSupply ? \n            getFeeInEthForERC20UsingTotalSupply(amount, token) : \n            getFeeInEthForERC20(amount, token);\n        return _getEquivSwapFee(feesInEth);\n    }\n\n    function _getEquivSwapFee(uint256 feesInEth)\n    private\n    view\n    returns (uint256)\n    {\n        uint256 feesInEthIfPaidViaSwap = feesInEth.div(2);\n        uint256 swapPerEth = _priceEstimator.getEstimatedERC20forETH(1, address(_swapToken))[0];\n        //subtract uniswap 0.30% fees\n        //_uniswapFeePercentage is a percentage expressed in 1/10 (a tenth) of a percent hence we divide by 1000\n        uint256 estSwapPerEth = swapPerEth.sub(swapPerEth.mul(_uniswapFeePercentage).div(1000));\n        return feesInEthIfPaidViaSwap.mul(estSwapPerEth);\n    }\n\n    function _distributeFees(uint256 fee)\n    private\n    {\n        uint256 devAmount = fee.mul(DEV_FEE_PERCENTAGE).div(100); //10%\n        uint256 burnAmount = fee.mul(BURN_FEE_PERCENTAGE).div(100); //10%\n        uint256 remAmount = fee.sub(devAmount).sub(burnAmount); //80%\n\n        _swapToken.safeTransferFrom(msg.sender, _feesWallet, remAmount);\n        _swapToken.safeTransferFrom(msg.sender, _devWallet, devAmount);\n        IERC20Extended(address(_swapToken)).burnFrom(msg.sender, burnAmount);\n    }\n\n    function open(\n        uint256 openValue,\n        address openContractAddress,\n        uint256 closeValue,\n        address payable closeTrader,\n        address closeContractAddress,\n        uint256 fee,\n        bool isFeeInSwap,\n        bool calcFeeUsingTotalSupply\n    )\n    external\n    payable\n    whenNotPaused\n    {\n        require(openValue > 0, \"[Validation] The open value has to be larger than 0\");\n        require(closeValue > 0, \"[Validation] The close value has to be larger than 0\");\n        if(!isFreeToken(openContractAddress)) {\n        require(fee > 0, \"[Validation] The fee has to be larger than 0\");\n        }\n        require(closeTrader != address(0), \"[Validation] Invalid close trader address\");\n\n        if(ETH_ADDRESS == openContractAddress)\n        {\n            _openEtherToERC20(\n                openValue,\n                closeValue,\n                closeTrader,\n                closeContractAddress,\n                fee,\n                isFeeInSwap\n            );\n        } \n        else if(ETH_ADDRESS == closeContractAddress)\n        {\n            _openERC20ToEther(\n                openValue,\n                openContractAddress,\n                closeTrader,\n                closeValue,\n                fee,\n                isFeeInSwap,\n                calcFeeUsingTotalSupply\n            );\n        }\n        else\n        {\n            _openERC20ToERC20(\n                openValue,\n                openContractAddress,\n                closeValue,\n                closeTrader,\n                closeContractAddress,\n                fee,\n                isFeeInSwap,\n                calcFeeUsingTotalSupply\n            );\n        }\n    }\n\n    function _openEtherToERC20(\n        uint256 ethValue,\n        uint256 erc20Value,\n        address payable erc20Trader,\n        address erc20ContractAddress,\n        uint256 fee,\n        bool isFeeInSwap\n    )\n    private\n    whenNotPaused\n    onlyContract(erc20ContractAddress)\n    {\n        require(ethValue > 0, \"[Validation] The ETH amount has to be larger than 0\");\n        require(erc20Value > 0, \"[Validation] The ERC-20 amount has to be larger than 0\");\n        require(fee > 0, \"[Validation] The fee has to be larger than 0\");\n\n        //Transferring fee to the wallet\n        if(isFeeInSwap){\n            require(msg.value >= ethValue, \"[Validation] Enough ETH not sent\");\n            uint256 minRequiredFeeInSwap = getFeeInSwapForETH(ethValue);\n            uint256 feeDiff = 0;\n            if( fee < minRequiredFeeInSwap ) {\n                feeDiff = minRequiredFeeInSwap.sub(fee);\n                uint256 feeSlippagePercentage = feeDiff.mul(100).div(minRequiredFeeInSwap);\n                //will allow if diff is less than 5%\n                require(feeSlippagePercentage < _allowedFeeSlippagePercentage, \"[Validation] Fee (SWAP) is below minimum required fee\");\n            }\n            _distributeFees(minRequiredFeeInSwap);\n        }\n        else {\n            uint256 minRequiredFeeInEth = getFeeInEthForEth(ethValue);\n            require(fee >= minRequiredFeeInEth, \"[Validation] Fee (ETH) is below minimum required fee\");\n            require(msg.value >= ethValue.add(minRequiredFeeInEth), \"[Validation] Enough ETH not sent\");\n            (bool success,) = _feesWallet.call.value(minRequiredFeeInEth)(\"\");\n            require(success, \"[Validation] Transfer of fee failed\");\n        }\n\n        _swapId = _swapId.add(1);\n\n        // Store the details of the swap.\n        _swaps[_swapId] = Swap({\n            openValue: ethValue,\n            openTrader: msg.sender,\n            openContractAddress: ETH_ADDRESS,\n            closeValue: erc20Value,\n            closeTrader: erc20Trader,\n            closeContractAddress: erc20ContractAddress,\n            swapType: SwapType.ETH_TO_ERC20,\n            status: Status.OPEN\n        });\n\n        emit Open(_swapId, msg.sender, erc20Trader);\n    }\n\n    function _openERC20ToEther(\n        uint256 erc20Value,\n        address erc20ContractAddress,\n        address payable ethTrader,\n        uint256 ethValue,\n        uint256 fee,\n        bool isFeeInSwap,\n        bool calcFeeUsingTotalSupply\n    )\n    private\n    whenNotPaused\n    onlyContract(erc20ContractAddress)\n    {\n        require(ethValue > 0, \"[Validation] The ETH amount has to be larger than 0\");\n        require(erc20Value > 0, \"[Validation] The ERC-20 amount has to be larger than 0\");\n        \n        if(!isFreeToken(erc20ContractAddress)) {\n            //Transfer fee to the wallet\n            if(isFeeInSwap){\n                uint256 minRequiredFeeInSwap = getFeeInSwapForERC20(erc20Value, erc20ContractAddress, calcFeeUsingTotalSupply);\n                uint256 feeDiff = 0;\n                if( fee < minRequiredFeeInSwap ) {\n                    feeDiff = minRequiredFeeInSwap.sub(fee);\n                    uint256 feeSlippagePercentage = feeDiff.mul(100).div(minRequiredFeeInSwap);\n                    //will allow if diff is less than 5%\n                    require(feeSlippagePercentage < _allowedFeeSlippagePercentage, \"[Validation] Fee (SWAP) is below minimum required fee\");\n                }\n                _distributeFees(minRequiredFeeInSwap);\n            }\n            else {\n                uint256 minRequiredFeeInEth = calcFeeUsingTotalSupply ? \n                    getFeeInEthForERC20UsingTotalSupply(erc20Value, erc20ContractAddress) : \n                    getFeeInEthForERC20(erc20Value, erc20ContractAddress);\n                require(fee >= minRequiredFeeInEth, \"[Validation] Fee (ETH) is below minimum required fee\");\n                require(msg.value >= minRequiredFeeInEth, \"[Validation] msg.value doesn't contain enough ETH for fee\");\n                (bool success,) = _feesWallet.call.value(minRequiredFeeInEth)(\"\");\n                require(success, \"[Validation] Transfer of fee failed\");\n            }\n        }\n        // Transfer value from the opening trader to this contract.\n        IERC20 openERC20Contract = IERC20(erc20ContractAddress);\n        require(erc20Value <= openERC20Contract.allowance(msg.sender, address(this)));\n        require(openERC20Contract.transferFrom(msg.sender, address(this), erc20Value));\n\n        _swapId = _swapId.add(1);\n\n        // Store the details of the swap.\n        _swaps[_swapId] = Swap({\n            openValue: erc20Value,\n            openTrader: msg.sender,\n            openContractAddress: erc20ContractAddress,\n            closeValue: ethValue,\n            closeTrader: ethTrader,\n            closeContractAddress: ETH_ADDRESS,\n            swapType: SwapType.ERC20_TO_ETH,\n            status: Status.OPEN\n        });\n\n        emit Open(_swapId, msg.sender, ethTrader);\n    }\n\n    function _openERC20ToERC20(\n        uint256 openValue,\n        address openContractAddress,\n        uint256 closeValue,\n        address payable closeTrader,\n        address closeContractAddress,\n        uint256 fee,\n        bool isFeeInSwap,\n        bool calcFeeUsingTotalSupply\n    )\n    private\n    whenNotPaused\n    {\n        require(openValue > 0, \"[Validation] The open ERC-20 amount has to be larger than 0\");\n        require(closeValue > 0, \"[Validation] The close ERC-20 amount has to be larger than 0\");\n        \n        if(!isFreeToken(openContractAddress)) {\n            //Transfer fee to the wallet\n            if(isFeeInSwap){\n                uint256 minRequiredFeeInSwap = getFeeInSwapForERC20(openValue, openContractAddress, calcFeeUsingTotalSupply);\n                uint256 feeDiff = 0;\n                if( fee < minRequiredFeeInSwap ) {\n                    feeDiff = minRequiredFeeInSwap.sub(fee);\n                    uint256 feeSlippagePercentage = feeDiff.mul(100).div(minRequiredFeeInSwap);\n                    //will allow if diff is less than 5%\n                    require(feeSlippagePercentage < _allowedFeeSlippagePercentage, \"[Validation] Fee (SWAP) is below minimum required fee\");\n                }\n                _distributeFees(minRequiredFeeInSwap);\n            }\n            else {\n                uint256 minRequiredFeeInEth = calcFeeUsingTotalSupply ? \n                    getFeeInEthForERC20UsingTotalSupply(openValue, openContractAddress) : \n                    getFeeInEthForERC20(openValue, openContractAddress);\n                require(fee >= minRequiredFeeInEth, \"[Validation] Fee (ETH) is below minimum required fee\");\n                require(msg.value >= minRequiredFeeInEth, \"[Validation] msg.value doesn't contain enough ETH for fee\");\n                (bool success,) = _feesWallet.call.value(minRequiredFeeInEth)(\"\");\n                require(success, \"[Validation] Transfer of fee failed\");\n            }\n        }\n\n        // Transfer value from the opening trader to this contract.\n        IERC20 openERC20Contract = IERC20(openContractAddress);\n        require(openValue <= openERC20Contract.allowance(msg.sender, address(this)));\n        require(openERC20Contract.transferFrom(msg.sender, address(this), openValue));\n\n        _swapId = _swapId.add(1);\n\n        // Store the details of the swap.\n        _swaps[_swapId] = Swap({\n            openValue: openValue,\n            openTrader: msg.sender,\n            openContractAddress: openContractAddress,\n            closeValue: closeValue,\n            closeTrader: closeTrader,\n            closeContractAddress: closeContractAddress,\n            swapType: SwapType.ERC20_TO_ERC20,\n            status: Status.OPEN\n        });\n\n        emit Open(_swapId, msg.sender, closeTrader);\n    }\n\n    function close(\n        uint256 id,\n        uint256 fee,\n        bool isFeeInSwap,\n        bool calcFeeUsingTotalSupply\n    )\n    external\n    payable\n    onlyOpenSwaps(id)\n    {\n        Swap memory swap = _swaps[id];\n        require(swap.closeTrader == _msgSender(), \"[Validation]: The caller is not authorized to close the trade\");\n        if(SwapType.ETH_TO_ERC20 == swap.swapType)\n        {\n            _closeEtherToERC20(\n                id,\n                fee,\n                isFeeInSwap,\n                calcFeeUsingTotalSupply\n            );\n        } \n        else if(SwapType.ERC20_TO_ETH == swap.swapType)\n        {\n            _closeERC20ToEther(\n                id,\n                fee,\n                isFeeInSwap\n            );\n        }\n        else\n        {\n            _closeERC20ToERC20(\n                id,\n                fee,\n                isFeeInSwap,\n                calcFeeUsingTotalSupply\n            );\n        }\n    }\n\n    function _closeEtherToERC20(\n        uint256 id,\n        uint256 fee,\n        bool isFeeInSwap,\n        bool calcFeeUsingTotalSupply\n    )\n    private\n    onlyOpenSwaps(id)\n    {\n        Swap storage swap = _swaps[id];\n\n        if(!isFreeToken(swap.closeContractAddress)) {\n            //Transfer fee to the wallet\n            if(isFeeInSwap){\n                uint256 minRequiredFeeInSwap = getFeeInSwapForERC20(swap.closeValue, swap.closeContractAddress, calcFeeUsingTotalSupply);\n                uint256 feeDiff = 0;\n                if( fee < minRequiredFeeInSwap ) {\n                    feeDiff = minRequiredFeeInSwap.sub(fee);\n                    uint256 feeSlippagePercentage = feeDiff.mul(100).div(minRequiredFeeInSwap);\n                    //will allow if diff is less than 5%\n                    require(feeSlippagePercentage < _allowedFeeSlippagePercentage, \"[Validation] Fee (SWAP) is below minimum required fee\");\n                }\n                _distributeFees(minRequiredFeeInSwap);\n            }\n            else {\n                uint256 minRequiredFeeInEth = calcFeeUsingTotalSupply ? \n                    getFeeInEthForERC20UsingTotalSupply(swap.closeValue, swap.closeContractAddress) : \n                    getFeeInEthForERC20(swap.closeValue, swap.closeContractAddress);\n                require(fee >= minRequiredFeeInEth, \"[Validation] Fee (ETH) is below minimum required fee\");\n                require(msg.value >= minRequiredFeeInEth, \"[Validation] msg.value doesn't contain enough ETH for fee\");\n                (bool success,) = _feesWallet.call.value(minRequiredFeeInEth)(\"\");\n                require(success, \"[Validation] Transfer of fee failed\");\n            }\n        }\n        // Close the swap.\n        swap.status = Status.CLOSED;\n\n        // Transfer the ERC20 funds from the ERC20 trader to the ETH trader.\n        IERC20 erc20Contract = IERC20(swap.closeContractAddress);\n        require(swap.closeValue <= erc20Contract.allowance(swap.closeTrader, address(this)));\n        require(erc20Contract.transferFrom(swap.closeTrader, swap.openTrader, swap.closeValue));\n\n        // Transfer the ETH funds from this contract to the ERC20 trader.\n        swap.closeTrader.transfer(swap.openValue);\n        \n        emit Close(id);\n    }\n\n    function _closeERC20ToEther(\n        uint256 id,\n        uint256 fee,\n        bool isFeeInSwap\n    )\n    private\n    onlyOpenSwaps(id)\n    {\n        Swap storage swap = _swaps[id];\n\n        //Transferring fee to the wallet\n        if(isFeeInSwap){\n            require(msg.value >= swap.closeValue, \"[Validation] Enough ETH not sent\");\n            uint256 minRequiredFeeInSwap = getFeeInSwapForETH(swap.closeValue);\n            uint256 feeDiff = 0;\n            if( fee < minRequiredFeeInSwap ) {\n                feeDiff = minRequiredFeeInSwap.sub(fee);\n                uint256 feeSlippagePercentage = feeDiff.mul(100).div(minRequiredFeeInSwap);\n                //will allow if diff is less than 5%\n                require(feeSlippagePercentage < _allowedFeeSlippagePercentage, \"[Validation] Fee (SWAP) is below minimum required fee\");\n            }\n            _distributeFees(minRequiredFeeInSwap);\n        }\n        else {\n            uint256 minRequiredFeeInEth = getFeeInEthForEth(swap.closeValue);\n            require(fee >= minRequiredFeeInEth, \"[Validation] Fee (ETH) is below minimum required fee\");\n            require(msg.value >= swap.closeValue.add(minRequiredFeeInEth), \"[Validation] Enough ETH not sent\");\n            (bool success,) = _feesWallet.call.value(minRequiredFeeInEth)(\"\");\n            require(success, \"[Validation] Transfer of fee failed\");\n        }\n\n        // Close the swap.\n        swap.status = Status.CLOSED;\n\n        // Transfer the opening funds from this contract to the eth trader.\n        IERC20 openERC20Contract = IERC20(swap.openContractAddress);\n        require(openERC20Contract.transfer(swap.closeTrader, swap.openValue));\n\n        (bool success,) = swap.openTrader.call.value(swap.closeValue)(\"\");\n        require(success, \"[Validation] Transfer of eth failed\");\n        \n        emit Close(id);\n    }\n\n    function _closeERC20ToERC20(\n        uint256 id,\n        uint256 fee,\n        bool isFeeInSwap,\n        bool calcFeeUsingTotalSupply\n    )\n    private\n    onlyOpenSwaps(id)\n    {\n        Swap storage swap = _swaps[id];\n\n        if(!isFreeToken(swap.closeContractAddress)) {\n            //Transfer fee to the wallet\n            if(isFeeInSwap){\n                uint256 minRequiredFeeInSwap = getFeeInSwapForERC20(swap.closeValue, swap.closeContractAddress, calcFeeUsingTotalSupply);\n                uint256 feeDiff = 0;\n                if( fee < minRequiredFeeInSwap ) {\n                    feeDiff = minRequiredFeeInSwap.sub(fee);\n                    uint256 feeSlippagePercentage = feeDiff.mul(100).div(minRequiredFeeInSwap);\n                    //will allow if diff is less than 5%\n                    require(feeSlippagePercentage < _allowedFeeSlippagePercentage, \"[Validation] Fee (SWAP) is below minimum required fee\");\n                }\n                _distributeFees(minRequiredFeeInSwap);\n            }\n            else {\n                uint256 minRequiredFeeInEth = calcFeeUsingTotalSupply ? \n                    getFeeInEthForERC20UsingTotalSupply(swap.closeValue, swap.closeContractAddress) : \n                    getFeeInEthForERC20(swap.closeValue, swap.closeContractAddress);\n                require(fee >= minRequiredFeeInEth, \"[Validation] Fee (ETH) is below minimum required fee\");\n                require(msg.value >= minRequiredFeeInEth, \"[Validation] msg.value doesn't contain enough ETH for fee\");\n                (bool success,) = _feesWallet.call.value(minRequiredFeeInEth)(\"\");\n                require(success, \"[Validation] Transfer of fee failed\");\n            }\n        }\n\n        // Close the swap.\n        swap.status = Status.CLOSED;\n\n        // Transfer the closing funds from the closing trader to the opening trader.\n        IERC20 closeERC20Contract = IERC20(swap.closeContractAddress);\n        require(swap.closeValue <= closeERC20Contract.allowance(swap.closeTrader, address(this)));\n        require(closeERC20Contract.transferFrom(swap.closeTrader, swap.openTrader, swap.closeValue));\n\n        // Transfer the opening funds from this contract to the closing trader.\n        IERC20 openERC20Contract = IERC20(swap.openContractAddress);\n        require(openERC20Contract.transfer(swap.closeTrader, swap.openValue));\n\n        emit Close(id);\n    }\n\n    function cancel(uint256 id)\n    external\n    onlyOpenSwaps(id)\n    {\n        Swap memory swap = _swaps[id];\n        require(swap.openTrader == _msgSender(), \"[Validation]: The caller is not authorized to cancel the trade\");\n        if(SwapType.ETH_TO_ERC20 == swap.swapType) {\n            _cancelEtherToERC20(id);\n        }\n        else {\n            _cancelERC20(id);\n        }\n    }\n\n    function _cancelEtherToERC20(uint256 id)\n    private\n    onlyOpenSwaps(id)\n    {\n        // Cancel the swap.\n        Swap storage swap = _swaps[id];\n        swap.status = Status.CANCELLED;\n\n        // Transfer the ETH value from this contract back to the ETH trader.\n        swap.openTrader.transfer(swap.openValue);\n        emit Cancel(id);\n    }\n\n    function _cancelERC20(uint256 id)\n    private\n    onlyOpenSwaps(id)\n    {\n        // Cancel the swap.\n        Swap storage swap = _swaps[id];\n        swap.status = Status.CANCELLED;\n\n        // Transfer opening value from this contract back to the opening trader.\n        IERC20 openERC20Contract = IERC20(swap.openContractAddress);\n        require(openERC20Contract.transfer(swap.openTrader, swap.openValue));\n\n        emit Cancel(id);\n    }\n\n    function check(uint256 id)\n    external\n    view\n    returns (\n        uint256 openValue,\n        address openTrader,\n        address openContractAddress,\n        uint256 closeValue,\n        address closeTrader,\n        address closeContractAddress,\n        SwapType swapType,\n        Status status\n    )\n    {\n        Swap memory swap = _swaps[id];\n        return (\n            swap.openValue, \n            swap.openTrader, \n            swap.openContractAddress, \n            swap.closeValue, \n            swap.closeTrader, \n            swap.closeContractAddress,\n            swap.swapType,\n            swap.status\n        );\n    }\n\n    /**\n    * @dev called by admin to add given token to free tokens list\n    */\n    function addTokenToFreeList(address token)\n    external\n    onlyOwner\n    onlyContract(token)\n    {\n        _listFreeTokens[token] = true;\n    }\n\n    /**\n    * @dev called by admin to remove given token from free tokens list\n    */\n    function removeTokenFromFreeList(address token)\n    external\n    onlyOwner\n    onlyContract(token)\n    {\n        _listFreeTokens[token] = false;\n    }\n\n    /**\n    * @dev Checks if token is in free list\n    * @param token The address to check\n    */\n    function isFreeToken(address token)\n    public\n    view\n    returns(bool)\n    {\n        return _listFreeTokens[token];\n    }\n}",
  "sourcePath": "/Volumes/Projects/Projects/TrustSwap/swap-contracts/contracts/SmartSwap.sol",
  "compiler": {
    "name": "solc",
    "version": "0.6.2+commit.bacdbe57.Emscripten.clang"
  },
  "schemaVersion": "3.3.4",
  "updatedAt": "2021-03-15T19:49:43.255Z",
  "devdoc": {
    "methods": {
      "addTokenToFreeList(address)": {
        "details": "called by admin to add given token to free tokens list"
      },
      "initialize(address,address,address,address)": {
        "details": "initialize"
      },
      "isFreeToken(address)": {
        "details": "Checks if token is in free list",
        "params": {
          "token": "The address to check"
        }
      },
      "owner()": {
        "details": "Returns the address of the current owner."
      },
      "pause()": {
        "details": "Called by an admin to pause, triggers stopped state."
      },
      "paused()": {
        "details": "Returns true if the contract is paused, and false otherwise."
      },
      "removeTokenFromFreeList(address)": {
        "details": "called by admin to remove given token from free tokens list"
      },
      "renounceOwnership()": {
        "details": "Leaves the contract without owner. It will not be possible to call `onlyOwner` functions anymore. Can only be called by the current owner.     * NOTE: Renouncing ownership will leave the contract without an owner, thereby removing any functionality that is only available to the owner."
      },
      "setAllowedFeeSlippagePercentage(uint8)": {
        "details": "Update fee slippage percentage allowance for erc20",
        "params": {
          "allowedFeeSlippagePercentage": "New allowed fee slippage percentage for fee in erc20"
        }
      },
      "setDevWallet(address)": {
        "details": "Allows admin to set fee receiver wallet",
        "params": {
          "wallet": "New wallet address"
        }
      },
      "setEthFeePercentage(uint8)": {
        "details": "Update fees",
        "params": {
          "ethFeePercentage": "New percentage of fee in eth"
        }
      },
      "setFeeWallet(address)": {
        "details": "Allows admin to set fee receiver wallet",
        "params": {
          "wallet": "New wallet address"
        }
      },
      "setPriceEstimator(address)": {
        "details": "Update price estimator address",
        "params": {
          "priceEstimator": "New price estimator address"
        }
      },
      "setSwapToken(address)": {
        "details": "Update swap token address",
        "params": {
          "swapTokenAddress": "New swap token address"
        }
      },
      "setUniswapFeePercentage(uint8)": {
        "details": "Update Uniswap fees",
        "params": {
          "uniswapFeePercentage": "New percentage of uniswap fee"
        }
      },
      "transferOwnership(address)": {
        "details": "Transfers ownership of the contract to a new account (`newOwner`). Can only be called by the current owner."
      },
      "unpause()": {
        "details": "Called by an admin to unpause, returns to normal state."
      }
    }
  },
  "userdoc": {
    "methods": {}
  }
}