{
  "contractName": "SwapPaymentScheduler",
  "abi": [
    {
      "anonymous": false,
      "inputs": [
        {
          "indexed": true,
          "internalType": "address",
          "name": "wallet",
          "type": "address"
        }
      ],
      "name": "DevWalletChanged",
      "type": "event"
    },
    {
      "anonymous": false,
      "inputs": [
        {
          "indexed": true,
          "internalType": "address",
          "name": "wallet",
          "type": "address"
        }
      ],
      "name": "FeeWalletChanged",
      "type": "event"
    },
    {
      "anonymous": false,
      "inputs": [
        {
          "indexed": true,
          "internalType": "address",
          "name": "previousOwner",
          "type": "address"
        },
        {
          "indexed": true,
          "internalType": "address",
          "name": "newOwner",
          "type": "address"
        }
      ],
      "name": "OwnershipTransferred",
      "type": "event"
    },
    {
      "anonymous": false,
      "inputs": [
        {
          "indexed": false,
          "internalType": "address",
          "name": "account",
          "type": "address"
        }
      ],
      "name": "Paused",
      "type": "event"
    },
    {
      "anonymous": false,
      "inputs": [
        {
          "indexed": true,
          "internalType": "uint256",
          "name": "id",
          "type": "uint256"
        },
        {
          "indexed": true,
          "internalType": "address",
          "name": "beneficiary",
          "type": "address"
        },
        {
          "indexed": true,
          "internalType": "address",
          "name": "token",
          "type": "address"
        }
      ],
      "name": "PaymentReleased",
      "type": "event"
    },
    {
      "anonymous": false,
      "inputs": [
        {
          "indexed": true,
          "internalType": "address",
          "name": "token",
          "type": "address"
        },
        {
          "indexed": true,
          "internalType": "address",
          "name": "sender",
          "type": "address"
        },
        {
          "indexed": true,
          "internalType": "address",
          "name": "beneficiary",
          "type": "address"
        },
        {
          "indexed": false,
          "internalType": "uint256",
          "name": "id",
          "type": "uint256"
        },
        {
          "indexed": false,
          "internalType": "uint256",
          "name": "amount",
          "type": "uint256"
        },
        {
          "indexed": false,
          "internalType": "uint256",
          "name": "releaseTime",
          "type": "uint256"
        },
        {
          "indexed": false,
          "internalType": "bool",
          "name": "swapTokenFee",
          "type": "bool"
        },
        {
          "indexed": false,
          "internalType": "uint256",
          "name": "fee",
          "type": "uint256"
        }
      ],
      "name": "PaymentScheduled",
      "type": "event"
    },
    {
      "anonymous": false,
      "inputs": [
        {
          "indexed": true,
          "internalType": "address",
          "name": "swapTokenAddress",
          "type": "address"
        }
      ],
      "name": "SwapTokenUpdated",
      "type": "event"
    },
    {
      "anonymous": false,
      "inputs": [
        {
          "indexed": false,
          "internalType": "address",
          "name": "account",
          "type": "address"
        }
      ],
      "name": "Unpaused",
      "type": "event"
    },
    {
      "inputs": [],
      "name": "owner",
      "outputs": [
        {
          "internalType": "address",
          "name": "",
          "type": "address"
        }
      ],
      "stateMutability": "view",
      "type": "function"
    },
    {
      "inputs": [],
      "name": "paused",
      "outputs": [
        {
          "internalType": "bool",
          "name": "",
          "type": "bool"
        }
      ],
      "stateMutability": "view",
      "type": "function"
    },
    {
      "inputs": [],
      "name": "renounceOwnership",
      "outputs": [],
      "stateMutability": "nonpayable",
      "type": "function"
    },
    {
      "inputs": [
        {
          "internalType": "address",
          "name": "newOwner",
          "type": "address"
        }
      ],
      "name": "transferOwnership",
      "outputs": [],
      "stateMutability": "nonpayable",
      "type": "function"
    },
    {
      "inputs": [
        {
          "internalType": "address",
          "name": "swapTokenAddress",
          "type": "address"
        },
        {
          "internalType": "address payable",
          "name": "feesWallet",
          "type": "address"
        },
        {
          "internalType": "address",
          "name": "devWallet",
          "type": "address"
        }
      ],
      "name": "initialize",
      "outputs": [],
      "stateMutability": "nonpayable",
      "type": "function"
    },
    {
      "inputs": [],
      "name": "getFeesWallet",
      "outputs": [
        {
          "internalType": "address",
          "name": "",
          "type": "address"
        }
      ],
      "stateMutability": "view",
      "type": "function"
    },
    {
      "inputs": [],
      "name": "getDevWallet",
      "outputs": [
        {
          "internalType": "address",
          "name": "",
          "type": "address"
        }
      ],
      "stateMutability": "view",
      "type": "function"
    },
    {
      "inputs": [],
      "name": "getSwapToken",
      "outputs": [
        {
          "internalType": "address",
          "name": "",
          "type": "address"
        }
      ],
      "stateMutability": "view",
      "type": "function"
    },
    {
      "inputs": [
        {
          "internalType": "uint256",
          "name": "id",
          "type": "uint256"
        }
      ],
      "name": "getPaymentDetails",
      "outputs": [
        {
          "internalType": "address",
          "name": "token",
          "type": "address"
        },
        {
          "internalType": "uint256",
          "name": "amount",
          "type": "uint256"
        },
        {
          "internalType": "uint256",
          "name": "releaseTime",
          "type": "uint256"
        },
        {
          "internalType": "uint256",
          "name": "lastLocked",
          "type": "uint256"
        },
        {
          "internalType": "address",
          "name": "beneficiary",
          "type": "address"
        },
        {
          "internalType": "enum SwapPaymentScheduler.Status",
          "name": "status",
          "type": "uint8"
        }
      ],
      "stateMutability": "view",
      "type": "function"
    },
    {
      "inputs": [
        {
          "internalType": "address",
          "name": "user",
          "type": "address"
        }
      ],
      "name": "getPaymentIds",
      "outputs": [
        {
          "internalType": "uint256[]",
          "name": "ids",
          "type": "uint256[]"
        }
      ],
      "stateMutability": "view",
      "type": "function"
    },
    {
      "inputs": [
        {
          "internalType": "address",
          "name": "swapTokenAddress",
          "type": "address"
        }
      ],
      "name": "updateSwapToken",
      "outputs": [],
      "stateMutability": "nonpayable",
      "type": "function"
    },
    {
      "inputs": [
        {
          "internalType": "address payable",
          "name": "wallet",
          "type": "address"
        }
      ],
      "name": "setFeeWallet",
      "outputs": [],
      "stateMutability": "nonpayable",
      "type": "function"
    },
    {
      "inputs": [
        {
          "internalType": "address payable",
          "name": "wallet",
          "type": "address"
        }
      ],
      "name": "setDevWallet",
      "outputs": [],
      "stateMutability": "nonpayable",
      "type": "function"
    },
    {
      "inputs": [
        {
          "internalType": "address",
          "name": "tokenAddress",
          "type": "address"
        },
        {
          "internalType": "uint256",
          "name": "amount",
          "type": "uint256"
        },
        {
          "internalType": "uint256",
          "name": "releaseTime",
          "type": "uint256"
        },
        {
          "internalType": "address payable",
          "name": "beneficiary",
          "type": "address"
        },
        {
          "internalType": "uint256",
          "name": "fee",
          "type": "uint256"
        },
        {
          "internalType": "bool",
          "name": "isFeeInSwap",
          "type": "bool"
        }
      ],
      "name": "schedulePayment",
      "outputs": [],
      "stateMutability": "payable",
      "type": "function"
    },
    {
      "inputs": [
        {
          "internalType": "address",
          "name": "tokenAddress",
          "type": "address"
        },
        {
          "internalType": "uint256[]",
          "name": "amounts",
          "type": "uint256[]"
        },
        {
          "internalType": "uint256[]",
          "name": "releaseTimes",
          "type": "uint256[]"
        },
        {
          "internalType": "address payable[]",
          "name": "beneficiaries",
          "type": "address[]"
        },
        {
          "internalType": "uint256[]",
          "name": "fees",
          "type": "uint256[]"
        },
        {
          "internalType": "bool",
          "name": "isFeeInSwap",
          "type": "bool"
        }
      ],
      "name": "scheduleBulkPayment",
      "outputs": [],
      "stateMutability": "payable",
      "type": "function"
    },
    {
      "inputs": [
        {
          "internalType": "uint256",
          "name": "id",
          "type": "uint256"
        }
      ],
      "name": "release",
      "outputs": [],
      "stateMutability": "nonpayable",
      "type": "function"
    },
    {
      "inputs": [
        {
          "internalType": "uint256",
          "name": "id",
          "type": "uint256"
        }
      ],
      "name": "releasable",
      "outputs": [
        {
          "internalType": "bool",
          "name": "",
          "type": "bool"
        }
      ],
      "stateMutability": "view",
      "type": "function"
    },
    {
      "inputs": [],
      "name": "pause",
      "outputs": [],
      "stateMutability": "nonpayable",
      "type": "function"
    },
    {
      "inputs": [],
      "name": "unpause",
      "outputs": [],
      "stateMutability": "nonpayable",
      "type": "function"
    }
  ],
  "bytecode": "0x608060405234801561001057600080fd5b506125ce806100206000396000f3fe6080604052600436106101145760003560e01c80638456cb59116100a0578063ba0e0c8011610064578063ba0e0c8014610403578063c0c53b8b14610573578063e4bf01a8146105b8578063ea8a4593146105e2578063f2fde38b146105f757610114565b80638456cb59146102fc5780638da5cb5b1461031157806390d49b9d146103265780639e70df21146103595780639fa944dd146103ee57610114565b80633f4ba83a116100e75780633f4ba83a14610245578063453dd97f1461025a5780635c975abb1461028b578063715018a6146102b45780637fc96d6b146102c957610114565b806319e7ae66146101195780631f53ac0214610165578063212d3acf1461019857806337bdc99b1461021b575b600080fd5b610163600480360360c081101561012f57600080fd5b506001600160a01b03813581169160208101359160408201359160608101359091169060808101359060a00135151561062a565b005b34801561017157600080fd5b506101636004803603602081101561018857600080fd5b50356001600160a01b03166106d4565b3480156101a457600080fd5b506101cb600480360360208110156101bb57600080fd5b50356001600160a01b03166107bb565b60408051602080825283518183015283519192839290830191858101910280838360005b838110156102075781810151838201526020016101ef565b505050509050019250505060405180910390f35b34801561022757600080fd5b506101636004803603602081101561023e57600080fd5b5035610828565b34801561025157600080fd5b50610163610987565b34801561026657600080fd5b5061026f6109e9565b604080516001600160a01b039092168252519081900360200190f35b34801561029757600080fd5b506102a06109f8565b604080519115158252519081900360200190f35b3480156102c057600080fd5b50610163610a01565b3480156102d557600080fd5b50610163600480360360208110156102ec57600080fd5b50356001600160a01b0316610aa3565b34801561030857600080fd5b50610163610b8a565b34801561031d57600080fd5b5061026f610bea565b34801561033257600080fd5b506101636004803603602081101561034957600080fd5b50356001600160a01b0316610bf9565b34801561036557600080fd5b506103836004803603602081101561037c57600080fd5b5035610ce0565b60405180876001600160a01b03166001600160a01b03168152602001868152602001858152602001848152602001836001600160a01b03166001600160a01b031681526020018260028111156103d557fe5b60ff168152602001965050505050505060405180910390f35b3480156103fa57600080fd5b5061026f610da8565b610163600480360360c081101561041957600080fd5b6001600160a01b038235169190810190604081016020820135600160201b81111561044357600080fd5b82018360208201111561045557600080fd5b803590602001918460208302840111600160201b8311171561047657600080fd5b919390929091602081019035600160201b81111561049357600080fd5b8201836020820111156104a557600080fd5b803590602001918460208302840111600160201b831117156104c657600080fd5b919390929091602081019035600160201b8111156104e357600080fd5b8201836020820111156104f557600080fd5b803590602001918460208302840111600160201b8311171561051657600080fd5b919390929091602081019035600160201b81111561053357600080fd5b82018360208201111561054557600080fd5b803590602001918460208302840111600160201b8311171561056657600080fd5b9193509150351515610db7565b34801561057f57600080fd5b506101636004803603606081101561059657600080fd5b506001600160a01b038135811691602081013582169160409091013516610f83565b3480156105c457600080fd5b506102a0600480360360208110156105db57600080fd5b5035610f93565b3480156105ee57600080fd5b5061026f61105e565b34801561060357600080fd5b506101636004803603602081101561061a57600080fd5b50356001600160a01b031661106d565b60975460ff1615610675576040805162461bcd60e51b815260206004820152601060248201526f14185d5cd8589b194e881c185d5cd95960821b604482015290519081900360640190fd5b600061068687878787348888611166565b90506402540be40081106106cb5760405162461bcd60e51b81526004018080602001828103825260348152602001806125266034913960400191505060405180910390fd5b50505050505050565b6106dc611285565b6065546001600160a01b0390811691161461072c576040805162461bcd60e51b81526020600482018190526024820152600080516020612455833981519152604482015290519081900360640190fd5b6001600160a01b0381166107715760405162461bcd60e51b815260040180806020018281038252603b815260200180612339603b913960400191505060405180910390fd5b60cb80546001600160a01b0319166001600160a01b0383169081179091556040517f268c00f4ec08b34fdde24b52e47a09d62f3f3837eb3b8ac7206cefb3bb5e534590600090a250565b6001600160a01b038116600090815260cd602090815260409182902080548351818402810184019094528084526060939283018282801561081b57602002820191906000526020600020905b815481526020019060010190808311610807575b505050505090505b919050565b8061083281610f93565b61086d5760405162461bcd60e51b815260040180806020018281038252602b815260200180612374602b913960400191505060405180910390fd5b6108756122bc565b600083815260ce6020908152604091829020825160c08101845281546001600160a01b03908116825260018301549382019390935260028083015494820194909452600382015460608201526004820154928316608082015292909160a0840191600160a01b90910460ff16908111156108eb57fe5b60028111156108f657fe5b90525080519091506001600160a01b031673eeeeeeeeeeeeeeeeeeeeeeeeeeeeeeeeeeeeeeee14156109305761092b83611289565b610939565b61093983611342565b80600001516001600160a01b031681608001516001600160a01b0316847fa6ea333f41ff25e0a1adef6504bf3be9c7e740717d65f28a40b57a9681c2940c60405160405180910390a4505050565b61098f611285565b6065546001600160a01b039081169116146109df576040805162461bcd60e51b81526020600482018190526024820152600080516020612455833981519152604482015290519081900360640190fd5b6109e761138a565b565b60cb546001600160a01b031690565b60975460ff1690565b610a09611285565b6065546001600160a01b03908116911614610a59576040805162461bcd60e51b81526020600482018190526024820152600080516020612455833981519152604482015290519081900360640190fd5b6065546040516000916001600160a01b0316907f8be0079c531659141344cd1fd0a4f28419497f9722a3daafe3b4186f6b6457e0908390a3606580546001600160a01b0319169055565b610aab611285565b6065546001600160a01b03908116911614610afb576040805162461bcd60e51b81526020600482018190526024820152600080516020612455833981519152604482015290519081900360640190fd5b6001600160a01b038116610b405760405162461bcd60e51b815260040180806020018281038252603081526020018061239f6030913960400191505060405180910390fd5b60c980546001600160a01b0319166001600160a01b0383169081179091556040517f44fe57485076f35a8eb17e92799dcc65f24a9eab90ffae0af662812f19803be590600090a250565b610b92611285565b6065546001600160a01b03908116911614610be2576040805162461bcd60e51b81526020600482018190526024820152600080516020612455833981519152604482015290519081900360640190fd5b6109e7611428565b6065546001600160a01b031690565b610c01611285565b6065546001600160a01b03908116911614610c51576040805162461bcd60e51b81526020600482018190526024820152600080516020612455833981519152604482015290519081900360640190fd5b6001600160a01b038116610c965760405162461bcd60e51b815260040180806020018281038252603b815260200180612339603b913960400191505060405180910390fd5b60ca80546001600160a01b0319166001600160a01b0383169081179091556040517fe805ffc02a12d27b142431551e2cd3f766203c54a9a4ab0d1cf01ce7366a796f90600090a250565b600080600080600080610cf16122bc565b600088815260ce6020908152604091829020825160c08101845281546001600160a01b03908116825260018301549382019390935260028083015494820194909452600382015460608201526004820154928316608082015292909160a0840191600160a01b90910460ff1690811115610d6757fe5b6002811115610d7257fe5b905250805160208201516040830151608084015160a0850151606090950151939d929c50909a5091985090965090945092505050565b60c9546001600160a01b031690565b60975460ff1615610e02576040805162461bcd60e51b815260206004820152601060248201526f14185d5cd8589b194e881c185d5cd95960821b604482015290519081900360640190fd5b34888714610e415760405162461bcd60e51b81526004018080602001828103825260238152602001806122f06023913960400191505060405180910390fd5b888514610e7f5760405162461bcd60e51b81526004018080602001828103825260238152602001806122f06023913960400191505060405180910390fd5b888314610ebd5760405162461bcd60e51b81526004018080602001828103825260238152602001806122f06023913960400191505060405180910390fd5b60005b89811015610f3257610f288c8c8c84818110610ed857fe5b905060200201358b8b85818110610eeb57fe5b905060200201358a8a86818110610efe57fe5b905060200201356001600160a01b0316868a8a88818110610f1b57fe5b9050602002013589611166565b9150600101610ec0565b506402540be4008110610f765760405162461bcd60e51b81526004018080602001828103825260348152602001806125266034913960400191505060405180910390fd5b5050505050505050505050565b610f8e8383836114a9565b505050565b6000610f9d6122bc565b600083815260ce6020908152604091829020825160c08101845281546001600160a01b03908116825260018301549382019390935260028083015494820194909452600382015460608201526004820154928316608082015292909160a0840191600160a01b90910460ff169081111561101357fe5b600281111561101e57fe5b905250905060018160a00151600281111561103557fe5b148015611046575042816040015111155b15611055576001915050610823565b50600092915050565b60ca546001600160a01b031690565b611075611285565b6065546001600160a01b039081169116146110c5576040805162461bcd60e51b81526020600482018190526024820152600080516020612455833981519152604482015290519081900360640190fd5b6001600160a01b03811661110a5760405162461bcd60e51b81526004018080602001828103825260268152602001806123136026913960400191505060405180910390fd5b6065546040516001600160a01b038084169216907f8be0079c531659141344cd1fd0a4f28419497f9722a3daafe3b4186f6b6457e090600090a3606580546001600160a01b0319166001600160a01b0392909216919091179055565b60006001600160a01b0385166111ad5760405162461bcd60e51b81526004018080602001828103825260398152602001806123cf6039913960400191505060405180910390fd5b8373eeeeeeeeeeeeeeeeeeeeeeeeeeeeeeeeeeeeeeee6001600160a01b038a161415611208576111e1888589898988611571565b611201846111f5838b63ffffffff6117c216565b9063ffffffff6117c216565b9050611216565b6112168989868a8a8861180d565b60cc5460408051918252602082018a9052818101899052841515606083015260808201869052516001600160a01b03808916923392918d16917f098f2602d9fa560c1ea097905b03567b4419c064c347ca62a495c22e9a5e7b6c9181900360a00190a498975050505050505050565b3390565b600081815260ce602052604080822060048101805460ff60a01b1916600160a11b1790819055600182015492519193926001600160a01b03909116918381818185875af1925050503d80600081146112fd576040519150601f19603f3d011682016040523d82523d6000602084013e611302565b606091505b5050905080610f8e5760405162461bcd60e51b815260040180806020018281038252602e8152602001806124ce602e913960400191505060405180910390fd5b600081815260ce6020526040902060048101805460ff60a01b1916600160a11b179081905560018201548254611386926001600160a01b0391821692911690611964565b5050565b60975460ff166113d8576040805162461bcd60e51b815260206004820152601460248201527314185d5cd8589b194e881b9bdd081c185d5cd95960621b604482015290519081900360640190fd5b6097805460ff191690557f5db9ee0a495bf2e6ff9c91a7834c1ba4fdd244a5e8aa4e537bd38aeae4b073aa61140b611285565b604080516001600160a01b039092168252519081900360200190a1565b60975460ff1615611473576040805162461bcd60e51b815260206004820152601060248201526f14185d5cd8589b194e881c185d5cd95960821b604482015290519081900360640190fd5b6097805460ff191660011790557f62e78cea01bee320cd4e420270b5ea74000d11b0c9f74754ebdbfc544b05a25861140b611285565b600054610100900460ff16806114c257506114c26119b6565b806114d0575060005460ff16155b61150b5760405162461bcd60e51b815260040180806020018281038252602e815260200180612475602e913960400191505060405180910390fd5b600054610100900460ff16158015611536576000805460ff1961ff0019909116610100171660011790555b61153e6119bc565b611546611a5e565b61154e611b57565b611559848484611c02565b801561156b576000805461ff00191690555b50505050565b80156115c457858210156115b65760405162461bcd60e51b815260040180806020018281038252602b8152602001806124a3602b913960400191505060405180910390fd5b6115bf85611d6d565b6116a6565b6115d4868663ffffffff611e8116565b8210156116125760405162461bcd60e51b815260040180806020018281038252602b8152602001806124a3602b913960400191505060405180910390fd5b60ca546040516000916001600160a01b03169087908381818185875af1925050503d806000811461165f576040519150601f19603f3d011682016040523d82523d6000602084013e611664565b606091505b50509050806116a45760405162461bcd60e51b815260040180806020018281038252602c815260200180612408602c913960400191505060405180910390fd5b505b60cc546116ba90600163ffffffff611e8116565b60cc8190556040805160c08101825273eeeeeeeeeeeeeeeeeeeeeeeeeeeeeeeeeeeeeeee815260208082018a815282840189815242606085019081526001600160a01b038a811660808701908152600160a0880181815260009a8b5260ce90975297909820865181546001600160a01b0319908116918416919091178255945197810197909755915160028088019190915590516003870155955160048601805490931691161780825591519294909160ff60a01b191690600160a01b90849081111561178357fe5b021790555050506001600160a01b03909216600090815260cd60209081526040822060cc54815460018101835591845291909220909101555050505050565b600061180483836040518060400160405280601e81526020017f536166654d6174683a207375627472616374696f6e206f766572666c6f770000815250611edb565b90505b92915050565b80156118215761181c84611d6d565b611843565b60ca54611843906001600160a01b03888116913391168763ffffffff611f7216565b61185e6001600160a01b03871633308863ffffffff611f7216565b60cc5461187290600163ffffffff611e8116565b60cc8190556040805160c0810182526001600160a01b03898116825260208083018a8152838501898152426060860190815289851660808701908152600160a0880181815260009a8b5260ce90965297909820865181549087166001600160a01b03199182161782559351978101979097559051600280880191909155905160038701559551600486018054919094169116178083559051929460ff60a01b1990911690600160a01b90849081111561192757fe5b02179055505050506001600160a01b0316600090815260cd60209081526040822060cc548154600181018355918452919092209091015550505050565b604080516001600160a01b038416602482015260448082018490528251808303909101815260649091019091526020810180516001600160e01b031663a9059cbb60e01b179052610f8e908490611fc8565b303b1590565b600054610100900460ff16806119d557506119d56119b6565b806119e3575060005460ff16155b611a1e5760405162461bcd60e51b815260040180806020018281038252602e815260200180612475602e913960400191505060405180910390fd5b600054610100900460ff16158015611a49576000805460ff1961ff0019909116610100171660011790555b8015611a5b576000805461ff00191690555b50565b600054610100900460ff1680611a775750611a776119b6565b80611a85575060005460ff16155b611ac05760405162461bcd60e51b815260040180806020018281038252602e815260200180612475602e913960400191505060405180910390fd5b600054610100900460ff16158015611aeb576000805460ff1961ff0019909116610100171660011790555b6000611af5611285565b606580546001600160a01b0319166001600160a01b038316908117909155604051919250906000907f8be0079c531659141344cd1fd0a4f28419497f9722a3daafe3b4186f6b6457e0908290a3508015611a5b576000805461ff001916905550565b600054610100900460ff1680611b705750611b706119b6565b80611b7e575060005460ff16155b611bb95760405162461bcd60e51b815260040180806020018281038252602e815260200180612475602e913960400191505060405180910390fd5b600054610100900460ff16158015611be4576000805460ff1961ff0019909116610100171660011790555b6097805460ff191690558015611a5b576000805461ff001916905550565b600054610100900460ff1680611c1b5750611c1b6119b6565b80611c29575060005460ff16155b611c645760405162461bcd60e51b815260040180806020018281038252602e815260200180612475602e913960400191505060405180910390fd5b600054610100900460ff16158015611c8f576000805460ff1961ff0019909116610100171660011790555b6001600160a01b038416611cd45760405162461bcd60e51b815260040180806020018281038252603081526020018061239f6030913960400191505060405180910390fd5b6001600160a01b038316611d195760405162461bcd60e51b815260040180806020018281038252603f81526020018061255a603f913960400191505060405180910390fd5b60c980546001600160a01b038087166001600160a01b03199283161790925560ca805486841690831617905560cb805492851692909116919091179055801561156b576000805461ff001916905550505050565b6000611d916064611d8584600a63ffffffff61218016565b9063ffffffff6121d916565b90506000611dab6064611d8585600a63ffffffff61218016565b90506000611dc3826111f5868663ffffffff6117c216565b60ca5460c954919250611deb916001600160a01b03908116913391168463ffffffff611f7216565b60cb5460c954611e10916001600160a01b03918216913391168663ffffffff611f7216565b60c9546040805163079cc67960e41b81523360048201526024810185905290516001600160a01b03909216916379cc67909160448082019260009290919082900301818387803b158015611e6357600080fd5b505af1158015611e77573d6000803e3d6000fd5b5050505050505050565b600082820183811015611804576040805162461bcd60e51b815260206004820152601b60248201527f536166654d6174683a206164646974696f6e206f766572666c6f770000000000604482015290519081900360640190fd5b60008184841115611f6a5760405162461bcd60e51b81526004018080602001828103825283818151815260200191508051906020019080838360005b83811015611f2f578181015183820152602001611f17565b50505050905090810190601f168015611f5c5780820380516001836020036101000a031916815260200191505b509250505060405180910390fd5b505050900390565b604080516001600160a01b0380861660248301528416604482015260648082018490528251808303909101815260849091019091526020810180516001600160e01b03166323b872dd60e01b17905261156b9085905b611fda826001600160a01b031661221b565b61202b576040805162461bcd60e51b815260206004820152601f60248201527f5361666545524332303a2063616c6c20746f206e6f6e2d636f6e747261637400604482015290519081900360640190fd5b60006060836001600160a01b0316836040518082805190602001908083835b602083106120695780518252601f19909201916020918201910161204a565b6001836020036101000a0380198251168184511680821785525050505050509050019150506000604051808303816000865af19150503d80600081146120cb576040519150601f19603f3d011682016040523d82523d6000602084013e6120d0565b606091505b509150915081612127576040805162461bcd60e51b815260206004820181905260248201527f5361666545524332303a206c6f772d6c6576656c2063616c6c206661696c6564604482015290519081900360640190fd5b80511561156b5780806020019051602081101561214357600080fd5b505161156b5760405162461bcd60e51b815260040180806020018281038252602a8152602001806124fc602a913960400191505060405180910390fd5b60008261218f57506000611807565b8282028284828161219c57fe5b04146118045760405162461bcd60e51b81526004018080602001828103825260218152602001806124346021913960400191505060405180910390fd5b600061180483836040518060400160405280601a81526020017f536166654d6174683a206469766973696f6e206279207a65726f000000000000815250612257565b6000813f7fc5d2460186f7233c927e7db2dcc703c0e500b653ca82273b7bfad8045d85a47081811480159061224f57508115155b949350505050565b600081836122a65760405162461bcd60e51b8152602060048201818152835160248401528351909283926044909101919085019080838360008315611f2f578181015183820152602001611f17565b5060008385816122b257fe5b0495945050505050565b6040805160c08101825260008082526020820181905291810182905260608101829052608081018290529060a08201529056fe537761705061796d656e745363686564756c65723a20496e76616c696420696e7075744f776e61626c653a206e6577206f776e657220697320746865207a65726f2061646472657373537761705061796d656e745363686564756c65723a20506c656173652070726f766964652076616c69642077616c6c657420616464726573732121537761705061796d656e745363686564756c65723a2043616e27742072656c65617365207061796d656e74537761705061796d656e745363686564756c65723a20496e76616c6964207377617020746f6b656e2061646472657373537761705061796d656e745363686564756c65723a2050726f766964652076616c69642062656e656669636961727920616464726573732121537761705061796d656e745363686564756c65723a205472616e73666572206f6620666565206661696c6564536166654d6174683a206d756c7469706c69636174696f6e206f766572666c6f774f776e61626c653a2063616c6c6572206973206e6f7420746865206f776e6572436f6e747261637420696e7374616e63652068617320616c7265616479206265656e20696e697469616c697a6564537761705061796d656e745363686564756c65723a20456e6f75676820455448206e6f742073656e742121537761705061796d656e745363686564756c65723a204661696c656420746f207472616e736665722065746821215361666545524332303a204552433230206f7065726174696f6e20646964206e6f742073756363656564537761705061796d656e745363686564756c65723a2053656e74206d6f726520657468657273207468656e207265717569726564537761705061796d656e745363686564756c65723a20506c656173652070726f766964652076616c6964206665657357616c6c657420616464726573732121a264697066735822122054e9198792af8b683e99a6308ccf636571833fb2336474afe2fb6813ab29e0dc64736f6c63430006020033",
  "source": "pragma solidity ^0.6.0;\n\nimport \"@openzeppelin/contracts-ethereum-package/contracts/math/SafeMath.sol\";\nimport \"@openzeppelin/contracts-ethereum-package/contracts/utils/Pausable.sol\";\nimport \"@openzeppelin/contracts-ethereum-package/contracts/token/ERC20/SafeERC20.sol\";\nimport \"@openzeppelin/contracts-ethereum-package/contracts/access/Ownable.sol\";\nimport \"@openzeppelin/contracts-ethereum-package/contracts/utils/Pausable.sol\";\nimport \"@openzeppelin/contracts-ethereum-package/contracts/token/ERC20/ERC20Burnable.sol\";\n\ninterface IERC20Burnable {\n    function burnFrom(address account, uint256 amount) external;\n}\n\n/**\n* @dev This contract will hold user scheduled payments which will be released after\n* release time\n*/\ncontract SwapPaymentScheduler is Initializable, OwnableUpgradeSafe, PausableUpgradeSafe {\n    using SafeERC20 for IERC20;\n    using SafeMath for uint256;\n\n    enum Status { _, OPEN, CLOSED }\n\n    IERC20 private _swapToken;\n\n    //Wallet where fees will go\n    address payable private _feesWallet;\n\n    //Wallet where dev fund will go\n    address private _devWallet;\n\n    address constant private ETH_ADDRESS = address(\n        0xEeeeeEeeeEeEeeEeEeEeeEEEeeeeEeeeeeeeEEeE\n    );\n\n    struct Payment {\n        address token;// Token address\n        uint256 amount;\n        uint256 releaseTime;\n        uint256 lastLocked;\n        address payable beneficiary;// Beneficary who will receive funds\n        Status status;\n    }\n\n    //Global payment id. Also give total number of payments made so far\n    uint256 private _paymentId;\n\n    //list of all payment ids for a user/beneficiary\n    mapping(address => uint256[]) private _userVsPaymentIds;\n\n    mapping(uint256 => Payment) private _idVsPayment;\n\n    event FeeWalletChanged(address indexed wallet);\n    event DevWalletChanged(address indexed wallet);\n\n    event PaymentScheduled(\n        address indexed token,\n        address indexed sender,\n        address indexed beneficiary,\n        uint256 id,\n        uint256 amount,\n        uint256 releaseTime,\n        bool swapTokenFee,\n        uint256 fee\n    );\n\n    event PaymentReleased(\n        uint256 indexed id,\n        address indexed beneficiary,\n        address indexed token\n    );\n\n    event SwapTokenUpdated(address indexed swapTokenAddress);\n\n    modifier canRelease(uint256 id) {\n        require(releasable(id), \"SwapPaymentScheduler: Can't release payment\");\n        _;\n    }\n\n    /**\n    * @dev initialize\n    * @param swapTokenAddress Address of the swap token\n    * @param feesWallet Wallet address where fees will go\n    * @param devWallet Wallet address where dev fund will go\n    */\n    function initialize(address swapTokenAddress, address payable feesWallet, address devWallet)\n    public\n    {\n        __SwapPaymentScheduler_init(swapTokenAddress, feesWallet, devWallet);\n    }\n\n    function __SwapPaymentScheduler_init(address swapTokenAddress, address payable feesWallet, address devWallet)\n    internal\n    initializer\n    {\n        __Context_init_unchained();\n        __Ownable_init_unchained();\n        __Pausable_init_unchained();\n        __SwapPaymentScheduler_init_unchained(swapTokenAddress, feesWallet, devWallet);\n    }\n\n    function __SwapPaymentScheduler_init_unchained(address swapTokenAddress, address payable feesWallet, address devWallet)\n    internal\n    initializer\n    {\n        require(swapTokenAddress != address(0), \"SwapPaymentScheduler: Invalid swap token address\");\n        require(feesWallet != address(0), \"SwapPaymentScheduler: Please provide valid feesWallet address!!\");\n        _swapToken = IERC20(swapTokenAddress);\n        _feesWallet = feesWallet;\n        _devWallet = devWallet;\n    }\n\n    /**\n    * @dev returns the fee receiver wallet address\n    */\n    function getFeesWallet() external view returns(address) {\n        return _feesWallet;\n    }\n\n    /**\n    * @dev returns the dev fund wallet address\n    */\n    function getDevWallet() external view returns(address) {\n        return _devWallet;\n    }\n\n    /**\n    * @dev Returns swap token address\n    */\n    function getSwapToken() external view returns(address) {\n        return address(_swapToken);\n    }\n\n    /**\n    * @dev Returns information about payment details\n    * @param id Payment id\n    */\n    function getPaymentDetails(uint256 id) external view returns(\n        address token,\n        uint256 amount,\n        uint256 releaseTime,\n        uint256 lastLocked,\n        address beneficiary,\n        Status status\n    )\n    {\n        Payment memory payment = _idVsPayment[id];\n        token = payment.token;\n        amount = payment.amount;\n        releaseTime = payment.releaseTime;\n        beneficiary = payment.beneficiary;\n        status = payment.status;\n        lastLocked = payment.lastLocked;\n\n        return(\n            token,\n            amount,\n            releaseTime,\n            lastLocked,\n            beneficiary,\n            status\n        );\n    }\n\n    /**\n    * @dev Returns all payment ids for a user\n    * @param user Address of the user\n    */\n    function getPaymentIds(address user) external view returns (uint256[] memory ids)\n    {\n        return _userVsPaymentIds[user];\n    }\n\n    /**\n    * @dev Update swap token address\n    * @param swapTokenAddress New swap token address\n    */\n    function updateSwapToken(address swapTokenAddress) external onlyOwner {\n        require(\n            swapTokenAddress != address(0),\n            \"SwapPaymentScheduler: Invalid swap token address\"\n        );\n        _swapToken = IERC20(swapTokenAddress);\n        emit SwapTokenUpdated(swapTokenAddress);\n    }\n\n    /**\n    * @dev Allows admin to set fee receiver wallet\n    * @param wallet New wallet address\n    */\n    function setFeeWallet(address payable wallet) external onlyOwner {\n        require(\n            wallet != address(0),\n            \"SwapPaymentScheduler: Please provide valid wallet address!!\"\n        );\n        _feesWallet = wallet;\n\n        emit FeeWalletChanged(wallet);\n    }\n\n    /**\n    * @dev Allows admin to set fee receiver wallet\n    * @param wallet New wallet address\n    */\n    function setDevWallet(address payable wallet) external onlyOwner {\n        require(\n            wallet != address(0),\n            \"SwapPaymentScheduler: Please provide valid wallet address!!\"\n        );\n        _devWallet = wallet;\n\n        emit DevWalletChanged(wallet);\n    }\n\n    /**\n    * @dev Allows user to schedule payment. In case of ERC-20 token the user will\n    * first have to approve the contract to spend on his/her behalf\n    * @param tokenAddress Address of the token to be paid\n    * @param amount Amount of tokens to pay\n    * @param releaseTime release time after which tokens to be released. In seconds\n    * @param beneficiary Address of the beneficiary\n    * @param isFeeInSwap Bool to check if fee to be paid in swap token or not\n    */\n    function schedulePayment(\n        address tokenAddress,\n        uint256 amount,\n        uint256 releaseTime,\n        address payable beneficiary,\n        uint256 fee,\n        bool isFeeInSwap\n    )\n        external\n        payable\n        whenNotPaused\n    {\n        uint256 remValue = _schedulePayment(\n            tokenAddress,\n            amount,\n            releaseTime,\n            beneficiary,\n            msg.value,\n            fee,\n            isFeeInSwap\n        );\n\n        require(\n            remValue < 10000000000,\n            \"SwapPaymentScheduler: Sent more ethers then required\"\n        );\n\n    }\n\n    /**\n    * @dev Helper method to schedule payment\n    */\n    function _schedulePayment(\n        address tokenAddress,\n        uint256 amount,\n        uint256 releaseTime,\n        address payable beneficiary,\n        uint256 value,\n        uint256 fee,\n        bool isFeeInSwap\n    )\n        private\n        returns(uint256)\n    {\n        require(beneficiary != address(0),\"SwapPaymentScheduler: Provide valid beneficiary address!!\");\n\n        uint256 remValue = value;\n\n        if(ETH_ADDRESS == tokenAddress) {\n            _scheduleETH(\n                amount,\n                fee,\n                releaseTime,\n                beneficiary,\n                value,\n                isFeeInSwap\n            );\n\n            remValue = remValue.sub(amount).sub(fee);\n        }\n\n        else {\n            _scheduleERC20(\n                tokenAddress,\n                amount,\n                fee,\n                releaseTime,\n                beneficiary,\n                isFeeInSwap\n            );\n        }\n\n        emit PaymentScheduled(\n            tokenAddress,\n            msg.sender,\n            beneficiary,\n            _paymentId,\n            amount,\n            releaseTime,\n            isFeeInSwap,\n            fee\n        );\n\n        return remValue;\n    }\n\n    /**\n    * @dev Helper method to schedule payment in ETH\n    */\n    function _scheduleETH(\n        uint256 amount,\n        uint256 fee,\n        uint256 releaseTime,\n        address payable beneficiary,\n        uint256 value,\n        bool isFeeInSwap\n    )\n        private\n    {\n        //Transferring fee to the wallet\n        if(isFeeInSwap){\n\t        require(value >= amount, \"SwapPaymentScheduler: Enough ETH not sent!!\");\n            _handleFees(fee);\n        }\n        else {\n            require(value >= amount.add(fee), \"SwapPaymentScheduler: Enough ETH not sent!!\");\n            (bool success,) = _feesWallet.call.value(fee)(\"\");\n            require(success, \"SwapPaymentScheduler: Transfer of fee failed\");\n        }\n\n        _paymentId = _paymentId.add(1);\n\n        _idVsPayment[_paymentId] = Payment({\n            token: ETH_ADDRESS,\n            amount: amount,\n            releaseTime: releaseTime,\n            lastLocked: block.timestamp,\n            beneficiary: beneficiary,\n            status: Status.OPEN\n        });\n        _userVsPaymentIds[beneficiary].push(_paymentId);\n    }\n\n    /**\n    * @dev Helper method to schedule payment in ERC-20 tokens\n    */\n    function _scheduleERC20(\n        address token,\n        uint256 amount,\n        uint256 fee,\n        uint256 releaseTime,\n        address payable beneficiary,\n        bool isFeeInSwap\n    )\n        private\n    {\n\n        //Transfer fee to the wallet\n        if(isFeeInSwap){\n            _handleFees(fee);\n        }\n        else {\n            IERC20(token).safeTransferFrom(msg.sender, _feesWallet, fee);\n        }\n\n        //Transfer required amount of tokens to the contract from user balance\n        IERC20(token).safeTransferFrom(msg.sender, address(this), amount);\n\n        _paymentId = _paymentId.add(1);\n\n        _idVsPayment[_paymentId] = Payment({\n            token: token,\n            amount: amount,\n            releaseTime: releaseTime,\n            lastLocked: block.timestamp,\n            beneficiary: beneficiary,\n            status: Status.OPEN\n        });\n        _userVsPaymentIds[beneficiary].push(_paymentId);\n    }\n\n    function _handleFees(uint256 fee) private {\n        uint256 devAmount = fee.mul(10).div(100); //10%\n        uint256 burnAmount = fee.mul(10).div(100); //10%\n        uint256 remAmount = fee.sub(devAmount).sub(burnAmount); //80%\n\n        _swapToken.safeTransferFrom(msg.sender, _feesWallet, remAmount);\n        _swapToken.safeTransferFrom(msg.sender, _devWallet, devAmount);\n        IERC20Burnable(address(_swapToken)).burnFrom(msg.sender, burnAmount);\n    }\n\n    /**\n    * @dev Allows user to schedule payment. In case of ERC-20 token the user will\n    * first have to approve the contract to spend on his/her behalf\n    * @param tokenAddress Address of the token to be paid\n    * @param amounts List of amount of tokens to pay\n    * @param releaseTimes List of release times after which tokens to be released. In seconds\n    * @param beneficiaries List of addresses of the beneficiaries\n    * @param isFeeInSwap Bool to check if fee to be paid in swap token or not\n    */\n    function scheduleBulkPayment(\n        address tokenAddress,\n        uint256[] calldata amounts,\n        uint256[] calldata releaseTimes,\n        address payable[] calldata beneficiaries,\n        uint256[] calldata fees,\n        bool isFeeInSwap\n    )\n        external\n        payable\n        whenNotPaused\n    {\n        uint256 remValue = msg.value;\n        require(amounts.length == releaseTimes.length, \"SwapPaymentScheduler: Invalid input\");\n        require(amounts.length == beneficiaries.length, \"SwapPaymentScheduler: Invalid input\");\n        require(amounts.length == fees.length, \"SwapPaymentScheduler: Invalid input\");\n\n        for(uint256 i = 0; i < amounts.length; i++){\n            remValue = _schedulePayment(\n                tokenAddress,\n                amounts[i],\n                releaseTimes[i],\n                beneficiaries[i],\n                remValue,\n                fees[i],\n                isFeeInSwap\n            );\n        }\n\n        require(\n            remValue < 10000000000,\n            \"SwapPaymentScheduler: Sent more ethers then required\"\n        );\n\n    }\n\n    /**\n    * @dev Allows beneficiary of payment to release payment after release time\n    * @param id Id of the scheduled payment\n    */\n    function release(uint256 id) external canRelease(id) {\n        Payment memory payment = _idVsPayment[id];\n        if(ETH_ADDRESS == payment.token) {\n            _releaseETH(id);\n        }\n        else {\n            _releaseERC20(id);\n        }\n\n        emit PaymentReleased(\n            id,\n            payment.beneficiary,\n            payment.token\n        );\n    }\n\n    /**\n    * @dev Returns whether given payment can be released or not\n    * @param id id of a payment\n    */\n    function releasable(uint256 id) public view returns(bool){\n\n        Payment memory payment = _idVsPayment[id];\n        if( (payment.status == Status.OPEN) && (payment.releaseTime <= block.timestamp) )\n        {\n            return true;\n        }\n        return false;\n    }\n\n    /**\n    * @dev Helper method to release ETH\n    */\n    function _releaseETH(uint256 id) private {\n        Payment storage payment = _idVsPayment[id];\n        payment.status = Status.CLOSED;\n        (bool success,) = payment.beneficiary.call.value(payment.amount)(\"\");\n        require(success, \"SwapPaymentScheduler: Failed to transfer eth!!\");\n    }\n\n    /**\n    * @dev Helper method to release ERC-20\n    */\n    function _releaseERC20(uint256 id) private {\n        Payment storage payment = _idVsPayment[id];\n        payment.status = Status.CLOSED;\n        IERC20(payment.token).safeTransfer(payment.beneficiary, payment.amount);\n    }\n\n    /**\n    * @dev Called by an admin to pause, triggers stopped state.\n    */\n    function pause() external onlyOwner {\n        _pause();\n    }\n\n    /**\n    * @dev Called by an admin to unpause, returns to normal state.\n    */\n    function unpause() external onlyOwner {\n        _unpause();\n    }\n}",
  "sourcePath": "/Users/ronak/Developer/projects/trustswap/swaptoken_upgradable/contracts/SwapLock.sol",
  "compiler": {
    "name": "solc",
    "version": "0.6.2+commit.bacdbe57.Emscripten.clang"
  },
  "schemaVersion": "3.2.0",
  "updatedAt": "2020-07-24T08:16:23.874Z",
  "devdoc": {
    "details": "This contract will hold user scheduled payments which will be released after release time",
    "methods": {
      "getDevWallet()": {
        "details": "returns the dev fund wallet address"
      },
      "getFeesWallet()": {
        "details": "returns the fee receiver wallet address"
      },
      "getPaymentDetails(uint256)": {
        "details": "Returns information about payment details",
        "params": {
          "id": "Payment id"
        }
      },
      "getPaymentIds(address)": {
        "details": "Returns all payment ids for a user",
        "params": {
          "user": "Address of the user"
        }
      },
      "getSwapToken()": {
        "details": "Returns swap token address"
      },
      "initialize(address,address,address)": {
        "details": "initialize",
        "params": {
          "devWallet": "Wallet address where dev fund will go",
          "feesWallet": "Wallet address where fees will go",
          "swapTokenAddress": "Address of the swap token"
        }
      },
      "owner()": {
        "details": "Returns the address of the current owner."
      },
      "pause()": {
        "details": "Called by an admin to pause, triggers stopped state."
      },
      "paused()": {
        "details": "Returns true if the contract is paused, and false otherwise."
      },
      "releasable(uint256)": {
        "details": "Returns whether given payment can be released or not",
        "params": {
          "id": "id of a payment"
        }
      },
      "release(uint256)": {
        "details": "Allows beneficiary of payment to release payment after release time",
        "params": {
          "id": "Id of the scheduled payment"
        }
      },
      "renounceOwnership()": {
        "details": "Leaves the contract without owner. It will not be possible to call `onlyOwner` functions anymore. Can only be called by the current owner.     * NOTE: Renouncing ownership will leave the contract without an owner, thereby removing any functionality that is only available to the owner."
      },
      "scheduleBulkPayment(address,uint256[],uint256[],address[],uint256[],bool)": {
        "details": "Allows user to schedule payment. In case of ERC-20 token the user will first have to approve the contract to spend on his/her behalf",
        "params": {
          "amounts": "List of amount of tokens to pay",
          "beneficiaries": "List of addresses of the beneficiaries",
          "isFeeInSwap": "Bool to check if fee to be paid in swap token or not",
          "releaseTimes": "List of release times after which tokens to be released. In seconds",
          "tokenAddress": "Address of the token to be paid"
        }
      },
      "schedulePayment(address,uint256,uint256,address,uint256,bool)": {
        "details": "Allows user to schedule payment. In case of ERC-20 token the user will first have to approve the contract to spend on his/her behalf",
        "params": {
          "amount": "Amount of tokens to pay",
          "beneficiary": "Address of the beneficiary",
          "isFeeInSwap": "Bool to check if fee to be paid in swap token or not",
          "releaseTime": "release time after which tokens to be released. In seconds",
          "tokenAddress": "Address of the token to be paid"
        }
      },
      "setDevWallet(address)": {
        "details": "Allows admin to set fee receiver wallet",
        "params": {
          "wallet": "New wallet address"
        }
      },
      "setFeeWallet(address)": {
        "details": "Allows admin to set fee receiver wallet",
        "params": {
          "wallet": "New wallet address"
        }
      },
      "transferOwnership(address)": {
        "details": "Transfers ownership of the contract to a new account (`newOwner`). Can only be called by the current owner."
      },
      "unpause()": {
        "details": "Called by an admin to unpause, returns to normal state."
      },
      "updateSwapToken(address)": {
        "details": "Update swap token address",
        "params": {
          "swapTokenAddress": "New swap token address"
        }
      }
    }
  },
  "userdoc": {
    "methods": {}
  }
}