{
  "contractName": "SwapSmartLock",
  "abi": [
    {
      "anonymous": false,
      "inputs": [
        {
          "indexed": true,
          "internalType": "address",
          "name": "wallet",
          "type": "address"
        }
      ],
      "name": "DevWalletChanged",
      "type": "event"
    },
    {
      "anonymous": false,
      "inputs": [
        {
          "indexed": true,
          "internalType": "address",
          "name": "wallet",
          "type": "address"
        }
      ],
      "name": "FeeWalletChanged",
      "type": "event"
    },
    {
      "anonymous": false,
      "inputs": [
        {
          "indexed": true,
          "internalType": "address",
          "name": "previousOwner",
          "type": "address"
        },
        {
          "indexed": true,
          "internalType": "address",
          "name": "newOwner",
          "type": "address"
        }
      ],
      "name": "OwnershipTransferred",
      "type": "event"
    },
    {
      "anonymous": false,
      "inputs": [
        {
          "indexed": false,
          "internalType": "address",
          "name": "account",
          "type": "address"
        }
      ],
      "name": "Paused",
      "type": "event"
    },
    {
      "anonymous": false,
      "inputs": [
        {
          "indexed": true,
          "internalType": "uint256",
          "name": "id",
          "type": "uint256"
        },
        {
          "indexed": true,
          "internalType": "address",
          "name": "beneficiary",
          "type": "address"
        },
        {
          "indexed": true,
          "internalType": "address",
          "name": "token",
          "type": "address"
        }
      ],
      "name": "PaymentReleased",
      "type": "event"
    },
    {
      "anonymous": false,
      "inputs": [
        {
          "indexed": true,
          "internalType": "address",
          "name": "token",
          "type": "address"
        },
        {
          "indexed": true,
          "internalType": "address",
          "name": "sender",
          "type": "address"
        },
        {
          "indexed": true,
          "internalType": "address",
          "name": "beneficiary",
          "type": "address"
        },
        {
          "indexed": false,
          "internalType": "uint256",
          "name": "id",
          "type": "uint256"
        },
        {
          "indexed": false,
          "internalType": "uint256",
          "name": "amount",
          "type": "uint256"
        },
        {
          "indexed": false,
          "internalType": "uint256",
          "name": "releaseTime",
          "type": "uint256"
        },
        {
          "indexed": false,
          "internalType": "uint256",
          "name": "fee",
          "type": "uint256"
        },
        {
          "indexed": false,
          "internalType": "bool",
          "name": "isFeeInSwap",
          "type": "bool"
        },
        {
          "indexed": false,
          "internalType": "bool",
          "name": "calcFeeUsingTotalSupply",
          "type": "bool"
        }
      ],
      "name": "PaymentScheduled",
      "type": "event"
    },
    {
      "anonymous": false,
      "inputs": [
        {
          "indexed": true,
          "internalType": "address",
          "name": "swapTokenAddress",
          "type": "address"
        }
      ],
      "name": "SwapTokenUpdated",
      "type": "event"
    },
    {
      "anonymous": false,
      "inputs": [
        {
          "indexed": false,
          "internalType": "address",
          "name": "account",
          "type": "address"
        }
      ],
      "name": "Unpaused",
      "type": "event"
    },
    {
      "inputs": [],
      "name": "owner",
      "outputs": [
        {
          "internalType": "address",
          "name": "",
          "type": "address"
        }
      ],
      "stateMutability": "view",
      "type": "function"
    },
    {
      "inputs": [],
      "name": "paused",
      "outputs": [
        {
          "internalType": "bool",
          "name": "",
          "type": "bool"
        }
      ],
      "stateMutability": "view",
      "type": "function"
    },
    {
      "inputs": [],
      "name": "renounceOwnership",
      "outputs": [],
      "stateMutability": "nonpayable",
      "type": "function"
    },
    {
      "inputs": [
        {
          "internalType": "address",
          "name": "newOwner",
          "type": "address"
        }
      ],
      "name": "transferOwnership",
      "outputs": [],
      "stateMutability": "nonpayable",
      "type": "function"
    },
    {
      "inputs": [
        {
          "internalType": "address",
          "name": "swapTokenAddress",
          "type": "address"
        },
        {
          "internalType": "address payable",
          "name": "feesWallet",
          "type": "address"
        },
        {
          "internalType": "address",
          "name": "devWallet",
          "type": "address"
        },
        {
          "internalType": "address",
          "name": "priceEstimator",
          "type": "address"
        }
      ],
      "name": "initialize",
      "outputs": [],
      "stateMutability": "nonpayable",
      "type": "function"
    },
    {
      "inputs": [],
      "name": "getFeesWallet",
      "outputs": [
        {
          "internalType": "address",
          "name": "",
          "type": "address"
        }
      ],
      "stateMutability": "view",
      "type": "function"
    },
    {
      "inputs": [],
      "name": "getDevWallet",
      "outputs": [
        {
          "internalType": "address",
          "name": "",
          "type": "address"
        }
      ],
      "stateMutability": "view",
      "type": "function"
    },
    {
      "inputs": [],
      "name": "getSwapToken",
      "outputs": [
        {
          "internalType": "address",
          "name": "",
          "type": "address"
        }
      ],
      "stateMutability": "view",
      "type": "function"
    },
    {
      "inputs": [],
      "name": "getPriceEstimator",
      "outputs": [
        {
          "internalType": "address",
          "name": "",
          "type": "address"
        }
      ],
      "stateMutability": "view",
      "type": "function"
    },
    {
      "inputs": [
        {
          "internalType": "uint256",
          "name": "id",
          "type": "uint256"
        }
      ],
      "name": "getPaymentDetails",
      "outputs": [
        {
          "internalType": "address",
          "name": "token",
          "type": "address"
        },
        {
          "internalType": "uint256",
          "name": "amount",
          "type": "uint256"
        },
        {
          "internalType": "uint256",
          "name": "releaseTime",
          "type": "uint256"
        },
        {
          "internalType": "address",
          "name": "sender",
          "type": "address"
        },
        {
          "internalType": "address",
          "name": "beneficiary",
          "type": "address"
        },
        {
          "internalType": "uint256",
          "name": "createdAt",
          "type": "uint256"
        },
        {
          "internalType": "enum SwapSmartLock.Status",
          "name": "status",
          "type": "uint8"
        }
      ],
      "stateMutability": "view",
      "type": "function"
    },
    {
      "inputs": [
        {
          "internalType": "address",
          "name": "user",
          "type": "address"
        }
      ],
      "name": "getBeneficiaryPaymentIds",
      "outputs": [
        {
          "internalType": "uint256[]",
          "name": "ids",
          "type": "uint256[]"
        }
      ],
      "stateMutability": "view",
      "type": "function"
    },
    {
      "inputs": [
        {
          "internalType": "address",
          "name": "user",
          "type": "address"
        }
      ],
      "name": "getSenderPaymentIds",
      "outputs": [
        {
          "internalType": "uint256[]",
          "name": "ids",
          "type": "uint256[]"
        }
      ],
      "stateMutability": "view",
      "type": "function"
    },
    {
      "inputs": [
        {
          "internalType": "address",
          "name": "swapTokenAddress",
          "type": "address"
        }
      ],
      "name": "setSwapToken",
      "outputs": [],
      "stateMutability": "nonpayable",
      "type": "function"
    },
    {
      "inputs": [
        {
          "internalType": "address payable",
          "name": "wallet",
          "type": "address"
        }
      ],
      "name": "setFeeWallet",
      "outputs": [],
      "stateMutability": "nonpayable",
      "type": "function"
    },
    {
      "inputs": [
        {
          "internalType": "address payable",
          "name": "wallet",
          "type": "address"
        }
      ],
      "name": "setDevWallet",
      "outputs": [],
      "stateMutability": "nonpayable",
      "type": "function"
    },
    {
      "inputs": [
        {
          "internalType": "address",
          "name": "priceEstimator",
          "type": "address"
        }
      ],
      "name": "setPriceEstimator",
      "outputs": [],
      "stateMutability": "nonpayable",
      "type": "function"
    },
    {
      "inputs": [
        {
          "internalType": "uint8",
          "name": "ethFeePercentage",
          "type": "uint8"
        }
      ],
      "name": "setEthFeePercentage",
      "outputs": [],
      "stateMutability": "nonpayable",
      "type": "function"
    },
    {
      "inputs": [
        {
          "internalType": "uint8",
          "name": "allowedFeeSlippagePercentage",
          "type": "uint8"
        }
      ],
      "name": "setAllowedFeeSlippagePercentage",
      "outputs": [],
      "stateMutability": "nonpayable",
      "type": "function"
    },
    {
      "inputs": [
        {
          "internalType": "uint8",
          "name": "uniswapFeePercentage",
          "type": "uint8"
        }
      ],
      "name": "setUniswapFeePercentage",
      "outputs": [],
      "stateMutability": "nonpayable",
      "type": "function"
    },
    {
      "inputs": [
        {
          "internalType": "uint256",
          "name": "ethAmountInWei",
          "type": "uint256"
        }
      ],
      "name": "setMaxFeeInEth",
      "outputs": [],
      "stateMutability": "nonpayable",
      "type": "function"
    },
    {
      "inputs": [
        {
          "internalType": "uint256",
          "name": "amount",
          "type": "uint256"
        }
      ],
      "name": "getFeeInEthForEth",
      "outputs": [
        {
          "internalType": "uint256",
          "name": "",
          "type": "uint256"
        }
      ],
      "stateMutability": "view",
      "type": "function"
    },
    {
      "inputs": [
        {
          "internalType": "uint256",
          "name": "amount",
          "type": "uint256"
        },
        {
          "internalType": "address",
          "name": "token",
          "type": "address"
        }
      ],
      "name": "getFeeInEthForERC20",
      "outputs": [
        {
          "internalType": "uint256",
          "name": "",
          "type": "uint256"
        }
      ],
      "stateMutability": "view",
      "type": "function"
    },
    {
      "inputs": [
        {
          "internalType": "uint256",
          "name": "amount",
          "type": "uint256"
        },
        {
          "internalType": "address",
          "name": "token",
          "type": "address"
        }
      ],
      "name": "getFeeInEthForERC20UsingTotalSupply",
      "outputs": [
        {
          "internalType": "uint256",
          "name": "",
          "type": "uint256"
        }
      ],
      "stateMutability": "view",
      "type": "function"
    },
    {
      "inputs": [
        {
          "internalType": "uint256",
          "name": "amount",
          "type": "uint256"
        }
      ],
      "name": "getFeeInSwapForETH",
      "outputs": [
        {
          "internalType": "uint256",
          "name": "",
          "type": "uint256"
        }
      ],
      "stateMutability": "view",
      "type": "function"
    },
    {
      "inputs": [
        {
          "internalType": "uint256",
          "name": "amount",
          "type": "uint256"
        },
        {
          "internalType": "address",
          "name": "token",
          "type": "address"
        },
        {
          "internalType": "bool",
          "name": "calcFeeUsingTotalSupply",
          "type": "bool"
        }
      ],
      "name": "getFeeInSwapForERC20",
      "outputs": [
        {
          "internalType": "uint256",
          "name": "",
          "type": "uint256"
        }
      ],
      "stateMutability": "view",
      "type": "function"
    },
    {
      "inputs": [
        {
          "internalType": "address",
          "name": "tokenAddress",
          "type": "address"
        },
        {
          "internalType": "uint256",
          "name": "amount",
          "type": "uint256"
        },
        {
          "internalType": "uint256",
          "name": "releaseTime",
          "type": "uint256"
        },
        {
          "internalType": "address payable",
          "name": "beneficiary",
          "type": "address"
        },
        {
          "internalType": "uint256",
          "name": "fee",
          "type": "uint256"
        },
        {
          "internalType": "bool",
          "name": "isFeeInSwap",
          "type": "bool"
        },
        {
          "internalType": "bool",
          "name": "calcFeeUsingTotalSupply",
          "type": "bool"
        }
      ],
      "name": "schedulePayment",
      "outputs": [],
      "stateMutability": "payable",
      "type": "function"
    },
    {
      "inputs": [
        {
          "internalType": "address",
          "name": "tokenAddress",
          "type": "address"
        },
        {
          "internalType": "uint256[]",
          "name": "amounts",
          "type": "uint256[]"
        },
        {
          "internalType": "uint256[]",
          "name": "releaseTimes",
          "type": "uint256[]"
        },
        {
          "internalType": "address payable[]",
          "name": "beneficiaries",
          "type": "address[]"
        },
        {
          "internalType": "uint256[]",
          "name": "fees",
          "type": "uint256[]"
        },
        {
          "internalType": "bool",
          "name": "isFeeInSwap",
          "type": "bool"
        },
        {
          "internalType": "bool",
          "name": "calcFeeUsingTotalSupply",
          "type": "bool"
        }
      ],
      "name": "scheduleBulkPayment",
      "outputs": [],
      "stateMutability": "payable",
      "type": "function"
    },
    {
      "inputs": [
        {
          "internalType": "uint256",
          "name": "id",
          "type": "uint256"
        }
      ],
      "name": "release",
      "outputs": [],
      "stateMutability": "nonpayable",
      "type": "function"
    },
    {
      "inputs": [
        {
          "internalType": "uint256",
          "name": "id",
          "type": "uint256"
        }
      ],
      "name": "releasable",
      "outputs": [
        {
          "internalType": "bool",
          "name": "",
          "type": "bool"
        }
      ],
      "stateMutability": "view",
      "type": "function"
    },
    {
      "inputs": [],
      "name": "pause",
      "outputs": [],
      "stateMutability": "nonpayable",
      "type": "function"
    },
    {
      "inputs": [],
      "name": "unpause",
      "outputs": [],
      "stateMutability": "nonpayable",
      "type": "function"
    },
    {
      "inputs": [
        {
          "internalType": "address",
          "name": "token",
          "type": "address"
        }
      ],
      "name": "addTokenToFreeList",
      "outputs": [],
      "stateMutability": "nonpayable",
      "type": "function"
    },
    {
      "inputs": [
        {
          "internalType": "address",
          "name": "token",
          "type": "address"
        }
      ],
      "name": "removeTokenFromFreeList",
      "outputs": [],
      "stateMutability": "nonpayable",
      "type": "function"
    },
    {
      "inputs": [
        {
          "internalType": "address",
          "name": "token",
          "type": "address"
        }
      ],
      "name": "isFreeToken",
      "outputs": [
        {
          "internalType": "bool",
          "name": "",
          "type": "bool"
        }
      ],
      "stateMutability": "view",
      "type": "function"
    }
  ],
  "bytecode": "0x608060405234801561001057600080fd5b50613ac2806100206000396000f3fe6080604052600436106101f85760003560e01c80639976dfbe1161010d578063cd7d9e99116100a0578063d92b9b631161006f578063d92b9b63146108e7578063e4bf01a814610939578063ea8a459314610963578063f2fde38b14610978578063f8c8765e146109ab576101f8565b8063cd7d9e99146106dc578063d22edafb1461070f578063d2bb3aed14610887578063d8ad1b2b146108b4576101f8565b8063af056b39116100dc578063af056b3914610613578063b851b7ca14610646578063bf3452f814610679578063c0f8bc60146106a3576101f8565b80639976dfbe1461050f5780639e70df21146105485780639fa944dd146105d1578063a9ff2bae146105e6576101f8565b806356ee468a11610190578063715018a61161015f578063715018a6146104705780638456cb59146104855780638cc6058b1461049a5780638da5cb5b146104c757806390d49b9d146104dc576101f8565b806356ee468a146103845780635c04aa6a146103ae5780635c975abb146103d857806361164e53146103ed576101f8565b806331bff521116101cc57806331bff521146102e957806337bdc99b146103305780633f4ba83a1461035a578063453dd97f1461036f576101f8565b806245a3d7146101fd578063199eedfa146102325780631f53ac02146102635780632699fd1f14610296575b600080fd5b34801561020957600080fd5b506102306004803603602081101561022057600080fd5b50356001600160a01b03166109f6565b005b34801561023e57600080fd5b50610247610b04565b604080516001600160a01b039092168252519081900360200190f35b34801561026f57600080fd5b506102306004803603602081101561028657600080fd5b50356001600160a01b0316610b13565b3480156102a257600080fd5b506102d7600480360360608110156102b957600080fd5b508035906001600160a01b0360208201351690604001351515610bfa565b60408051918252519081900360200190f35b3480156102f557600080fd5b5061031c6004803603602081101561030c57600080fd5b50356001600160a01b0316610c2f565b604080519115158252519081900360200190f35b34801561033c57600080fd5b506102306004803603602081101561035357600080fd5b5035610c51565b34801561036657600080fd5b50610230610dcc565b34801561037b57600080fd5b50610247610e2e565b34801561039057600080fd5b50610230600480360360208110156103a757600080fd5b5035610e3d565b3480156103ba57600080fd5b506102d7600480360360208110156103d157600080fd5b5035610e9a565b3480156103e457600080fd5b5061031c610eb8565b3480156103f957600080fd5b506104206004803603602081101561041057600080fd5b50356001600160a01b0316610ec1565b60408051602080825283518183015283519192839290830191858101910280838360005b8381101561045c578181015183820152602001610444565b505050509050019250505060405180910390f35b34801561047c57600080fd5b50610230610f2d565b34801561049157600080fd5b50610230610fcf565b3480156104a657600080fd5b50610230600480360360208110156104bd57600080fd5b503560ff1661102f565b3480156104d357600080fd5b506102476110d2565b3480156104e857600080fd5b50610230600480360360208110156104ff57600080fd5b50356001600160a01b03166110e1565b34801561051b57600080fd5b506102d76004803603604081101561053257600080fd5b50803590602001356001600160a01b03166111c8565b34801561055457600080fd5b506105726004803603602081101561056b57600080fd5b50356112b2565b604080516001600160a01b03808a168252602082018990529181018790528582166060820152908416608082015260a0810183905260c081018260018111156105b757fe5b60ff16815260200197505050505050505060405180910390f35b3480156105dd57600080fd5b506102476113dd565b3480156105f257600080fd5b506102306004803603602081101561060957600080fd5b503560ff166113ec565b34801561061f57600080fd5b506104206004803603602081101561063657600080fd5b50356001600160a01b031661148f565b34801561065257600080fd5b506102306004803603602081101561066957600080fd5b50356001600160a01b03166114f9565b34801561068557600080fd5b506102d76004803603602081101561069c57600080fd5b503561162f565b3480156106af57600080fd5b506102d7600480360360408110156106c657600080fd5b50803590602001356001600160a01b031661164e565b3480156106e857600080fd5b50610230600480360360208110156106ff57600080fd5b50356001600160a01b031661185a565b610230600480360360e081101561072557600080fd5b6001600160a01b038235169190810190604081016020820135600160201b81111561074f57600080fd5b82018360208201111561076157600080fd5b803590602001918460208302840111600160201b8311171561078257600080fd5b919390929091602081019035600160201b81111561079f57600080fd5b8201836020820111156107b157600080fd5b803590602001918460208302840111600160201b831117156107d257600080fd5b919390929091602081019035600160201b8111156107ef57600080fd5b82018360208201111561080157600080fd5b803590602001918460208302840111600160201b8311171561082257600080fd5b919390929091602081019035600160201b81111561083f57600080fd5b82018360208201111561085157600080fd5b803590602001918460208302840111600160201b8311171561087257600080fd5b91935091508035151590602001351515611925565b34801561089357600080fd5b50610230600480360360208110156108aa57600080fd5b503560ff16611af2565b3480156108c057600080fd5b50610230600480360360208110156108d757600080fd5b50356001600160a01b0316611b95565b610230600480360360e08110156108fd57600080fd5b506001600160a01b03813581169160208101359160408201359160608101359091169060808101359060a081013515159060c001351515611c5d565b34801561094557600080fd5b5061031c6004803603602081101561095c57600080fd5b5035611cc2565b34801561096f57600080fd5b50610247611d93565b34801561098457600080fd5b506102306004803603602081101561099b57600080fd5b50356001600160a01b0316611da2565b3480156109b757600080fd5b50610230600480360360808110156109ce57600080fd5b506001600160a01b038135811691602081013582169160408201358116916060013516611e9b565b6109fe611f4b565b6065546001600160a01b03908116911614610a4e576040805162461bcd60e51b815260206004820181905260248201526000805160206138a6833981519152604482015290519081900360640190fd5b80610a61816001600160a01b0316611f4f565b610a9c5760405162461bcd60e51b81526004018080602001828103825260348152602001806137f76034913960400191505060405180910390fd5b6001600160a01b038216610ae15760405162461bcd60e51b815260040180806020018281038252602d8152602001806137ca602d913960400191505060405180910390fd5b5060d080546001600160a01b0319166001600160a01b0392909216919091179055565b60d0546001600160a01b031690565b610b1b611f4b565b6065546001600160a01b03908116911614610b6b576040805162461bcd60e51b815260206004820181905260248201526000805160206138a6833981519152604482015290519081900360640190fd5b6001600160a01b038116610bb05760405162461bcd60e51b815260040180806020018281038252602a815260200180613720602a913960400191505060405180910390fd5b60cb80546001600160a01b0319166001600160a01b0383169081179091556040517f268c00f4ec08b34fdde24b52e47a09d62f3f3837eb3b8ac7206cefb3bb5e534590600090a250565b60008082610c1157610c0c858561164e565b610c1b565b610c1b85856111c8565b9050610c2681611f8b565b95945050505050565b6001600160a01b038116600090815260d5602052604090205460ff165b919050565b80610c5b81611cc2565b610cac576040805162461bcd60e51b815260206004820181905260248201527f5b52656c656173655d3a2043616e27742072656c65617365207061796d656e74604482015290519081900360640190fd5b610cb461368b565b600083815260cf6020908152604091829020825160e08101845281546001600160a01b039081168252600180840154821694830194909452600283015416938101939093526003810154606084015260048101546080840152600581015460a08401526006810154909160c084019160ff1690811115610d3057fe5b6001811115610d3b57fe5b90525080519091506001600160a01b031673eeeeeeeeeeeeeeeeeeeeeeeeeeeeeeeeeeeeeeee1415610d7557610d7083612117565b610d7e565b610d7e836121e5565b80600001516001600160a01b031681604001516001600160a01b0316847fa6ea333f41ff25e0a1adef6504bf3be9c7e740717d65f28a40b57a9681c2940c60405160405180910390a4505050565b610dd4611f4b565b6065546001600160a01b03908116911614610e24576040805162461bcd60e51b815260206004820181905260248201526000805160206138a6833981519152604482015290519081900360640190fd5b610e2c612227565b565b60cb546001600160a01b031690565b610e45611f4b565b6065546001600160a01b03908116911614610e95576040805162461bcd60e51b815260206004820181905260248201526000805160206138a6833981519152604482015290519081900360640190fd5b60d455565b600080610ea68361162f565b9050610eb181611f8b565b9392505050565b60975460ff1690565b6001600160a01b038116600090815260cd6020908152604091829020805483518184028101840190945280845260609392830182828015610f2157602002820191906000526020600020905b815481526020019060010190808311610f0d575b50505050509050919050565b610f35611f4b565b6065546001600160a01b03908116911614610f85576040805162461bcd60e51b815260206004820181905260248201526000805160206138a6833981519152604482015290519081900360640190fd5b6065546040516000916001600160a01b0316907f8be0079c531659141344cd1fd0a4f28419497f9722a3daafe3b4186f6b6457e0908390a3606580546001600160a01b0319169055565b610fd7611f4b565b6065546001600160a01b03908116911614611027576040805162461bcd60e51b815260206004820181905260248201526000805160206138a6833981519152604482015290519081900360640190fd5b610e2c6122c5565b611037611f4b565b6065546001600160a01b03908116911614611087576040805162461bcd60e51b815260206004820181905260248201526000805160206138a6833981519152604482015290519081900360640190fd5b60648160ff1611156110ca5760405162461bcd60e51b81526004018080602001828103825260398152602001806139c76039913960400191505060405180910390fd5b60ff1660d155565b6065546001600160a01b031690565b6110e9611f4b565b6065546001600160a01b03908116911614611139576040805162461bcd60e51b815260206004820181905260248201526000805160206138a6833981519152604482015290519081900360640190fd5b6001600160a01b03811661117e5760405162461bcd60e51b815260040180806020018281038252602b81526020018061382b602b913960400191505060405180910390fd5b60ca80546001600160a01b0319166001600160a01b0383169081179091556040517fe805ffc02a12d27b142431551e2cd3f766203c54a9a4ab0d1cf01ce7366a796f90600090a250565b60006111d382610c2f565b156111e0575060006112ac565b6000826001600160a01b03166318160ddd6040518163ffffffff1660e01b815260040160206040518083038186803b15801561121b57600080fd5b505afa15801561122f573d6000803e3d6000fd5b505050506040513d602081101561124557600080fd5b50519050600061127c826112706064611264898463ffffffff61234616565b9063ffffffff61234616565b9063ffffffff61239f16565b905067016345785d8a00006112a661129e84611270858563ffffffff61234616565b60d4546123e1565b93505050505b92915050565b600080600080600080600060cf600089815260200190815260200160002060030154600014156113135760405162461bcd60e51b8152600401808060200182810382526026815260200180613a676026913960400191505060405180910390fd5b61131b61368b565b600089815260cf6020908152604091829020825160e08101845281546001600160a01b039081168252600180840154821694830194909452600283015416938101939093526003810154606084015260048101546080840152600581015460a08401526006810154909160c084019160ff169081111561139757fe5b60018111156113a257fe5b9052508051606082015160808301516020840151604085015160a086015160c090960151949f939e50919c509a509850919650945092505050565b60c9546001600160a01b031690565b6113f4611f4b565b6065546001600160a01b03908116911614611444576040805162461bcd60e51b815260206004820181905260248201526000805160206138a6833981519152604482015290519081900360640190fd5b60648160ff1611156114875760405162461bcd60e51b815260040180806020018281038252603d815260200180613a2a603d913960400191505060405180910390fd5b60ff1660d355565b6001600160a01b038116600090815260ce6020908152604091829020805483518184028101840190945280845260609392830182828015610f215760200282019190600052602060002090815481526020019060010190808311610f0d5750505050509050919050565b611501611f4b565b6065546001600160a01b03908116911614611551576040805162461bcd60e51b815260206004820181905260248201526000805160206138a6833981519152604482015290519081900360640190fd5b80611564816001600160a01b0316611f4f565b61159f5760405162461bcd60e51b81526004018080602001828103825260348152602001806137f76034913960400191505060405180910390fd5b6001600160a01b0382166115e45760405162461bcd60e51b815260040180806020018281038252602881526020018061376d6028913960400191505060405180910390fd5b60c980546001600160a01b0319166001600160a01b0384169081179091556040517f44fe57485076f35a8eb17e92799dcc65f24a9eab90ffae0af662812f19803be590600090a25050565b60006112ac61129e606461127060d1548661234690919063ffffffff16565b600061165982610c2f565b15611666575060006112ac565b6000826001600160a01b031663313ce5676040518163ffffffff1660e01b815260040160206040518083038186803b1580156116a157600080fd5b505afa1580156116b5573d6000803e3d6000fd5b505050506040513d60208110156116cb57600080fd5b505160d054604080516350a2394560e01b815260ff909316600a0a600484018190526001600160a01b038781166024860152915190945060009391909216916350a23945916044808201928692909190829003018186803b15801561172f57600080fd5b505afa158015611743573d6000803e3d6000fd5b505050506040513d6000823e601f3d908101601f19168201604052602081101561176c57600080fd5b8101908080516040519392919084600160201b82111561178b57600080fd5b9083019060208201858111156117a057600080fd5b82518660208202830111600160201b821117156117bc57600080fd5b82525081516020918201928201910280838360005b838110156117e95781810151838201526020016117d1565b5050505090500160405250505060008151811061180257fe5b6020026020010151905061183761182a6103e861127060d3548561234690919063ffffffff16565b829063ffffffff6123f716565b9050600061184f83611270888563ffffffff61234616565b90506112a68161162f565b611862611f4b565b6065546001600160a01b039081169116146118b2576040805162461bcd60e51b815260206004820181905260248201526000805160206138a6833981519152604482015290519081900360640190fd5b806118c5816001600160a01b0316611f4f565b6119005760405162461bcd60e51b81526004018080602001828103825260348152602001806137f76034913960400191505060405180910390fd5b506001600160a01b0316600090815260d560205260409020805460ff19166001179055565b60975460ff1615611970576040805162461bcd60e51b815260206004820152601060248201526f14185d5cd8589b194e881c185d5cd95960821b604482015290519081900360640190fd5b348988146119c5576040805162461bcd60e51b815260206004820152601c60248201527f53776170536d6172744c6f636b3a20496e76616c696420696e70757400000000604482015290519081900360640190fd5b898614611a19576040805162461bcd60e51b815260206004820152601c60248201527f53776170536d6172744c6f636b3a20496e76616c696420696e70757400000000604482015290519081900360640190fd5b898414611a6d576040805162461bcd60e51b815260206004820152601c60248201527f53776170536d6172744c6f636b3a20496e76616c696420696e70757400000000604482015290519081900360640190fd5b60005b8a811015611ae357611ad98d8d8d84818110611a8857fe5b905060200201358c8c85818110611a9b57fe5b905060200201358b8b86818110611aae57fe5b905060200201356001600160a01b0316868b8b88818110611acb57fe5b905060200201358a8a612439565b9150600101611a70565b50505050505050505050505050565b611afa611f4b565b6065546001600160a01b03908116911614611b4a576040805162461bcd60e51b815260206004820181905260248201526000805160206138a6833981519152604482015290519081900360640190fd5b60648160ff161115611b8d5760405162461bcd60e51b81526004018080602001828103825260468152602001806139816046913960600191505060405180910390fd5b60ff1660d255565b611b9d611f4b565b6065546001600160a01b03908116911614611bed576040805162461bcd60e51b815260206004820181905260248201526000805160206138a6833981519152604482015290519081900360640190fd5b80611c00816001600160a01b0316611f4f565b611c3b5760405162461bcd60e51b81526004018080602001828103825260348152602001806137f76034913960400191505060405180910390fd5b506001600160a01b0316600090815260d560205260409020805460ff19169055565b60975460ff1615611ca8576040805162461bcd60e51b815260206004820152601060248201526f14185d5cd8589b194e881c185d5cd95960821b604482015290519081900360640190fd5b611cb88787878734888888612439565b5050505050505050565b6000611ccc61368b565b600083815260cf6020908152604091829020825160e08101845281546001600160a01b039081168252600180840154821694830194909452600283015416938101939093526003810154606084015260048101546080840152600581015460a08401526006810154909160c084019160ff1690811115611d4857fe5b6001811115611d5357fe5b905250905060018160c001516001811115611d6a57fe5b148015611d7b575042816080015111155b15611d8a576001915050610c4c565b50600092915050565b60ca546001600160a01b031690565b611daa611f4b565b6065546001600160a01b03908116911614611dfa576040805162461bcd60e51b815260206004820181905260248201526000805160206138a6833981519152604482015290519081900360640190fd5b6001600160a01b038116611e3f5760405162461bcd60e51b81526004018080602001828103825260268152602001806136c66026913960400191505060405180910390fd5b6065546040516001600160a01b038084169216907f8be0079c531659141344cd1fd0a4f28419497f9722a3daafe3b4186f6b6457e090600090a3606580546001600160a01b0319166001600160a01b0392909216919091179055565b83611eae816001600160a01b0316611f4f565b611ee95760405162461bcd60e51b81526004018080602001828103825260348152602001806137f76034913960400191505060405180910390fd5b81611efc816001600160a01b0316611f4f565b611f375760405162461bcd60e51b81526004018080602001828103825260348152602001806137f76034913960400191505060405180910390fd5b611f4386868686612623565b505050505050565b3390565b6000813f7fc5d2460186f7233c927e7db2dcc703c0e500b653ca82273b7bfad8045d85a470818114801590611f8357508115155b949350505050565b600080611f9f83600263ffffffff61239f16565b60d05460c95460408051637524c56f60e11b8152600160048201526001600160a01b0392831660248201529051939450600093919092169163ea498ade9160448083019286929190829003018186803b158015611ffb57600080fd5b505afa15801561200f573d6000803e3d6000fd5b505050506040513d6000823e601f3d908101601f19168201604052602081101561203857600080fd5b8101908080516040519392919084600160201b82111561205757600080fd5b90830190602082018581111561206c57600080fd5b82518660208202830111600160201b8211171561208857600080fd5b82525081516020918201928201910280838360005b838110156120b557818101518382015260200161209d565b505050509050016040525050506000815181106120ce57fe5b6020026020010151905060006121056120f86103e861127060d3548661234690919063ffffffff16565b839063ffffffff6123f716565b9050610c26838263ffffffff61234616565b600081815260cf602052604080822060068101805460ff191690556002810154600382015492519193926001600160a01b03909116918381818185875af1925050503d8060008114612185576040519150601f19603f3d011682016040523d82523d6000602084013e61218a565b606091505b50509050806121e0576040805162461bcd60e51b815260206004820181905260248201527f5b52656c656173655d204661696c656420746f207472616e7366657220455448604482015290519081900360640190fd5b505050565b600081815260cf6020526040902060068101805460ff19169055600281015460038201548254612223926001600160a01b03918216929116906126ed565b5050565b60975460ff16612275576040805162461bcd60e51b815260206004820152601460248201527314185d5cd8589b194e881b9bdd081c185d5cd95960621b604482015290519081900360640190fd5b6097805460ff191690557f5db9ee0a495bf2e6ff9c91a7834c1ba4fdd244a5e8aa4e537bd38aeae4b073aa6122a8611f4b565b604080516001600160a01b039092168252519081900360200190a1565b60975460ff1615612310576040805162461bcd60e51b815260206004820152601060248201526f14185d5cd8589b194e881c185d5cd95960821b604482015290519081900360640190fd5b6097805460ff191660011790557f62e78cea01bee320cd4e420270b5ea74000d11b0c9f74754ebdbfc544b05a2586122a8611f4b565b600082612355575060006112ac565b8282028284828161236257fe5b0414610eb15760405162461bcd60e51b81526004018080602001828103825260218152602001806138566021913960400191505060405180910390fd5b6000610eb183836040518060400160405280601a81526020017f536166654d6174683a206469766973696f6e206279207a65726f00000000000081525061273f565b60008183106123f05781610eb1565b5090919050565b6000610eb183836040518060400160405280601e81526020017f536166654d6174683a207375627472616374696f6e206f766572666c6f7700008152506127e1565b60008088116124795760405162461bcd60e51b815260040180806020018281038252602f815260200180613877602f913960400191505060405180910390fd5b61248289610c2f565b6124c557600084116124c55760405162461bcd60e51b815260040180806020018281038252602c815260200180613955602c913960400191505060405180910390fd5b6001600160a01b03861661250a5760405162461bcd60e51b815260040180806020018281038252602881526020018061392d6028913960400191505060405180910390fd5b8473eeeeeeeeeeeeeeeeeeeeeeeeeeeeeeeeeeeeeeee6001600160a01b038b1614156125835761253e89868a8a8a8961283b565b831561255b57612554818a63ffffffff6123f716565b905061257e565b61257b8561256f838c63ffffffff6123f716565b9063ffffffff6123f716565b90505b6125ab565b6125938a8a878b8b8b8a8a612bbf565b836125ab576125a8818663ffffffff6123f716565b90505b60cc5460408051918252602082018b90528181018a905260608201879052851515608083015284151560a0830152516001600160a01b03808a16923392918e16917f211830a7f3f5f8b96be451168334f4a75f9f11a9c0a857c7e0c3592e07f881049181900360c00190a49998505050505050505050565b600054610100900460ff168061263c575061263c612f47565b8061264a575060005460ff16155b6126855760405162461bcd60e51b815260040180806020018281038252602e8152602001806138c6602e913960400191505060405180910390fd5b600054610100900460ff161580156126b0576000805460ff1961ff0019909116610100171660011790555b6126b8612f4d565b6126c0612fef565b6126c86130e8565b6126d485858585613193565b80156126e6576000805461ff00191690555b5050505050565b604080516001600160a01b038416602482015260448082018490528251808303909101815260649091019091526020810180516001600160e01b031663a9059cbb60e01b1790526121e090849061331b565b600081836127cb5760405162461bcd60e51b81526004018080602001828103825283818151815260200191508051906020019080838360005b83811015612790578181015183820152602001612778565b50505050905090810190601f1680156127bd5780820380516001836020036101000a031916815260200191505b509250505060405180910390fd5b5060008385816127d757fe5b0495945050505050565b600081848411156128335760405162461bcd60e51b8152602060048201818152835160248401528351909283926044909101919085019080838360008315612790578181015183820152602001612778565b505050900390565b801561292a5785821015612896576040805162461bcd60e51b815260206004820181905260248201527f5b56616c69646174696f6e5d20456e6f75676820455448206e6f742073656e74604482015290519081900360640190fd5b60006128a187610e9a565b905060008187101561291a576128bd828863ffffffff6123f716565b905060006128d68361127084606463ffffffff61234616565b905060d25481106129185760405162461bcd60e51b81526004018080602001828103825260358152602001806137956035913960400191505060405180910390fd5b505b612923826134d9565b5050612a6f565b60006129358761162f565b9050808610156129765760405162461bcd60e51b81526004018080602001828103825260348152602001806136ec6034913960400191505060405180910390fd5b612986878263ffffffff6135d716565b8310156129da576040805162461bcd60e51b815260206004820181905260248201527f5b56616c69646174696f6e5d20456e6f75676820455448206e6f742073656e74604482015290519081900360640190fd5b60ca546040516000916001600160a01b03169083908381818185875af1925050503d8060008114612a27576040519150601f19603f3d011682016040523d82523d6000602084013e612a2c565b606091505b5050905080612a6c5760405162461bcd60e51b815260040180806020018281038252602381526020018061374a6023913960400191505060405180910390fd5b50505b60cc54612a8390600163ffffffff6135d716565b60cc8190556040805160e08101825273eeeeeeeeeeeeeeeeeeeeeeeeeeeeeeeeeeeeeeee81523360208083019182526001600160a01b03888116848601908152606085018d8152608086018c81524260a08801908152600160c0890181815260009b8c5260cf90975298909920875181549086166001600160a01b03199182161782559651818a01805491871691891691909117905592516002840180549190951696169590951790925590516003820155915160048301559351600582015592516006840180549294939192909160ff19909116908381811115612b6457fe5b021790555050506001600160a01b03909216600090815260cd6020908152604080832060cc8054825460018181018555938752858720015533855260ce84529184209154825491820183559184529190922001555050505050565b87612bd2816001600160a01b0316611f4f565b612c0d5760405162461bcd60e51b81526004018080602001828103825260348152602001806137f76034913960400191505060405180910390fd5b612c1689610c2f565b612deb578215612cb6576000612c2d898b85610bfa565b9050600081891015612ca657612c49828a63ffffffff6123f716565b90506000612c628361127084606463ffffffff61234616565b905060d2548110612ca45760405162461bcd60e51b81526004018080602001828103825260358152602001806137956035913960400191505060405180910390fd5b505b612caf826134d9565b5050612deb565b600082612ccc57612cc7898b61164e565b612cd6565b612cd6898b6111c8565b905080881015612d175760405162461bcd60e51b81526004018080602001828103825260348152602001806136ec6034913960400191505060405180910390fd5b80851015612d565760405162461bcd60e51b81526004018080602001828103825260398152602001806138f46039913960400191505060405180910390fd5b60ca546040516000916001600160a01b03169083908381818185875af1925050503d8060008114612da3576040519150601f19603f3d011682016040523d82523d6000602084013e612da8565b606091505b5050905080612de85760405162461bcd60e51b815260040180806020018281038252602381526020018061374a6023913960400191505060405180910390fd5b50505b612e066001600160a01b038a1633308b63ffffffff61363116565b60cc54612e1a90600163ffffffff6135d716565b60cc8190556040805160e0810182526001600160a01b038c811682523360208084019182528a8316848601908152606085018f8152608086018e81524260a08801908152600160c0890181815260009b8c5260cf90965298909920875181549088166001600160a01b03199182161782559551818a01805491891691881691909117905592516002840180549190971695169490941790945592516003840155905160048301559351600582015592516006840180549294939192909160ff19909116908381811115612ee957fe5b021790555050506001600160a01b03909416600090815260cd6020908152604080832060cc8054825460018181018555938752858720015533855260ce84529184209154825491820183559184529190922001555050505050505050565b303b1590565b600054610100900460ff1680612f665750612f66612f47565b80612f74575060005460ff16155b612faf5760405162461bcd60e51b815260040180806020018281038252602e8152602001806138c6602e913960400191505060405180910390fd5b600054610100900460ff16158015612fda576000805460ff1961ff0019909116610100171660011790555b8015612fec576000805461ff00191690555b50565b600054610100900460ff16806130085750613008612f47565b80613016575060005460ff16155b6130515760405162461bcd60e51b815260040180806020018281038252602e8152602001806138c6602e913960400191505060405180910390fd5b600054610100900460ff1615801561307c576000805460ff1961ff0019909116610100171660011790555b6000613086611f4b565b606580546001600160a01b0319166001600160a01b038316908117909155604051919250906000907f8be0079c531659141344cd1fd0a4f28419497f9722a3daafe3b4186f6b6457e0908290a3508015612fec576000805461ff001916905550565b600054610100900460ff16806131015750613101612f47565b8061310f575060005460ff16155b61314a5760405162461bcd60e51b815260040180806020018281038252602e8152602001806138c6602e913960400191505060405180910390fd5b600054610100900460ff16158015613175576000805460ff1961ff0019909116610100171660011790555b6097805460ff191690558015612fec576000805461ff001916905550565b600054610100900460ff16806131ac57506131ac612f47565b806131ba575060005460ff16155b6131f55760405162461bcd60e51b815260040180806020018281038252602e8152602001806138c6602e913960400191505060405180910390fd5b600054610100900460ff16158015613220576000805460ff1961ff0019909116610100171660011790555b6001600160a01b0384166132655760405162461bcd60e51b815260040180806020018281038252602b81526020018061382b602b913960400191505060405180910390fd5b6001600160a01b0383166132aa5760405162461bcd60e51b815260040180806020018281038252602a815260200180613720602a913960400191505060405180910390fd5b60c980546001600160a01b038088166001600160a01b03199283161790925560ca805487841690831617905560cb805486841690831617905560d0805492851692909116919091179055600160d155600560d255600360d35580156126e6576000805461ff00191690555050505050565b61332d826001600160a01b0316611f4f565b61337e576040805162461bcd60e51b815260206004820152601f60248201527f5361666545524332303a2063616c6c20746f206e6f6e2d636f6e747261637400604482015290519081900360640190fd5b60006060836001600160a01b0316836040518082805190602001908083835b602083106133bc5780518252601f19909201916020918201910161339d565b6001836020036101000a0380198251168184511680821785525050505050509050019150506000604051808303816000865af19150503d806000811461341e576040519150601f19603f3d011682016040523d82523d6000602084013e613423565b606091505b50915091508161347a576040805162461bcd60e51b815260206004820181905260248201527f5361666545524332303a206c6f772d6c6576656c2063616c6c206661696c6564604482015290519081900360640190fd5b8051156134d35780806020019051602081101561349657600080fd5b50516134d35760405162461bcd60e51b815260040180806020018281038252602a815260200180613a00602a913960400191505060405180910390fd5b50505050565b60006134f1606461127084600a63ffffffff61234616565b9050600061350b606461127085600a63ffffffff61234616565b905060006135238261256f868663ffffffff6123f716565b60ca5460c95491925061354b916001600160a01b03908116913391168463ffffffff61363116565b60cb5460c954613570916001600160a01b03918216913391168663ffffffff61363116565b60c9546040805163079cc67960e41b81523360048201526024810185905290516001600160a01b03909216916379cc67909160448082019260009290919082900301818387803b1580156135c357600080fd5b505af1158015611cb8573d6000803e3d6000fd5b600082820183811015610eb1576040805162461bcd60e51b815260206004820152601b60248201527f536166654d6174683a206164646974696f6e206f766572666c6f770000000000604482015290519081900360640190fd5b604080516001600160a01b0380861660248301528416604482015260648082018490528251808303909101815260849091019091526020810180516001600160e01b03166323b872dd60e01b1790526134d390859061331b565b6040805160e081018252600080825260208201819052918101829052606081018290526080810182905260a081018290529060c08201529056fe4f776e61626c653a206e6577206f776e657220697320746865207a65726f20616464726573735b56616c69646174696f6e5d204665652028455448292069732062656c6f77206d696e696d756d207265717569726564206665655b56616c69646174696f6e5d2064657657616c6c657420697320746865207a65726f20616464726573735b56616c69646174696f6e5d205472616e73666572206f6620666565206661696c65645b56616c69646174696f6e5d3a20496e76616c6964207377617020746f6b656e20616464726573735b56616c69646174696f6e5d20466565202853574150292069732062656c6f77206d696e696d756d207265717569726564206665655b56616c69646174696f6e5d3a20496e76616c696420707269636520657374696d61746f7220616464726573735b56616c69646174696f6e5d20546865206164647265737320646f6573206e6f7420636f6e7461696e206120636f6e74726163745b56616c69646174696f6e5d206665657357616c6c657420697320746865207a65726f2061646472657373536166654d6174683a206d756c7469706c69636174696f6e206f766572666c6f775b56616c69646174696f6e5d2054686520616d6f756e742068617320746f206265206c6172676572207468616e20304f776e61626c653a2063616c6c6572206973206e6f7420746865206f776e6572436f6e747261637420696e7374616e63652068617320616c7265616479206265656e20696e697469616c697a65645b56616c69646174696f6e5d206d73672e76616c756520646f65736e277420636f6e7461696e20656e6f7567682045544820666f72206665655b56616c69646174696f6e5d20496e76616c69642062656e656669636961727920616464726573735b56616c69646174696f6e5d20546865206665652068617320746f206265206c6172676572207468616e20305b56616c69646174696f6e5d3a20416c6c6f7765642046656520536c6970706167652070657263656e74616765206d757374206265206265747765656e203020746f203130305b56616c69646174696f6e5d3a20455448204665652070657263656e74616765206d757374206265206265747765656e203020746f203130305361666545524332303a204552433230206f7065726174696f6e20646964206e6f7420737563636565645b56616c69646174696f6e5d3a20556e6973776170204665652070657263656e74616765206d757374206265206265747765656e203020746f203130305b56616c69646174696f6e5d205061796d656e742064657461696c73206e6f7420666f756e64a264697066735822122097ae3273861db6cf2e9dff2974a1b3dfb4de5d88762bda11d492ee911e5217d664736f6c63430006020033",
  "source": "pragma solidity 0.6.2;\n\nimport \"@openzeppelin/contracts-ethereum-package/contracts/math/SafeMath.sol\";\nimport \"@openzeppelin/contracts-ethereum-package/contracts/token/ERC20/SafeERC20.sol\";\nimport \"@openzeppelin/contracts-ethereum-package/contracts/access/Ownable.sol\";\nimport \"@openzeppelin/contracts-ethereum-package/contracts/utils/Pausable.sol\";\nimport \"@openzeppelin/contracts-ethereum-package/contracts/token/ERC20/ERC20.sol\";\nimport \"@openzeppelin/contracts-ethereum-package/contracts/math/Math.sol\";\nimport \"./IERC20Extended.sol\";\nimport \"./IPriceEstimator.sol\";\n\n/**\n* @dev This contract will hold user scheduled payments which will be released after\n* release time\n*/\ncontract SwapSmartLock is Initializable, OwnableUpgradeSafe, PausableUpgradeSafe {\n    using SafeERC20 for IERC20;\n    using SafeMath for uint256;\n    using Address for address;\n\n    enum Status { CLOSED, OPEN }\n\n    IERC20 private _swapToken;\n\n    //Wallet where fees will go\n    address payable private _feesWallet;\n\n    //Wallet where dev fund will go\n    address private _devWallet;\n\n    address constant private ETH_ADDRESS = address(\n        0xEeeeeEeeeEeEeeEeEeEeeEEEeeeeEeeeeeeeEEeE\n    );\n\n    uint256 constant private DEV_FEE_PERCENTAGE = 10;\n    uint256 constant private BURN_FEE_PERCENTAGE = 10;\n\n    struct Payment {\n        address token;// Token address\n        address sender;\n        address payable beneficiary;// Beneficary who will receive funds\n        uint256 amount;\n        uint256 releaseTime;\n        uint256 createdAt;\n        Status status;\n    }\n\n    //Global payment id. Also give total number of payments made so far\n    uint256 private _paymentId;\n\n    //list of all payment ids for a user/beneficiary\n    mapping(address => uint256[]) private _beneficiaryVsPaymentIds;\n\n    //list of all payment ids for a sender\n    mapping(address => uint256[]) private _senderVsPaymentIds;\n\n    mapping(uint256 => Payment) private _idVsPayment;\n\n    IPriceEstimator private _priceEstimator;\n\n    uint256 private _ethFeePercentage;\n    uint256 private _allowedFeeSlippagePercentage;\n    uint256 private _uniswapFeePercentage;\n\n    uint256 private _maxFeeInEth;\n\n    //list of free tokens\n    mapping(address => bool) private _listFreeTokens;\n\n    event PaymentScheduled(\n        address indexed token,\n        address indexed sender,\n        address indexed beneficiary,\n        uint256 id,\n        uint256 amount,\n        uint256 releaseTime,\n        uint256 fee,\n        bool isFeeInSwap,\n        bool calcFeeUsingTotalSupply\n    );\n\n    event PaymentReleased(\n        uint256 indexed id,\n        address indexed beneficiary,\n        address indexed token\n    );\n\n    event FeeWalletChanged(address indexed wallet);\n    event DevWalletChanged(address indexed wallet);\n    event SwapTokenUpdated(address indexed swapTokenAddress);\n\n    modifier onlyContract(address account)\n    {\n        require(account.isContract(), \"[Validation] The address does not contain a contract\");\n        _;\n    }\n\n    modifier canRelease(uint256 id) {\n        require(releasable(id), \"[Release]: Can't release payment\");\n        _;\n    }\n\n    /**\n    * @dev initialize\n    * @param swapTokenAddress Address of the swap token\n    * @param feesWallet Wallet address where fees will go\n    * @param devWallet Wallet address where dev fund will go\n    */\n    function initialize(\n        address swapTokenAddress,\n        address payable feesWallet,\n        address devWallet,\n        address priceEstimator\n    )\n    external\n    onlyContract(swapTokenAddress)\n    onlyContract(priceEstimator)\n    {\n        __SwapSmartLock_init(swapTokenAddress, feesWallet, devWallet, priceEstimator);\n    }\n\n    function __SwapSmartLock_init(\n        address swapTokenAddress,\n        address payable feesWallet,\n        address devWallet,\n        address priceEstimator\n    )\n    internal\n    initializer\n    {\n        __Context_init_unchained();\n        __Ownable_init_unchained();\n        __Pausable_init_unchained();\n        __SwapSmartLock_init_unchained(swapTokenAddress, feesWallet, devWallet, priceEstimator);\n    }\n\n    function __SwapSmartLock_init_unchained(\n        address swapTokenAddress,\n        address payable feesWallet,\n        address devWallet,\n        address priceEstimator\n    )\n    internal\n    initializer\n    {\n        require(feesWallet != address(0), \"[Validation] feesWallet is the zero address\");\n        require(devWallet != address(0), \"[Validation] devWallet is the zero address\");\n\n        _swapToken = IERC20(swapTokenAddress);\n        _feesWallet = feesWallet;\n        _devWallet = devWallet;\n        _priceEstimator = IPriceEstimator(priceEstimator);\n        _ethFeePercentage = 1;\n        _allowedFeeSlippagePercentage = 5;\n        _uniswapFeePercentage = 3;\n    }\n\n    /**\n    * @dev returns the fee receiver wallet address\n    */\n    function getFeesWallet()\n    external\n    view\n    returns(address)\n    {\n        return _feesWallet;\n    }\n\n    /**\n    * @dev returns the dev fund wallet address\n    */\n    function getDevWallet()\n    external\n    view\n    returns(address)\n    {\n        return _devWallet;\n    }\n\n    /**\n    * @dev Returns swap token address\n    */\n    function getSwapToken()\n    external\n    view\n    returns(address)\n    {\n        return address(_swapToken);\n    }\n\n    /**\n    * @dev Returns price estimator address\n    */\n    function getPriceEstimator()\n    external\n    view\n    returns(address)\n    {\n        return address(_priceEstimator);\n    }\n\n    /**\n    * @dev Returns information about payment details\n    * @param id Payment id\n    */\n    function getPaymentDetails(uint256 id) external view returns(\n        address token,\n        uint256 amount,\n        uint256 releaseTime,\n        address sender,\n        address beneficiary,\n        uint256 createdAt,\n        Status status\n    )\n    {\n        require(_idVsPayment[id].amount != 0, \"[Validation] Payment details not found\");\n\n        Payment memory payment = _idVsPayment[id];\n        token = payment.token;\n        amount = payment.amount;\n        releaseTime = payment.releaseTime;\n        sender = payment.sender;\n        beneficiary = payment.beneficiary;\n        createdAt = payment.createdAt;\n        status = payment.status;\n\n        return(\n            token,\n            amount,\n            releaseTime,\n            sender,\n            beneficiary,\n            createdAt,\n            status\n        );\n    }\n\n    /**\n    * @dev Returns all payment ids for beneficiary\n    * @param user Address of the user\n    */\n    function getBeneficiaryPaymentIds(address user)\n    external \n    view \n    returns (uint256[] memory ids)\n    {\n        return _beneficiaryVsPaymentIds[user];\n    }\n\n    /**\n    * @dev Returns all payment ids for sender\n    * @param user Address of the user\n    */\n    function getSenderPaymentIds(address user)\n    external\n    view\n    returns (uint256[] memory ids)\n    {\n        return _senderVsPaymentIds[user];\n    }\n\n    /**\n    * @dev Update swap token address\n    * @param swapTokenAddress New swap token address\n    */\n    function setSwapToken(address swapTokenAddress)\n    external\n    onlyOwner\n    onlyContract(swapTokenAddress)\n    {\n        require(\n            swapTokenAddress != address(0),\n            \"[Validation]: Invalid swap token address\"\n        );\n        _swapToken = IERC20(swapTokenAddress);\n        emit SwapTokenUpdated(swapTokenAddress);\n    }\n\n    /**\n    * @dev Allows admin to set fee receiver wallet\n    * @param wallet New wallet address\n    */\n    function setFeeWallet(address payable wallet)\n    external\n    onlyOwner\n    {\n        require(\n            wallet != address(0),\n            \"[Validation] feesWallet is the zero address\"\n        );\n        _feesWallet = wallet;\n\n        emit FeeWalletChanged(wallet);\n    }\n\n    /**\n    * @dev Allows admin to set fee receiver wallet\n    * @param wallet New wallet address\n    */\n    function setDevWallet(address payable wallet)\n    external\n    onlyOwner\n    {\n        require(\n            wallet != address(0),\n            \"[Validation] devWallet is the zero address\"\n        );\n        _devWallet = wallet;\n\n        emit DevWalletChanged(wallet);\n    }\n\n    /**\n    * @dev Update price estimator address\n    * @param priceEstimator New price estimator address\n    */\n    function setPriceEstimator(address priceEstimator)\n    external\n    onlyOwner\n    onlyContract(priceEstimator)\n    {\n        require(\n            priceEstimator != address(0),\n            \"[Validation]: Invalid price estimator address\"\n        );\n        _priceEstimator = IPriceEstimator(priceEstimator);\n    }\n\n    /**\n    * @dev Update fees\n    * @param ethFeePercentage New percentage of fee in eth\n    */\n    function setEthFeePercentage(uint8 ethFeePercentage)\n    external\n    onlyOwner\n    {\n        require(\n            ethFeePercentage >= 0 && ethFeePercentage <= 100,\n            \"[Validation]: ETH Fee percentage must be between 0 to 100\"\n        );\n        _ethFeePercentage = ethFeePercentage;\n    }\n\n    /**\n    * @dev Update fee slippage percentage allowance for erc20\n    * @param allowedFeeSlippagePercentage New allowed fee slippage percentage for fee in erc20\n    */\n    function setAllowedFeeSlippagePercentage(uint8 allowedFeeSlippagePercentage)\n    external\n    onlyOwner\n    {\n        require(\n            allowedFeeSlippagePercentage >= 0 && allowedFeeSlippagePercentage <= 100,\n            \"[Validation]: Allowed Fee Slippage percentage must be between 0 to 100\"\n        );\n        _allowedFeeSlippagePercentage = allowedFeeSlippagePercentage;\n    }\n\n    /**\n    * @dev Update Uniswap fees\n    * @param uniswapFeePercentage New percentage of uniswap fee\n    */\n    function setUniswapFeePercentage(uint8 uniswapFeePercentage)\n    external\n    onlyOwner\n    {\n        require(\n            uniswapFeePercentage >= 0 && uniswapFeePercentage <= 100,\n            \"[Validation]: Uniswap Fee percentage must be between 0 to 100\"\n        );\n        _uniswapFeePercentage = uniswapFeePercentage;\n    }\n\n    /**\n    * @dev Sets maximum fee in ETH\n    * @param ethAmountInWei Maximum fee amount in wei\n    */\n    function setMaxFeeInEth(uint256 ethAmountInWei)\n    external\n    onlyOwner\n    {\n        _maxFeeInEth = ethAmountInWei;\n    }\n\n    function getFeeInEthForEth(uint256 amount)\n    public\n    view\n    returns (uint256) \n    {\n        return Math.min(amount.mul(_ethFeePercentage).div(100), _maxFeeInEth); //1% of ETH amount\n    }\n\n    function getFeeInEthForERC20(uint256 amount, address token)\n    public \n    view\n    returns (uint256)\n    {\n        if(isFreeToken(token)) {\n            return 0;\n        } else {\n            //price should be estimated by 1 token because Uniswap algo changes price based on large amount\n            uint256 tokenBits = 10 ** uint256(IERC20Extended(token).decimals());\n            uint256 estFeesInEthPerUnit = _priceEstimator.getEstimatedETHforERC20(tokenBits, token)[0];\n            //subtract uniswap 0.30% fees\n            //_uniswapFeePercentage is a percentage expressed in 1/10 (a tenth) of a percent hence we divide by 1000\n            estFeesInEthPerUnit = estFeesInEthPerUnit.sub(estFeesInEthPerUnit.mul(_uniswapFeePercentage).div(1000));\n            uint256 equivEth = amount.mul(estFeesInEthPerUnit).div(tokenBits); //multiply by amount to be scheduled amount\n            return getFeeInEthForEth(equivEth);\n        }\n    }\n\n    function getFeeInEthForERC20UsingTotalSupply(uint256 amount, address token)\n    public\n    view\n    returns (uint256)\n    {\n        if(isFreeToken(token)) {\n            return 0;\n        } else {\n            //per 1% supply , 0.1 ETH is the fee\n            uint256 tokenTotalSupply = IERC20(token).totalSupply();\n            uint256 percentage = amount.mul(tokenTotalSupply).mul(100).div(tokenTotalSupply);\n            uint256 ethFeeInWei = 100000000000000000; //0.1 ETH\n            return Math.min(percentage.mul(ethFeeInWei).div(tokenTotalSupply), _maxFeeInEth);\n        }\n    }\n\n    function getFeeInSwapForETH(uint256 amount)\n    public\n    view\n    returns (uint256)\n    {\n        uint256 feesInEth = getFeeInEthForEth(amount);\n        return _getEquivSwapFee(feesInEth);\n    }\n\n    function getFeeInSwapForERC20(uint256 amount, address token, bool calcFeeUsingTotalSupply)\n    public\n    view\n    returns (uint256)\n    {\n        uint256 feesInEth = calcFeeUsingTotalSupply ? getFeeInEthForERC20UsingTotalSupply(amount, token) : getFeeInEthForERC20(amount, token);\n        return _getEquivSwapFee(feesInEth);\n    }\n\n    function _getEquivSwapFee(uint256 feesInEth)\n    private\n    view\n    returns (uint256)\n    {\n        uint256 feesInEthIfPaidViaSwap = feesInEth.div(2);\n        uint256 swapPerEth = _priceEstimator.getEstimatedERC20forETH(1, address(_swapToken))[0];\n        //subtract uniswap 0.30% fees\n        //_uniswapFeePercentage is a percentage expressed in 1/10 (a tenth) of a percent hence we divide by 1000\n        uint256 estSwapPerEth = swapPerEth.sub(swapPerEth.mul(_uniswapFeePercentage).div(1000));\n        return feesInEthIfPaidViaSwap.mul(estSwapPerEth);\n    }\n\n    /**\n    * @dev Allows user to schedule payment. In case of ERC-20 token the user will\n    * first have to approve the contract to spend on his/her behalf\n    * @param tokenAddress Address of the token to be paid\n    * @param amount Amount of tokens to pay\n    * @param releaseTime release time after which tokens to be released. In seconds\n    * @param beneficiary Address of the beneficiary\n    * @param isFeeInSwap Bool to check if fee to be paid in swap token or not\n    */\n    function schedulePayment(\n        address tokenAddress,\n        uint256 amount,\n        uint256 releaseTime,\n        address payable beneficiary,\n        uint256 fee,\n        bool isFeeInSwap,\n        bool calcFeeUsingTotalSupply\n    )\n    external\n    payable\n    whenNotPaused\n    {\n        _schedulePayment(\n            tokenAddress,\n            amount,\n            releaseTime,\n            beneficiary,\n            msg.value,\n            fee,\n            isFeeInSwap,\n            calcFeeUsingTotalSupply\n        );\n    }\n\n    /**\n    * @dev Helper method to schedule payment\n    */\n    function _schedulePayment(\n        address tokenAddress,\n        uint256 amount,\n        uint256 releaseTime,\n        address payable beneficiary,\n        uint256 value,\n        uint256 fee,\n        bool isFeeInSwap,\n        bool calcFeeUsingTotalSupply\n    )\n    private\n    returns(uint256)\n    {\n        require(amount > 0, \"[Validation] The amount has to be larger than 0\");\n        if(!isFreeToken(tokenAddress)) {\n            require(fee > 0, \"[Validation] The fee has to be larger than 0\");\n        }\n        require(beneficiary != address(0), \"[Validation] Invalid beneficiary address\");\n\n        uint256 remValue = value;\n\n        if(ETH_ADDRESS == tokenAddress) {\n            _scheduleETH(\n                amount,\n                fee,\n                releaseTime,\n                beneficiary,\n                value,\n                isFeeInSwap\n            );\n\n            if(isFeeInSwap) {\n                remValue = remValue.sub(amount);\n            } else {\n                remValue = remValue.sub(amount).sub(fee);\n            }\n        }\n        else {\n            _scheduleERC20(\n                tokenAddress,\n                amount,\n                fee,\n                releaseTime,\n                beneficiary,\n                value,\n                isFeeInSwap,\n                calcFeeUsingTotalSupply\n            );\n\n            if(!isFeeInSwap) {\n                remValue = remValue.sub(fee);\n            }\n        }\n\n        emit PaymentScheduled(\n            tokenAddress,\n            msg.sender,\n            beneficiary,\n            _paymentId,\n            amount,\n            releaseTime,\n            fee,\n            isFeeInSwap,\n            calcFeeUsingTotalSupply\n        );\n\n        return remValue;\n    }\n\n    /**\n    * @dev Helper method to schedule payment in ETH\n    */\n    function _scheduleETH(\n        uint256 amount,\n        uint256 fee,\n        uint256 releaseTime,\n        address payable beneficiary,\n        uint256 value,\n        bool isFeeInSwap\n    )\n    private\n    {\n        //Transferring fee to the wallet\n        if(isFeeInSwap){\n            require(value >= amount, \"[Validation] Enough ETH not sent\");\n            uint256 minRequiredFeeInSwap = getFeeInSwapForETH(amount);\n            uint256 feeDiff = 0;\n            if( fee < minRequiredFeeInSwap ) {\n                feeDiff = minRequiredFeeInSwap.sub(fee);\n                uint256 feeSlippagePercentage = feeDiff.mul(100).div(minRequiredFeeInSwap);\n                //will allow if diff is less than 5%\n                require(feeSlippagePercentage < _allowedFeeSlippagePercentage, \"[Validation] Fee (SWAP) is below minimum required fee\");\n            }\n            _distributeFees(minRequiredFeeInSwap);\n        }\n        else {\n            uint256 minRequiredFeeInEth = getFeeInEthForEth(amount);\n            require(fee >= minRequiredFeeInEth, \"[Validation] Fee (ETH) is below minimum required fee\");\n            require(value >= amount.add(minRequiredFeeInEth), \"[Validation] Enough ETH not sent\");\n            (bool success,) = _feesWallet.call.value(minRequiredFeeInEth)(\"\");\n            require(success, \"[Validation] Transfer of fee failed\");\n        }\n\n        _paymentId = _paymentId.add(1);\n\n        _idVsPayment[_paymentId] = Payment({\n            token: ETH_ADDRESS,\n            amount: amount,\n            releaseTime: releaseTime,\n            sender: msg.sender,\n            beneficiary: beneficiary,\n            createdAt: block.timestamp,\n            status: Status.OPEN\n        });\n        _beneficiaryVsPaymentIds[beneficiary].push(_paymentId);\n        _senderVsPaymentIds[msg.sender].push(_paymentId);\n    }\n\n    /**\n    * @dev Helper method to schedule payment in ERC-20 tokens\n    */\n    function _scheduleERC20(\n        address token,\n        uint256 amount,\n        uint256 fee,\n        uint256 releaseTime,\n        address payable beneficiary,\n        uint256 value,\n        bool isFeeInSwap,\n        bool calcFeeUsingTotalSupply\n    )\n    private\n    onlyContract(token)\n    {\n        if(!isFreeToken(token)) {\n            //Transfer fee to the wallet\n            if(isFeeInSwap){\n                uint256 minRequiredFeeInSwap = getFeeInSwapForERC20(amount, token, calcFeeUsingTotalSupply);\n                uint256 feeDiff = 0;\n                if( fee < minRequiredFeeInSwap ) {\n                    feeDiff = minRequiredFeeInSwap.sub(fee);\n                    uint256 feeSlippagePercentage = feeDiff.mul(100).div(minRequiredFeeInSwap);\n                    //will allow if diff is less than 5%\n                    require(feeSlippagePercentage < _allowedFeeSlippagePercentage, \"[Validation] Fee (SWAP) is below minimum required fee\");\n                }\n                _distributeFees(minRequiredFeeInSwap);\n            }\n            else {\n                uint256 minRequiredFeeInEth = calcFeeUsingTotalSupply ? getFeeInEthForERC20UsingTotalSupply(amount, token) : getFeeInEthForERC20(amount, token);\n                require(fee >= minRequiredFeeInEth, \"[Validation] Fee (ETH) is below minimum required fee\");\n                require(value >= minRequiredFeeInEth, \"[Validation] msg.value doesn't contain enough ETH for fee\");\n                (bool success,) = _feesWallet.call.value(minRequiredFeeInEth)(\"\");\n                require(success, \"[Validation] Transfer of fee failed\");\n            }\n        }\n\n        //Transfer required amount of tokens to the contract from user balance\n        IERC20(token).safeTransferFrom(msg.sender, address(this), amount);\n\n        _paymentId = _paymentId.add(1);\n\n        _idVsPayment[_paymentId] = Payment({\n            token: token,\n            amount: amount,\n            releaseTime: releaseTime,\n            sender: msg.sender,\n            beneficiary: beneficiary,\n            createdAt: block.timestamp,\n            status: Status.OPEN\n        });\n        _beneficiaryVsPaymentIds[beneficiary].push(_paymentId);\n        _senderVsPaymentIds[msg.sender].push(_paymentId);\n    }\n\n    function _distributeFees(uint256 fee)\n    private\n    {\n        uint256 devAmount = fee.mul(DEV_FEE_PERCENTAGE).div(100); //10%\n        uint256 burnAmount = fee.mul(BURN_FEE_PERCENTAGE).div(100); //10%\n        uint256 remAmount = fee.sub(devAmount).sub(burnAmount); //80%\n\n        _swapToken.safeTransferFrom(msg.sender, _feesWallet, remAmount);\n        _swapToken.safeTransferFrom(msg.sender, _devWallet, devAmount);\n        IERC20Extended(address(_swapToken)).burnFrom(msg.sender, burnAmount);\n    }\n\n    /**\n    * @dev Allows user to schedule payment. In case of ERC-20 token the user will\n    * first have to approve the contract to spend on his/her behalf\n    * @param tokenAddress Address of the token to be paid\n    * @param amounts List of amount of tokens to pay\n    * @param releaseTimes List of release times after which tokens to be released. In seconds\n    * @param beneficiaries List of addresses of the beneficiaries\n    * @param isFeeInSwap Bool to check if fee to be paid in swap token or not\n    */\n    function scheduleBulkPayment(\n        address tokenAddress,\n        uint256[] calldata amounts,\n        uint256[] calldata releaseTimes,\n        address payable[] calldata beneficiaries,\n        uint256[] calldata fees,\n        bool isFeeInSwap,\n        bool calcFeeUsingTotalSupply\n    )\n    external\n    payable\n    whenNotPaused\n    {\n        uint256 remValue = msg.value;\n        require(amounts.length == releaseTimes.length, \"SwapSmartLock: Invalid input\");\n        require(amounts.length == beneficiaries.length, \"SwapSmartLock: Invalid input\");\n        require(amounts.length == fees.length, \"SwapSmartLock: Invalid input\");\n\n        for(uint256 i = 0; i < amounts.length; i++) {\n            remValue = _schedulePayment(\n                tokenAddress,\n                amounts[i],\n                releaseTimes[i],\n                beneficiaries[i],\n                remValue,\n                fees[i],\n                isFeeInSwap,\n                calcFeeUsingTotalSupply\n            );\n        }\n    }\n\n    /**\n    * @dev Allows beneficiary of payment to release payment after release time\n    * @param id Id of the scheduled payment\n    */\n    function release(uint256 id)\n    external\n    canRelease(id)\n    {\n        Payment memory payment = _idVsPayment[id];\n        if(ETH_ADDRESS == payment.token) {\n            _releaseETH(id);\n        }\n        else {\n            _releaseERC20(id);\n        }\n\n        emit PaymentReleased(\n            id,\n            payment.beneficiary,\n            payment.token\n        );\n    }\n\n    /**\n    * @dev Returns whether given payment can be released or not\n    * @param id id of a payment\n    */\n    function releasable(uint256 id)\n    public\n    view\n    returns(bool)\n    {\n        Payment memory payment = _idVsPayment[id];\n        if( (payment.status == Status.OPEN) && (payment.releaseTime <= block.timestamp) )\n        {\n            return true;\n        }\n        return false;\n    }\n\n    /**\n    * @dev Helper method to release ETH\n    */\n    function _releaseETH(uint256 id)\n    private\n    {\n        Payment storage payment = _idVsPayment[id];\n        payment.status = Status.CLOSED;\n        (bool success,) = payment.beneficiary.call.value(payment.amount)(\"\");\n        require(success, \"[Release] Failed to transfer ETH\");\n    }\n\n    /**\n    * @dev Helper method to release ERC-20\n    */\n    function _releaseERC20(uint256 id)\n    private\n    {\n        Payment storage payment = _idVsPayment[id];\n        payment.status = Status.CLOSED;\n        IERC20(payment.token).safeTransfer(payment.beneficiary, payment.amount);\n    }\n\n    /**\n    * @dev Called by an admin to pause, triggers stopped state.\n    */\n    function pause()\n    external\n    onlyOwner \n    {\n        _pause();\n    }\n\n    /**\n    * @dev Called by an admin to unpause, returns to normal state.\n    */\n    function unpause()\n    external\n    onlyOwner\n    {\n        _unpause();\n    }\n\n    /**\n    * @dev called by admin to add given token to free tokens list\n    */\n    function addTokenToFreeList(address token)\n    external\n    onlyOwner\n    onlyContract(token)\n    {\n        _listFreeTokens[token] = true;\n    }\n\n    /**\n    * @dev called by admin to remove given token from free tokens list\n    */\n    function removeTokenFromFreeList(address token)\n    external\n    onlyOwner\n    onlyContract(token)\n    {\n        _listFreeTokens[token] = false;\n    }\n\n    /**\n     * @dev Checks if token is in free list\n     * @param token The address to check\n    */\n    function isFreeToken(address token)\n    public\n    view\n    returns(bool)\n    {\n        return _listFreeTokens[token];\n    }\n    \n}",
  "sourcePath": "/Volumes/Projects/Projects/TrustSwap/swap-contracts/contracts/SwapSmartLock.sol",
  "compiler": {
    "name": "solc",
    "version": "0.6.2+commit.bacdbe57.Emscripten.clang"
  },
  "schemaVersion": "3.3.4",
  "updatedAt": "2021-03-15T19:49:43.288Z",
  "devdoc": {
    "details": "This contract will hold user scheduled payments which will be released after release time",
    "methods": {
      "addTokenToFreeList(address)": {
        "details": "called by admin to add given token to free tokens list"
      },
      "getBeneficiaryPaymentIds(address)": {
        "details": "Returns all payment ids for beneficiary",
        "params": {
          "user": "Address of the user"
        }
      },
      "getDevWallet()": {
        "details": "returns the dev fund wallet address"
      },
      "getFeesWallet()": {
        "details": "returns the fee receiver wallet address"
      },
      "getPaymentDetails(uint256)": {
        "details": "Returns information about payment details",
        "params": {
          "id": "Payment id"
        }
      },
      "getPriceEstimator()": {
        "details": "Returns price estimator address"
      },
      "getSenderPaymentIds(address)": {
        "details": "Returns all payment ids for sender",
        "params": {
          "user": "Address of the user"
        }
      },
      "getSwapToken()": {
        "details": "Returns swap token address"
      },
      "initialize(address,address,address,address)": {
        "details": "initialize",
        "params": {
          "devWallet": "Wallet address where dev fund will go",
          "feesWallet": "Wallet address where fees will go",
          "swapTokenAddress": "Address of the swap token"
        }
      },
      "isFreeToken(address)": {
        "details": "Checks if token is in free list",
        "params": {
          "token": "The address to check"
        }
      },
      "owner()": {
        "details": "Returns the address of the current owner."
      },
      "pause()": {
        "details": "Called by an admin to pause, triggers stopped state."
      },
      "paused()": {
        "details": "Returns true if the contract is paused, and false otherwise."
      },
      "releasable(uint256)": {
        "details": "Returns whether given payment can be released or not",
        "params": {
          "id": "id of a payment"
        }
      },
      "release(uint256)": {
        "details": "Allows beneficiary of payment to release payment after release time",
        "params": {
          "id": "Id of the scheduled payment"
        }
      },
      "removeTokenFromFreeList(address)": {
        "details": "called by admin to remove given token from free tokens list"
      },
      "renounceOwnership()": {
        "details": "Leaves the contract without owner. It will not be possible to call `onlyOwner` functions anymore. Can only be called by the current owner.     * NOTE: Renouncing ownership will leave the contract without an owner, thereby removing any functionality that is only available to the owner."
      },
      "scheduleBulkPayment(address,uint256[],uint256[],address[],uint256[],bool,bool)": {
        "details": "Allows user to schedule payment. In case of ERC-20 token the user will first have to approve the contract to spend on his/her behalf",
        "params": {
          "amounts": "List of amount of tokens to pay",
          "beneficiaries": "List of addresses of the beneficiaries",
          "isFeeInSwap": "Bool to check if fee to be paid in swap token or not",
          "releaseTimes": "List of release times after which tokens to be released. In seconds",
          "tokenAddress": "Address of the token to be paid"
        }
      },
      "schedulePayment(address,uint256,uint256,address,uint256,bool,bool)": {
        "details": "Allows user to schedule payment. In case of ERC-20 token the user will first have to approve the contract to spend on his/her behalf",
        "params": {
          "amount": "Amount of tokens to pay",
          "beneficiary": "Address of the beneficiary",
          "isFeeInSwap": "Bool to check if fee to be paid in swap token or not",
          "releaseTime": "release time after which tokens to be released. In seconds",
          "tokenAddress": "Address of the token to be paid"
        }
      },
      "setAllowedFeeSlippagePercentage(uint8)": {
        "details": "Update fee slippage percentage allowance for erc20",
        "params": {
          "allowedFeeSlippagePercentage": "New allowed fee slippage percentage for fee in erc20"
        }
      },
      "setDevWallet(address)": {
        "details": "Allows admin to set fee receiver wallet",
        "params": {
          "wallet": "New wallet address"
        }
      },
      "setEthFeePercentage(uint8)": {
        "details": "Update fees",
        "params": {
          "ethFeePercentage": "New percentage of fee in eth"
        }
      },
      "setFeeWallet(address)": {
        "details": "Allows admin to set fee receiver wallet",
        "params": {
          "wallet": "New wallet address"
        }
      },
      "setMaxFeeInEth(uint256)": {
        "details": "Sets maximum fee in ETH",
        "params": {
          "ethAmountInWei": "Maximum fee amount in wei"
        }
      },
      "setPriceEstimator(address)": {
        "details": "Update price estimator address",
        "params": {
          "priceEstimator": "New price estimator address"
        }
      },
      "setSwapToken(address)": {
        "details": "Update swap token address",
        "params": {
          "swapTokenAddress": "New swap token address"
        }
      },
      "setUniswapFeePercentage(uint8)": {
        "details": "Update Uniswap fees",
        "params": {
          "uniswapFeePercentage": "New percentage of uniswap fee"
        }
      },
      "transferOwnership(address)": {
        "details": "Transfers ownership of the contract to a new account (`newOwner`). Can only be called by the current owner."
      },
      "unpause()": {
        "details": "Called by an admin to unpause, returns to normal state."
      }
    }
  },
  "userdoc": {
    "methods": {}
  }
}