{
  "contractName": "SwapStakingContract",
  "abi": [
    {
      "anonymous": false,
      "inputs": [
        {
          "indexed": false,
          "internalType": "address",
          "name": "account",
          "type": "address"
        }
      ],
      "name": "Paused",
      "type": "event"
    },
    {
      "anonymous": false,
      "inputs": [
        {
          "indexed": false,
          "internalType": "uint256",
          "name": "amount",
          "type": "uint256"
        }
      ],
      "name": "RewardsDistributed",
      "type": "event"
    },
    {
      "anonymous": false,
      "inputs": [
        {
          "indexed": true,
          "internalType": "address",
          "name": "account",
          "type": "address"
        },
        {
          "indexed": false,
          "internalType": "uint256",
          "name": "reward",
          "type": "uint256"
        }
      ],
      "name": "RewardsWithdrawn",
      "type": "event"
    },
    {
      "anonymous": false,
      "inputs": [
        {
          "indexed": true,
          "internalType": "bytes32",
          "name": "role",
          "type": "bytes32"
        },
        {
          "indexed": true,
          "internalType": "address",
          "name": "account",
          "type": "address"
        },
        {
          "indexed": true,
          "internalType": "address",
          "name": "sender",
          "type": "address"
        }
      ],
      "name": "RoleGranted",
      "type": "event"
    },
    {
      "anonymous": false,
      "inputs": [
        {
          "indexed": true,
          "internalType": "bytes32",
          "name": "role",
          "type": "bytes32"
        },
        {
          "indexed": true,
          "internalType": "address",
          "name": "account",
          "type": "address"
        },
        {
          "indexed": true,
          "internalType": "address",
          "name": "sender",
          "type": "address"
        }
      ],
      "name": "RoleRevoked",
      "type": "event"
    },
    {
      "anonymous": false,
      "inputs": [
        {
          "indexed": true,
          "internalType": "address",
          "name": "account",
          "type": "address"
        },
        {
          "indexed": false,
          "internalType": "uint256",
          "name": "amount",
          "type": "uint256"
        }
      ],
      "name": "StakeDeposited",
      "type": "event"
    },
    {
      "anonymous": false,
      "inputs": [
        {
          "indexed": false,
          "internalType": "address",
          "name": "account",
          "type": "address"
        }
      ],
      "name": "Unpaused",
      "type": "event"
    },
    {
      "anonymous": false,
      "inputs": [
        {
          "indexed": true,
          "internalType": "address",
          "name": "account",
          "type": "address"
        },
        {
          "indexed": false,
          "internalType": "uint256",
          "name": "amount",
          "type": "uint256"
        },
        {
          "indexed": false,
          "internalType": "uint256",
          "name": "reward",
          "type": "uint256"
        }
      ],
      "name": "WithdrawExecuted",
      "type": "event"
    },
    {
      "anonymous": false,
      "inputs": [
        {
          "indexed": true,
          "internalType": "address",
          "name": "account",
          "type": "address"
        },
        {
          "indexed": false,
          "internalType": "uint256",
          "name": "amount",
          "type": "uint256"
        },
        {
          "indexed": false,
          "internalType": "uint256",
          "name": "initiateDate",
          "type": "uint256"
        }
      ],
      "name": "WithdrawInitiated",
      "type": "event"
    },
    {
      "inputs": [],
      "name": "DEFAULT_ADMIN_ROLE",
      "outputs": [
        {
          "internalType": "bytes32",
          "name": "",
          "type": "bytes32"
        }
      ],
      "stateMutability": "view",
      "type": "function"
    },
    {
      "inputs": [],
      "name": "currentTotalStake",
      "outputs": [
        {
          "internalType": "uint256",
          "name": "",
          "type": "uint256"
        }
      ],
      "stateMutability": "view",
      "type": "function"
    },
    {
      "inputs": [
        {
          "internalType": "bytes32",
          "name": "role",
          "type": "bytes32"
        }
      ],
      "name": "getRoleAdmin",
      "outputs": [
        {
          "internalType": "bytes32",
          "name": "",
          "type": "bytes32"
        }
      ],
      "stateMutability": "view",
      "type": "function"
    },
    {
      "inputs": [
        {
          "internalType": "bytes32",
          "name": "role",
          "type": "bytes32"
        },
        {
          "internalType": "uint256",
          "name": "index",
          "type": "uint256"
        }
      ],
      "name": "getRoleMember",
      "outputs": [
        {
          "internalType": "address",
          "name": "",
          "type": "address"
        }
      ],
      "stateMutability": "view",
      "type": "function"
    },
    {
      "inputs": [
        {
          "internalType": "bytes32",
          "name": "role",
          "type": "bytes32"
        }
      ],
      "name": "getRoleMemberCount",
      "outputs": [
        {
          "internalType": "uint256",
          "name": "",
          "type": "uint256"
        }
      ],
      "stateMutability": "view",
      "type": "function"
    },
    {
      "inputs": [
        {
          "internalType": "bytes32",
          "name": "role",
          "type": "bytes32"
        },
        {
          "internalType": "address",
          "name": "account",
          "type": "address"
        }
      ],
      "name": "grantRole",
      "outputs": [],
      "stateMutability": "nonpayable",
      "type": "function"
    },
    {
      "inputs": [
        {
          "internalType": "bytes32",
          "name": "role",
          "type": "bytes32"
        },
        {
          "internalType": "address",
          "name": "account",
          "type": "address"
        }
      ],
      "name": "hasRole",
      "outputs": [
        {
          "internalType": "bool",
          "name": "",
          "type": "bool"
        }
      ],
      "stateMutability": "view",
      "type": "function"
    },
    {
      "inputs": [],
      "name": "maxStakingAmount",
      "outputs": [
        {
          "internalType": "uint256",
          "name": "",
          "type": "uint256"
        }
      ],
      "stateMutability": "view",
      "type": "function"
    },
    {
      "inputs": [],
      "name": "paused",
      "outputs": [
        {
          "internalType": "bool",
          "name": "",
          "type": "bool"
        }
      ],
      "stateMutability": "view",
      "type": "function"
    },
    {
      "inputs": [
        {
          "internalType": "bytes32",
          "name": "role",
          "type": "bytes32"
        },
        {
          "internalType": "address",
          "name": "account",
          "type": "address"
        }
      ],
      "name": "renounceRole",
      "outputs": [],
      "stateMutability": "nonpayable",
      "type": "function"
    },
    {
      "inputs": [
        {
          "internalType": "bytes32",
          "name": "role",
          "type": "bytes32"
        },
        {
          "internalType": "address",
          "name": "account",
          "type": "address"
        }
      ],
      "name": "revokeRole",
      "outputs": [],
      "stateMutability": "nonpayable",
      "type": "function"
    },
    {
      "inputs": [],
      "name": "rewardsAddress",
      "outputs": [
        {
          "internalType": "address",
          "name": "",
          "type": "address"
        }
      ],
      "stateMutability": "view",
      "type": "function"
    },
    {
      "inputs": [],
      "name": "rewardsDistributed",
      "outputs": [
        {
          "internalType": "uint256",
          "name": "",
          "type": "uint256"
        }
      ],
      "stateMutability": "view",
      "type": "function"
    },
    {
      "inputs": [],
      "name": "rewardsWithdrawn",
      "outputs": [
        {
          "internalType": "uint256",
          "name": "",
          "type": "uint256"
        }
      ],
      "stateMutability": "view",
      "type": "function"
    },
    {
      "inputs": [],
      "name": "token",
      "outputs": [
        {
          "internalType": "contract IERC20",
          "name": "",
          "type": "address"
        }
      ],
      "stateMutability": "view",
      "type": "function"
    },
    {
      "inputs": [],
      "name": "totalRewardsDistributed",
      "outputs": [
        {
          "internalType": "uint256",
          "name": "",
          "type": "uint256"
        }
      ],
      "stateMutability": "view",
      "type": "function"
    },
    {
      "inputs": [],
      "name": "unstakingPeriod",
      "outputs": [
        {
          "internalType": "uint256",
          "name": "",
          "type": "uint256"
        }
      ],
      "stateMutability": "view",
      "type": "function"
    },
    {
      "inputs": [
        {
          "internalType": "address",
          "name": "_token",
          "type": "address"
        },
        {
          "internalType": "address",
          "name": "_rewardsAddress",
          "type": "address"
        },
        {
          "internalType": "uint256",
          "name": "_maxStakingAmount",
          "type": "uint256"
        },
        {
          "internalType": "uint256",
          "name": "_unstakingPeriod",
          "type": "uint256"
        }
      ],
      "name": "initialize",
      "outputs": [],
      "stateMutability": "nonpayable",
      "type": "function"
    },
    {
      "inputs": [],
      "name": "pause",
      "outputs": [],
      "stateMutability": "nonpayable",
      "type": "function"
    },
    {
      "inputs": [],
      "name": "unpause",
      "outputs": [],
      "stateMutability": "nonpayable",
      "type": "function"
    },
    {
      "inputs": [
        {
          "internalType": "address",
          "name": "_rewardsAddress",
          "type": "address"
        }
      ],
      "name": "setRewardAddress",
      "outputs": [],
      "stateMutability": "nonpayable",
      "type": "function"
    },
    {
      "inputs": [
        {
          "internalType": "address",
          "name": "_token",
          "type": "address"
        }
      ],
      "name": "setTokenAddress",
      "outputs": [],
      "stateMutability": "nonpayable",
      "type": "function"
    },
    {
      "inputs": [
        {
          "internalType": "uint256",
          "name": "amount",
          "type": "uint256"
        }
      ],
      "name": "deposit",
      "outputs": [],
      "stateMutability": "nonpayable",
      "type": "function"
    },
    {
      "inputs": [
        {
          "internalType": "uint256",
          "name": "withdrawAmount",
          "type": "uint256"
        }
      ],
      "name": "initiateWithdrawal",
      "outputs": [],
      "stateMutability": "nonpayable",
      "type": "function"
    },
    {
      "inputs": [],
      "name": "executeWithdrawal",
      "outputs": [],
      "stateMutability": "nonpayable",
      "type": "function"
    },
    {
      "inputs": [],
      "name": "withdrawRewards",
      "outputs": [],
      "stateMutability": "nonpayable",
      "type": "function"
    },
    {
      "inputs": [
        {
          "internalType": "address",
          "name": "account",
          "type": "address"
        }
      ],
      "name": "getStakeDetails",
      "outputs": [
        {
          "internalType": "uint256",
          "name": "initialDeposit",
          "type": "uint256"
        },
        {
          "internalType": "uint256",
          "name": "startDate",
          "type": "uint256"
        },
        {
          "internalType": "uint256",
          "name": "endDate",
          "type": "uint256"
        },
        {
          "internalType": "uint256",
          "name": "rewards",
          "type": "uint256"
        }
      ],
      "stateMutability": "view",
      "type": "function"
    },
    {
      "inputs": [],
      "name": "distributeRewards",
      "outputs": [],
      "stateMutability": "nonpayable",
      "type": "function"
    },
    {
      "inputs": [],
      "name": "version",
      "outputs": [
        {
          "internalType": "string",
          "name": "",
          "type": "string"
        }
      ],
      "stateMutability": "pure",
      "type": "function"
    }
  ],
  "bytecode": "0x608060405234801561001057600080fd5b50613276806100206000396000f3fe608060405234801561001057600080fd5b50600436106101cf5760003560e01c80639c1454d411610104578063ce4843e9116100a2578063f21c783b11610071578063f21c783b146104c4578063f41322ac146104cc578063fa45aa0014610518578063fc0c546a14610520576101cf565b8063ce4843e91461044c578063d547741f14610454578063eb990c5914610480578063ee172546146104bc576101cf565b8063c0973eed116100de578063c0973eed14610417578063c413d1001461041f578063c7b8981c14610427578063ca15c8731461042f576101cf565b80639c1454d4146103ea578063a217fddf146103f2578063b6b55f25146103fa576101cf565b806354fd4d50116101715780636f4a2cd01161014b5780636f4a2cd01461036f5780638456cb59146103775780639010d07c1461037f57806391d14854146103be576101cf565b806354fd4d50146102b05780635c975abb1461032d5780635e00e67914610349576101cf565b80632f2ff15d116101ad5780632f2ff15d1461024857806336568abe146102745780633f4ba83a146102a05780634d5d0806146102a8576101cf565b806312edde5e146101d4578063248a9ca3146101f357806326a4e8d214610222575b600080fd5b6101f1600480360360208110156101ea57600080fd5b5035610528565b005b6102106004803603602081101561020957600080fd5b503561075d565b60408051918252519081900360200190f35b6101f16004803603602081101561023857600080fd5b50356001600160a01b0316610772565b6101f16004803603604081101561025e57600080fd5b50803590602001356001600160a01b03166108e1565b6101f16004803603604081101561028a57600080fd5b50803590602001356001600160a01b0316610948565b6101f16109a9565b610210610a1a565b6102b8610a20565b6040805160208082528351818301528351919283929083019185019080838360005b838110156102f25781810151838201526020016102da565b50505050905090810190601f16801561031f5780820380516001836020036101000a031916815260200191505b509250505060405180910390f35b610335610a3c565b604080519115158252519081900360200190f35b6101f16004803603602081101561035f57600080fd5b50356001600160a01b0316610a45565b6101f1610bad565b6101f1610cd2565b6103a26004803603604081101561039557600080fd5b5080359060200135610d41565b604080516001600160a01b039092168252519081900360200190f35b610335600480360360408110156103d457600080fd5b50803590602001356001600160a01b0316610d68565b610210610d86565b610210610d8d565b6101f16004803603602081101561041057600080fd5b5035610d92565b6103a26111c3565b6102106111d2565b6101f16111d9565b6102106004803603602081101561044557600080fd5b50356114d5565b6102106114ec565b6101f16004803603604081101561046a57600080fd5b50803590602001356001600160a01b03166114f2565b6101f16004803603608081101561049657600080fd5b506001600160a01b0381358116916020810135909116906040810135906060013561154b565b6102106115ac565b6102106115b3565b6104f2600480360360208110156104e257600080fd5b50356001600160a01b03166115b9565b604080519485526020850193909352838301919091526060830152519081900360800190f35b6101f16116c8565b6103a2611bb7565b60c95460ff1661056d576040805162461bcd60e51b815260206004820152601f6024820152600080516020612a92833981519152604482015290519081900360640190fd5b60c9805460ff1916905560975460ff16156105c2576040805162461bcd60e51b815260206004820152601060248201526f14185d5cd8589b194e881c185d5cd95960821b604482015290519081900360640190fd5b3360009081526101046020526040902080548211156106125760405162461bcd60e51b815260040180806020018281038252603d815260200180613004603d913960400191505060405180910390fd5b600581015460ff1680156106265750805415155b6106615760405162461bcd60e51b81526004018080602001828103825260408152602001806131d26040913960400191505060405180910390fd5b6002810154156106a25760405162461bcd60e51b815260040180806020018281038252603f815260200180612be7603f913960400191505060405180910390fd5b61010654156106e25760405162461bcd60e51b815260040180806020018281038252603f815260200180612be7603f913960400191505060405180910390fd5b42600282018190556101005460048301556101068390556101055560fe54610710908363ffffffff611bc616565b60fe5560408051838152426020820152815133927ff908b12fe0d8dc1ff4fda115e5bace3a7ad1aad889daca8e638ca0b29f806577928290030190a2505060c9805460ff19166001179055565b60009081526065602052604090206002015490565b80610785816001600160a01b0316611c08565b6107c05760405162461bcd60e51b8152600401808060200182810382526034815260200180612cce6034913960400191505060405180910390fd5b60975460ff1661080e576040805162461bcd60e51b815260206004820152601460248201527314185d5cd8589b194e881b9bdd081c185d5cd95960621b604482015290519081900360640190fd5b60408051694f574e45525f524f4c4560b01b8152905190819003600a01902061083e90610839611c44565b610d68565b6108795760405162461bcd60e51b8152600401808060200182810382526041815260200180612d8e6041913960600191505060405180910390fd5b6001600160a01b0382166108be5760405162461bcd60e51b8152600401808060200182810382526027815260200180612eb76027913960400191505060405180910390fd5b5060fb80546001600160a01b0319166001600160a01b0392909216919091179055565b6000828152606560205260409020600201546108ff90610839611c44565b61093a5760405162461bcd60e51b815260040180806020018281038252602f815260200180612a63602f913960400191505060405180910390fd5b6109448282611c48565b5050565b610950611c44565b6001600160a01b0316816001600160a01b03161461099f5760405162461bcd60e51b815260040180806020018281038252602f815260200180613212602f913960400191505060405180910390fd5b6109448282611cb7565b604080516a5041555345525f524f4c4560a81b8152905190819003600b0190206109d590610839611c44565b610a105760405162461bcd60e51b8152600401808060200182810382526035815260200180612c266035913960400191505060405180910390fd5b610a18611d26565b565b60fd5481565b6040805180820190915260028152613b1960f11b602082015290565b60975460ff1690565b60975460ff16610a93576040805162461bcd60e51b815260206004820152601460248201527314185d5cd8589b194e881b9bdd081c185d5cd95960621b604482015290519081900360640190fd5b60408051694f574e45525f524f4c4560b01b8152905190819003600a019020610abe90610839611c44565b610af95760405162461bcd60e51b8152600401808060200182810382526043815260200180612c8b6043913960600191505060405180910390fd5b6001600160a01b038116610b3e5760405162461bcd60e51b8152600401808060200182810382526030815260200180612b496030913960400191505060405180910390fd5b60fc546001600160a01b0382811691161415610b8b5760405162461bcd60e51b815260040180806020018281038252603c815260200180612b0d603c913960400191505060405180910390fd5b60fc80546001600160a01b0319166001600160a01b0392909216919091179055565b60c95460ff16610bf2576040805162461bcd60e51b815260206004820152601f6024820152600080516020612a92833981519152604482015290519081900360640190fd5b60c9805460ff1916905560975460ff1615610c47576040805162461bcd60e51b815260206004820152601060248201526f14185d5cd8589b194e881c185d5cd95960821b604482015290519081900360640190fd5b6040805177524557415244535f4449535452494255544f525f524f4c4560401b81529051908190036018019020610c8090610839611c44565b610cbb5760405162461bcd60e51b815260040180806020018281038252603a81526020018061307f603a913960400191505060405180910390fd5b610cc3611dc4565b60c9805460ff19166001179055565b604080516a5041555345525f524f4c4560a81b8152905190819003600b019020610cfe90610839611c44565b610d395760405162461bcd60e51b81526004018080602001828103825260338152602001806130ec6033913960400191505060405180910390fd5b610a18612055565b6000828152606560205260408120610d5f908363ffffffff6120d616565b90505b92915050565b6000828152606560205260408120610d5f908363ffffffff6120e216565b6101015481565b600081565b60c95460ff16610dd7576040805162461bcd60e51b815260206004820152601f6024820152600080516020612a92833981519152604482015290519081900360640190fd5b60c9805460ff1916905560975460ff1615610e2c576040805162461bcd60e51b815260206004820152601060248201526f14185d5cd8589b194e881c185d5cd95960821b604482015290519081900360640190fd5b33600090815261010460205260409020600281015415610e7d5760405162461bcd60e51b81526004018080602001828103825260338152602001806130b96033913960400191505060405180910390fd5b80546040805160c081018252828152600184015460208201526002840154918101919091526003830154606082015260048301546080820152600583015460ff16151560a0820152600090610ed1906120f7565b90506000610ef582610ee9858863ffffffff61216716565b9063ffffffff61216716565b9050828111610f355760405162461bcd60e51b8152600401808060200182810382526036815260200180612bb16036913960400191505060405180910390fd5b6000610f59610f4a838663ffffffff611bc616565b60fe549063ffffffff61216716565b905060fd54811115610f9c5760405162461bcd60e51b815260040180806020018281038252603d815260200180612e44603d913960400191505060405180910390fd5b8185554260018087019190915560058601805460ff1916909117905561010054600386015560fe81905560fb54604080516323b872dd60e01b81523360048201523060248201526044810189905290516001600160a01b03909216916323b872dd916064808201926020929091908290030181600087803b15801561102057600080fd5b505af1158015611034573d6000803e3d6000fd5b505050506040513d602081101561104a57600080fd5b50516110875760405162461bcd60e51b8152600401808060200182810382526038815260200180612fcc6038913960400191505060405180910390fd5b821561116b57610102546110a1908463ffffffff61216716565b6101025560fb5460fc54604080516323b872dd60e01b81526001600160a01b03928316600482015230602482015260448101879052905191909216916323b872dd9160648083019260209291908290030181600087803b15801561110457600080fd5b505af1158015611118573d6000803e3d6000fd5b505050506040513d602081101561112e57600080fd5b505161116b5760405162461bcd60e51b8152600401808060200182810382526038815260200180612b796038913960400191505060405180910390fd5b337f0a7bb2e28cc4698aac06db79cf9163bfcc20719286cf59fa7d492ceda1b8edc261119d888663ffffffff61216716565b60408051918252519081900360200190a2505060c9805460ff1916600117905550505050565b60fc546001600160a01b031681565b6101025481565b60c95460ff1661121e576040805162461bcd60e51b815260206004820152601f6024820152600080516020612a92833981519152604482015290519081900360640190fd5b60c9805460ff1916905560975460ff1615611273576040805162461bcd60e51b815260206004820152601060248201526f14185d5cd8589b194e881c185d5cd95960821b604482015290519081900360640190fd5b33600090815261010460205260409020600581015460ff1680156112975750805415155b6112d25760405162461bcd60e51b815260040180806020018281038252603f81526020018061311f603f913960400191505060405180910390fd5b6002810154156113135760405162461bcd60e51b815260040180806020018281038252603e815260200180613041603e913960400191505060405180910390fd5b6040805160c08101825282548152600183015460208201526002830154918101919091526003820154606082015260048201546080820152600582015460ff16151560a0820152600090611366906120f7565b9050600081116113a75760405162461bcd60e51b815260040180806020018281038252603e815260200180613194603e913960400191505060405180910390fd5b610100546003830155610102546113c4908263ffffffff61216716565b6101025560fb5460fc54604080516323b872dd60e01b81526001600160a01b03928316600482015233602482015260448101859052905191909216916323b872dd9160648083019260209291908290030181600087803b15801561142757600080fd5b505af115801561143b573d6000803e3d6000fd5b505050506040513d602081101561145157600080fd5b505161148e5760405162461bcd60e51b8152600401808060200182810382526048815260200180612f846048913960600191505060405180910390fd5b60408051828152905133917f8a43c4352486ec339f487f64af78ca5cbf06cd47833f073d3baf3a193e503161919081900360200190a2505060c9805460ff19166001179055565b6000818152606560205260408120610d62906121c1565b60fe5481565b60008281526065602052604090206002015461151090610839611c44565b61099f5760405162461bcd60e51b8152600401808060200182810382526030815260200180612c5b6030913960400191505060405180910390fd5b8361155e816001600160a01b0316611c08565b6115995760405162461bcd60e51b8152600401808060200182810382526034815260200180612cce6034913960400191505060405180910390fd5b6115a5858585856121cc565b5050505050565b6101035481565b60ff5481565b6001600160a01b0381166000908152610104602052604081206005015481908190819060ff16801561160357506001600160a01b0385166000908152610104602052604090205415155b61163e5760405162461bcd60e51b815260040180806020018281038252603681526020018061315e6036913960400191505060405180910390fd5b6116466129dc565b506001600160a01b03851660009081526101046020908152604091829020825160c081018452815480825260018301549382018490526002830154948201859052600383015460608301526004830154608083015260059092015460ff16151560a0820152929091906116b8846120f7565b9450945094509450509193509193565b60c95460ff1661170d576040805162461bcd60e51b815260206004820152601f6024820152600080516020612a92833981519152604482015290519081900360640190fd5b60c9805460ff1916905560975460ff1615611762576040805162461bcd60e51b815260206004820152601060248201526f14185d5cd8589b194e881c185d5cd95960821b604482015290519081900360640190fd5b61176a6129dc565b503360009081526101046020908152604091829020825160c08101845281548152600182015492810192909252600281015492820192909252600382015460608201526004820154608082015260059091015460ff16151560a0820152610106546118065760405162461bcd60e51b815260040180806020018281038252602d815260200180612d23602d913960400191505060405180910390fd5b8060a0015180156118175750805115155b6118525760405162461bcd60e51b8152600401808060200182810382526035815260200180612ad86035913960400191505060405180910390fd5b60408101516118925760405162461bcd60e51b8152600401808060200182810382526026815260200180612ab26026913960400191505060405180910390fd5b600060b482604001514203816118a457fe5b04905060018110156118e75760405162461bcd60e51b815260040180806020018281038252602c815260200180612a37602c913960400191505060405180910390fd5b6101065460006118f6846120f7565b9050818460000151101561193b5760405162461bcd60e51b815260040180806020018281038252604c815260200180612f38604c913960600191505060405180910390fd5b8351821015611983573360009081526101046020526040902054611965908363ffffffff611bc616565b336000908152610104602052604081209182556002909101556119bf565b336000908152610104602052604081208181556001810182905560028101829055600381018290556004810191909155600501805460ff191690555b60fb546040805163a9059cbb60e01b81523360048201526024810185905290516001600160a01b039092169163a9059cbb916044808201926020929091908290030181600087803b158015611a1357600080fd5b505af1158015611a27573d6000803e3d6000fd5b505050506040513d6020811015611a3d57600080fd5b5051611a7a5760405162461bcd60e51b8152600401808060200182810382526047815260200180612dfd6047913960600191505060405180910390fd5b8015611b5e5761010254611a94908263ffffffff61216716565b6101025560fb5460fc54604080516323b872dd60e01b81526001600160a01b03928316600482015233602482015260448101859052905191909216916323b872dd9160648083019260209291908290030181600087803b158015611af757600080fd5b505af1158015611b0b573d6000803e3d6000fd5b505050506040513d6020811015611b2157600080fd5b5051611b5e5760405162461bcd60e51b815260040180806020018281038252603e815260200180612d50603e913960400191505060405180910390fd5b6000610106819055610105556040805183815260208101839052815133927ff6c0fc94edc8fd2a37514f1fb85af88fca386b00a54127b912273e6b83322e08928290030190a2505060c9805460ff191660011790555050565b60fb546001600160a01b031681565b6000610d5f83836040518060400160405280601e81526020017f536166654d6174683a207375627472616374696f6e206f766572666c6f77000081525061235b565b6000813f7fc5d2460186f7233c927e7db2dcc703c0e500b653ca82273b7bfad8045d85a470818114801590611c3c57508115155b949350505050565b3390565b6000828152606560205260409020611c66908263ffffffff6123f216565b1561094457611c73611c44565b6001600160a01b0316816001600160a01b0316837f2f8788117e7eff1d82e926ec794901d17c78024a50270940304540a733656f0d60405160405180910390a45050565b6000828152606560205260409020611cd5908263ffffffff61240716565b1561094457611ce2611c44565b6001600160a01b0316816001600160a01b0316837ff6391f5c32d9c69d2a47ea670b442974b53935d1edc7fd64eb21e047a839171b60405160405180910390a45050565b60975460ff16611d74576040805162461bcd60e51b815260206004820152601460248201527314185d5cd8589b194e881b9bdd081c185d5cd95960621b604482015290519081900360640190fd5b6097805460ff191690557f5db9ee0a495bf2e6ff9c91a7834c1ba4fdd244a5e8aa4e537bd38aeae4b073aa611da7611c44565b604080516001600160a01b039092168252519081900360200190a1565b60975460ff1615611e0f576040805162461bcd60e51b815260206004820152601060248201526f14185d5cd8589b194e881c185d5cd95960821b604482015290519081900360640190fd5b6040805177524557415244535f4449535452494255544f525f524f4c4560401b81529051908190036018019020611e4890610839611c44565b611e835760405162461bcd60e51b815260040180806020018281038252603a81526020018061307f603a913960400191505060405180910390fd5b600060fe5411611ec45760405162461bcd60e51b815260040180806020018281038252602f815260200180612f09602f913960400191505060405180910390fd5b60fb5460fc54604080516370a0823160e01b81526001600160a01b039283166004820152905160009392909216916370a0823191602480820192602092909190829003018186803b158015611f1857600080fd5b505afa158015611f2c573d6000803e3d6000fd5b505050506040513d6020811015611f4257600080fd5b5051905080611f825760405162461bcd60e51b815260040180806020018281038252602b815260200180612ede602b913960400191505060405180910390fd5b6000611fad61010154611fa1610102548561216790919063ffffffff16565b9063ffffffff611bc616565b90506000611fde60fe54611fd2670de0b6b3a76400008561241c90919063ffffffff16565b9063ffffffff61247516565b61010054909150611ff5908263ffffffff61216716565b6101005561010183905560006101025561010354612019908363ffffffff61216716565b610103556040805183815290517f6d1c76d614228b523baa4dcd9539e2c713b54ff4ab3ff2d1627e7f6cd32be4429181900360200190a1505050565b60975460ff16156120a0576040805162461bcd60e51b815260206004820152601060248201526f14185d5cd8589b194e881c185d5cd95960821b604482015290519081900360640190fd5b6097805460ff191660011790557f62e78cea01bee320cd4e420270b5ea74000d11b0c9f74754ebdbfc544b05a258611da7611c44565b6000610d5f83836124b7565b6000610d5f836001600160a01b03841661251b565b604081015160009081906121245760608301516101005461211d9163ffffffff611bc616565b9050612140565b6060830151608084015161213d9163ffffffff611bc616565b90505b825161216090670de0b6b3a764000090611fd2908463ffffffff61241c16565b9392505050565b600082820183811015610d5f576040805162461bcd60e51b815260206004820152601b60248201527f536166654d6174683a206164646974696f6e206f766572666c6f770000000000604482015290519081900360640190fd5b6000610d6282612533565b600054610100900460ff16806121e557506121e5612537565b806121f3575060005460ff16155b61222e5760405162461bcd60e51b815260040180806020018281038252602e815260200180612dcf602e913960400191505060405180910390fd5b600054610100900460ff16158015612259576000805460ff1961ff0019909116610100171660011790555b6001600160a01b03851661229e5760405162461bcd60e51b8152600401808060200182810382526027815260200180612eb76027913960400191505060405180910390fd5b600083116122dd5760405162461bcd60e51b8152600401808060200182810382526036815260200180612e816036913960400191505060405180910390fd5b6122e561253d565b6122ed61253d565b6122f56125df565b6122fd61268a565b612305612738565b61230d610cd2565b61231684610a45565b61231e6109a9565b60fb80546001600160a01b0319166001600160a01b03871617905560fd83905560ff82905580156115a5576000805461ff00191690555050505050565b600081848411156123ea5760405162461bcd60e51b81526004018080602001828103825283818151815260200191508051906020019080838360005b838110156123af578181015183820152602001612397565b50505050905090810190601f1680156123dc5780820380516001836020036101000a031916815260200191505b509250505060405180910390fd5b505050900390565b6000610d5f836001600160a01b038416612867565b6000610d5f836001600160a01b0384166128b1565b60008261242b57506000610d62565b8282028284828161243857fe5b0414610d5f5760405162461bcd60e51b8152600401808060200182810382526021815260200180612d026021913960400191505060405180910390fd5b6000610d5f83836040518060400160405280601a81526020017f536166654d6174683a206469766973696f6e206279207a65726f000000000000815250612977565b815460009082106124f95760405162461bcd60e51b8152600401808060200182810382526022815260200180612a156022913960400191505060405180910390fd5b82600001828154811061250857fe5b9060005260206000200154905092915050565b60009081526001919091016020526040902054151590565b5490565b303b1590565b600054610100900460ff16806125565750612556612537565b80612564575060005460ff16155b61259f5760405162461bcd60e51b815260040180806020018281038252602e815260200180612dcf602e913960400191505060405180910390fd5b600054610100900460ff161580156125ca576000805460ff1961ff0019909116610100171660011790555b80156125dc576000805461ff00191690555b50565b600054610100900460ff16806125f857506125f8612537565b80612606575060005460ff16155b6126415760405162461bcd60e51b815260040180806020018281038252602e815260200180612dcf602e913960400191505060405180910390fd5b600054610100900460ff1615801561266c576000805460ff1961ff0019909116610100171660011790555b6097805460ff1916905580156125dc576000805461ff001916905550565b600054610100900460ff16806126a357506126a3612537565b806126b1575060005460ff16155b6126ec5760405162461bcd60e51b815260040180806020018281038252602e815260200180612dcf602e913960400191505060405180910390fd5b600054610100900460ff16158015612717576000805460ff1961ff0019909116610100171660011790555b60c9805460ff1916600117905580156125dc576000805461ff001916905550565b600054610100900460ff16806127515750612751612537565b8061275f575060005460ff16155b61279a5760405162461bcd60e51b815260040180806020018281038252602e815260200180612dcf602e913960400191505060405180910390fd5b600054610100900460ff161580156127c5576000805460ff1961ff0019909116610100171660011790555b6127d760006127d2611c44565b61093a565b604080516a5041555345525f524f4c4560a81b8152905190819003600b019020612803906127d2611c44565b60408051694f574e45525f524f4c4560b01b8152905190819003600a01902061282e906127d2611c44565b6040805177524557415244535f4449535452494255544f525f524f4c4560401b815290519081900360180190206125ca906127d2611c44565b6000612873838361251b565b6128a957508154600181810184556000848152602080822090930184905584548482528286019093526040902091909155610d62565b506000610d62565b6000818152600183016020526040812054801561296d57835460001980830191908101906000908790839081106128e457fe5b906000526020600020015490508087600001848154811061290157fe5b60009182526020808320909101929092558281526001898101909252604090209084019055865487908061293157fe5b60019003818190600052602060002001600090559055866001016000878152602001908152602001600020600090556001945050505050610d62565b6000915050610d62565b600081836129c65760405162461bcd60e51b81526020600482018181528351602484015283519092839260449091019190850190808383600083156123af578181015183820152602001612397565b5060008385816129d257fe5b0495945050505050565b6040518060c001604052806000815260200160008152602001600081526020016000815260200160008152602001600015158152509056fe456e756d657261626c655365743a20696e646578206f7574206f6620626f756e64735b57697468647261775d2054686520756e7374616b696e6720706572696f6420646964206e6f742070617373416363657373436f6e74726f6c3a2073656e646572206d75737420626520616e2061646d696e20746f206772616e745265656e7472616e637947756172643a207265656e7472616e742063616c6c005b57697468647261775d205769746864726177206973206e6f7420696e697469616c697a65645b57697468647261775d205468657265206973206e6f207374616b65206465706f73697420666f722074686973206163636f756e745b56616c69646174696f6e5d205f726577617264734164647265737320697320616c72656164792073657420746f20676976656e20616464726573735b56616c69646174696f6e5d205f726577617264734164647265737320697320746865207a65726f20616464726573735b4465706f7369745d20536f6d657468696e672077656e742077726f6e67207768696c65207472616e7366657272696e67207265776172645b56616c69646174696f6e5d20546865207374616b65206465706f7369742068617320746f206265206c6172676572207468616e20305b496e697469617465205769746864726177616c5d20596f75206861766520616c726561647920696e6974696174656420746865207769746864726177616c537761705374616b696e67436f6e74726163743a206d75737420686176652070617573657220726f6c6520746f20756e7061757365416363657373436f6e74726f6c3a2073656e646572206d75737420626520616e2061646d696e20746f207265766f6b655b56616c69646174696f6e5d205468652063616c6c6572206d7573742068617665206f776e657220726f6c6520746f20736574207265776172647320616464726573735b56616c69646174696f6e5d20546865206164647265737320646f6573206e6f7420636f6e7461696e206120636f6e7472616374536166654d6174683a206d756c7469706c69636174696f6e206f766572666c6f775b57697468647261775d20576974686472617720616d6f756e74206973206e6f7420696e697469616c697a65645b57697468647261775d20536f6d657468696e672077656e742077726f6e67207768696c65207472616e7366657272696e6720796f7572207265776172645b56616c69646174696f6e5d205468652063616c6c6572206d7573742068617665206f776e657220726f6c6520746f2073657420746f6b656e2061646472657373436f6e747261637420696e7374616e63652068617320616c7265616479206265656e20696e697469616c697a65645b57697468647261775d20536f6d657468696e672077656e742077726f6e67207768696c65207472616e7366657272696e6720796f757220696e697469616c206465706f7369745b4465706f7369745d20596f7572206465706f73697420776f756c6420657863656564207468652063757272656e74207374616b696e67206c696d69745b56616c69646174696f6e5d205f6d61785374616b696e67416d6f756e742068617320746f206265206c6172676572207468616e20305b56616c69646174696f6e5d20496e76616c6964207377617020746f6b656e20616464726573735b56616c69646174696f6e5d206e6f7420656e6f756768207265776172647320616363756d756c617465645b56616c69646174696f6e5d206e6f7420656e6f75676820746f74616c207374616b6520616363756d756c617465645b77697468647261775d2052656d61696e696e67207374616b656465706f73697420616d6f756e74206d75737420626520686967686572207468616e20776974686472617720616d6f756e745b52657761726473205769746864726177616c5d20536f6d657468696e672077656e742077726f6e67207768696c65207472616e7366657272696e6720796f7572207265776172645b4465706f7369745d20536f6d657468696e672077656e742077726f6e6720647572696e672074686520746f6b656e207472616e736665725b496e697469617465205769746864726177616c5d20576974686472617720616d6f756e742065786365656420746865207374616b6520616d6f756e745b52657761726473205769746864726177616c5d20596f7520616c726561647920696e69746961746564207468652066756c6c207769746864726177616c5b56616c69646174696f6e5d205468652063616c6c6572206d75737420686176652072657761726473206469737472696275746f7220726f6c655b4465706f7369745d20596f75206861766520616c726561647920696e6974696174656420746865207769746864726177616c537761705374616b696e67436f6e74726163743a206d75737420686176652070617573657220726f6c6520746f2070617573655b52657761726473205769746864726177616c5d205468657265206973206e6f207374616b65206465706f73697420666f722074686973206163636f756e745b56616c69646174696f6e5d2054686973206163636f756e7420646f65736e277420686176652061207374616b65206465706f7369745b52657761726473205769746864726177616c5d205468652072657761726420616d6f756e742068617320746f206265206c6172676572207468616e20305b496e697469617465205769746864726177616c5d205468657265206973206e6f207374616b65206465706f73697420666f722074686973206163636f756e74416363657373436f6e74726f6c3a2063616e206f6e6c792072656e6f756e636520726f6c657320666f722073656c66a264697066735822122070a99cff9d3c174a08ca9c4b8aa420d60938cd681199605adcf8e1d3193e712764736f6c63430006020033",
  "source": "pragma solidity 0.6.2;\n\nimport \"@openzeppelin/contracts-ethereum-package/contracts/math/SafeMath.sol\";\nimport \"@openzeppelin/contracts-ethereum-package/contracts/math/Math.sol\";\nimport \"@openzeppelin/contracts-ethereum-package/contracts/utils/Address.sol\";\nimport \"@openzeppelin/contracts-ethereum-package/contracts/utils/Arrays.sol\";\nimport \"@openzeppelin/contracts-ethereum-package/contracts/utils/ReentrancyGuard.sol\";\nimport \"@openzeppelin/contracts-ethereum-package/contracts/utils/Pausable.sol\";\nimport \"@openzeppelin/contracts-ethereum-package/contracts/token/ERC20/IERC20.sol\";\nimport \"@openzeppelin/contracts-ethereum-package/contracts/access/AccessControl.sol\";\n\ncontract SwapStakingContract is Initializable, ContextUpgradeSafe, AccessControlUpgradeSafe, PausableUpgradeSafe, ReentrancyGuardUpgradeSafe {\n\n    using SafeMath for uint256;\n    using Math for uint256;\n    using Address for address;\n    using Arrays for uint256[];\n\n    bytes32 private constant PAUSER_ROLE = keccak256(\"PAUSER_ROLE\");\n    bytes32 private constant OWNER_ROLE = keccak256(\"OWNER_ROLE\");\n    bytes32 private constant REWARDS_DISTRIBUTOR_ROLE = keccak256(\"REWARDS_DISTRIBUTOR_ROLE\");\n\n    // EVENTS\n    event StakeDeposited(address indexed account, uint256 amount);\n    event WithdrawInitiated(address indexed account, uint256 amount, uint256 initiateDate);\n    event WithdrawExecuted(address indexed account, uint256 amount, uint256 reward);\n    event RewardsWithdrawn(address indexed account, uint256 reward);\n    event RewardsDistributed(uint256 amount);\n\n    // STRUCT DECLARATIONS\n    struct StakeDeposit {\n        uint256 amount;\n        uint256 startDate;\n        uint256 endDate;\n        uint256 entryRewardPoints;\n        uint256 exitRewardPoints;\n        bool exists;\n    }\n\n    // STRUCT WITHDRAWAL\n    struct WithdrawalState {\n        uint256 initiateDate;\n        uint256 amount;\n    }\n\n    // CONTRACT STATE VARIABLES\n    IERC20 public token;\n    address public rewardsAddress;\n    uint256 public maxStakingAmount;\n    uint256 public currentTotalStake;\n    uint256 public unstakingPeriod;\n\n    //reward calculations\n    uint256 private totalRewardPoints;\n    uint256 public rewardsDistributed;\n    uint256 public rewardsWithdrawn;\n    uint256 public totalRewardsDistributed;\n\n    mapping(address => StakeDeposit) private _stakeDeposits;\n    \n    WithdrawalState withdrawState;\n\n    // MODIFIERS\n    modifier guardMaxStakingLimit(uint256 amount)\n    {\n        uint256 resultedStakedAmount = currentTotalStake.add(amount);\n        require(resultedStakedAmount <= maxStakingAmount, \"[Deposit] Your deposit would exceed the current staking limit\");\n        _;\n    }\n\n    modifier onlyContract(address account)\n    {\n        require(account.isContract(), \"[Validation] The address does not contain a contract\");\n        _;\n    }\n\n    // PUBLIC FUNCTIONS\n    function initialize(address _token, address _rewardsAddress, uint256 _maxStakingAmount, uint256 _unstakingPeriod)\n    public\n    onlyContract(_token)\n    {\n        __SwapStakingContract_init(_token, _rewardsAddress, _maxStakingAmount, _unstakingPeriod);\n    }\n\n    function __SwapStakingContract_init(address _token, address _rewardsAddress, uint256 _maxStakingAmount, uint256 _unstakingPeriod)\n    internal\n    initializer\n    {\n        require(\n            _token != address(0),\n            \"[Validation] Invalid swap token address\"\n        );\n        require(_maxStakingAmount > 0, \"[Validation] _maxStakingAmount has to be larger than 0\");\n        __Context_init_unchained();\n        __AccessControl_init_unchained();\n        __Pausable_init_unchained();\n        __ReentrancyGuard_init_unchained();\n        __SwapStakingContract_init_unchained();\n\n        pause();\n        setRewardAddress(_rewardsAddress);\n        unpause();\n\n        token = IERC20(_token);\n        maxStakingAmount = _maxStakingAmount;\n        unstakingPeriod = _unstakingPeriod;\n    }\n\n    function __SwapStakingContract_init_unchained()\n    internal\n    initializer\n    {\n        _setupRole(DEFAULT_ADMIN_ROLE, _msgSender());\n        _setupRole(PAUSER_ROLE, _msgSender());\n        _setupRole(OWNER_ROLE, _msgSender());\n        _setupRole(REWARDS_DISTRIBUTOR_ROLE, _msgSender());\n    }\n\n    function pause()\n    public\n    {\n        require(hasRole(PAUSER_ROLE, _msgSender()), \"SwapStakingContract: must have pauser role to pause\");\n        _pause();\n    }\n\n    function unpause()\n    public\n    {\n        require(hasRole(PAUSER_ROLE, _msgSender()), \"SwapStakingContract: must have pauser role to unpause\");\n        _unpause();\n    }\n\n    function setRewardAddress(address _rewardsAddress)\n    public\n    whenPaused\n    {\n        require(hasRole(OWNER_ROLE, _msgSender()), \"[Validation] The caller must have owner role to set rewards address\");\n        require(_rewardsAddress != address(0), \"[Validation] _rewardsAddress is the zero address\");\n        require(_rewardsAddress != rewardsAddress, \"[Validation] _rewardsAddress is already set to given address\");\n        rewardsAddress = _rewardsAddress;\n    }\n\n    function setTokenAddress(address _token)\n    external\n    onlyContract(_token)\n    whenPaused\n    {\n        require(hasRole(OWNER_ROLE, _msgSender()), \"[Validation] The caller must have owner role to set token address\");\n        require(\n            _token != address(0),\n            \"[Validation] Invalid swap token address\"\n        );\n        token = IERC20(_token);\n    }\n\n    function deposit(uint256 amount)\n    external\n    nonReentrant\n    whenNotPaused\n    {\n        StakeDeposit storage stakeDeposit = _stakeDeposits[msg.sender];\n        require(stakeDeposit.endDate == 0, \"[Deposit] You have already initiated the withdrawal\");\n\n        uint256 oldPrincipal = stakeDeposit.amount;\n        uint256 reward = _computeReward(stakeDeposit);\n        uint256 newPrincipal = oldPrincipal.add(amount).add(reward);\n        require(newPrincipal > oldPrincipal, \"[Validation] The stake deposit has to be larger than 0\");\n\n        uint256 resultedStakedAmount = currentTotalStake.add(newPrincipal.sub(oldPrincipal));\n        require(resultedStakedAmount <= maxStakingAmount, \"[Deposit] Your deposit would exceed the current staking limit\");\n\n        stakeDeposit.amount = newPrincipal;\n        stakeDeposit.startDate = block.timestamp;\n        stakeDeposit.exists = true;\n        stakeDeposit.entryRewardPoints = totalRewardPoints;\n\n        currentTotalStake = resultedStakedAmount;\n\n        // Transfer the Tokens to this contract\n        require(token.transferFrom(msg.sender, address(this), amount), \"[Deposit] Something went wrong during the token transfer\");\n        \n        if( reward > 0 ) {\n            //calculate withdrawed rewards in single distribution cycle\n            rewardsWithdrawn = rewardsWithdrawn.add(reward);\n            require(token.transferFrom(rewardsAddress, address(this), reward), \"[Deposit] Something went wrong while transferring reward\");\n        }\n        \n        emit StakeDeposited(msg.sender, amount.add(reward));\n    }\n\n    function initiateWithdrawal(uint256 withdrawAmount)\n    external\n    nonReentrant\n    whenNotPaused\n    {\n        StakeDeposit storage stakeDeposit = _stakeDeposits[msg.sender];\n        require(withdrawAmount <= stakeDeposit.amount, \"[Initiate Withdrawal] Withdraw amount exceed the stake amount\");\n        require(stakeDeposit.exists && stakeDeposit.amount != 0, \"[Initiate Withdrawal] There is no stake deposit for this account\");\n        require(stakeDeposit.endDate == 0, \"[Initiate Withdrawal] You have already initiated the withdrawal\");\n        require(withdrawState.amount == 0, \"[Initiate Withdrawal] You have already initiated the withdrawal\");\n\n        stakeDeposit.endDate = block.timestamp;\n        stakeDeposit.exitRewardPoints = totalRewardPoints;\n        withdrawState.amount = withdrawAmount;\n        withdrawState.initiateDate = block.timestamp;\n\n        currentTotalStake = currentTotalStake.sub(withdrawAmount);\n\n        emit WithdrawInitiated(msg.sender, withdrawAmount, block.timestamp);\n    }\n\n    function executeWithdrawal()\n    external\n    nonReentrant\n    whenNotPaused\n    {\n        StakeDeposit memory stakeDeposit = _stakeDeposits[msg.sender];\n        require(withdrawState.amount != 0, \"[Withdraw] Withdraw amount is not initialized\");\n        require(stakeDeposit.exists && stakeDeposit.amount != 0, \"[Withdraw] There is no stake deposit for this account\");\n        require(stakeDeposit.endDate != 0, \"[Withdraw] Withdraw is not initialized\");\n\n        // validate enough days have passed from initiating the withdrawal\n        // uint256 daysPassed = (block.timestamp - stakeDeposit.endDate) / 1 days;\n        // require(unstakingPeriod <= daysPassed, \"[Withdraw] The unstaking period did not pass\");\n        uint256 minutesPassed = (block.timestamp - stakeDeposit.endDate) / 3 minutes;\n        require(minutesPassed >= 1, \"[Withdraw] The unstaking period did not pass\");\n\n        uint256 amount = withdrawState.amount;\n        uint256 reward = _computeReward(stakeDeposit);\n\n        require(stakeDeposit.amount >= amount, \"[withdraw] Remaining stakedeposit amount must be higher than withdraw amount\");\n        if (stakeDeposit.amount > amount) {\n            _stakeDeposits[msg.sender].amount = _stakeDeposits[msg.sender].amount.sub(amount);\n            _stakeDeposits[msg.sender].endDate = 0;\n        }\n        else {\n            delete _stakeDeposits[msg.sender];\n        }\n\n        require(token.transfer(msg.sender, amount), \"[Withdraw] Something went wrong while transferring your initial deposit\");\n        \n        if( reward > 0 ) {\n            //calculate withdrawed rewards in single distribution cycle\n            rewardsWithdrawn = rewardsWithdrawn.add(reward);\n            require(token.transferFrom(rewardsAddress, msg.sender, reward), \"[Withdraw] Something went wrong while transferring your reward\");\n        }\n\n        withdrawState.amount = 0;\n        withdrawState.initiateDate = 0;\n\n        emit WithdrawExecuted(msg.sender, amount, reward);\n    }\n\n    function withdrawRewards()\n    external\n    nonReentrant\n    whenNotPaused\n    {\n        StakeDeposit storage stakeDeposit = _stakeDeposits[msg.sender];\n        require(stakeDeposit.exists && stakeDeposit.amount != 0, \"[Rewards Withdrawal] There is no stake deposit for this account\");\n        require(stakeDeposit.endDate == 0, \"[Rewards Withdrawal] You already initiated the full withdrawal\");\n\n        uint256 reward = _computeReward(stakeDeposit);\n\n        require(reward > 0, \"[Rewards Withdrawal] The reward amount has to be larger than 0\");\n        \n        stakeDeposit.entryRewardPoints = totalRewardPoints;\n\n        //calculate withdrawed rewards in single distribution cycle\n        rewardsWithdrawn = rewardsWithdrawn.add(reward);\n\n        require(token.transferFrom(rewardsAddress, msg.sender, reward), \"[Rewards Withdrawal] Something went wrong while transferring your reward\");\n\n        emit RewardsWithdrawn(msg.sender, reward);\n    }\n\n    // VIEW FUNCTIONS FOR HELPING THE USER AND CLIENT INTERFACE\n    function getStakeDetails(address account)\n    external\n    view\n    returns (uint256 initialDeposit, uint256 startDate, uint256 endDate, uint256 rewards)\n    {\n        require(_stakeDeposits[account].exists && _stakeDeposits[account].amount != 0, \"[Validation] This account doesn't have a stake deposit\");\n\n        StakeDeposit memory s = _stakeDeposits[account];\n\n        return (s.amount, s.startDate, s.endDate, _computeReward(s));\n    }\n\n    function _computeReward(StakeDeposit memory stakeDeposit)\n    private\n    view\n    returns (uint256)\n    {\n        uint256 rewardsPoints = 0;\n\n        if ( stakeDeposit.endDate == 0 )\n        {\n            rewardsPoints = totalRewardPoints.sub(stakeDeposit.entryRewardPoints);\n        }\n        else\n        {\n            //withdrawal is initiated\n            rewardsPoints = stakeDeposit.exitRewardPoints.sub(stakeDeposit.entryRewardPoints);\n        }\n        return stakeDeposit.amount.mul(rewardsPoints).div(10 ** 18);\n    }\n\n    function distributeRewards()\n    external\n    nonReentrant\n    whenNotPaused\n    {\n        require(hasRole(REWARDS_DISTRIBUTOR_ROLE, _msgSender()),\n            \"[Validation] The caller must have rewards distributor role\");\n        _distributeRewards();\n    }\n\n    function _distributeRewards()\n    private\n    whenNotPaused\n    {\n        require(hasRole(REWARDS_DISTRIBUTOR_ROLE, _msgSender()),\n            \"[Validation] The caller must have rewards distributor role\");\n        require(currentTotalStake > 0, \"[Validation] not enough total stake accumulated\");\n        uint256 rewardPoolBalance = token.balanceOf(rewardsAddress);\n        require(rewardPoolBalance > 0, \"[Validation] not enough rewards accumulated\");\n\n        uint256 newlyAdded = rewardPoolBalance.add(rewardsWithdrawn).sub(rewardsDistributed);\n        uint256 ratio = newlyAdded.mul(10 ** 18).div(currentTotalStake);\n        totalRewardPoints = totalRewardPoints.add(ratio);\n        rewardsDistributed = rewardPoolBalance;\n        rewardsWithdrawn = 0;\n        totalRewardsDistributed = totalRewardsDistributed.add(newlyAdded);\n        \n        emit RewardsDistributed(newlyAdded);\n    }\n\n    function version() public pure returns (string memory) {\n        return \"v2\";\n    }\n}",
  "sourcePath": "/Volumes/Projects/Projects/TrustSwap/swap-contracts/contracts/SwapStakingContract.sol",
  "compiler": {
    "name": "solc",
    "version": "0.6.2+commit.bacdbe57.Emscripten.clang"
  },
  "schemaVersion": "3.3.4",
  "updatedAt": "2021-03-15T19:49:43.325Z",
  "devdoc": {
    "methods": {
      "getRoleAdmin(bytes32)": {
        "details": "Returns the admin role that controls `role`. See {grantRole} and {revokeRole}.     * To change a role's admin, use {_setRoleAdmin}."
      },
      "getRoleMember(bytes32,uint256)": {
        "details": "Returns one of the accounts that have `role`. `index` must be a value between 0 and {getRoleMemberCount}, non-inclusive.     * Role bearers are not sorted in any particular way, and their ordering may change at any point.     * WARNING: When using {getRoleMember} and {getRoleMemberCount}, make sure you perform all queries on the same block. See the following https://forum.openzeppelin.com/t/iterating-over-elements-on-enumerableset-in-openzeppelin-contracts/2296[forum post] for more information."
      },
      "getRoleMemberCount(bytes32)": {
        "details": "Returns the number of accounts that have `role`. Can be used together with {getRoleMember} to enumerate all bearers of a role."
      },
      "grantRole(bytes32,address)": {
        "details": "Grants `role` to `account`.     * If `account` had not been already granted `role`, emits a {RoleGranted} event.     * Requirements:     * - the caller must have ``role``'s admin role."
      },
      "hasRole(bytes32,address)": {
        "details": "Returns `true` if `account` has been granted `role`."
      },
      "paused()": {
        "details": "Returns true if the contract is paused, and false otherwise."
      },
      "renounceRole(bytes32,address)": {
        "details": "Revokes `role` from the calling account.     * Roles are often managed via {grantRole} and {revokeRole}: this function's purpose is to provide a mechanism for accounts to lose their privileges if they are compromised (such as when a trusted device is misplaced).     * If the calling account had been granted `role`, emits a {RoleRevoked} event.     * Requirements:     * - the caller must be `account`."
      },
      "revokeRole(bytes32,address)": {
        "details": "Revokes `role` from `account`.     * If `account` had been granted `role`, emits a {RoleRevoked} event.     * Requirements:     * - the caller must have ``role``'s admin role."
      }
    }
  },
  "userdoc": {
    "methods": {}
  }
}