{
  "contractName": "SwapLock",
  "abi": [
    {
      "anonymous": false,
      "inputs": [
        {
          "indexed": true,
          "internalType": "address",
          "name": "beneficiary",
          "type": "address"
        },
        {
          "indexed": false,
          "internalType": "uint256",
          "name": "id",
          "type": "uint256"
        },
        {
          "indexed": false,
          "internalType": "uint256",
          "name": "amount",
          "type": "uint256"
        }
      ],
      "name": "AmountAdded",
      "type": "event"
    },
    {
      "anonymous": false,
      "inputs": [
        {
          "indexed": true,
          "internalType": "address",
          "name": "wallet",
          "type": "address"
        }
      ],
      "name": "DevWalletChanged",
      "type": "event"
    },
    {
      "anonymous": false,
      "inputs": [
        {
          "indexed": true,
          "internalType": "address",
          "name": "wallet",
          "type": "address"
        }
      ],
      "name": "FeeWalletChanged",
      "type": "event"
    },
    {
      "anonymous": false,
      "inputs": [
        {
          "indexed": true,
          "internalType": "address",
          "name": "previousOwner",
          "type": "address"
        },
        {
          "indexed": true,
          "internalType": "address",
          "name": "newOwner",
          "type": "address"
        }
      ],
      "name": "OwnershipTransferred",
      "type": "event"
    },
    {
      "anonymous": false,
      "inputs": [
        {
          "indexed": false,
          "internalType": "address",
          "name": "account",
          "type": "address"
        }
      ],
      "name": "Paused",
      "type": "event"
    },
    {
      "anonymous": false,
      "inputs": [
        {
          "indexed": true,
          "internalType": "uint256",
          "name": "id",
          "type": "uint256"
        },
        {
          "indexed": true,
          "internalType": "address",
          "name": "beneficiary",
          "type": "address"
        },
        {
          "indexed": true,
          "internalType": "address",
          "name": "token",
          "type": "address"
        }
      ],
      "name": "PaymentReleased",
      "type": "event"
    },
    {
      "anonymous": false,
      "inputs": [
        {
          "indexed": true,
          "internalType": "address",
          "name": "token",
          "type": "address"
        },
        {
          "indexed": true,
          "internalType": "address",
          "name": "sender",
          "type": "address"
        },
        {
          "indexed": true,
          "internalType": "address",
          "name": "beneficiary",
          "type": "address"
        },
        {
          "indexed": false,
          "internalType": "uint256",
          "name": "id",
          "type": "uint256"
        },
        {
          "indexed": false,
          "internalType": "uint256",
          "name": "amount",
          "type": "uint256"
        },
        {
          "indexed": false,
          "internalType": "uint256",
          "name": "releaseTime",
          "type": "uint256"
        },
        {
          "indexed": false,
          "internalType": "bool",
          "name": "swapTokenFee",
          "type": "bool"
        },
        {
          "indexed": false,
          "internalType": "uint256",
          "name": "fee",
          "type": "uint256"
        }
      ],
      "name": "PaymentScheduled",
      "type": "event"
    },
    {
      "anonymous": false,
      "inputs": [
        {
          "indexed": false,
          "internalType": "uint256",
          "name": "fee",
          "type": "uint256"
        }
      ],
      "name": "SwapTokenFeeUpdated",
      "type": "event"
    },
    {
      "anonymous": false,
      "inputs": [
        {
          "indexed": true,
          "internalType": "address",
          "name": "swapTokenAddress",
          "type": "address"
        }
      ],
      "name": "SwapTokenUpdated",
      "type": "event"
    },
    {
      "anonymous": false,
      "inputs": [
        {
          "indexed": false,
          "internalType": "address",
          "name": "account",
          "type": "address"
        }
      ],
      "name": "Unpaused",
      "type": "event"
    },
    {
      "inputs": [],
      "name": "owner",
      "outputs": [
        {
          "internalType": "address",
          "name": "",
          "type": "address"
        }
      ],
      "stateMutability": "view",
      "type": "function"
    },
    {
      "inputs": [],
      "name": "paused",
      "outputs": [
        {
          "internalType": "bool",
          "name": "",
          "type": "bool"
        }
      ],
      "stateMutability": "view",
      "type": "function"
    },
    {
      "inputs": [],
      "name": "renounceOwnership",
      "outputs": [],
      "stateMutability": "nonpayable",
      "type": "function"
    },
    {
      "inputs": [
        {
          "internalType": "address",
          "name": "newOwner",
          "type": "address"
        }
      ],
      "name": "transferOwnership",
      "outputs": [],
      "stateMutability": "nonpayable",
      "type": "function"
    },
    {
      "inputs": [
        {
          "internalType": "address",
          "name": "swapTokenAddress",
          "type": "address"
        },
        {
          "internalType": "address payable",
          "name": "feesWallet",
          "type": "address"
        },
        {
          "internalType": "address",
          "name": "devWallet",
          "type": "address"
        }
      ],
      "name": "initialize",
      "outputs": [],
      "stateMutability": "nonpayable",
      "type": "function"
    },
    {
      "inputs": [],
      "name": "getFeesWallet",
      "outputs": [
        {
          "internalType": "address",
          "name": "",
          "type": "address"
        }
      ],
      "stateMutability": "view",
      "type": "function"
    },
    {
      "inputs": [],
      "name": "getDevWallet",
      "outputs": [
        {
          "internalType": "address",
          "name": "",
          "type": "address"
        }
      ],
      "stateMutability": "view",
      "type": "function"
    },
    {
      "inputs": [],
      "name": "getSwapToken",
      "outputs": [
        {
          "internalType": "address",
          "name": "",
          "type": "address"
        }
      ],
      "stateMutability": "view",
      "type": "function"
    },
    {
      "inputs": [
        {
          "internalType": "uint256",
          "name": "id",
          "type": "uint256"
        }
      ],
      "name": "getLockedAsset",
      "outputs": [
        {
          "internalType": "address",
          "name": "token",
          "type": "address"
        },
        {
          "internalType": "uint256",
          "name": "amount",
          "type": "uint256"
        },
        {
          "internalType": "uint256",
          "name": "releaseTime",
          "type": "uint256"
        },
        {
          "internalType": "uint256",
          "name": "lastLocked",
          "type": "uint256"
        },
        {
          "internalType": "address",
          "name": "beneficiary",
          "type": "address"
        },
        {
          "internalType": "enum SwapLock.Status",
          "name": "status",
          "type": "uint8"
        }
      ],
      "stateMutability": "view",
      "type": "function"
    },
    {
      "inputs": [
        {
          "internalType": "address",
          "name": "user",
          "type": "address"
        }
      ],
      "name": "getAssetIds",
      "outputs": [
        {
          "internalType": "uint256[]",
          "name": "ids",
          "type": "uint256[]"
        }
      ],
      "stateMutability": "view",
      "type": "function"
    },
    {
      "inputs": [
        {
          "internalType": "address",
          "name": "swapTokenAddress",
          "type": "address"
        }
      ],
      "name": "updateLockToken",
      "outputs": [],
      "stateMutability": "nonpayable",
      "type": "function"
    },
    {
      "inputs": [
        {
          "internalType": "address payable",
          "name": "wallet",
          "type": "address"
        }
      ],
      "name": "setFeeWallet",
      "outputs": [],
      "stateMutability": "nonpayable",
      "type": "function"
    },
    {
      "inputs": [
        {
          "internalType": "address payable",
          "name": "wallet",
          "type": "address"
        }
      ],
      "name": "setDevWallet",
      "outputs": [],
      "stateMutability": "nonpayable",
      "type": "function"
    },
    {
      "inputs": [
        {
          "internalType": "address",
          "name": "tokenAddress",
          "type": "address"
        },
        {
          "internalType": "uint256",
          "name": "amount",
          "type": "uint256"
        },
        {
          "internalType": "uint256",
          "name": "duration",
          "type": "uint256"
        },
        {
          "internalType": "address payable",
          "name": "beneficiary",
          "type": "address"
        },
        {
          "internalType": "uint256",
          "name": "fee",
          "type": "uint256"
        },
        {
          "internalType": "bool",
          "name": "isFeeInSwap",
          "type": "bool"
        }
      ],
      "name": "lock",
      "outputs": [],
      "stateMutability": "payable",
      "type": "function"
    },
    {
      "inputs": [
        {
          "internalType": "address",
          "name": "tokenAddress",
          "type": "address"
        },
        {
          "internalType": "uint256[]",
          "name": "amounts",
          "type": "uint256[]"
        },
        {
          "internalType": "uint256[]",
          "name": "durations",
          "type": "uint256[]"
        },
        {
          "internalType": "address payable[]",
          "name": "beneficiaries",
          "type": "address[]"
        },
        {
          "internalType": "uint256[]",
          "name": "fees",
          "type": "uint256[]"
        },
        {
          "internalType": "bool",
          "name": "isFeeInSwap",
          "type": "bool"
        }
      ],
      "name": "bulkLock",
      "outputs": [],
      "stateMutability": "payable",
      "type": "function"
    },
    {
      "inputs": [
        {
          "internalType": "uint256",
          "name": "id",
          "type": "uint256"
        }
      ],
      "name": "claim",
      "outputs": [],
      "stateMutability": "nonpayable",
      "type": "function"
    },
    {
      "inputs": [
        {
          "internalType": "uint256",
          "name": "id",
          "type": "uint256"
        }
      ],
      "name": "claimable",
      "outputs": [
        {
          "internalType": "bool",
          "name": "",
          "type": "bool"
        }
      ],
      "stateMutability": "view",
      "type": "function"
    },
    {
      "inputs": [],
      "name": "pause",
      "outputs": [],
      "stateMutability": "nonpayable",
      "type": "function"
    },
    {
      "inputs": [],
      "name": "unpause",
      "outputs": [],
      "stateMutability": "nonpayable",
      "type": "function"
    }
  ],
  "bytecode": "0x608060405234801561001057600080fd5b5061257d806100206000396000f3fe6080604052600436106101145760003560e01c8063715018a6116100a0578063c0c53b8b11610064578063c0c53b8b14610540578063d1d58b2514610585578063e6fcdf99146105af578063ea8a4593146105e2578063f2fde38b146105f757610114565b8063715018a6146104b95780638456cb59146104ce5780638da5cb5b146104e357806390d49b9d146104f85780639fa944dd1461052b57610114565b806345099a47116100e757806345099a4714610210578063453dd97f1461025a57806355c4d48f1461028b5780635c975abb1461032057806363d0467f1461034957610114565b80631f53ac02146101195780632b2557621461014e578063379607f5146101d15780633f4ba83a146101fb575b600080fd5b34801561012557600080fd5b5061014c6004803603602081101561013c57600080fd5b50356001600160a01b031661062a565b005b34801561015a57600080fd5b506101816004803603602081101561017157600080fd5b50356001600160a01b0316610711565b60408051602080825283518183015283519192839290830191858101910280838360005b838110156101bd5781810151838201526020016101a5565b505050509050019250505060405180910390f35b3480156101dd57600080fd5b5061014c600480360360208110156101f457600080fd5b503561077e565b34801561020757600080fd5b5061014c6108f3565b61014c600480360360c081101561022657600080fd5b506001600160a01b03813581169160208101359160408201359160608101359091169060808101359060a001351515610955565b34801561026657600080fd5b5061026f6109ff565b604080516001600160a01b039092168252519081900360200190f35b34801561029757600080fd5b506102b5600480360360208110156102ae57600080fd5b5035610a0e565b60405180876001600160a01b03166001600160a01b03168152602001868152602001858152602001848152602001836001600160a01b03166001600160a01b0316815260200182600281111561030757fe5b60ff168152602001965050505050505060405180910390f35b34801561032c57600080fd5b50610335610ad6565b604080519115158252519081900360200190f35b61014c600480360360c081101561035f57600080fd5b6001600160a01b038235169190810190604081016020820135600160201b81111561038957600080fd5b82018360208201111561039b57600080fd5b803590602001918460208302840111600160201b831117156103bc57600080fd5b919390929091602081019035600160201b8111156103d957600080fd5b8201836020820111156103eb57600080fd5b803590602001918460208302840111600160201b8311171561040c57600080fd5b919390929091602081019035600160201b81111561042957600080fd5b82018360208201111561043b57600080fd5b803590602001918460208302840111600160201b8311171561045c57600080fd5b919390929091602081019035600160201b81111561047957600080fd5b82018360208201111561048b57600080fd5b803590602001918460208302840111600160201b831117156104ac57600080fd5b9193509150351515610adf565b3480156104c557600080fd5b5061014c610cdb565b3480156104da57600080fd5b5061014c610d7d565b3480156104ef57600080fd5b5061026f610ddd565b34801561050457600080fd5b5061014c6004803603602081101561051b57600080fd5b50356001600160a01b0316610dec565b34801561053757600080fd5b5061026f610ed3565b34801561054c57600080fd5b5061014c6004803603606081101561056357600080fd5b506001600160a01b038135811691602081013582169160409091013516610ee2565b34801561059157600080fd5b50610335600480360360208110156105a857600080fd5b5035610ef2565b3480156105bb57600080fd5b5061014c600480360360208110156105d257600080fd5b50356001600160a01b0316610fbd565b3480156105ee57600080fd5b5061026f6110a4565b34801561060357600080fd5b5061014c6004803603602081101561061a57600080fd5b50356001600160a01b03166110b3565b6106326111ac565b6065546001600160a01b03908116911614610682576040805162461bcd60e51b81526020600482018190526024820152600080516020612474833981519152604482015290519081900360640190fd5b6001600160a01b0381166106c75760405162461bcd60e51b815260040180806020018281038252602f815260200180612519602f913960400191505060405180910390fd5b60cb80546001600160a01b0319166001600160a01b0383169081179091556040517f268c00f4ec08b34fdde24b52e47a09d62f3f3837eb3b8ac7206cefb3bb5e534590600090a250565b6001600160a01b038116600090815260cd602090815260409182902080548351818402810184019094528084526060939283018282801561077157602002820191906000526020600020905b81548152602001906001019080831161075d575b505050505090505b919050565b8061078881610ef2565b6107d9576040805162461bcd60e51b815260206004820152601b60248201527f537761704c6f636b3a2043616e277420636c61696d2061737365740000000000604482015290519081900360640190fd5b6107e1612358565b600083815260ce6020908152604091829020825160c08101845281546001600160a01b03908116825260018301549382019390935260028083015494820194909452600382015460608201526004820154928316608082015292909160a0840191600160a01b90910460ff169081111561085757fe5b600281111561086257fe5b90525080519091506001600160a01b031673eeeeeeeeeeeeeeeeeeeeeeeeeeeeeeeeeeeeeeee141561089c57610897836111b0565b6108a5565b6108a583611269565b80600001516001600160a01b031681608001516001600160a01b0316847fa6ea333f41ff25e0a1adef6504bf3be9c7e740717d65f28a40b57a9681c2940c60405160405180910390a4505050565b6108fb6111ac565b6065546001600160a01b0390811691161461094b576040805162461bcd60e51b81526020600482018190526024820152600080516020612474833981519152604482015290519081900360640190fd5b6109536112b1565b565b60975460ff16156109a0576040805162461bcd60e51b815260206004820152601060248201526f14185d5cd8589b194e881c185d5cd95960821b604482015290519081900360640190fd5b60006109b18787878734888861134f565b90506402540be40081106109f65760405162461bcd60e51b815260040180806020018281038252602881526020018061242b6028913960400191505060405180910390fd5b50505050505050565b60cb546001600160a01b031690565b600080600080600080610a1f612358565b600088815260ce6020908152604091829020825160c08101845281546001600160a01b03908116825260018301549382019390935260028083015494820194909452600382015460608201526004820154928316608082015292909160a0840191600160a01b90910460ff1690811115610a9557fe5b6002811115610aa057fe5b905250805160208201516040830151608084015160a0850151606090950151939d929c50909a5091985090965090945092505050565b60975460ff1690565b60975460ff1615610b2a576040805162461bcd60e51b815260206004820152601060248201526f14185d5cd8589b194e881c185d5cd95960821b604482015290519081900360640190fd5b34888714610b79576040805162461bcd60e51b815260206004820152601760248201527614ddd85c131bd8dace88125b9d985b1a59081a5b9c1d5d604a1b604482015290519081900360640190fd5b888514610bc7576040805162461bcd60e51b815260206004820152601760248201527614ddd85c131bd8dace88125b9d985b1a59081a5b9c1d5d604a1b604482015290519081900360640190fd5b888314610c15576040805162461bcd60e51b815260206004820152601760248201527614ddd85c131bd8dace88125b9d985b1a59081a5b9c1d5d604a1b604482015290519081900360640190fd5b60005b89811015610c8a57610c808c8c8c84818110610c3057fe5b905060200201358b8b85818110610c4357fe5b905060200201358a8a86818110610c5657fe5b905060200201356001600160a01b0316868a8a88818110610c7357fe5b905060200201358961134f565b9150600101610c18565b506402540be4008110610cce5760405162461bcd60e51b815260040180806020018281038252602881526020018061242b6028913960400191505060405180910390fd5b5050505050505050505050565b610ce36111ac565b6065546001600160a01b03908116911614610d33576040805162461bcd60e51b81526020600482018190526024820152600080516020612474833981519152604482015290519081900360640190fd5b6065546040516000916001600160a01b0316907f8be0079c531659141344cd1fd0a4f28419497f9722a3daafe3b4186f6b6457e0908390a3606580546001600160a01b0319169055565b610d856111ac565b6065546001600160a01b03908116911614610dd5576040805162461bcd60e51b81526020600482018190526024820152600080516020612474833981519152604482015290519081900360640190fd5b610953611483565b6065546001600160a01b031690565b610df46111ac565b6065546001600160a01b03908116911614610e44576040805162461bcd60e51b81526020600482018190526024820152600080516020612474833981519152604482015290519081900360640190fd5b6001600160a01b038116610e895760405162461bcd60e51b815260040180806020018281038252602f815260200180612519602f913960400191505060405180910390fd5b60ca80546001600160a01b0319166001600160a01b0383169081179091556040517fe805ffc02a12d27b142431551e2cd3f766203c54a9a4ab0d1cf01ce7366a796f90600090a250565b60c9546001600160a01b031690565b610eed838383611504565b505050565b6000610efc612358565b600083815260ce6020908152604091829020825160c08101845281546001600160a01b03908116825260018301549382019390935260028083015494820194909452600382015460608201526004820154928316608082015292909160a0840191600160a01b90910460ff1690811115610f7257fe5b6002811115610f7d57fe5b905250905060018160a001516002811115610f9457fe5b148015610fa5575042816040015111155b15610fb4576001915050610779565b50600092915050565b610fc56111ac565b6065546001600160a01b03908116911614611015576040805162461bcd60e51b81526020600482018190526024820152600080516020612474833981519152604482015290519081900360640190fd5b6001600160a01b03811661105a5760405162461bcd60e51b81526004018080602001828103825260248152602001806123d46024913960400191505060405180910390fd5b60c980546001600160a01b0319166001600160a01b0383169081179091556040517f44fe57485076f35a8eb17e92799dcc65f24a9eab90ffae0af662812f19803be590600090a250565b60ca546001600160a01b031690565b6110bb6111ac565b6065546001600160a01b0390811691161461110b576040805162461bcd60e51b81526020600482018190526024820152600080516020612474833981519152604482015290519081900360640190fd5b6001600160a01b0381166111505760405162461bcd60e51b81526004018080602001828103825260268152602001806123ae6026913960400191505060405180910390fd5b6065546040516001600160a01b038084169216907f8be0079c531659141344cd1fd0a4f28419497f9722a3daafe3b4186f6b6457e090600090a3606580546001600160a01b0319166001600160a01b0392909216919091179055565b3390565b600081815260ce602052604080822060048101805460ff60a01b1916600160a11b1790819055600182015492519193926001600160a01b03909116918381818185875af1925050503d8060008114611224576040519150601f19603f3d011682016040523d82523d6000602084013e611229565b606091505b5050905080610eed5760405162461bcd60e51b815260040180806020018281038252602281526020018061238c6022913960400191505060405180910390fd5b600081815260ce6020526040902060048101805460ff60a01b1916600160a11b1790819055600182015482546112ad926001600160a01b03918216929116906115cc565b5050565b60975460ff166112ff576040805162461bcd60e51b815260206004820152601460248201527314185d5cd8589b194e881b9bdd081c185d5cd95960621b604482015290519081900360640190fd5b6097805460ff191690557f5db9ee0a495bf2e6ff9c91a7834c1ba4fdd244a5e8aa4e537bd38aeae4b073aa6113326111ac565b604080516001600160a01b039092168252519081900360200190a1565b60006001600160a01b0385166113965760405162461bcd60e51b815260040180806020018281038252602d8152602001806124c2602d913960400191505060405180910390fd5b60006113a8428863ffffffff61161e16565b90508473eeeeeeeeeeeeeeeeeeeeeeeeeeeeeeeeeeeeeeee6001600160a01b038b161415611405576113de8986848a8a89611681565b6113fe856113f2838c63ffffffff61191416565b9063ffffffff61191416565b9050611413565b6114138a8a87858b89611956565b60cc5460408051918252602082018b9052818101849052851515606083015260808201879052516001600160a01b03808a16923392918e16917f098f2602d9fa560c1ea097905b03567b4419c064c347ca62a495c22e9a5e7b6c9181900360a00190a49998505050505050505050565b60975460ff16156114ce576040805162461bcd60e51b815260206004820152601060248201526f14185d5cd8589b194e881c185d5cd95960821b604482015290519081900360640190fd5b6097805460ff191660011790557f62e78cea01bee320cd4e420270b5ea74000d11b0c9f74754ebdbfc544b05a2586113326111ac565b600054610100900460ff168061151d575061151d611aad565b8061152b575060005460ff16155b6115665760405162461bcd60e51b815260040180806020018281038252602e815260200180612494602e913960400191505060405180910390fd5b600054610100900460ff16158015611591576000805460ff1961ff0019909116610100171660011790555b611599611ab3565b6115a1611b55565b6115a9611c4e565b6115b4848484611cf9565b80156115c6576000805461ff00191690555b50505050565b604080516001600160a01b038416602482015260448082018490528251808303909101815260649091019091526020810180516001600160e01b031663a9059cbb60e01b179052610eed908490611e64565b600082820183811015611678576040805162461bcd60e51b815260206004820152601b60248201527f536166654d6174683a206164646974696f6e206f766572666c6f770000000000604482015290519081900360640190fd5b90505b92915050565b80156116ea57858210156116dc576040805162461bcd60e51b815260206004820152601f60248201527f537761704c6f636b3a20456e6f75676820455448206e6f742073656e74212100604482015290519081900360640190fd5b6116e58561201c565b6117f8565b6116fa868663ffffffff61161e16565b82101561174e576040805162461bcd60e51b815260206004820152601f60248201527f537761704c6f636b3a20456e6f75676820455448206e6f742073656e74212100604482015290519081900360640190fd5b60ca546040516000916001600160a01b03169087908381818185875af1925050503d806000811461179b576040519150601f19603f3d011682016040523d82523d6000602084013e6117a0565b606091505b50509050806117f6576040805162461bcd60e51b815260206004820181905260248201527f537761704c6f636b3a205472616e73666572206f6620666565206661696c6564604482015290519081900360640190fd5b505b60cc5461180c90600163ffffffff61161e16565b60cc8190556040805160c08101825273eeeeeeeeeeeeeeeeeeeeeeeeeeeeeeeeeeeeeeee815260208082018a815282840189815242606085019081526001600160a01b038a811660808701908152600160a0880181815260009a8b5260ce90975297909820865181546001600160a01b0319908116918416919091178255945197810197909755915160028088019190915590516003870155955160048601805490931691161780825591519294909160ff60a01b191690600160a01b9084908111156118d557fe5b021790555050506001600160a01b03909216600090815260cd60209081526040822060cc54815460018101835591845291909220909101555050505050565b600061167883836040518060400160405280601e81526020017f536166654d6174683a207375627472616374696f6e206f766572666c6f770000815250612130565b801561196a576119658461201c565b61198c565b60ca5461198c906001600160a01b03888116913391168763ffffffff6121c716565b6119a76001600160a01b03871633308863ffffffff6121c716565b60cc546119bb90600163ffffffff61161e16565b60cc8190556040805160c0810182526001600160a01b03898116825260208083018a8152838501898152426060860190815289851660808701908152600160a0880181815260009a8b5260ce90965297909820865181549087166001600160a01b03199182161782559351978101979097559051600280880191909155905160038701559551600486018054919094169116178083559051929460ff60a01b1990911690600160a01b908490811115611a7057fe5b02179055505050506001600160a01b0316600090815260cd60209081526040822060cc548154600181018355918452919092209091015550505050565b303b1590565b600054610100900460ff1680611acc5750611acc611aad565b80611ada575060005460ff16155b611b155760405162461bcd60e51b815260040180806020018281038252602e815260200180612494602e913960400191505060405180910390fd5b600054610100900460ff16158015611b40576000805460ff1961ff0019909116610100171660011790555b8015611b52576000805461ff00191690555b50565b600054610100900460ff1680611b6e5750611b6e611aad565b80611b7c575060005460ff16155b611bb75760405162461bcd60e51b815260040180806020018281038252602e815260200180612494602e913960400191505060405180910390fd5b600054610100900460ff16158015611be2576000805460ff1961ff0019909116610100171660011790555b6000611bec6111ac565b606580546001600160a01b0319166001600160a01b038316908117909155604051919250906000907f8be0079c531659141344cd1fd0a4f28419497f9722a3daafe3b4186f6b6457e0908290a3508015611b52576000805461ff001916905550565b600054610100900460ff1680611c675750611c67611aad565b80611c75575060005460ff16155b611cb05760405162461bcd60e51b815260040180806020018281038252602e815260200180612494602e913960400191505060405180910390fd5b600054610100900460ff16158015611cdb576000805460ff1961ff0019909116610100171660011790555b6097805460ff191690558015611b52576000805461ff001916905550565b600054610100900460ff1680611d125750611d12611aad565b80611d20575060005460ff16155b611d5b5760405162461bcd60e51b815260040180806020018281038252602e815260200180612494602e913960400191505060405180910390fd5b600054610100900460ff16158015611d86576000805460ff1961ff0019909116610100171660011790555b6001600160a01b038416611dcb5760405162461bcd60e51b81526004018080602001828103825260248152602001806123d46024913960400191505060405180910390fd5b6001600160a01b038316611e105760405162461bcd60e51b81526004018080602001828103825260338152602001806123f86033913960400191505060405180910390fd5b60c980546001600160a01b038087166001600160a01b03199283161790925560ca805486841690831617905560cb80549285169290911691909117905580156115c6576000805461ff001916905550505050565b611e76826001600160a01b0316612221565b611ec7576040805162461bcd60e51b815260206004820152601f60248201527f5361666545524332303a2063616c6c20746f206e6f6e2d636f6e747261637400604482015290519081900360640190fd5b60006060836001600160a01b0316836040518082805190602001908083835b60208310611f055780518252601f199092019160209182019101611ee6565b6001836020036101000a0380198251168184511680821785525050505050509050019150506000604051808303816000865af19150503d8060008114611f67576040519150601f19603f3d011682016040523d82523d6000602084013e611f6c565b606091505b509150915081611fc3576040805162461bcd60e51b815260206004820181905260248201527f5361666545524332303a206c6f772d6c6576656c2063616c6c206661696c6564604482015290519081900360640190fd5b8051156115c657808060200190516020811015611fdf57600080fd5b50516115c65760405162461bcd60e51b815260040180806020018281038252602a8152602001806124ef602a913960400191505060405180910390fd5b6000612040606461203484600a63ffffffff61225d16565b9063ffffffff6122b616565b9050600061205a606461203485600a63ffffffff61225d16565b90506000612072826113f2868663ffffffff61191416565b60ca5460c95491925061209a916001600160a01b03908116913391168463ffffffff6121c716565b60cb5460c9546120bf916001600160a01b03918216913391168663ffffffff6121c716565b60c9546040805163079cc67960e41b81523360048201526024810185905290516001600160a01b03909216916379cc67909160448082019260009290919082900301818387803b15801561211257600080fd5b505af1158015612126573d6000803e3d6000fd5b5050505050505050565b600081848411156121bf5760405162461bcd60e51b81526004018080602001828103825283818151815260200191508051906020019080838360005b8381101561218457818101518382015260200161216c565b50505050905090810190601f1680156121b15780820380516001836020036101000a031916815260200191505b509250505060405180910390fd5b505050900390565b604080516001600160a01b0380861660248301528416604482015260648082018490528251808303909101815260849091019091526020810180516001600160e01b03166323b872dd60e01b1790526115c6908590611e64565b6000813f7fc5d2460186f7233c927e7db2dcc703c0e500b653ca82273b7bfad8045d85a47081811480159061225557508115155b949350505050565b60008261226c5750600061167b565b8282028284828161227957fe5b04146116785760405162461bcd60e51b81526004018080602001828103825260218152602001806124536021913960400191505060405180910390fd5b600061167883836040518060400160405280601a81526020017f536166654d6174683a206469766973696f6e206279207a65726f000000000000815250600081836123425760405162461bcd60e51b815260206004820181815283516024840152835190928392604490910191908501908083836000831561218457818101518382015260200161216c565b50600083858161234e57fe5b0495945050505050565b6040805160c08101825260008082526020820181905291810182905260608101829052608081018290529060a08201529056fe537761704c6f636b3a204661696c656420746f207472616e736665722065746821214f776e61626c653a206e6577206f776e657220697320746865207a65726f2061646472657373537761704c6f636b3a20496e76616c6964207377617020746f6b656e2061646472657373537761704c6f636b3a20506c656173652070726f766964652076616c6964206665657357616c6c657420616464726573732121537761704c6f636b3a2053656e74206d6f726520657468657273207468656e207265717569726564536166654d6174683a206d756c7469706c69636174696f6e206f766572666c6f774f776e61626c653a2063616c6c6572206973206e6f7420746865206f776e6572436f6e747261637420696e7374616e63652068617320616c7265616479206265656e20696e697469616c697a6564537761704c6f636b3a2050726f766964652076616c69642062656e6566696369617279206164647265737321215361666545524332303a204552433230206f7065726174696f6e20646964206e6f742073756363656564537761704c6f636b3a20506c656173652070726f766964652076616c69642077616c6c657420616464726573732121a2646970667358221220566ffb40fce6cf865cc3a60a3d97ef63f85fe7413185c12ab1089e22d89782f164736f6c63430006020033",
  "source": "pragma solidity ^0.6.0;\n\nimport \"@openzeppelin/contracts-ethereum-package/contracts/math/SafeMath.sol\";\nimport \"@openzeppelin/contracts-ethereum-package/contracts/utils/Pausable.sol\";\nimport \"@openzeppelin/contracts-ethereum-package/contracts/token/ERC20/SafeERC20.sol\";\nimport \"@openzeppelin/contracts-ethereum-package/contracts/access/Ownable.sol\";\nimport \"@openzeppelin/contracts-ethereum-package/contracts/utils/Pausable.sol\";\nimport \"@openzeppelin/contracts-ethereum-package/contracts/token/ERC20/ERC20Burnable.sol\";\n\ninterface IERC20Burnable {\n    function burnFrom(address account, uint256 amount) external;\n}\n\n/**\n* @dev This contract will hold user locked funds which will be unlocked after\n* lock-up period ends\n*/\ncontract SwapLock is Initializable, OwnableUpgradeSafe, PausableUpgradeSafe {\n    using SafeERC20 for IERC20;\n    using SafeMath for uint256;\n\n    enum Status { _, OPEN, CLOSED }\n\n    IERC20 private _swapToken;\n\n    //Wallet where fees will go\n    address payable private _feesWallet;\n\n    //Wallet where dev fund will go\n    address private _devWallet;\n\n    address constant private ETH_ADDRESS = address(\n        0xEeeeeEeeeEeEeeEeEeEeeEEEeeeeEeeeeeeeEEeE\n    );\n\n    struct Payment {\n        address token;// Token address\n        uint256 amount;// Amount locked\n        uint256 releaseTime;\n        uint256 lastLocked;\n        address payable beneficiary;// Beneficary who will receive funds\n        Status status;\n    }\n\n    //Global lockedasset id. Also give total number of lock-ups made so far\n    uint256 private _paymentId;\n\n    //list of all asset ids for a user/beneficiary\n    mapping(address => uint256[]) private _userVsPaymentIds;\n\n    mapping(uint256 => Payment) private _idVsPayment;\n\n    event FeeWalletChanged(address indexed wallet);\n    event DevWalletChanged(address indexed wallet);\n\n    event PaymentScheduled(\n        address indexed token,\n        address indexed sender,\n        address indexed beneficiary,\n        uint256 id,\n        uint256 amount,\n        uint256 releaseTime,\n        bool swapTokenFee,\n        uint256 fee\n    );\n    event PaymentReleased(\n        uint256 indexed id,\n        address indexed beneficiary,\n        address indexed token\n    );\n\n    event SwapTokenUpdated(address indexed swapTokenAddress);\n    event SwapTokenFeeUpdated(uint256 fee);\n\n    event AmountAdded(address indexed beneficiary, uint256 id, uint256 amount);\n\n    modifier canClaim(uint256 id) {\n        require(claimable(id), \"SwapLock: Can't claim asset\");\n        _;\n    }\n\n    /**\n    * @dev initialize\n    * @param swapTokenAddress Address of the swap token\n    * @param feesWallet Wallet address where fees will go\n    * @param devWallet Wallet address where dev fund will go\n    */\n    function initialize(address swapTokenAddress, address payable feesWallet, address devWallet)\n    public\n    {\n        __SwapLock_init(swapTokenAddress, feesWallet, devWallet);\n    }\n\n    function __SwapLock_init(address swapTokenAddress, address payable feesWallet, address devWallet)\n    internal\n    initializer\n    {\n        __Context_init_unchained();\n        __Ownable_init_unchained();\n        __Pausable_init_unchained();\n        __SwapLock_init_unchained(swapTokenAddress, feesWallet, devWallet);\n    }\n\n    function __SwapLock_init_unchained(address swapTokenAddress, address payable feesWallet, address devWallet)\n    internal\n    initializer\n    {\n        require(swapTokenAddress != address(0), \"SwapLock: Invalid swap token address\");\n        require(feesWallet != address(0), \"SwapLock: Please provide valid feesWallet address!!\");\n        _swapToken = IERC20(swapTokenAddress);\n        _feesWallet = feesWallet;\n        _devWallet = devWallet;\n    }\n\n    /**\n    * @dev returns the fee receiver wallet address\n    */\n    function getFeesWallet() external view returns(address) {\n        return _feesWallet;\n    }\n\n    /**\n    * @dev returns the dev fund wallet address\n    */\n    function getDevWallet() external view returns(address) {\n        return _devWallet;\n    }\n\n    /**\n    * @dev Returns swap token address\n    */\n    function getSwapToken() external view returns(address) {\n        return address(_swapToken);\n    }\n\n    /**\n    * @dev Returns information about a locked asset\n    * @param id Asset id\n    */\n    function getLockedAsset(uint256 id) external view returns(\n        address token,\n        uint256 amount,\n        uint256 releaseTime,\n        uint256 lastLocked,\n        address beneficiary,\n        Status status\n    )\n    {\n        Payment memory asset = _idVsPayment[id];\n        token = asset.token;\n        amount = asset.amount;\n        releaseTime = asset.releaseTime;\n        beneficiary = asset.beneficiary;\n        status = asset.status;\n        lastLocked = asset.lastLocked;\n\n        return(\n            token,\n            amount,\n            releaseTime,\n            lastLocked,\n            beneficiary,\n            status\n        );\n    }\n\n    /**\n    * @dev Returns all asset ids for a user\n    * @param user Address of the user\n    */\n    function getAssetIds(address user) external view returns (uint256[] memory ids)\n    {\n        return _userVsPaymentIds[user];\n    }\n\n    /**\n    * @dev Update swap token address\n    * @param swapTokenAddress New swap token address\n    */\n    function updateLockToken(address swapTokenAddress) external onlyOwner {\n        require(\n            swapTokenAddress != address(0),\n            \"SwapLock: Invalid swap token address\"\n        );\n        _swapToken = IERC20(swapTokenAddress);\n        emit SwapTokenUpdated(swapTokenAddress);\n    }\n\n    /**\n    * @dev Allows admin to set fee receiver wallet\n    * @param wallet New wallet address\n    */\n    function setFeeWallet(address payable wallet) external onlyOwner {\n        require(\n            wallet != address(0),\n            \"SwapLock: Please provide valid wallet address!!\"\n        );\n        _feesWallet = wallet;\n\n        emit FeeWalletChanged(wallet);\n    }\n\n    /**\n    * @dev Allows admin to set fee receiver wallet\n    * @param wallet New wallet address\n    */\n    function setDevWallet(address payable wallet) external onlyOwner {\n        require(\n            wallet != address(0),\n            \"SwapLock: Please provide valid wallet address!!\"\n        );\n        _devWallet = wallet;\n\n        emit DevWalletChanged(wallet);\n    }\n\n    /**\n    * @dev Allows user to lock asset. In case of ERC-20 token the user will\n    * first have to approve the contract to spend on his/her behalf\n    * @param tokenAddress Address of the token to be locked\n    * @param amount Amount of tokens to lock\n    * @param duration Duration for which tokens to be locked. In seconds\n    * @param beneficiary Address of the beneficiary\n    * @param isFeeInSwap Bool to check if fee to be paid in swap token or not\n    */\n    function lock(\n        address tokenAddress,\n        uint256 amount,\n        uint256 duration,\n        address payable beneficiary,\n        uint256 fee,\n        bool isFeeInSwap\n    )\n        external\n        payable\n        whenNotPaused\n    {\n        uint256 remValue = _lock(\n            tokenAddress,\n            amount,\n            duration,\n            beneficiary,\n            msg.value,\n            fee,\n            isFeeInSwap\n        );\n\n        require(\n            remValue < 10000000000,\n            \"SwapLock: Sent more ethers then required\"\n        );\n\n    }\n\n    /**\n    * @dev Helper method to lock asset\n    */\n    function _lock(\n        address tokenAddress,\n        uint256 amount,\n        uint256 duration,\n        address payable beneficiary,\n        uint256 value,\n        uint256 fee,\n        bool isFeeInSwap\n    )\n        private\n        returns(uint256)\n    {\n        require(beneficiary != address(0),\"SwapLock: Provide valid beneficiary address!!\");\n\n        uint256 releaseTime = block.timestamp.add(duration);\n\n        uint256 remValue = value;\n\n        if(ETH_ADDRESS == tokenAddress) {\n            _lockETH(\n                amount,\n                fee,\n                releaseTime,\n                beneficiary,\n                value,\n                isFeeInSwap\n            );\n\n            remValue = remValue.sub(amount).sub(fee);\n        }\n\n        else {\n            _lockERC20(\n                tokenAddress,\n                amount,\n                fee,\n                releaseTime,\n                beneficiary,\n                isFeeInSwap\n            );\n        }\n\n        emit PaymentScheduled(\n            tokenAddress,\n            msg.sender,\n            beneficiary,\n            _paymentId,\n            amount,\n            releaseTime,\n            isFeeInSwap,\n            fee\n        );\n\n        return remValue;\n    }\n\n    /**\n    * @dev Helper method to lock ETH\n    */\n    function _lockETH(\n        uint256 amount,\n        uint256 fee,\n        uint256 releaseTime,\n        address payable beneficiary,\n        uint256 value,\n        bool isFeeInSwap\n    )\n        private\n    {\n        //Transferring fee to the wallet\n        if(isFeeInSwap){\n\t        require(value >= amount, \"SwapLock: Enough ETH not sent!!\");\n            _handleFees(fee);\n        }\n        else {\n            require(value >= amount.add(fee), \"SwapLock: Enough ETH not sent!!\");\n            (bool success,) = _feesWallet.call.value(fee)(\"\");\n            require(success, \"SwapLock: Transfer of fee failed\");\n        }\n\n        _paymentId = _paymentId.add(1);\n\n        _idVsPayment[_paymentId] = Payment({\n            token: ETH_ADDRESS,\n            amount: amount,\n            releaseTime: releaseTime,\n            lastLocked: block.timestamp,\n            beneficiary: beneficiary,\n            status: Status.OPEN\n        });\n        _userVsPaymentIds[beneficiary].push(_paymentId);\n    }\n\n    /**\n    * @dev Helper method to lock ERC-20 tokens\n    */\n    function _lockERC20(\n        address token,\n        uint256 amount,\n        uint256 fee,\n        uint256 releaseTime,\n        address payable beneficiary,\n        bool isFeeInSwap\n    )\n        private\n    {\n\n        //Transfer fee to the wallet\n        if(isFeeInSwap){\n            _handleFees(fee);\n        }\n        else {\n            IERC20(token).safeTransferFrom(msg.sender, _feesWallet, fee);\n        }\n\n        //Transfer required amount of tokens to the contract from user balance\n        IERC20(token).safeTransferFrom(msg.sender, address(this), amount);\n\n        _paymentId = _paymentId.add(1);\n\n        _idVsPayment[_paymentId] = Payment({\n            token: token,\n            amount: amount,\n            releaseTime: releaseTime,\n            lastLocked: block.timestamp,\n            beneficiary: beneficiary,\n            status: Status.OPEN\n        });\n        _userVsPaymentIds[beneficiary].push(_paymentId);\n    }\n\n    function _handleFees(uint256 fee) private {\n        uint256 devAmount = fee.mul(10).div(100); //10%\n        uint256 burnAmount = fee.mul(10).div(100); //10%\n        uint256 remAmount = fee.sub(devAmount).sub(burnAmount); //80%\n\n        _swapToken.safeTransferFrom(msg.sender, _feesWallet, remAmount);\n        _swapToken.safeTransferFrom(msg.sender, _devWallet, devAmount);\n        IERC20Burnable(address(_swapToken)).burnFrom(msg.sender, burnAmount);\n    }\n\n    /**\n    * @dev Allows user to lock asset. In case of ERC-20 token the user will\n    * first have to approve the contract to spend on his/her behalf\n    * @param tokenAddress Address of the token to be locked\n    * @param amounts List of amount of tokens to lock\n    * @param durations List of duration for which tokens to be locked. In seconds\n    * @param beneficiaries List of addresses of the beneficiaries\n    * @param isFeeInSwap Bool to check if fee to be paid in swap token or not\n    */\n    function bulkLock(\n        address tokenAddress,\n        uint256[] calldata amounts,\n        uint256[] calldata durations,\n        address payable[] calldata beneficiaries,\n        uint256[] calldata fees,\n        bool isFeeInSwap\n    )\n        external\n        payable\n        whenNotPaused\n    {\n        uint256 remValue = msg.value;\n        require(amounts.length == durations.length, \"SwapLock: Invalid input\");\n        require(amounts.length == beneficiaries.length, \"SwapLock: Invalid input\");\n        require(amounts.length == fees.length, \"SwapLock: Invalid input\");\n\n        for(uint256 i = 0; i < amounts.length; i++){\n            remValue = _lock(\n                tokenAddress,\n                amounts[i],\n                durations[i],\n                beneficiaries[i],\n                remValue,\n                fees[i],\n                isFeeInSwap\n            );\n        }\n\n        require(\n            remValue < 10000000000,\n            \"SwapLock: Sent more ethers then required\"\n        );\n\n    }\n\n    /**\n    * @dev Allows beneficiary of locked asset to claim asset after lock-up period ends\n    * @param id Id of the locked asset\n    */\n    function claim(uint256 id) external canClaim(id) {\n        Payment memory lockedAsset = _idVsPayment[id];\n        if(ETH_ADDRESS == lockedAsset.token) {\n            _claimETH(id);\n        }\n        else {\n            _claimERC20(id);\n        }\n\n        emit PaymentReleased(\n            id,\n            lockedAsset.beneficiary,\n            lockedAsset.token\n        );\n    }\n\n    /**\n    * @dev Returns whether given asset can be claimed or not\n    * @param id id of an asset\n    */\n    function claimable(uint256 id) public view returns(bool){\n\n        Payment memory asset = _idVsPayment[id];\n        if( (asset.status == Status.OPEN) && (asset.releaseTime <= block.timestamp) )\n        {\n            return true;\n        }\n        return false;\n    }\n\n    /**\n    * @dev Helper method to claim ETH\n    */\n    function _claimETH(uint256 id) private {\n        Payment storage asset = _idVsPayment[id];\n        asset.status = Status.CLOSED;\n        (bool success,) = asset.beneficiary.call.value(asset.amount)(\"\");\n        require(success, \"SwapLock: Failed to transfer eth!!\");\n    }\n\n    /**\n    * @dev Helper method to claim ERC-20\n    */\n    function _claimERC20(uint256 id) private {\n        Payment storage asset = _idVsPayment[id];\n        asset.status = Status.CLOSED;\n        IERC20(asset.token).safeTransfer(asset.beneficiary, asset.amount);\n    }\n\n    /**\n    * @dev Called by an admin to pause, triggers stopped state.\n    */\n    function pause() external onlyOwner {\n        _pause();\n    }\n\n    /**\n    * @dev Called by an admin to unpause, returns to normal state.\n    */\n    function unpause() external onlyOwner {\n        _unpause();\n    }\n}",
  "sourcePath": "/Users/ronak/Developer/projects/trustswap/swaptoken_upgradable/contracts/SwapLock.sol",
  "compiler": {
    "name": "solc",
    "version": "0.6.2+commit.bacdbe57.Emscripten.clang"
  },
  "schemaVersion": "3.2.0",
  "updatedAt": "2020-07-24T06:31:19.339Z",
  "devdoc": {
    "details": "This contract will hold user locked funds which will be unlocked after lock-up period ends",
    "methods": {
      "bulkLock(address,uint256[],uint256[],address[],uint256[],bool)": {
        "details": "Allows user to lock asset. In case of ERC-20 token the user will first have to approve the contract to spend on his/her behalf",
        "params": {
          "amounts": "List of amount of tokens to lock",
          "beneficiaries": "List of addresses of the beneficiaries",
          "durations": "List of duration for which tokens to be locked. In seconds",
          "isFeeInSwap": "Bool to check if fee to be paid in swap token or not",
          "tokenAddress": "Address of the token to be locked"
        }
      },
      "claim(uint256)": {
        "details": "Allows beneficiary of locked asset to claim asset after lock-up period ends",
        "params": {
          "id": "Id of the locked asset"
        }
      },
      "claimable(uint256)": {
        "details": "Returns whether given asset can be claimed or not",
        "params": {
          "id": "id of an asset"
        }
      },
      "getAssetIds(address)": {
        "details": "Returns all asset ids for a user",
        "params": {
          "user": "Address of the user"
        }
      },
      "getDevWallet()": {
        "details": "returns the dev fund wallet address"
      },
      "getFeesWallet()": {
        "details": "returns the fee receiver wallet address"
      },
      "getLockedAsset(uint256)": {
        "details": "Returns information about a locked asset",
        "params": {
          "id": "Asset id"
        }
      },
      "getSwapToken()": {
        "details": "Returns swap token address"
      },
      "initialize(address,address,address)": {
        "details": "initialize",
        "params": {
          "devWallet": "Wallet address where dev fund will go",
          "feesWallet": "Wallet address where fees will go",
          "swapTokenAddress": "Address of the swap token"
        }
      },
      "lock(address,uint256,uint256,address,uint256,bool)": {
        "details": "Allows user to lock asset. In case of ERC-20 token the user will first have to approve the contract to spend on his/her behalf",
        "params": {
          "amount": "Amount of tokens to lock",
          "beneficiary": "Address of the beneficiary",
          "duration": "Duration for which tokens to be locked. In seconds",
          "isFeeInSwap": "Bool to check if fee to be paid in swap token or not",
          "tokenAddress": "Address of the token to be locked"
        }
      },
      "owner()": {
        "details": "Returns the address of the current owner."
      },
      "pause()": {
        "details": "Called by an admin to pause, triggers stopped state."
      },
      "paused()": {
        "details": "Returns true if the contract is paused, and false otherwise."
      },
      "renounceOwnership()": {
        "details": "Leaves the contract without owner. It will not be possible to call `onlyOwner` functions anymore. Can only be called by the current owner.     * NOTE: Renouncing ownership will leave the contract without an owner, thereby removing any functionality that is only available to the owner."
      },
      "setDevWallet(address)": {
        "details": "Allows admin to set fee receiver wallet",
        "params": {
          "wallet": "New wallet address"
        }
      },
      "setFeeWallet(address)": {
        "details": "Allows admin to set fee receiver wallet",
        "params": {
          "wallet": "New wallet address"
        }
      },
      "transferOwnership(address)": {
        "details": "Transfers ownership of the contract to a new account (`newOwner`). Can only be called by the current owner."
      },
      "unpause()": {
        "details": "Called by an admin to unpause, returns to normal state."
      },
      "updateLockToken(address)": {
        "details": "Update swap token address",
        "params": {
          "swapTokenAddress": "New swap token address"
        }
      }
    }
  },
  "userdoc": {
    "methods": {}
  }
}