{
  "contractName": "SwapStakingContract",
  "abi": [
    {
      "anonymous": false,
      "inputs": [
        {
          "indexed": false,
          "internalType": "address",
          "name": "account",
          "type": "address"
        }
      ],
      "name": "Paused",
      "type": "event"
    },
    {
      "anonymous": false,
      "inputs": [
        {
          "indexed": false,
          "internalType": "uint256",
          "name": "amount",
          "type": "uint256"
        }
      ],
      "name": "RewardsDistributed",
      "type": "event"
    },
    {
      "anonymous": false,
      "inputs": [
        {
          "indexed": true,
          "internalType": "address",
          "name": "account",
          "type": "address"
        },
        {
          "indexed": false,
          "internalType": "uint256",
          "name": "reward",
          "type": "uint256"
        }
      ],
      "name": "RewardsWithdrawn",
      "type": "event"
    },
    {
      "anonymous": false,
      "inputs": [
        {
          "indexed": true,
          "internalType": "bytes32",
          "name": "role",
          "type": "bytes32"
        },
        {
          "indexed": true,
          "internalType": "address",
          "name": "account",
          "type": "address"
        },
        {
          "indexed": true,
          "internalType": "address",
          "name": "sender",
          "type": "address"
        }
      ],
      "name": "RoleGranted",
      "type": "event"
    },
    {
      "anonymous": false,
      "inputs": [
        {
          "indexed": true,
          "internalType": "bytes32",
          "name": "role",
          "type": "bytes32"
        },
        {
          "indexed": true,
          "internalType": "address",
          "name": "account",
          "type": "address"
        },
        {
          "indexed": true,
          "internalType": "address",
          "name": "sender",
          "type": "address"
        }
      ],
      "name": "RoleRevoked",
      "type": "event"
    },
    {
      "anonymous": false,
      "inputs": [
        {
          "indexed": true,
          "internalType": "address",
          "name": "account",
          "type": "address"
        },
        {
          "indexed": false,
          "internalType": "uint256",
          "name": "amount",
          "type": "uint256"
        }
      ],
      "name": "StakeDeposited",
      "type": "event"
    },
    {
      "anonymous": false,
      "inputs": [
        {
          "indexed": false,
          "internalType": "address",
          "name": "account",
          "type": "address"
        }
      ],
      "name": "Unpaused",
      "type": "event"
    },
    {
      "anonymous": false,
      "inputs": [
        {
          "indexed": true,
          "internalType": "address",
          "name": "account",
          "type": "address"
        },
        {
          "indexed": false,
          "internalType": "uint256",
          "name": "amount",
          "type": "uint256"
        },
        {
          "indexed": false,
          "internalType": "uint256",
          "name": "reward",
          "type": "uint256"
        }
      ],
      "name": "WithdrawExecuted",
      "type": "event"
    },
    {
      "anonymous": false,
      "inputs": [
        {
          "indexed": true,
          "internalType": "address",
          "name": "account",
          "type": "address"
        },
        {
          "indexed": false,
          "internalType": "uint256",
          "name": "amount",
          "type": "uint256"
        }
      ],
      "name": "WithdrawInitiated",
      "type": "event"
    },
    {
      "inputs": [],
      "name": "DEFAULT_ADMIN_ROLE",
      "outputs": [
        {
          "internalType": "bytes32",
          "name": "",
          "type": "bytes32"
        }
      ],
      "stateMutability": "view",
      "type": "function"
    },
    {
      "inputs": [],
      "name": "currentTotalStake",
      "outputs": [
        {
          "internalType": "uint256",
          "name": "",
          "type": "uint256"
        }
      ],
      "stateMutability": "view",
      "type": "function"
    },
    {
      "inputs": [
        {
          "internalType": "bytes32",
          "name": "role",
          "type": "bytes32"
        }
      ],
      "name": "getRoleAdmin",
      "outputs": [
        {
          "internalType": "bytes32",
          "name": "",
          "type": "bytes32"
        }
      ],
      "stateMutability": "view",
      "type": "function"
    },
    {
      "inputs": [
        {
          "internalType": "bytes32",
          "name": "role",
          "type": "bytes32"
        },
        {
          "internalType": "uint256",
          "name": "index",
          "type": "uint256"
        }
      ],
      "name": "getRoleMember",
      "outputs": [
        {
          "internalType": "address",
          "name": "",
          "type": "address"
        }
      ],
      "stateMutability": "view",
      "type": "function"
    },
    {
      "inputs": [
        {
          "internalType": "bytes32",
          "name": "role",
          "type": "bytes32"
        }
      ],
      "name": "getRoleMemberCount",
      "outputs": [
        {
          "internalType": "uint256",
          "name": "",
          "type": "uint256"
        }
      ],
      "stateMutability": "view",
      "type": "function"
    },
    {
      "inputs": [
        {
          "internalType": "bytes32",
          "name": "role",
          "type": "bytes32"
        },
        {
          "internalType": "address",
          "name": "account",
          "type": "address"
        }
      ],
      "name": "grantRole",
      "outputs": [],
      "stateMutability": "nonpayable",
      "type": "function"
    },
    {
      "inputs": [
        {
          "internalType": "bytes32",
          "name": "role",
          "type": "bytes32"
        },
        {
          "internalType": "address",
          "name": "account",
          "type": "address"
        }
      ],
      "name": "hasRole",
      "outputs": [
        {
          "internalType": "bool",
          "name": "",
          "type": "bool"
        }
      ],
      "stateMutability": "view",
      "type": "function"
    },
    {
      "inputs": [],
      "name": "maxStakingAmount",
      "outputs": [
        {
          "internalType": "uint256",
          "name": "",
          "type": "uint256"
        }
      ],
      "stateMutability": "view",
      "type": "function"
    },
    {
      "inputs": [],
      "name": "paused",
      "outputs": [
        {
          "internalType": "bool",
          "name": "",
          "type": "bool"
        }
      ],
      "stateMutability": "view",
      "type": "function"
    },
    {
      "inputs": [
        {
          "internalType": "bytes32",
          "name": "role",
          "type": "bytes32"
        },
        {
          "internalType": "address",
          "name": "account",
          "type": "address"
        }
      ],
      "name": "renounceRole",
      "outputs": [],
      "stateMutability": "nonpayable",
      "type": "function"
    },
    {
      "inputs": [
        {
          "internalType": "bytes32",
          "name": "role",
          "type": "bytes32"
        },
        {
          "internalType": "address",
          "name": "account",
          "type": "address"
        }
      ],
      "name": "revokeRole",
      "outputs": [],
      "stateMutability": "nonpayable",
      "type": "function"
    },
    {
      "inputs": [],
      "name": "rewardsAddress",
      "outputs": [
        {
          "internalType": "address",
          "name": "",
          "type": "address"
        }
      ],
      "stateMutability": "view",
      "type": "function"
    },
    {
      "inputs": [],
      "name": "rewardsDistributed",
      "outputs": [
        {
          "internalType": "uint256",
          "name": "",
          "type": "uint256"
        }
      ],
      "stateMutability": "view",
      "type": "function"
    },
    {
      "inputs": [],
      "name": "rewardsWithdrawn",
      "outputs": [
        {
          "internalType": "uint256",
          "name": "",
          "type": "uint256"
        }
      ],
      "stateMutability": "view",
      "type": "function"
    },
    {
      "inputs": [],
      "name": "token",
      "outputs": [
        {
          "internalType": "contract IERC20",
          "name": "",
          "type": "address"
        }
      ],
      "stateMutability": "view",
      "type": "function"
    },
    {
      "inputs": [],
      "name": "totalRewardsDistributed",
      "outputs": [
        {
          "internalType": "uint256",
          "name": "",
          "type": "uint256"
        }
      ],
      "stateMutability": "view",
      "type": "function"
    },
    {
      "inputs": [],
      "name": "unstakingPeriod",
      "outputs": [
        {
          "internalType": "uint256",
          "name": "",
          "type": "uint256"
        }
      ],
      "stateMutability": "view",
      "type": "function"
    },
    {
      "inputs": [
        {
          "internalType": "address",
          "name": "_token",
          "type": "address"
        },
        {
          "internalType": "address",
          "name": "_rewardsAddress",
          "type": "address"
        },
        {
          "internalType": "uint256",
          "name": "_maxStakingAmount",
          "type": "uint256"
        },
        {
          "internalType": "uint256",
          "name": "_unstakingPeriod",
          "type": "uint256"
        }
      ],
      "name": "initialize",
      "outputs": [],
      "stateMutability": "nonpayable",
      "type": "function"
    },
    {
      "inputs": [],
      "name": "pause",
      "outputs": [],
      "stateMutability": "nonpayable",
      "type": "function"
    },
    {
      "inputs": [],
      "name": "unpause",
      "outputs": [],
      "stateMutability": "nonpayable",
      "type": "function"
    },
    {
      "inputs": [
        {
          "internalType": "address",
          "name": "_rewardsAddress",
          "type": "address"
        }
      ],
      "name": "setRewardAddress",
      "outputs": [],
      "stateMutability": "nonpayable",
      "type": "function"
    },
    {
      "inputs": [
        {
          "internalType": "address",
          "name": "_token",
          "type": "address"
        }
      ],
      "name": "setTokenAddress",
      "outputs": [],
      "stateMutability": "nonpayable",
      "type": "function"
    },
    {
      "inputs": [
        {
          "internalType": "uint256",
          "name": "amount",
          "type": "uint256"
        }
      ],
      "name": "deposit",
      "outputs": [],
      "stateMutability": "nonpayable",
      "type": "function"
    },
    {
      "inputs": [],
      "name": "initiateWithdrawal",
      "outputs": [],
      "stateMutability": "nonpayable",
      "type": "function"
    },
    {
      "inputs": [],
      "name": "executeWithdrawal",
      "outputs": [],
      "stateMutability": "nonpayable",
      "type": "function"
    },
    {
      "inputs": [],
      "name": "withdrawRewards",
      "outputs": [],
      "stateMutability": "nonpayable",
      "type": "function"
    },
    {
      "inputs": [
        {
          "internalType": "address",
          "name": "account",
          "type": "address"
        }
      ],
      "name": "getStakeDetails",
      "outputs": [
        {
          "internalType": "uint256",
          "name": "initialDeposit",
          "type": "uint256"
        },
        {
          "internalType": "uint256",
          "name": "startDate",
          "type": "uint256"
        },
        {
          "internalType": "uint256",
          "name": "endDate",
          "type": "uint256"
        },
        {
          "internalType": "uint256",
          "name": "rewards",
          "type": "uint256"
        }
      ],
      "stateMutability": "view",
      "type": "function"
    },
    {
      "inputs": [],
      "name": "distributeRewards",
      "outputs": [],
      "stateMutability": "nonpayable",
      "type": "function"
    },
    {
      "inputs": [],
      "name": "version",
      "outputs": [
        {
          "internalType": "string",
          "name": "",
          "type": "string"
        }
      ],
      "stateMutability": "pure",
      "type": "function"
    }
  ],
  "bytecode": "0x608060405234801561001057600080fd5b50613044806100206000396000f3fe608060405234801561001057600080fd5b50600436106101cf5760003560e01c8063a217fddf11610104578063ce4843e9116100a2578063f21c783b11610071578063f21c783b146104af578063f41322ac146104b7578063fa45aa0014610503578063fc0c546a1461050b576101cf565b8063ce4843e914610437578063d547741f1461043f578063eb990c591461046b578063ee172546146104a7576101cf565b8063c0973eed116100de578063c0973eed14610402578063c413d1001461040a578063c7b8981c14610412578063ca15c8731461041a576101cf565b8063a217fddf146103d5578063b51d1d4f146103dd578063b6b55f25146103e5576101cf565b80635c975abb116101715780638456cb591161014b5780638456cb591461035a5780639010d07c1461036257806391d14854146103a15780639c1454d4146103cd576101cf565b80635c975abb146103105780635e00e6791461032c5780636f4a2cd014610352576101cf565b806336568abe116101ad57806336568abe146102575780633f4ba83a146102835780634d5d08061461028b57806354fd4d5014610293576101cf565b8063248a9ca3146101d457806326a4e8d2146102035780632f2ff15d1461022b575b600080fd5b6101f1600480360360208110156101ea57600080fd5b5035610513565b60408051918252519081900360200190f35b6102296004803603602081101561021957600080fd5b50356001600160a01b0316610528565b005b6102296004803603604081101561024157600080fd5b50803590602001356001600160a01b0316610697565b6102296004803603604081101561026d57600080fd5b50803590602001356001600160a01b03166106fe565b61022961075f565b6101f16107d0565b61029b6107d6565b6040805160208082528351818301528351919283929083019185019080838360005b838110156102d55781810151838201526020016102bd565b50505050905090810190601f1680156103025780820380516001836020036101000a031916815260200191505b509250505060405180910390f35b6103186107f2565b604080519115158252519081900360200190f35b6102296004803603602081101561034257600080fd5b50356001600160a01b03166107fb565b610229610963565b610229610a88565b6103856004803603604081101561037857600080fd5b5080359060200135610af7565b604080516001600160a01b039092168252519081900360200190f35b610318600480360360408110156103b757600080fd5b50803590602001356001600160a01b0316610b1e565b6101f1610b3c565b6101f1610b43565b610229610b48565b610229600480360360208110156103fb57600080fd5b5035610cef565b610385611120565b6101f161112f565b610229611136565b6101f16004803603602081101561043057600080fd5b5035611432565b6101f1611449565b6102296004803603604081101561045557600080fd5b50803590602001356001600160a01b031661144f565b6102296004803603608081101561048157600080fd5b506001600160a01b038135811691602081013590911690604081013590606001356114a8565b6101f1611509565b6101f1611510565b6104dd600480360360208110156104cd57600080fd5b50356001600160a01b0316611516565b604080519485526020850193909352838301919091526060830152519081900360800190f35b610229611625565b610385611a3b565b60009081526065602052604090206002015490565b8061053b816001600160a01b0316611a4a565b6105765760405162461bcd60e51b8152600401808060200182810382526034815260200180612b526034913960400191505060405180910390fd5b60975460ff166105c4576040805162461bcd60e51b815260206004820152601460248201527314185d5cd8589b194e881b9bdd081c185d5cd95960621b604482015290519081900360640190fd5b60408051694f574e45525f524f4c4560b01b8152905190819003600a0190206105f4906105ef611a86565b610b1e565b61062f5760405162461bcd60e51b8152600401808060200182810382526041815260200180612be56041913960600191505060405180910390fd5b6001600160a01b0382166106745760405162461bcd60e51b8152600401808060200182810382526027815260200180612d0e6027913960400191505060405180910390fd5b5060fb80546001600160a01b0319166001600160a01b0392909216919091179055565b6000828152606560205260409020600201546106b5906105ef611a86565b6106f05760405162461bcd60e51b815260040180806020018281038252602f8152602001806128e7602f913960400191505060405180910390fd5b6106fa8282611a8a565b5050565b610706611a86565b6001600160a01b0316816001600160a01b0316146107555760405162461bcd60e51b815260040180806020018281038252602f815260200180612fe0602f913960400191505060405180910390fd5b6106fa8282611af9565b604080516a5041555345525f524f4c4560a81b8152905190819003600b01902061078b906105ef611a86565b6107c65760405162461bcd60e51b8152600401808060200182810382526035815260200180612aaa6035913960400191505060405180910390fd5b6107ce611b68565b565b60fd5481565b6040805180820190915260028152613b1960f11b602082015290565b60975460ff1690565b60975460ff16610849576040805162461bcd60e51b815260206004820152601460248201527314185d5cd8589b194e881b9bdd081c185d5cd95960621b604482015290519081900360640190fd5b60408051694f574e45525f524f4c4560b01b8152905190819003600a019020610874906105ef611a86565b6108af5760405162461bcd60e51b8152600401808060200182810382526043815260200180612b0f6043913960600191505060405180910390fd5b6001600160a01b0381166108f45760405162461bcd60e51b81526004018080602001828103825260308152602001806129cd6030913960400191505060405180910390fd5b60fc546001600160a01b03828116911614156109415760405162461bcd60e51b815260040180806020018281038252603c815260200180612991603c913960400191505060405180910390fd5b60fc80546001600160a01b0319166001600160a01b0392909216919091179055565b60c95460ff166109a8576040805162461bcd60e51b815260206004820152601f6024820152600080516020612916833981519152604482015290519081900360640190fd5b60c9805460ff1916905560975460ff16156109fd576040805162461bcd60e51b815260206004820152601060248201526f14185d5cd8589b194e881c185d5cd95960821b604482015290519081900360640190fd5b6040805177524557415244535f4449535452494255544f525f524f4c4560401b81529051908190036018019020610a36906105ef611a86565b610a715760405162461bcd60e51b815260040180806020018281038252603a815260200180612e4d603a913960400191505060405180910390fd5b610a79611c06565b60c9805460ff19166001179055565b604080516a5041555345525f524f4c4560a81b8152905190819003600b019020610ab4906105ef611a86565b610aef5760405162461bcd60e51b8152600401808060200182810382526033815260200180612eba6033913960400191505060405180910390fd5b6107ce611e97565b6000828152606560205260408120610b15908363ffffffff611f1816565b90505b92915050565b6000828152606560205260408120610b15908363ffffffff611f2416565b6101015481565b600081565b60c95460ff16610b8d576040805162461bcd60e51b815260206004820152601f6024820152600080516020612916833981519152604482015290519081900360640190fd5b60c9805460ff1916905560975460ff1615610be2576040805162461bcd60e51b815260206004820152601060248201526f14185d5cd8589b194e881c185d5cd95960821b604482015290519081900360640190fd5b33600090815261010460205260409020600581015460ff168015610c065750805415155b610c415760405162461bcd60e51b8152600401808060200182810382526040815260200180612fa06040913960400191505060405180910390fd5b600281015415610c825760405162461bcd60e51b815260040180806020018281038252603f815260200180612a6b603f913960400191505060405180910390fd5b426002820155610100546004820155805460fe54610ca59163ffffffff611f3916565b60fe558054604080519182525133917f15e1f18cd8cc91e09c1a1a056f1d8e61884aec50ad8502f88defaa64820e8fc2919081900360200190a25060c9805460ff19166001179055565b60c95460ff16610d34576040805162461bcd60e51b815260206004820152601f6024820152600080516020612916833981519152604482015290519081900360640190fd5b60c9805460ff1916905560975460ff1615610d89576040805162461bcd60e51b815260206004820152601060248201526f14185d5cd8589b194e881c185d5cd95960821b604482015290519081900360640190fd5b33600090815261010460205260409020600281015415610dda5760405162461bcd60e51b8152600401808060200182810382526033815260200180612e876033913960400191505060405180910390fd5b80546040805160c081018252828152600184015460208201526002840154918101919091526003830154606082015260048301546080820152600583015460ff16151560a0820152600090610e2e90611f7b565b90506000610e5282610e46858863ffffffff611feb16565b9063ffffffff611feb16565b9050828111610e925760405162461bcd60e51b8152600401808060200182810382526036815260200180612a356036913960400191505060405180910390fd5b6000610eb6610ea7838663ffffffff611f3916565b60fe549063ffffffff611feb16565b905060fd54811115610ef95760405162461bcd60e51b815260040180806020018281038252603d815260200180612c9b603d913960400191505060405180910390fd5b8185554260018087019190915560058601805460ff1916909117905561010054600386015560fe81905560fb54604080516323b872dd60e01b81523360048201523060248201526044810189905290516001600160a01b03909216916323b872dd916064808201926020929091908290030181600087803b158015610f7d57600080fd5b505af1158015610f91573d6000803e3d6000fd5b505050506040513d6020811015610fa757600080fd5b5051610fe45760405162461bcd60e51b8152600401808060200182810382526038815260200180612dd76038913960400191505060405180910390fd5b82156110c85761010254610ffe908463ffffffff611feb16565b6101025560fb5460fc54604080516323b872dd60e01b81526001600160a01b03928316600482015230602482015260448101879052905191909216916323b872dd9160648083019260209291908290030181600087803b15801561106157600080fd5b505af1158015611075573d6000803e3d6000fd5b505050506040513d602081101561108b57600080fd5b50516110c85760405162461bcd60e51b81526004018080602001828103825260388152602001806129fd6038913960400191505060405180910390fd5b337f0a7bb2e28cc4698aac06db79cf9163bfcc20719286cf59fa7d492ceda1b8edc26110fa888663ffffffff611feb16565b60408051918252519081900360200190a2505060c9805460ff1916600117905550505050565b60fc546001600160a01b031681565b6101025481565b60c95460ff1661117b576040805162461bcd60e51b815260206004820152601f6024820152600080516020612916833981519152604482015290519081900360640190fd5b60c9805460ff1916905560975460ff16156111d0576040805162461bcd60e51b815260206004820152601060248201526f14185d5cd8589b194e881c185d5cd95960821b604482015290519081900360640190fd5b33600090815261010460205260409020600581015460ff1680156111f45750805415155b61122f5760405162461bcd60e51b815260040180806020018281038252603f815260200180612eed603f913960400191505060405180910390fd5b6002810154156112705760405162461bcd60e51b815260040180806020018281038252603e815260200180612e0f603e913960400191505060405180910390fd5b6040805160c08101825282548152600183015460208201526002830154918101919091526003820154606082015260048201546080820152600582015460ff16151560a08201526000906112c390611f7b565b9050600081116113045760405162461bcd60e51b815260040180806020018281038252603e815260200180612f62603e913960400191505060405180910390fd5b61010054600383015561010254611321908263ffffffff611feb16565b6101025560fb5460fc54604080516323b872dd60e01b81526001600160a01b03928316600482015233602482015260448101859052905191909216916323b872dd9160648083019260209291908290030181600087803b15801561138457600080fd5b505af1158015611398573d6000803e3d6000fd5b505050506040513d60208110156113ae57600080fd5b50516113eb5760405162461bcd60e51b8152600401808060200182810382526048815260200180612d8f6048913960600191505060405180910390fd5b60408051828152905133917f8a43c4352486ec339f487f64af78ca5cbf06cd47833f073d3baf3a193e503161919081900360200190a2505060c9805460ff19166001179055565b6000818152606560205260408120610b1890612045565b60fe5481565b60008281526065602052604090206002015461146d906105ef611a86565b6107555760405162461bcd60e51b8152600401808060200182810382526030815260200180612adf6030913960400191505060405180910390fd5b836114bb816001600160a01b0316611a4a565b6114f65760405162461bcd60e51b8152600401808060200182810382526034815260200180612b526034913960400191505060405180910390fd5b61150285858585612050565b5050505050565b6101035481565b60ff5481565b6001600160a01b0381166000908152610104602052604081206005015481908190819060ff16801561156057506001600160a01b0385166000908152610104602052604090205415155b61159b5760405162461bcd60e51b8152600401808060200182810382526036815260200180612f2c6036913960400191505060405180910390fd5b6115a3612860565b506001600160a01b03851660009081526101046020908152604091829020825160c081018452815480825260018301549382018490526002830154948201859052600383015460608301526004830154608083015260059092015460ff16151560a08201529290919061161584611f7b565b9450945094509450509193509193565b60c95460ff1661166a576040805162461bcd60e51b815260206004820152601f6024820152600080516020612916833981519152604482015290519081900360640190fd5b60c9805460ff1916905560975460ff16156116bf576040805162461bcd60e51b815260206004820152601060248201526f14185d5cd8589b194e881c185d5cd95960821b604482015290519081900360640190fd5b6116c7612860565b503360009081526101046020908152604091829020825160c08101845281548152600182015492810192909252600281015492820192909252600382015460608201526004820154608082015260059091015460ff1615801560a08301819052906117325750805115155b61176d5760405162461bcd60e51b815260040180806020018281038252603581526020018061295c6035913960400191505060405180910390fd5b60408101516117ad5760405162461bcd60e51b81526004018080602001828103825260268152602001806129366026913960400191505060405180910390fd5b60006201518082604001514203816117c157fe5b0490508060ff5411156118055760405162461bcd60e51b815260040180806020018281038252602c8152602001806128bb602c913960400191505060405180910390fd5b8151600061181284611f7b565b3360008181526101046020908152604080832083815560018101849055600281018490556003810184905560048082018590556005909101805460ff1916905560fb54825163a9059cbb60e01b8152918201959095526024810188905290519495506001600160a01b039093169363a9059cbb93604480820194918390030190829087803b1580156118a357600080fd5b505af11580156118b7573d6000803e3d6000fd5b505050506040513d60208110156118cd57600080fd5b505161190a5760405162461bcd60e51b8152600401808060200182810382526047815260200180612c546047913960600191505060405180910390fd5b80156119ee5761010254611924908263ffffffff611feb16565b6101025560fb5460fc54604080516323b872dd60e01b81526001600160a01b03928316600482015233602482015260448101859052905191909216916323b872dd9160648083019260209291908290030181600087803b15801561198757600080fd5b505af115801561199b573d6000803e3d6000fd5b505050506040513d60208110156119b157600080fd5b50516119ee5760405162461bcd60e51b815260040180806020018281038252603e815260200180612ba7603e913960400191505060405180910390fd5b6040805183815260208101839052815133927ff6c0fc94edc8fd2a37514f1fb85af88fca386b00a54127b912273e6b83322e08928290030190a2505060c9805460ff191660011790555050565b60fb546001600160a01b031681565b6000813f7fc5d2460186f7233c927e7db2dcc703c0e500b653ca82273b7bfad8045d85a470818114801590611a7e57508115155b949350505050565b3390565b6000828152606560205260409020611aa8908263ffffffff6121df16565b156106fa57611ab5611a86565b6001600160a01b0316816001600160a01b0316837f2f8788117e7eff1d82e926ec794901d17c78024a50270940304540a733656f0d60405160405180910390a45050565b6000828152606560205260409020611b17908263ffffffff6121f416565b156106fa57611b24611a86565b6001600160a01b0316816001600160a01b0316837ff6391f5c32d9c69d2a47ea670b442974b53935d1edc7fd64eb21e047a839171b60405160405180910390a45050565b60975460ff16611bb6576040805162461bcd60e51b815260206004820152601460248201527314185d5cd8589b194e881b9bdd081c185d5cd95960621b604482015290519081900360640190fd5b6097805460ff191690557f5db9ee0a495bf2e6ff9c91a7834c1ba4fdd244a5e8aa4e537bd38aeae4b073aa611be9611a86565b604080516001600160a01b039092168252519081900360200190a1565b60975460ff1615611c51576040805162461bcd60e51b815260206004820152601060248201526f14185d5cd8589b194e881c185d5cd95960821b604482015290519081900360640190fd5b6040805177524557415244535f4449535452494255544f525f524f4c4560401b81529051908190036018019020611c8a906105ef611a86565b611cc55760405162461bcd60e51b815260040180806020018281038252603a815260200180612e4d603a913960400191505060405180910390fd5b600060fe5411611d065760405162461bcd60e51b815260040180806020018281038252602f815260200180612d60602f913960400191505060405180910390fd5b60fb5460fc54604080516370a0823160e01b81526001600160a01b039283166004820152905160009392909216916370a0823191602480820192602092909190829003018186803b158015611d5a57600080fd5b505afa158015611d6e573d6000803e3d6000fd5b505050506040513d6020811015611d8457600080fd5b5051905080611dc45760405162461bcd60e51b815260040180806020018281038252602b815260200180612d35602b913960400191505060405180910390fd5b6000611def61010154611de36101025485611feb90919063ffffffff16565b9063ffffffff611f3916565b90506000611e2060fe54611e14670de0b6b3a76400008561220990919063ffffffff16565b9063ffffffff61226216565b61010054909150611e37908263ffffffff611feb16565b6101005561010183905560006101025561010354611e5b908363ffffffff611feb16565b610103556040805183815290517f6d1c76d614228b523baa4dcd9539e2c713b54ff4ab3ff2d1627e7f6cd32be4429181900360200190a1505050565b60975460ff1615611ee2576040805162461bcd60e51b815260206004820152601060248201526f14185d5cd8589b194e881c185d5cd95960821b604482015290519081900360640190fd5b6097805460ff191660011790557f62e78cea01bee320cd4e420270b5ea74000d11b0c9f74754ebdbfc544b05a258611be9611a86565b6000610b1583836122a4565b6000610b15836001600160a01b038416612308565b6000610b1583836040518060400160405280601e81526020017f536166654d6174683a207375627472616374696f6e206f766572666c6f770000815250612320565b60408101516000908190611fa857606083015161010054611fa19163ffffffff611f3916565b9050611fc4565b60608301516080840151611fc19163ffffffff611f3916565b90505b8251611fe490670de0b6b3a764000090611e14908463ffffffff61220916565b9392505050565b600082820183811015610b15576040805162461bcd60e51b815260206004820152601b60248201527f536166654d6174683a206164646974696f6e206f766572666c6f770000000000604482015290519081900360640190fd5b6000610b18826123b7565b600054610100900460ff168061206957506120696123bb565b80612077575060005460ff16155b6120b25760405162461bcd60e51b815260040180806020018281038252602e815260200180612c26602e913960400191505060405180910390fd5b600054610100900460ff161580156120dd576000805460ff1961ff0019909116610100171660011790555b6001600160a01b0385166121225760405162461bcd60e51b8152600401808060200182810382526027815260200180612d0e6027913960400191505060405180910390fd5b600083116121615760405162461bcd60e51b8152600401808060200182810382526036815260200180612cd86036913960400191505060405180910390fd5b6121696123c1565b6121716123c1565b612179612463565b61218161250e565b6121896125bc565b612191610a88565b61219a846107fb565b6121a261075f565b60fb80546001600160a01b0319166001600160a01b03871617905560fd83905560ff8290558015611502576000805461ff00191690555050505050565b6000610b15836001600160a01b0384166126eb565b6000610b15836001600160a01b038416612735565b60008261221857506000610b18565b8282028284828161222557fe5b0414610b155760405162461bcd60e51b8152600401808060200182810382526021815260200180612b866021913960400191505060405180910390fd5b6000610b1583836040518060400160405280601a81526020017f536166654d6174683a206469766973696f6e206279207a65726f0000000000008152506127fb565b815460009082106122e65760405162461bcd60e51b81526004018080602001828103825260228152602001806128996022913960400191505060405180910390fd5b8260000182815481106122f557fe5b9060005260206000200154905092915050565b60009081526001919091016020526040902054151590565b600081848411156123af5760405162461bcd60e51b81526004018080602001828103825283818151815260200191508051906020019080838360005b8381101561237457818101518382015260200161235c565b50505050905090810190601f1680156123a15780820380516001836020036101000a031916815260200191505b509250505060405180910390fd5b505050900390565b5490565b303b1590565b600054610100900460ff16806123da57506123da6123bb565b806123e8575060005460ff16155b6124235760405162461bcd60e51b815260040180806020018281038252602e815260200180612c26602e913960400191505060405180910390fd5b600054610100900460ff1615801561244e576000805460ff1961ff0019909116610100171660011790555b8015612460576000805461ff00191690555b50565b600054610100900460ff168061247c575061247c6123bb565b8061248a575060005460ff16155b6124c55760405162461bcd60e51b815260040180806020018281038252602e815260200180612c26602e913960400191505060405180910390fd5b600054610100900460ff161580156124f0576000805460ff1961ff0019909116610100171660011790555b6097805460ff191690558015612460576000805461ff001916905550565b600054610100900460ff168061252757506125276123bb565b80612535575060005460ff16155b6125705760405162461bcd60e51b815260040180806020018281038252602e815260200180612c26602e913960400191505060405180910390fd5b600054610100900460ff1615801561259b576000805460ff1961ff0019909116610100171660011790555b60c9805460ff191660011790558015612460576000805461ff001916905550565b600054610100900460ff16806125d557506125d56123bb565b806125e3575060005460ff16155b61261e5760405162461bcd60e51b815260040180806020018281038252602e815260200180612c26602e913960400191505060405180910390fd5b600054610100900460ff16158015612649576000805460ff1961ff0019909116610100171660011790555b61265b6000612656611a86565b6106f0565b604080516a5041555345525f524f4c4560a81b8152905190819003600b01902061268790612656611a86565b60408051694f574e45525f524f4c4560b01b8152905190819003600a0190206126b290612656611a86565b6040805177524557415244535f4449535452494255544f525f524f4c4560401b8152905190819003601801902061244e90612656611a86565b60006126f78383612308565b61272d57508154600181810184556000848152602080822090930184905584548482528286019093526040902091909155610b18565b506000610b18565b600081815260018301602052604081205480156127f1578354600019808301919081019060009087908390811061276857fe5b906000526020600020015490508087600001848154811061278557fe5b6000918252602080832090910192909255828152600189810190925260409020908401905586548790806127b557fe5b60019003818190600052602060002001600090559055866001016000878152602001908152602001600020600090556001945050505050610b18565b6000915050610b18565b6000818361284a5760405162461bcd60e51b815260206004820181815283516024840152835190928392604490910191908501908083836000831561237457818101518382015260200161235c565b50600083858161285657fe5b0495945050505050565b6040518060c001604052806000815260200160008152602001600081526020016000815260200160008152602001600015158152509056fe456e756d657261626c655365743a20696e646578206f7574206f6620626f756e64735b57697468647261775d2054686520756e7374616b696e6720706572696f6420646964206e6f742070617373416363657373436f6e74726f6c3a2073656e646572206d75737420626520616e2061646d696e20746f206772616e745265656e7472616e637947756172643a207265656e7472616e742063616c6c005b57697468647261775d205769746864726177206973206e6f7420696e697469616c697a65645b57697468647261775d205468657265206973206e6f207374616b65206465706f73697420666f722074686973206163636f756e745b56616c69646174696f6e5d205f726577617264734164647265737320697320616c72656164792073657420746f20676976656e20616464726573735b56616c69646174696f6e5d205f726577617264734164647265737320697320746865207a65726f20616464726573735b4465706f7369745d20536f6d657468696e672077656e742077726f6e67207768696c65207472616e7366657272696e67207265776172645b56616c69646174696f6e5d20546865207374616b65206465706f7369742068617320746f206265206c6172676572207468616e20305b496e697469617465205769746864726177616c5d20596f75206861766520616c726561647920696e6974696174656420746865207769746864726177616c537761705374616b696e67436f6e74726163743a206d75737420686176652070617573657220726f6c6520746f20756e7061757365416363657373436f6e74726f6c3a2073656e646572206d75737420626520616e2061646d696e20746f207265766f6b655b56616c69646174696f6e5d205468652063616c6c6572206d7573742068617665206f776e657220726f6c6520746f20736574207265776172647320616464726573735b56616c69646174696f6e5d20546865206164647265737320646f6573206e6f7420636f6e7461696e206120636f6e7472616374536166654d6174683a206d756c7469706c69636174696f6e206f766572666c6f775b57697468647261775d20536f6d657468696e672077656e742077726f6e67207768696c65207472616e7366657272696e6720796f7572207265776172645b56616c69646174696f6e5d205468652063616c6c6572206d7573742068617665206f776e657220726f6c6520746f2073657420746f6b656e2061646472657373436f6e747261637420696e7374616e63652068617320616c7265616479206265656e20696e697469616c697a65645b57697468647261775d20536f6d657468696e672077656e742077726f6e67207768696c65207472616e7366657272696e6720796f757220696e697469616c206465706f7369745b4465706f7369745d20596f7572206465706f73697420776f756c6420657863656564207468652063757272656e74207374616b696e67206c696d69745b56616c69646174696f6e5d205f6d61785374616b696e67416d6f756e742068617320746f206265206c6172676572207468616e20305b56616c69646174696f6e5d20496e76616c6964207377617020746f6b656e20616464726573735b56616c69646174696f6e5d206e6f7420656e6f756768207265776172647320616363756d756c617465645b56616c69646174696f6e5d206e6f7420656e6f75676820746f74616c207374616b6520616363756d756c617465645b52657761726473205769746864726177616c5d20536f6d657468696e672077656e742077726f6e67207768696c65207472616e7366657272696e6720796f7572207265776172645b4465706f7369745d20536f6d657468696e672077656e742077726f6e6720647572696e672074686520746f6b656e207472616e736665725b52657761726473205769746864726177616c5d20596f7520616c726561647920696e69746961746564207468652066756c6c207769746864726177616c5b56616c69646174696f6e5d205468652063616c6c6572206d75737420686176652072657761726473206469737472696275746f7220726f6c655b4465706f7369745d20596f75206861766520616c726561647920696e6974696174656420746865207769746864726177616c537761705374616b696e67436f6e74726163743a206d75737420686176652070617573657220726f6c6520746f2070617573655b52657761726473205769746864726177616c5d205468657265206973206e6f207374616b65206465706f73697420666f722074686973206163636f756e745b56616c69646174696f6e5d2054686973206163636f756e7420646f65736e277420686176652061207374616b65206465706f7369745b52657761726473205769746864726177616c5d205468652072657761726420616d6f756e742068617320746f206265206c6172676572207468616e20305b496e697469617465205769746864726177616c5d205468657265206973206e6f207374616b65206465706f73697420666f722074686973206163636f756e74416363657373436f6e74726f6c3a2063616e206f6e6c792072656e6f756e636520726f6c657320666f722073656c66a2646970667358221220a8a1fd632b79113fd3fc92b097dab359307fe48260bcf29de91fbf91a115d4d064736f6c63430006020033",
  "source": "pragma solidity 0.6.2;\n\nimport \"@openzeppelin/contracts-ethereum-package/contracts/math/SafeMath.sol\";\nimport \"@openzeppelin/contracts-ethereum-package/contracts/math/Math.sol\";\nimport \"@openzeppelin/contracts-ethereum-package/contracts/utils/Address.sol\";\nimport \"@openzeppelin/contracts-ethereum-package/contracts/utils/Arrays.sol\";\nimport \"@openzeppelin/contracts-ethereum-package/contracts/utils/ReentrancyGuard.sol\";\nimport \"@openzeppelin/contracts-ethereum-package/contracts/utils/Pausable.sol\";\nimport \"@openzeppelin/contracts-ethereum-package/contracts/token/ERC20/IERC20.sol\";\nimport \"@openzeppelin/contracts-ethereum-package/contracts/access/AccessControl.sol\";\n\ncontract SwapStakingContract is Initializable, ContextUpgradeSafe, AccessControlUpgradeSafe, PausableUpgradeSafe, ReentrancyGuardUpgradeSafe {\n\n    using SafeMath for uint256;\n    using Math for uint256;\n    using Address for address;\n    using Arrays for uint256[];\n\n    bytes32 private constant PAUSER_ROLE = keccak256(\"PAUSER_ROLE\");\n    bytes32 private constant OWNER_ROLE = keccak256(\"OWNER_ROLE\");\n    bytes32 private constant REWARDS_DISTRIBUTOR_ROLE = keccak256(\"REWARDS_DISTRIBUTOR_ROLE\");\n\n    // EVENTS\n    event StakeDeposited(address indexed account, uint256 amount);\n    event WithdrawInitiated(address indexed account, uint256 amount);\n    event WithdrawExecuted(address indexed account, uint256 amount, uint256 reward);\n    event RewardsWithdrawn(address indexed account, uint256 reward);\n    event RewardsDistributed(uint256 amount);\n\n    // STRUCT DECLARATIONS\n    struct StakeDeposit {\n        uint256 amount;\n        uint256 startDate;\n        uint256 endDate;\n        uint256 entryRewardPoints;\n        uint256 exitRewardPoints;\n        bool exists;\n    }\n\n    // CONTRACT STATE VARIABLES\n    IERC20 public token;\n    address public rewardsAddress;\n    uint256 public maxStakingAmount;\n    uint256 public currentTotalStake;\n    uint256 public unstakingPeriod;\n\n    //reward calculations\n    uint256 private totalRewardPoints;\n    uint256 public rewardsDistributed;\n    uint256 public rewardsWithdrawn;\n    uint256 public totalRewardsDistributed;\n\n    mapping(address => StakeDeposit) private _stakeDeposits;\n\n    // MODIFIERS\n    modifier guardMaxStakingLimit(uint256 amount)\n    {\n        uint256 resultedStakedAmount = currentTotalStake.add(amount);\n        require(resultedStakedAmount <= maxStakingAmount, \"[Deposit] Your deposit would exceed the current staking limit\");\n        _;\n    }\n\n    modifier onlyContract(address account)\n    {\n        require(account.isContract(), \"[Validation] The address does not contain a contract\");\n        _;\n    }\n\n    // PUBLIC FUNCTIONS\n    function initialize(address _token, address _rewardsAddress, uint256 _maxStakingAmount, uint256 _unstakingPeriod)\n    public\n    onlyContract(_token)\n    {\n        __SwapStakingContract_init(_token, _rewardsAddress, _maxStakingAmount, _unstakingPeriod);\n    }\n\n    function __SwapStakingContract_init(address _token, address _rewardsAddress, uint256 _maxStakingAmount, uint256 _unstakingPeriod)\n    internal\n    initializer\n    {\n        require(\n            _token != address(0),\n            \"[Validation] Invalid swap token address\"\n        );\n        require(_maxStakingAmount > 0, \"[Validation] _maxStakingAmount has to be larger than 0\");\n        __Context_init_unchained();\n        __AccessControl_init_unchained();\n        __Pausable_init_unchained();\n        __ReentrancyGuard_init_unchained();\n        __SwapStakingContract_init_unchained();\n\n        pause();\n        setRewardAddress(_rewardsAddress);\n        unpause();\n\n        token = IERC20(_token);\n        maxStakingAmount = _maxStakingAmount;\n        unstakingPeriod = _unstakingPeriod;\n    }\n\n    function __SwapStakingContract_init_unchained()\n    internal\n    initializer\n    {\n        _setupRole(DEFAULT_ADMIN_ROLE, _msgSender());\n        _setupRole(PAUSER_ROLE, _msgSender());\n        _setupRole(OWNER_ROLE, _msgSender());\n        _setupRole(REWARDS_DISTRIBUTOR_ROLE, _msgSender());\n    }\n\n    function pause()\n    public\n    {\n        require(hasRole(PAUSER_ROLE, _msgSender()), \"SwapStakingContract: must have pauser role to pause\");\n        _pause();\n    }\n\n    function unpause()\n    public\n    {\n        require(hasRole(PAUSER_ROLE, _msgSender()), \"SwapStakingContract: must have pauser role to unpause\");\n        _unpause();\n    }\n\n    function setRewardAddress(address _rewardsAddress)\n    public\n    whenPaused\n    {\n        require(hasRole(OWNER_ROLE, _msgSender()), \"[Validation] The caller must have owner role to set rewards address\");\n        require(_rewardsAddress != address(0), \"[Validation] _rewardsAddress is the zero address\");\n        require(_rewardsAddress != rewardsAddress, \"[Validation] _rewardsAddress is already set to given address\");\n        rewardsAddress = _rewardsAddress;\n    }\n\n    function setTokenAddress(address _token)\n    external\n    onlyContract(_token)\n    whenPaused\n    {\n        require(hasRole(OWNER_ROLE, _msgSender()), \"[Validation] The caller must have owner role to set token address\");\n        require(\n            _token != address(0),\n            \"[Validation] Invalid swap token address\"\n        );\n        token = IERC20(_token);\n    }\n\n    function deposit(uint256 amount)\n    external\n    nonReentrant\n    whenNotPaused\n    {\n        StakeDeposit storage stakeDeposit = _stakeDeposits[msg.sender];\n        require(stakeDeposit.endDate == 0, \"[Deposit] You have already initiated the withdrawal\");\n\n        uint256 oldPrincipal = stakeDeposit.amount;\n        uint256 reward = _computeReward(stakeDeposit);\n        uint256 newPrincipal = oldPrincipal.add(amount).add(reward);\n        require(newPrincipal > oldPrincipal, \"[Validation] The stake deposit has to be larger than 0\");\n\n        uint256 resultedStakedAmount = currentTotalStake.add(newPrincipal.sub(oldPrincipal));\n        require(resultedStakedAmount <= maxStakingAmount, \"[Deposit] Your deposit would exceed the current staking limit\");\n\n        stakeDeposit.amount = newPrincipal;\n        stakeDeposit.startDate = block.timestamp;\n        stakeDeposit.exists = true;\n        stakeDeposit.entryRewardPoints = totalRewardPoints;\n\n        currentTotalStake = resultedStakedAmount;\n\n        // Transfer the Tokens to this contract\n        require(token.transferFrom(msg.sender, address(this), amount), \"[Deposit] Something went wrong during the token transfer\");\n        \n        if( reward > 0 ) {\n            //calculate withdrawed rewards in single distribution cycle\n            rewardsWithdrawn = rewardsWithdrawn.add(reward);\n            require(token.transferFrom(rewardsAddress, address(this), reward), \"[Deposit] Something went wrong while transferring reward\");\n        }\n        \n        emit StakeDeposited(msg.sender, amount.add(reward));\n    }\n\n    function initiateWithdrawal()\n    external\n    nonReentrant\n    whenNotPaused\n    {\n        StakeDeposit storage stakeDeposit = _stakeDeposits[msg.sender];\n        require(stakeDeposit.exists && stakeDeposit.amount != 0, \"[Initiate Withdrawal] There is no stake deposit for this account\");\n        require(stakeDeposit.endDate == 0, \"[Initiate Withdrawal] You have already initiated the withdrawal\");\n\n        stakeDeposit.endDate = block.timestamp;\n        stakeDeposit.exitRewardPoints = totalRewardPoints;\n\n        currentTotalStake = currentTotalStake.sub(stakeDeposit.amount);\n\n        emit WithdrawInitiated(msg.sender, stakeDeposit.amount);\n    }\n\n    function executeWithdrawal()\n    external\n    nonReentrant\n    whenNotPaused\n    {\n        StakeDeposit memory stakeDeposit = _stakeDeposits[msg.sender];\n        require(stakeDeposit.exists && stakeDeposit.amount != 0, \"[Withdraw] There is no stake deposit for this account\");\n        require(stakeDeposit.endDate != 0, \"[Withdraw] Withdraw is not initialized\");\n\n        // validate enough days have passed from initiating the withdrawal\n        uint256 daysPassed = (block.timestamp - stakeDeposit.endDate) / 1 days;\n        require(unstakingPeriod <= daysPassed, \"[Withdraw] The unstaking period did not pass\");\n\n        uint256 amount = stakeDeposit.amount;\n        uint256 reward = _computeReward(stakeDeposit);\n\n        delete _stakeDeposits[msg.sender];\n\n        require(token.transfer(msg.sender, amount), \"[Withdraw] Something went wrong while transferring your initial deposit\");\n        \n        if( reward > 0 ) {\n            //calculate withdrawed rewards in single distribution cycle\n            rewardsWithdrawn = rewardsWithdrawn.add(reward);\n            require(token.transferFrom(rewardsAddress, msg.sender, reward), \"[Withdraw] Something went wrong while transferring your reward\");\n        }\n\n        emit WithdrawExecuted(msg.sender, amount, reward);\n    }\n\n    function withdrawRewards()\n    external\n    nonReentrant\n    whenNotPaused\n    {\n        StakeDeposit storage stakeDeposit = _stakeDeposits[msg.sender];\n        require(stakeDeposit.exists && stakeDeposit.amount != 0, \"[Rewards Withdrawal] There is no stake deposit for this account\");\n        require(stakeDeposit.endDate == 0, \"[Rewards Withdrawal] You already initiated the full withdrawal\");\n\n        uint256 reward = _computeReward(stakeDeposit);\n\n        require(reward > 0, \"[Rewards Withdrawal] The reward amount has to be larger than 0\");\n        \n        stakeDeposit.entryRewardPoints = totalRewardPoints;\n\n        //calculate withdrawed rewards in single distribution cycle\n        rewardsWithdrawn = rewardsWithdrawn.add(reward);\n\n        require(token.transferFrom(rewardsAddress, msg.sender, reward), \"[Rewards Withdrawal] Something went wrong while transferring your reward\");\n\n        emit RewardsWithdrawn(msg.sender, reward);\n    }\n\n    // VIEW FUNCTIONS FOR HELPING THE USER AND CLIENT INTERFACE\n    function getStakeDetails(address account)\n    external\n    view\n    returns (uint256 initialDeposit, uint256 startDate, uint256 endDate, uint256 rewards)\n    {\n        require(_stakeDeposits[account].exists && _stakeDeposits[account].amount != 0, \"[Validation] This account doesn't have a stake deposit\");\n\n        StakeDeposit memory s = _stakeDeposits[account];\n\n        return (s.amount, s.startDate, s.endDate, _computeReward(s));\n    }\n\n    function _computeReward(StakeDeposit memory stakeDeposit)\n    private\n    view\n    returns (uint256)\n    {\n        uint256 rewardsPoints = 0;\n\n        if ( stakeDeposit.endDate == 0 )\n        {\n            rewardsPoints = totalRewardPoints.sub(stakeDeposit.entryRewardPoints);\n        }\n        else\n        {\n            //withdrawal is initiated\n            rewardsPoints = stakeDeposit.exitRewardPoints.sub(stakeDeposit.entryRewardPoints);\n        }\n        return stakeDeposit.amount.mul(rewardsPoints).div(10 ** 18);\n    }\n\n    function distributeRewards()\n    external\n    nonReentrant\n    whenNotPaused\n    {\n        require(hasRole(REWARDS_DISTRIBUTOR_ROLE, _msgSender()),\n            \"[Validation] The caller must have rewards distributor role\");\n        _distributeRewards();\n    }\n\n    function _distributeRewards()\n    private\n    whenNotPaused\n    {\n        require(hasRole(REWARDS_DISTRIBUTOR_ROLE, _msgSender()),\n            \"[Validation] The caller must have rewards distributor role\");\n        require(currentTotalStake > 0, \"[Validation] not enough total stake accumulated\");\n        uint256 rewardPoolBalance = token.balanceOf(rewardsAddress);\n        require(rewardPoolBalance > 0, \"[Validation] not enough rewards accumulated\");\n\n        uint256 newlyAdded = rewardPoolBalance.add(rewardsWithdrawn).sub(rewardsDistributed);\n        uint256 ratio = newlyAdded.mul(10 ** 18).div(currentTotalStake);\n        totalRewardPoints = totalRewardPoints.add(ratio);\n        rewardsDistributed = rewardPoolBalance;\n        rewardsWithdrawn = 0;\n        totalRewardsDistributed = totalRewardsDistributed.add(newlyAdded);\n        \n        emit RewardsDistributed(newlyAdded);\n    }\n\n    function version() public pure returns (string memory) {\n        return \"v2\";\n    }\n}",
  "sourcePath": "/home/adam/swap-contracts/contracts/SwapStakingContract.sol",
  "compiler": {
    "name": "solc",
    "version": "0.6.2+commit.bacdbe57.Emscripten.clang"
  },
  "schemaVersion": "3.2.5",
  "updatedAt": "2020-10-20T07:03:39.808Z",
  "devdoc": {
    "methods": {
      "getRoleAdmin(bytes32)": {
        "details": "Returns the admin role that controls `role`. See {grantRole} and {revokeRole}.     * To change a role's admin, use {_setRoleAdmin}."
      },
      "getRoleMember(bytes32,uint256)": {
        "details": "Returns one of the accounts that have `role`. `index` must be a value between 0 and {getRoleMemberCount}, non-inclusive.     * Role bearers are not sorted in any particular way, and their ordering may change at any point.     * WARNING: When using {getRoleMember} and {getRoleMemberCount}, make sure you perform all queries on the same block. See the following https://forum.openzeppelin.com/t/iterating-over-elements-on-enumerableset-in-openzeppelin-contracts/2296[forum post] for more information."
      },
      "getRoleMemberCount(bytes32)": {
        "details": "Returns the number of accounts that have `role`. Can be used together with {getRoleMember} to enumerate all bearers of a role."
      },
      "grantRole(bytes32,address)": {
        "details": "Grants `role` to `account`.     * If `account` had not been already granted `role`, emits a {RoleGranted} event.     * Requirements:     * - the caller must have ``role``'s admin role."
      },
      "hasRole(bytes32,address)": {
        "details": "Returns `true` if `account` has been granted `role`."
      },
      "paused()": {
        "details": "Returns true if the contract is paused, and false otherwise."
      },
      "renounceRole(bytes32,address)": {
        "details": "Revokes `role` from the calling account.     * Roles are often managed via {grantRole} and {revokeRole}: this function's purpose is to provide a mechanism for accounts to lose their privileges if they are compromised (such as when a trusted device is misplaced).     * If the calling account had been granted `role`, emits a {RoleRevoked} event.     * Requirements:     * - the caller must be `account`."
      },
      "revokeRole(bytes32,address)": {
        "details": "Revokes `role` from `account`.     * If `account` had been granted `role`, emits a {RoleRevoked} event.     * Requirements:     * - the caller must have ``role``'s admin role."
      }
    }
  },
  "userdoc": {
    "methods": {}
  }
}