{
  "contractName": "SwapToken",
  "abi": [
    {
      "anonymous": false,
      "inputs": [
        {
          "indexed": true,
          "internalType": "address",
          "name": "owner",
          "type": "address"
        },
        {
          "indexed": true,
          "internalType": "address",
          "name": "spender",
          "type": "address"
        },
        {
          "indexed": false,
          "internalType": "uint256",
          "name": "value",
          "type": "uint256"
        }
      ],
      "name": "Approval",
      "type": "event"
    },
    {
      "anonymous": false,
      "inputs": [
        {
          "indexed": true,
          "internalType": "address",
          "name": "_account",
          "type": "address"
        }
      ],
      "name": "Blacklisted",
      "type": "event"
    },
    {
      "anonymous": false,
      "inputs": [
        {
          "indexed": false,
          "internalType": "address",
          "name": "account",
          "type": "address"
        }
      ],
      "name": "Paused",
      "type": "event"
    },
    {
      "anonymous": false,
      "inputs": [
        {
          "indexed": true,
          "internalType": "bytes32",
          "name": "role",
          "type": "bytes32"
        },
        {
          "indexed": true,
          "internalType": "address",
          "name": "account",
          "type": "address"
        },
        {
          "indexed": true,
          "internalType": "address",
          "name": "sender",
          "type": "address"
        }
      ],
      "name": "RoleGranted",
      "type": "event"
    },
    {
      "anonymous": false,
      "inputs": [
        {
          "indexed": true,
          "internalType": "bytes32",
          "name": "role",
          "type": "bytes32"
        },
        {
          "indexed": true,
          "internalType": "address",
          "name": "account",
          "type": "address"
        },
        {
          "indexed": true,
          "internalType": "address",
          "name": "sender",
          "type": "address"
        }
      ],
      "name": "RoleRevoked",
      "type": "event"
    },
    {
      "anonymous": false,
      "inputs": [
        {
          "indexed": true,
          "internalType": "address",
          "name": "from",
          "type": "address"
        },
        {
          "indexed": true,
          "internalType": "address",
          "name": "to",
          "type": "address"
        },
        {
          "indexed": false,
          "internalType": "uint256",
          "name": "value",
          "type": "uint256"
        }
      ],
      "name": "Transfer",
      "type": "event"
    },
    {
      "anonymous": false,
      "inputs": [
        {
          "indexed": true,
          "internalType": "address",
          "name": "_account",
          "type": "address"
        }
      ],
      "name": "UnBlacklisted",
      "type": "event"
    },
    {
      "anonymous": false,
      "inputs": [
        {
          "indexed": false,
          "internalType": "address",
          "name": "account",
          "type": "address"
        }
      ],
      "name": "Unpaused",
      "type": "event"
    },
    {
      "inputs": [],
      "name": "DEFAULT_ADMIN_ROLE",
      "outputs": [
        {
          "internalType": "bytes32",
          "name": "",
          "type": "bytes32"
        }
      ],
      "stateMutability": "view",
      "type": "function"
    },
    {
      "inputs": [],
      "name": "PAUSER_ROLE",
      "outputs": [
        {
          "internalType": "bytes32",
          "name": "",
          "type": "bytes32"
        }
      ],
      "stateMutability": "view",
      "type": "function"
    },
    {
      "inputs": [
        {
          "internalType": "address",
          "name": "owner",
          "type": "address"
        },
        {
          "internalType": "address",
          "name": "spender",
          "type": "address"
        }
      ],
      "name": "allowance",
      "outputs": [
        {
          "internalType": "uint256",
          "name": "",
          "type": "uint256"
        }
      ],
      "stateMutability": "view",
      "type": "function"
    },
    {
      "inputs": [
        {
          "internalType": "address",
          "name": "spender",
          "type": "address"
        },
        {
          "internalType": "uint256",
          "name": "amount",
          "type": "uint256"
        }
      ],
      "name": "approve",
      "outputs": [
        {
          "internalType": "bool",
          "name": "",
          "type": "bool"
        }
      ],
      "stateMutability": "nonpayable",
      "type": "function"
    },
    {
      "inputs": [
        {
          "internalType": "address",
          "name": "account",
          "type": "address"
        }
      ],
      "name": "balanceOf",
      "outputs": [
        {
          "internalType": "uint256",
          "name": "",
          "type": "uint256"
        }
      ],
      "stateMutability": "view",
      "type": "function"
    },
    {
      "inputs": [
        {
          "internalType": "uint256",
          "name": "amount",
          "type": "uint256"
        }
      ],
      "name": "burn",
      "outputs": [],
      "stateMutability": "nonpayable",
      "type": "function"
    },
    {
      "inputs": [
        {
          "internalType": "address",
          "name": "account",
          "type": "address"
        },
        {
          "internalType": "uint256",
          "name": "amount",
          "type": "uint256"
        }
      ],
      "name": "burnFrom",
      "outputs": [],
      "stateMutability": "nonpayable",
      "type": "function"
    },
    {
      "inputs": [],
      "name": "decimals",
      "outputs": [
        {
          "internalType": "uint8",
          "name": "",
          "type": "uint8"
        }
      ],
      "stateMutability": "view",
      "type": "function"
    },
    {
      "inputs": [
        {
          "internalType": "address",
          "name": "spender",
          "type": "address"
        },
        {
          "internalType": "uint256",
          "name": "subtractedValue",
          "type": "uint256"
        }
      ],
      "name": "decreaseAllowance",
      "outputs": [
        {
          "internalType": "bool",
          "name": "",
          "type": "bool"
        }
      ],
      "stateMutability": "nonpayable",
      "type": "function"
    },
    {
      "inputs": [
        {
          "internalType": "bytes32",
          "name": "role",
          "type": "bytes32"
        }
      ],
      "name": "getRoleAdmin",
      "outputs": [
        {
          "internalType": "bytes32",
          "name": "",
          "type": "bytes32"
        }
      ],
      "stateMutability": "view",
      "type": "function"
    },
    {
      "inputs": [
        {
          "internalType": "bytes32",
          "name": "role",
          "type": "bytes32"
        },
        {
          "internalType": "uint256",
          "name": "index",
          "type": "uint256"
        }
      ],
      "name": "getRoleMember",
      "outputs": [
        {
          "internalType": "address",
          "name": "",
          "type": "address"
        }
      ],
      "stateMutability": "view",
      "type": "function"
    },
    {
      "inputs": [
        {
          "internalType": "bytes32",
          "name": "role",
          "type": "bytes32"
        }
      ],
      "name": "getRoleMemberCount",
      "outputs": [
        {
          "internalType": "uint256",
          "name": "",
          "type": "uint256"
        }
      ],
      "stateMutability": "view",
      "type": "function"
    },
    {
      "inputs": [
        {
          "internalType": "bytes32",
          "name": "role",
          "type": "bytes32"
        },
        {
          "internalType": "address",
          "name": "account",
          "type": "address"
        }
      ],
      "name": "grantRole",
      "outputs": [],
      "stateMutability": "nonpayable",
      "type": "function"
    },
    {
      "inputs": [
        {
          "internalType": "bytes32",
          "name": "role",
          "type": "bytes32"
        },
        {
          "internalType": "address",
          "name": "account",
          "type": "address"
        }
      ],
      "name": "hasRole",
      "outputs": [
        {
          "internalType": "bool",
          "name": "",
          "type": "bool"
        }
      ],
      "stateMutability": "view",
      "type": "function"
    },
    {
      "inputs": [
        {
          "internalType": "address",
          "name": "spender",
          "type": "address"
        },
        {
          "internalType": "uint256",
          "name": "addedValue",
          "type": "uint256"
        }
      ],
      "name": "increaseAllowance",
      "outputs": [
        {
          "internalType": "bool",
          "name": "",
          "type": "bool"
        }
      ],
      "stateMutability": "nonpayable",
      "type": "function"
    },
    {
      "inputs": [],
      "name": "name",
      "outputs": [
        {
          "internalType": "string",
          "name": "",
          "type": "string"
        }
      ],
      "stateMutability": "view",
      "type": "function"
    },
    {
      "inputs": [],
      "name": "paused",
      "outputs": [
        {
          "internalType": "bool",
          "name": "",
          "type": "bool"
        }
      ],
      "stateMutability": "view",
      "type": "function"
    },
    {
      "inputs": [
        {
          "internalType": "bytes32",
          "name": "role",
          "type": "bytes32"
        },
        {
          "internalType": "address",
          "name": "account",
          "type": "address"
        }
      ],
      "name": "renounceRole",
      "outputs": [],
      "stateMutability": "nonpayable",
      "type": "function"
    },
    {
      "inputs": [
        {
          "internalType": "bytes32",
          "name": "role",
          "type": "bytes32"
        },
        {
          "internalType": "address",
          "name": "account",
          "type": "address"
        }
      ],
      "name": "revokeRole",
      "outputs": [],
      "stateMutability": "nonpayable",
      "type": "function"
    },
    {
      "inputs": [],
      "name": "symbol",
      "outputs": [
        {
          "internalType": "string",
          "name": "",
          "type": "string"
        }
      ],
      "stateMutability": "view",
      "type": "function"
    },
    {
      "inputs": [],
      "name": "totalSupply",
      "outputs": [
        {
          "internalType": "uint256",
          "name": "",
          "type": "uint256"
        }
      ],
      "stateMutability": "view",
      "type": "function"
    },
    {
      "inputs": [
        {
          "internalType": "address",
          "name": "recipient",
          "type": "address"
        },
        {
          "internalType": "uint256",
          "name": "amount",
          "type": "uint256"
        }
      ],
      "name": "transfer",
      "outputs": [
        {
          "internalType": "bool",
          "name": "",
          "type": "bool"
        }
      ],
      "stateMutability": "nonpayable",
      "type": "function"
    },
    {
      "inputs": [
        {
          "internalType": "address",
          "name": "sender",
          "type": "address"
        },
        {
          "internalType": "address",
          "name": "recipient",
          "type": "address"
        },
        {
          "internalType": "uint256",
          "name": "amount",
          "type": "uint256"
        }
      ],
      "name": "transferFrom",
      "outputs": [
        {
          "internalType": "bool",
          "name": "",
          "type": "bool"
        }
      ],
      "stateMutability": "nonpayable",
      "type": "function"
    },
    {
      "inputs": [
        {
          "internalType": "string",
          "name": "name",
          "type": "string"
        },
        {
          "internalType": "string",
          "name": "symbol",
          "type": "string"
        },
        {
          "internalType": "uint8",
          "name": "decimals",
          "type": "uint8"
        },
        {
          "internalType": "uint256",
          "name": "totalSupply",
          "type": "uint256"
        }
      ],
      "name": "initialize",
      "outputs": [],
      "stateMutability": "nonpayable",
      "type": "function"
    },
    {
      "inputs": [],
      "name": "pause",
      "outputs": [],
      "stateMutability": "nonpayable",
      "type": "function"
    },
    {
      "inputs": [],
      "name": "unpause",
      "outputs": [],
      "stateMutability": "nonpayable",
      "type": "function"
    },
    {
      "inputs": [
        {
          "internalType": "address",
          "name": "tokenContract",
          "type": "address"
        }
      ],
      "name": "withdrawTokens",
      "outputs": [],
      "stateMutability": "nonpayable",
      "type": "function"
    },
    {
      "inputs": [],
      "name": "version",
      "outputs": [
        {
          "internalType": "string",
          "name": "",
          "type": "string"
        }
      ],
      "stateMutability": "pure",
      "type": "function"
    },
    {
      "inputs": [
        {
          "internalType": "address",
          "name": "_account",
          "type": "address"
        }
      ],
      "name": "isBlacklisted",
      "outputs": [
        {
          "internalType": "bool",
          "name": "",
          "type": "bool"
        }
      ],
      "stateMutability": "view",
      "type": "function"
    },
    {
      "inputs": [
        {
          "internalType": "address",
          "name": "_account",
          "type": "address"
        }
      ],
      "name": "blacklist",
      "outputs": [],
      "stateMutability": "nonpayable",
      "type": "function"
    },
    {
      "inputs": [
        {
          "internalType": "address",
          "name": "_account",
          "type": "address"
        }
      ],
      "name": "unBlacklist",
      "outputs": [],
      "stateMutability": "nonpayable",
      "type": "function"
    }
  ],
  "bytecode": "0x608060405234801561001057600080fd5b506123bc806100206000396000f3fe608060405234801561001057600080fd5b50600436106101e55760003560e01c80635c975abb1161010f578063a457c2d7116100a2578063dd62ed3e11610071578063dd62ed3e146106e4578063e63ab1e914610712578063f9f92be41461071a578063fe575a8714610740576101e5565b8063a457c2d714610643578063a9059cbb1461066f578063ca15c8731461069b578063d547741f146106b8576101e5565b80639010d07c116100de5780639010d07c146105c857806391d148541461060757806395d89b4114610633578063a217fddf1461063b576101e5565b80635c975abb1461056657806370a082311461056e57806379cc6790146105945780638456cb59146105c0576101e5565b80632f2ff15d116101875780633f4ba83a116101565780633f4ba83a1461051357806342966c681461051b57806349df728c1461053857806354fd4d501461055e576101e5565b80632f2ff15d14610471578063313ce5671461049d57806336568abe146104bb57806339509351146104e7576101e5565b80631a895266116101c35780631a895266146102c157806323b872dd146102e9578063248a9ca31461031f578063253279ad1461033c576101e5565b806306fdde03146101ea578063095ea7b31461026757806318160ddd146102a7575b600080fd5b6101f2610766565b6040805160208082528351818301528351919283929083019185019080838360005b8381101561022c578181015183820152602001610214565b50505050905090810190601f1680156102595780820380516001836020036101000a031916815260200191505b509250505060405180910390f35b6102936004803603604081101561027d57600080fd5b506001600160a01b0381351690602001356107fd565b604080519115158252519081900360200190f35b6102af61081b565b60408051918252519081900360200190f35b6102e7600480360360208110156102d757600080fd5b50356001600160a01b0316610821565b005b610293600480360360608110156102ff57600080fd5b506001600160a01b038135811691602081013590911690604001356108b8565b6102af6004803603602081101561033557600080fd5b5035610945565b6102e76004803603608081101561035257600080fd5b81019060208101813564010000000081111561036d57600080fd5b82018360208201111561037f57600080fd5b803590602001918460018302840111640100000000831117156103a157600080fd5b91908080601f01602080910402602001604051908101604052809392919081815260200183838082843760009201919091525092959493602081019350359150506401000000008111156103f457600080fd5b82018360208201111561040657600080fd5b8035906020019184600183028401116401000000008311171561042857600080fd5b91908080601f0160208091040260200160405190810160405280939291908181526020018383808284376000920191909152509295505060ff833516935050506020013561095a565b6102e76004803603604081101561048757600080fd5b50803590602001356001600160a01b031661096c565b6104a56109d3565b6040805160ff9092168252519081900360200190f35b6102e7600480360360408110156104d157600080fd5b50803590602001356001600160a01b03166109dc565b610293600480360360408110156104fd57600080fd5b506001600160a01b038135169060200135610a3d565b6102e7610a91565b6102e76004803603602081101561053157600080fd5b5035610b02565b6102e76004803603602081101561054e57600080fd5b50356001600160a01b0316610b16565b6101f2610c9e565b610293610cba565b6102af6004803603602081101561058457600080fd5b50356001600160a01b0316610cc3565b6102e7600480360360408110156105aa57600080fd5b506001600160a01b038135169060200135610cde565b6102e7610d3e565b6105eb600480360360408110156105de57600080fd5b5080359060200135610dad565b604080516001600160a01b039092168252519081900360200190f35b6102936004803603604081101561061d57600080fd5b50803590602001356001600160a01b0316610dd2565b6101f2610df0565b6102af610e51565b6102936004803603604081101561065957600080fd5b506001600160a01b038135169060200135610e56565b6102936004803603604081101561068557600080fd5b506001600160a01b038135169060200135610ec4565b6102af600480360360208110156106b157600080fd5b5035610ed8565b6102e7600480360360408110156106ce57600080fd5b50803590602001356001600160a01b0316610eef565b6102af600480360360408110156106fa57600080fd5b506001600160a01b0381358116916020013516610f48565b6102af610f73565b6102e76004803603602081101561073057600080fd5b50356001600160a01b0316610f96565b6102936004803603602081101561075657600080fd5b50356001600160a01b031661102b565b609a8054604080516020601f60026000196101006001881615020190951694909404938401819004810282018101909252828152606093909290918301828280156107f25780601f106107c7576101008083540402835291602001916107f2565b820191906000526020600020905b8154815290600101906020018083116107d557829003601f168201915b505050505090505b90565b600061081161080a61104a565b848461104e565b5060015b92915050565b60995490565b610833600061082e61104a565b610dd2565b61086e5760405162461bcd60e51b815260040180806020018281038252603c81526020018061211f603c913960400191505060405180910390fd5b6001600160a01b03811660008181526101916020526040808220805460ff19169055517f117e3210bb9aa7d9baff172026820255c6f6c30ba8999d1c2fd88e2848137c4e9190a250565b60006108c58484846110b2565b61093b846108d161104a565b6109368560405180606001604052806028815260200161215b602891396001600160a01b038a1660009081526098602052604081209061090f61104a565b6001600160a01b03168152602081019190915260400160002054919063ffffffff61121b16565b61104e565b5060019392505050565b60009081526065602052604090206002015490565b610966848484846112b2565b50505050565b60008281526065602052604090206002015461098a9061082e61104a565b6109c55760405162461bcd60e51b815260040180806020018281038252602f815260200180611fe2602f913960400191505060405180910390fd5b6109cf82826113aa565b5050565b609c5460ff1690565b6109e461104a565b6001600160a01b0316816001600160a01b031614610a335760405162461bcd60e51b815260040180806020018281038252602f81526020018061232e602f913960400191505060405180910390fd5b6109cf8282611419565b6000610811610a4a61104a565b846109368560986000610a5b61104a565b6001600160a01b03908116825260208083019390935260409182016000908120918c16815292529020549063ffffffff61148816565b604080516a5041555345525f524f4c4560a81b8152905190819003600b019020610abd9061082e61104a565b610af85760405162461bcd60e51b815260040180806020018281038252602b8152602001806122de602b913960400191505060405180910390fd5b610b006114e2565b565b610b13610b0d61104a565b82611580565b50565b610b23600061082e61104a565b610b5e5760405162461bcd60e51b815260040180806020018281038252603c8152602001806120b3603c913960400191505060405180910390fd5b806001600160a01b03811663a9059cbb610b7661104a565b604080516370a0823160e01b815230600482015290516001600160a01b038616916370a08231916024808301926020929190829003018186803b158015610bbc57600080fd5b505afa158015610bd0573d6000803e3d6000fd5b505050506040513d6020811015610be657600080fd5b5051604080516001600160e01b031960e086901b1681526001600160a01b03909316600484015260248301919091525160448083019260209291908290030181600087803b158015610c3757600080fd5b505af1158015610c4b573d6000803e3d6000fd5b505050506040513d6020811015610c6157600080fd5b50516109cf5760405162461bcd60e51b81526004018080602001828103825260428152602001806122446042913960600191505060405180910390fd5b604080518082019091526002815261763360f01b602082015290565b60fb5460ff1690565b6001600160a01b031660009081526097602052604090205490565b6000610d1b826040518060600160405280602481526020016121da60249139610d0e86610d0961104a565b610f48565b919063ffffffff61121b16565b9050610d2f83610d2961104a565b8361104e565b610d398383611580565b505050565b604080516a5041555345525f524f4c4560a81b8152905190819003600b019020610d6a9061082e61104a565b610da55760405162461bcd60e51b81526004018080602001828103825260298152602001806121b16029913960400191505060405180910390fd5b610b00611688565b6000828152606560205260408120610dcb908363ffffffff61170916565b9392505050565b6000828152606560205260408120610dcb908363ffffffff61171516565b609b8054604080516020601f60026000196101006001881615020190951694909404938401819004810282018101909252828152606093909290918301828280156107f25780601f106107c7576101008083540402835291602001916107f2565b600081565b6000610811610e6361104a565b84610936856040518060600160405280602581526020016123096025913960986000610e8d61104a565b6001600160a01b03908116825260208083019390935260409182016000908120918d1681529252902054919063ffffffff61121b16565b6000610811610ed161104a565b84846110b2565b60008181526065602052604081206108159061172a565b600082815260656020526040902060020154610f0d9061082e61104a565b610a335760405162461bcd60e51b81526004018080602001828103825260308152602001806120ef6030913960400191505060405180910390fd5b6001600160a01b03918216600090815260986020908152604080832093909416825291909152205490565b604080516a5041555345525f524f4c4560a81b8152905190819003600b01902081565b610fa3600061082e61104a565b610fde5760405162461bcd60e51b81526004018080602001828103825260388152602001806120556038913960400191505060405180910390fd5b6001600160a01b03811660008181526101916020526040808220805460ff19166001179055517fffa4e6181777692565cf28528fc88fd1516ea86b56da075235fa575af6a4b8559190a250565b6001600160a01b03166000908152610191602052604090205460ff1690565b3390565b6001600160a01b03831660009081526101916020526040902054839060ff161561107757600080fd5b6001600160a01b03831660009081526101916020526040902054839060ff16156110a057600080fd5b6110ab858585611735565b5050505050565b6001600160a01b0383166110f75760405162461bcd60e51b815260040180806020018281038252602581526020018061221f6025913960400191505060405180910390fd5b6001600160a01b03821661113c5760405162461bcd60e51b8152600401808060200182810382526023815260200180611fbf6023913960400191505060405180910390fd5b611147838383611821565b61118a8160405180606001604052806026815260200161208d602691396001600160a01b038616600090815260976020526040902054919063ffffffff61121b16565b6001600160a01b0380851660009081526097602052604080822093909355908416815220546111bf908263ffffffff61148816565b6001600160a01b0380841660008181526097602090815260409182902094909455805185815290519193928716927fddf252ad1be2c89b69c2b068fc378daa952ba7f163c4a11628f55a4df523b3ef92918290030190a3505050565b600081848411156112aa5760405162461bcd60e51b81526004018080602001828103825283818151815260200191508051906020019080838360005b8381101561126f578181015183820152602001611257565b50505050905090810190601f16801561129c5780820380516001836020036101000a031916815260200191505b509250505060405180910390fd5b505050900390565b600054610100900460ff16806112cb57506112cb6118c6565b806112d9575060005460ff16155b6113145760405162461bcd60e51b815260040180806020018281038252602e815260200180612183602e913960400191505060405180910390fd5b600054610100900460ff1615801561133f576000805460ff1961ff0019909116610100171660011790555b6113476118cc565b61134f6118cc565b611359858561196d565b6113616118cc565b611369611a45565b6113716118cc565b611379611af0565b61139261138461104a565b8460ff16600a0a8402611bbb565b80156110ab576000805461ff00191690555050505050565b60008281526065602052604090206113c8908263ffffffff611cb916565b156109cf576113d561104a565b6001600160a01b0316816001600160a01b0316837f2f8788117e7eff1d82e926ec794901d17c78024a50270940304540a733656f0d60405160405180910390a45050565b6000828152606560205260409020611437908263ffffffff611cce16565b156109cf5761144461104a565b6001600160a01b0316816001600160a01b0316837ff6391f5c32d9c69d2a47ea670b442974b53935d1edc7fd64eb21e047a839171b60405160405180910390a45050565b600082820183811015610dcb576040805162461bcd60e51b815260206004820152601b60248201527f536166654d6174683a206164646974696f6e206f766572666c6f770000000000604482015290519081900360640190fd5b60fb5460ff16611530576040805162461bcd60e51b815260206004820152601460248201527314185d5cd8589b194e881b9bdd081c185d5cd95960621b604482015290519081900360640190fd5b60fb805460ff191690557f5db9ee0a495bf2e6ff9c91a7834c1ba4fdd244a5e8aa4e537bd38aeae4b073aa61156361104a565b604080516001600160a01b039092168252519081900360200190a1565b6001600160a01b0382166115c55760405162461bcd60e51b81526004018080602001828103825260218152602001806121fe6021913960400191505060405180910390fd5b6115d182600083611821565b61161481604051806060016040528060228152602001612011602291396001600160a01b038516600090815260976020526040902054919063ffffffff61121b16565b6001600160a01b038316600090815260976020526040902055609954611640908263ffffffff611ce316565b6099556040805182815290516000916001600160a01b038516917fddf252ad1be2c89b69c2b068fc378daa952ba7f163c4a11628f55a4df523b3ef9181900360200190a35050565b60fb5460ff16156116d3576040805162461bcd60e51b815260206004820152601060248201526f14185d5cd8589b194e881c185d5cd95960821b604482015290519081900360640190fd5b60fb805460ff191660011790557f62e78cea01bee320cd4e420270b5ea74000d11b0c9f74754ebdbfc544b05a25861156361104a565b6000610dcb8383611d25565b6000610dcb836001600160a01b038416611d89565b600061081582611da1565b6001600160a01b03831661177a5760405162461bcd60e51b81526004018080602001828103825260248152602001806122866024913960400191505060405180910390fd5b6001600160a01b0382166117bf5760405162461bcd60e51b81526004018080602001828103825260228152602001806120336022913960400191505060405180910390fd5b6001600160a01b03808416600081815260986020908152604080832094871680845294825291829020859055815185815291517f8c5be1e5ebec7d5bd14f71427d1e84f3dd0314c0f7b2291e5b200ac8c7c3b9259281900390910190a3505050565b6001600160a01b03821660009081526101916020526040902054829060ff161561184a57600080fd5b6001600160a01b03841660009081526101916020526040902054849060ff161561187357600080fd5b6001600160a01b0384163014156118bb5760405162461bcd60e51b81526004018080602001828103825260348152602001806122aa6034913960400191505060405180910390fd5b6110ab858585611da5565b303b1590565b600054610100900460ff16806118e557506118e56118c6565b806118f3575060005460ff16155b61192e5760405162461bcd60e51b815260040180806020018281038252602e815260200180612183602e913960400191505060405180910390fd5b600054610100900460ff16158015611959576000805460ff1961ff0019909116610100171660011790555b8015610b13576000805461ff001916905550565b600054610100900460ff168061198657506119866118c6565b80611994575060005460ff16155b6119cf5760405162461bcd60e51b815260040180806020018281038252602e815260200180612183602e913960400191505060405180910390fd5b600054610100900460ff161580156119fa576000805460ff1961ff0019909116610100171660011790555b8251611a0d90609a906020860190611f04565b508151611a2190609b906020850190611f04565b50609c805460ff191660121790558015610d39576000805461ff0019169055505050565b600054610100900460ff1680611a5e5750611a5e6118c6565b80611a6c575060005460ff16155b611aa75760405162461bcd60e51b815260040180806020018281038252602e815260200180612183602e913960400191505060405180910390fd5b600054610100900460ff16158015611ad2576000805460ff1961ff0019909116610100171660011790555b60fb805460ff191690558015610b13576000805461ff001916905550565b600054610100900460ff1680611b095750611b096118c6565b80611b17575060005460ff16155b611b525760405162461bcd60e51b815260040180806020018281038252602e815260200180612183602e913960400191505060405180910390fd5b600054610100900460ff16158015611b7d576000805460ff1961ff0019909116610100171660011790555b611b8f6000611b8a61104a565b6109c5565b604080516a5041555345525f524f4c4560a81b8152905190819003600b01902061195990611b8a61104a565b6001600160a01b038216611c16576040805162461bcd60e51b815260206004820152601f60248201527f45524332303a206d696e7420746f20746865207a65726f206164647265737300604482015290519081900360640190fd5b611c2260008383611821565b609954611c35908263ffffffff61148816565b6099556001600160a01b038216600090815260976020526040902054611c61908263ffffffff61148816565b6001600160a01b03831660008181526097602090815260408083209490945583518581529351929391927fddf252ad1be2c89b69c2b068fc378daa952ba7f163c4a11628f55a4df523b3ef9281900390910190a35050565b6000610dcb836001600160a01b038416611df4565b6000610dcb836001600160a01b038416611e3e565b6000610dcb83836040518060400160405280601e81526020017f536166654d6174683a207375627472616374696f6e206f766572666c6f77000081525061121b565b81546000908210611d675760405162461bcd60e51b8152600401808060200182810382526022815260200180611f9d6022913960400191505060405180910390fd5b826000018281548110611d7657fe5b9060005260206000200154905092915050565b60009081526001919091016020526040902054151590565b5490565b611db0838383610d39565b611db8610cba565b15610d395760405162461bcd60e51b815260040180806020018281038252602a81526020018061235d602a913960400191505060405180910390fd5b6000611e008383611d89565b611e3657508154600181810184556000848152602080822090930184905584548482528286019093526040902091909155610815565b506000610815565b60008181526001830160205260408120548015611efa5783546000198083019190810190600090879083908110611e7157fe5b9060005260206000200154905080876000018481548110611e8e57fe5b600091825260208083209091019290925582815260018981019092526040902090840190558654879080611ebe57fe5b60019003818190600052602060002001600090559055866001016000878152602001908152602001600020600090556001945050505050610815565b6000915050610815565b828054600181600116156101000203166002900490600052602060002090601f016020900481019282601f10611f4557805160ff1916838001178555611f72565b82800160010185558215611f72579182015b82811115611f72578251825591602001919060010190611f57565b50611f7e929150611f82565b5090565b6107fa91905b80821115611f7e5760008155600101611f8856fe456e756d657261626c655365743a20696e646578206f7574206f6620626f756e647345524332303a207472616e7366657220746f20746865207a65726f2061646472657373416363657373436f6e74726f6c3a2073656e646572206d75737420626520616e2061646d696e20746f206772616e7445524332303a206275726e20616d6f756e7420657863656564732062616c616e636545524332303a20617070726f766520746f20746865207a65726f206164647265737353776170546f6b656e205b626c61636b6c6973745d3a206d75737420686176652061646d696e20726f6c6520746f20626c61636b6c69737445524332303a207472616e7366657220616d6f756e7420657863656564732062616c616e636553776170546f6b656e205b7769746864726177546f6b656e735d3a206d75737420686176652061646d696e20726f6c6520746f207769746864726177416363657373436f6e74726f6c3a2073656e646572206d75737420626520616e2061646d696e20746f207265766f6b6553776170546f6b656e205b756e426c61636b6c6973745d3a206d75737420686176652061646d696e20726f6c6520746f20756e426c61636b6c69737445524332303a207472616e7366657220616d6f756e74206578636565647320616c6c6f77616e6365436f6e747261637420696e7374616e63652068617320616c7265616479206265656e20696e697469616c697a656453776170546f6b656e3a206d75737420686176652070617573657220726f6c6520746f20706175736545524332303a206275726e20616d6f756e74206578636565647320616c6c6f77616e636545524332303a206275726e2066726f6d20746865207a65726f206164647265737345524332303a207472616e736665722066726f6d20746865207a65726f206164647265737353776170546f6b656e205b7769746864726177546f6b656e735d20536f6d657468696e672077656e742077726f6e67207768696c65207472616e7366657272696e6745524332303a20617070726f76652066726f6d20746865207a65726f206164647265737353776170546f6b656e3a2063616e2774207472616e7366657220746f20636f6e7472616374206164647265737320697473656c6653776170546f6b656e3a206d75737420686176652070617573657220726f6c6520746f20756e706175736545524332303a2064656372656173656420616c6c6f77616e63652062656c6f77207a65726f416363657373436f6e74726f6c3a2063616e206f6e6c792072656e6f756e636520726f6c657320666f722073656c6645524332305061757361626c653a20746f6b656e207472616e73666572207768696c6520706175736564a26469706673582212200210f0dac5e5fe2af8529fdd6441f4f3d192ae21cd2b819d90f9466a6c96315664736f6c63430006020033",
  "source": "pragma solidity ^0.6.0;\n\nimport \"@openzeppelin/contracts-ethereum-package/contracts/access/AccessControl.sol\";\nimport \"@openzeppelin/contracts-ethereum-package/contracts/token/ERC20/ERC20Pausable.sol\";\nimport \"@openzeppelin/contracts-ethereum-package/contracts/token/ERC20/ERC20Burnable.sol\";\n\n/**\n * @dev {ERC20} token, including:\n *\n *  - ability for holders to burn (destroy) their tokens\n *  - a minter role that allows for token minting (creation)\n *  - a pauser role that allows to stop all token transfers\n *\n * This contract uses {AccessControl} to lock permissioned functions using the\n * different roles - head to its documentation for details.\n *\n * The account that deploys the contract will be granted the minter and pauser\n * roles, as well as the default admin role, which will let it grant both minter\n * and pauser roles to aother accounts\n */\ncontract SwapToken is Initializable, ContextUpgradeSafe, AccessControlUpgradeSafe, ERC20BurnableUpgradeSafe, ERC20PausableUpgradeSafe {\n    bytes32 public constant PAUSER_ROLE = keccak256(\"PAUSER_ROLE\");\n\n    /**\n     * @dev Grants `DEFAULT_ADMIN_ROLE` and `PAUSER_ROLE` to the\n     * account that deploys the contract.\n     *\n     * See {ERC20-constructor}.\n     */\n\n    function initialize(string memory name, string memory symbol, uint8 decimals, uint256 totalSupply) public {\n        __SwapToken_init(name, symbol, decimals, totalSupply);\n    }\n\n    function __SwapToken_init(string memory name, string memory symbol, uint8 decimals, uint256 totalSupply) internal initializer {\n        __Context_init_unchained();\n        __AccessControl_init_unchained();\n        __ERC20_init_unchained(name, symbol);\n        __ERC20Burnable_init_unchained();\n        __Pausable_init_unchained();\n        __ERC20Pausable_init_unchained();\n        __SwapToken_init_unchained();\n        _mint(_msgSender(), totalSupply * (10 ** uint256(decimals)));\n    }\n\n    function __SwapToken_init_unchained() internal initializer {\n        _setupRole(DEFAULT_ADMIN_ROLE, _msgSender());\n        _setupRole(PAUSER_ROLE, _msgSender());\n    }\n\n    /**\n     * @dev Pauses all token transfers.\n     *\n     * See {ERC20Pausable} and {Pausable-_pause}.\n     *\n     * Requirements:\n     *\n     * - the caller must have the `PAUSER_ROLE`.\n     */\n    function pause() public {\n        require(hasRole(PAUSER_ROLE, _msgSender()), \"SwapToken: must have pauser role to pause\");\n        _pause();\n    }\n\n    /**\n     * @dev Unpauses all token transfers.\n     *\n     * See {ERC20Pausable} and {Pausable-_unpause}.\n     *\n     * Requirements:\n     *\n     * - the caller must have the `PAUSER_ROLE`.\n     */\n    function unpause() public {\n        require(hasRole(PAUSER_ROLE, _msgSender()), \"SwapToken: must have pauser role to unpause\");\n        _unpause();\n    }\n\n    function _beforeTokenTransfer(address from, address to, uint256 amount)\n    internal \n    override(ERC20UpgradeSafe, ERC20PausableUpgradeSafe)\n    notBlacklisted(to)\n    notBlacklisted(from)\n    {\n        require(to != address(this), \"SwapToken: can't transfer to contract address itself\");\n        super._beforeTokenTransfer(from, to, amount);\n    }\n\n    function _approve(address owner, address spender, uint256 amount)\n    internal \n    override(ERC20UpgradeSafe)\n    notBlacklisted(owner)\n    notBlacklisted(spender)\n    {\n        super._approve(owner, spender, amount);\n    }\n\n    function withdrawTokens(address tokenContract) external {\n        require(hasRole(DEFAULT_ADMIN_ROLE, _msgSender()), \"SwapToken [withdrawTokens]: must have admin role to withdraw\");\n        IERC20 tc = IERC20(tokenContract);\n        require(tc.transfer(_msgSender(), tc.balanceOf(address(this))), \"SwapToken [withdrawTokens] Something went wrong while transferring\");\n    }\n\n    function version() public pure returns (string memory) {\n        return \"v3\";\n    }\n\n    uint256[50] private __gap;\n\n    //BlackListing\n    mapping(address => bool) internal blacklisted;\n    event Blacklisted(address indexed _account);\n    event UnBlacklisted(address indexed _account);\n\n    /**\n     * @dev Throws if argument account is blacklisted\n     * @param _account The address to check\n    */\n    modifier notBlacklisted(address _account) {\n        require(blacklisted[_account] == false);\n        _;\n    }\n\n    /**\n     * @dev Checks if account is blacklisted\n     * @param _account The address to check    \n    */\n    function isBlacklisted(address _account) public view returns (bool) {\n        return blacklisted[_account];\n    }\n\n    /**\n     * @dev Adds account to blacklist\n     * @param _account The address to blacklist\n    */\n    function blacklist(address _account) external {\n        require(hasRole(DEFAULT_ADMIN_ROLE, _msgSender()), \"SwapToken [blacklist]: must have admin role to blacklist\");\n        blacklisted[_account] = true;\n        emit Blacklisted(_account);\n    }\n\n    /**\n     * @dev Removes account from blacklist\n     * @param _account The address to remove from the blacklist\n    */\n    function unBlacklist(address _account) external {\n        require(hasRole(DEFAULT_ADMIN_ROLE, _msgSender()), \"SwapToken [unBlacklist]: must have admin role to unBlacklist\");\n        blacklisted[_account] = false;\n        emit UnBlacklisted(_account);\n    }\n}\n",
  "sourcePath": "/Volumes/Projects/Projects/TrustSwap/swap-contracts/contracts/SwapToken.sol",
  "compiler": {
    "name": "solc",
    "version": "0.6.2+commit.bacdbe57.Emscripten.clang"
  },
  "schemaVersion": "3.3.4",
  "updatedAt": "2021-03-15T19:49:43.339Z",
  "devdoc": {
    "details": "{ERC20} token, including: *  - ability for holders to burn (destroy) their tokens - a minter role that allows for token minting (creation) - a pauser role that allows to stop all token transfers * This contract uses {AccessControl} to lock permissioned functions using the different roles - head to its documentation for details. * The account that deploys the contract will be granted the minter and pauser roles, as well as the default admin role, which will let it grant both minter and pauser roles to aother accounts",
    "methods": {
      "allowance(address,address)": {
        "details": "See {IERC20-allowance}."
      },
      "approve(address,uint256)": {
        "details": "See {IERC20-approve}.     * Requirements:     * - `spender` cannot be the zero address."
      },
      "balanceOf(address)": {
        "details": "See {IERC20-balanceOf}."
      },
      "blacklist(address)": {
        "details": "Adds account to blacklist",
        "params": {
          "_account": "The address to blacklist"
        }
      },
      "burn(uint256)": {
        "details": "Destroys `amount` tokens from the caller.     * See {ERC20-_burn}."
      },
      "burnFrom(address,uint256)": {
        "details": "Destroys `amount` tokens from `account`, deducting from the caller's allowance.     * See {ERC20-_burn} and {ERC20-allowance}.     * Requirements:     * - the caller must have allowance for ``accounts``'s tokens of at least `amount`."
      },
      "decimals()": {
        "details": "Returns the number of decimals used to get its user representation. For example, if `decimals` equals `2`, a balance of `505` tokens should be displayed to a user as `5,05` (`505 / 10 ** 2`).     * Tokens usually opt for a value of 18, imitating the relationship between Ether and Wei. This is the value {ERC20} uses, unless {_setupDecimals} is called.     * NOTE: This information is only used for _display_ purposes: it in no way affects any of the arithmetic of the contract, including {IERC20-balanceOf} and {IERC20-transfer}."
      },
      "decreaseAllowance(address,uint256)": {
        "details": "Atomically decreases the allowance granted to `spender` by the caller.     * This is an alternative to {approve} that can be used as a mitigation for problems described in {IERC20-approve}.     * Emits an {Approval} event indicating the updated allowance.     * Requirements:     * - `spender` cannot be the zero address. - `spender` must have allowance for the caller of at least `subtractedValue`."
      },
      "getRoleAdmin(bytes32)": {
        "details": "Returns the admin role that controls `role`. See {grantRole} and {revokeRole}.     * To change a role's admin, use {_setRoleAdmin}."
      },
      "getRoleMember(bytes32,uint256)": {
        "details": "Returns one of the accounts that have `role`. `index` must be a value between 0 and {getRoleMemberCount}, non-inclusive.     * Role bearers are not sorted in any particular way, and their ordering may change at any point.     * WARNING: When using {getRoleMember} and {getRoleMemberCount}, make sure you perform all queries on the same block. See the following https://forum.openzeppelin.com/t/iterating-over-elements-on-enumerableset-in-openzeppelin-contracts/2296[forum post] for more information."
      },
      "getRoleMemberCount(bytes32)": {
        "details": "Returns the number of accounts that have `role`. Can be used together with {getRoleMember} to enumerate all bearers of a role."
      },
      "grantRole(bytes32,address)": {
        "details": "Grants `role` to `account`.     * If `account` had not been already granted `role`, emits a {RoleGranted} event.     * Requirements:     * - the caller must have ``role``'s admin role."
      },
      "hasRole(bytes32,address)": {
        "details": "Returns `true` if `account` has been granted `role`."
      },
      "increaseAllowance(address,uint256)": {
        "details": "Atomically increases the allowance granted to `spender` by the caller.     * This is an alternative to {approve} that can be used as a mitigation for problems described in {IERC20-approve}.     * Emits an {Approval} event indicating the updated allowance.     * Requirements:     * - `spender` cannot be the zero address."
      },
      "initialize(string,string,uint8,uint256)": {
        "details": "Grants `DEFAULT_ADMIN_ROLE` and `PAUSER_ROLE` to the account that deploys the contract.     * See {ERC20-constructor}."
      },
      "isBlacklisted(address)": {
        "details": "Checks if account is blacklisted",
        "params": {
          "_account": "The address to check    "
        }
      },
      "name()": {
        "details": "Returns the name of the token."
      },
      "pause()": {
        "details": "Pauses all token transfers.     * See {ERC20Pausable} and {Pausable-_pause}.     * Requirements:     * - the caller must have the `PAUSER_ROLE`."
      },
      "paused()": {
        "details": "Returns true if the contract is paused, and false otherwise."
      },
      "renounceRole(bytes32,address)": {
        "details": "Revokes `role` from the calling account.     * Roles are often managed via {grantRole} and {revokeRole}: this function's purpose is to provide a mechanism for accounts to lose their privileges if they are compromised (such as when a trusted device is misplaced).     * If the calling account had been granted `role`, emits a {RoleRevoked} event.     * Requirements:     * - the caller must be `account`."
      },
      "revokeRole(bytes32,address)": {
        "details": "Revokes `role` from `account`.     * If `account` had been granted `role`, emits a {RoleRevoked} event.     * Requirements:     * - the caller must have ``role``'s admin role."
      },
      "symbol()": {
        "details": "Returns the symbol of the token, usually a shorter version of the name."
      },
      "totalSupply()": {
        "details": "See {IERC20-totalSupply}."
      },
      "transfer(address,uint256)": {
        "details": "See {IERC20-transfer}.     * Requirements:     * - `recipient` cannot be the zero address. - the caller must have a balance of at least `amount`."
      },
      "transferFrom(address,address,uint256)": {
        "details": "See {IERC20-transferFrom}.     * Emits an {Approval} event indicating the updated allowance. This is not required by the EIP. See the note at the beginning of {ERC20};     * Requirements: - `sender` and `recipient` cannot be the zero address. - `sender` must have a balance of at least `amount`. - the caller must have allowance for ``sender``'s tokens of at least `amount`."
      },
      "unBlacklist(address)": {
        "details": "Removes account from blacklist",
        "params": {
          "_account": "The address to remove from the blacklist"
        }
      },
      "unpause()": {
        "details": "Unpauses all token transfers.     * See {ERC20Pausable} and {Pausable-_unpause}.     * Requirements:     * - the caller must have the `PAUSER_ROLE`."
      }
    }
  },
  "userdoc": {
    "methods": {}
  }
}